{
	"compilerInput": "{\"language\":\"Solidity\",\"sources\":{\"contracts/Test.sol\":{\"content\":\"// SPDX-License-Identifier: MIT\\r\\n\\r\\nimport \\\"@openzeppelin/contracts/token/ERC20/IERC20.sol\\\";\\r\\nimport \\\"@acala-network/contracts/schedule/ISchedule.sol\\\";\\r\\nimport \\\"@acala-network/contracts/oracle/IOracle.sol\\\";\\r\\nimport \\\"@acala-network/contracts/utils/Predeploy.sol\\\";\\r\\nimport \\\"@acala-network/contracts/utils/AcalaTokens.sol\\\";\\r\\n\\r\\npragma solidity ^0.8.0;\\r\\n\\r\\ncontract DisDrop{\\r\\n\\r\\n    constructor() payable{}\\r\\n\\r\\n    ISchedule  scheduler = ISchedule(SCHEDULE);\\r\\n    IOracle oracle = IOracle(ORACLE);\\r\\n\\r\\n    fallback() external payable{}\\r\\n    receive() external payable{}\\r\\n\\r\\n    event Erc20BatchTransfer(uint256 indexed recipientIndex, address indexed recipient, uint256 amount);\\r\\n    event TransferScheduled(bytes indexed scheduleId, address indexed token, address[] recipients, uint256[] amounts, uint256 executionTime);\\r\\n    event PriceCheckScheduled(bytes indexed scheduleId, uint256 nextCheckTime);\\r\\n\\r\\n    function dispersal(address tokenAddress, address[] memory recipients, uint256[] memory amount) payable public{\\r\\n        IERC20 token = IERC20(tokenAddress);\\r\\n        require(recipients.length == amount.length , \\\"Give inputs accordingly!\\\");\\r\\n        uint256 total = 0;\\r\\n        for (uint256 i = 0; i < recipients.length; i++) {\\r\\n            total = total + amount[i];\\r\\n            }\\r\\n        require(token.transferFrom(msg.sender, address(this), total) , \\\"Token transferFrom failed! \\\");\\r\\n        for (uint256 i = 0; i < recipients.length; i++) {\\r\\n            require(token.transfer(recipients[i], amount[i]), \\\"Token transfer failed\\\");\\r\\n            emit Erc20BatchTransfer(i, recipients[i], amount[i]);\\r\\n            }\\r\\n    }\\r\\n\\r\\n    function scheduled_dispersal(address tokenAddress, address[] memory recipients, uint256[] memory amounts, uint256 delay) payable public{\\r\\n        IERC20 token = IERC20(tokenAddress);\\r\\n        require(recipients.length == amounts.length, \\\"Give inputs accordingly!\\\");\\r\\n        uint256 total = 0;\\r\\n        for (uint256 i = 0; i < amounts.length; i++) {\\r\\n            total = total + amounts[i];\\r\\n        }\\r\\n        require(token.transferFrom(msg.sender, address(this), total), \\\"Token transfer failed!\\\");\\r\\n        bytes memory data = abi.encodeWithSignature(\\\"executeERC20BatchTransfer(address,address[],uint256[])\\\",tokenAddress, recipients, amounts);\\r\\n        bytes memory scheduleId = scheduler.scheduleCall(address(this), 0, 2100000, 64000, delay, data);\\r\\n        emit TransferScheduled(scheduleId,tokenAddress, recipients, amounts, block.timestamp + delay);\\r\\n    }\\r\\n\\r\\n    function executeERC20BatchTransfer(address tokenAddress, address[] memory recipients, uint256[] memory amounts) public {\\r\\n        IERC20 token = IERC20(tokenAddress);\\r\\n        require(recipients.length == amounts.length, \\\"Mismatched recipients and amounts\\\");\\r\\n        for (uint256 i = 0; i < recipients.length; i++) {\\r\\n            require(token.transfer(recipients[i], amounts[i]), \\\"Token transfer failed\\\");\\r\\n            emit Erc20BatchTransfer(i, recipients[i], amounts[i]);\\r\\n        }\\r\\n    }\\r\\n\\r\\n    function priceTriggeredDispersal(\\r\\n        address tokenAddress,\\r\\n        address[] memory recipients,\\r\\n        uint256[] memory amounts,\\r\\n        uint256 desiredPrice,\\r\\n        uint256 interval,\\r\\n        uint256 percentage\\r\\n    ) payable public {\\r\\n\\r\\n        IERC20 token = IERC20(tokenAddress);\\r\\n        uint256 currentPrice = oracle.getPrice(tokenAddress);\\r\\n        uint256 priceDifference = desiredPrice * percentage / 100;\\r\\n        \\r\\n        if(msg.sender != address(this)){\\r\\n            require(recipients.length == amounts.length , \\\"Give inputs accordingly!\\\");\\r\\n            uint256 total = 0;\\r\\n            for (uint256 i = 0; i < recipients.length; i++) {\\r\\n                total = total + amounts[i];\\r\\n                }\\r\\n            require(token.transferFrom(msg.sender, address(this), total) , \\\"Token transferFrom failed! \\\");\\r\\n        }\\r\\n        \\r\\n        if (currentPrice >= desiredPrice - priceDifference && currentPrice <= desiredPrice + priceDifference) {\\r\\n            for (uint256 i = 0; i < recipients.length; i++) {\\r\\n                token.transfer(recipients[i], amounts[i]);\\r\\n            }\\r\\n        }else{\\r\\n            bytes memory data = abi.encodeWithSignature(\\r\\n                \\\"priceTriggeredDispersal(address,address[],uint256[],uint256,uint256,uint256)\\\",\\r\\n                tokenAddress,\\r\\n                recipients,\\r\\n                amounts,\\r\\n                desiredPrice,\\r\\n                interval,\\r\\n                percentage\\r\\n            );\\r\\n            bytes memory scheduleId = scheduler.scheduleCall(address(this), 0, 2100000, 64000, interval, data);\\r\\n            emit PriceCheckScheduled(scheduleId, block.timestamp + interval);\\r\\n        }\\r\\n    }\\r\\n}\"},\"@acala-network/contracts/utils/AcalaTokens.sol\":{\"content\":\"// SPDX-License-Identifier: GPL-3.0-or-later\\n\\npragma solidity ^0.8.0;\\n\\naddress constant ACA = 0x0000000000000000000100000000000000000000;\\naddress constant AUSD = 0x0000000000000000000100000000000000000001;\\naddress constant DOT = 0x0000000000000000000100000000000000000002;\\naddress constant LDOT = 0x0000000000000000000100000000000000000003;\\naddress constant TAP = 0x0000000000000000000100000000000000000004;\\naddress constant LP_ACA_AUSD = 0x0000000000000000000200000000000000000001;\\naddress constant LP_LDOT_AUSD = 0x0000000000000000000200000000010000000003;\\naddress constant LP_LCDOT_AUSD = 0x000000000000000000020000000001020000000D;\\naddress constant LP_LCDOT_DOT = 0x000000000000000000020000000002020000000d;\\naddress constant SA_DOT = 0x0000000000000000000300000000000000000000;\\naddress constant LCDOT_13 = 0x000000000000000000040000000000000000000d;\\naddress constant FA_GLMR = 0x0000000000000000000500000000000000000000;\\naddress constant FA_PARA = 0x0000000000000000000500000000000000000001;\\naddress constant FA_ASTR = 0x0000000000000000000500000000000000000002;\\naddress constant FA_IBTC = 0x0000000000000000000500000000000000000003;\\naddress constant FA_INTR = 0x0000000000000000000500000000000000000004;\\naddress constant FA_WBTC = 0x0000000000000000000500000000000000000005;\\naddress constant FA_WETH = 0x0000000000000000000500000000000000000006;\\naddress constant FA_EQ = 0x0000000000000000000500000000000000000007;\\naddress constant FA_EQD = 0x0000000000000000000500000000000000000008;\\n\"},\"@acala-network/contracts/utils/Predeploy.sol\":{\"content\":\"// SPDX-License-Identifier: GPL-3.0-or-later\\n\\npragma solidity ^0.8.0;\\n\\naddress constant EVM = 0x0000000000000000000000000000000000000800;\\naddress constant ORACLE = 0x0000000000000000000000000000000000000801;\\naddress constant SCHEDULE = 0x0000000000000000000000000000000000000802;\\naddress constant DEX = 0x0000000000000000000000000000000000000803;\\naddress constant STABLE_ASSET = 0x0000000000000000000000000000000000000804;\\naddress constant HOMA = 0x0000000000000000000000000000000000000805;\\naddress constant EVM_ACCOUNTS = 0x0000000000000000000000000000000000000806;\\naddress constant HONZON = 0x0000000000000000000000000000000000000807;\\naddress constant INCENTIVES = 0x0000000000000000000000000000000000000808;\\naddress constant XTOKENS = 0x0000000000000000000000000000000000000809;\\n\"},\"@acala-network/contracts/oracle/IOracle.sol\":{\"content\":\"// SPDX-License-Identifier: GPL-3.0-or-later\\n\\npragma solidity ^0.8.0;\\n\\n/// @title Oracle Predeploy Contract Interface\\n/// @author Acala Developers\\n/// @notice You can use this predeploy contract to call oracle pallet\\n/// @dev The interface through which solidity contracts will interact with oracle pallet\\ninterface IOracle {\\n    /// @notice Get the price of the currency_id.\\n    /// @param token The ERC20 address of currency_id.\\n    /// @return Returns the (price, timestamp).\\n    function getPrice(address token) external view returns (uint256);\\n}\\n\"},\"@acala-network/contracts/schedule/ISchedule.sol\":{\"content\":\"// SPDX-License-Identifier: GPL-3.0-or-later\\n\\npragma solidity ^0.8.0;\\n\\n/// @title Schedule Predeploy Contract Interface\\n/// @author Acala Developers\\n/// @notice You can use this predeploy contract to call idle-schedule pallet\\n/// @dev The interface through which solidity contracts will interact with idle-schedule pallet\\ninterface ISchedule {\\n    /// @notice The scheduled call event.\\n    /// @param sender The sender of the transaction.\\n    /// @param contractAddress The scheduled contract address.\\n    /// @param taskId The scheduled task id.\\n    event ScheduledCall(\\n        address indexed sender,\\n        address indexed contractAddress,\\n        bytes taskId\\n    );\\n\\n    /// @notice The canceled call event.\\n    /// @param sender The sender of the transaction.\\n    /// @param taskId The scheduled task id.\\n    event CanceledCall(address indexed sender, bytes taskId);\\n\\n    /// @notice The rescheduled call event.\\n    /// @param sender The sender of the transaction.\\n    /// @param taskId The scheduled task id.\\n    event RescheduledCall(address indexed sender, bytes taskId);\\n\\n    /// @notice Schedule call the contract.\\n    /// @dev It'll emit an {ScheduledCall} event.\\n    /// @param contractAddress The contract address to be called in future.\\n    /// @param value How much native token to send alone with the call.\\n    /// @param gasLimit The gas limit for the call. Corresponding fee will be reserved upfront and refunded after call.\\n    /// @param storageLimit The storage limit for the call.\\n    /// Corresponding fee will be reserved upfront and refunded after call.\\n    /// @param minDelay Minimum number of blocks before the scheduled call will be called.\\n    /// @param inputData The input data to the call.\\n    /// @return Returns a bytes value equal to the taskId of the task created.\\n    function scheduleCall(\\n        address contractAddress,\\n        uint256 value,\\n        uint256 gasLimit,\\n        uint256 storageLimit,\\n        uint256 minDelay,\\n        bytes calldata inputData\\n    ) external returns (bytes memory);\\n\\n    /// @notice Cancel schedule call the contract.\\n    /// @dev It'll emit an {CanceledCall} event.\\n    /// @param taskId The task id of the scheduler. Get it from the `ScheduledCall` event.\\n    /// @return Returns a boolean value indicating whether the operation succeeded.\\n    function cancelCall(bytes calldata taskId) external returns (bool);\\n\\n    /// @notice Reschedule call the contract.\\n    /// @dev It'll emit an {RescheduledCall} event.\\n    /// @param minDelay The Minimum number of blocks before the scheduled call will be called.\\n    /// @param taskId The task id of the scheduler. Get it from the `ScheduledCall` event.\\n    /// @return Returns a boolean value indicating whether the operation succeeded.\\n    function rescheduleCall(\\n        uint256 minDelay,\\n        bytes calldata taskId\\n    ) external returns (bool);\\n}\\n\"},\"@openzeppelin/contracts/token/ERC20/IERC20.sol\":{\"content\":\"// SPDX-License-Identifier: MIT\\n// OpenZeppelin Contracts (last updated v4.6.0) (token/ERC20/IERC20.sol)\\n\\npragma solidity ^0.8.0;\\n\\n/**\\n * @dev Interface of the ERC20 standard as defined in the EIP.\\n */\\ninterface IERC20 {\\n    /**\\n     * @dev Emitted when `value` tokens are moved from one account (`from`) to\\n     * another (`to`).\\n     *\\n     * Note that `value` may be zero.\\n     */\\n    event Transfer(address indexed from, address indexed to, uint256 value);\\n\\n    /**\\n     * @dev Emitted when the allowance of a `spender` for an `owner` is set by\\n     * a call to {approve}. `value` is the new allowance.\\n     */\\n    event Approval(address indexed owner, address indexed spender, uint256 value);\\n\\n    /**\\n     * @dev Returns the amount of tokens in existence.\\n     */\\n    function totalSupply() external view returns (uint256);\\n\\n    /**\\n     * @dev Returns the amount of tokens owned by `account`.\\n     */\\n    function balanceOf(address account) external view returns (uint256);\\n\\n    /**\\n     * @dev Moves `amount` tokens from the caller's account to `to`.\\n     *\\n     * Returns a boolean value indicating whether the operation succeeded.\\n     *\\n     * Emits a {Transfer} event.\\n     */\\n    function transfer(address to, uint256 amount) external returns (bool);\\n\\n    /**\\n     * @dev Returns the remaining number of tokens that `spender` will be\\n     * allowed to spend on behalf of `owner` through {transferFrom}. This is\\n     * zero by default.\\n     *\\n     * This value changes when {approve} or {transferFrom} are called.\\n     */\\n    function allowance(address owner, address spender) external view returns (uint256);\\n\\n    /**\\n     * @dev Sets `amount` as the allowance of `spender` over the caller's tokens.\\n     *\\n     * Returns a boolean value indicating whether the operation succeeded.\\n     *\\n     * IMPORTANT: Beware that changing an allowance with this method brings the risk\\n     * that someone may use both the old and the new allowance by unfortunate\\n     * transaction ordering. One possible solution to mitigate this race\\n     * condition is to first reduce the spender's allowance to 0 and set the\\n     * desired value afterwards:\\n     * https://github.com/ethereum/EIPs/issues/20#issuecomment-263524729\\n     *\\n     * Emits an {Approval} event.\\n     */\\n    function approve(address spender, uint256 amount) external returns (bool);\\n\\n    /**\\n     * @dev Moves `amount` tokens from `from` to `to` using the\\n     * allowance mechanism. `amount` is then deducted from the caller's\\n     * allowance.\\n     *\\n     * Returns a boolean value indicating whether the operation succeeded.\\n     *\\n     * Emits a {Transfer} event.\\n     */\\n    function transferFrom(\\n        address from,\\n        address to,\\n        uint256 amount\\n    ) external returns (bool);\\n}\\n\"}},\"settings\":{\"optimizer\":{\"enabled\":false,\"runs\":200},\"outputSelection\":{\"*\":{\"\":[\"ast\"],\"*\":[\"abi\",\"metadata\",\"devdoc\",\"userdoc\",\"storageLayout\",\"evm.legacyAssembly\",\"evm.bytecode\",\"evm.deployedBytecode\",\"evm.methodIdentifiers\",\"evm.gasEstimates\",\"evm.assembly\"]}}}}",
	"name": "DisDrop",
	"bytecode": {
		"linkReferences": {},
		"object": "60806040526108026000806101000a81548173ffffffffffffffffffffffffffffffffffffffff021916908373ffffffffffffffffffffffffffffffffffffffff160217905550610801600160006101000a81548173ffffffffffffffffffffffffffffffffffffffff021916908373ffffffffffffffffffffffffffffffffffffffff160217905550611d4f806100986000396000f3fe6080604052600436106100435760003560e01c806346ba5fed1461004c5780635b93f50714610075578063e826271a14610091578063ed44b388146100ad5761004a565b3661004a57005b005b34801561005857600080fd5b50610073600480360381019061006e9190611073565b6100c9565b005b61008f600480360381019061008a91906110fe565b6102ac565b005b6100ab60048036038101906100a6919061119d565b6105c6565b005b6100c760048036038101906100c29190611073565b610ac3565b005b60008390508151835114610112576040517f08c379a0000000000000000000000000000000000000000000000000000000008152600401610109906112e5565b60405180910390fd5b60005b83518110156102a5578173ffffffffffffffffffffffffffffffffffffffff1663a9059cbb85838151811061014d5761014c611305565b5b602002602001015185848151811061016857610167611305565b5b60200260200101516040518363ffffffff1660e01b815260040161018d929190611352565b6020604051808303816000875af11580156101ac573d6000803e3d6000fd5b505050506040513d601f19601f820116820180604052508101906101d091906113b3565b61020f576040517f08c379a00000000000000000000000000000000000000000000000000000000081526004016102069061142c565b60405180910390fd5b83818151811061022257610221611305565b5b602002602001015173ffffffffffffffffffffffffffffffffffffffff16817fb9471439bd4c23f19d2b486548fa6061ab17e1da9815f325f2a2b29f22e715e385848151811061027557610274611305565b5b602002602001015160405161028a919061144c565b60405180910390a3808061029d90611496565b915050610115565b5050505050565b600084905082518451146102f5576040517f08c379a00000000000000000000000000000000000000000000000000000000081526004016102ec9061152a565b60405180910390fd5b6000805b845181101561033d5784818151811061031557610314611305565b5b602002602001015182610328919061154a565b9150808061033590611496565b9150506102f9565b508173ffffffffffffffffffffffffffffffffffffffff166323b872dd3330846040518463ffffffff1660e01b815260040161037b9392919061157e565b6020604051808303816000875af115801561039a573d6000803e3d6000fd5b505050506040513d601f19601f820116820180604052508101906103be91906113b3565b6103fd576040517f08c379a00000000000000000000000000000000000000000000000000000000081526004016103f490611601565b60405180910390fd5b60008686866040516024016104149392919061179d565b6040516020818303038152906040527f46ba5fed000000000000000000000000000000000000000000000000000000007bffffffffffffffffffffffffffffffffffffffffffffffffffffffff19166020820180517bffffffffffffffffffffffffffffffffffffffffffffffffffffffff8381831617835250505050905060008060009054906101000a900473ffffffffffffffffffffffffffffffffffffffff1673ffffffffffffffffffffffffffffffffffffffff1663168d560d30600062200b2061fa008a886040518763ffffffff1660e01b81526004016104ff9695949392919061191c565b6000604051808303816000875af115801561051e573d6000803e3d6000fd5b505050506040513d6000823e3d601f19601f820116820180604052508101906105479190611a2a565b90508773ffffffffffffffffffffffffffffffffffffffff168160405161056e9190611aaf565b60405180910390207fc9c9afe41dd5e3a9438dd88814edcb9c8089a9e980f48b14414eda3d6d3d0e9a898989426105a5919061154a565b6040516105b493929190611ac6565b60405180910390a35050505050505050565b60008690506000600160009054906101000a900473ffffffffffffffffffffffffffffffffffffffff1673ffffffffffffffffffffffffffffffffffffffff166341976e09896040518263ffffffff1660e01b81526004016106289190611b0b565b602060405180830381865afa158015610645573d6000803e3d6000fd5b505050506040513d601f19601f820116820180604052508101906106699190611b3b565b905060006064848761067b9190611b68565b6106859190611bd9565b90503073ffffffffffffffffffffffffffffffffffffffff163373ffffffffffffffffffffffffffffffffffffffff16146108085786518851146106fe576040517f08c379a00000000000000000000000000000000000000000000000000000000081526004016106f59061152a565b60405180910390fd5b6000805b89518110156107465788818151811061071e5761071d611305565b5b602002602001015182610731919061154a565b9150808061073e90611496565b915050610702565b508373ffffffffffffffffffffffffffffffffffffffff166323b872dd3330846040518463ffffffff1660e01b81526004016107849392919061157e565b6020604051808303816000875af11580156107a3573d6000803e3d6000fd5b505050506040513d601f19601f820116820180604052508101906107c791906113b3565b610806576040517f08c379a00000000000000000000000000000000000000000000000000000000081526004016107fd90611c56565b60405180910390fd5b505b80866108149190611c76565b821015801561082e5750808661082a919061154a565b8211155b1561090b5760005b8851811015610905578373ffffffffffffffffffffffffffffffffffffffff1663a9059cbb8a838151811061086e5761086d611305565b5b60200260200101518a848151811061088957610888611305565b5b60200260200101516040518363ffffffff1660e01b81526004016108ae929190611352565b6020604051808303816000875af11580156108cd573d6000803e3d6000fd5b505050506040513d601f19601f820116820180604052508101906108f191906113b3565b5080806108fd90611496565b915050610836565b50610ab8565b600089898989898960405160240161092896959493929190611caa565b6040516020818303038152906040527fe826271a000000000000000000000000000000000000000000000000000000007bffffffffffffffffffffffffffffffffffffffffffffffffffffffff19166020820180517bffffffffffffffffffffffffffffffffffffffffffffffffffffffff8381831617835250505050905060008060009054906101000a900473ffffffffffffffffffffffffffffffffffffffff1673ffffffffffffffffffffffffffffffffffffffff1663168d560d30600062200b2061fa008c886040518763ffffffff1660e01b8152600401610a139695949392919061191c565b6000604051808303816000875af1158015610a32573d6000803e3d6000fd5b505050506040513d6000823e3d601f19601f82011682018060405250810190610a5b9190611a2a565b905080604051610a6b9190611aaf565b60405180910390207f9e989ccc644aff3dccb44d63c0125cf7c49f64c9631016543486e7dfc72187c78842610aa0919061154a565b604051610aad919061144c565b60405180910390a250505b505050505050505050565b60008390508151835114610b0c576040517f08c379a0000000000000000000000000000000000000000000000000000000008152600401610b039061152a565b60405180910390fd5b6000805b8451811015610b5457838181518110610b2c57610b2b611305565b5b602002602001015182610b3f919061154a565b91508080610b4c90611496565b915050610b10565b508173ffffffffffffffffffffffffffffffffffffffff166323b872dd3330846040518463ffffffff1660e01b8152600401610b929392919061157e565b6020604051808303816000875af1158015610bb1573d6000803e3d6000fd5b505050506040513d601f19601f82011682018060405250810190610bd591906113b3565b610c14576040517f08c379a0000000000000000000000000000000000000000000000000000000008152600401610c0b90611c56565b60405180910390fd5b60005b8451811015610da7578273ffffffffffffffffffffffffffffffffffffffff1663a9059cbb868381518110610c4f57610c4e611305565b5b6020026020010151868481518110610c6a57610c69611305565b5b60200260200101516040518363ffffffff1660e01b8152600401610c8f929190611352565b6020604051808303816000875af1158015610cae573d6000803e3d6000fd5b505050506040513d601f19601f82011682018060405250810190610cd291906113b3565b610d11576040517f08c379a0000000000000000000000000000000000000000000000000000000008152600401610d089061142c565b60405180910390fd5b848181518110610d2457610d23611305565b5b602002602001015173ffffffffffffffffffffffffffffffffffffffff16817fb9471439bd4c23f19d2b486548fa6061ab17e1da9815f325f2a2b29f22e715e3868481518110610d7757610d76611305565b5b6020026020010151604051610d8c919061144c565b60405180910390a38080610d9f90611496565b915050610c17565b505050505050565b6000604051905090565b600080fd5b600080fd5b600073ffffffffffffffffffffffffffffffffffffffff82169050919050565b6000610dee82610dc3565b9050919050565b610dfe81610de3565b8114610e0957600080fd5b50565b600081359050610e1b81610df5565b92915050565b600080fd5b6000601f19601f8301169050919050565b7f4e487b7100000000000000000000000000000000000000000000000000000000600052604160045260246000fd5b610e6f82610e26565b810181811067ffffffffffffffff82111715610e8e57610e8d610e37565b5b80604052505050565b6000610ea1610daf565b9050610ead8282610e66565b919050565b600067ffffffffffffffff821115610ecd57610ecc610e37565b5b602082029050602081019050919050565b600080fd5b6000610ef6610ef184610eb2565b610e97565b90508083825260208201905060208402830185811115610f1957610f18610ede565b5b835b81811015610f425780610f2e8882610e0c565b845260208401935050602081019050610f1b565b5050509392505050565b600082601f830112610f6157610f60610e21565b5b8135610f71848260208601610ee3565b91505092915050565b600067ffffffffffffffff821115610f9557610f94610e37565b5b602082029050602081019050919050565b6000819050919050565b610fb981610fa6565b8114610fc457600080fd5b50565b600081359050610fd681610fb0565b92915050565b6000610fef610fea84610f7a565b610e97565b9050808382526020820190506020840283018581111561101257611011610ede565b5b835b8181101561103b57806110278882610fc7565b845260208401935050602081019050611014565b5050509392505050565b600082601f83011261105a57611059610e21565b5b813561106a848260208601610fdc565b91505092915050565b60008060006060848603121561108c5761108b610db9565b5b600061109a86828701610e0c565b935050602084013567ffffffffffffffff8111156110bb576110ba610dbe565b5b6110c786828701610f4c565b925050604084013567ffffffffffffffff8111156110e8576110e7610dbe565b5b6110f486828701611045565b9150509250925092565b6000806000806080858703121561111857611117610db9565b5b600061112687828801610e0c565b945050602085013567ffffffffffffffff81111561114757611146610dbe565b5b61115387828801610f4c565b935050604085013567ffffffffffffffff81111561117457611173610dbe565b5b61118087828801611045565b925050606061119187828801610fc7565b91505092959194509250565b60008060008060008060c087890312156111ba576111b9610db9565b5b60006111c889828a01610e0c565b965050602087013567ffffffffffffffff8111156111e9576111e8610dbe565b5b6111f589828a01610f4c565b955050604087013567ffffffffffffffff81111561121657611215610dbe565b5b61122289828a01611045565b945050606061123389828a01610fc7565b935050608061124489828a01610fc7565b92505060a061125589828a01610fc7565b9150509295509295509295565b600082825260208201905092915050565b7f4d69736d61746368656420726563697069656e747320616e6420616d6f756e7460008201527f7300000000000000000000000000000000000000000000000000000000000000602082015250565b60006112cf602183611262565b91506112da82611273565b604082019050919050565b600060208201905081810360008301526112fe816112c2565b9050919050565b7f4e487b7100000000000000000000000000000000000000000000000000000000600052603260045260246000fd5b61133d81610de3565b82525050565b61134c81610fa6565b82525050565b60006040820190506113676000830185611334565b6113746020830184611343565b9392505050565b60008115159050919050565b6113908161137b565b811461139b57600080fd5b50565b6000815190506113ad81611387565b92915050565b6000602082840312156113c9576113c8610db9565b5b60006113d78482850161139e565b91505092915050565b7f546f6b656e207472616e73666572206661696c65640000000000000000000000600082015250565b6000611416601583611262565b9150611421826113e0565b602082019050919050565b6000602082019050818103600083015261144581611409565b9050919050565b60006020820190506114616000830184611343565b92915050565b7f4e487b7100000000000000000000000000000000000000000000000000000000600052601160045260246000fd5b60006114a182610fa6565b91507fffffffffffffffffffffffffffffffffffffffffffffffffffffffffffffffff82036114d3576114d2611467565b5b600182019050919050565b7f4769766520696e70757473206163636f7264696e676c79210000000000000000600082015250565b6000611514601883611262565b915061151f826114de565b602082019050919050565b6000602082019050818103600083015261154381611507565b9050919050565b600061155582610fa6565b915061156083610fa6565b925082820190508082111561157857611577611467565b5b92915050565b60006060820190506115936000830186611334565b6115a06020830185611334565b6115ad6040830184611343565b949350505050565b7f546f6b656e207472616e73666572206661696c65642100000000000000000000600082015250565b60006115eb601683611262565b91506115f6826115b5565b602082019050919050565b6000602082019050818103600083015261161a816115de565b9050919050565b600081519050919050565b600082825260208201905092915050565b6000819050602082019050919050565b61165681610de3565b82525050565b6000611668838361164d565b60208301905092915050565b6000602082019050919050565b600061168c82611621565b611696818561162c565b93506116a18361163d565b8060005b838110156116d25781516116b9888261165c565b97506116c483611674565b9250506001810190506116a5565b5085935050505092915050565b600081519050919050565b600082825260208201905092915050565b6000819050602082019050919050565b61171481610fa6565b82525050565b6000611726838361170b565b60208301905092915050565b6000602082019050919050565b600061174a826116df565b61175481856116ea565b935061175f836116fb565b8060005b83811015611790578151611777888261171a565b975061178283611732565b925050600181019050611763565b5085935050505092915050565b60006060820190506117b26000830186611334565b81810360208301526117c48185611681565b905081810360408301526117d8818461173f565b9050949350505050565b6000819050919050565b6000819050919050565b600061181161180c611807846117e2565b6117ec565b610fa6565b9050919050565b611821816117f6565b82525050565b6000819050919050565b600061184c61184761184284611827565b6117ec565b610fa6565b9050919050565b61185c81611831565b82525050565b6000819050919050565b600061188761188261187d84611862565b6117ec565b610fa6565b9050919050565b6118978161186c565b82525050565b600081519050919050565b600082825260208201905092915050565b60005b838110156118d75780820151818401526020810190506118bc565b60008484015250505050565b60006118ee8261189d565b6118f881856118a8565b93506119088185602086016118b9565b61191181610e26565b840191505092915050565b600060c0820190506119316000830189611334565b61193e6020830188611818565b61194b6040830187611853565b611958606083018661188e565b6119656080830185611343565b81810360a083015261197781846118e3565b9050979650505050505050565b600080fd5b600067ffffffffffffffff8211156119a4576119a3610e37565b5b6119ad82610e26565b9050602081019050919050565b60006119cd6119c884611989565b610e97565b9050828152602081018484840111156119e9576119e8611984565b5b6119f48482856118b9565b509392505050565b600082601f830112611a1157611a10610e21565b5b8151611a218482602086016119ba565b91505092915050565b600060208284031215611a4057611a3f610db9565b5b600082015167ffffffffffffffff811115611a5e57611a5d610dbe565b5b611a6a848285016119fc565b91505092915050565b600081905092915050565b6000611a898261189d565b611a938185611a73565b9350611aa38185602086016118b9565b80840191505092915050565b6000611abb8284611a7e565b915081905092915050565b60006060820190508181036000830152611ae08186611681565b90508181036020830152611af4818561173f565b9050611b036040830184611343565b949350505050565b6000602082019050611b206000830184611334565b92915050565b600081519050611b3581610fb0565b92915050565b600060208284031215611b5157611b50610db9565b5b6000611b5f84828501611b26565b91505092915050565b6000611b7382610fa6565b9150611b7e83610fa6565b9250828202611b8c81610fa6565b91508282048414831517611ba357611ba2611467565b5b5092915050565b7f4e487b7100000000000000000000000000000000000000000000000000000000600052601260045260246000fd5b6000611be482610fa6565b9150611bef83610fa6565b925082611bff57611bfe611baa565b5b828204905092915050565b7f546f6b656e207472616e7366657246726f6d206661696c656421200000000000600082015250565b6000611c40601b83611262565b9150611c4b82611c0a565b602082019050919050565b60006020820190508181036000830152611c6f81611c33565b9050919050565b6000611c8182610fa6565b9150611c8c83610fa6565b9250828203905081811115611ca457611ca3611467565b5b92915050565b600060c082019050611cbf6000830189611334565b8181036020830152611cd18188611681565b90508181036040830152611ce5818761173f565b9050611cf46060830186611343565b611d016080830185611343565b611d0e60a0830184611343565b97965050505050505056fea2646970667358221220807381471bbe8453f19a6c1d72a6cc9337c730d772a31732e5101627c115740664736f6c63430008120033",
		"opcodes": "PUSH1 0x80 PUSH1 0x40 MSTORE PUSH2 0x802 PUSH1 0x0 DUP1 PUSH2 0x100 EXP DUP2 SLOAD DUP2 PUSH20 0xFFFFFFFFFFFFFFFFFFFFFFFFFFFFFFFFFFFFFFFF MUL NOT AND SWAP1 DUP4 PUSH20 0xFFFFFFFFFFFFFFFFFFFFFFFFFFFFFFFFFFFFFFFF AND MUL OR SWAP1 SSTORE POP PUSH2 0x801 PUSH1 0x1 PUSH1 0x0 PUSH2 0x100 EXP DUP2 SLOAD DUP2 PUSH20 0xFFFFFFFFFFFFFFFFFFFFFFFFFFFFFFFFFFFFFFFF MUL NOT AND SWAP1 DUP4 PUSH20 0xFFFFFFFFFFFFFFFFFFFFFFFFFFFFFFFFFFFFFFFF AND MUL OR SWAP1 SSTORE POP PUSH2 0x1D4F DUP1 PUSH2 0x98 PUSH1 0x0 CODECOPY PUSH1 0x0 RETURN INVALID PUSH1 0x80 PUSH1 0x40 MSTORE PUSH1 0x4 CALLDATASIZE LT PUSH2 0x43 JUMPI PUSH1 0x0 CALLDATALOAD PUSH1 0xE0 SHR DUP1 PUSH4 0x46BA5FED EQ PUSH2 0x4C JUMPI DUP1 PUSH4 0x5B93F507 EQ PUSH2 0x75 JUMPI DUP1 PUSH4 0xE826271A EQ PUSH2 0x91 JUMPI DUP1 PUSH4 0xED44B388 EQ PUSH2 0xAD JUMPI PUSH2 0x4A JUMP JUMPDEST CALLDATASIZE PUSH2 0x4A JUMPI STOP JUMPDEST STOP JUMPDEST CALLVALUE DUP1 ISZERO PUSH2 0x58 JUMPI PUSH1 0x0 DUP1 REVERT JUMPDEST POP PUSH2 0x73 PUSH1 0x4 DUP1 CALLDATASIZE SUB DUP2 ADD SWAP1 PUSH2 0x6E SWAP2 SWAP1 PUSH2 0x1073 JUMP JUMPDEST PUSH2 0xC9 JUMP JUMPDEST STOP JUMPDEST PUSH2 0x8F PUSH1 0x4 DUP1 CALLDATASIZE SUB DUP2 ADD SWAP1 PUSH2 0x8A SWAP2 SWAP1 PUSH2 0x10FE JUMP JUMPDEST PUSH2 0x2AC JUMP JUMPDEST STOP JUMPDEST PUSH2 0xAB PUSH1 0x4 DUP1 CALLDATASIZE SUB DUP2 ADD SWAP1 PUSH2 0xA6 SWAP2 SWAP1 PUSH2 0x119D JUMP JUMPDEST PUSH2 0x5C6 JUMP JUMPDEST STOP JUMPDEST PUSH2 0xC7 PUSH1 0x4 DUP1 CALLDATASIZE SUB DUP2 ADD SWAP1 PUSH2 0xC2 SWAP2 SWAP1 PUSH2 0x1073 JUMP JUMPDEST PUSH2 0xAC3 JUMP JUMPDEST STOP JUMPDEST PUSH1 0x0 DUP4 SWAP1 POP DUP2 MLOAD DUP4 MLOAD EQ PUSH2 0x112 JUMPI PUSH1 0x40 MLOAD PUSH32 0x8C379A000000000000000000000000000000000000000000000000000000000 DUP2 MSTORE PUSH1 0x4 ADD PUSH2 0x109 SWAP1 PUSH2 0x12E5 JUMP JUMPDEST PUSH1 0x40 MLOAD DUP1 SWAP2 SUB SWAP1 REVERT JUMPDEST PUSH1 0x0 JUMPDEST DUP4 MLOAD DUP2 LT ISZERO PUSH2 0x2A5 JUMPI DUP2 PUSH20 0xFFFFFFFFFFFFFFFFFFFFFFFFFFFFFFFFFFFFFFFF AND PUSH4 0xA9059CBB DUP6 DUP4 DUP2 MLOAD DUP2 LT PUSH2 0x14D JUMPI PUSH2 0x14C PUSH2 0x1305 JUMP JUMPDEST JUMPDEST PUSH1 0x20 MUL PUSH1 0x20 ADD ADD MLOAD DUP6 DUP5 DUP2 MLOAD DUP2 LT PUSH2 0x168 JUMPI PUSH2 0x167 PUSH2 0x1305 JUMP JUMPDEST JUMPDEST PUSH1 0x20 MUL PUSH1 0x20 ADD ADD MLOAD PUSH1 0x40 MLOAD DUP4 PUSH4 0xFFFFFFFF AND PUSH1 0xE0 SHL DUP2 MSTORE PUSH1 0x4 ADD PUSH2 0x18D SWAP3 SWAP2 SWAP1 PUSH2 0x1352 JUMP JUMPDEST PUSH1 0x20 PUSH1 0x40 MLOAD DUP1 DUP4 SUB DUP2 PUSH1 0x0 DUP8 GAS CALL ISZERO DUP1 ISZERO PUSH2 0x1AC JUMPI RETURNDATASIZE PUSH1 0x0 DUP1 RETURNDATACOPY RETURNDATASIZE PUSH1 0x0 REVERT JUMPDEST POP POP POP POP PUSH1 0x40 MLOAD RETURNDATASIZE PUSH1 0x1F NOT PUSH1 0x1F DUP3 ADD AND DUP3 ADD DUP1 PUSH1 0x40 MSTORE POP DUP2 ADD SWAP1 PUSH2 0x1D0 SWAP2 SWAP1 PUSH2 0x13B3 JUMP JUMPDEST PUSH2 0x20F JUMPI PUSH1 0x40 MLOAD PUSH32 0x8C379A000000000000000000000000000000000000000000000000000000000 DUP2 MSTORE PUSH1 0x4 ADD PUSH2 0x206 SWAP1 PUSH2 0x142C JUMP JUMPDEST PUSH1 0x40 MLOAD DUP1 SWAP2 SUB SWAP1 REVERT JUMPDEST DUP4 DUP2 DUP2 MLOAD DUP2 LT PUSH2 0x222 JUMPI PUSH2 0x221 PUSH2 0x1305 JUMP JUMPDEST JUMPDEST PUSH1 0x20 MUL PUSH1 0x20 ADD ADD MLOAD PUSH20 0xFFFFFFFFFFFFFFFFFFFFFFFFFFFFFFFFFFFFFFFF AND DUP2 PUSH32 0xB9471439BD4C23F19D2B486548FA6061AB17E1DA9815F325F2A2B29F22E715E3 DUP6 DUP5 DUP2 MLOAD DUP2 LT PUSH2 0x275 JUMPI PUSH2 0x274 PUSH2 0x1305 JUMP JUMPDEST JUMPDEST PUSH1 0x20 MUL PUSH1 0x20 ADD ADD MLOAD PUSH1 0x40 MLOAD PUSH2 0x28A SWAP2 SWAP1 PUSH2 0x144C JUMP JUMPDEST PUSH1 0x40 MLOAD DUP1 SWAP2 SUB SWAP1 LOG3 DUP1 DUP1 PUSH2 0x29D SWAP1 PUSH2 0x1496 JUMP JUMPDEST SWAP2 POP POP PUSH2 0x115 JUMP JUMPDEST POP POP POP POP POP JUMP JUMPDEST PUSH1 0x0 DUP5 SWAP1 POP DUP3 MLOAD DUP5 MLOAD EQ PUSH2 0x2F5 JUMPI PUSH1 0x40 MLOAD PUSH32 0x8C379A000000000000000000000000000000000000000000000000000000000 DUP2 MSTORE PUSH1 0x4 ADD PUSH2 0x2EC SWAP1 PUSH2 0x152A JUMP JUMPDEST PUSH1 0x40 MLOAD DUP1 SWAP2 SUB SWAP1 REVERT JUMPDEST PUSH1 0x0 DUP1 JUMPDEST DUP5 MLOAD DUP2 LT ISZERO PUSH2 0x33D JUMPI DUP5 DUP2 DUP2 MLOAD DUP2 LT PUSH2 0x315 JUMPI PUSH2 0x314 PUSH2 0x1305 JUMP JUMPDEST JUMPDEST PUSH1 0x20 MUL PUSH1 0x20 ADD ADD MLOAD DUP3 PUSH2 0x328 SWAP2 SWAP1 PUSH2 0x154A JUMP JUMPDEST SWAP2 POP DUP1 DUP1 PUSH2 0x335 SWAP1 PUSH2 0x1496 JUMP JUMPDEST SWAP2 POP POP PUSH2 0x2F9 JUMP JUMPDEST POP DUP2 PUSH20 0xFFFFFFFFFFFFFFFFFFFFFFFFFFFFFFFFFFFFFFFF AND PUSH4 0x23B872DD CALLER ADDRESS DUP5 PUSH1 0x40 MLOAD DUP5 PUSH4 0xFFFFFFFF AND PUSH1 0xE0 SHL DUP2 MSTORE PUSH1 0x4 ADD PUSH2 0x37B SWAP4 SWAP3 SWAP2 SWAP1 PUSH2 0x157E JUMP JUMPDEST PUSH1 0x20 PUSH1 0x40 MLOAD DUP1 DUP4 SUB DUP2 PUSH1 0x0 DUP8 GAS CALL ISZERO DUP1 ISZERO PUSH2 0x39A JUMPI RETURNDATASIZE PUSH1 0x0 DUP1 RETURNDATACOPY RETURNDATASIZE PUSH1 0x0 REVERT JUMPDEST POP POP POP POP PUSH1 0x40 MLOAD RETURNDATASIZE PUSH1 0x1F NOT PUSH1 0x1F DUP3 ADD AND DUP3 ADD DUP1 PUSH1 0x40 MSTORE POP DUP2 ADD SWAP1 PUSH2 0x3BE SWAP2 SWAP1 PUSH2 0x13B3 JUMP JUMPDEST PUSH2 0x3FD JUMPI PUSH1 0x40 MLOAD PUSH32 0x8C379A000000000000000000000000000000000000000000000000000000000 DUP2 MSTORE PUSH1 0x4 ADD PUSH2 0x3F4 SWAP1 PUSH2 0x1601 JUMP JUMPDEST PUSH1 0x40 MLOAD DUP1 SWAP2 SUB SWAP1 REVERT JUMPDEST PUSH1 0x0 DUP7 DUP7 DUP7 PUSH1 0x40 MLOAD PUSH1 0x24 ADD PUSH2 0x414 SWAP4 SWAP3 SWAP2 SWAP1 PUSH2 0x179D JUMP JUMPDEST PUSH1 0x40 MLOAD PUSH1 0x20 DUP2 DUP4 SUB SUB DUP2 MSTORE SWAP1 PUSH1 0x40 MSTORE PUSH32 0x46BA5FED00000000000000000000000000000000000000000000000000000000 PUSH28 0xFFFFFFFFFFFFFFFFFFFFFFFFFFFFFFFFFFFFFFFFFFFFFFFFFFFFFFFF NOT AND PUSH1 0x20 DUP3 ADD DUP1 MLOAD PUSH28 0xFFFFFFFFFFFFFFFFFFFFFFFFFFFFFFFFFFFFFFFFFFFFFFFFFFFFFFFF DUP4 DUP2 DUP4 AND OR DUP4 MSTORE POP POP POP POP SWAP1 POP PUSH1 0x0 DUP1 PUSH1 0x0 SWAP1 SLOAD SWAP1 PUSH2 0x100 EXP SWAP1 DIV PUSH20 0xFFFFFFFFFFFFFFFFFFFFFFFFFFFFFFFFFFFFFFFF AND PUSH20 0xFFFFFFFFFFFFFFFFFFFFFFFFFFFFFFFFFFFFFFFF AND PUSH4 0x168D560D ADDRESS PUSH1 0x0 PUSH3 0x200B20 PUSH2 0xFA00 DUP11 DUP9 PUSH1 0x40 MLOAD DUP8 PUSH4 0xFFFFFFFF AND PUSH1 0xE0 SHL DUP2 MSTORE PUSH1 0x4 ADD PUSH2 0x4FF SWAP7 SWAP6 SWAP5 SWAP4 SWAP3 SWAP2 SWAP1 PUSH2 0x191C JUMP JUMPDEST PUSH1 0x0 PUSH1 0x40 MLOAD DUP1 DUP4 SUB DUP2 PUSH1 0x0 DUP8 GAS CALL ISZERO DUP1 ISZERO PUSH2 0x51E JUMPI RETURNDATASIZE PUSH1 0x0 DUP1 RETURNDATACOPY RETURNDATASIZE PUSH1 0x0 REVERT JUMPDEST POP POP POP POP PUSH1 0x40 MLOAD RETURNDATASIZE PUSH1 0x0 DUP3 RETURNDATACOPY RETURNDATASIZE PUSH1 0x1F NOT PUSH1 0x1F DUP3 ADD AND DUP3 ADD DUP1 PUSH1 0x40 MSTORE POP DUP2 ADD SWAP1 PUSH2 0x547 SWAP2 SWAP1 PUSH2 0x1A2A JUMP JUMPDEST SWAP1 POP DUP8 PUSH20 0xFFFFFFFFFFFFFFFFFFFFFFFFFFFFFFFFFFFFFFFF AND DUP2 PUSH1 0x40 MLOAD PUSH2 0x56E SWAP2 SWAP1 PUSH2 0x1AAF JUMP JUMPDEST PUSH1 0x40 MLOAD DUP1 SWAP2 SUB SWAP1 KECCAK256 PUSH32 0xC9C9AFE41DD5E3A9438DD88814EDCB9C8089A9E980F48B14414EDA3D6D3D0E9A DUP10 DUP10 DUP10 TIMESTAMP PUSH2 0x5A5 SWAP2 SWAP1 PUSH2 0x154A JUMP JUMPDEST PUSH1 0x40 MLOAD PUSH2 0x5B4 SWAP4 SWAP3 SWAP2 SWAP1 PUSH2 0x1AC6 JUMP JUMPDEST PUSH1 0x40 MLOAD DUP1 SWAP2 SUB SWAP1 LOG3 POP POP POP POP POP POP POP POP JUMP JUMPDEST PUSH1 0x0 DUP7 SWAP1 POP PUSH1 0x0 PUSH1 0x1 PUSH1 0x0 SWAP1 SLOAD SWAP1 PUSH2 0x100 EXP SWAP1 DIV PUSH20 0xFFFFFFFFFFFFFFFFFFFFFFFFFFFFFFFFFFFFFFFF AND PUSH20 0xFFFFFFFFFFFFFFFFFFFFFFFFFFFFFFFFFFFFFFFF AND PUSH4 0x41976E09 DUP10 PUSH1 0x40 MLOAD DUP3 PUSH4 0xFFFFFFFF AND PUSH1 0xE0 SHL DUP2 MSTORE PUSH1 0x4 ADD PUSH2 0x628 SWAP2 SWAP1 PUSH2 0x1B0B JUMP JUMPDEST PUSH1 0x20 PUSH1 0x40 MLOAD DUP1 DUP4 SUB DUP2 DUP7 GAS STATICCALL ISZERO DUP1 ISZERO PUSH2 0x645 JUMPI RETURNDATASIZE PUSH1 0x0 DUP1 RETURNDATACOPY RETURNDATASIZE PUSH1 0x0 REVERT JUMPDEST POP POP POP POP PUSH1 0x40 MLOAD RETURNDATASIZE PUSH1 0x1F NOT PUSH1 0x1F DUP3 ADD AND DUP3 ADD DUP1 PUSH1 0x40 MSTORE POP DUP2 ADD SWAP1 PUSH2 0x669 SWAP2 SWAP1 PUSH2 0x1B3B JUMP JUMPDEST SWAP1 POP PUSH1 0x0 PUSH1 0x64 DUP5 DUP8 PUSH2 0x67B SWAP2 SWAP1 PUSH2 0x1B68 JUMP JUMPDEST PUSH2 0x685 SWAP2 SWAP1 PUSH2 0x1BD9 JUMP JUMPDEST SWAP1 POP ADDRESS PUSH20 0xFFFFFFFFFFFFFFFFFFFFFFFFFFFFFFFFFFFFFFFF AND CALLER PUSH20 0xFFFFFFFFFFFFFFFFFFFFFFFFFFFFFFFFFFFFFFFF AND EQ PUSH2 0x808 JUMPI DUP7 MLOAD DUP9 MLOAD EQ PUSH2 0x6FE JUMPI PUSH1 0x40 MLOAD PUSH32 0x8C379A000000000000000000000000000000000000000000000000000000000 DUP2 MSTORE PUSH1 0x4 ADD PUSH2 0x6F5 SWAP1 PUSH2 0x152A JUMP JUMPDEST PUSH1 0x40 MLOAD DUP1 SWAP2 SUB SWAP1 REVERT JUMPDEST PUSH1 0x0 DUP1 JUMPDEST DUP10 MLOAD DUP2 LT ISZERO PUSH2 0x746 JUMPI DUP9 DUP2 DUP2 MLOAD DUP2 LT PUSH2 0x71E JUMPI PUSH2 0x71D PUSH2 0x1305 JUMP JUMPDEST JUMPDEST PUSH1 0x20 MUL PUSH1 0x20 ADD ADD MLOAD DUP3 PUSH2 0x731 SWAP2 SWAP1 PUSH2 0x154A JUMP JUMPDEST SWAP2 POP DUP1 DUP1 PUSH2 0x73E SWAP1 PUSH2 0x1496 JUMP JUMPDEST SWAP2 POP POP PUSH2 0x702 JUMP JUMPDEST POP DUP4 PUSH20 0xFFFFFFFFFFFFFFFFFFFFFFFFFFFFFFFFFFFFFFFF AND PUSH4 0x23B872DD CALLER ADDRESS DUP5 PUSH1 0x40 MLOAD DUP5 PUSH4 0xFFFFFFFF AND PUSH1 0xE0 SHL DUP2 MSTORE PUSH1 0x4 ADD PUSH2 0x784 SWAP4 SWAP3 SWAP2 SWAP1 PUSH2 0x157E JUMP JUMPDEST PUSH1 0x20 PUSH1 0x40 MLOAD DUP1 DUP4 SUB DUP2 PUSH1 0x0 DUP8 GAS CALL ISZERO DUP1 ISZERO PUSH2 0x7A3 JUMPI RETURNDATASIZE PUSH1 0x0 DUP1 RETURNDATACOPY RETURNDATASIZE PUSH1 0x0 REVERT JUMPDEST POP POP POP POP PUSH1 0x40 MLOAD RETURNDATASIZE PUSH1 0x1F NOT PUSH1 0x1F DUP3 ADD AND DUP3 ADD DUP1 PUSH1 0x40 MSTORE POP DUP2 ADD SWAP1 PUSH2 0x7C7 SWAP2 SWAP1 PUSH2 0x13B3 JUMP JUMPDEST PUSH2 0x806 JUMPI PUSH1 0x40 MLOAD PUSH32 0x8C379A000000000000000000000000000000000000000000000000000000000 DUP2 MSTORE PUSH1 0x4 ADD PUSH2 0x7FD SWAP1 PUSH2 0x1C56 JUMP JUMPDEST PUSH1 0x40 MLOAD DUP1 SWAP2 SUB SWAP1 REVERT JUMPDEST POP JUMPDEST DUP1 DUP7 PUSH2 0x814 SWAP2 SWAP1 PUSH2 0x1C76 JUMP JUMPDEST DUP3 LT ISZERO DUP1 ISZERO PUSH2 0x82E JUMPI POP DUP1 DUP7 PUSH2 0x82A SWAP2 SWAP1 PUSH2 0x154A JUMP JUMPDEST DUP3 GT ISZERO JUMPDEST ISZERO PUSH2 0x90B JUMPI PUSH1 0x0 JUMPDEST DUP9 MLOAD DUP2 LT ISZERO PUSH2 0x905 JUMPI DUP4 PUSH20 0xFFFFFFFFFFFFFFFFFFFFFFFFFFFFFFFFFFFFFFFF AND PUSH4 0xA9059CBB DUP11 DUP4 DUP2 MLOAD DUP2 LT PUSH2 0x86E JUMPI PUSH2 0x86D PUSH2 0x1305 JUMP JUMPDEST JUMPDEST PUSH1 0x20 MUL PUSH1 0x20 ADD ADD MLOAD DUP11 DUP5 DUP2 MLOAD DUP2 LT PUSH2 0x889 JUMPI PUSH2 0x888 PUSH2 0x1305 JUMP JUMPDEST JUMPDEST PUSH1 0x20 MUL PUSH1 0x20 ADD ADD MLOAD PUSH1 0x40 MLOAD DUP4 PUSH4 0xFFFFFFFF AND PUSH1 0xE0 SHL DUP2 MSTORE PUSH1 0x4 ADD PUSH2 0x8AE SWAP3 SWAP2 SWAP1 PUSH2 0x1352 JUMP JUMPDEST PUSH1 0x20 PUSH1 0x40 MLOAD DUP1 DUP4 SUB DUP2 PUSH1 0x0 DUP8 GAS CALL ISZERO DUP1 ISZERO PUSH2 0x8CD JUMPI RETURNDATASIZE PUSH1 0x0 DUP1 RETURNDATACOPY RETURNDATASIZE PUSH1 0x0 REVERT JUMPDEST POP POP POP POP PUSH1 0x40 MLOAD RETURNDATASIZE PUSH1 0x1F NOT PUSH1 0x1F DUP3 ADD AND DUP3 ADD DUP1 PUSH1 0x40 MSTORE POP DUP2 ADD SWAP1 PUSH2 0x8F1 SWAP2 SWAP1 PUSH2 0x13B3 JUMP JUMPDEST POP DUP1 DUP1 PUSH2 0x8FD SWAP1 PUSH2 0x1496 JUMP JUMPDEST SWAP2 POP POP PUSH2 0x836 JUMP JUMPDEST POP PUSH2 0xAB8 JUMP JUMPDEST PUSH1 0x0 DUP10 DUP10 DUP10 DUP10 DUP10 DUP10 PUSH1 0x40 MLOAD PUSH1 0x24 ADD PUSH2 0x928 SWAP7 SWAP6 SWAP5 SWAP4 SWAP3 SWAP2 SWAP1 PUSH2 0x1CAA JUMP JUMPDEST PUSH1 0x40 MLOAD PUSH1 0x20 DUP2 DUP4 SUB SUB DUP2 MSTORE SWAP1 PUSH1 0x40 MSTORE PUSH32 0xE826271A00000000000000000000000000000000000000000000000000000000 PUSH28 0xFFFFFFFFFFFFFFFFFFFFFFFFFFFFFFFFFFFFFFFFFFFFFFFFFFFFFFFF NOT AND PUSH1 0x20 DUP3 ADD DUP1 MLOAD PUSH28 0xFFFFFFFFFFFFFFFFFFFFFFFFFFFFFFFFFFFFFFFFFFFFFFFFFFFFFFFF DUP4 DUP2 DUP4 AND OR DUP4 MSTORE POP POP POP POP SWAP1 POP PUSH1 0x0 DUP1 PUSH1 0x0 SWAP1 SLOAD SWAP1 PUSH2 0x100 EXP SWAP1 DIV PUSH20 0xFFFFFFFFFFFFFFFFFFFFFFFFFFFFFFFFFFFFFFFF AND PUSH20 0xFFFFFFFFFFFFFFFFFFFFFFFFFFFFFFFFFFFFFFFF AND PUSH4 0x168D560D ADDRESS PUSH1 0x0 PUSH3 0x200B20 PUSH2 0xFA00 DUP13 DUP9 PUSH1 0x40 MLOAD DUP8 PUSH4 0xFFFFFFFF AND PUSH1 0xE0 SHL DUP2 MSTORE PUSH1 0x4 ADD PUSH2 0xA13 SWAP7 SWAP6 SWAP5 SWAP4 SWAP3 SWAP2 SWAP1 PUSH2 0x191C JUMP JUMPDEST PUSH1 0x0 PUSH1 0x40 MLOAD DUP1 DUP4 SUB DUP2 PUSH1 0x0 DUP8 GAS CALL ISZERO DUP1 ISZERO PUSH2 0xA32 JUMPI RETURNDATASIZE PUSH1 0x0 DUP1 RETURNDATACOPY RETURNDATASIZE PUSH1 0x0 REVERT JUMPDEST POP POP POP POP PUSH1 0x40 MLOAD RETURNDATASIZE PUSH1 0x0 DUP3 RETURNDATACOPY RETURNDATASIZE PUSH1 0x1F NOT PUSH1 0x1F DUP3 ADD AND DUP3 ADD DUP1 PUSH1 0x40 MSTORE POP DUP2 ADD SWAP1 PUSH2 0xA5B SWAP2 SWAP1 PUSH2 0x1A2A JUMP JUMPDEST SWAP1 POP DUP1 PUSH1 0x40 MLOAD PUSH2 0xA6B SWAP2 SWAP1 PUSH2 0x1AAF JUMP JUMPDEST PUSH1 0x40 MLOAD DUP1 SWAP2 SUB SWAP1 KECCAK256 PUSH32 0x9E989CCC644AFF3DCCB44D63C0125CF7C49F64C9631016543486E7DFC72187C7 DUP9 TIMESTAMP PUSH2 0xAA0 SWAP2 SWAP1 PUSH2 0x154A JUMP JUMPDEST PUSH1 0x40 MLOAD PUSH2 0xAAD SWAP2 SWAP1 PUSH2 0x144C JUMP JUMPDEST PUSH1 0x40 MLOAD DUP1 SWAP2 SUB SWAP1 LOG2 POP POP JUMPDEST POP POP POP POP POP POP POP POP POP JUMP JUMPDEST PUSH1 0x0 DUP4 SWAP1 POP DUP2 MLOAD DUP4 MLOAD EQ PUSH2 0xB0C JUMPI PUSH1 0x40 MLOAD PUSH32 0x8C379A000000000000000000000000000000000000000000000000000000000 DUP2 MSTORE PUSH1 0x4 ADD PUSH2 0xB03 SWAP1 PUSH2 0x152A JUMP JUMPDEST PUSH1 0x40 MLOAD DUP1 SWAP2 SUB SWAP1 REVERT JUMPDEST PUSH1 0x0 DUP1 JUMPDEST DUP5 MLOAD DUP2 LT ISZERO PUSH2 0xB54 JUMPI DUP4 DUP2 DUP2 MLOAD DUP2 LT PUSH2 0xB2C JUMPI PUSH2 0xB2B PUSH2 0x1305 JUMP JUMPDEST JUMPDEST PUSH1 0x20 MUL PUSH1 0x20 ADD ADD MLOAD DUP3 PUSH2 0xB3F SWAP2 SWAP1 PUSH2 0x154A JUMP JUMPDEST SWAP2 POP DUP1 DUP1 PUSH2 0xB4C SWAP1 PUSH2 0x1496 JUMP JUMPDEST SWAP2 POP POP PUSH2 0xB10 JUMP JUMPDEST POP DUP2 PUSH20 0xFFFFFFFFFFFFFFFFFFFFFFFFFFFFFFFFFFFFFFFF AND PUSH4 0x23B872DD CALLER ADDRESS DUP5 PUSH1 0x40 MLOAD DUP5 PUSH4 0xFFFFFFFF AND PUSH1 0xE0 SHL DUP2 MSTORE PUSH1 0x4 ADD PUSH2 0xB92 SWAP4 SWAP3 SWAP2 SWAP1 PUSH2 0x157E JUMP JUMPDEST PUSH1 0x20 PUSH1 0x40 MLOAD DUP1 DUP4 SUB DUP2 PUSH1 0x0 DUP8 GAS CALL ISZERO DUP1 ISZERO PUSH2 0xBB1 JUMPI RETURNDATASIZE PUSH1 0x0 DUP1 RETURNDATACOPY RETURNDATASIZE PUSH1 0x0 REVERT JUMPDEST POP POP POP POP PUSH1 0x40 MLOAD RETURNDATASIZE PUSH1 0x1F NOT PUSH1 0x1F DUP3 ADD AND DUP3 ADD DUP1 PUSH1 0x40 MSTORE POP DUP2 ADD SWAP1 PUSH2 0xBD5 SWAP2 SWAP1 PUSH2 0x13B3 JUMP JUMPDEST PUSH2 0xC14 JUMPI PUSH1 0x40 MLOAD PUSH32 0x8C379A000000000000000000000000000000000000000000000000000000000 DUP2 MSTORE PUSH1 0x4 ADD PUSH2 0xC0B SWAP1 PUSH2 0x1C56 JUMP JUMPDEST PUSH1 0x40 MLOAD DUP1 SWAP2 SUB SWAP1 REVERT JUMPDEST PUSH1 0x0 JUMPDEST DUP5 MLOAD DUP2 LT ISZERO PUSH2 0xDA7 JUMPI DUP3 PUSH20 0xFFFFFFFFFFFFFFFFFFFFFFFFFFFFFFFFFFFFFFFF AND PUSH4 0xA9059CBB DUP7 DUP4 DUP2 MLOAD DUP2 LT PUSH2 0xC4F JUMPI PUSH2 0xC4E PUSH2 0x1305 JUMP JUMPDEST JUMPDEST PUSH1 0x20 MUL PUSH1 0x20 ADD ADD MLOAD DUP7 DUP5 DUP2 MLOAD DUP2 LT PUSH2 0xC6A JUMPI PUSH2 0xC69 PUSH2 0x1305 JUMP JUMPDEST JUMPDEST PUSH1 0x20 MUL PUSH1 0x20 ADD ADD MLOAD PUSH1 0x40 MLOAD DUP4 PUSH4 0xFFFFFFFF AND PUSH1 0xE0 SHL DUP2 MSTORE PUSH1 0x4 ADD PUSH2 0xC8F SWAP3 SWAP2 SWAP1 PUSH2 0x1352 JUMP JUMPDEST PUSH1 0x20 PUSH1 0x40 MLOAD DUP1 DUP4 SUB DUP2 PUSH1 0x0 DUP8 GAS CALL ISZERO DUP1 ISZERO PUSH2 0xCAE JUMPI RETURNDATASIZE PUSH1 0x0 DUP1 RETURNDATACOPY RETURNDATASIZE PUSH1 0x0 REVERT JUMPDEST POP POP POP POP PUSH1 0x40 MLOAD RETURNDATASIZE PUSH1 0x1F NOT PUSH1 0x1F DUP3 ADD AND DUP3 ADD DUP1 PUSH1 0x40 MSTORE POP DUP2 ADD SWAP1 PUSH2 0xCD2 SWAP2 SWAP1 PUSH2 0x13B3 JUMP JUMPDEST PUSH2 0xD11 JUMPI PUSH1 0x40 MLOAD PUSH32 0x8C379A000000000000000000000000000000000000000000000000000000000 DUP2 MSTORE PUSH1 0x4 ADD PUSH2 0xD08 SWAP1 PUSH2 0x142C JUMP JUMPDEST PUSH1 0x40 MLOAD DUP1 SWAP2 SUB SWAP1 REVERT JUMPDEST DUP5 DUP2 DUP2 MLOAD DUP2 LT PUSH2 0xD24 JUMPI PUSH2 0xD23 PUSH2 0x1305 JUMP JUMPDEST JUMPDEST PUSH1 0x20 MUL PUSH1 0x20 ADD ADD MLOAD PUSH20 0xFFFFFFFFFFFFFFFFFFFFFFFFFFFFFFFFFFFFFFFF AND DUP2 PUSH32 0xB9471439BD4C23F19D2B486548FA6061AB17E1DA9815F325F2A2B29F22E715E3 DUP7 DUP5 DUP2 MLOAD DUP2 LT PUSH2 0xD77 JUMPI PUSH2 0xD76 PUSH2 0x1305 JUMP JUMPDEST JUMPDEST PUSH1 0x20 MUL PUSH1 0x20 ADD ADD MLOAD PUSH1 0x40 MLOAD PUSH2 0xD8C SWAP2 SWAP1 PUSH2 0x144C JUMP JUMPDEST PUSH1 0x40 MLOAD DUP1 SWAP2 SUB SWAP1 LOG3 DUP1 DUP1 PUSH2 0xD9F SWAP1 PUSH2 0x1496 JUMP JUMPDEST SWAP2 POP POP PUSH2 0xC17 JUMP JUMPDEST POP POP POP POP POP POP JUMP JUMPDEST PUSH1 0x0 PUSH1 0x40 MLOAD SWAP1 POP SWAP1 JUMP JUMPDEST PUSH1 0x0 DUP1 REVERT JUMPDEST PUSH1 0x0 DUP1 REVERT JUMPDEST PUSH1 0x0 PUSH20 0xFFFFFFFFFFFFFFFFFFFFFFFFFFFFFFFFFFFFFFFF DUP3 AND SWAP1 POP SWAP2 SWAP1 POP JUMP JUMPDEST PUSH1 0x0 PUSH2 0xDEE DUP3 PUSH2 0xDC3 JUMP JUMPDEST SWAP1 POP SWAP2 SWAP1 POP JUMP JUMPDEST PUSH2 0xDFE DUP2 PUSH2 0xDE3 JUMP JUMPDEST DUP2 EQ PUSH2 0xE09 JUMPI PUSH1 0x0 DUP1 REVERT JUMPDEST POP JUMP JUMPDEST PUSH1 0x0 DUP2 CALLDATALOAD SWAP1 POP PUSH2 0xE1B DUP2 PUSH2 0xDF5 JUMP JUMPDEST SWAP3 SWAP2 POP POP JUMP JUMPDEST PUSH1 0x0 DUP1 REVERT JUMPDEST PUSH1 0x0 PUSH1 0x1F NOT PUSH1 0x1F DUP4 ADD AND SWAP1 POP SWAP2 SWAP1 POP JUMP JUMPDEST PUSH32 0x4E487B7100000000000000000000000000000000000000000000000000000000 PUSH1 0x0 MSTORE PUSH1 0x41 PUSH1 0x4 MSTORE PUSH1 0x24 PUSH1 0x0 REVERT JUMPDEST PUSH2 0xE6F DUP3 PUSH2 0xE26 JUMP JUMPDEST DUP2 ADD DUP2 DUP2 LT PUSH8 0xFFFFFFFFFFFFFFFF DUP3 GT OR ISZERO PUSH2 0xE8E JUMPI PUSH2 0xE8D PUSH2 0xE37 JUMP JUMPDEST JUMPDEST DUP1 PUSH1 0x40 MSTORE POP POP POP JUMP JUMPDEST PUSH1 0x0 PUSH2 0xEA1 PUSH2 0xDAF JUMP JUMPDEST SWAP1 POP PUSH2 0xEAD DUP3 DUP3 PUSH2 0xE66 JUMP JUMPDEST SWAP2 SWAP1 POP JUMP JUMPDEST PUSH1 0x0 PUSH8 0xFFFFFFFFFFFFFFFF DUP3 GT ISZERO PUSH2 0xECD JUMPI PUSH2 0xECC PUSH2 0xE37 JUMP JUMPDEST JUMPDEST PUSH1 0x20 DUP3 MUL SWAP1 POP PUSH1 0x20 DUP2 ADD SWAP1 POP SWAP2 SWAP1 POP JUMP JUMPDEST PUSH1 0x0 DUP1 REVERT JUMPDEST PUSH1 0x0 PUSH2 0xEF6 PUSH2 0xEF1 DUP5 PUSH2 0xEB2 JUMP JUMPDEST PUSH2 0xE97 JUMP JUMPDEST SWAP1 POP DUP1 DUP4 DUP3 MSTORE PUSH1 0x20 DUP3 ADD SWAP1 POP PUSH1 0x20 DUP5 MUL DUP4 ADD DUP6 DUP2 GT ISZERO PUSH2 0xF19 JUMPI PUSH2 0xF18 PUSH2 0xEDE JUMP JUMPDEST JUMPDEST DUP4 JUMPDEST DUP2 DUP2 LT ISZERO PUSH2 0xF42 JUMPI DUP1 PUSH2 0xF2E DUP9 DUP3 PUSH2 0xE0C JUMP JUMPDEST DUP5 MSTORE PUSH1 0x20 DUP5 ADD SWAP4 POP POP PUSH1 0x20 DUP2 ADD SWAP1 POP PUSH2 0xF1B JUMP JUMPDEST POP POP POP SWAP4 SWAP3 POP POP POP JUMP JUMPDEST PUSH1 0x0 DUP3 PUSH1 0x1F DUP4 ADD SLT PUSH2 0xF61 JUMPI PUSH2 0xF60 PUSH2 0xE21 JUMP JUMPDEST JUMPDEST DUP2 CALLDATALOAD PUSH2 0xF71 DUP5 DUP3 PUSH1 0x20 DUP7 ADD PUSH2 0xEE3 JUMP JUMPDEST SWAP2 POP POP SWAP3 SWAP2 POP POP JUMP JUMPDEST PUSH1 0x0 PUSH8 0xFFFFFFFFFFFFFFFF DUP3 GT ISZERO PUSH2 0xF95 JUMPI PUSH2 0xF94 PUSH2 0xE37 JUMP JUMPDEST JUMPDEST PUSH1 0x20 DUP3 MUL SWAP1 POP PUSH1 0x20 DUP2 ADD SWAP1 POP SWAP2 SWAP1 POP JUMP JUMPDEST PUSH1 0x0 DUP2 SWAP1 POP SWAP2 SWAP1 POP JUMP JUMPDEST PUSH2 0xFB9 DUP2 PUSH2 0xFA6 JUMP JUMPDEST DUP2 EQ PUSH2 0xFC4 JUMPI PUSH1 0x0 DUP1 REVERT JUMPDEST POP JUMP JUMPDEST PUSH1 0x0 DUP2 CALLDATALOAD SWAP1 POP PUSH2 0xFD6 DUP2 PUSH2 0xFB0 JUMP JUMPDEST SWAP3 SWAP2 POP POP JUMP JUMPDEST PUSH1 0x0 PUSH2 0xFEF PUSH2 0xFEA DUP5 PUSH2 0xF7A JUMP JUMPDEST PUSH2 0xE97 JUMP JUMPDEST SWAP1 POP DUP1 DUP4 DUP3 MSTORE PUSH1 0x20 DUP3 ADD SWAP1 POP PUSH1 0x20 DUP5 MUL DUP4 ADD DUP6 DUP2 GT ISZERO PUSH2 0x1012 JUMPI PUSH2 0x1011 PUSH2 0xEDE JUMP JUMPDEST JUMPDEST DUP4 JUMPDEST DUP2 DUP2 LT ISZERO PUSH2 0x103B JUMPI DUP1 PUSH2 0x1027 DUP9 DUP3 PUSH2 0xFC7 JUMP JUMPDEST DUP5 MSTORE PUSH1 0x20 DUP5 ADD SWAP4 POP POP PUSH1 0x20 DUP2 ADD SWAP1 POP PUSH2 0x1014 JUMP JUMPDEST POP POP POP SWAP4 SWAP3 POP POP POP JUMP JUMPDEST PUSH1 0x0 DUP3 PUSH1 0x1F DUP4 ADD SLT PUSH2 0x105A JUMPI PUSH2 0x1059 PUSH2 0xE21 JUMP JUMPDEST JUMPDEST DUP2 CALLDATALOAD PUSH2 0x106A DUP5 DUP3 PUSH1 0x20 DUP7 ADD PUSH2 0xFDC JUMP JUMPDEST SWAP2 POP POP SWAP3 SWAP2 POP POP JUMP JUMPDEST PUSH1 0x0 DUP1 PUSH1 0x0 PUSH1 0x60 DUP5 DUP7 SUB SLT ISZERO PUSH2 0x108C JUMPI PUSH2 0x108B PUSH2 0xDB9 JUMP JUMPDEST JUMPDEST PUSH1 0x0 PUSH2 0x109A DUP7 DUP3 DUP8 ADD PUSH2 0xE0C JUMP JUMPDEST SWAP4 POP POP PUSH1 0x20 DUP5 ADD CALLDATALOAD PUSH8 0xFFFFFFFFFFFFFFFF DUP2 GT ISZERO PUSH2 0x10BB JUMPI PUSH2 0x10BA PUSH2 0xDBE JUMP JUMPDEST JUMPDEST PUSH2 0x10C7 DUP7 DUP3 DUP8 ADD PUSH2 0xF4C JUMP JUMPDEST SWAP3 POP POP PUSH1 0x40 DUP5 ADD CALLDATALOAD PUSH8 0xFFFFFFFFFFFFFFFF DUP2 GT ISZERO PUSH2 0x10E8 JUMPI PUSH2 0x10E7 PUSH2 0xDBE JUMP JUMPDEST JUMPDEST PUSH2 0x10F4 DUP7 DUP3 DUP8 ADD PUSH2 0x1045 JUMP JUMPDEST SWAP2 POP POP SWAP3 POP SWAP3 POP SWAP3 JUMP JUMPDEST PUSH1 0x0 DUP1 PUSH1 0x0 DUP1 PUSH1 0x80 DUP6 DUP8 SUB SLT ISZERO PUSH2 0x1118 JUMPI PUSH2 0x1117 PUSH2 0xDB9 JUMP JUMPDEST JUMPDEST PUSH1 0x0 PUSH2 0x1126 DUP8 DUP3 DUP9 ADD PUSH2 0xE0C JUMP JUMPDEST SWAP5 POP POP PUSH1 0x20 DUP6 ADD CALLDATALOAD PUSH8 0xFFFFFFFFFFFFFFFF DUP2 GT ISZERO PUSH2 0x1147 JUMPI PUSH2 0x1146 PUSH2 0xDBE JUMP JUMPDEST JUMPDEST PUSH2 0x1153 DUP8 DUP3 DUP9 ADD PUSH2 0xF4C JUMP JUMPDEST SWAP4 POP POP PUSH1 0x40 DUP6 ADD CALLDATALOAD PUSH8 0xFFFFFFFFFFFFFFFF DUP2 GT ISZERO PUSH2 0x1174 JUMPI PUSH2 0x1173 PUSH2 0xDBE JUMP JUMPDEST JUMPDEST PUSH2 0x1180 DUP8 DUP3 DUP9 ADD PUSH2 0x1045 JUMP JUMPDEST SWAP3 POP POP PUSH1 0x60 PUSH2 0x1191 DUP8 DUP3 DUP9 ADD PUSH2 0xFC7 JUMP JUMPDEST SWAP2 POP POP SWAP3 SWAP6 SWAP2 SWAP5 POP SWAP3 POP JUMP JUMPDEST PUSH1 0x0 DUP1 PUSH1 0x0 DUP1 PUSH1 0x0 DUP1 PUSH1 0xC0 DUP8 DUP10 SUB SLT ISZERO PUSH2 0x11BA JUMPI PUSH2 0x11B9 PUSH2 0xDB9 JUMP JUMPDEST JUMPDEST PUSH1 0x0 PUSH2 0x11C8 DUP10 DUP3 DUP11 ADD PUSH2 0xE0C JUMP JUMPDEST SWAP7 POP POP PUSH1 0x20 DUP8 ADD CALLDATALOAD PUSH8 0xFFFFFFFFFFFFFFFF DUP2 GT ISZERO PUSH2 0x11E9 JUMPI PUSH2 0x11E8 PUSH2 0xDBE JUMP JUMPDEST JUMPDEST PUSH2 0x11F5 DUP10 DUP3 DUP11 ADD PUSH2 0xF4C JUMP JUMPDEST SWAP6 POP POP PUSH1 0x40 DUP8 ADD CALLDATALOAD PUSH8 0xFFFFFFFFFFFFFFFF DUP2 GT ISZERO PUSH2 0x1216 JUMPI PUSH2 0x1215 PUSH2 0xDBE JUMP JUMPDEST JUMPDEST PUSH2 0x1222 DUP10 DUP3 DUP11 ADD PUSH2 0x1045 JUMP JUMPDEST SWAP5 POP POP PUSH1 0x60 PUSH2 0x1233 DUP10 DUP3 DUP11 ADD PUSH2 0xFC7 JUMP JUMPDEST SWAP4 POP POP PUSH1 0x80 PUSH2 0x1244 DUP10 DUP3 DUP11 ADD PUSH2 0xFC7 JUMP JUMPDEST SWAP3 POP POP PUSH1 0xA0 PUSH2 0x1255 DUP10 DUP3 DUP11 ADD PUSH2 0xFC7 JUMP JUMPDEST SWAP2 POP POP SWAP3 SWAP6 POP SWAP3 SWAP6 POP SWAP3 SWAP6 JUMP JUMPDEST PUSH1 0x0 DUP3 DUP3 MSTORE PUSH1 0x20 DUP3 ADD SWAP1 POP SWAP3 SWAP2 POP POP JUMP JUMPDEST PUSH32 0x4D69736D61746368656420726563697069656E747320616E6420616D6F756E74 PUSH1 0x0 DUP3 ADD MSTORE PUSH32 0x7300000000000000000000000000000000000000000000000000000000000000 PUSH1 0x20 DUP3 ADD MSTORE POP JUMP JUMPDEST PUSH1 0x0 PUSH2 0x12CF PUSH1 0x21 DUP4 PUSH2 0x1262 JUMP JUMPDEST SWAP2 POP PUSH2 0x12DA DUP3 PUSH2 0x1273 JUMP JUMPDEST PUSH1 0x40 DUP3 ADD SWAP1 POP SWAP2 SWAP1 POP JUMP JUMPDEST PUSH1 0x0 PUSH1 0x20 DUP3 ADD SWAP1 POP DUP2 DUP2 SUB PUSH1 0x0 DUP4 ADD MSTORE PUSH2 0x12FE DUP2 PUSH2 0x12C2 JUMP JUMPDEST SWAP1 POP SWAP2 SWAP1 POP JUMP JUMPDEST PUSH32 0x4E487B7100000000000000000000000000000000000000000000000000000000 PUSH1 0x0 MSTORE PUSH1 0x32 PUSH1 0x4 MSTORE PUSH1 0x24 PUSH1 0x0 REVERT JUMPDEST PUSH2 0x133D DUP2 PUSH2 0xDE3 JUMP JUMPDEST DUP3 MSTORE POP POP JUMP JUMPDEST PUSH2 0x134C DUP2 PUSH2 0xFA6 JUMP JUMPDEST DUP3 MSTORE POP POP JUMP JUMPDEST PUSH1 0x0 PUSH1 0x40 DUP3 ADD SWAP1 POP PUSH2 0x1367 PUSH1 0x0 DUP4 ADD DUP6 PUSH2 0x1334 JUMP JUMPDEST PUSH2 0x1374 PUSH1 0x20 DUP4 ADD DUP5 PUSH2 0x1343 JUMP JUMPDEST SWAP4 SWAP3 POP POP POP JUMP JUMPDEST PUSH1 0x0 DUP2 ISZERO ISZERO SWAP1 POP SWAP2 SWAP1 POP JUMP JUMPDEST PUSH2 0x1390 DUP2 PUSH2 0x137B JUMP JUMPDEST DUP2 EQ PUSH2 0x139B JUMPI PUSH1 0x0 DUP1 REVERT JUMPDEST POP JUMP JUMPDEST PUSH1 0x0 DUP2 MLOAD SWAP1 POP PUSH2 0x13AD DUP2 PUSH2 0x1387 JUMP JUMPDEST SWAP3 SWAP2 POP POP JUMP JUMPDEST PUSH1 0x0 PUSH1 0x20 DUP3 DUP5 SUB SLT ISZERO PUSH2 0x13C9 JUMPI PUSH2 0x13C8 PUSH2 0xDB9 JUMP JUMPDEST JUMPDEST PUSH1 0x0 PUSH2 0x13D7 DUP5 DUP3 DUP6 ADD PUSH2 0x139E JUMP JUMPDEST SWAP2 POP POP SWAP3 SWAP2 POP POP JUMP JUMPDEST PUSH32 0x546F6B656E207472616E73666572206661696C65640000000000000000000000 PUSH1 0x0 DUP3 ADD MSTORE POP JUMP JUMPDEST PUSH1 0x0 PUSH2 0x1416 PUSH1 0x15 DUP4 PUSH2 0x1262 JUMP JUMPDEST SWAP2 POP PUSH2 0x1421 DUP3 PUSH2 0x13E0 JUMP JUMPDEST PUSH1 0x20 DUP3 ADD SWAP1 POP SWAP2 SWAP1 POP JUMP JUMPDEST PUSH1 0x0 PUSH1 0x20 DUP3 ADD SWAP1 POP DUP2 DUP2 SUB PUSH1 0x0 DUP4 ADD MSTORE PUSH2 0x1445 DUP2 PUSH2 0x1409 JUMP JUMPDEST SWAP1 POP SWAP2 SWAP1 POP JUMP JUMPDEST PUSH1 0x0 PUSH1 0x20 DUP3 ADD SWAP1 POP PUSH2 0x1461 PUSH1 0x0 DUP4 ADD DUP5 PUSH2 0x1343 JUMP JUMPDEST SWAP3 SWAP2 POP POP JUMP JUMPDEST PUSH32 0x4E487B7100000000000000000000000000000000000000000000000000000000 PUSH1 0x0 MSTORE PUSH1 0x11 PUSH1 0x4 MSTORE PUSH1 0x24 PUSH1 0x0 REVERT JUMPDEST PUSH1 0x0 PUSH2 0x14A1 DUP3 PUSH2 0xFA6 JUMP JUMPDEST SWAP2 POP PUSH32 0xFFFFFFFFFFFFFFFFFFFFFFFFFFFFFFFFFFFFFFFFFFFFFFFFFFFFFFFFFFFFFFFF DUP3 SUB PUSH2 0x14D3 JUMPI PUSH2 0x14D2 PUSH2 0x1467 JUMP JUMPDEST JUMPDEST PUSH1 0x1 DUP3 ADD SWAP1 POP SWAP2 SWAP1 POP JUMP JUMPDEST PUSH32 0x4769766520696E70757473206163636F7264696E676C79210000000000000000 PUSH1 0x0 DUP3 ADD MSTORE POP JUMP JUMPDEST PUSH1 0x0 PUSH2 0x1514 PUSH1 0x18 DUP4 PUSH2 0x1262 JUMP JUMPDEST SWAP2 POP PUSH2 0x151F DUP3 PUSH2 0x14DE JUMP JUMPDEST PUSH1 0x20 DUP3 ADD SWAP1 POP SWAP2 SWAP1 POP JUMP JUMPDEST PUSH1 0x0 PUSH1 0x20 DUP3 ADD SWAP1 POP DUP2 DUP2 SUB PUSH1 0x0 DUP4 ADD MSTORE PUSH2 0x1543 DUP2 PUSH2 0x1507 JUMP JUMPDEST SWAP1 POP SWAP2 SWAP1 POP JUMP JUMPDEST PUSH1 0x0 PUSH2 0x1555 DUP3 PUSH2 0xFA6 JUMP JUMPDEST SWAP2 POP PUSH2 0x1560 DUP4 PUSH2 0xFA6 JUMP JUMPDEST SWAP3 POP DUP3 DUP3 ADD SWAP1 POP DUP1 DUP3 GT ISZERO PUSH2 0x1578 JUMPI PUSH2 0x1577 PUSH2 0x1467 JUMP JUMPDEST JUMPDEST SWAP3 SWAP2 POP POP JUMP JUMPDEST PUSH1 0x0 PUSH1 0x60 DUP3 ADD SWAP1 POP PUSH2 0x1593 PUSH1 0x0 DUP4 ADD DUP7 PUSH2 0x1334 JUMP JUMPDEST PUSH2 0x15A0 PUSH1 0x20 DUP4 ADD DUP6 PUSH2 0x1334 JUMP JUMPDEST PUSH2 0x15AD PUSH1 0x40 DUP4 ADD DUP5 PUSH2 0x1343 JUMP JUMPDEST SWAP5 SWAP4 POP POP POP POP JUMP JUMPDEST PUSH32 0x546F6B656E207472616E73666572206661696C65642100000000000000000000 PUSH1 0x0 DUP3 ADD MSTORE POP JUMP JUMPDEST PUSH1 0x0 PUSH2 0x15EB PUSH1 0x16 DUP4 PUSH2 0x1262 JUMP JUMPDEST SWAP2 POP PUSH2 0x15F6 DUP3 PUSH2 0x15B5 JUMP JUMPDEST PUSH1 0x20 DUP3 ADD SWAP1 POP SWAP2 SWAP1 POP JUMP JUMPDEST PUSH1 0x0 PUSH1 0x20 DUP3 ADD SWAP1 POP DUP2 DUP2 SUB PUSH1 0x0 DUP4 ADD MSTORE PUSH2 0x161A DUP2 PUSH2 0x15DE JUMP JUMPDEST SWAP1 POP SWAP2 SWAP1 POP JUMP JUMPDEST PUSH1 0x0 DUP2 MLOAD SWAP1 POP SWAP2 SWAP1 POP JUMP JUMPDEST PUSH1 0x0 DUP3 DUP3 MSTORE PUSH1 0x20 DUP3 ADD SWAP1 POP SWAP3 SWAP2 POP POP JUMP JUMPDEST PUSH1 0x0 DUP2 SWAP1 POP PUSH1 0x20 DUP3 ADD SWAP1 POP SWAP2 SWAP1 POP JUMP JUMPDEST PUSH2 0x1656 DUP2 PUSH2 0xDE3 JUMP JUMPDEST DUP3 MSTORE POP POP JUMP JUMPDEST PUSH1 0x0 PUSH2 0x1668 DUP4 DUP4 PUSH2 0x164D JUMP JUMPDEST PUSH1 0x20 DUP4 ADD SWAP1 POP SWAP3 SWAP2 POP POP JUMP JUMPDEST PUSH1 0x0 PUSH1 0x20 DUP3 ADD SWAP1 POP SWAP2 SWAP1 POP JUMP JUMPDEST PUSH1 0x0 PUSH2 0x168C DUP3 PUSH2 0x1621 JUMP JUMPDEST PUSH2 0x1696 DUP2 DUP6 PUSH2 0x162C JUMP JUMPDEST SWAP4 POP PUSH2 0x16A1 DUP4 PUSH2 0x163D JUMP JUMPDEST DUP1 PUSH1 0x0 JUMPDEST DUP4 DUP2 LT ISZERO PUSH2 0x16D2 JUMPI DUP2 MLOAD PUSH2 0x16B9 DUP9 DUP3 PUSH2 0x165C JUMP JUMPDEST SWAP8 POP PUSH2 0x16C4 DUP4 PUSH2 0x1674 JUMP JUMPDEST SWAP3 POP POP PUSH1 0x1 DUP2 ADD SWAP1 POP PUSH2 0x16A5 JUMP JUMPDEST POP DUP6 SWAP4 POP POP POP POP SWAP3 SWAP2 POP POP JUMP JUMPDEST PUSH1 0x0 DUP2 MLOAD SWAP1 POP SWAP2 SWAP1 POP JUMP JUMPDEST PUSH1 0x0 DUP3 DUP3 MSTORE PUSH1 0x20 DUP3 ADD SWAP1 POP SWAP3 SWAP2 POP POP JUMP JUMPDEST PUSH1 0x0 DUP2 SWAP1 POP PUSH1 0x20 DUP3 ADD SWAP1 POP SWAP2 SWAP1 POP JUMP JUMPDEST PUSH2 0x1714 DUP2 PUSH2 0xFA6 JUMP JUMPDEST DUP3 MSTORE POP POP JUMP JUMPDEST PUSH1 0x0 PUSH2 0x1726 DUP4 DUP4 PUSH2 0x170B JUMP JUMPDEST PUSH1 0x20 DUP4 ADD SWAP1 POP SWAP3 SWAP2 POP POP JUMP JUMPDEST PUSH1 0x0 PUSH1 0x20 DUP3 ADD SWAP1 POP SWAP2 SWAP1 POP JUMP JUMPDEST PUSH1 0x0 PUSH2 0x174A DUP3 PUSH2 0x16DF JUMP JUMPDEST PUSH2 0x1754 DUP2 DUP6 PUSH2 0x16EA JUMP JUMPDEST SWAP4 POP PUSH2 0x175F DUP4 PUSH2 0x16FB JUMP JUMPDEST DUP1 PUSH1 0x0 JUMPDEST DUP4 DUP2 LT ISZERO PUSH2 0x1790 JUMPI DUP2 MLOAD PUSH2 0x1777 DUP9 DUP3 PUSH2 0x171A JUMP JUMPDEST SWAP8 POP PUSH2 0x1782 DUP4 PUSH2 0x1732 JUMP JUMPDEST SWAP3 POP POP PUSH1 0x1 DUP2 ADD SWAP1 POP PUSH2 0x1763 JUMP JUMPDEST POP DUP6 SWAP4 POP POP POP POP SWAP3 SWAP2 POP POP JUMP JUMPDEST PUSH1 0x0 PUSH1 0x60 DUP3 ADD SWAP1 POP PUSH2 0x17B2 PUSH1 0x0 DUP4 ADD DUP7 PUSH2 0x1334 JUMP JUMPDEST DUP2 DUP2 SUB PUSH1 0x20 DUP4 ADD MSTORE PUSH2 0x17C4 DUP2 DUP6 PUSH2 0x1681 JUMP JUMPDEST SWAP1 POP DUP2 DUP2 SUB PUSH1 0x40 DUP4 ADD MSTORE PUSH2 0x17D8 DUP2 DUP5 PUSH2 0x173F JUMP JUMPDEST SWAP1 POP SWAP5 SWAP4 POP POP POP POP JUMP JUMPDEST PUSH1 0x0 DUP2 SWAP1 POP SWAP2 SWAP1 POP JUMP JUMPDEST PUSH1 0x0 DUP2 SWAP1 POP SWAP2 SWAP1 POP JUMP JUMPDEST PUSH1 0x0 PUSH2 0x1811 PUSH2 0x180C PUSH2 0x1807 DUP5 PUSH2 0x17E2 JUMP JUMPDEST PUSH2 0x17EC JUMP JUMPDEST PUSH2 0xFA6 JUMP JUMPDEST SWAP1 POP SWAP2 SWAP1 POP JUMP JUMPDEST PUSH2 0x1821 DUP2 PUSH2 0x17F6 JUMP JUMPDEST DUP3 MSTORE POP POP JUMP JUMPDEST PUSH1 0x0 DUP2 SWAP1 POP SWAP2 SWAP1 POP JUMP JUMPDEST PUSH1 0x0 PUSH2 0x184C PUSH2 0x1847 PUSH2 0x1842 DUP5 PUSH2 0x1827 JUMP JUMPDEST PUSH2 0x17EC JUMP JUMPDEST PUSH2 0xFA6 JUMP JUMPDEST SWAP1 POP SWAP2 SWAP1 POP JUMP JUMPDEST PUSH2 0x185C DUP2 PUSH2 0x1831 JUMP JUMPDEST DUP3 MSTORE POP POP JUMP JUMPDEST PUSH1 0x0 DUP2 SWAP1 POP SWAP2 SWAP1 POP JUMP JUMPDEST PUSH1 0x0 PUSH2 0x1887 PUSH2 0x1882 PUSH2 0x187D DUP5 PUSH2 0x1862 JUMP JUMPDEST PUSH2 0x17EC JUMP JUMPDEST PUSH2 0xFA6 JUMP JUMPDEST SWAP1 POP SWAP2 SWAP1 POP JUMP JUMPDEST PUSH2 0x1897 DUP2 PUSH2 0x186C JUMP JUMPDEST DUP3 MSTORE POP POP JUMP JUMPDEST PUSH1 0x0 DUP2 MLOAD SWAP1 POP SWAP2 SWAP1 POP JUMP JUMPDEST PUSH1 0x0 DUP3 DUP3 MSTORE PUSH1 0x20 DUP3 ADD SWAP1 POP SWAP3 SWAP2 POP POP JUMP JUMPDEST PUSH1 0x0 JUMPDEST DUP4 DUP2 LT ISZERO PUSH2 0x18D7 JUMPI DUP1 DUP3 ADD MLOAD DUP2 DUP5 ADD MSTORE PUSH1 0x20 DUP2 ADD SWAP1 POP PUSH2 0x18BC JUMP JUMPDEST PUSH1 0x0 DUP5 DUP5 ADD MSTORE POP POP POP POP JUMP JUMPDEST PUSH1 0x0 PUSH2 0x18EE DUP3 PUSH2 0x189D JUMP JUMPDEST PUSH2 0x18F8 DUP2 DUP6 PUSH2 0x18A8 JUMP JUMPDEST SWAP4 POP PUSH2 0x1908 DUP2 DUP6 PUSH1 0x20 DUP7 ADD PUSH2 0x18B9 JUMP JUMPDEST PUSH2 0x1911 DUP2 PUSH2 0xE26 JUMP JUMPDEST DUP5 ADD SWAP2 POP POP SWAP3 SWAP2 POP POP JUMP JUMPDEST PUSH1 0x0 PUSH1 0xC0 DUP3 ADD SWAP1 POP PUSH2 0x1931 PUSH1 0x0 DUP4 ADD DUP10 PUSH2 0x1334 JUMP JUMPDEST PUSH2 0x193E PUSH1 0x20 DUP4 ADD DUP9 PUSH2 0x1818 JUMP JUMPDEST PUSH2 0x194B PUSH1 0x40 DUP4 ADD DUP8 PUSH2 0x1853 JUMP JUMPDEST PUSH2 0x1958 PUSH1 0x60 DUP4 ADD DUP7 PUSH2 0x188E JUMP JUMPDEST PUSH2 0x1965 PUSH1 0x80 DUP4 ADD DUP6 PUSH2 0x1343 JUMP JUMPDEST DUP2 DUP2 SUB PUSH1 0xA0 DUP4 ADD MSTORE PUSH2 0x1977 DUP2 DUP5 PUSH2 0x18E3 JUMP JUMPDEST SWAP1 POP SWAP8 SWAP7 POP POP POP POP POP POP POP JUMP JUMPDEST PUSH1 0x0 DUP1 REVERT JUMPDEST PUSH1 0x0 PUSH8 0xFFFFFFFFFFFFFFFF DUP3 GT ISZERO PUSH2 0x19A4 JUMPI PUSH2 0x19A3 PUSH2 0xE37 JUMP JUMPDEST JUMPDEST PUSH2 0x19AD DUP3 PUSH2 0xE26 JUMP JUMPDEST SWAP1 POP PUSH1 0x20 DUP2 ADD SWAP1 POP SWAP2 SWAP1 POP JUMP JUMPDEST PUSH1 0x0 PUSH2 0x19CD PUSH2 0x19C8 DUP5 PUSH2 0x1989 JUMP JUMPDEST PUSH2 0xE97 JUMP JUMPDEST SWAP1 POP DUP3 DUP2 MSTORE PUSH1 0x20 DUP2 ADD DUP5 DUP5 DUP5 ADD GT ISZERO PUSH2 0x19E9 JUMPI PUSH2 0x19E8 PUSH2 0x1984 JUMP JUMPDEST JUMPDEST PUSH2 0x19F4 DUP5 DUP3 DUP6 PUSH2 0x18B9 JUMP JUMPDEST POP SWAP4 SWAP3 POP POP POP JUMP JUMPDEST PUSH1 0x0 DUP3 PUSH1 0x1F DUP4 ADD SLT PUSH2 0x1A11 JUMPI PUSH2 0x1A10 PUSH2 0xE21 JUMP JUMPDEST JUMPDEST DUP2 MLOAD PUSH2 0x1A21 DUP5 DUP3 PUSH1 0x20 DUP7 ADD PUSH2 0x19BA JUMP JUMPDEST SWAP2 POP POP SWAP3 SWAP2 POP POP JUMP JUMPDEST PUSH1 0x0 PUSH1 0x20 DUP3 DUP5 SUB SLT ISZERO PUSH2 0x1A40 JUMPI PUSH2 0x1A3F PUSH2 0xDB9 JUMP JUMPDEST JUMPDEST PUSH1 0x0 DUP3 ADD MLOAD PUSH8 0xFFFFFFFFFFFFFFFF DUP2 GT ISZERO PUSH2 0x1A5E JUMPI PUSH2 0x1A5D PUSH2 0xDBE JUMP JUMPDEST JUMPDEST PUSH2 0x1A6A DUP5 DUP3 DUP6 ADD PUSH2 0x19FC JUMP JUMPDEST SWAP2 POP POP SWAP3 SWAP2 POP POP JUMP JUMPDEST PUSH1 0x0 DUP2 SWAP1 POP SWAP3 SWAP2 POP POP JUMP JUMPDEST PUSH1 0x0 PUSH2 0x1A89 DUP3 PUSH2 0x189D JUMP JUMPDEST PUSH2 0x1A93 DUP2 DUP6 PUSH2 0x1A73 JUMP JUMPDEST SWAP4 POP PUSH2 0x1AA3 DUP2 DUP6 PUSH1 0x20 DUP7 ADD PUSH2 0x18B9 JUMP JUMPDEST DUP1 DUP5 ADD SWAP2 POP POP SWAP3 SWAP2 POP POP JUMP JUMPDEST PUSH1 0x0 PUSH2 0x1ABB DUP3 DUP5 PUSH2 0x1A7E JUMP JUMPDEST SWAP2 POP DUP2 SWAP1 POP SWAP3 SWAP2 POP POP JUMP JUMPDEST PUSH1 0x0 PUSH1 0x60 DUP3 ADD SWAP1 POP DUP2 DUP2 SUB PUSH1 0x0 DUP4 ADD MSTORE PUSH2 0x1AE0 DUP2 DUP7 PUSH2 0x1681 JUMP JUMPDEST SWAP1 POP DUP2 DUP2 SUB PUSH1 0x20 DUP4 ADD MSTORE PUSH2 0x1AF4 DUP2 DUP6 PUSH2 0x173F JUMP JUMPDEST SWAP1 POP PUSH2 0x1B03 PUSH1 0x40 DUP4 ADD DUP5 PUSH2 0x1343 JUMP JUMPDEST SWAP5 SWAP4 POP POP POP POP JUMP JUMPDEST PUSH1 0x0 PUSH1 0x20 DUP3 ADD SWAP1 POP PUSH2 0x1B20 PUSH1 0x0 DUP4 ADD DUP5 PUSH2 0x1334 JUMP JUMPDEST SWAP3 SWAP2 POP POP JUMP JUMPDEST PUSH1 0x0 DUP2 MLOAD SWAP1 POP PUSH2 0x1B35 DUP2 PUSH2 0xFB0 JUMP JUMPDEST SWAP3 SWAP2 POP POP JUMP JUMPDEST PUSH1 0x0 PUSH1 0x20 DUP3 DUP5 SUB SLT ISZERO PUSH2 0x1B51 JUMPI PUSH2 0x1B50 PUSH2 0xDB9 JUMP JUMPDEST JUMPDEST PUSH1 0x0 PUSH2 0x1B5F DUP5 DUP3 DUP6 ADD PUSH2 0x1B26 JUMP JUMPDEST SWAP2 POP POP SWAP3 SWAP2 POP POP JUMP JUMPDEST PUSH1 0x0 PUSH2 0x1B73 DUP3 PUSH2 0xFA6 JUMP JUMPDEST SWAP2 POP PUSH2 0x1B7E DUP4 PUSH2 0xFA6 JUMP JUMPDEST SWAP3 POP DUP3 DUP3 MUL PUSH2 0x1B8C DUP2 PUSH2 0xFA6 JUMP JUMPDEST SWAP2 POP DUP3 DUP3 DIV DUP5 EQ DUP4 ISZERO OR PUSH2 0x1BA3 JUMPI PUSH2 0x1BA2 PUSH2 0x1467 JUMP JUMPDEST JUMPDEST POP SWAP3 SWAP2 POP POP JUMP JUMPDEST PUSH32 0x4E487B7100000000000000000000000000000000000000000000000000000000 PUSH1 0x0 MSTORE PUSH1 0x12 PUSH1 0x4 MSTORE PUSH1 0x24 PUSH1 0x0 REVERT JUMPDEST PUSH1 0x0 PUSH2 0x1BE4 DUP3 PUSH2 0xFA6 JUMP JUMPDEST SWAP2 POP PUSH2 0x1BEF DUP4 PUSH2 0xFA6 JUMP JUMPDEST SWAP3 POP DUP3 PUSH2 0x1BFF JUMPI PUSH2 0x1BFE PUSH2 0x1BAA JUMP JUMPDEST JUMPDEST DUP3 DUP3 DIV SWAP1 POP SWAP3 SWAP2 POP POP JUMP JUMPDEST PUSH32 0x546F6B656E207472616E7366657246726F6D206661696C656421200000000000 PUSH1 0x0 DUP3 ADD MSTORE POP JUMP JUMPDEST PUSH1 0x0 PUSH2 0x1C40 PUSH1 0x1B DUP4 PUSH2 0x1262 JUMP JUMPDEST SWAP2 POP PUSH2 0x1C4B DUP3 PUSH2 0x1C0A JUMP JUMPDEST PUSH1 0x20 DUP3 ADD SWAP1 POP SWAP2 SWAP1 POP JUMP JUMPDEST PUSH1 0x0 PUSH1 0x20 DUP3 ADD SWAP1 POP DUP2 DUP2 SUB PUSH1 0x0 DUP4 ADD MSTORE PUSH2 0x1C6F DUP2 PUSH2 0x1C33 JUMP JUMPDEST SWAP1 POP SWAP2 SWAP1 POP JUMP JUMPDEST PUSH1 0x0 PUSH2 0x1C81 DUP3 PUSH2 0xFA6 JUMP JUMPDEST SWAP2 POP PUSH2 0x1C8C DUP4 PUSH2 0xFA6 JUMP JUMPDEST SWAP3 POP DUP3 DUP3 SUB SWAP1 POP DUP2 DUP2 GT ISZERO PUSH2 0x1CA4 JUMPI PUSH2 0x1CA3 PUSH2 0x1467 JUMP JUMPDEST JUMPDEST SWAP3 SWAP2 POP POP JUMP JUMPDEST PUSH1 0x0 PUSH1 0xC0 DUP3 ADD SWAP1 POP PUSH2 0x1CBF PUSH1 0x0 DUP4 ADD DUP10 PUSH2 0x1334 JUMP JUMPDEST DUP2 DUP2 SUB PUSH1 0x20 DUP4 ADD MSTORE PUSH2 0x1CD1 DUP2 DUP9 PUSH2 0x1681 JUMP JUMPDEST SWAP1 POP DUP2 DUP2 SUB PUSH1 0x40 DUP4 ADD MSTORE PUSH2 0x1CE5 DUP2 DUP8 PUSH2 0x173F JUMP JUMPDEST SWAP1 POP PUSH2 0x1CF4 PUSH1 0x60 DUP4 ADD DUP7 PUSH2 0x1343 JUMP JUMPDEST PUSH2 0x1D01 PUSH1 0x80 DUP4 ADD DUP6 PUSH2 0x1343 JUMP JUMPDEST PUSH2 0x1D0E PUSH1 0xA0 DUP4 ADD DUP5 PUSH2 0x1343 JUMP JUMPDEST SWAP8 SWAP7 POP POP POP POP POP POP POP JUMP INVALID LOG2 PUSH5 0x6970667358 0x22 SLT KECCAK256 DUP1 PUSH20 0x81471BBE8453F19A6C1D72A6CC9337C730D772A3 OR ORIGIN 0xE5 LT AND 0x27 0xC1 ISZERO PUSH21 0x664736F6C63430008120033000000000000000000 "
	},
	"abi": [
		{
			"inputs": [],
			"stateMutability": "payable",
			"type": "constructor"
		},
		{
			"anonymous": false,
			"inputs": [
				{
					"indexed": true,
					"internalType": "uint256",
					"name": "recipientIndex",
					"type": "uint256"
				},
				{
					"indexed": true,
					"internalType": "address",
					"name": "recipient",
					"type": "address"
				},
				{
					"indexed": false,
					"internalType": "uint256",
					"name": "amount",
					"type": "uint256"
				}
			],
			"name": "Erc20BatchTransfer",
			"type": "event"
		},
		{
			"anonymous": false,
			"inputs": [
				{
					"indexed": true,
					"internalType": "bytes",
					"name": "scheduleId",
					"type": "bytes"
				},
				{
					"indexed": false,
					"internalType": "uint256",
					"name": "nextCheckTime",
					"type": "uint256"
				}
			],
			"name": "PriceCheckScheduled",
			"type": "event"
		},
		{
			"anonymous": false,
			"inputs": [
				{
					"indexed": true,
					"internalType": "bytes",
					"name": "scheduleId",
					"type": "bytes"
				},
				{
					"indexed": true,
					"internalType": "address",
					"name": "token",
					"type": "address"
				},
				{
					"indexed": false,
					"internalType": "address[]",
					"name": "recipients",
					"type": "address[]"
				},
				{
					"indexed": false,
					"internalType": "uint256[]",
					"name": "amounts",
					"type": "uint256[]"
				},
				{
					"indexed": false,
					"internalType": "uint256",
					"name": "executionTime",
					"type": "uint256"
				}
			],
			"name": "TransferScheduled",
			"type": "event"
		},
		{
			"stateMutability": "payable",
			"type": "fallback"
		},
		{
			"inputs": [
				{
					"internalType": "address",
					"name": "tokenAddress",
					"type": "address"
				},
				{
					"internalType": "address[]",
					"name": "recipients",
					"type": "address[]"
				},
				{
					"internalType": "uint256[]",
					"name": "amount",
					"type": "uint256[]"
				}
			],
			"name": "dispersal",
			"outputs": [],
			"stateMutability": "payable",
			"type": "function"
		},
		{
			"inputs": [
				{
					"internalType": "address",
					"name": "tokenAddress",
					"type": "address"
				},
				{
					"internalType": "address[]",
					"name": "recipients",
					"type": "address[]"
				},
				{
					"internalType": "uint256[]",
					"name": "amounts",
					"type": "uint256[]"
				}
			],
			"name": "executeERC20BatchTransfer",
			"outputs": [],
			"stateMutability": "nonpayable",
			"type": "function"
		},
		{
			"inputs": [
				{
					"internalType": "address",
					"name": "tokenAddress",
					"type": "address"
				},
				{
					"internalType": "address[]",
					"name": "recipients",
					"type": "address[]"
				},
				{
					"internalType": "uint256[]",
					"name": "amounts",
					"type": "uint256[]"
				},
				{
					"internalType": "uint256",
					"name": "desiredPrice",
					"type": "uint256"
				},
				{
					"internalType": "uint256",
					"name": "interval",
					"type": "uint256"
				},
				{
					"internalType": "uint256",
					"name": "percentage",
					"type": "uint256"
				}
			],
			"name": "priceTriggeredDispersal",
			"outputs": [],
			"stateMutability": "payable",
			"type": "function"
		},
		{
			"inputs": [
				{
					"internalType": "address",
					"name": "tokenAddress",
					"type": "address"
				},
				{
					"internalType": "address[]",
					"name": "recipients",
					"type": "address[]"
				},
				{
					"internalType": "uint256[]",
					"name": "amounts",
					"type": "uint256[]"
				},
				{
					"internalType": "uint256",
					"name": "delay",
					"type": "uint256"
				}
			],
			"name": "scheduled_dispersal",
			"outputs": [],
			"stateMutability": "payable",
			"type": "function"
		},
		{
			"stateMutability": "payable",
			"type": "receive"
		}
	],
	"storageLayout": {
		"storage": [
			{
				"astId": 263,
				"contract": "contracts/Test.sol:DisDrop",
				"label": "scheduler",
				"offset": 0,
				"slot": "0",
				"type": "t_contract(ISchedule)74"
			},
			{
				"astId": 269,
				"contract": "contracts/Test.sol:DisDrop",
				"label": "oracle",
				"offset": 0,
				"slot": "1",
				"type": "t_contract(IOracle)11"
			}
		],
		"types": {
			"t_contract(IOracle)11": {
				"encoding": "inplace",
				"label": "contract IOracle",
				"numberOfBytes": "20"
			},
			"t_contract(ISchedule)74": {
				"encoding": "inplace",
				"label": "contract ISchedule",
				"numberOfBytes": "20"
			}
		}
	},
	"web3Deploy": "var disdropContract = new web3.eth.Contract([{\"inputs\":[],\"stateMutability\":\"payable\",\"type\":\"constructor\"},{\"anonymous\":false,\"inputs\":[{\"indexed\":true,\"internalType\":\"uint256\",\"name\":\"recipientIndex\",\"type\":\"uint256\"},{\"indexed\":true,\"internalType\":\"address\",\"name\":\"recipient\",\"type\":\"address\"},{\"indexed\":false,\"internalType\":\"uint256\",\"name\":\"amount\",\"type\":\"uint256\"}],\"name\":\"Erc20BatchTransfer\",\"type\":\"event\"},{\"anonymous\":false,\"inputs\":[{\"indexed\":true,\"internalType\":\"bytes\",\"name\":\"scheduleId\",\"type\":\"bytes\"},{\"indexed\":false,\"internalType\":\"uint256\",\"name\":\"nextCheckTime\",\"type\":\"uint256\"}],\"name\":\"PriceCheckScheduled\",\"type\":\"event\"},{\"anonymous\":false,\"inputs\":[{\"indexed\":true,\"internalType\":\"bytes\",\"name\":\"scheduleId\",\"type\":\"bytes\"},{\"indexed\":true,\"internalType\":\"address\",\"name\":\"token\",\"type\":\"address\"},{\"indexed\":false,\"internalType\":\"address[]\",\"name\":\"recipients\",\"type\":\"address[]\"},{\"indexed\":false,\"internalType\":\"uint256[]\",\"name\":\"amounts\",\"type\":\"uint256[]\"},{\"indexed\":false,\"internalType\":\"uint256\",\"name\":\"executionTime\",\"type\":\"uint256\"}],\"name\":\"TransferScheduled\",\"type\":\"event\"},{\"stateMutability\":\"payable\",\"type\":\"fallback\"},{\"inputs\":[{\"internalType\":\"address\",\"name\":\"tokenAddress\",\"type\":\"address\"},{\"internalType\":\"address[]\",\"name\":\"recipients\",\"type\":\"address[]\"},{\"internalType\":\"uint256[]\",\"name\":\"amount\",\"type\":\"uint256[]\"}],\"name\":\"dispersal\",\"outputs\":[],\"stateMutability\":\"payable\",\"type\":\"function\"},{\"inputs\":[{\"internalType\":\"address\",\"name\":\"tokenAddress\",\"type\":\"address\"},{\"internalType\":\"address[]\",\"name\":\"recipients\",\"type\":\"address[]\"},{\"internalType\":\"uint256[]\",\"name\":\"amounts\",\"type\":\"uint256[]\"}],\"name\":\"executeERC20BatchTransfer\",\"outputs\":[],\"stateMutability\":\"nonpayable\",\"type\":\"function\"},{\"inputs\":[{\"internalType\":\"address\",\"name\":\"tokenAddress\",\"type\":\"address\"},{\"internalType\":\"address[]\",\"name\":\"recipients\",\"type\":\"address[]\"},{\"internalType\":\"uint256[]\",\"name\":\"amounts\",\"type\":\"uint256[]\"},{\"internalType\":\"uint256\",\"name\":\"desiredPrice\",\"type\":\"uint256\"},{\"internalType\":\"uint256\",\"name\":\"interval\",\"type\":\"uint256\"},{\"internalType\":\"uint256\",\"name\":\"percentage\",\"type\":\"uint256\"}],\"name\":\"priceTriggeredDispersal\",\"outputs\":[],\"stateMutability\":\"payable\",\"type\":\"function\"},{\"inputs\":[{\"internalType\":\"address\",\"name\":\"tokenAddress\",\"type\":\"address\"},{\"internalType\":\"address[]\",\"name\":\"recipients\",\"type\":\"address[]\"},{\"internalType\":\"uint256[]\",\"name\":\"amounts\",\"type\":\"uint256[]\"},{\"internalType\":\"uint256\",\"name\":\"delay\",\"type\":\"uint256\"}],\"name\":\"scheduled_dispersal\",\"outputs\":[],\"stateMutability\":\"payable\",\"type\":\"function\"},{\"stateMutability\":\"payable\",\"type\":\"receive\"}]);\nvar disdrop = disdropContract.deploy({\n     data: '0x60806040526108026000806101000a81548173ffffffffffffffffffffffffffffffffffffffff021916908373ffffffffffffffffffffffffffffffffffffffff160217905550610801600160006101000a81548173ffffffffffffffffffffffffffffffffffffffff021916908373ffffffffffffffffffffffffffffffffffffffff160217905550611d4f806100986000396000f3fe6080604052600436106100435760003560e01c806346ba5fed1461004c5780635b93f50714610075578063e826271a14610091578063ed44b388146100ad5761004a565b3661004a57005b005b34801561005857600080fd5b50610073600480360381019061006e9190611073565b6100c9565b005b61008f600480360381019061008a91906110fe565b6102ac565b005b6100ab60048036038101906100a6919061119d565b6105c6565b005b6100c760048036038101906100c29190611073565b610ac3565b005b60008390508151835114610112576040517f08c379a0000000000000000000000000000000000000000000000000000000008152600401610109906112e5565b60405180910390fd5b60005b83518110156102a5578173ffffffffffffffffffffffffffffffffffffffff1663a9059cbb85838151811061014d5761014c611305565b5b602002602001015185848151811061016857610167611305565b5b60200260200101516040518363ffffffff1660e01b815260040161018d929190611352565b6020604051808303816000875af11580156101ac573d6000803e3d6000fd5b505050506040513d601f19601f820116820180604052508101906101d091906113b3565b61020f576040517f08c379a00000000000000000000000000000000000000000000000000000000081526004016102069061142c565b60405180910390fd5b83818151811061022257610221611305565b5b602002602001015173ffffffffffffffffffffffffffffffffffffffff16817fb9471439bd4c23f19d2b486548fa6061ab17e1da9815f325f2a2b29f22e715e385848151811061027557610274611305565b5b602002602001015160405161028a919061144c565b60405180910390a3808061029d90611496565b915050610115565b5050505050565b600084905082518451146102f5576040517f08c379a00000000000000000000000000000000000000000000000000000000081526004016102ec9061152a565b60405180910390fd5b6000805b845181101561033d5784818151811061031557610314611305565b5b602002602001015182610328919061154a565b9150808061033590611496565b9150506102f9565b508173ffffffffffffffffffffffffffffffffffffffff166323b872dd3330846040518463ffffffff1660e01b815260040161037b9392919061157e565b6020604051808303816000875af115801561039a573d6000803e3d6000fd5b505050506040513d601f19601f820116820180604052508101906103be91906113b3565b6103fd576040517f08c379a00000000000000000000000000000000000000000000000000000000081526004016103f490611601565b60405180910390fd5b60008686866040516024016104149392919061179d565b6040516020818303038152906040527f46ba5fed000000000000000000000000000000000000000000000000000000007bffffffffffffffffffffffffffffffffffffffffffffffffffffffff19166020820180517bffffffffffffffffffffffffffffffffffffffffffffffffffffffff8381831617835250505050905060008060009054906101000a900473ffffffffffffffffffffffffffffffffffffffff1673ffffffffffffffffffffffffffffffffffffffff1663168d560d30600062200b2061fa008a886040518763ffffffff1660e01b81526004016104ff9695949392919061191c565b6000604051808303816000875af115801561051e573d6000803e3d6000fd5b505050506040513d6000823e3d601f19601f820116820180604052508101906105479190611a2a565b90508773ffffffffffffffffffffffffffffffffffffffff168160405161056e9190611aaf565b60405180910390207fc9c9afe41dd5e3a9438dd88814edcb9c8089a9e980f48b14414eda3d6d3d0e9a898989426105a5919061154a565b6040516105b493929190611ac6565b60405180910390a35050505050505050565b60008690506000600160009054906101000a900473ffffffffffffffffffffffffffffffffffffffff1673ffffffffffffffffffffffffffffffffffffffff166341976e09896040518263ffffffff1660e01b81526004016106289190611b0b565b602060405180830381865afa158015610645573d6000803e3d6000fd5b505050506040513d601f19601f820116820180604052508101906106699190611b3b565b905060006064848761067b9190611b68565b6106859190611bd9565b90503073ffffffffffffffffffffffffffffffffffffffff163373ffffffffffffffffffffffffffffffffffffffff16146108085786518851146106fe576040517f08c379a00000000000000000000000000000000000000000000000000000000081526004016106f59061152a565b60405180910390fd5b6000805b89518110156107465788818151811061071e5761071d611305565b5b602002602001015182610731919061154a565b9150808061073e90611496565b915050610702565b508373ffffffffffffffffffffffffffffffffffffffff166323b872dd3330846040518463ffffffff1660e01b81526004016107849392919061157e565b6020604051808303816000875af11580156107a3573d6000803e3d6000fd5b505050506040513d601f19601f820116820180604052508101906107c791906113b3565b610806576040517f08c379a00000000000000000000000000000000000000000000000000000000081526004016107fd90611c56565b60405180910390fd5b505b80866108149190611c76565b821015801561082e5750808661082a919061154a565b8211155b1561090b5760005b8851811015610905578373ffffffffffffffffffffffffffffffffffffffff1663a9059cbb8a838151811061086e5761086d611305565b5b60200260200101518a848151811061088957610888611305565b5b60200260200101516040518363ffffffff1660e01b81526004016108ae929190611352565b6020604051808303816000875af11580156108cd573d6000803e3d6000fd5b505050506040513d601f19601f820116820180604052508101906108f191906113b3565b5080806108fd90611496565b915050610836565b50610ab8565b600089898989898960405160240161092896959493929190611caa565b6040516020818303038152906040527fe826271a000000000000000000000000000000000000000000000000000000007bffffffffffffffffffffffffffffffffffffffffffffffffffffffff19166020820180517bffffffffffffffffffffffffffffffffffffffffffffffffffffffff8381831617835250505050905060008060009054906101000a900473ffffffffffffffffffffffffffffffffffffffff1673ffffffffffffffffffffffffffffffffffffffff1663168d560d30600062200b2061fa008c886040518763ffffffff1660e01b8152600401610a139695949392919061191c565b6000604051808303816000875af1158015610a32573d6000803e3d6000fd5b505050506040513d6000823e3d601f19601f82011682018060405250810190610a5b9190611a2a565b905080604051610a6b9190611aaf565b60405180910390207f9e989ccc644aff3dccb44d63c0125cf7c49f64c9631016543486e7dfc72187c78842610aa0919061154a565b604051610aad919061144c565b60405180910390a250505b505050505050505050565b60008390508151835114610b0c576040517f08c379a0000000000000000000000000000000000000000000000000000000008152600401610b039061152a565b60405180910390fd5b6000805b8451811015610b5457838181518110610b2c57610b2b611305565b5b602002602001015182610b3f919061154a565b91508080610b4c90611496565b915050610b10565b508173ffffffffffffffffffffffffffffffffffffffff166323b872dd3330846040518463ffffffff1660e01b8152600401610b929392919061157e565b6020604051808303816000875af1158015610bb1573d6000803e3d6000fd5b505050506040513d601f19601f82011682018060405250810190610bd591906113b3565b610c14576040517f08c379a0000000000000000000000000000000000000000000000000000000008152600401610c0b90611c56565b60405180910390fd5b60005b8451811015610da7578273ffffffffffffffffffffffffffffffffffffffff1663a9059cbb868381518110610c4f57610c4e611305565b5b6020026020010151868481518110610c6a57610c69611305565b5b60200260200101516040518363ffffffff1660e01b8152600401610c8f929190611352565b6020604051808303816000875af1158015610cae573d6000803e3d6000fd5b505050506040513d601f19601f82011682018060405250810190610cd291906113b3565b610d11576040517f08c379a0000000000000000000000000000000000000000000000000000000008152600401610d089061142c565b60405180910390fd5b848181518110610d2457610d23611305565b5b602002602001015173ffffffffffffffffffffffffffffffffffffffff16817fb9471439bd4c23f19d2b486548fa6061ab17e1da9815f325f2a2b29f22e715e3868481518110610d7757610d76611305565b5b6020026020010151604051610d8c919061144c565b60405180910390a38080610d9f90611496565b915050610c17565b505050505050565b6000604051905090565b600080fd5b600080fd5b600073ffffffffffffffffffffffffffffffffffffffff82169050919050565b6000610dee82610dc3565b9050919050565b610dfe81610de3565b8114610e0957600080fd5b50565b600081359050610e1b81610df5565b92915050565b600080fd5b6000601f19601f8301169050919050565b7f4e487b7100000000000000000000000000000000000000000000000000000000600052604160045260246000fd5b610e6f82610e26565b810181811067ffffffffffffffff82111715610e8e57610e8d610e37565b5b80604052505050565b6000610ea1610daf565b9050610ead8282610e66565b919050565b600067ffffffffffffffff821115610ecd57610ecc610e37565b5b602082029050602081019050919050565b600080fd5b6000610ef6610ef184610eb2565b610e97565b90508083825260208201905060208402830185811115610f1957610f18610ede565b5b835b81811015610f425780610f2e8882610e0c565b845260208401935050602081019050610f1b565b5050509392505050565b600082601f830112610f6157610f60610e21565b5b8135610f71848260208601610ee3565b91505092915050565b600067ffffffffffffffff821115610f9557610f94610e37565b5b602082029050602081019050919050565b6000819050919050565b610fb981610fa6565b8114610fc457600080fd5b50565b600081359050610fd681610fb0565b92915050565b6000610fef610fea84610f7a565b610e97565b9050808382526020820190506020840283018581111561101257611011610ede565b5b835b8181101561103b57806110278882610fc7565b845260208401935050602081019050611014565b5050509392505050565b600082601f83011261105a57611059610e21565b5b813561106a848260208601610fdc565b91505092915050565b60008060006060848603121561108c5761108b610db9565b5b600061109a86828701610e0c565b935050602084013567ffffffffffffffff8111156110bb576110ba610dbe565b5b6110c786828701610f4c565b925050604084013567ffffffffffffffff8111156110e8576110e7610dbe565b5b6110f486828701611045565b9150509250925092565b6000806000806080858703121561111857611117610db9565b5b600061112687828801610e0c565b945050602085013567ffffffffffffffff81111561114757611146610dbe565b5b61115387828801610f4c565b935050604085013567ffffffffffffffff81111561117457611173610dbe565b5b61118087828801611045565b925050606061119187828801610fc7565b91505092959194509250565b60008060008060008060c087890312156111ba576111b9610db9565b5b60006111c889828a01610e0c565b965050602087013567ffffffffffffffff8111156111e9576111e8610dbe565b5b6111f589828a01610f4c565b955050604087013567ffffffffffffffff81111561121657611215610dbe565b5b61122289828a01611045565b945050606061123389828a01610fc7565b935050608061124489828a01610fc7565b92505060a061125589828a01610fc7565b9150509295509295509295565b600082825260208201905092915050565b7f4d69736d61746368656420726563697069656e747320616e6420616d6f756e7460008201527f7300000000000000000000000000000000000000000000000000000000000000602082015250565b60006112cf602183611262565b91506112da82611273565b604082019050919050565b600060208201905081810360008301526112fe816112c2565b9050919050565b7f4e487b7100000000000000000000000000000000000000000000000000000000600052603260045260246000fd5b61133d81610de3565b82525050565b61134c81610fa6565b82525050565b60006040820190506113676000830185611334565b6113746020830184611343565b9392505050565b60008115159050919050565b6113908161137b565b811461139b57600080fd5b50565b6000815190506113ad81611387565b92915050565b6000602082840312156113c9576113c8610db9565b5b60006113d78482850161139e565b91505092915050565b7f546f6b656e207472616e73666572206661696c65640000000000000000000000600082015250565b6000611416601583611262565b9150611421826113e0565b602082019050919050565b6000602082019050818103600083015261144581611409565b9050919050565b60006020820190506114616000830184611343565b92915050565b7f4e487b7100000000000000000000000000000000000000000000000000000000600052601160045260246000fd5b60006114a182610fa6565b91507fffffffffffffffffffffffffffffffffffffffffffffffffffffffffffffffff82036114d3576114d2611467565b5b600182019050919050565b7f4769766520696e70757473206163636f7264696e676c79210000000000000000600082015250565b6000611514601883611262565b915061151f826114de565b602082019050919050565b6000602082019050818103600083015261154381611507565b9050919050565b600061155582610fa6565b915061156083610fa6565b925082820190508082111561157857611577611467565b5b92915050565b60006060820190506115936000830186611334565b6115a06020830185611334565b6115ad6040830184611343565b949350505050565b7f546f6b656e207472616e73666572206661696c65642100000000000000000000600082015250565b60006115eb601683611262565b91506115f6826115b5565b602082019050919050565b6000602082019050818103600083015261161a816115de565b9050919050565b600081519050919050565b600082825260208201905092915050565b6000819050602082019050919050565b61165681610de3565b82525050565b6000611668838361164d565b60208301905092915050565b6000602082019050919050565b600061168c82611621565b611696818561162c565b93506116a18361163d565b8060005b838110156116d25781516116b9888261165c565b97506116c483611674565b9250506001810190506116a5565b5085935050505092915050565b600081519050919050565b600082825260208201905092915050565b6000819050602082019050919050565b61171481610fa6565b82525050565b6000611726838361170b565b60208301905092915050565b6000602082019050919050565b600061174a826116df565b61175481856116ea565b935061175f836116fb565b8060005b83811015611790578151611777888261171a565b975061178283611732565b925050600181019050611763565b5085935050505092915050565b60006060820190506117b26000830186611334565b81810360208301526117c48185611681565b905081810360408301526117d8818461173f565b9050949350505050565b6000819050919050565b6000819050919050565b600061181161180c611807846117e2565b6117ec565b610fa6565b9050919050565b611821816117f6565b82525050565b6000819050919050565b600061184c61184761184284611827565b6117ec565b610fa6565b9050919050565b61185c81611831565b82525050565b6000819050919050565b600061188761188261187d84611862565b6117ec565b610fa6565b9050919050565b6118978161186c565b82525050565b600081519050919050565b600082825260208201905092915050565b60005b838110156118d75780820151818401526020810190506118bc565b60008484015250505050565b60006118ee8261189d565b6118f881856118a8565b93506119088185602086016118b9565b61191181610e26565b840191505092915050565b600060c0820190506119316000830189611334565b61193e6020830188611818565b61194b6040830187611853565b611958606083018661188e565b6119656080830185611343565b81810360a083015261197781846118e3565b9050979650505050505050565b600080fd5b600067ffffffffffffffff8211156119a4576119a3610e37565b5b6119ad82610e26565b9050602081019050919050565b60006119cd6119c884611989565b610e97565b9050828152602081018484840111156119e9576119e8611984565b5b6119f48482856118b9565b509392505050565b600082601f830112611a1157611a10610e21565b5b8151611a218482602086016119ba565b91505092915050565b600060208284031215611a4057611a3f610db9565b5b600082015167ffffffffffffffff811115611a5e57611a5d610dbe565b5b611a6a848285016119fc565b91505092915050565b600081905092915050565b6000611a898261189d565b611a938185611a73565b9350611aa38185602086016118b9565b80840191505092915050565b6000611abb8284611a7e565b915081905092915050565b60006060820190508181036000830152611ae08186611681565b90508181036020830152611af4818561173f565b9050611b036040830184611343565b949350505050565b6000602082019050611b206000830184611334565b92915050565b600081519050611b3581610fb0565b92915050565b600060208284031215611b5157611b50610db9565b5b6000611b5f84828501611b26565b91505092915050565b6000611b7382610fa6565b9150611b7e83610fa6565b9250828202611b8c81610fa6565b91508282048414831517611ba357611ba2611467565b5b5092915050565b7f4e487b7100000000000000000000000000000000000000000000000000000000600052601260045260246000fd5b6000611be482610fa6565b9150611bef83610fa6565b925082611bff57611bfe611baa565b5b828204905092915050565b7f546f6b656e207472616e7366657246726f6d206661696c656421200000000000600082015250565b6000611c40601b83611262565b9150611c4b82611c0a565b602082019050919050565b60006020820190508181036000830152611c6f81611c33565b9050919050565b6000611c8182610fa6565b9150611c8c83610fa6565b9250828203905081811115611ca457611ca3611467565b5b92915050565b600060c082019050611cbf6000830189611334565b8181036020830152611cd18188611681565b90508181036040830152611ce5818761173f565b9050611cf46060830186611343565b611d016080830185611343565b611d0e60a0830184611343565b97965050505050505056fea2646970667358221220807381471bbe8453f19a6c1d72a6cc9337c730d772a31732e5101627c115740664736f6c63430008120033', \n     arguments: [\n     ]\n}).send({\n     from: web3.eth.accounts[0], \n     gas: '4700000'\n   }, function (e, contract){\n    console.log(e, contract);\n    if (typeof contract.address !== 'undefined') {\n         console.log('Contract mined! address: ' + contract.address + ' transactionHash: ' + contract.transactionHash);\n    }\n })",
	"functionHashes": {
		"ed44b388": "dispersal(address,address[],uint256[])",
		"46ba5fed": "executeERC20BatchTransfer(address,address[],uint256[])",
		"e826271a": "priceTriggeredDispersal(address,address[],uint256[],uint256,uint256,uint256)",
		"5b93f507": "scheduled_dispersal(address,address[],uint256[],uint256)"
	},
	"gasEstimates": {
		"Creation": {
			"codeDepositCost": "1500600",
			"executionCost": "50078",
			"totalCost": "1550678"
		},
		"External": {
			"": "151",
			"dispersal(address,address[],uint256[])": "infinite",
			"executeERC20BatchTransfer(address,address[],uint256[])": "infinite",
			"priceTriggeredDispersal(address,address[],uint256[],uint256,uint256,uint256)": "infinite",
			"scheduled_dispersal(address,address[],uint256[],uint256)": "infinite"
		}
	},
	"devdoc": {
		"kind": "dev",
		"methods": {},
		"version": 1
	},
	"userdoc": {
		"kind": "user",
		"methods": {},
		"version": 1
	},
	"Runtime Bytecode": {
		"immutableReferences": {},
		"linkReferences": {},
		"object": "6080604052600436106100435760003560e01c806346ba5fed1461004c5780635b93f50714610075578063e826271a14610091578063ed44b388146100ad5761004a565b3661004a57005b005b34801561005857600080fd5b50610073600480360381019061006e9190611073565b6100c9565b005b61008f600480360381019061008a91906110fe565b6102ac565b005b6100ab60048036038101906100a6919061119d565b6105c6565b005b6100c760048036038101906100c29190611073565b610ac3565b005b60008390508151835114610112576040517f08c379a0000000000000000000000000000000000000000000000000000000008152600401610109906112e5565b60405180910390fd5b60005b83518110156102a5578173ffffffffffffffffffffffffffffffffffffffff1663a9059cbb85838151811061014d5761014c611305565b5b602002602001015185848151811061016857610167611305565b5b60200260200101516040518363ffffffff1660e01b815260040161018d929190611352565b6020604051808303816000875af11580156101ac573d6000803e3d6000fd5b505050506040513d601f19601f820116820180604052508101906101d091906113b3565b61020f576040517f08c379a00000000000000000000000000000000000000000000000000000000081526004016102069061142c565b60405180910390fd5b83818151811061022257610221611305565b5b602002602001015173ffffffffffffffffffffffffffffffffffffffff16817fb9471439bd4c23f19d2b486548fa6061ab17e1da9815f325f2a2b29f22e715e385848151811061027557610274611305565b5b602002602001015160405161028a919061144c565b60405180910390a3808061029d90611496565b915050610115565b5050505050565b600084905082518451146102f5576040517f08c379a00000000000000000000000000000000000000000000000000000000081526004016102ec9061152a565b60405180910390fd5b6000805b845181101561033d5784818151811061031557610314611305565b5b602002602001015182610328919061154a565b9150808061033590611496565b9150506102f9565b508173ffffffffffffffffffffffffffffffffffffffff166323b872dd3330846040518463ffffffff1660e01b815260040161037b9392919061157e565b6020604051808303816000875af115801561039a573d6000803e3d6000fd5b505050506040513d601f19601f820116820180604052508101906103be91906113b3565b6103fd576040517f08c379a00000000000000000000000000000000000000000000000000000000081526004016103f490611601565b60405180910390fd5b60008686866040516024016104149392919061179d565b6040516020818303038152906040527f46ba5fed000000000000000000000000000000000000000000000000000000007bffffffffffffffffffffffffffffffffffffffffffffffffffffffff19166020820180517bffffffffffffffffffffffffffffffffffffffffffffffffffffffff8381831617835250505050905060008060009054906101000a900473ffffffffffffffffffffffffffffffffffffffff1673ffffffffffffffffffffffffffffffffffffffff1663168d560d30600062200b2061fa008a886040518763ffffffff1660e01b81526004016104ff9695949392919061191c565b6000604051808303816000875af115801561051e573d6000803e3d6000fd5b505050506040513d6000823e3d601f19601f820116820180604052508101906105479190611a2a565b90508773ffffffffffffffffffffffffffffffffffffffff168160405161056e9190611aaf565b60405180910390207fc9c9afe41dd5e3a9438dd88814edcb9c8089a9e980f48b14414eda3d6d3d0e9a898989426105a5919061154a565b6040516105b493929190611ac6565b60405180910390a35050505050505050565b60008690506000600160009054906101000a900473ffffffffffffffffffffffffffffffffffffffff1673ffffffffffffffffffffffffffffffffffffffff166341976e09896040518263ffffffff1660e01b81526004016106289190611b0b565b602060405180830381865afa158015610645573d6000803e3d6000fd5b505050506040513d601f19601f820116820180604052508101906106699190611b3b565b905060006064848761067b9190611b68565b6106859190611bd9565b90503073ffffffffffffffffffffffffffffffffffffffff163373ffffffffffffffffffffffffffffffffffffffff16146108085786518851146106fe576040517f08c379a00000000000000000000000000000000000000000000000000000000081526004016106f59061152a565b60405180910390fd5b6000805b89518110156107465788818151811061071e5761071d611305565b5b602002602001015182610731919061154a565b9150808061073e90611496565b915050610702565b508373ffffffffffffffffffffffffffffffffffffffff166323b872dd3330846040518463ffffffff1660e01b81526004016107849392919061157e565b6020604051808303816000875af11580156107a3573d6000803e3d6000fd5b505050506040513d601f19601f820116820180604052508101906107c791906113b3565b610806576040517f08c379a00000000000000000000000000000000000000000000000000000000081526004016107fd90611c56565b60405180910390fd5b505b80866108149190611c76565b821015801561082e5750808661082a919061154a565b8211155b1561090b5760005b8851811015610905578373ffffffffffffffffffffffffffffffffffffffff1663a9059cbb8a838151811061086e5761086d611305565b5b60200260200101518a848151811061088957610888611305565b5b60200260200101516040518363ffffffff1660e01b81526004016108ae929190611352565b6020604051808303816000875af11580156108cd573d6000803e3d6000fd5b505050506040513d601f19601f820116820180604052508101906108f191906113b3565b5080806108fd90611496565b915050610836565b50610ab8565b600089898989898960405160240161092896959493929190611caa565b6040516020818303038152906040527fe826271a000000000000000000000000000000000000000000000000000000007bffffffffffffffffffffffffffffffffffffffffffffffffffffffff19166020820180517bffffffffffffffffffffffffffffffffffffffffffffffffffffffff8381831617835250505050905060008060009054906101000a900473ffffffffffffffffffffffffffffffffffffffff1673ffffffffffffffffffffffffffffffffffffffff1663168d560d30600062200b2061fa008c886040518763ffffffff1660e01b8152600401610a139695949392919061191c565b6000604051808303816000875af1158015610a32573d6000803e3d6000fd5b505050506040513d6000823e3d601f19601f82011682018060405250810190610a5b9190611a2a565b905080604051610a6b9190611aaf565b60405180910390207f9e989ccc644aff3dccb44d63c0125cf7c49f64c9631016543486e7dfc72187c78842610aa0919061154a565b604051610aad919061144c565b60405180910390a250505b505050505050505050565b60008390508151835114610b0c576040517f08c379a0000000000000000000000000000000000000000000000000000000008152600401610b039061152a565b60405180910390fd5b6000805b8451811015610b5457838181518110610b2c57610b2b611305565b5b602002602001015182610b3f919061154a565b91508080610b4c90611496565b915050610b10565b508173ffffffffffffffffffffffffffffffffffffffff166323b872dd3330846040518463ffffffff1660e01b8152600401610b929392919061157e565b6020604051808303816000875af1158015610bb1573d6000803e3d6000fd5b505050506040513d601f19601f82011682018060405250810190610bd591906113b3565b610c14576040517f08c379a0000000000000000000000000000000000000000000000000000000008152600401610c0b90611c56565b60405180910390fd5b60005b8451811015610da7578273ffffffffffffffffffffffffffffffffffffffff1663a9059cbb868381518110610c4f57610c4e611305565b5b6020026020010151868481518110610c6a57610c69611305565b5b60200260200101516040518363ffffffff1660e01b8152600401610c8f929190611352565b6020604051808303816000875af1158015610cae573d6000803e3d6000fd5b505050506040513d601f19601f82011682018060405250810190610cd291906113b3565b610d11576040517f08c379a0000000000000000000000000000000000000000000000000000000008152600401610d089061142c565b60405180910390fd5b848181518110610d2457610d23611305565b5b602002602001015173ffffffffffffffffffffffffffffffffffffffff16817fb9471439bd4c23f19d2b486548fa6061ab17e1da9815f325f2a2b29f22e715e3868481518110610d7757610d76611305565b5b6020026020010151604051610d8c919061144c565b60405180910390a38080610d9f90611496565b915050610c17565b505050505050565b6000604051905090565b600080fd5b600080fd5b600073ffffffffffffffffffffffffffffffffffffffff82169050919050565b6000610dee82610dc3565b9050919050565b610dfe81610de3565b8114610e0957600080fd5b50565b600081359050610e1b81610df5565b92915050565b600080fd5b6000601f19601f8301169050919050565b7f4e487b7100000000000000000000000000000000000000000000000000000000600052604160045260246000fd5b610e6f82610e26565b810181811067ffffffffffffffff82111715610e8e57610e8d610e37565b5b80604052505050565b6000610ea1610daf565b9050610ead8282610e66565b919050565b600067ffffffffffffffff821115610ecd57610ecc610e37565b5b602082029050602081019050919050565b600080fd5b6000610ef6610ef184610eb2565b610e97565b90508083825260208201905060208402830185811115610f1957610f18610ede565b5b835b81811015610f425780610f2e8882610e0c565b845260208401935050602081019050610f1b565b5050509392505050565b600082601f830112610f6157610f60610e21565b5b8135610f71848260208601610ee3565b91505092915050565b600067ffffffffffffffff821115610f9557610f94610e37565b5b602082029050602081019050919050565b6000819050919050565b610fb981610fa6565b8114610fc457600080fd5b50565b600081359050610fd681610fb0565b92915050565b6000610fef610fea84610f7a565b610e97565b9050808382526020820190506020840283018581111561101257611011610ede565b5b835b8181101561103b57806110278882610fc7565b845260208401935050602081019050611014565b5050509392505050565b600082601f83011261105a57611059610e21565b5b813561106a848260208601610fdc565b91505092915050565b60008060006060848603121561108c5761108b610db9565b5b600061109a86828701610e0c565b935050602084013567ffffffffffffffff8111156110bb576110ba610dbe565b5b6110c786828701610f4c565b925050604084013567ffffffffffffffff8111156110e8576110e7610dbe565b5b6110f486828701611045565b9150509250925092565b6000806000806080858703121561111857611117610db9565b5b600061112687828801610e0c565b945050602085013567ffffffffffffffff81111561114757611146610dbe565b5b61115387828801610f4c565b935050604085013567ffffffffffffffff81111561117457611173610dbe565b5b61118087828801611045565b925050606061119187828801610fc7565b91505092959194509250565b60008060008060008060c087890312156111ba576111b9610db9565b5b60006111c889828a01610e0c565b965050602087013567ffffffffffffffff8111156111e9576111e8610dbe565b5b6111f589828a01610f4c565b955050604087013567ffffffffffffffff81111561121657611215610dbe565b5b61122289828a01611045565b945050606061123389828a01610fc7565b935050608061124489828a01610fc7565b92505060a061125589828a01610fc7565b9150509295509295509295565b600082825260208201905092915050565b7f4d69736d61746368656420726563697069656e747320616e6420616d6f756e7460008201527f7300000000000000000000000000000000000000000000000000000000000000602082015250565b60006112cf602183611262565b91506112da82611273565b604082019050919050565b600060208201905081810360008301526112fe816112c2565b9050919050565b7f4e487b7100000000000000000000000000000000000000000000000000000000600052603260045260246000fd5b61133d81610de3565b82525050565b61134c81610fa6565b82525050565b60006040820190506113676000830185611334565b6113746020830184611343565b9392505050565b60008115159050919050565b6113908161137b565b811461139b57600080fd5b50565b6000815190506113ad81611387565b92915050565b6000602082840312156113c9576113c8610db9565b5b60006113d78482850161139e565b91505092915050565b7f546f6b656e207472616e73666572206661696c65640000000000000000000000600082015250565b6000611416601583611262565b9150611421826113e0565b602082019050919050565b6000602082019050818103600083015261144581611409565b9050919050565b60006020820190506114616000830184611343565b92915050565b7f4e487b7100000000000000000000000000000000000000000000000000000000600052601160045260246000fd5b60006114a182610fa6565b91507fffffffffffffffffffffffffffffffffffffffffffffffffffffffffffffffff82036114d3576114d2611467565b5b600182019050919050565b7f4769766520696e70757473206163636f7264696e676c79210000000000000000600082015250565b6000611514601883611262565b915061151f826114de565b602082019050919050565b6000602082019050818103600083015261154381611507565b9050919050565b600061155582610fa6565b915061156083610fa6565b925082820190508082111561157857611577611467565b5b92915050565b60006060820190506115936000830186611334565b6115a06020830185611334565b6115ad6040830184611343565b949350505050565b7f546f6b656e207472616e73666572206661696c65642100000000000000000000600082015250565b60006115eb601683611262565b91506115f6826115b5565b602082019050919050565b6000602082019050818103600083015261161a816115de565b9050919050565b600081519050919050565b600082825260208201905092915050565b6000819050602082019050919050565b61165681610de3565b82525050565b6000611668838361164d565b60208301905092915050565b6000602082019050919050565b600061168c82611621565b611696818561162c565b93506116a18361163d565b8060005b838110156116d25781516116b9888261165c565b97506116c483611674565b9250506001810190506116a5565b5085935050505092915050565b600081519050919050565b600082825260208201905092915050565b6000819050602082019050919050565b61171481610fa6565b82525050565b6000611726838361170b565b60208301905092915050565b6000602082019050919050565b600061174a826116df565b61175481856116ea565b935061175f836116fb565b8060005b83811015611790578151611777888261171a565b975061178283611732565b925050600181019050611763565b5085935050505092915050565b60006060820190506117b26000830186611334565b81810360208301526117c48185611681565b905081810360408301526117d8818461173f565b9050949350505050565b6000819050919050565b6000819050919050565b600061181161180c611807846117e2565b6117ec565b610fa6565b9050919050565b611821816117f6565b82525050565b6000819050919050565b600061184c61184761184284611827565b6117ec565b610fa6565b9050919050565b61185c81611831565b82525050565b6000819050919050565b600061188761188261187d84611862565b6117ec565b610fa6565b9050919050565b6118978161186c565b82525050565b600081519050919050565b600082825260208201905092915050565b60005b838110156118d75780820151818401526020810190506118bc565b60008484015250505050565b60006118ee8261189d565b6118f881856118a8565b93506119088185602086016118b9565b61191181610e26565b840191505092915050565b600060c0820190506119316000830189611334565b61193e6020830188611818565b61194b6040830187611853565b611958606083018661188e565b6119656080830185611343565b81810360a083015261197781846118e3565b9050979650505050505050565b600080fd5b600067ffffffffffffffff8211156119a4576119a3610e37565b5b6119ad82610e26565b9050602081019050919050565b60006119cd6119c884611989565b610e97565b9050828152602081018484840111156119e9576119e8611984565b5b6119f48482856118b9565b509392505050565b600082601f830112611a1157611a10610e21565b5b8151611a218482602086016119ba565b91505092915050565b600060208284031215611a4057611a3f610db9565b5b600082015167ffffffffffffffff811115611a5e57611a5d610dbe565b5b611a6a848285016119fc565b91505092915050565b600081905092915050565b6000611a898261189d565b611a938185611a73565b9350611aa38185602086016118b9565b80840191505092915050565b6000611abb8284611a7e565b915081905092915050565b60006060820190508181036000830152611ae08186611681565b90508181036020830152611af4818561173f565b9050611b036040830184611343565b949350505050565b6000602082019050611b206000830184611334565b92915050565b600081519050611b3581610fb0565b92915050565b600060208284031215611b5157611b50610db9565b5b6000611b5f84828501611b26565b91505092915050565b6000611b7382610fa6565b9150611b7e83610fa6565b9250828202611b8c81610fa6565b91508282048414831517611ba357611ba2611467565b5b5092915050565b7f4e487b7100000000000000000000000000000000000000000000000000000000600052601260045260246000fd5b6000611be482610fa6565b9150611bef83610fa6565b925082611bff57611bfe611baa565b5b828204905092915050565b7f546f6b656e207472616e7366657246726f6d206661696c656421200000000000600082015250565b6000611c40601b83611262565b9150611c4b82611c0a565b602082019050919050565b60006020820190508181036000830152611c6f81611c33565b9050919050565b6000611c8182610fa6565b9150611c8c83610fa6565b9250828203905081811115611ca457611ca3611467565b5b92915050565b600060c082019050611cbf6000830189611334565b8181036020830152611cd18188611681565b90508181036040830152611ce5818761173f565b9050611cf46060830186611343565b611d016080830185611343565b611d0e60a0830184611343565b97965050505050505056fea2646970667358221220807381471bbe8453f19a6c1d72a6cc9337c730d772a31732e5101627c115740664736f6c63430008120033",
		"opcodes": "PUSH1 0x80 PUSH1 0x40 MSTORE PUSH1 0x4 CALLDATASIZE LT PUSH2 0x43 JUMPI PUSH1 0x0 CALLDATALOAD PUSH1 0xE0 SHR DUP1 PUSH4 0x46BA5FED EQ PUSH2 0x4C JUMPI DUP1 PUSH4 0x5B93F507 EQ PUSH2 0x75 JUMPI DUP1 PUSH4 0xE826271A EQ PUSH2 0x91 JUMPI DUP1 PUSH4 0xED44B388 EQ PUSH2 0xAD JUMPI PUSH2 0x4A JUMP JUMPDEST CALLDATASIZE PUSH2 0x4A JUMPI STOP JUMPDEST STOP JUMPDEST CALLVALUE DUP1 ISZERO PUSH2 0x58 JUMPI PUSH1 0x0 DUP1 REVERT JUMPDEST POP PUSH2 0x73 PUSH1 0x4 DUP1 CALLDATASIZE SUB DUP2 ADD SWAP1 PUSH2 0x6E SWAP2 SWAP1 PUSH2 0x1073 JUMP JUMPDEST PUSH2 0xC9 JUMP JUMPDEST STOP JUMPDEST PUSH2 0x8F PUSH1 0x4 DUP1 CALLDATASIZE SUB DUP2 ADD SWAP1 PUSH2 0x8A SWAP2 SWAP1 PUSH2 0x10FE JUMP JUMPDEST PUSH2 0x2AC JUMP JUMPDEST STOP JUMPDEST PUSH2 0xAB PUSH1 0x4 DUP1 CALLDATASIZE SUB DUP2 ADD SWAP1 PUSH2 0xA6 SWAP2 SWAP1 PUSH2 0x119D JUMP JUMPDEST PUSH2 0x5C6 JUMP JUMPDEST STOP JUMPDEST PUSH2 0xC7 PUSH1 0x4 DUP1 CALLDATASIZE SUB DUP2 ADD SWAP1 PUSH2 0xC2 SWAP2 SWAP1 PUSH2 0x1073 JUMP JUMPDEST PUSH2 0xAC3 JUMP JUMPDEST STOP JUMPDEST PUSH1 0x0 DUP4 SWAP1 POP DUP2 MLOAD DUP4 MLOAD EQ PUSH2 0x112 JUMPI PUSH1 0x40 MLOAD PUSH32 0x8C379A000000000000000000000000000000000000000000000000000000000 DUP2 MSTORE PUSH1 0x4 ADD PUSH2 0x109 SWAP1 PUSH2 0x12E5 JUMP JUMPDEST PUSH1 0x40 MLOAD DUP1 SWAP2 SUB SWAP1 REVERT JUMPDEST PUSH1 0x0 JUMPDEST DUP4 MLOAD DUP2 LT ISZERO PUSH2 0x2A5 JUMPI DUP2 PUSH20 0xFFFFFFFFFFFFFFFFFFFFFFFFFFFFFFFFFFFFFFFF AND PUSH4 0xA9059CBB DUP6 DUP4 DUP2 MLOAD DUP2 LT PUSH2 0x14D JUMPI PUSH2 0x14C PUSH2 0x1305 JUMP JUMPDEST JUMPDEST PUSH1 0x20 MUL PUSH1 0x20 ADD ADD MLOAD DUP6 DUP5 DUP2 MLOAD DUP2 LT PUSH2 0x168 JUMPI PUSH2 0x167 PUSH2 0x1305 JUMP JUMPDEST JUMPDEST PUSH1 0x20 MUL PUSH1 0x20 ADD ADD MLOAD PUSH1 0x40 MLOAD DUP4 PUSH4 0xFFFFFFFF AND PUSH1 0xE0 SHL DUP2 MSTORE PUSH1 0x4 ADD PUSH2 0x18D SWAP3 SWAP2 SWAP1 PUSH2 0x1352 JUMP JUMPDEST PUSH1 0x20 PUSH1 0x40 MLOAD DUP1 DUP4 SUB DUP2 PUSH1 0x0 DUP8 GAS CALL ISZERO DUP1 ISZERO PUSH2 0x1AC JUMPI RETURNDATASIZE PUSH1 0x0 DUP1 RETURNDATACOPY RETURNDATASIZE PUSH1 0x0 REVERT JUMPDEST POP POP POP POP PUSH1 0x40 MLOAD RETURNDATASIZE PUSH1 0x1F NOT PUSH1 0x1F DUP3 ADD AND DUP3 ADD DUP1 PUSH1 0x40 MSTORE POP DUP2 ADD SWAP1 PUSH2 0x1D0 SWAP2 SWAP1 PUSH2 0x13B3 JUMP JUMPDEST PUSH2 0x20F JUMPI PUSH1 0x40 MLOAD PUSH32 0x8C379A000000000000000000000000000000000000000000000000000000000 DUP2 MSTORE PUSH1 0x4 ADD PUSH2 0x206 SWAP1 PUSH2 0x142C JUMP JUMPDEST PUSH1 0x40 MLOAD DUP1 SWAP2 SUB SWAP1 REVERT JUMPDEST DUP4 DUP2 DUP2 MLOAD DUP2 LT PUSH2 0x222 JUMPI PUSH2 0x221 PUSH2 0x1305 JUMP JUMPDEST JUMPDEST PUSH1 0x20 MUL PUSH1 0x20 ADD ADD MLOAD PUSH20 0xFFFFFFFFFFFFFFFFFFFFFFFFFFFFFFFFFFFFFFFF AND DUP2 PUSH32 0xB9471439BD4C23F19D2B486548FA6061AB17E1DA9815F325F2A2B29F22E715E3 DUP6 DUP5 DUP2 MLOAD DUP2 LT PUSH2 0x275 JUMPI PUSH2 0x274 PUSH2 0x1305 JUMP JUMPDEST JUMPDEST PUSH1 0x20 MUL PUSH1 0x20 ADD ADD MLOAD PUSH1 0x40 MLOAD PUSH2 0x28A SWAP2 SWAP1 PUSH2 0x144C JUMP JUMPDEST PUSH1 0x40 MLOAD DUP1 SWAP2 SUB SWAP1 LOG3 DUP1 DUP1 PUSH2 0x29D SWAP1 PUSH2 0x1496 JUMP JUMPDEST SWAP2 POP POP PUSH2 0x115 JUMP JUMPDEST POP POP POP POP POP JUMP JUMPDEST PUSH1 0x0 DUP5 SWAP1 POP DUP3 MLOAD DUP5 MLOAD EQ PUSH2 0x2F5 JUMPI PUSH1 0x40 MLOAD PUSH32 0x8C379A000000000000000000000000000000000000000000000000000000000 DUP2 MSTORE PUSH1 0x4 ADD PUSH2 0x2EC SWAP1 PUSH2 0x152A JUMP JUMPDEST PUSH1 0x40 MLOAD DUP1 SWAP2 SUB SWAP1 REVERT JUMPDEST PUSH1 0x0 DUP1 JUMPDEST DUP5 MLOAD DUP2 LT ISZERO PUSH2 0x33D JUMPI DUP5 DUP2 DUP2 MLOAD DUP2 LT PUSH2 0x315 JUMPI PUSH2 0x314 PUSH2 0x1305 JUMP JUMPDEST JUMPDEST PUSH1 0x20 MUL PUSH1 0x20 ADD ADD MLOAD DUP3 PUSH2 0x328 SWAP2 SWAP1 PUSH2 0x154A JUMP JUMPDEST SWAP2 POP DUP1 DUP1 PUSH2 0x335 SWAP1 PUSH2 0x1496 JUMP JUMPDEST SWAP2 POP POP PUSH2 0x2F9 JUMP JUMPDEST POP DUP2 PUSH20 0xFFFFFFFFFFFFFFFFFFFFFFFFFFFFFFFFFFFFFFFF AND PUSH4 0x23B872DD CALLER ADDRESS DUP5 PUSH1 0x40 MLOAD DUP5 PUSH4 0xFFFFFFFF AND PUSH1 0xE0 SHL DUP2 MSTORE PUSH1 0x4 ADD PUSH2 0x37B SWAP4 SWAP3 SWAP2 SWAP1 PUSH2 0x157E JUMP JUMPDEST PUSH1 0x20 PUSH1 0x40 MLOAD DUP1 DUP4 SUB DUP2 PUSH1 0x0 DUP8 GAS CALL ISZERO DUP1 ISZERO PUSH2 0x39A JUMPI RETURNDATASIZE PUSH1 0x0 DUP1 RETURNDATACOPY RETURNDATASIZE PUSH1 0x0 REVERT JUMPDEST POP POP POP POP PUSH1 0x40 MLOAD RETURNDATASIZE PUSH1 0x1F NOT PUSH1 0x1F DUP3 ADD AND DUP3 ADD DUP1 PUSH1 0x40 MSTORE POP DUP2 ADD SWAP1 PUSH2 0x3BE SWAP2 SWAP1 PUSH2 0x13B3 JUMP JUMPDEST PUSH2 0x3FD JUMPI PUSH1 0x40 MLOAD PUSH32 0x8C379A000000000000000000000000000000000000000000000000000000000 DUP2 MSTORE PUSH1 0x4 ADD PUSH2 0x3F4 SWAP1 PUSH2 0x1601 JUMP JUMPDEST PUSH1 0x40 MLOAD DUP1 SWAP2 SUB SWAP1 REVERT JUMPDEST PUSH1 0x0 DUP7 DUP7 DUP7 PUSH1 0x40 MLOAD PUSH1 0x24 ADD PUSH2 0x414 SWAP4 SWAP3 SWAP2 SWAP1 PUSH2 0x179D JUMP JUMPDEST PUSH1 0x40 MLOAD PUSH1 0x20 DUP2 DUP4 SUB SUB DUP2 MSTORE SWAP1 PUSH1 0x40 MSTORE PUSH32 0x46BA5FED00000000000000000000000000000000000000000000000000000000 PUSH28 0xFFFFFFFFFFFFFFFFFFFFFFFFFFFFFFFFFFFFFFFFFFFFFFFFFFFFFFFF NOT AND PUSH1 0x20 DUP3 ADD DUP1 MLOAD PUSH28 0xFFFFFFFFFFFFFFFFFFFFFFFFFFFFFFFFFFFFFFFFFFFFFFFFFFFFFFFF DUP4 DUP2 DUP4 AND OR DUP4 MSTORE POP POP POP POP SWAP1 POP PUSH1 0x0 DUP1 PUSH1 0x0 SWAP1 SLOAD SWAP1 PUSH2 0x100 EXP SWAP1 DIV PUSH20 0xFFFFFFFFFFFFFFFFFFFFFFFFFFFFFFFFFFFFFFFF AND PUSH20 0xFFFFFFFFFFFFFFFFFFFFFFFFFFFFFFFFFFFFFFFF AND PUSH4 0x168D560D ADDRESS PUSH1 0x0 PUSH3 0x200B20 PUSH2 0xFA00 DUP11 DUP9 PUSH1 0x40 MLOAD DUP8 PUSH4 0xFFFFFFFF AND PUSH1 0xE0 SHL DUP2 MSTORE PUSH1 0x4 ADD PUSH2 0x4FF SWAP7 SWAP6 SWAP5 SWAP4 SWAP3 SWAP2 SWAP1 PUSH2 0x191C JUMP JUMPDEST PUSH1 0x0 PUSH1 0x40 MLOAD DUP1 DUP4 SUB DUP2 PUSH1 0x0 DUP8 GAS CALL ISZERO DUP1 ISZERO PUSH2 0x51E JUMPI RETURNDATASIZE PUSH1 0x0 DUP1 RETURNDATACOPY RETURNDATASIZE PUSH1 0x0 REVERT JUMPDEST POP POP POP POP PUSH1 0x40 MLOAD RETURNDATASIZE PUSH1 0x0 DUP3 RETURNDATACOPY RETURNDATASIZE PUSH1 0x1F NOT PUSH1 0x1F DUP3 ADD AND DUP3 ADD DUP1 PUSH1 0x40 MSTORE POP DUP2 ADD SWAP1 PUSH2 0x547 SWAP2 SWAP1 PUSH2 0x1A2A JUMP JUMPDEST SWAP1 POP DUP8 PUSH20 0xFFFFFFFFFFFFFFFFFFFFFFFFFFFFFFFFFFFFFFFF AND DUP2 PUSH1 0x40 MLOAD PUSH2 0x56E SWAP2 SWAP1 PUSH2 0x1AAF JUMP JUMPDEST PUSH1 0x40 MLOAD DUP1 SWAP2 SUB SWAP1 KECCAK256 PUSH32 0xC9C9AFE41DD5E3A9438DD88814EDCB9C8089A9E980F48B14414EDA3D6D3D0E9A DUP10 DUP10 DUP10 TIMESTAMP PUSH2 0x5A5 SWAP2 SWAP1 PUSH2 0x154A JUMP JUMPDEST PUSH1 0x40 MLOAD PUSH2 0x5B4 SWAP4 SWAP3 SWAP2 SWAP1 PUSH2 0x1AC6 JUMP JUMPDEST PUSH1 0x40 MLOAD DUP1 SWAP2 SUB SWAP1 LOG3 POP POP POP POP POP POP POP POP JUMP JUMPDEST PUSH1 0x0 DUP7 SWAP1 POP PUSH1 0x0 PUSH1 0x1 PUSH1 0x0 SWAP1 SLOAD SWAP1 PUSH2 0x100 EXP SWAP1 DIV PUSH20 0xFFFFFFFFFFFFFFFFFFFFFFFFFFFFFFFFFFFFFFFF AND PUSH20 0xFFFFFFFFFFFFFFFFFFFFFFFFFFFFFFFFFFFFFFFF AND PUSH4 0x41976E09 DUP10 PUSH1 0x40 MLOAD DUP3 PUSH4 0xFFFFFFFF AND PUSH1 0xE0 SHL DUP2 MSTORE PUSH1 0x4 ADD PUSH2 0x628 SWAP2 SWAP1 PUSH2 0x1B0B JUMP JUMPDEST PUSH1 0x20 PUSH1 0x40 MLOAD DUP1 DUP4 SUB DUP2 DUP7 GAS STATICCALL ISZERO DUP1 ISZERO PUSH2 0x645 JUMPI RETURNDATASIZE PUSH1 0x0 DUP1 RETURNDATACOPY RETURNDATASIZE PUSH1 0x0 REVERT JUMPDEST POP POP POP POP PUSH1 0x40 MLOAD RETURNDATASIZE PUSH1 0x1F NOT PUSH1 0x1F DUP3 ADD AND DUP3 ADD DUP1 PUSH1 0x40 MSTORE POP DUP2 ADD SWAP1 PUSH2 0x669 SWAP2 SWAP1 PUSH2 0x1B3B JUMP JUMPDEST SWAP1 POP PUSH1 0x0 PUSH1 0x64 DUP5 DUP8 PUSH2 0x67B SWAP2 SWAP1 PUSH2 0x1B68 JUMP JUMPDEST PUSH2 0x685 SWAP2 SWAP1 PUSH2 0x1BD9 JUMP JUMPDEST SWAP1 POP ADDRESS PUSH20 0xFFFFFFFFFFFFFFFFFFFFFFFFFFFFFFFFFFFFFFFF AND CALLER PUSH20 0xFFFFFFFFFFFFFFFFFFFFFFFFFFFFFFFFFFFFFFFF AND EQ PUSH2 0x808 JUMPI DUP7 MLOAD DUP9 MLOAD EQ PUSH2 0x6FE JUMPI PUSH1 0x40 MLOAD PUSH32 0x8C379A000000000000000000000000000000000000000000000000000000000 DUP2 MSTORE PUSH1 0x4 ADD PUSH2 0x6F5 SWAP1 PUSH2 0x152A JUMP JUMPDEST PUSH1 0x40 MLOAD DUP1 SWAP2 SUB SWAP1 REVERT JUMPDEST PUSH1 0x0 DUP1 JUMPDEST DUP10 MLOAD DUP2 LT ISZERO PUSH2 0x746 JUMPI DUP9 DUP2 DUP2 MLOAD DUP2 LT PUSH2 0x71E JUMPI PUSH2 0x71D PUSH2 0x1305 JUMP JUMPDEST JUMPDEST PUSH1 0x20 MUL PUSH1 0x20 ADD ADD MLOAD DUP3 PUSH2 0x731 SWAP2 SWAP1 PUSH2 0x154A JUMP JUMPDEST SWAP2 POP DUP1 DUP1 PUSH2 0x73E SWAP1 PUSH2 0x1496 JUMP JUMPDEST SWAP2 POP POP PUSH2 0x702 JUMP JUMPDEST POP DUP4 PUSH20 0xFFFFFFFFFFFFFFFFFFFFFFFFFFFFFFFFFFFFFFFF AND PUSH4 0x23B872DD CALLER ADDRESS DUP5 PUSH1 0x40 MLOAD DUP5 PUSH4 0xFFFFFFFF AND PUSH1 0xE0 SHL DUP2 MSTORE PUSH1 0x4 ADD PUSH2 0x784 SWAP4 SWAP3 SWAP2 SWAP1 PUSH2 0x157E JUMP JUMPDEST PUSH1 0x20 PUSH1 0x40 MLOAD DUP1 DUP4 SUB DUP2 PUSH1 0x0 DUP8 GAS CALL ISZERO DUP1 ISZERO PUSH2 0x7A3 JUMPI RETURNDATASIZE PUSH1 0x0 DUP1 RETURNDATACOPY RETURNDATASIZE PUSH1 0x0 REVERT JUMPDEST POP POP POP POP PUSH1 0x40 MLOAD RETURNDATASIZE PUSH1 0x1F NOT PUSH1 0x1F DUP3 ADD AND DUP3 ADD DUP1 PUSH1 0x40 MSTORE POP DUP2 ADD SWAP1 PUSH2 0x7C7 SWAP2 SWAP1 PUSH2 0x13B3 JUMP JUMPDEST PUSH2 0x806 JUMPI PUSH1 0x40 MLOAD PUSH32 0x8C379A000000000000000000000000000000000000000000000000000000000 DUP2 MSTORE PUSH1 0x4 ADD PUSH2 0x7FD SWAP1 PUSH2 0x1C56 JUMP JUMPDEST PUSH1 0x40 MLOAD DUP1 SWAP2 SUB SWAP1 REVERT JUMPDEST POP JUMPDEST DUP1 DUP7 PUSH2 0x814 SWAP2 SWAP1 PUSH2 0x1C76 JUMP JUMPDEST DUP3 LT ISZERO DUP1 ISZERO PUSH2 0x82E JUMPI POP DUP1 DUP7 PUSH2 0x82A SWAP2 SWAP1 PUSH2 0x154A JUMP JUMPDEST DUP3 GT ISZERO JUMPDEST ISZERO PUSH2 0x90B JUMPI PUSH1 0x0 JUMPDEST DUP9 MLOAD DUP2 LT ISZERO PUSH2 0x905 JUMPI DUP4 PUSH20 0xFFFFFFFFFFFFFFFFFFFFFFFFFFFFFFFFFFFFFFFF AND PUSH4 0xA9059CBB DUP11 DUP4 DUP2 MLOAD DUP2 LT PUSH2 0x86E JUMPI PUSH2 0x86D PUSH2 0x1305 JUMP JUMPDEST JUMPDEST PUSH1 0x20 MUL PUSH1 0x20 ADD ADD MLOAD DUP11 DUP5 DUP2 MLOAD DUP2 LT PUSH2 0x889 JUMPI PUSH2 0x888 PUSH2 0x1305 JUMP JUMPDEST JUMPDEST PUSH1 0x20 MUL PUSH1 0x20 ADD ADD MLOAD PUSH1 0x40 MLOAD DUP4 PUSH4 0xFFFFFFFF AND PUSH1 0xE0 SHL DUP2 MSTORE PUSH1 0x4 ADD PUSH2 0x8AE SWAP3 SWAP2 SWAP1 PUSH2 0x1352 JUMP JUMPDEST PUSH1 0x20 PUSH1 0x40 MLOAD DUP1 DUP4 SUB DUP2 PUSH1 0x0 DUP8 GAS CALL ISZERO DUP1 ISZERO PUSH2 0x8CD JUMPI RETURNDATASIZE PUSH1 0x0 DUP1 RETURNDATACOPY RETURNDATASIZE PUSH1 0x0 REVERT JUMPDEST POP POP POP POP PUSH1 0x40 MLOAD RETURNDATASIZE PUSH1 0x1F NOT PUSH1 0x1F DUP3 ADD AND DUP3 ADD DUP1 PUSH1 0x40 MSTORE POP DUP2 ADD SWAP1 PUSH2 0x8F1 SWAP2 SWAP1 PUSH2 0x13B3 JUMP JUMPDEST POP DUP1 DUP1 PUSH2 0x8FD SWAP1 PUSH2 0x1496 JUMP JUMPDEST SWAP2 POP POP PUSH2 0x836 JUMP JUMPDEST POP PUSH2 0xAB8 JUMP JUMPDEST PUSH1 0x0 DUP10 DUP10 DUP10 DUP10 DUP10 DUP10 PUSH1 0x40 MLOAD PUSH1 0x24 ADD PUSH2 0x928 SWAP7 SWAP6 SWAP5 SWAP4 SWAP3 SWAP2 SWAP1 PUSH2 0x1CAA JUMP JUMPDEST PUSH1 0x40 MLOAD PUSH1 0x20 DUP2 DUP4 SUB SUB DUP2 MSTORE SWAP1 PUSH1 0x40 MSTORE PUSH32 0xE826271A00000000000000000000000000000000000000000000000000000000 PUSH28 0xFFFFFFFFFFFFFFFFFFFFFFFFFFFFFFFFFFFFFFFFFFFFFFFFFFFFFFFF NOT AND PUSH1 0x20 DUP3 ADD DUP1 MLOAD PUSH28 0xFFFFFFFFFFFFFFFFFFFFFFFFFFFFFFFFFFFFFFFFFFFFFFFFFFFFFFFF DUP4 DUP2 DUP4 AND OR DUP4 MSTORE POP POP POP POP SWAP1 POP PUSH1 0x0 DUP1 PUSH1 0x0 SWAP1 SLOAD SWAP1 PUSH2 0x100 EXP SWAP1 DIV PUSH20 0xFFFFFFFFFFFFFFFFFFFFFFFFFFFFFFFFFFFFFFFF AND PUSH20 0xFFFFFFFFFFFFFFFFFFFFFFFFFFFFFFFFFFFFFFFF AND PUSH4 0x168D560D ADDRESS PUSH1 0x0 PUSH3 0x200B20 PUSH2 0xFA00 DUP13 DUP9 PUSH1 0x40 MLOAD DUP8 PUSH4 0xFFFFFFFF AND PUSH1 0xE0 SHL DUP2 MSTORE PUSH1 0x4 ADD PUSH2 0xA13 SWAP7 SWAP6 SWAP5 SWAP4 SWAP3 SWAP2 SWAP1 PUSH2 0x191C JUMP JUMPDEST PUSH1 0x0 PUSH1 0x40 MLOAD DUP1 DUP4 SUB DUP2 PUSH1 0x0 DUP8 GAS CALL ISZERO DUP1 ISZERO PUSH2 0xA32 JUMPI RETURNDATASIZE PUSH1 0x0 DUP1 RETURNDATACOPY RETURNDATASIZE PUSH1 0x0 REVERT JUMPDEST POP POP POP POP PUSH1 0x40 MLOAD RETURNDATASIZE PUSH1 0x0 DUP3 RETURNDATACOPY RETURNDATASIZE PUSH1 0x1F NOT PUSH1 0x1F DUP3 ADD AND DUP3 ADD DUP1 PUSH1 0x40 MSTORE POP DUP2 ADD SWAP1 PUSH2 0xA5B SWAP2 SWAP1 PUSH2 0x1A2A JUMP JUMPDEST SWAP1 POP DUP1 PUSH1 0x40 MLOAD PUSH2 0xA6B SWAP2 SWAP1 PUSH2 0x1AAF JUMP JUMPDEST PUSH1 0x40 MLOAD DUP1 SWAP2 SUB SWAP1 KECCAK256 PUSH32 0x9E989CCC644AFF3DCCB44D63C0125CF7C49F64C9631016543486E7DFC72187C7 DUP9 TIMESTAMP PUSH2 0xAA0 SWAP2 SWAP1 PUSH2 0x154A JUMP JUMPDEST PUSH1 0x40 MLOAD PUSH2 0xAAD SWAP2 SWAP1 PUSH2 0x144C JUMP JUMPDEST PUSH1 0x40 MLOAD DUP1 SWAP2 SUB SWAP1 LOG2 POP POP JUMPDEST POP POP POP POP POP POP POP POP POP JUMP JUMPDEST PUSH1 0x0 DUP4 SWAP1 POP DUP2 MLOAD DUP4 MLOAD EQ PUSH2 0xB0C JUMPI PUSH1 0x40 MLOAD PUSH32 0x8C379A000000000000000000000000000000000000000000000000000000000 DUP2 MSTORE PUSH1 0x4 ADD PUSH2 0xB03 SWAP1 PUSH2 0x152A JUMP JUMPDEST PUSH1 0x40 MLOAD DUP1 SWAP2 SUB SWAP1 REVERT JUMPDEST PUSH1 0x0 DUP1 JUMPDEST DUP5 MLOAD DUP2 LT ISZERO PUSH2 0xB54 JUMPI DUP4 DUP2 DUP2 MLOAD DUP2 LT PUSH2 0xB2C JUMPI PUSH2 0xB2B PUSH2 0x1305 JUMP JUMPDEST JUMPDEST PUSH1 0x20 MUL PUSH1 0x20 ADD ADD MLOAD DUP3 PUSH2 0xB3F SWAP2 SWAP1 PUSH2 0x154A JUMP JUMPDEST SWAP2 POP DUP1 DUP1 PUSH2 0xB4C SWAP1 PUSH2 0x1496 JUMP JUMPDEST SWAP2 POP POP PUSH2 0xB10 JUMP JUMPDEST POP DUP2 PUSH20 0xFFFFFFFFFFFFFFFFFFFFFFFFFFFFFFFFFFFFFFFF AND PUSH4 0x23B872DD CALLER ADDRESS DUP5 PUSH1 0x40 MLOAD DUP5 PUSH4 0xFFFFFFFF AND PUSH1 0xE0 SHL DUP2 MSTORE PUSH1 0x4 ADD PUSH2 0xB92 SWAP4 SWAP3 SWAP2 SWAP1 PUSH2 0x157E JUMP JUMPDEST PUSH1 0x20 PUSH1 0x40 MLOAD DUP1 DUP4 SUB DUP2 PUSH1 0x0 DUP8 GAS CALL ISZERO DUP1 ISZERO PUSH2 0xBB1 JUMPI RETURNDATASIZE PUSH1 0x0 DUP1 RETURNDATACOPY RETURNDATASIZE PUSH1 0x0 REVERT JUMPDEST POP POP POP POP PUSH1 0x40 MLOAD RETURNDATASIZE PUSH1 0x1F NOT PUSH1 0x1F DUP3 ADD AND DUP3 ADD DUP1 PUSH1 0x40 MSTORE POP DUP2 ADD SWAP1 PUSH2 0xBD5 SWAP2 SWAP1 PUSH2 0x13B3 JUMP JUMPDEST PUSH2 0xC14 JUMPI PUSH1 0x40 MLOAD PUSH32 0x8C379A000000000000000000000000000000000000000000000000000000000 DUP2 MSTORE PUSH1 0x4 ADD PUSH2 0xC0B SWAP1 PUSH2 0x1C56 JUMP JUMPDEST PUSH1 0x40 MLOAD DUP1 SWAP2 SUB SWAP1 REVERT JUMPDEST PUSH1 0x0 JUMPDEST DUP5 MLOAD DUP2 LT ISZERO PUSH2 0xDA7 JUMPI DUP3 PUSH20 0xFFFFFFFFFFFFFFFFFFFFFFFFFFFFFFFFFFFFFFFF AND PUSH4 0xA9059CBB DUP7 DUP4 DUP2 MLOAD DUP2 LT PUSH2 0xC4F JUMPI PUSH2 0xC4E PUSH2 0x1305 JUMP JUMPDEST JUMPDEST PUSH1 0x20 MUL PUSH1 0x20 ADD ADD MLOAD DUP7 DUP5 DUP2 MLOAD DUP2 LT PUSH2 0xC6A JUMPI PUSH2 0xC69 PUSH2 0x1305 JUMP JUMPDEST JUMPDEST PUSH1 0x20 MUL PUSH1 0x20 ADD ADD MLOAD PUSH1 0x40 MLOAD DUP4 PUSH4 0xFFFFFFFF AND PUSH1 0xE0 SHL DUP2 MSTORE PUSH1 0x4 ADD PUSH2 0xC8F SWAP3 SWAP2 SWAP1 PUSH2 0x1352 JUMP JUMPDEST PUSH1 0x20 PUSH1 0x40 MLOAD DUP1 DUP4 SUB DUP2 PUSH1 0x0 DUP8 GAS CALL ISZERO DUP1 ISZERO PUSH2 0xCAE JUMPI RETURNDATASIZE PUSH1 0x0 DUP1 RETURNDATACOPY RETURNDATASIZE PUSH1 0x0 REVERT JUMPDEST POP POP POP POP PUSH1 0x40 MLOAD RETURNDATASIZE PUSH1 0x1F NOT PUSH1 0x1F DUP3 ADD AND DUP3 ADD DUP1 PUSH1 0x40 MSTORE POP DUP2 ADD SWAP1 PUSH2 0xCD2 SWAP2 SWAP1 PUSH2 0x13B3 JUMP JUMPDEST PUSH2 0xD11 JUMPI PUSH1 0x40 MLOAD PUSH32 0x8C379A000000000000000000000000000000000000000000000000000000000 DUP2 MSTORE PUSH1 0x4 ADD PUSH2 0xD08 SWAP1 PUSH2 0x142C JUMP JUMPDEST PUSH1 0x40 MLOAD DUP1 SWAP2 SUB SWAP1 REVERT JUMPDEST DUP5 DUP2 DUP2 MLOAD DUP2 LT PUSH2 0xD24 JUMPI PUSH2 0xD23 PUSH2 0x1305 JUMP JUMPDEST JUMPDEST PUSH1 0x20 MUL PUSH1 0x20 ADD ADD MLOAD PUSH20 0xFFFFFFFFFFFFFFFFFFFFFFFFFFFFFFFFFFFFFFFF AND DUP2 PUSH32 0xB9471439BD4C23F19D2B486548FA6061AB17E1DA9815F325F2A2B29F22E715E3 DUP7 DUP5 DUP2 MLOAD DUP2 LT PUSH2 0xD77 JUMPI PUSH2 0xD76 PUSH2 0x1305 JUMP JUMPDEST JUMPDEST PUSH1 0x20 MUL PUSH1 0x20 ADD ADD MLOAD PUSH1 0x40 MLOAD PUSH2 0xD8C SWAP2 SWAP1 PUSH2 0x144C JUMP JUMPDEST PUSH1 0x40 MLOAD DUP1 SWAP2 SUB SWAP1 LOG3 DUP1 DUP1 PUSH2 0xD9F SWAP1 PUSH2 0x1496 JUMP JUMPDEST SWAP2 POP POP PUSH2 0xC17 JUMP JUMPDEST POP POP POP POP POP POP JUMP JUMPDEST PUSH1 0x0 PUSH1 0x40 MLOAD SWAP1 POP SWAP1 JUMP JUMPDEST PUSH1 0x0 DUP1 REVERT JUMPDEST PUSH1 0x0 DUP1 REVERT JUMPDEST PUSH1 0x0 PUSH20 0xFFFFFFFFFFFFFFFFFFFFFFFFFFFFFFFFFFFFFFFF DUP3 AND SWAP1 POP SWAP2 SWAP1 POP JUMP JUMPDEST PUSH1 0x0 PUSH2 0xDEE DUP3 PUSH2 0xDC3 JUMP JUMPDEST SWAP1 POP SWAP2 SWAP1 POP JUMP JUMPDEST PUSH2 0xDFE DUP2 PUSH2 0xDE3 JUMP JUMPDEST DUP2 EQ PUSH2 0xE09 JUMPI PUSH1 0x0 DUP1 REVERT JUMPDEST POP JUMP JUMPDEST PUSH1 0x0 DUP2 CALLDATALOAD SWAP1 POP PUSH2 0xE1B DUP2 PUSH2 0xDF5 JUMP JUMPDEST SWAP3 SWAP2 POP POP JUMP JUMPDEST PUSH1 0x0 DUP1 REVERT JUMPDEST PUSH1 0x0 PUSH1 0x1F NOT PUSH1 0x1F DUP4 ADD AND SWAP1 POP SWAP2 SWAP1 POP JUMP JUMPDEST PUSH32 0x4E487B7100000000000000000000000000000000000000000000000000000000 PUSH1 0x0 MSTORE PUSH1 0x41 PUSH1 0x4 MSTORE PUSH1 0x24 PUSH1 0x0 REVERT JUMPDEST PUSH2 0xE6F DUP3 PUSH2 0xE26 JUMP JUMPDEST DUP2 ADD DUP2 DUP2 LT PUSH8 0xFFFFFFFFFFFFFFFF DUP3 GT OR ISZERO PUSH2 0xE8E JUMPI PUSH2 0xE8D PUSH2 0xE37 JUMP JUMPDEST JUMPDEST DUP1 PUSH1 0x40 MSTORE POP POP POP JUMP JUMPDEST PUSH1 0x0 PUSH2 0xEA1 PUSH2 0xDAF JUMP JUMPDEST SWAP1 POP PUSH2 0xEAD DUP3 DUP3 PUSH2 0xE66 JUMP JUMPDEST SWAP2 SWAP1 POP JUMP JUMPDEST PUSH1 0x0 PUSH8 0xFFFFFFFFFFFFFFFF DUP3 GT ISZERO PUSH2 0xECD JUMPI PUSH2 0xECC PUSH2 0xE37 JUMP JUMPDEST JUMPDEST PUSH1 0x20 DUP3 MUL SWAP1 POP PUSH1 0x20 DUP2 ADD SWAP1 POP SWAP2 SWAP1 POP JUMP JUMPDEST PUSH1 0x0 DUP1 REVERT JUMPDEST PUSH1 0x0 PUSH2 0xEF6 PUSH2 0xEF1 DUP5 PUSH2 0xEB2 JUMP JUMPDEST PUSH2 0xE97 JUMP JUMPDEST SWAP1 POP DUP1 DUP4 DUP3 MSTORE PUSH1 0x20 DUP3 ADD SWAP1 POP PUSH1 0x20 DUP5 MUL DUP4 ADD DUP6 DUP2 GT ISZERO PUSH2 0xF19 JUMPI PUSH2 0xF18 PUSH2 0xEDE JUMP JUMPDEST JUMPDEST DUP4 JUMPDEST DUP2 DUP2 LT ISZERO PUSH2 0xF42 JUMPI DUP1 PUSH2 0xF2E DUP9 DUP3 PUSH2 0xE0C JUMP JUMPDEST DUP5 MSTORE PUSH1 0x20 DUP5 ADD SWAP4 POP POP PUSH1 0x20 DUP2 ADD SWAP1 POP PUSH2 0xF1B JUMP JUMPDEST POP POP POP SWAP4 SWAP3 POP POP POP JUMP JUMPDEST PUSH1 0x0 DUP3 PUSH1 0x1F DUP4 ADD SLT PUSH2 0xF61 JUMPI PUSH2 0xF60 PUSH2 0xE21 JUMP JUMPDEST JUMPDEST DUP2 CALLDATALOAD PUSH2 0xF71 DUP5 DUP3 PUSH1 0x20 DUP7 ADD PUSH2 0xEE3 JUMP JUMPDEST SWAP2 POP POP SWAP3 SWAP2 POP POP JUMP JUMPDEST PUSH1 0x0 PUSH8 0xFFFFFFFFFFFFFFFF DUP3 GT ISZERO PUSH2 0xF95 JUMPI PUSH2 0xF94 PUSH2 0xE37 JUMP JUMPDEST JUMPDEST PUSH1 0x20 DUP3 MUL SWAP1 POP PUSH1 0x20 DUP2 ADD SWAP1 POP SWAP2 SWAP1 POP JUMP JUMPDEST PUSH1 0x0 DUP2 SWAP1 POP SWAP2 SWAP1 POP JUMP JUMPDEST PUSH2 0xFB9 DUP2 PUSH2 0xFA6 JUMP JUMPDEST DUP2 EQ PUSH2 0xFC4 JUMPI PUSH1 0x0 DUP1 REVERT JUMPDEST POP JUMP JUMPDEST PUSH1 0x0 DUP2 CALLDATALOAD SWAP1 POP PUSH2 0xFD6 DUP2 PUSH2 0xFB0 JUMP JUMPDEST SWAP3 SWAP2 POP POP JUMP JUMPDEST PUSH1 0x0 PUSH2 0xFEF PUSH2 0xFEA DUP5 PUSH2 0xF7A JUMP JUMPDEST PUSH2 0xE97 JUMP JUMPDEST SWAP1 POP DUP1 DUP4 DUP3 MSTORE PUSH1 0x20 DUP3 ADD SWAP1 POP PUSH1 0x20 DUP5 MUL DUP4 ADD DUP6 DUP2 GT ISZERO PUSH2 0x1012 JUMPI PUSH2 0x1011 PUSH2 0xEDE JUMP JUMPDEST JUMPDEST DUP4 JUMPDEST DUP2 DUP2 LT ISZERO PUSH2 0x103B JUMPI DUP1 PUSH2 0x1027 DUP9 DUP3 PUSH2 0xFC7 JUMP JUMPDEST DUP5 MSTORE PUSH1 0x20 DUP5 ADD SWAP4 POP POP PUSH1 0x20 DUP2 ADD SWAP1 POP PUSH2 0x1014 JUMP JUMPDEST POP POP POP SWAP4 SWAP3 POP POP POP JUMP JUMPDEST PUSH1 0x0 DUP3 PUSH1 0x1F DUP4 ADD SLT PUSH2 0x105A JUMPI PUSH2 0x1059 PUSH2 0xE21 JUMP JUMPDEST JUMPDEST DUP2 CALLDATALOAD PUSH2 0x106A DUP5 DUP3 PUSH1 0x20 DUP7 ADD PUSH2 0xFDC JUMP JUMPDEST SWAP2 POP POP SWAP3 SWAP2 POP POP JUMP JUMPDEST PUSH1 0x0 DUP1 PUSH1 0x0 PUSH1 0x60 DUP5 DUP7 SUB SLT ISZERO PUSH2 0x108C JUMPI PUSH2 0x108B PUSH2 0xDB9 JUMP JUMPDEST JUMPDEST PUSH1 0x0 PUSH2 0x109A DUP7 DUP3 DUP8 ADD PUSH2 0xE0C JUMP JUMPDEST SWAP4 POP POP PUSH1 0x20 DUP5 ADD CALLDATALOAD PUSH8 0xFFFFFFFFFFFFFFFF DUP2 GT ISZERO PUSH2 0x10BB JUMPI PUSH2 0x10BA PUSH2 0xDBE JUMP JUMPDEST JUMPDEST PUSH2 0x10C7 DUP7 DUP3 DUP8 ADD PUSH2 0xF4C JUMP JUMPDEST SWAP3 POP POP PUSH1 0x40 DUP5 ADD CALLDATALOAD PUSH8 0xFFFFFFFFFFFFFFFF DUP2 GT ISZERO PUSH2 0x10E8 JUMPI PUSH2 0x10E7 PUSH2 0xDBE JUMP JUMPDEST JUMPDEST PUSH2 0x10F4 DUP7 DUP3 DUP8 ADD PUSH2 0x1045 JUMP JUMPDEST SWAP2 POP POP SWAP3 POP SWAP3 POP SWAP3 JUMP JUMPDEST PUSH1 0x0 DUP1 PUSH1 0x0 DUP1 PUSH1 0x80 DUP6 DUP8 SUB SLT ISZERO PUSH2 0x1118 JUMPI PUSH2 0x1117 PUSH2 0xDB9 JUMP JUMPDEST JUMPDEST PUSH1 0x0 PUSH2 0x1126 DUP8 DUP3 DUP9 ADD PUSH2 0xE0C JUMP JUMPDEST SWAP5 POP POP PUSH1 0x20 DUP6 ADD CALLDATALOAD PUSH8 0xFFFFFFFFFFFFFFFF DUP2 GT ISZERO PUSH2 0x1147 JUMPI PUSH2 0x1146 PUSH2 0xDBE JUMP JUMPDEST JUMPDEST PUSH2 0x1153 DUP8 DUP3 DUP9 ADD PUSH2 0xF4C JUMP JUMPDEST SWAP4 POP POP PUSH1 0x40 DUP6 ADD CALLDATALOAD PUSH8 0xFFFFFFFFFFFFFFFF DUP2 GT ISZERO PUSH2 0x1174 JUMPI PUSH2 0x1173 PUSH2 0xDBE JUMP JUMPDEST JUMPDEST PUSH2 0x1180 DUP8 DUP3 DUP9 ADD PUSH2 0x1045 JUMP JUMPDEST SWAP3 POP POP PUSH1 0x60 PUSH2 0x1191 DUP8 DUP3 DUP9 ADD PUSH2 0xFC7 JUMP JUMPDEST SWAP2 POP POP SWAP3 SWAP6 SWAP2 SWAP5 POP SWAP3 POP JUMP JUMPDEST PUSH1 0x0 DUP1 PUSH1 0x0 DUP1 PUSH1 0x0 DUP1 PUSH1 0xC0 DUP8 DUP10 SUB SLT ISZERO PUSH2 0x11BA JUMPI PUSH2 0x11B9 PUSH2 0xDB9 JUMP JUMPDEST JUMPDEST PUSH1 0x0 PUSH2 0x11C8 DUP10 DUP3 DUP11 ADD PUSH2 0xE0C JUMP JUMPDEST SWAP7 POP POP PUSH1 0x20 DUP8 ADD CALLDATALOAD PUSH8 0xFFFFFFFFFFFFFFFF DUP2 GT ISZERO PUSH2 0x11E9 JUMPI PUSH2 0x11E8 PUSH2 0xDBE JUMP JUMPDEST JUMPDEST PUSH2 0x11F5 DUP10 DUP3 DUP11 ADD PUSH2 0xF4C JUMP JUMPDEST SWAP6 POP POP PUSH1 0x40 DUP8 ADD CALLDATALOAD PUSH8 0xFFFFFFFFFFFFFFFF DUP2 GT ISZERO PUSH2 0x1216 JUMPI PUSH2 0x1215 PUSH2 0xDBE JUMP JUMPDEST JUMPDEST PUSH2 0x1222 DUP10 DUP3 DUP11 ADD PUSH2 0x1045 JUMP JUMPDEST SWAP5 POP POP PUSH1 0x60 PUSH2 0x1233 DUP10 DUP3 DUP11 ADD PUSH2 0xFC7 JUMP JUMPDEST SWAP4 POP POP PUSH1 0x80 PUSH2 0x1244 DUP10 DUP3 DUP11 ADD PUSH2 0xFC7 JUMP JUMPDEST SWAP3 POP POP PUSH1 0xA0 PUSH2 0x1255 DUP10 DUP3 DUP11 ADD PUSH2 0xFC7 JUMP JUMPDEST SWAP2 POP POP SWAP3 SWAP6 POP SWAP3 SWAP6 POP SWAP3 SWAP6 JUMP JUMPDEST PUSH1 0x0 DUP3 DUP3 MSTORE PUSH1 0x20 DUP3 ADD SWAP1 POP SWAP3 SWAP2 POP POP JUMP JUMPDEST PUSH32 0x4D69736D61746368656420726563697069656E747320616E6420616D6F756E74 PUSH1 0x0 DUP3 ADD MSTORE PUSH32 0x7300000000000000000000000000000000000000000000000000000000000000 PUSH1 0x20 DUP3 ADD MSTORE POP JUMP JUMPDEST PUSH1 0x0 PUSH2 0x12CF PUSH1 0x21 DUP4 PUSH2 0x1262 JUMP JUMPDEST SWAP2 POP PUSH2 0x12DA DUP3 PUSH2 0x1273 JUMP JUMPDEST PUSH1 0x40 DUP3 ADD SWAP1 POP SWAP2 SWAP1 POP JUMP JUMPDEST PUSH1 0x0 PUSH1 0x20 DUP3 ADD SWAP1 POP DUP2 DUP2 SUB PUSH1 0x0 DUP4 ADD MSTORE PUSH2 0x12FE DUP2 PUSH2 0x12C2 JUMP JUMPDEST SWAP1 POP SWAP2 SWAP1 POP JUMP JUMPDEST PUSH32 0x4E487B7100000000000000000000000000000000000000000000000000000000 PUSH1 0x0 MSTORE PUSH1 0x32 PUSH1 0x4 MSTORE PUSH1 0x24 PUSH1 0x0 REVERT JUMPDEST PUSH2 0x133D DUP2 PUSH2 0xDE3 JUMP JUMPDEST DUP3 MSTORE POP POP JUMP JUMPDEST PUSH2 0x134C DUP2 PUSH2 0xFA6 JUMP JUMPDEST DUP3 MSTORE POP POP JUMP JUMPDEST PUSH1 0x0 PUSH1 0x40 DUP3 ADD SWAP1 POP PUSH2 0x1367 PUSH1 0x0 DUP4 ADD DUP6 PUSH2 0x1334 JUMP JUMPDEST PUSH2 0x1374 PUSH1 0x20 DUP4 ADD DUP5 PUSH2 0x1343 JUMP JUMPDEST SWAP4 SWAP3 POP POP POP JUMP JUMPDEST PUSH1 0x0 DUP2 ISZERO ISZERO SWAP1 POP SWAP2 SWAP1 POP JUMP JUMPDEST PUSH2 0x1390 DUP2 PUSH2 0x137B JUMP JUMPDEST DUP2 EQ PUSH2 0x139B JUMPI PUSH1 0x0 DUP1 REVERT JUMPDEST POP JUMP JUMPDEST PUSH1 0x0 DUP2 MLOAD SWAP1 POP PUSH2 0x13AD DUP2 PUSH2 0x1387 JUMP JUMPDEST SWAP3 SWAP2 POP POP JUMP JUMPDEST PUSH1 0x0 PUSH1 0x20 DUP3 DUP5 SUB SLT ISZERO PUSH2 0x13C9 JUMPI PUSH2 0x13C8 PUSH2 0xDB9 JUMP JUMPDEST JUMPDEST PUSH1 0x0 PUSH2 0x13D7 DUP5 DUP3 DUP6 ADD PUSH2 0x139E JUMP JUMPDEST SWAP2 POP POP SWAP3 SWAP2 POP POP JUMP JUMPDEST PUSH32 0x546F6B656E207472616E73666572206661696C65640000000000000000000000 PUSH1 0x0 DUP3 ADD MSTORE POP JUMP JUMPDEST PUSH1 0x0 PUSH2 0x1416 PUSH1 0x15 DUP4 PUSH2 0x1262 JUMP JUMPDEST SWAP2 POP PUSH2 0x1421 DUP3 PUSH2 0x13E0 JUMP JUMPDEST PUSH1 0x20 DUP3 ADD SWAP1 POP SWAP2 SWAP1 POP JUMP JUMPDEST PUSH1 0x0 PUSH1 0x20 DUP3 ADD SWAP1 POP DUP2 DUP2 SUB PUSH1 0x0 DUP4 ADD MSTORE PUSH2 0x1445 DUP2 PUSH2 0x1409 JUMP JUMPDEST SWAP1 POP SWAP2 SWAP1 POP JUMP JUMPDEST PUSH1 0x0 PUSH1 0x20 DUP3 ADD SWAP1 POP PUSH2 0x1461 PUSH1 0x0 DUP4 ADD DUP5 PUSH2 0x1343 JUMP JUMPDEST SWAP3 SWAP2 POP POP JUMP JUMPDEST PUSH32 0x4E487B7100000000000000000000000000000000000000000000000000000000 PUSH1 0x0 MSTORE PUSH1 0x11 PUSH1 0x4 MSTORE PUSH1 0x24 PUSH1 0x0 REVERT JUMPDEST PUSH1 0x0 PUSH2 0x14A1 DUP3 PUSH2 0xFA6 JUMP JUMPDEST SWAP2 POP PUSH32 0xFFFFFFFFFFFFFFFFFFFFFFFFFFFFFFFFFFFFFFFFFFFFFFFFFFFFFFFFFFFFFFFF DUP3 SUB PUSH2 0x14D3 JUMPI PUSH2 0x14D2 PUSH2 0x1467 JUMP JUMPDEST JUMPDEST PUSH1 0x1 DUP3 ADD SWAP1 POP SWAP2 SWAP1 POP JUMP JUMPDEST PUSH32 0x4769766520696E70757473206163636F7264696E676C79210000000000000000 PUSH1 0x0 DUP3 ADD MSTORE POP JUMP JUMPDEST PUSH1 0x0 PUSH2 0x1514 PUSH1 0x18 DUP4 PUSH2 0x1262 JUMP JUMPDEST SWAP2 POP PUSH2 0x151F DUP3 PUSH2 0x14DE JUMP JUMPDEST PUSH1 0x20 DUP3 ADD SWAP1 POP SWAP2 SWAP1 POP JUMP JUMPDEST PUSH1 0x0 PUSH1 0x20 DUP3 ADD SWAP1 POP DUP2 DUP2 SUB PUSH1 0x0 DUP4 ADD MSTORE PUSH2 0x1543 DUP2 PUSH2 0x1507 JUMP JUMPDEST SWAP1 POP SWAP2 SWAP1 POP JUMP JUMPDEST PUSH1 0x0 PUSH2 0x1555 DUP3 PUSH2 0xFA6 JUMP JUMPDEST SWAP2 POP PUSH2 0x1560 DUP4 PUSH2 0xFA6 JUMP JUMPDEST SWAP3 POP DUP3 DUP3 ADD SWAP1 POP DUP1 DUP3 GT ISZERO PUSH2 0x1578 JUMPI PUSH2 0x1577 PUSH2 0x1467 JUMP JUMPDEST JUMPDEST SWAP3 SWAP2 POP POP JUMP JUMPDEST PUSH1 0x0 PUSH1 0x60 DUP3 ADD SWAP1 POP PUSH2 0x1593 PUSH1 0x0 DUP4 ADD DUP7 PUSH2 0x1334 JUMP JUMPDEST PUSH2 0x15A0 PUSH1 0x20 DUP4 ADD DUP6 PUSH2 0x1334 JUMP JUMPDEST PUSH2 0x15AD PUSH1 0x40 DUP4 ADD DUP5 PUSH2 0x1343 JUMP JUMPDEST SWAP5 SWAP4 POP POP POP POP JUMP JUMPDEST PUSH32 0x546F6B656E207472616E73666572206661696C65642100000000000000000000 PUSH1 0x0 DUP3 ADD MSTORE POP JUMP JUMPDEST PUSH1 0x0 PUSH2 0x15EB PUSH1 0x16 DUP4 PUSH2 0x1262 JUMP JUMPDEST SWAP2 POP PUSH2 0x15F6 DUP3 PUSH2 0x15B5 JUMP JUMPDEST PUSH1 0x20 DUP3 ADD SWAP1 POP SWAP2 SWAP1 POP JUMP JUMPDEST PUSH1 0x0 PUSH1 0x20 DUP3 ADD SWAP1 POP DUP2 DUP2 SUB PUSH1 0x0 DUP4 ADD MSTORE PUSH2 0x161A DUP2 PUSH2 0x15DE JUMP JUMPDEST SWAP1 POP SWAP2 SWAP1 POP JUMP JUMPDEST PUSH1 0x0 DUP2 MLOAD SWAP1 POP SWAP2 SWAP1 POP JUMP JUMPDEST PUSH1 0x0 DUP3 DUP3 MSTORE PUSH1 0x20 DUP3 ADD SWAP1 POP SWAP3 SWAP2 POP POP JUMP JUMPDEST PUSH1 0x0 DUP2 SWAP1 POP PUSH1 0x20 DUP3 ADD SWAP1 POP SWAP2 SWAP1 POP JUMP JUMPDEST PUSH2 0x1656 DUP2 PUSH2 0xDE3 JUMP JUMPDEST DUP3 MSTORE POP POP JUMP JUMPDEST PUSH1 0x0 PUSH2 0x1668 DUP4 DUP4 PUSH2 0x164D JUMP JUMPDEST PUSH1 0x20 DUP4 ADD SWAP1 POP SWAP3 SWAP2 POP POP JUMP JUMPDEST PUSH1 0x0 PUSH1 0x20 DUP3 ADD SWAP1 POP SWAP2 SWAP1 POP JUMP JUMPDEST PUSH1 0x0 PUSH2 0x168C DUP3 PUSH2 0x1621 JUMP JUMPDEST PUSH2 0x1696 DUP2 DUP6 PUSH2 0x162C JUMP JUMPDEST SWAP4 POP PUSH2 0x16A1 DUP4 PUSH2 0x163D JUMP JUMPDEST DUP1 PUSH1 0x0 JUMPDEST DUP4 DUP2 LT ISZERO PUSH2 0x16D2 JUMPI DUP2 MLOAD PUSH2 0x16B9 DUP9 DUP3 PUSH2 0x165C JUMP JUMPDEST SWAP8 POP PUSH2 0x16C4 DUP4 PUSH2 0x1674 JUMP JUMPDEST SWAP3 POP POP PUSH1 0x1 DUP2 ADD SWAP1 POP PUSH2 0x16A5 JUMP JUMPDEST POP DUP6 SWAP4 POP POP POP POP SWAP3 SWAP2 POP POP JUMP JUMPDEST PUSH1 0x0 DUP2 MLOAD SWAP1 POP SWAP2 SWAP1 POP JUMP JUMPDEST PUSH1 0x0 DUP3 DUP3 MSTORE PUSH1 0x20 DUP3 ADD SWAP1 POP SWAP3 SWAP2 POP POP JUMP JUMPDEST PUSH1 0x0 DUP2 SWAP1 POP PUSH1 0x20 DUP3 ADD SWAP1 POP SWAP2 SWAP1 POP JUMP JUMPDEST PUSH2 0x1714 DUP2 PUSH2 0xFA6 JUMP JUMPDEST DUP3 MSTORE POP POP JUMP JUMPDEST PUSH1 0x0 PUSH2 0x1726 DUP4 DUP4 PUSH2 0x170B JUMP JUMPDEST PUSH1 0x20 DUP4 ADD SWAP1 POP SWAP3 SWAP2 POP POP JUMP JUMPDEST PUSH1 0x0 PUSH1 0x20 DUP3 ADD SWAP1 POP SWAP2 SWAP1 POP JUMP JUMPDEST PUSH1 0x0 PUSH2 0x174A DUP3 PUSH2 0x16DF JUMP JUMPDEST PUSH2 0x1754 DUP2 DUP6 PUSH2 0x16EA JUMP JUMPDEST SWAP4 POP PUSH2 0x175F DUP4 PUSH2 0x16FB JUMP JUMPDEST DUP1 PUSH1 0x0 JUMPDEST DUP4 DUP2 LT ISZERO PUSH2 0x1790 JUMPI DUP2 MLOAD PUSH2 0x1777 DUP9 DUP3 PUSH2 0x171A JUMP JUMPDEST SWAP8 POP PUSH2 0x1782 DUP4 PUSH2 0x1732 JUMP JUMPDEST SWAP3 POP POP PUSH1 0x1 DUP2 ADD SWAP1 POP PUSH2 0x1763 JUMP JUMPDEST POP DUP6 SWAP4 POP POP POP POP SWAP3 SWAP2 POP POP JUMP JUMPDEST PUSH1 0x0 PUSH1 0x60 DUP3 ADD SWAP1 POP PUSH2 0x17B2 PUSH1 0x0 DUP4 ADD DUP7 PUSH2 0x1334 JUMP JUMPDEST DUP2 DUP2 SUB PUSH1 0x20 DUP4 ADD MSTORE PUSH2 0x17C4 DUP2 DUP6 PUSH2 0x1681 JUMP JUMPDEST SWAP1 POP DUP2 DUP2 SUB PUSH1 0x40 DUP4 ADD MSTORE PUSH2 0x17D8 DUP2 DUP5 PUSH2 0x173F JUMP JUMPDEST SWAP1 POP SWAP5 SWAP4 POP POP POP POP JUMP JUMPDEST PUSH1 0x0 DUP2 SWAP1 POP SWAP2 SWAP1 POP JUMP JUMPDEST PUSH1 0x0 DUP2 SWAP1 POP SWAP2 SWAP1 POP JUMP JUMPDEST PUSH1 0x0 PUSH2 0x1811 PUSH2 0x180C PUSH2 0x1807 DUP5 PUSH2 0x17E2 JUMP JUMPDEST PUSH2 0x17EC JUMP JUMPDEST PUSH2 0xFA6 JUMP JUMPDEST SWAP1 POP SWAP2 SWAP1 POP JUMP JUMPDEST PUSH2 0x1821 DUP2 PUSH2 0x17F6 JUMP JUMPDEST DUP3 MSTORE POP POP JUMP JUMPDEST PUSH1 0x0 DUP2 SWAP1 POP SWAP2 SWAP1 POP JUMP JUMPDEST PUSH1 0x0 PUSH2 0x184C PUSH2 0x1847 PUSH2 0x1842 DUP5 PUSH2 0x1827 JUMP JUMPDEST PUSH2 0x17EC JUMP JUMPDEST PUSH2 0xFA6 JUMP JUMPDEST SWAP1 POP SWAP2 SWAP1 POP JUMP JUMPDEST PUSH2 0x185C DUP2 PUSH2 0x1831 JUMP JUMPDEST DUP3 MSTORE POP POP JUMP JUMPDEST PUSH1 0x0 DUP2 SWAP1 POP SWAP2 SWAP1 POP JUMP JUMPDEST PUSH1 0x0 PUSH2 0x1887 PUSH2 0x1882 PUSH2 0x187D DUP5 PUSH2 0x1862 JUMP JUMPDEST PUSH2 0x17EC JUMP JUMPDEST PUSH2 0xFA6 JUMP JUMPDEST SWAP1 POP SWAP2 SWAP1 POP JUMP JUMPDEST PUSH2 0x1897 DUP2 PUSH2 0x186C JUMP JUMPDEST DUP3 MSTORE POP POP JUMP JUMPDEST PUSH1 0x0 DUP2 MLOAD SWAP1 POP SWAP2 SWAP1 POP JUMP JUMPDEST PUSH1 0x0 DUP3 DUP3 MSTORE PUSH1 0x20 DUP3 ADD SWAP1 POP SWAP3 SWAP2 POP POP JUMP JUMPDEST PUSH1 0x0 JUMPDEST DUP4 DUP2 LT ISZERO PUSH2 0x18D7 JUMPI DUP1 DUP3 ADD MLOAD DUP2 DUP5 ADD MSTORE PUSH1 0x20 DUP2 ADD SWAP1 POP PUSH2 0x18BC JUMP JUMPDEST PUSH1 0x0 DUP5 DUP5 ADD MSTORE POP POP POP POP JUMP JUMPDEST PUSH1 0x0 PUSH2 0x18EE DUP3 PUSH2 0x189D JUMP JUMPDEST PUSH2 0x18F8 DUP2 DUP6 PUSH2 0x18A8 JUMP JUMPDEST SWAP4 POP PUSH2 0x1908 DUP2 DUP6 PUSH1 0x20 DUP7 ADD PUSH2 0x18B9 JUMP JUMPDEST PUSH2 0x1911 DUP2 PUSH2 0xE26 JUMP JUMPDEST DUP5 ADD SWAP2 POP POP SWAP3 SWAP2 POP POP JUMP JUMPDEST PUSH1 0x0 PUSH1 0xC0 DUP3 ADD SWAP1 POP PUSH2 0x1931 PUSH1 0x0 DUP4 ADD DUP10 PUSH2 0x1334 JUMP JUMPDEST PUSH2 0x193E PUSH1 0x20 DUP4 ADD DUP9 PUSH2 0x1818 JUMP JUMPDEST PUSH2 0x194B PUSH1 0x40 DUP4 ADD DUP8 PUSH2 0x1853 JUMP JUMPDEST PUSH2 0x1958 PUSH1 0x60 DUP4 ADD DUP7 PUSH2 0x188E JUMP JUMPDEST PUSH2 0x1965 PUSH1 0x80 DUP4 ADD DUP6 PUSH2 0x1343 JUMP JUMPDEST DUP2 DUP2 SUB PUSH1 0xA0 DUP4 ADD MSTORE PUSH2 0x1977 DUP2 DUP5 PUSH2 0x18E3 JUMP JUMPDEST SWAP1 POP SWAP8 SWAP7 POP POP POP POP POP POP POP JUMP JUMPDEST PUSH1 0x0 DUP1 REVERT JUMPDEST PUSH1 0x0 PUSH8 0xFFFFFFFFFFFFFFFF DUP3 GT ISZERO PUSH2 0x19A4 JUMPI PUSH2 0x19A3 PUSH2 0xE37 JUMP JUMPDEST JUMPDEST PUSH2 0x19AD DUP3 PUSH2 0xE26 JUMP JUMPDEST SWAP1 POP PUSH1 0x20 DUP2 ADD SWAP1 POP SWAP2 SWAP1 POP JUMP JUMPDEST PUSH1 0x0 PUSH2 0x19CD PUSH2 0x19C8 DUP5 PUSH2 0x1989 JUMP JUMPDEST PUSH2 0xE97 JUMP JUMPDEST SWAP1 POP DUP3 DUP2 MSTORE PUSH1 0x20 DUP2 ADD DUP5 DUP5 DUP5 ADD GT ISZERO PUSH2 0x19E9 JUMPI PUSH2 0x19E8 PUSH2 0x1984 JUMP JUMPDEST JUMPDEST PUSH2 0x19F4 DUP5 DUP3 DUP6 PUSH2 0x18B9 JUMP JUMPDEST POP SWAP4 SWAP3 POP POP POP JUMP JUMPDEST PUSH1 0x0 DUP3 PUSH1 0x1F DUP4 ADD SLT PUSH2 0x1A11 JUMPI PUSH2 0x1A10 PUSH2 0xE21 JUMP JUMPDEST JUMPDEST DUP2 MLOAD PUSH2 0x1A21 DUP5 DUP3 PUSH1 0x20 DUP7 ADD PUSH2 0x19BA JUMP JUMPDEST SWAP2 POP POP SWAP3 SWAP2 POP POP JUMP JUMPDEST PUSH1 0x0 PUSH1 0x20 DUP3 DUP5 SUB SLT ISZERO PUSH2 0x1A40 JUMPI PUSH2 0x1A3F PUSH2 0xDB9 JUMP JUMPDEST JUMPDEST PUSH1 0x0 DUP3 ADD MLOAD PUSH8 0xFFFFFFFFFFFFFFFF DUP2 GT ISZERO PUSH2 0x1A5E JUMPI PUSH2 0x1A5D PUSH2 0xDBE JUMP JUMPDEST JUMPDEST PUSH2 0x1A6A DUP5 DUP3 DUP6 ADD PUSH2 0x19FC JUMP JUMPDEST SWAP2 POP POP SWAP3 SWAP2 POP POP JUMP JUMPDEST PUSH1 0x0 DUP2 SWAP1 POP SWAP3 SWAP2 POP POP JUMP JUMPDEST PUSH1 0x0 PUSH2 0x1A89 DUP3 PUSH2 0x189D JUMP JUMPDEST PUSH2 0x1A93 DUP2 DUP6 PUSH2 0x1A73 JUMP JUMPDEST SWAP4 POP PUSH2 0x1AA3 DUP2 DUP6 PUSH1 0x20 DUP7 ADD PUSH2 0x18B9 JUMP JUMPDEST DUP1 DUP5 ADD SWAP2 POP POP SWAP3 SWAP2 POP POP JUMP JUMPDEST PUSH1 0x0 PUSH2 0x1ABB DUP3 DUP5 PUSH2 0x1A7E JUMP JUMPDEST SWAP2 POP DUP2 SWAP1 POP SWAP3 SWAP2 POP POP JUMP JUMPDEST PUSH1 0x0 PUSH1 0x60 DUP3 ADD SWAP1 POP DUP2 DUP2 SUB PUSH1 0x0 DUP4 ADD MSTORE PUSH2 0x1AE0 DUP2 DUP7 PUSH2 0x1681 JUMP JUMPDEST SWAP1 POP DUP2 DUP2 SUB PUSH1 0x20 DUP4 ADD MSTORE PUSH2 0x1AF4 DUP2 DUP6 PUSH2 0x173F JUMP JUMPDEST SWAP1 POP PUSH2 0x1B03 PUSH1 0x40 DUP4 ADD DUP5 PUSH2 0x1343 JUMP JUMPDEST SWAP5 SWAP4 POP POP POP POP JUMP JUMPDEST PUSH1 0x0 PUSH1 0x20 DUP3 ADD SWAP1 POP PUSH2 0x1B20 PUSH1 0x0 DUP4 ADD DUP5 PUSH2 0x1334 JUMP JUMPDEST SWAP3 SWAP2 POP POP JUMP JUMPDEST PUSH1 0x0 DUP2 MLOAD SWAP1 POP PUSH2 0x1B35 DUP2 PUSH2 0xFB0 JUMP JUMPDEST SWAP3 SWAP2 POP POP JUMP JUMPDEST PUSH1 0x0 PUSH1 0x20 DUP3 DUP5 SUB SLT ISZERO PUSH2 0x1B51 JUMPI PUSH2 0x1B50 PUSH2 0xDB9 JUMP JUMPDEST JUMPDEST PUSH1 0x0 PUSH2 0x1B5F DUP5 DUP3 DUP6 ADD PUSH2 0x1B26 JUMP JUMPDEST SWAP2 POP POP SWAP3 SWAP2 POP POP JUMP JUMPDEST PUSH1 0x0 PUSH2 0x1B73 DUP3 PUSH2 0xFA6 JUMP JUMPDEST SWAP2 POP PUSH2 0x1B7E DUP4 PUSH2 0xFA6 JUMP JUMPDEST SWAP3 POP DUP3 DUP3 MUL PUSH2 0x1B8C DUP2 PUSH2 0xFA6 JUMP JUMPDEST SWAP2 POP DUP3 DUP3 DIV DUP5 EQ DUP4 ISZERO OR PUSH2 0x1BA3 JUMPI PUSH2 0x1BA2 PUSH2 0x1467 JUMP JUMPDEST JUMPDEST POP SWAP3 SWAP2 POP POP JUMP JUMPDEST PUSH32 0x4E487B7100000000000000000000000000000000000000000000000000000000 PUSH1 0x0 MSTORE PUSH1 0x12 PUSH1 0x4 MSTORE PUSH1 0x24 PUSH1 0x0 REVERT JUMPDEST PUSH1 0x0 PUSH2 0x1BE4 DUP3 PUSH2 0xFA6 JUMP JUMPDEST SWAP2 POP PUSH2 0x1BEF DUP4 PUSH2 0xFA6 JUMP JUMPDEST SWAP3 POP DUP3 PUSH2 0x1BFF JUMPI PUSH2 0x1BFE PUSH2 0x1BAA JUMP JUMPDEST JUMPDEST DUP3 DUP3 DIV SWAP1 POP SWAP3 SWAP2 POP POP JUMP JUMPDEST PUSH32 0x546F6B656E207472616E7366657246726F6D206661696C656421200000000000 PUSH1 0x0 DUP3 ADD MSTORE POP JUMP JUMPDEST PUSH1 0x0 PUSH2 0x1C40 PUSH1 0x1B DUP4 PUSH2 0x1262 JUMP JUMPDEST SWAP2 POP PUSH2 0x1C4B DUP3 PUSH2 0x1C0A JUMP JUMPDEST PUSH1 0x20 DUP3 ADD SWAP1 POP SWAP2 SWAP1 POP JUMP JUMPDEST PUSH1 0x0 PUSH1 0x20 DUP3 ADD SWAP1 POP DUP2 DUP2 SUB PUSH1 0x0 DUP4 ADD MSTORE PUSH2 0x1C6F DUP2 PUSH2 0x1C33 JUMP JUMPDEST SWAP1 POP SWAP2 SWAP1 POP JUMP JUMPDEST PUSH1 0x0 PUSH2 0x1C81 DUP3 PUSH2 0xFA6 JUMP JUMPDEST SWAP2 POP PUSH2 0x1C8C DUP4 PUSH2 0xFA6 JUMP JUMPDEST SWAP3 POP DUP3 DUP3 SUB SWAP1 POP DUP2 DUP2 GT ISZERO PUSH2 0x1CA4 JUMPI PUSH2 0x1CA3 PUSH2 0x1467 JUMP JUMPDEST JUMPDEST SWAP3 SWAP2 POP POP JUMP JUMPDEST PUSH1 0x0 PUSH1 0xC0 DUP3 ADD SWAP1 POP PUSH2 0x1CBF PUSH1 0x0 DUP4 ADD DUP10 PUSH2 0x1334 JUMP JUMPDEST DUP2 DUP2 SUB PUSH1 0x20 DUP4 ADD MSTORE PUSH2 0x1CD1 DUP2 DUP9 PUSH2 0x1681 JUMP JUMPDEST SWAP1 POP DUP2 DUP2 SUB PUSH1 0x40 DUP4 ADD MSTORE PUSH2 0x1CE5 DUP2 DUP8 PUSH2 0x173F JUMP JUMPDEST SWAP1 POP PUSH2 0x1CF4 PUSH1 0x60 DUP4 ADD DUP7 PUSH2 0x1343 JUMP JUMPDEST PUSH2 0x1D01 PUSH1 0x80 DUP4 ADD DUP6 PUSH2 0x1343 JUMP JUMPDEST PUSH2 0x1D0E PUSH1 0xA0 DUP4 ADD DUP5 PUSH2 0x1343 JUMP JUMPDEST SWAP8 SWAP7 POP POP POP POP POP POP POP JUMP INVALID LOG2 PUSH5 0x6970667358 0x22 SLT KECCAK256 DUP1 PUSH20 0x81471BBE8453F19A6C1D72A6CC9337C730D772A3 OR ORIGIN 0xE5 LT AND 0x27 0xC1 ISZERO PUSH21 0x664736F6C63430008120033000000000000000000 "
	},
	"Assembly": ".code\n  PUSH 80\t\t\tcontract DisDrop{\\r\\n\\r\\n    c...\n  PUSH 40\t\t\tcontract DisDrop{\\r\\n\\r\\n    c...\n  MSTORE \t\t\tcontract DisDrop{\\r\\n\\r\\n    c...\n  PUSH 802\t\t\tcts/utils/Predeploy.sol\";\\r\\ni...\n  PUSH 0\t\t\tISchedule  scheduler = ISchedu...\n  DUP1 \t\t\tISchedule  scheduler = ISchedu...\n  PUSH 100\t\t\tISchedule  scheduler = ISchedu...\n  EXP \t\t\tISchedule  scheduler = ISchedu...\n  DUP2 \t\t\tISchedule  scheduler = ISchedu...\n  SLOAD \t\t\tISchedule  scheduler = ISchedu...\n  DUP2 \t\t\tISchedule  scheduler = ISchedu...\n  PUSH FFFFFFFFFFFFFFFFFFFFFFFFFFFFFFFFFFFFFFFF\t\t\tISchedule  scheduler = ISchedu...\n  MUL \t\t\tISchedule  scheduler = ISchedu...\n  NOT \t\t\tISchedule  scheduler = ISchedu...\n  AND \t\t\tISchedule  scheduler = ISchedu...\n  SWAP1 \t\t\tISchedule  scheduler = ISchedu...\n  DUP4 \t\t\tISchedule  scheduler = ISchedu...\n  PUSH FFFFFFFFFFFFFFFFFFFFFFFFFFFFFFFFFFFFFFFF\t\t\tISchedule  scheduler = ISchedu...\n  AND \t\t\tISchedule  scheduler = ISchedu...\n  MUL \t\t\tISchedule  scheduler = ISchedu...\n  OR \t\t\tISchedule  scheduler = ISchedu...\n  SWAP1 \t\t\tISchedule  scheduler = ISchedu...\n  SSTORE \t\t\tISchedule  scheduler = ISchedu...\n  POP \t\t\tISchedule  scheduler = ISchedu...\n  PUSH 801\t\t\tla-network/contracts/oracle/IO...\n  PUSH 1\t\t\tIOracle oracle = IOracle(ORACL...\n  PUSH 0\t\t\tIOracle oracle = IOracle(ORACL...\n  PUSH 100\t\t\tIOracle oracle = IOracle(ORACL...\n  EXP \t\t\tIOracle oracle = IOracle(ORACL...\n  DUP2 \t\t\tIOracle oracle = IOracle(ORACL...\n  SLOAD \t\t\tIOracle oracle = IOracle(ORACL...\n  DUP2 \t\t\tIOracle oracle = IOracle(ORACL...\n  PUSH FFFFFFFFFFFFFFFFFFFFFFFFFFFFFFFFFFFFFFFF\t\t\tIOracle oracle = IOracle(ORACL...\n  MUL \t\t\tIOracle oracle = IOracle(ORACL...\n  NOT \t\t\tIOracle oracle = IOracle(ORACL...\n  AND \t\t\tIOracle oracle = IOracle(ORACL...\n  SWAP1 \t\t\tIOracle oracle = IOracle(ORACL...\n  DUP4 \t\t\tIOracle oracle = IOracle(ORACL...\n  PUSH FFFFFFFFFFFFFFFFFFFFFFFFFFFFFFFFFFFFFFFF\t\t\tIOracle oracle = IOracle(ORACL...\n  AND \t\t\tIOracle oracle = IOracle(ORACL...\n  MUL \t\t\tIOracle oracle = IOracle(ORACL...\n  OR \t\t\tIOracle oracle = IOracle(ORACL...\n  SWAP1 \t\t\tIOracle oracle = IOracle(ORACL...\n  SSTORE \t\t\tIOracle oracle = IOracle(ORACL...\n  POP \t\t\tIOracle oracle = IOracle(ORACL...\n  PUSH #[$] 0000000000000000000000000000000000000000000000000000000000000000\t\t\tcontract DisDrop{\\r\\n\\r\\n    c...\n  DUP1 \t\t\tcontract DisDrop{\\r\\n\\r\\n    c...\n  PUSH [$] 0000000000000000000000000000000000000000000000000000000000000000\t\t\tcontract DisDrop{\\r\\n\\r\\n    c...\n  PUSH 0\t\t\tcontract DisDrop{\\r\\n\\r\\n    c...\n  CODECOPY \t\t\tcontract DisDrop{\\r\\n\\r\\n    c...\n  PUSH 0\t\t\tcontract DisDrop{\\r\\n\\r\\n    c...\n  RETURN \t\t\tcontract DisDrop{\\r\\n\\r\\n    c...\n.data\n  0:\n    .code\n      PUSH 80\t\t\tcontract DisDrop{\\r\\n\\r\\n    c...\n      PUSH 40\t\t\tcontract DisDrop{\\r\\n\\r\\n    c...\n      MSTORE \t\t\tcontract DisDrop{\\r\\n\\r\\n    c...\n      PUSH 4\t\t\tcontract DisDrop{\\r\\n\\r\\n    c...\n      CALLDATASIZE \t\t\tcontract DisDrop{\\r\\n\\r\\n    c...\n      LT \t\t\tcontract DisDrop{\\r\\n\\r\\n    c...\n      PUSH [tag] 1\t\t\tcontract DisDrop{\\r\\n\\r\\n    c...\n      JUMPI \t\t\tcontract DisDrop{\\r\\n\\r\\n    c...\n      PUSH 0\t\t\tcontract DisDrop{\\r\\n\\r\\n    c...\n      CALLDATALOAD \t\t\tcontract DisDrop{\\r\\n\\r\\n    c...\n      PUSH E0\t\t\tcontract DisDrop{\\r\\n\\r\\n    c...\n      SHR \t\t\tcontract DisDrop{\\r\\n\\r\\n    c...\n      DUP1 \t\t\tcontract DisDrop{\\r\\n\\r\\n    c...\n      PUSH 46BA5FED\t\t\tcontract DisDrop{\\r\\n\\r\\n    c...\n      EQ \t\t\tcontract DisDrop{\\r\\n\\r\\n    c...\n      PUSH [tag] 3\t\t\tcontract DisDrop{\\r\\n\\r\\n    c...\n      JUMPI \t\t\tcontract DisDrop{\\r\\n\\r\\n    c...\n      DUP1 \t\t\tcontract DisDrop{\\r\\n\\r\\n    c...\n      PUSH 5B93F507\t\t\tcontract DisDrop{\\r\\n\\r\\n    c...\n      EQ \t\t\tcontract DisDrop{\\r\\n\\r\\n    c...\n      PUSH [tag] 4\t\t\tcontract DisDrop{\\r\\n\\r\\n    c...\n      JUMPI \t\t\tcontract DisDrop{\\r\\n\\r\\n    c...\n      DUP1 \t\t\tcontract DisDrop{\\r\\n\\r\\n    c...\n      PUSH E826271A\t\t\tcontract DisDrop{\\r\\n\\r\\n    c...\n      EQ \t\t\tcontract DisDrop{\\r\\n\\r\\n    c...\n      PUSH [tag] 5\t\t\tcontract DisDrop{\\r\\n\\r\\n    c...\n      JUMPI \t\t\tcontract DisDrop{\\r\\n\\r\\n    c...\n      DUP1 \t\t\tcontract DisDrop{\\r\\n\\r\\n    c...\n      PUSH ED44B388\t\t\tcontract DisDrop{\\r\\n\\r\\n    c...\n      EQ \t\t\tcontract DisDrop{\\r\\n\\r\\n    c...\n      PUSH [tag] 6\t\t\tcontract DisDrop{\\r\\n\\r\\n    c...\n      JUMPI \t\t\tcontract DisDrop{\\r\\n\\r\\n    c...\n      PUSH [tag] 2\t\t\tcontract DisDrop{\\r\\n\\r\\n    c...\n      JUMP \t\t\tcontract DisDrop{\\r\\n\\r\\n    c...\n    tag 1\t\t\tcontract DisDrop{\\r\\n\\r\\n    c...\n      JUMPDEST \t\t\tcontract DisDrop{\\r\\n\\r\\n    c...\n      CALLDATASIZE \t\t\tcontract DisDrop{\\r\\n\\r\\n    c...\n      PUSH [tag] 2\t\t\tcontract DisDrop{\\r\\n\\r\\n    c...\n      JUMPI \t\t\tcontract DisDrop{\\r\\n\\r\\n    c...\n      STOP \t\t\tcontract DisDrop{\\r\\n\\r\\n    c...\n    tag 2\t\t\tcontract DisDrop{\\r\\n\\r\\n    c...\n      JUMPDEST \t\t\tcontract DisDrop{\\r\\n\\r\\n    c...\n      STOP \t\t\tcontract DisDrop{\\r\\n\\r\\n    c...\n    tag 3\t\t\tfunction executeERC20BatchTran...\n      JUMPDEST \t\t\tfunction executeERC20BatchTran...\n      CALLVALUE \t\t\tfunction executeERC20BatchTran...\n      DUP1 \t\t\tfunction executeERC20BatchTran...\n      ISZERO \t\t\tfunction executeERC20BatchTran...\n      PUSH [tag] 11\t\t\tfunction executeERC20BatchTran...\n      JUMPI \t\t\tfunction executeERC20BatchTran...\n      PUSH 0\t\t\tfunction executeERC20BatchTran...\n      DUP1 \t\t\tfunction executeERC20BatchTran...\n      REVERT \t\t\tfunction executeERC20BatchTran...\n    tag 11\t\t\tfunction executeERC20BatchTran...\n      JUMPDEST \t\t\tfunction executeERC20BatchTran...\n      POP \t\t\tfunction executeERC20BatchTran...\n      PUSH [tag] 12\t\t\tfunction executeERC20BatchTran...\n      PUSH 4\t\t\tfunction executeERC20BatchTran...\n      DUP1 \t\t\tfunction executeERC20BatchTran...\n      CALLDATASIZE \t\t\tfunction executeERC20BatchTran...\n      SUB \t\t\tfunction executeERC20BatchTran...\n      DUP2 \t\t\tfunction executeERC20BatchTran...\n      ADD \t\t\tfunction executeERC20BatchTran...\n      SWAP1 \t\t\tfunction executeERC20BatchTran...\n      PUSH [tag] 13\t\t\tfunction executeERC20BatchTran...\n      SWAP2 \t\t\tfunction executeERC20BatchTran...\n      SWAP1 \t\t\tfunction executeERC20BatchTran...\n      PUSH [tag] 14\t\t\tfunction executeERC20BatchTran...\n      JUMP \t\t\tfunction executeERC20BatchTran...\n    tag 13\t\t\tfunction executeERC20BatchTran...\n      JUMPDEST \t\t\tfunction executeERC20BatchTran...\n      PUSH [tag] 15\t\t\tfunction executeERC20BatchTran...\n      JUMP \t\t\tfunction executeERC20BatchTran...\n    tag 12\t\t\tfunction executeERC20BatchTran...\n      JUMPDEST \t\t\tfunction executeERC20BatchTran...\n      STOP \t\t\tfunction executeERC20BatchTran...\n    tag 4\t\t\tfunction scheduled_dispersal(a...\n      JUMPDEST \t\t\tfunction scheduled_dispersal(a...\n      PUSH [tag] 16\t\t\tfunction scheduled_dispersal(a...\n      PUSH 4\t\t\tfunction scheduled_dispersal(a...\n      DUP1 \t\t\tfunction scheduled_dispersal(a...\n      CALLDATASIZE \t\t\tfunction scheduled_dispersal(a...\n      SUB \t\t\tfunction scheduled_dispersal(a...\n      DUP2 \t\t\tfunction scheduled_dispersal(a...\n      ADD \t\t\tfunction scheduled_dispersal(a...\n      SWAP1 \t\t\tfunction scheduled_dispersal(a...\n      PUSH [tag] 17\t\t\tfunction scheduled_dispersal(a...\n      SWAP2 \t\t\tfunction scheduled_dispersal(a...\n      SWAP1 \t\t\tfunction scheduled_dispersal(a...\n      PUSH [tag] 18\t\t\tfunction scheduled_dispersal(a...\n      JUMP \t\t\tfunction scheduled_dispersal(a...\n    tag 17\t\t\tfunction scheduled_dispersal(a...\n      JUMPDEST \t\t\tfunction scheduled_dispersal(a...\n      PUSH [tag] 19\t\t\tfunction scheduled_dispersal(a...\n      JUMP \t\t\tfunction scheduled_dispersal(a...\n    tag 16\t\t\tfunction scheduled_dispersal(a...\n      JUMPDEST \t\t\tfunction scheduled_dispersal(a...\n      STOP \t\t\tfunction scheduled_dispersal(a...\n    tag 5\t\t\tfunction priceTriggeredDispers...\n      JUMPDEST \t\t\tfunction priceTriggeredDispers...\n      PUSH [tag] 20\t\t\tfunction priceTriggeredDispers...\n      PUSH 4\t\t\tfunction priceTriggeredDispers...\n      DUP1 \t\t\tfunction priceTriggeredDispers...\n      CALLDATASIZE \t\t\tfunction priceTriggeredDispers...\n      SUB \t\t\tfunction priceTriggeredDispers...\n      DUP2 \t\t\tfunction priceTriggeredDispers...\n      ADD \t\t\tfunction priceTriggeredDispers...\n      SWAP1 \t\t\tfunction priceTriggeredDispers...\n      PUSH [tag] 21\t\t\tfunction priceTriggeredDispers...\n      SWAP2 \t\t\tfunction priceTriggeredDispers...\n      SWAP1 \t\t\tfunction priceTriggeredDispers...\n      PUSH [tag] 22\t\t\tfunction priceTriggeredDispers...\n      JUMP \t\t\tfunction priceTriggeredDispers...\n    tag 21\t\t\tfunction priceTriggeredDispers...\n      JUMPDEST \t\t\tfunction priceTriggeredDispers...\n      PUSH [tag] 23\t\t\tfunction priceTriggeredDispers...\n      JUMP \t\t\tfunction priceTriggeredDispers...\n    tag 20\t\t\tfunction priceTriggeredDispers...\n      JUMPDEST \t\t\tfunction priceTriggeredDispers...\n      STOP \t\t\tfunction priceTriggeredDispers...\n    tag 6\t\t\tfunction dispersal(address tok...\n      JUMPDEST \t\t\tfunction dispersal(address tok...\n      PUSH [tag] 24\t\t\tfunction dispersal(address tok...\n      PUSH 4\t\t\tfunction dispersal(address tok...\n      DUP1 \t\t\tfunction dispersal(address tok...\n      CALLDATASIZE \t\t\tfunction dispersal(address tok...\n      SUB \t\t\tfunction dispersal(address tok...\n      DUP2 \t\t\tfunction dispersal(address tok...\n      ADD \t\t\tfunction dispersal(address tok...\n      SWAP1 \t\t\tfunction dispersal(address tok...\n      PUSH [tag] 25\t\t\tfunction dispersal(address tok...\n      SWAP2 \t\t\tfunction dispersal(address tok...\n      SWAP1 \t\t\tfunction dispersal(address tok...\n      PUSH [tag] 14\t\t\tfunction dispersal(address tok...\n      JUMP \t\t\tfunction dispersal(address tok...\n    tag 25\t\t\tfunction dispersal(address tok...\n      JUMPDEST \t\t\tfunction dispersal(address tok...\n      PUSH [tag] 26\t\t\tfunction dispersal(address tok...\n      JUMP \t\t\tfunction dispersal(address tok...\n    tag 24\t\t\tfunction dispersal(address tok...\n      JUMPDEST \t\t\tfunction dispersal(address tok...\n      STOP \t\t\tfunction dispersal(address tok...\n    tag 15\t\t\tfunction executeERC20BatchTran...\n      JUMPDEST \t\t\tfunction executeERC20BatchTran...\n      PUSH 0\t\t\tIERC20 token\n      DUP4 \t\t\ttokenAddress\n      SWAP1 \t\t\tIERC20 token = IERC20(tokenAdd...\n      POP \t\t\tIERC20 token = IERC20(tokenAdd...\n      DUP2 \t\t\tamounts\n      MLOAD \t\t\tamounts.length\n      DUP4 \t\t\trecipients\n      MLOAD \t\t\trecipients.length\n      EQ \t\t\trecipients.length == amounts.l...\n      PUSH [tag] 28\t\t\trequire(recipients.length == a...\n      JUMPI \t\t\trequire(recipients.length == a...\n      PUSH 40\t\t\trequire(recipients.length == a...\n      MLOAD \t\t\trequire(recipients.length == a...\n      PUSH 8C379A000000000000000000000000000000000000000000000000000000000\t\t\trequire(recipients.length == a...\n      DUP2 \t\t\trequire(recipients.length == a...\n      MSTORE \t\t\trequire(recipients.length == a...\n      PUSH 4\t\t\trequire(recipients.length == a...\n      ADD \t\t\trequire(recipients.length == a...\n      PUSH [tag] 29\t\t\trequire(recipients.length == a...\n      SWAP1 \t\t\trequire(recipients.length == a...\n      PUSH [tag] 30\t\t\trequire(recipients.length == a...\n      JUMP \t\t\trequire(recipients.length == a...\n    tag 29\t\t\trequire(recipients.length == a...\n      JUMPDEST \t\t\trequire(recipients.length == a...\n      PUSH 40\t\t\trequire(recipients.length == a...\n      MLOAD \t\t\trequire(recipients.length == a...\n      DUP1 \t\t\trequire(recipients.length == a...\n      SWAP2 \t\t\trequire(recipients.length == a...\n      SUB \t\t\trequire(recipients.length == a...\n      SWAP1 \t\t\trequire(recipients.length == a...\n      REVERT \t\t\trequire(recipients.length == a...\n    tag 28\t\t\trequire(recipients.length == a...\n      JUMPDEST \t\t\trequire(recipients.length == a...\n      PUSH 0\t\t\tuint256 i\n    tag 31\t\t\tfor (uint256 i = 0; i < recipi...\n      JUMPDEST \t\t\tfor (uint256 i = 0; i < recipi...\n      DUP4 \t\t\trecipients\n      MLOAD \t\t\trecipients.length\n      DUP2 \t\t\ti\n      LT \t\t\ti < recipients.length\n      ISZERO \t\t\tfor (uint256 i = 0; i < recipi...\n      PUSH [tag] 32\t\t\tfor (uint256 i = 0; i < recipi...\n      JUMPI \t\t\tfor (uint256 i = 0; i < recipi...\n      DUP2 \t\t\ttoken\n      PUSH FFFFFFFFFFFFFFFFFFFFFFFFFFFFFFFFFFFFFFFF\t\t\ttoken.transfer\n      AND \t\t\ttoken.transfer\n      PUSH A9059CBB\t\t\ttoken.transfer\n      DUP6 \t\t\trecipients\n      DUP4 \t\t\ti\n      DUP2 \t\t\trecipients[i]\n      MLOAD \t\t\trecipients[i]\n      DUP2 \t\t\trecipients[i]\n      LT \t\t\trecipients[i]\n      PUSH [tag] 34\t\t\trecipients[i]\n      JUMPI \t\t\trecipients[i]\n      PUSH [tag] 35\t\t\trecipients[i]\n      PUSH [tag] 36\t\t\trecipients[i]\n      JUMP \t\t\trecipients[i]\n    tag 35\t\t\trecipients[i]\n      JUMPDEST \t\t\trecipients[i]\n    tag 34\t\t\trecipients[i]\n      JUMPDEST \t\t\trecipients[i]\n      PUSH 20\t\t\trecipients[i]\n      MUL \t\t\trecipients[i]\n      PUSH 20\t\t\trecipients[i]\n      ADD \t\t\trecipients[i]\n      ADD \t\t\trecipients[i]\n      MLOAD \t\t\trecipients[i]\n      DUP6 \t\t\tamounts\n      DUP5 \t\t\ti\n      DUP2 \t\t\tamounts[i]\n      MLOAD \t\t\tamounts[i]\n      DUP2 \t\t\tamounts[i]\n      LT \t\t\tamounts[i]\n      PUSH [tag] 37\t\t\tamounts[i]\n      JUMPI \t\t\tamounts[i]\n      PUSH [tag] 38\t\t\tamounts[i]\n      PUSH [tag] 36\t\t\tamounts[i]\n      JUMP \t\t\tamounts[i]\n    tag 38\t\t\tamounts[i]\n      JUMPDEST \t\t\tamounts[i]\n    tag 37\t\t\tamounts[i]\n      JUMPDEST \t\t\tamounts[i]\n      PUSH 20\t\t\tamounts[i]\n      MUL \t\t\tamounts[i]\n      PUSH 20\t\t\tamounts[i]\n      ADD \t\t\tamounts[i]\n      ADD \t\t\tamounts[i]\n      MLOAD \t\t\tamounts[i]\n      PUSH 40\t\t\ttoken.transfer(recipients[i], ...\n      MLOAD \t\t\ttoken.transfer(recipients[i], ...\n      DUP4 \t\t\ttoken.transfer(recipients[i], ...\n      PUSH FFFFFFFF\t\t\ttoken.transfer(recipients[i], ...\n      AND \t\t\ttoken.transfer(recipients[i], ...\n      PUSH E0\t\t\ttoken.transfer(recipients[i], ...\n      SHL \t\t\ttoken.transfer(recipients[i], ...\n      DUP2 \t\t\ttoken.transfer(recipients[i], ...\n      MSTORE \t\t\ttoken.transfer(recipients[i], ...\n      PUSH 4\t\t\ttoken.transfer(recipients[i], ...\n      ADD \t\t\ttoken.transfer(recipients[i], ...\n      PUSH [tag] 39\t\t\ttoken.transfer(recipients[i], ...\n      SWAP3 \t\t\ttoken.transfer(recipients[i], ...\n      SWAP2 \t\t\ttoken.transfer(recipients[i], ...\n      SWAP1 \t\t\ttoken.transfer(recipients[i], ...\n      PUSH [tag] 40\t\t\ttoken.transfer(recipients[i], ...\n      JUMP \t\t\ttoken.transfer(recipients[i], ...\n    tag 39\t\t\ttoken.transfer(recipients[i], ...\n      JUMPDEST \t\t\ttoken.transfer(recipients[i], ...\n      PUSH 20\t\t\ttoken.transfer(recipients[i], ...\n      PUSH 40\t\t\ttoken.transfer(recipients[i], ...\n      MLOAD \t\t\ttoken.transfer(recipients[i], ...\n      DUP1 \t\t\ttoken.transfer(recipients[i], ...\n      DUP4 \t\t\ttoken.transfer(recipients[i], ...\n      SUB \t\t\ttoken.transfer(recipients[i], ...\n      DUP2 \t\t\ttoken.transfer(recipients[i], ...\n      PUSH 0\t\t\ttoken.transfer(recipients[i], ...\n      DUP8 \t\t\ttoken.transfer(recipients[i], ...\n      GAS \t\t\ttoken.transfer(recipients[i], ...\n      CALL \t\t\ttoken.transfer(recipients[i], ...\n      ISZERO \t\t\ttoken.transfer(recipients[i], ...\n      DUP1 \t\t\ttoken.transfer(recipients[i], ...\n      ISZERO \t\t\ttoken.transfer(recipients[i], ...\n      PUSH [tag] 42\t\t\ttoken.transfer(recipients[i], ...\n      JUMPI \t\t\ttoken.transfer(recipients[i], ...\n      RETURNDATASIZE \t\t\ttoken.transfer(recipients[i], ...\n      PUSH 0\t\t\ttoken.transfer(recipients[i], ...\n      DUP1 \t\t\ttoken.transfer(recipients[i], ...\n      RETURNDATACOPY \t\t\ttoken.transfer(recipients[i], ...\n      RETURNDATASIZE \t\t\ttoken.transfer(recipients[i], ...\n      PUSH 0\t\t\ttoken.transfer(recipients[i], ...\n      REVERT \t\t\ttoken.transfer(recipients[i], ...\n    tag 42\t\t\ttoken.transfer(recipients[i], ...\n      JUMPDEST \t\t\ttoken.transfer(recipients[i], ...\n      POP \t\t\ttoken.transfer(recipients[i], ...\n      POP \t\t\ttoken.transfer(recipients[i], ...\n      POP \t\t\ttoken.transfer(recipients[i], ...\n      POP \t\t\ttoken.transfer(recipients[i], ...\n      PUSH 40\t\t\ttoken.transfer(recipients[i], ...\n      MLOAD \t\t\ttoken.transfer(recipients[i], ...\n      RETURNDATASIZE \t\t\ttoken.transfer(recipients[i], ...\n      PUSH 1F\t\t\ttoken.transfer(recipients[i], ...\n      NOT \t\t\ttoken.transfer(recipients[i], ...\n      PUSH 1F\t\t\ttoken.transfer(recipients[i], ...\n      DUP3 \t\t\ttoken.transfer(recipients[i], ...\n      ADD \t\t\ttoken.transfer(recipients[i], ...\n      AND \t\t\ttoken.transfer(recipients[i], ...\n      DUP3 \t\t\ttoken.transfer(recipients[i], ...\n      ADD \t\t\ttoken.transfer(recipients[i], ...\n      DUP1 \t\t\ttoken.transfer(recipients[i], ...\n      PUSH 40\t\t\ttoken.transfer(recipients[i], ...\n      MSTORE \t\t\ttoken.transfer(recipients[i], ...\n      POP \t\t\ttoken.transfer(recipients[i], ...\n      DUP2 \t\t\ttoken.transfer(recipients[i], ...\n      ADD \t\t\ttoken.transfer(recipients[i], ...\n      SWAP1 \t\t\ttoken.transfer(recipients[i], ...\n      PUSH [tag] 43\t\t\ttoken.transfer(recipients[i], ...\n      SWAP2 \t\t\ttoken.transfer(recipients[i], ...\n      SWAP1 \t\t\ttoken.transfer(recipients[i], ...\n      PUSH [tag] 44\t\t\ttoken.transfer(recipients[i], ...\n      JUMP \t\t\ttoken.transfer(recipients[i], ...\n    tag 43\t\t\ttoken.transfer(recipients[i], ...\n      JUMPDEST \t\t\ttoken.transfer(recipients[i], ...\n      PUSH [tag] 45\t\t\trequire(token.transfer(recipie...\n      JUMPI \t\t\trequire(token.transfer(recipie...\n      PUSH 40\t\t\trequire(token.transfer(recipie...\n      MLOAD \t\t\trequire(token.transfer(recipie...\n      PUSH 8C379A000000000000000000000000000000000000000000000000000000000\t\t\trequire(token.transfer(recipie...\n      DUP2 \t\t\trequire(token.transfer(recipie...\n      MSTORE \t\t\trequire(token.transfer(recipie...\n      PUSH 4\t\t\trequire(token.transfer(recipie...\n      ADD \t\t\trequire(token.transfer(recipie...\n      PUSH [tag] 46\t\t\trequire(token.transfer(recipie...\n      SWAP1 \t\t\trequire(token.transfer(recipie...\n      PUSH [tag] 47\t\t\trequire(token.transfer(recipie...\n      JUMP \t\t\trequire(token.transfer(recipie...\n    tag 46\t\t\trequire(token.transfer(recipie...\n      JUMPDEST \t\t\trequire(token.transfer(recipie...\n      PUSH 40\t\t\trequire(token.transfer(recipie...\n      MLOAD \t\t\trequire(token.transfer(recipie...\n      DUP1 \t\t\trequire(token.transfer(recipie...\n      SWAP2 \t\t\trequire(token.transfer(recipie...\n      SUB \t\t\trequire(token.transfer(recipie...\n      SWAP1 \t\t\trequire(token.transfer(recipie...\n      REVERT \t\t\trequire(token.transfer(recipie...\n    tag 45\t\t\trequire(token.transfer(recipie...\n      JUMPDEST \t\t\trequire(token.transfer(recipie...\n      DUP4 \t\t\trecipients\n      DUP2 \t\t\ti\n      DUP2 \t\t\trecipients[i]\n      MLOAD \t\t\trecipients[i]\n      DUP2 \t\t\trecipients[i]\n      LT \t\t\trecipients[i]\n      PUSH [tag] 48\t\t\trecipients[i]\n      JUMPI \t\t\trecipients[i]\n      PUSH [tag] 49\t\t\trecipients[i]\n      PUSH [tag] 36\t\t\trecipients[i]\n      JUMP \t\t\trecipients[i]\n    tag 49\t\t\trecipients[i]\n      JUMPDEST \t\t\trecipients[i]\n    tag 48\t\t\trecipients[i]\n      JUMPDEST \t\t\trecipients[i]\n      PUSH 20\t\t\trecipients[i]\n      MUL \t\t\trecipients[i]\n      PUSH 20\t\t\trecipients[i]\n      ADD \t\t\trecipients[i]\n      ADD \t\t\trecipients[i]\n      MLOAD \t\t\trecipients[i]\n      PUSH FFFFFFFFFFFFFFFFFFFFFFFFFFFFFFFFFFFFFFFF\t\t\tErc20BatchTransfer(i, recipien...\n      AND \t\t\tErc20BatchTransfer(i, recipien...\n      DUP2 \t\t\ti\n      PUSH B9471439BD4C23F19D2B486548FA6061AB17E1DA9815F325F2A2B29F22E715E3\t\t\tErc20BatchTransfer(i, recipien...\n      DUP6 \t\t\tamounts\n      DUP5 \t\t\ti\n      DUP2 \t\t\tamounts[i]\n      MLOAD \t\t\tamounts[i]\n      DUP2 \t\t\tamounts[i]\n      LT \t\t\tamounts[i]\n      PUSH [tag] 50\t\t\tamounts[i]\n      JUMPI \t\t\tamounts[i]\n      PUSH [tag] 51\t\t\tamounts[i]\n      PUSH [tag] 36\t\t\tamounts[i]\n      JUMP \t\t\tamounts[i]\n    tag 51\t\t\tamounts[i]\n      JUMPDEST \t\t\tamounts[i]\n    tag 50\t\t\tamounts[i]\n      JUMPDEST \t\t\tamounts[i]\n      PUSH 20\t\t\tamounts[i]\n      MUL \t\t\tamounts[i]\n      PUSH 20\t\t\tamounts[i]\n      ADD \t\t\tamounts[i]\n      ADD \t\t\tamounts[i]\n      MLOAD \t\t\tamounts[i]\n      PUSH 40\t\t\tErc20BatchTransfer(i, recipien...\n      MLOAD \t\t\tErc20BatchTransfer(i, recipien...\n      PUSH [tag] 52\t\t\tErc20BatchTransfer(i, recipien...\n      SWAP2 \t\t\tErc20BatchTransfer(i, recipien...\n      SWAP1 \t\t\tErc20BatchTransfer(i, recipien...\n      PUSH [tag] 53\t\t\tErc20BatchTransfer(i, recipien...\n      JUMP \t\t\tErc20BatchTransfer(i, recipien...\n    tag 52\t\t\tErc20BatchTransfer(i, recipien...\n      JUMPDEST \t\t\tErc20BatchTransfer(i, recipien...\n      PUSH 40\t\t\tErc20BatchTransfer(i, recipien...\n      MLOAD \t\t\tErc20BatchTransfer(i, recipien...\n      DUP1 \t\t\tErc20BatchTransfer(i, recipien...\n      SWAP2 \t\t\tErc20BatchTransfer(i, recipien...\n      SUB \t\t\tErc20BatchTransfer(i, recipien...\n      SWAP1 \t\t\tErc20BatchTransfer(i, recipien...\n      LOG3 \t\t\tErc20BatchTransfer(i, recipien...\n      DUP1 \t\t\ti++\n      DUP1 \t\t\ti++\n      PUSH [tag] 54\t\t\ti++\n      SWAP1 \t\t\ti++\n      PUSH [tag] 55\t\t\ti++\n      JUMP \t\t\ti++\n    tag 54\t\t\ti++\n      JUMPDEST \t\t\ti++\n      SWAP2 \t\t\ti++\n      POP \t\t\ti++\n      POP \t\t\ti++\n      PUSH [tag] 31\t\t\tfor (uint256 i = 0; i < recipi...\n      JUMP \t\t\tfor (uint256 i = 0; i < recipi...\n    tag 32\t\t\tfor (uint256 i = 0; i < recipi...\n      JUMPDEST \t\t\tfor (uint256 i = 0; i < recipi...\n      POP \t\t\tfor (uint256 i = 0; i < recipi...\n      POP \t\t\t{\\r\\n        IERC20 token = IE...\n      POP \t\t\tfunction executeERC20BatchTran...\n      POP \t\t\tfunction executeERC20BatchTran...\n      POP \t\t\tfunction executeERC20BatchTran...\n      JUMP \t\t\tfunction executeERC20BatchTran...\n    tag 19\t\t\tfunction scheduled_dispersal(a...\n      JUMPDEST \t\t\tfunction scheduled_dispersal(a...\n      PUSH 0\t\t\tIERC20 token\n      DUP5 \t\t\ttokenAddress\n      SWAP1 \t\t\tIERC20 token = IERC20(tokenAdd...\n      POP \t\t\tIERC20 token = IERC20(tokenAdd...\n      DUP3 \t\t\tamounts\n      MLOAD \t\t\tamounts.length\n      DUP5 \t\t\trecipients\n      MLOAD \t\t\trecipients.length\n      EQ \t\t\trecipients.length == amounts.l...\n      PUSH [tag] 57\t\t\trequire(recipients.length == a...\n      JUMPI \t\t\trequire(recipients.length == a...\n      PUSH 40\t\t\trequire(recipients.length == a...\n      MLOAD \t\t\trequire(recipients.length == a...\n      PUSH 8C379A000000000000000000000000000000000000000000000000000000000\t\t\trequire(recipients.length == a...\n      DUP2 \t\t\trequire(recipients.length == a...\n      MSTORE \t\t\trequire(recipients.length == a...\n      PUSH 4\t\t\trequire(recipients.length == a...\n      ADD \t\t\trequire(recipients.length == a...\n      PUSH [tag] 58\t\t\trequire(recipients.length == a...\n      SWAP1 \t\t\trequire(recipients.length == a...\n      PUSH [tag] 59\t\t\trequire(recipients.length == a...\n      JUMP \t\t\trequire(recipients.length == a...\n    tag 58\t\t\trequire(recipients.length == a...\n      JUMPDEST \t\t\trequire(recipients.length == a...\n      PUSH 40\t\t\trequire(recipients.length == a...\n      MLOAD \t\t\trequire(recipients.length == a...\n      DUP1 \t\t\trequire(recipients.length == a...\n      SWAP2 \t\t\trequire(recipients.length == a...\n      SUB \t\t\trequire(recipients.length == a...\n      SWAP1 \t\t\trequire(recipients.length == a...\n      REVERT \t\t\trequire(recipients.length == a...\n    tag 57\t\t\trequire(recipients.length == a...\n      JUMPDEST \t\t\trequire(recipients.length == a...\n      PUSH 0\t\t\tuint256 total\n      DUP1 \t\t\tuint256 i\n    tag 60\t\t\tfor (uint256 i = 0; i < amount...\n      JUMPDEST \t\t\tfor (uint256 i = 0; i < amount...\n      DUP5 \t\t\tamounts\n      MLOAD \t\t\tamounts.length\n      DUP2 \t\t\ti\n      LT \t\t\ti < amounts.length\n      ISZERO \t\t\tfor (uint256 i = 0; i < amount...\n      PUSH [tag] 61\t\t\tfor (uint256 i = 0; i < amount...\n      JUMPI \t\t\tfor (uint256 i = 0; i < amount...\n      DUP5 \t\t\tamounts\n      DUP2 \t\t\ti\n      DUP2 \t\t\tamounts[i]\n      MLOAD \t\t\tamounts[i]\n      DUP2 \t\t\tamounts[i]\n      LT \t\t\tamounts[i]\n      PUSH [tag] 63\t\t\tamounts[i]\n      JUMPI \t\t\tamounts[i]\n      PUSH [tag] 64\t\t\tamounts[i]\n      PUSH [tag] 36\t\t\tamounts[i]\n      JUMP \t\t\tamounts[i]\n    tag 64\t\t\tamounts[i]\n      JUMPDEST \t\t\tamounts[i]\n    tag 63\t\t\tamounts[i]\n      JUMPDEST \t\t\tamounts[i]\n      PUSH 20\t\t\tamounts[i]\n      MUL \t\t\tamounts[i]\n      PUSH 20\t\t\tamounts[i]\n      ADD \t\t\tamounts[i]\n      ADD \t\t\tamounts[i]\n      MLOAD \t\t\tamounts[i]\n      DUP3 \t\t\ttotal\n      PUSH [tag] 65\t\t\ttotal + amounts[i]\n      SWAP2 \t\t\ttotal + amounts[i]\n      SWAP1 \t\t\ttotal + amounts[i]\n      PUSH [tag] 66\t\t\ttotal + amounts[i]\n      JUMP \t\t\ttotal + amounts[i]\n    tag 65\t\t\ttotal + amounts[i]\n      JUMPDEST \t\t\ttotal + amounts[i]\n      SWAP2 \t\t\ttotal = total + amounts[i]\n      POP \t\t\ttotal = total + amounts[i]\n      DUP1 \t\t\ti++\n      DUP1 \t\t\ti++\n      PUSH [tag] 67\t\t\ti++\n      SWAP1 \t\t\ti++\n      PUSH [tag] 55\t\t\ti++\n      JUMP \t\t\ti++\n    tag 67\t\t\ti++\n      JUMPDEST \t\t\ti++\n      SWAP2 \t\t\ti++\n      POP \t\t\ti++\n      POP \t\t\ti++\n      PUSH [tag] 60\t\t\tfor (uint256 i = 0; i < amount...\n      JUMP \t\t\tfor (uint256 i = 0; i < amount...\n    tag 61\t\t\tfor (uint256 i = 0; i < amount...\n      JUMPDEST \t\t\tfor (uint256 i = 0; i < amount...\n      POP \t\t\tfor (uint256 i = 0; i < amount...\n      DUP2 \t\t\ttoken\n      PUSH FFFFFFFFFFFFFFFFFFFFFFFFFFFFFFFFFFFFFFFF\t\t\ttoken.transferFrom\n      AND \t\t\ttoken.transferFrom\n      PUSH 23B872DD\t\t\ttoken.transferFrom\n      CALLER \t\t\tmsg.sender\n      ADDRESS \t\t\tthis\n      DUP5 \t\t\ttotal\n      PUSH 40\t\t\ttoken.transferFrom(msg.sender,...\n      MLOAD \t\t\ttoken.transferFrom(msg.sender,...\n      DUP5 \t\t\ttoken.transferFrom(msg.sender,...\n      PUSH FFFFFFFF\t\t\ttoken.transferFrom(msg.sender,...\n      AND \t\t\ttoken.transferFrom(msg.sender,...\n      PUSH E0\t\t\ttoken.transferFrom(msg.sender,...\n      SHL \t\t\ttoken.transferFrom(msg.sender,...\n      DUP2 \t\t\ttoken.transferFrom(msg.sender,...\n      MSTORE \t\t\ttoken.transferFrom(msg.sender,...\n      PUSH 4\t\t\ttoken.transferFrom(msg.sender,...\n      ADD \t\t\ttoken.transferFrom(msg.sender,...\n      PUSH [tag] 68\t\t\ttoken.transferFrom(msg.sender,...\n      SWAP4 \t\t\ttoken.transferFrom(msg.sender,...\n      SWAP3 \t\t\ttoken.transferFrom(msg.sender,...\n      SWAP2 \t\t\ttoken.transferFrom(msg.sender,...\n      SWAP1 \t\t\ttoken.transferFrom(msg.sender,...\n      PUSH [tag] 69\t\t\ttoken.transferFrom(msg.sender,...\n      JUMP \t\t\ttoken.transferFrom(msg.sender,...\n    tag 68\t\t\ttoken.transferFrom(msg.sender,...\n      JUMPDEST \t\t\ttoken.transferFrom(msg.sender,...\n      PUSH 20\t\t\ttoken.transferFrom(msg.sender,...\n      PUSH 40\t\t\ttoken.transferFrom(msg.sender,...\n      MLOAD \t\t\ttoken.transferFrom(msg.sender,...\n      DUP1 \t\t\ttoken.transferFrom(msg.sender,...\n      DUP4 \t\t\ttoken.transferFrom(msg.sender,...\n      SUB \t\t\ttoken.transferFrom(msg.sender,...\n      DUP2 \t\t\ttoken.transferFrom(msg.sender,...\n      PUSH 0\t\t\ttoken.transferFrom(msg.sender,...\n      DUP8 \t\t\ttoken.transferFrom(msg.sender,...\n      GAS \t\t\ttoken.transferFrom(msg.sender,...\n      CALL \t\t\ttoken.transferFrom(msg.sender,...\n      ISZERO \t\t\ttoken.transferFrom(msg.sender,...\n      DUP1 \t\t\ttoken.transferFrom(msg.sender,...\n      ISZERO \t\t\ttoken.transferFrom(msg.sender,...\n      PUSH [tag] 71\t\t\ttoken.transferFrom(msg.sender,...\n      JUMPI \t\t\ttoken.transferFrom(msg.sender,...\n      RETURNDATASIZE \t\t\ttoken.transferFrom(msg.sender,...\n      PUSH 0\t\t\ttoken.transferFrom(msg.sender,...\n      DUP1 \t\t\ttoken.transferFrom(msg.sender,...\n      RETURNDATACOPY \t\t\ttoken.transferFrom(msg.sender,...\n      RETURNDATASIZE \t\t\ttoken.transferFrom(msg.sender,...\n      PUSH 0\t\t\ttoken.transferFrom(msg.sender,...\n      REVERT \t\t\ttoken.transferFrom(msg.sender,...\n    tag 71\t\t\ttoken.transferFrom(msg.sender,...\n      JUMPDEST \t\t\ttoken.transferFrom(msg.sender,...\n      POP \t\t\ttoken.transferFrom(msg.sender,...\n      POP \t\t\ttoken.transferFrom(msg.sender,...\n      POP \t\t\ttoken.transferFrom(msg.sender,...\n      POP \t\t\ttoken.transferFrom(msg.sender,...\n      PUSH 40\t\t\ttoken.transferFrom(msg.sender,...\n      MLOAD \t\t\ttoken.transferFrom(msg.sender,...\n      RETURNDATASIZE \t\t\ttoken.transferFrom(msg.sender,...\n      PUSH 1F\t\t\ttoken.transferFrom(msg.sender,...\n      NOT \t\t\ttoken.transferFrom(msg.sender,...\n      PUSH 1F\t\t\ttoken.transferFrom(msg.sender,...\n      DUP3 \t\t\ttoken.transferFrom(msg.sender,...\n      ADD \t\t\ttoken.transferFrom(msg.sender,...\n      AND \t\t\ttoken.transferFrom(msg.sender,...\n      DUP3 \t\t\ttoken.transferFrom(msg.sender,...\n      ADD \t\t\ttoken.transferFrom(msg.sender,...\n      DUP1 \t\t\ttoken.transferFrom(msg.sender,...\n      PUSH 40\t\t\ttoken.transferFrom(msg.sender,...\n      MSTORE \t\t\ttoken.transferFrom(msg.sender,...\n      POP \t\t\ttoken.transferFrom(msg.sender,...\n      DUP2 \t\t\ttoken.transferFrom(msg.sender,...\n      ADD \t\t\ttoken.transferFrom(msg.sender,...\n      SWAP1 \t\t\ttoken.transferFrom(msg.sender,...\n      PUSH [tag] 72\t\t\ttoken.transferFrom(msg.sender,...\n      SWAP2 \t\t\ttoken.transferFrom(msg.sender,...\n      SWAP1 \t\t\ttoken.transferFrom(msg.sender,...\n      PUSH [tag] 44\t\t\ttoken.transferFrom(msg.sender,...\n      JUMP \t\t\ttoken.transferFrom(msg.sender,...\n    tag 72\t\t\ttoken.transferFrom(msg.sender,...\n      JUMPDEST \t\t\ttoken.transferFrom(msg.sender,...\n      PUSH [tag] 73\t\t\trequire(token.transferFrom(msg...\n      JUMPI \t\t\trequire(token.transferFrom(msg...\n      PUSH 40\t\t\trequire(token.transferFrom(msg...\n      MLOAD \t\t\trequire(token.transferFrom(msg...\n      PUSH 8C379A000000000000000000000000000000000000000000000000000000000\t\t\trequire(token.transferFrom(msg...\n      DUP2 \t\t\trequire(token.transferFrom(msg...\n      MSTORE \t\t\trequire(token.transferFrom(msg...\n      PUSH 4\t\t\trequire(token.transferFrom(msg...\n      ADD \t\t\trequire(token.transferFrom(msg...\n      PUSH [tag] 74\t\t\trequire(token.transferFrom(msg...\n      SWAP1 \t\t\trequire(token.transferFrom(msg...\n      PUSH [tag] 75\t\t\trequire(token.transferFrom(msg...\n      JUMP \t\t\trequire(token.transferFrom(msg...\n    tag 74\t\t\trequire(token.transferFrom(msg...\n      JUMPDEST \t\t\trequire(token.transferFrom(msg...\n      PUSH 40\t\t\trequire(token.transferFrom(msg...\n      MLOAD \t\t\trequire(token.transferFrom(msg...\n      DUP1 \t\t\trequire(token.transferFrom(msg...\n      SWAP2 \t\t\trequire(token.transferFrom(msg...\n      SUB \t\t\trequire(token.transferFrom(msg...\n      SWAP1 \t\t\trequire(token.transferFrom(msg...\n      REVERT \t\t\trequire(token.transferFrom(msg...\n    tag 73\t\t\trequire(token.transferFrom(msg...\n      JUMPDEST \t\t\trequire(token.transferFrom(msg...\n      PUSH 0\t\t\tbytes memory data\n      DUP7 \t\t\ttokenAddress\n      DUP7 \t\t\trecipients\n      DUP7 \t\t\tamounts\n      PUSH 40\t\t\tabi.encodeWithSignature(\"execu...\n      MLOAD \t\t\tabi.encodeWithSignature(\"execu...\n      PUSH 24\t\t\tabi.encodeWithSignature(\"execu...\n      ADD \t\t\tabi.encodeWithSignature(\"execu...\n      PUSH [tag] 76\t\t\tabi.encodeWithSignature(\"execu...\n      SWAP4 \t\t\tabi.encodeWithSignature(\"execu...\n      SWAP3 \t\t\tabi.encodeWithSignature(\"execu...\n      SWAP2 \t\t\tabi.encodeWithSignature(\"execu...\n      SWAP1 \t\t\tabi.encodeWithSignature(\"execu...\n      PUSH [tag] 77\t\t\tabi.encodeWithSignature(\"execu...\n      JUMP \t\t\tabi.encodeWithSignature(\"execu...\n    tag 76\t\t\tabi.encodeWithSignature(\"execu...\n      JUMPDEST \t\t\tabi.encodeWithSignature(\"execu...\n      PUSH 40\t\t\tabi.encodeWithSignature(\"execu...\n      MLOAD \t\t\tabi.encodeWithSignature(\"execu...\n      PUSH 20\t\t\tabi.encodeWithSignature(\"execu...\n      DUP2 \t\t\tabi.encodeWithSignature(\"execu...\n      DUP4 \t\t\tabi.encodeWithSignature(\"execu...\n      SUB \t\t\tabi.encodeWithSignature(\"execu...\n      SUB \t\t\tabi.encodeWithSignature(\"execu...\n      DUP2 \t\t\tabi.encodeWithSignature(\"execu...\n      MSTORE \t\t\tabi.encodeWithSignature(\"execu...\n      SWAP1 \t\t\tabi.encodeWithSignature(\"execu...\n      PUSH 40\t\t\tabi.encodeWithSignature(\"execu...\n      MSTORE \t\t\tabi.encodeWithSignature(\"execu...\n      PUSH 46BA5FED00000000000000000000000000000000000000000000000000000000\t\t\tabi.encodeWithSignature(\"execu...\n      PUSH FFFFFFFFFFFFFFFFFFFFFFFFFFFFFFFFFFFFFFFFFFFFFFFFFFFFFFFF\t\t\tabi.encodeWithSignature(\"execu...\n      NOT \t\t\tabi.encodeWithSignature(\"execu...\n      AND \t\t\tabi.encodeWithSignature(\"execu...\n      PUSH 20\t\t\tabi.encodeWithSignature(\"execu...\n      DUP3 \t\t\tabi.encodeWithSignature(\"execu...\n      ADD \t\t\tabi.encodeWithSignature(\"execu...\n      DUP1 \t\t\tabi.encodeWithSignature(\"execu...\n      MLOAD \t\t\tabi.encodeWithSignature(\"execu...\n      PUSH FFFFFFFFFFFFFFFFFFFFFFFFFFFFFFFFFFFFFFFFFFFFFFFFFFFFFFFF\t\t\tabi.encodeWithSignature(\"execu...\n      DUP4 \t\t\tabi.encodeWithSignature(\"execu...\n      DUP2 \t\t\tabi.encodeWithSignature(\"execu...\n      DUP4 \t\t\tabi.encodeWithSignature(\"execu...\n      AND \t\t\tabi.encodeWithSignature(\"execu...\n      OR \t\t\tabi.encodeWithSignature(\"execu...\n      DUP4 \t\t\tabi.encodeWithSignature(\"execu...\n      MSTORE \t\t\tabi.encodeWithSignature(\"execu...\n      POP \t\t\tabi.encodeWithSignature(\"execu...\n      POP \t\t\tabi.encodeWithSignature(\"execu...\n      POP \t\t\tabi.encodeWithSignature(\"execu...\n      POP \t\t\tabi.encodeWithSignature(\"execu...\n      SWAP1 \t\t\tbytes memory data = abi.encode...\n      POP \t\t\tbytes memory data = abi.encode...\n      PUSH 0\t\t\tbytes memory scheduleId\n      DUP1 \t\t\tscheduler\n      PUSH 0\t\t\tscheduler\n      SWAP1 \t\t\tscheduler\n      SLOAD \t\t\tscheduler\n      SWAP1 \t\t\tscheduler\n      PUSH 100\t\t\tscheduler\n      EXP \t\t\tscheduler\n      SWAP1 \t\t\tscheduler\n      DIV \t\t\tscheduler\n      PUSH FFFFFFFFFFFFFFFFFFFFFFFFFFFFFFFFFFFFFFFF\t\t\tscheduler\n      AND \t\t\tscheduler\n      PUSH FFFFFFFFFFFFFFFFFFFFFFFFFFFFFFFFFFFFFFFF\t\t\tscheduler.scheduleCall\n      AND \t\t\tscheduler.scheduleCall\n      PUSH 168D560D\t\t\tscheduler.scheduleCall\n      ADDRESS \t\t\tthis\n      PUSH 0\t\t\t0\n      PUSH 200B20\t\t\t2100000\n      PUSH FA00\t\t\t64000\n      DUP11 \t\t\tdelay\n      DUP9 \t\t\tdata\n      PUSH 40\t\t\tscheduler.scheduleCall(address...\n      MLOAD \t\t\tscheduler.scheduleCall(address...\n      DUP8 \t\t\tscheduler.scheduleCall(address...\n      PUSH FFFFFFFF\t\t\tscheduler.scheduleCall(address...\n      AND \t\t\tscheduler.scheduleCall(address...\n      PUSH E0\t\t\tscheduler.scheduleCall(address...\n      SHL \t\t\tscheduler.scheduleCall(address...\n      DUP2 \t\t\tscheduler.scheduleCall(address...\n      MSTORE \t\t\tscheduler.scheduleCall(address...\n      PUSH 4\t\t\tscheduler.scheduleCall(address...\n      ADD \t\t\tscheduler.scheduleCall(address...\n      PUSH [tag] 78\t\t\tscheduler.scheduleCall(address...\n      SWAP7 \t\t\tscheduler.scheduleCall(address...\n      SWAP6 \t\t\tscheduler.scheduleCall(address...\n      SWAP5 \t\t\tscheduler.scheduleCall(address...\n      SWAP4 \t\t\tscheduler.scheduleCall(address...\n      SWAP3 \t\t\tscheduler.scheduleCall(address...\n      SWAP2 \t\t\tscheduler.scheduleCall(address...\n      SWAP1 \t\t\tscheduler.scheduleCall(address...\n      PUSH [tag] 79\t\t\tscheduler.scheduleCall(address...\n      JUMP \t\t\tscheduler.scheduleCall(address...\n    tag 78\t\t\tscheduler.scheduleCall(address...\n      JUMPDEST \t\t\tscheduler.scheduleCall(address...\n      PUSH 0\t\t\tscheduler.scheduleCall(address...\n      PUSH 40\t\t\tscheduler.scheduleCall(address...\n      MLOAD \t\t\tscheduler.scheduleCall(address...\n      DUP1 \t\t\tscheduler.scheduleCall(address...\n      DUP4 \t\t\tscheduler.scheduleCall(address...\n      SUB \t\t\tscheduler.scheduleCall(address...\n      DUP2 \t\t\tscheduler.scheduleCall(address...\n      PUSH 0\t\t\tscheduler.scheduleCall(address...\n      DUP8 \t\t\tscheduler.scheduleCall(address...\n      GAS \t\t\tscheduler.scheduleCall(address...\n      CALL \t\t\tscheduler.scheduleCall(address...\n      ISZERO \t\t\tscheduler.scheduleCall(address...\n      DUP1 \t\t\tscheduler.scheduleCall(address...\n      ISZERO \t\t\tscheduler.scheduleCall(address...\n      PUSH [tag] 81\t\t\tscheduler.scheduleCall(address...\n      JUMPI \t\t\tscheduler.scheduleCall(address...\n      RETURNDATASIZE \t\t\tscheduler.scheduleCall(address...\n      PUSH 0\t\t\tscheduler.scheduleCall(address...\n      DUP1 \t\t\tscheduler.scheduleCall(address...\n      RETURNDATACOPY \t\t\tscheduler.scheduleCall(address...\n      RETURNDATASIZE \t\t\tscheduler.scheduleCall(address...\n      PUSH 0\t\t\tscheduler.scheduleCall(address...\n      REVERT \t\t\tscheduler.scheduleCall(address...\n    tag 81\t\t\tscheduler.scheduleCall(address...\n      JUMPDEST \t\t\tscheduler.scheduleCall(address...\n      POP \t\t\tscheduler.scheduleCall(address...\n      POP \t\t\tscheduler.scheduleCall(address...\n      POP \t\t\tscheduler.scheduleCall(address...\n      POP \t\t\tscheduler.scheduleCall(address...\n      PUSH 40\t\t\tscheduler.scheduleCall(address...\n      MLOAD \t\t\tscheduler.scheduleCall(address...\n      RETURNDATASIZE \t\t\tscheduler.scheduleCall(address...\n      PUSH 0\t\t\tscheduler.scheduleCall(address...\n      DUP3 \t\t\tscheduler.scheduleCall(address...\n      RETURNDATACOPY \t\t\tscheduler.scheduleCall(address...\n      RETURNDATASIZE \t\t\tscheduler.scheduleCall(address...\n      PUSH 1F\t\t\tscheduler.scheduleCall(address...\n      NOT \t\t\tscheduler.scheduleCall(address...\n      PUSH 1F\t\t\tscheduler.scheduleCall(address...\n      DUP3 \t\t\tscheduler.scheduleCall(address...\n      ADD \t\t\tscheduler.scheduleCall(address...\n      AND \t\t\tscheduler.scheduleCall(address...\n      DUP3 \t\t\tscheduler.scheduleCall(address...\n      ADD \t\t\tscheduler.scheduleCall(address...\n      DUP1 \t\t\tscheduler.scheduleCall(address...\n      PUSH 40\t\t\tscheduler.scheduleCall(address...\n      MSTORE \t\t\tscheduler.scheduleCall(address...\n      POP \t\t\tscheduler.scheduleCall(address...\n      DUP2 \t\t\tscheduler.scheduleCall(address...\n      ADD \t\t\tscheduler.scheduleCall(address...\n      SWAP1 \t\t\tscheduler.scheduleCall(address...\n      PUSH [tag] 82\t\t\tscheduler.scheduleCall(address...\n      SWAP2 \t\t\tscheduler.scheduleCall(address...\n      SWAP1 \t\t\tscheduler.scheduleCall(address...\n      PUSH [tag] 83\t\t\tscheduler.scheduleCall(address...\n      JUMP \t\t\tscheduler.scheduleCall(address...\n    tag 82\t\t\tscheduler.scheduleCall(address...\n      JUMPDEST \t\t\tscheduler.scheduleCall(address...\n      SWAP1 \t\t\tbytes memory scheduleId = sche...\n      POP \t\t\tbytes memory scheduleId = sche...\n      DUP8 \t\t\ttokenAddress\n      PUSH FFFFFFFFFFFFFFFFFFFFFFFFFFFFFFFFFFFFFFFF\t\t\tTransferScheduled(scheduleId,t...\n      AND \t\t\tTransferScheduled(scheduleId,t...\n      DUP2 \t\t\tscheduleId\n      PUSH 40\t\t\tTransferScheduled(scheduleId,t...\n      MLOAD \t\t\tTransferScheduled(scheduleId,t...\n      PUSH [tag] 84\t\t\tTransferScheduled(scheduleId,t...\n      SWAP2 \t\t\tTransferScheduled(scheduleId,t...\n      SWAP1 \t\t\tTransferScheduled(scheduleId,t...\n      PUSH [tag] 85\t\t\tTransferScheduled(scheduleId,t...\n      JUMP \t\t\tTransferScheduled(scheduleId,t...\n    tag 84\t\t\tTransferScheduled(scheduleId,t...\n      JUMPDEST \t\t\tTransferScheduled(scheduleId,t...\n      PUSH 40\t\t\tTransferScheduled(scheduleId,t...\n      MLOAD \t\t\tTransferScheduled(scheduleId,t...\n      DUP1 \t\t\tTransferScheduled(scheduleId,t...\n      SWAP2 \t\t\tTransferScheduled(scheduleId,t...\n      SUB \t\t\tTransferScheduled(scheduleId,t...\n      SWAP1 \t\t\tTransferScheduled(scheduleId,t...\n      KECCAK256 \t\t\tTransferScheduled(scheduleId,t...\n      PUSH C9C9AFE41DD5E3A9438DD88814EDCB9C8089A9E980F48B14414EDA3D6D3D0E9A\t\t\tTransferScheduled(scheduleId,t...\n      DUP10 \t\t\trecipients\n      DUP10 \t\t\tamounts\n      DUP10 \t\t\tdelay\n      TIMESTAMP \t\t\tblock.timestamp\n      PUSH [tag] 86\t\t\tblock.timestamp + delay\n      SWAP2 \t\t\tblock.timestamp + delay\n      SWAP1 \t\t\tblock.timestamp + delay\n      PUSH [tag] 66\t\t\tblock.timestamp + delay\n      JUMP \t\t\tblock.timestamp + delay\n    tag 86\t\t\tblock.timestamp + delay\n      JUMPDEST \t\t\tblock.timestamp + delay\n      PUSH 40\t\t\tTransferScheduled(scheduleId,t...\n      MLOAD \t\t\tTransferScheduled(scheduleId,t...\n      PUSH [tag] 87\t\t\tTransferScheduled(scheduleId,t...\n      SWAP4 \t\t\tTransferScheduled(scheduleId,t...\n      SWAP3 \t\t\tTransferScheduled(scheduleId,t...\n      SWAP2 \t\t\tTransferScheduled(scheduleId,t...\n      SWAP1 \t\t\tTransferScheduled(scheduleId,t...\n      PUSH [tag] 88\t\t\tTransferScheduled(scheduleId,t...\n      JUMP \t\t\tTransferScheduled(scheduleId,t...\n    tag 87\t\t\tTransferScheduled(scheduleId,t...\n      JUMPDEST \t\t\tTransferScheduled(scheduleId,t...\n      PUSH 40\t\t\tTransferScheduled(scheduleId,t...\n      MLOAD \t\t\tTransferScheduled(scheduleId,t...\n      DUP1 \t\t\tTransferScheduled(scheduleId,t...\n      SWAP2 \t\t\tTransferScheduled(scheduleId,t...\n      SUB \t\t\tTransferScheduled(scheduleId,t...\n      SWAP1 \t\t\tTransferScheduled(scheduleId,t...\n      LOG3 \t\t\tTransferScheduled(scheduleId,t...\n      POP \t\t\t{\\r\\n        IERC20 token = IE...\n      POP \t\t\t{\\r\\n        IERC20 token = IE...\n      POP \t\t\t{\\r\\n        IERC20 token = IE...\n      POP \t\t\t{\\r\\n        IERC20 token = IE...\n      POP \t\t\tfunction scheduled_dispersal(a...\n      POP \t\t\tfunction scheduled_dispersal(a...\n      POP \t\t\tfunction scheduled_dispersal(a...\n      POP \t\t\tfunction scheduled_dispersal(a...\n      JUMP \t\t\tfunction scheduled_dispersal(a...\n    tag 23\t\t\tfunction priceTriggeredDispers...\n      JUMPDEST \t\t\tfunction priceTriggeredDispers...\n      PUSH 0\t\t\tIERC20 token\n      DUP7 \t\t\ttokenAddress\n      SWAP1 \t\t\tIERC20 token = IERC20(tokenAdd...\n      POP \t\t\tIERC20 token = IERC20(tokenAdd...\n      PUSH 0\t\t\tuint256 currentPrice\n      PUSH 1\t\t\toracle\n      PUSH 0\t\t\toracle\n      SWAP1 \t\t\toracle\n      SLOAD \t\t\toracle\n      SWAP1 \t\t\toracle\n      PUSH 100\t\t\toracle\n      EXP \t\t\toracle\n      SWAP1 \t\t\toracle\n      DIV \t\t\toracle\n      PUSH FFFFFFFFFFFFFFFFFFFFFFFFFFFFFFFFFFFFFFFF\t\t\toracle\n      AND \t\t\toracle\n      PUSH FFFFFFFFFFFFFFFFFFFFFFFFFFFFFFFFFFFFFFFF\t\t\toracle.getPrice\n      AND \t\t\toracle.getPrice\n      PUSH 41976E09\t\t\toracle.getPrice\n      DUP10 \t\t\ttokenAddress\n      PUSH 40\t\t\toracle.getPrice(tokenAddress)\n      MLOAD \t\t\toracle.getPrice(tokenAddress)\n      DUP3 \t\t\toracle.getPrice(tokenAddress)\n      PUSH FFFFFFFF\t\t\toracle.getPrice(tokenAddress)\n      AND \t\t\toracle.getPrice(tokenAddress)\n      PUSH E0\t\t\toracle.getPrice(tokenAddress)\n      SHL \t\t\toracle.getPrice(tokenAddress)\n      DUP2 \t\t\toracle.getPrice(tokenAddress)\n      MSTORE \t\t\toracle.getPrice(tokenAddress)\n      PUSH 4\t\t\toracle.getPrice(tokenAddress)\n      ADD \t\t\toracle.getPrice(tokenAddress)\n      PUSH [tag] 90\t\t\toracle.getPrice(tokenAddress)\n      SWAP2 \t\t\toracle.getPrice(tokenAddress)\n      SWAP1 \t\t\toracle.getPrice(tokenAddress)\n      PUSH [tag] 91\t\t\toracle.getPrice(tokenAddress)\n      JUMP \t\t\toracle.getPrice(tokenAddress)\n    tag 90\t\t\toracle.getPrice(tokenAddress)\n      JUMPDEST \t\t\toracle.getPrice(tokenAddress)\n      PUSH 20\t\t\toracle.getPrice(tokenAddress)\n      PUSH 40\t\t\toracle.getPrice(tokenAddress)\n      MLOAD \t\t\toracle.getPrice(tokenAddress)\n      DUP1 \t\t\toracle.getPrice(tokenAddress)\n      DUP4 \t\t\toracle.getPrice(tokenAddress)\n      SUB \t\t\toracle.getPrice(tokenAddress)\n      DUP2 \t\t\toracle.getPrice(tokenAddress)\n      DUP7 \t\t\toracle.getPrice(tokenAddress)\n      GAS \t\t\toracle.getPrice(tokenAddress)\n      STATICCALL \t\t\toracle.getPrice(tokenAddress)\n      ISZERO \t\t\toracle.getPrice(tokenAddress)\n      DUP1 \t\t\toracle.getPrice(tokenAddress)\n      ISZERO \t\t\toracle.getPrice(tokenAddress)\n      PUSH [tag] 93\t\t\toracle.getPrice(tokenAddress)\n      JUMPI \t\t\toracle.getPrice(tokenAddress)\n      RETURNDATASIZE \t\t\toracle.getPrice(tokenAddress)\n      PUSH 0\t\t\toracle.getPrice(tokenAddress)\n      DUP1 \t\t\toracle.getPrice(tokenAddress)\n      RETURNDATACOPY \t\t\toracle.getPrice(tokenAddress)\n      RETURNDATASIZE \t\t\toracle.getPrice(tokenAddress)\n      PUSH 0\t\t\toracle.getPrice(tokenAddress)\n      REVERT \t\t\toracle.getPrice(tokenAddress)\n    tag 93\t\t\toracle.getPrice(tokenAddress)\n      JUMPDEST \t\t\toracle.getPrice(tokenAddress)\n      POP \t\t\toracle.getPrice(tokenAddress)\n      POP \t\t\toracle.getPrice(tokenAddress)\n      POP \t\t\toracle.getPrice(tokenAddress)\n      POP \t\t\toracle.getPrice(tokenAddress)\n      PUSH 40\t\t\toracle.getPrice(tokenAddress)\n      MLOAD \t\t\toracle.getPrice(tokenAddress)\n      RETURNDATASIZE \t\t\toracle.getPrice(tokenAddress)\n      PUSH 1F\t\t\toracle.getPrice(tokenAddress)\n      NOT \t\t\toracle.getPrice(tokenAddress)\n      PUSH 1F\t\t\toracle.getPrice(tokenAddress)\n      DUP3 \t\t\toracle.getPrice(tokenAddress)\n      ADD \t\t\toracle.getPrice(tokenAddress)\n      AND \t\t\toracle.getPrice(tokenAddress)\n      DUP3 \t\t\toracle.getPrice(tokenAddress)\n      ADD \t\t\toracle.getPrice(tokenAddress)\n      DUP1 \t\t\toracle.getPrice(tokenAddress)\n      PUSH 40\t\t\toracle.getPrice(tokenAddress)\n      MSTORE \t\t\toracle.getPrice(tokenAddress)\n      POP \t\t\toracle.getPrice(tokenAddress)\n      DUP2 \t\t\toracle.getPrice(tokenAddress)\n      ADD \t\t\toracle.getPrice(tokenAddress)\n      SWAP1 \t\t\toracle.getPrice(tokenAddress)\n      PUSH [tag] 94\t\t\toracle.getPrice(tokenAddress)\n      SWAP2 \t\t\toracle.getPrice(tokenAddress)\n      SWAP1 \t\t\toracle.getPrice(tokenAddress)\n      PUSH [tag] 95\t\t\toracle.getPrice(tokenAddress)\n      JUMP \t\t\toracle.getPrice(tokenAddress)\n    tag 94\t\t\toracle.getPrice(tokenAddress)\n      JUMPDEST \t\t\toracle.getPrice(tokenAddress)\n      SWAP1 \t\t\tuint256 currentPrice = oracle....\n      POP \t\t\tuint256 currentPrice = oracle....\n      PUSH 0\t\t\tuint256 priceDifference\n      PUSH 64\t\t\t100\n      DUP5 \t\t\tpercentage\n      DUP8 \t\t\tdesiredPrice\n      PUSH [tag] 96\t\t\tdesiredPrice * percentage\n      SWAP2 \t\t\tdesiredPrice * percentage\n      SWAP1 \t\t\tdesiredPrice * percentage\n      PUSH [tag] 97\t\t\tdesiredPrice * percentage\n      JUMP \t\t\tdesiredPrice * percentage\n    tag 96\t\t\tdesiredPrice * percentage\n      JUMPDEST \t\t\tdesiredPrice * percentage\n      PUSH [tag] 98\t\t\tdesiredPrice * percentage / 10...\n      SWAP2 \t\t\tdesiredPrice * percentage / 10...\n      SWAP1 \t\t\tdesiredPrice * percentage / 10...\n      PUSH [tag] 99\t\t\tdesiredPrice * percentage / 10...\n      JUMP \t\t\tdesiredPrice * percentage / 10...\n    tag 98\t\t\tdesiredPrice * percentage / 10...\n      JUMPDEST \t\t\tdesiredPrice * percentage / 10...\n      SWAP1 \t\t\tuint256 priceDifference = desi...\n      POP \t\t\tuint256 priceDifference = desi...\n      ADDRESS \t\t\tthis\n      PUSH FFFFFFFFFFFFFFFFFFFFFFFFFFFFFFFFFFFFFFFF\t\t\tmsg.sender != address(this)\n      AND \t\t\tmsg.sender != address(this)\n      CALLER \t\t\tmsg.sender\n      PUSH FFFFFFFFFFFFFFFFFFFFFFFFFFFFFFFFFFFFFFFF\t\t\tmsg.sender != address(this)\n      AND \t\t\tmsg.sender != address(this)\n      EQ \t\t\tmsg.sender != address(this)\n      PUSH [tag] 100\t\t\tif(msg.sender != address(this)...\n      JUMPI \t\t\tif(msg.sender != address(this)...\n      DUP7 \t\t\tamounts\n      MLOAD \t\t\tamounts.length\n      DUP9 \t\t\trecipients\n      MLOAD \t\t\trecipients.length\n      EQ \t\t\trecipients.length == amounts.l...\n      PUSH [tag] 101\t\t\trequire(recipients.length == a...\n      JUMPI \t\t\trequire(recipients.length == a...\n      PUSH 40\t\t\trequire(recipients.length == a...\n      MLOAD \t\t\trequire(recipients.length == a...\n      PUSH 8C379A000000000000000000000000000000000000000000000000000000000\t\t\trequire(recipients.length == a...\n      DUP2 \t\t\trequire(recipients.length == a...\n      MSTORE \t\t\trequire(recipients.length == a...\n      PUSH 4\t\t\trequire(recipients.length == a...\n      ADD \t\t\trequire(recipients.length == a...\n      PUSH [tag] 102\t\t\trequire(recipients.length == a...\n      SWAP1 \t\t\trequire(recipients.length == a...\n      PUSH [tag] 59\t\t\trequire(recipients.length == a...\n      JUMP \t\t\trequire(recipients.length == a...\n    tag 102\t\t\trequire(recipients.length == a...\n      JUMPDEST \t\t\trequire(recipients.length == a...\n      PUSH 40\t\t\trequire(recipients.length == a...\n      MLOAD \t\t\trequire(recipients.length == a...\n      DUP1 \t\t\trequire(recipients.length == a...\n      SWAP2 \t\t\trequire(recipients.length == a...\n      SUB \t\t\trequire(recipients.length == a...\n      SWAP1 \t\t\trequire(recipients.length == a...\n      REVERT \t\t\trequire(recipients.length == a...\n    tag 101\t\t\trequire(recipients.length == a...\n      JUMPDEST \t\t\trequire(recipients.length == a...\n      PUSH 0\t\t\tuint256 total\n      DUP1 \t\t\tuint256 i\n    tag 103\t\t\tfor (uint256 i = 0; i < recipi...\n      JUMPDEST \t\t\tfor (uint256 i = 0; i < recipi...\n      DUP10 \t\t\trecipients\n      MLOAD \t\t\trecipients.length\n      DUP2 \t\t\ti\n      LT \t\t\ti < recipients.length\n      ISZERO \t\t\tfor (uint256 i = 0; i < recipi...\n      PUSH [tag] 104\t\t\tfor (uint256 i = 0; i < recipi...\n      JUMPI \t\t\tfor (uint256 i = 0; i < recipi...\n      DUP9 \t\t\tamounts\n      DUP2 \t\t\ti\n      DUP2 \t\t\tamounts[i]\n      MLOAD \t\t\tamounts[i]\n      DUP2 \t\t\tamounts[i]\n      LT \t\t\tamounts[i]\n      PUSH [tag] 106\t\t\tamounts[i]\n      JUMPI \t\t\tamounts[i]\n      PUSH [tag] 107\t\t\tamounts[i]\n      PUSH [tag] 36\t\t\tamounts[i]\n      JUMP \t\t\tamounts[i]\n    tag 107\t\t\tamounts[i]\n      JUMPDEST \t\t\tamounts[i]\n    tag 106\t\t\tamounts[i]\n      JUMPDEST \t\t\tamounts[i]\n      PUSH 20\t\t\tamounts[i]\n      MUL \t\t\tamounts[i]\n      PUSH 20\t\t\tamounts[i]\n      ADD \t\t\tamounts[i]\n      ADD \t\t\tamounts[i]\n      MLOAD \t\t\tamounts[i]\n      DUP3 \t\t\ttotal\n      PUSH [tag] 108\t\t\ttotal + amounts[i]\n      SWAP2 \t\t\ttotal + amounts[i]\n      SWAP1 \t\t\ttotal + amounts[i]\n      PUSH [tag] 66\t\t\ttotal + amounts[i]\n      JUMP \t\t\ttotal + amounts[i]\n    tag 108\t\t\ttotal + amounts[i]\n      JUMPDEST \t\t\ttotal + amounts[i]\n      SWAP2 \t\t\ttotal = total + amounts[i]\n      POP \t\t\ttotal = total + amounts[i]\n      DUP1 \t\t\ti++\n      DUP1 \t\t\ti++\n      PUSH [tag] 109\t\t\ti++\n      SWAP1 \t\t\ti++\n      PUSH [tag] 55\t\t\ti++\n      JUMP \t\t\ti++\n    tag 109\t\t\ti++\n      JUMPDEST \t\t\ti++\n      SWAP2 \t\t\ti++\n      POP \t\t\ti++\n      POP \t\t\ti++\n      PUSH [tag] 103\t\t\tfor (uint256 i = 0; i < recipi...\n      JUMP \t\t\tfor (uint256 i = 0; i < recipi...\n    tag 104\t\t\tfor (uint256 i = 0; i < recipi...\n      JUMPDEST \t\t\tfor (uint256 i = 0; i < recipi...\n      POP \t\t\tfor (uint256 i = 0; i < recipi...\n      DUP4 \t\t\ttoken\n      PUSH FFFFFFFFFFFFFFFFFFFFFFFFFFFFFFFFFFFFFFFF\t\t\ttoken.transferFrom\n      AND \t\t\ttoken.transferFrom\n      PUSH 23B872DD\t\t\ttoken.transferFrom\n      CALLER \t\t\tmsg.sender\n      ADDRESS \t\t\tthis\n      DUP5 \t\t\ttotal\n      PUSH 40\t\t\ttoken.transferFrom(msg.sender,...\n      MLOAD \t\t\ttoken.transferFrom(msg.sender,...\n      DUP5 \t\t\ttoken.transferFrom(msg.sender,...\n      PUSH FFFFFFFF\t\t\ttoken.transferFrom(msg.sender,...\n      AND \t\t\ttoken.transferFrom(msg.sender,...\n      PUSH E0\t\t\ttoken.transferFrom(msg.sender,...\n      SHL \t\t\ttoken.transferFrom(msg.sender,...\n      DUP2 \t\t\ttoken.transferFrom(msg.sender,...\n      MSTORE \t\t\ttoken.transferFrom(msg.sender,...\n      PUSH 4\t\t\ttoken.transferFrom(msg.sender,...\n      ADD \t\t\ttoken.transferFrom(msg.sender,...\n      PUSH [tag] 110\t\t\ttoken.transferFrom(msg.sender,...\n      SWAP4 \t\t\ttoken.transferFrom(msg.sender,...\n      SWAP3 \t\t\ttoken.transferFrom(msg.sender,...\n      SWAP2 \t\t\ttoken.transferFrom(msg.sender,...\n      SWAP1 \t\t\ttoken.transferFrom(msg.sender,...\n      PUSH [tag] 69\t\t\ttoken.transferFrom(msg.sender,...\n      JUMP \t\t\ttoken.transferFrom(msg.sender,...\n    tag 110\t\t\ttoken.transferFrom(msg.sender,...\n      JUMPDEST \t\t\ttoken.transferFrom(msg.sender,...\n      PUSH 20\t\t\ttoken.transferFrom(msg.sender,...\n      PUSH 40\t\t\ttoken.transferFrom(msg.sender,...\n      MLOAD \t\t\ttoken.transferFrom(msg.sender,...\n      DUP1 \t\t\ttoken.transferFrom(msg.sender,...\n      DUP4 \t\t\ttoken.transferFrom(msg.sender,...\n      SUB \t\t\ttoken.transferFrom(msg.sender,...\n      DUP2 \t\t\ttoken.transferFrom(msg.sender,...\n      PUSH 0\t\t\ttoken.transferFrom(msg.sender,...\n      DUP8 \t\t\ttoken.transferFrom(msg.sender,...\n      GAS \t\t\ttoken.transferFrom(msg.sender,...\n      CALL \t\t\ttoken.transferFrom(msg.sender,...\n      ISZERO \t\t\ttoken.transferFrom(msg.sender,...\n      DUP1 \t\t\ttoken.transferFrom(msg.sender,...\n      ISZERO \t\t\ttoken.transferFrom(msg.sender,...\n      PUSH [tag] 112\t\t\ttoken.transferFrom(msg.sender,...\n      JUMPI \t\t\ttoken.transferFrom(msg.sender,...\n      RETURNDATASIZE \t\t\ttoken.transferFrom(msg.sender,...\n      PUSH 0\t\t\ttoken.transferFrom(msg.sender,...\n      DUP1 \t\t\ttoken.transferFrom(msg.sender,...\n      RETURNDATACOPY \t\t\ttoken.transferFrom(msg.sender,...\n      RETURNDATASIZE \t\t\ttoken.transferFrom(msg.sender,...\n      PUSH 0\t\t\ttoken.transferFrom(msg.sender,...\n      REVERT \t\t\ttoken.transferFrom(msg.sender,...\n    tag 112\t\t\ttoken.transferFrom(msg.sender,...\n      JUMPDEST \t\t\ttoken.transferFrom(msg.sender,...\n      POP \t\t\ttoken.transferFrom(msg.sender,...\n      POP \t\t\ttoken.transferFrom(msg.sender,...\n      POP \t\t\ttoken.transferFrom(msg.sender,...\n      POP \t\t\ttoken.transferFrom(msg.sender,...\n      PUSH 40\t\t\ttoken.transferFrom(msg.sender,...\n      MLOAD \t\t\ttoken.transferFrom(msg.sender,...\n      RETURNDATASIZE \t\t\ttoken.transferFrom(msg.sender,...\n      PUSH 1F\t\t\ttoken.transferFrom(msg.sender,...\n      NOT \t\t\ttoken.transferFrom(msg.sender,...\n      PUSH 1F\t\t\ttoken.transferFrom(msg.sender,...\n      DUP3 \t\t\ttoken.transferFrom(msg.sender,...\n      ADD \t\t\ttoken.transferFrom(msg.sender,...\n      AND \t\t\ttoken.transferFrom(msg.sender,...\n      DUP3 \t\t\ttoken.transferFrom(msg.sender,...\n      ADD \t\t\ttoken.transferFrom(msg.sender,...\n      DUP1 \t\t\ttoken.transferFrom(msg.sender,...\n      PUSH 40\t\t\ttoken.transferFrom(msg.sender,...\n      MSTORE \t\t\ttoken.transferFrom(msg.sender,...\n      POP \t\t\ttoken.transferFrom(msg.sender,...\n      DUP2 \t\t\ttoken.transferFrom(msg.sender,...\n      ADD \t\t\ttoken.transferFrom(msg.sender,...\n      SWAP1 \t\t\ttoken.transferFrom(msg.sender,...\n      PUSH [tag] 113\t\t\ttoken.transferFrom(msg.sender,...\n      SWAP2 \t\t\ttoken.transferFrom(msg.sender,...\n      SWAP1 \t\t\ttoken.transferFrom(msg.sender,...\n      PUSH [tag] 44\t\t\ttoken.transferFrom(msg.sender,...\n      JUMP \t\t\ttoken.transferFrom(msg.sender,...\n    tag 113\t\t\ttoken.transferFrom(msg.sender,...\n      JUMPDEST \t\t\ttoken.transferFrom(msg.sender,...\n      PUSH [tag] 114\t\t\trequire(token.transferFrom(msg...\n      JUMPI \t\t\trequire(token.transferFrom(msg...\n      PUSH 40\t\t\trequire(token.transferFrom(msg...\n      MLOAD \t\t\trequire(token.transferFrom(msg...\n      PUSH 8C379A000000000000000000000000000000000000000000000000000000000\t\t\trequire(token.transferFrom(msg...\n      DUP2 \t\t\trequire(token.transferFrom(msg...\n      MSTORE \t\t\trequire(token.transferFrom(msg...\n      PUSH 4\t\t\trequire(token.transferFrom(msg...\n      ADD \t\t\trequire(token.transferFrom(msg...\n      PUSH [tag] 115\t\t\trequire(token.transferFrom(msg...\n      SWAP1 \t\t\trequire(token.transferFrom(msg...\n      PUSH [tag] 116\t\t\trequire(token.transferFrom(msg...\n      JUMP \t\t\trequire(token.transferFrom(msg...\n    tag 115\t\t\trequire(token.transferFrom(msg...\n      JUMPDEST \t\t\trequire(token.transferFrom(msg...\n      PUSH 40\t\t\trequire(token.transferFrom(msg...\n      MLOAD \t\t\trequire(token.transferFrom(msg...\n      DUP1 \t\t\trequire(token.transferFrom(msg...\n      SWAP2 \t\t\trequire(token.transferFrom(msg...\n      SUB \t\t\trequire(token.transferFrom(msg...\n      SWAP1 \t\t\trequire(token.transferFrom(msg...\n      REVERT \t\t\trequire(token.transferFrom(msg...\n    tag 114\t\t\trequire(token.transferFrom(msg...\n      JUMPDEST \t\t\trequire(token.transferFrom(msg...\n      POP \t\t\t{\\r\\n            require(recip...\n    tag 100\t\t\tif(msg.sender != address(this)...\n      JUMPDEST \t\t\tif(msg.sender != address(this)...\n      DUP1 \t\t\tpriceDifference\n      DUP7 \t\t\tdesiredPrice\n      PUSH [tag] 117\t\t\tdesiredPrice - priceDifference\n      SWAP2 \t\t\tdesiredPrice - priceDifference\n      SWAP1 \t\t\tdesiredPrice - priceDifference\n      PUSH [tag] 118\t\t\tdesiredPrice - priceDifference\n      JUMP \t\t\tdesiredPrice - priceDifference\n    tag 117\t\t\tdesiredPrice - priceDifference\n      JUMPDEST \t\t\tdesiredPrice - priceDifference\n      DUP3 \t\t\tcurrentPrice\n      LT \t\t\tcurrentPrice >= desiredPrice -...\n      ISZERO \t\t\tcurrentPrice >= desiredPrice -...\n      DUP1 \t\t\tcurrentPrice >= desiredPrice -...\n      ISZERO \t\t\tcurrentPrice >= desiredPrice -...\n      PUSH [tag] 119\t\t\tcurrentPrice >= desiredPrice -...\n      JUMPI \t\t\tcurrentPrice >= desiredPrice -...\n      POP \t\t\tcurrentPrice >= desiredPrice -...\n      DUP1 \t\t\tpriceDifference\n      DUP7 \t\t\tdesiredPrice\n      PUSH [tag] 120\t\t\tdesiredPrice + priceDifference\n      SWAP2 \t\t\tdesiredPrice + priceDifference\n      SWAP1 \t\t\tdesiredPrice + priceDifference\n      PUSH [tag] 66\t\t\tdesiredPrice + priceDifference\n      JUMP \t\t\tdesiredPrice + priceDifference\n    tag 120\t\t\tdesiredPrice + priceDifference\n      JUMPDEST \t\t\tdesiredPrice + priceDifference\n      DUP3 \t\t\tcurrentPrice\n      GT \t\t\tcurrentPrice <= desiredPrice +...\n      ISZERO \t\t\tcurrentPrice <= desiredPrice +...\n    tag 119\t\t\tcurrentPrice >= desiredPrice -...\n      JUMPDEST \t\t\tcurrentPrice >= desiredPrice -...\n      ISZERO \t\t\tif (currentPrice >= desiredPri...\n      PUSH [tag] 121\t\t\tif (currentPrice >= desiredPri...\n      JUMPI \t\t\tif (currentPrice >= desiredPri...\n      PUSH 0\t\t\tuint256 i\n    tag 122\t\t\tfor (uint256 i = 0; i < recipi...\n      JUMPDEST \t\t\tfor (uint256 i = 0; i < recipi...\n      DUP9 \t\t\trecipients\n      MLOAD \t\t\trecipients.length\n      DUP2 \t\t\ti\n      LT \t\t\ti < recipients.length\n      ISZERO \t\t\tfor (uint256 i = 0; i < recipi...\n      PUSH [tag] 123\t\t\tfor (uint256 i = 0; i < recipi...\n      JUMPI \t\t\tfor (uint256 i = 0; i < recipi...\n      DUP4 \t\t\ttoken\n      PUSH FFFFFFFFFFFFFFFFFFFFFFFFFFFFFFFFFFFFFFFF\t\t\ttoken.transfer\n      AND \t\t\ttoken.transfer\n      PUSH A9059CBB\t\t\ttoken.transfer\n      DUP11 \t\t\trecipients\n      DUP4 \t\t\ti\n      DUP2 \t\t\trecipients[i]\n      MLOAD \t\t\trecipients[i]\n      DUP2 \t\t\trecipients[i]\n      LT \t\t\trecipients[i]\n      PUSH [tag] 125\t\t\trecipients[i]\n      JUMPI \t\t\trecipients[i]\n      PUSH [tag] 126\t\t\trecipients[i]\n      PUSH [tag] 36\t\t\trecipients[i]\n      JUMP \t\t\trecipients[i]\n    tag 126\t\t\trecipients[i]\n      JUMPDEST \t\t\trecipients[i]\n    tag 125\t\t\trecipients[i]\n      JUMPDEST \t\t\trecipients[i]\n      PUSH 20\t\t\trecipients[i]\n      MUL \t\t\trecipients[i]\n      PUSH 20\t\t\trecipients[i]\n      ADD \t\t\trecipients[i]\n      ADD \t\t\trecipients[i]\n      MLOAD \t\t\trecipients[i]\n      DUP11 \t\t\tamounts\n      DUP5 \t\t\ti\n      DUP2 \t\t\tamounts[i]\n      MLOAD \t\t\tamounts[i]\n      DUP2 \t\t\tamounts[i]\n      LT \t\t\tamounts[i]\n      PUSH [tag] 127\t\t\tamounts[i]\n      JUMPI \t\t\tamounts[i]\n      PUSH [tag] 128\t\t\tamounts[i]\n      PUSH [tag] 36\t\t\tamounts[i]\n      JUMP \t\t\tamounts[i]\n    tag 128\t\t\tamounts[i]\n      JUMPDEST \t\t\tamounts[i]\n    tag 127\t\t\tamounts[i]\n      JUMPDEST \t\t\tamounts[i]\n      PUSH 20\t\t\tamounts[i]\n      MUL \t\t\tamounts[i]\n      PUSH 20\t\t\tamounts[i]\n      ADD \t\t\tamounts[i]\n      ADD \t\t\tamounts[i]\n      MLOAD \t\t\tamounts[i]\n      PUSH 40\t\t\ttoken.transfer(recipients[i], ...\n      MLOAD \t\t\ttoken.transfer(recipients[i], ...\n      DUP4 \t\t\ttoken.transfer(recipients[i], ...\n      PUSH FFFFFFFF\t\t\ttoken.transfer(recipients[i], ...\n      AND \t\t\ttoken.transfer(recipients[i], ...\n      PUSH E0\t\t\ttoken.transfer(recipients[i], ...\n      SHL \t\t\ttoken.transfer(recipients[i], ...\n      DUP2 \t\t\ttoken.transfer(recipients[i], ...\n      MSTORE \t\t\ttoken.transfer(recipients[i], ...\n      PUSH 4\t\t\ttoken.transfer(recipients[i], ...\n      ADD \t\t\ttoken.transfer(recipients[i], ...\n      PUSH [tag] 129\t\t\ttoken.transfer(recipients[i], ...\n      SWAP3 \t\t\ttoken.transfer(recipients[i], ...\n      SWAP2 \t\t\ttoken.transfer(recipients[i], ...\n      SWAP1 \t\t\ttoken.transfer(recipients[i], ...\n      PUSH [tag] 40\t\t\ttoken.transfer(recipients[i], ...\n      JUMP \t\t\ttoken.transfer(recipients[i], ...\n    tag 129\t\t\ttoken.transfer(recipients[i], ...\n      JUMPDEST \t\t\ttoken.transfer(recipients[i], ...\n      PUSH 20\t\t\ttoken.transfer(recipients[i], ...\n      PUSH 40\t\t\ttoken.transfer(recipients[i], ...\n      MLOAD \t\t\ttoken.transfer(recipients[i], ...\n      DUP1 \t\t\ttoken.transfer(recipients[i], ...\n      DUP4 \t\t\ttoken.transfer(recipients[i], ...\n      SUB \t\t\ttoken.transfer(recipients[i], ...\n      DUP2 \t\t\ttoken.transfer(recipients[i], ...\n      PUSH 0\t\t\ttoken.transfer(recipients[i], ...\n      DUP8 \t\t\ttoken.transfer(recipients[i], ...\n      GAS \t\t\ttoken.transfer(recipients[i], ...\n      CALL \t\t\ttoken.transfer(recipients[i], ...\n      ISZERO \t\t\ttoken.transfer(recipients[i], ...\n      DUP1 \t\t\ttoken.transfer(recipients[i], ...\n      ISZERO \t\t\ttoken.transfer(recipients[i], ...\n      PUSH [tag] 131\t\t\ttoken.transfer(recipients[i], ...\n      JUMPI \t\t\ttoken.transfer(recipients[i], ...\n      RETURNDATASIZE \t\t\ttoken.transfer(recipients[i], ...\n      PUSH 0\t\t\ttoken.transfer(recipients[i], ...\n      DUP1 \t\t\ttoken.transfer(recipients[i], ...\n      RETURNDATACOPY \t\t\ttoken.transfer(recipients[i], ...\n      RETURNDATASIZE \t\t\ttoken.transfer(recipients[i], ...\n      PUSH 0\t\t\ttoken.transfer(recipients[i], ...\n      REVERT \t\t\ttoken.transfer(recipients[i], ...\n    tag 131\t\t\ttoken.transfer(recipients[i], ...\n      JUMPDEST \t\t\ttoken.transfer(recipients[i], ...\n      POP \t\t\ttoken.transfer(recipients[i], ...\n      POP \t\t\ttoken.transfer(recipients[i], ...\n      POP \t\t\ttoken.transfer(recipients[i], ...\n      POP \t\t\ttoken.transfer(recipients[i], ...\n      PUSH 40\t\t\ttoken.transfer(recipients[i], ...\n      MLOAD \t\t\ttoken.transfer(recipients[i], ...\n      RETURNDATASIZE \t\t\ttoken.transfer(recipients[i], ...\n      PUSH 1F\t\t\ttoken.transfer(recipients[i], ...\n      NOT \t\t\ttoken.transfer(recipients[i], ...\n      PUSH 1F\t\t\ttoken.transfer(recipients[i], ...\n      DUP3 \t\t\ttoken.transfer(recipients[i], ...\n      ADD \t\t\ttoken.transfer(recipients[i], ...\n      AND \t\t\ttoken.transfer(recipients[i], ...\n      DUP3 \t\t\ttoken.transfer(recipients[i], ...\n      ADD \t\t\ttoken.transfer(recipients[i], ...\n      DUP1 \t\t\ttoken.transfer(recipients[i], ...\n      PUSH 40\t\t\ttoken.transfer(recipients[i], ...\n      MSTORE \t\t\ttoken.transfer(recipients[i], ...\n      POP \t\t\ttoken.transfer(recipients[i], ...\n      DUP2 \t\t\ttoken.transfer(recipients[i], ...\n      ADD \t\t\ttoken.transfer(recipients[i], ...\n      SWAP1 \t\t\ttoken.transfer(recipients[i], ...\n      PUSH [tag] 132\t\t\ttoken.transfer(recipients[i], ...\n      SWAP2 \t\t\ttoken.transfer(recipients[i], ...\n      SWAP1 \t\t\ttoken.transfer(recipients[i], ...\n      PUSH [tag] 44\t\t\ttoken.transfer(recipients[i], ...\n      JUMP \t\t\ttoken.transfer(recipients[i], ...\n    tag 132\t\t\ttoken.transfer(recipients[i], ...\n      JUMPDEST \t\t\ttoken.transfer(recipients[i], ...\n      POP \t\t\ttoken.transfer(recipients[i], ...\n      DUP1 \t\t\ti++\n      DUP1 \t\t\ti++\n      PUSH [tag] 133\t\t\ti++\n      SWAP1 \t\t\ti++\n      PUSH [tag] 55\t\t\ti++\n      JUMP \t\t\ti++\n    tag 133\t\t\ti++\n      JUMPDEST \t\t\ti++\n      SWAP2 \t\t\ti++\n      POP \t\t\ti++\n      POP \t\t\ti++\n      PUSH [tag] 122\t\t\tfor (uint256 i = 0; i < recipi...\n      JUMP \t\t\tfor (uint256 i = 0; i < recipi...\n    tag 123\t\t\tfor (uint256 i = 0; i < recipi...\n      JUMPDEST \t\t\tfor (uint256 i = 0; i < recipi...\n      POP \t\t\tfor (uint256 i = 0; i < recipi...\n      PUSH [tag] 134\t\t\tif (currentPrice >= desiredPri...\n      JUMP \t\t\tif (currentPrice >= desiredPri...\n    tag 121\t\t\tif (currentPrice >= desiredPri...\n      JUMPDEST \t\t\tif (currentPrice >= desiredPri...\n      PUSH 0\t\t\tbytes memory data\n      DUP10 \t\t\ttokenAddress\n      DUP10 \t\t\trecipients\n      DUP10 \t\t\tamounts\n      DUP10 \t\t\tdesiredPrice\n      DUP10 \t\t\tinterval\n      DUP10 \t\t\tpercentage\n      PUSH 40\t\t\tabi.encodeWithSignature(\\r\\n  ...\n      MLOAD \t\t\tabi.encodeWithSignature(\\r\\n  ...\n      PUSH 24\t\t\tabi.encodeWithSignature(\\r\\n  ...\n      ADD \t\t\tabi.encodeWithSignature(\\r\\n  ...\n      PUSH [tag] 135\t\t\tabi.encodeWithSignature(\\r\\n  ...\n      SWAP7 \t\t\tabi.encodeWithSignature(\\r\\n  ...\n      SWAP6 \t\t\tabi.encodeWithSignature(\\r\\n  ...\n      SWAP5 \t\t\tabi.encodeWithSignature(\\r\\n  ...\n      SWAP4 \t\t\tabi.encodeWithSignature(\\r\\n  ...\n      SWAP3 \t\t\tabi.encodeWithSignature(\\r\\n  ...\n      SWAP2 \t\t\tabi.encodeWithSignature(\\r\\n  ...\n      SWAP1 \t\t\tabi.encodeWithSignature(\\r\\n  ...\n      PUSH [tag] 136\t\t\tabi.encodeWithSignature(\\r\\n  ...\n      JUMP \t\t\tabi.encodeWithSignature(\\r\\n  ...\n    tag 135\t\t\tabi.encodeWithSignature(\\r\\n  ...\n      JUMPDEST \t\t\tabi.encodeWithSignature(\\r\\n  ...\n      PUSH 40\t\t\tabi.encodeWithSignature(\\r\\n  ...\n      MLOAD \t\t\tabi.encodeWithSignature(\\r\\n  ...\n      PUSH 20\t\t\tabi.encodeWithSignature(\\r\\n  ...\n      DUP2 \t\t\tabi.encodeWithSignature(\\r\\n  ...\n      DUP4 \t\t\tabi.encodeWithSignature(\\r\\n  ...\n      SUB \t\t\tabi.encodeWithSignature(\\r\\n  ...\n      SUB \t\t\tabi.encodeWithSignature(\\r\\n  ...\n      DUP2 \t\t\tabi.encodeWithSignature(\\r\\n  ...\n      MSTORE \t\t\tabi.encodeWithSignature(\\r\\n  ...\n      SWAP1 \t\t\tabi.encodeWithSignature(\\r\\n  ...\n      PUSH 40\t\t\tabi.encodeWithSignature(\\r\\n  ...\n      MSTORE \t\t\tabi.encodeWithSignature(\\r\\n  ...\n      PUSH E826271A00000000000000000000000000000000000000000000000000000000\t\t\tabi.encodeWithSignature(\\r\\n  ...\n      PUSH FFFFFFFFFFFFFFFFFFFFFFFFFFFFFFFFFFFFFFFFFFFFFFFFFFFFFFFF\t\t\tabi.encodeWithSignature(\\r\\n  ...\n      NOT \t\t\tabi.encodeWithSignature(\\r\\n  ...\n      AND \t\t\tabi.encodeWithSignature(\\r\\n  ...\n      PUSH 20\t\t\tabi.encodeWithSignature(\\r\\n  ...\n      DUP3 \t\t\tabi.encodeWithSignature(\\r\\n  ...\n      ADD \t\t\tabi.encodeWithSignature(\\r\\n  ...\n      DUP1 \t\t\tabi.encodeWithSignature(\\r\\n  ...\n      MLOAD \t\t\tabi.encodeWithSignature(\\r\\n  ...\n      PUSH FFFFFFFFFFFFFFFFFFFFFFFFFFFFFFFFFFFFFFFFFFFFFFFFFFFFFFFF\t\t\tabi.encodeWithSignature(\\r\\n  ...\n      DUP4 \t\t\tabi.encodeWithSignature(\\r\\n  ...\n      DUP2 \t\t\tabi.encodeWithSignature(\\r\\n  ...\n      DUP4 \t\t\tabi.encodeWithSignature(\\r\\n  ...\n      AND \t\t\tabi.encodeWithSignature(\\r\\n  ...\n      OR \t\t\tabi.encodeWithSignature(\\r\\n  ...\n      DUP4 \t\t\tabi.encodeWithSignature(\\r\\n  ...\n      MSTORE \t\t\tabi.encodeWithSignature(\\r\\n  ...\n      POP \t\t\tabi.encodeWithSignature(\\r\\n  ...\n      POP \t\t\tabi.encodeWithSignature(\\r\\n  ...\n      POP \t\t\tabi.encodeWithSignature(\\r\\n  ...\n      POP \t\t\tabi.encodeWithSignature(\\r\\n  ...\n      SWAP1 \t\t\tbytes memory data = abi.encode...\n      POP \t\t\tbytes memory data = abi.encode...\n      PUSH 0\t\t\tbytes memory scheduleId\n      DUP1 \t\t\tscheduler\n      PUSH 0\t\t\tscheduler\n      SWAP1 \t\t\tscheduler\n      SLOAD \t\t\tscheduler\n      SWAP1 \t\t\tscheduler\n      PUSH 100\t\t\tscheduler\n      EXP \t\t\tscheduler\n      SWAP1 \t\t\tscheduler\n      DIV \t\t\tscheduler\n      PUSH FFFFFFFFFFFFFFFFFFFFFFFFFFFFFFFFFFFFFFFF\t\t\tscheduler\n      AND \t\t\tscheduler\n      PUSH FFFFFFFFFFFFFFFFFFFFFFFFFFFFFFFFFFFFFFFF\t\t\tscheduler.scheduleCall\n      AND \t\t\tscheduler.scheduleCall\n      PUSH 168D560D\t\t\tscheduler.scheduleCall\n      ADDRESS \t\t\tthis\n      PUSH 0\t\t\t0\n      PUSH 200B20\t\t\t2100000\n      PUSH FA00\t\t\t64000\n      DUP13 \t\t\tinterval\n      DUP9 \t\t\tdata\n      PUSH 40\t\t\tscheduler.scheduleCall(address...\n      MLOAD \t\t\tscheduler.scheduleCall(address...\n      DUP8 \t\t\tscheduler.scheduleCall(address...\n      PUSH FFFFFFFF\t\t\tscheduler.scheduleCall(address...\n      AND \t\t\tscheduler.scheduleCall(address...\n      PUSH E0\t\t\tscheduler.scheduleCall(address...\n      SHL \t\t\tscheduler.scheduleCall(address...\n      DUP2 \t\t\tscheduler.scheduleCall(address...\n      MSTORE \t\t\tscheduler.scheduleCall(address...\n      PUSH 4\t\t\tscheduler.scheduleCall(address...\n      ADD \t\t\tscheduler.scheduleCall(address...\n      PUSH [tag] 137\t\t\tscheduler.scheduleCall(address...\n      SWAP7 \t\t\tscheduler.scheduleCall(address...\n      SWAP6 \t\t\tscheduler.scheduleCall(address...\n      SWAP5 \t\t\tscheduler.scheduleCall(address...\n      SWAP4 \t\t\tscheduler.scheduleCall(address...\n      SWAP3 \t\t\tscheduler.scheduleCall(address...\n      SWAP2 \t\t\tscheduler.scheduleCall(address...\n      SWAP1 \t\t\tscheduler.scheduleCall(address...\n      PUSH [tag] 79\t\t\tscheduler.scheduleCall(address...\n      JUMP \t\t\tscheduler.scheduleCall(address...\n    tag 137\t\t\tscheduler.scheduleCall(address...\n      JUMPDEST \t\t\tscheduler.scheduleCall(address...\n      PUSH 0\t\t\tscheduler.scheduleCall(address...\n      PUSH 40\t\t\tscheduler.scheduleCall(address...\n      MLOAD \t\t\tscheduler.scheduleCall(address...\n      DUP1 \t\t\tscheduler.scheduleCall(address...\n      DUP4 \t\t\tscheduler.scheduleCall(address...\n      SUB \t\t\tscheduler.scheduleCall(address...\n      DUP2 \t\t\tscheduler.scheduleCall(address...\n      PUSH 0\t\t\tscheduler.scheduleCall(address...\n      DUP8 \t\t\tscheduler.scheduleCall(address...\n      GAS \t\t\tscheduler.scheduleCall(address...\n      CALL \t\t\tscheduler.scheduleCall(address...\n      ISZERO \t\t\tscheduler.scheduleCall(address...\n      DUP1 \t\t\tscheduler.scheduleCall(address...\n      ISZERO \t\t\tscheduler.scheduleCall(address...\n      PUSH [tag] 139\t\t\tscheduler.scheduleCall(address...\n      JUMPI \t\t\tscheduler.scheduleCall(address...\n      RETURNDATASIZE \t\t\tscheduler.scheduleCall(address...\n      PUSH 0\t\t\tscheduler.scheduleCall(address...\n      DUP1 \t\t\tscheduler.scheduleCall(address...\n      RETURNDATACOPY \t\t\tscheduler.scheduleCall(address...\n      RETURNDATASIZE \t\t\tscheduler.scheduleCall(address...\n      PUSH 0\t\t\tscheduler.scheduleCall(address...\n      REVERT \t\t\tscheduler.scheduleCall(address...\n    tag 139\t\t\tscheduler.scheduleCall(address...\n      JUMPDEST \t\t\tscheduler.scheduleCall(address...\n      POP \t\t\tscheduler.scheduleCall(address...\n      POP \t\t\tscheduler.scheduleCall(address...\n      POP \t\t\tscheduler.scheduleCall(address...\n      POP \t\t\tscheduler.scheduleCall(address...\n      PUSH 40\t\t\tscheduler.scheduleCall(address...\n      MLOAD \t\t\tscheduler.scheduleCall(address...\n      RETURNDATASIZE \t\t\tscheduler.scheduleCall(address...\n      PUSH 0\t\t\tscheduler.scheduleCall(address...\n      DUP3 \t\t\tscheduler.scheduleCall(address...\n      RETURNDATACOPY \t\t\tscheduler.scheduleCall(address...\n      RETURNDATASIZE \t\t\tscheduler.scheduleCall(address...\n      PUSH 1F\t\t\tscheduler.scheduleCall(address...\n      NOT \t\t\tscheduler.scheduleCall(address...\n      PUSH 1F\t\t\tscheduler.scheduleCall(address...\n      DUP3 \t\t\tscheduler.scheduleCall(address...\n      ADD \t\t\tscheduler.scheduleCall(address...\n      AND \t\t\tscheduler.scheduleCall(address...\n      DUP3 \t\t\tscheduler.scheduleCall(address...\n      ADD \t\t\tscheduler.scheduleCall(address...\n      DUP1 \t\t\tscheduler.scheduleCall(address...\n      PUSH 40\t\t\tscheduler.scheduleCall(address...\n      MSTORE \t\t\tscheduler.scheduleCall(address...\n      POP \t\t\tscheduler.scheduleCall(address...\n      DUP2 \t\t\tscheduler.scheduleCall(address...\n      ADD \t\t\tscheduler.scheduleCall(address...\n      SWAP1 \t\t\tscheduler.scheduleCall(address...\n      PUSH [tag] 140\t\t\tscheduler.scheduleCall(address...\n      SWAP2 \t\t\tscheduler.scheduleCall(address...\n      SWAP1 \t\t\tscheduler.scheduleCall(address...\n      PUSH [tag] 83\t\t\tscheduler.scheduleCall(address...\n      JUMP \t\t\tscheduler.scheduleCall(address...\n    tag 140\t\t\tscheduler.scheduleCall(address...\n      JUMPDEST \t\t\tscheduler.scheduleCall(address...\n      SWAP1 \t\t\tbytes memory scheduleId = sche...\n      POP \t\t\tbytes memory scheduleId = sche...\n      DUP1 \t\t\tscheduleId\n      PUSH 40\t\t\tPriceCheckScheduled(scheduleId...\n      MLOAD \t\t\tPriceCheckScheduled(scheduleId...\n      PUSH [tag] 141\t\t\tPriceCheckScheduled(scheduleId...\n      SWAP2 \t\t\tPriceCheckScheduled(scheduleId...\n      SWAP1 \t\t\tPriceCheckScheduled(scheduleId...\n      PUSH [tag] 85\t\t\tPriceCheckScheduled(scheduleId...\n      JUMP \t\t\tPriceCheckScheduled(scheduleId...\n    tag 141\t\t\tPriceCheckScheduled(scheduleId...\n      JUMPDEST \t\t\tPriceCheckScheduled(scheduleId...\n      PUSH 40\t\t\tPriceCheckScheduled(scheduleId...\n      MLOAD \t\t\tPriceCheckScheduled(scheduleId...\n      DUP1 \t\t\tPriceCheckScheduled(scheduleId...\n      SWAP2 \t\t\tPriceCheckScheduled(scheduleId...\n      SUB \t\t\tPriceCheckScheduled(scheduleId...\n      SWAP1 \t\t\tPriceCheckScheduled(scheduleId...\n      KECCAK256 \t\t\tPriceCheckScheduled(scheduleId...\n      PUSH 9E989CCC644AFF3DCCB44D63C0125CF7C49F64C9631016543486E7DFC72187C7\t\t\tPriceCheckScheduled(scheduleId...\n      DUP9 \t\t\tinterval\n      TIMESTAMP \t\t\tblock.timestamp\n      PUSH [tag] 142\t\t\tblock.timestamp + interval\n      SWAP2 \t\t\tblock.timestamp + interval\n      SWAP1 \t\t\tblock.timestamp + interval\n      PUSH [tag] 66\t\t\tblock.timestamp + interval\n      JUMP \t\t\tblock.timestamp + interval\n    tag 142\t\t\tblock.timestamp + interval\n      JUMPDEST \t\t\tblock.timestamp + interval\n      PUSH 40\t\t\tPriceCheckScheduled(scheduleId...\n      MLOAD \t\t\tPriceCheckScheduled(scheduleId...\n      PUSH [tag] 143\t\t\tPriceCheckScheduled(scheduleId...\n      SWAP2 \t\t\tPriceCheckScheduled(scheduleId...\n      SWAP1 \t\t\tPriceCheckScheduled(scheduleId...\n      PUSH [tag] 53\t\t\tPriceCheckScheduled(scheduleId...\n      JUMP \t\t\tPriceCheckScheduled(scheduleId...\n    tag 143\t\t\tPriceCheckScheduled(scheduleId...\n      JUMPDEST \t\t\tPriceCheckScheduled(scheduleId...\n      PUSH 40\t\t\tPriceCheckScheduled(scheduleId...\n      MLOAD \t\t\tPriceCheckScheduled(scheduleId...\n      DUP1 \t\t\tPriceCheckScheduled(scheduleId...\n      SWAP2 \t\t\tPriceCheckScheduled(scheduleId...\n      SUB \t\t\tPriceCheckScheduled(scheduleId...\n      SWAP1 \t\t\tPriceCheckScheduled(scheduleId...\n      LOG2 \t\t\tPriceCheckScheduled(scheduleId...\n      POP \t\t\t{\\r\\n            bytes memory ...\n      POP \t\t\t{\\r\\n            bytes memory ...\n    tag 134\t\t\tif (currentPrice >= desiredPri...\n      JUMPDEST \t\t\tif (currentPrice >= desiredPri...\n      POP \t\t\t{\\r\\n\\r\\n        IERC20 token ...\n      POP \t\t\t{\\r\\n\\r\\n        IERC20 token ...\n      POP \t\t\t{\\r\\n\\r\\n        IERC20 token ...\n      POP \t\t\tfunction priceTriggeredDispers...\n      POP \t\t\tfunction priceTriggeredDispers...\n      POP \t\t\tfunction priceTriggeredDispers...\n      POP \t\t\tfunction priceTriggeredDispers...\n      POP \t\t\tfunction priceTriggeredDispers...\n      POP \t\t\tfunction priceTriggeredDispers...\n      JUMP \t\t\tfunction priceTriggeredDispers...\n    tag 26\t\t\tfunction dispersal(address tok...\n      JUMPDEST \t\t\tfunction dispersal(address tok...\n      PUSH 0\t\t\tIERC20 token\n      DUP4 \t\t\ttokenAddress\n      SWAP1 \t\t\tIERC20 token = IERC20(tokenAdd...\n      POP \t\t\tIERC20 token = IERC20(tokenAdd...\n      DUP2 \t\t\tamount\n      MLOAD \t\t\tamount.length\n      DUP4 \t\t\trecipients\n      MLOAD \t\t\trecipients.length\n      EQ \t\t\trecipients.length == amount.le...\n      PUSH [tag] 145\t\t\trequire(recipients.length == a...\n      JUMPI \t\t\trequire(recipients.length == a...\n      PUSH 40\t\t\trequire(recipients.length == a...\n      MLOAD \t\t\trequire(recipients.length == a...\n      PUSH 8C379A000000000000000000000000000000000000000000000000000000000\t\t\trequire(recipients.length == a...\n      DUP2 \t\t\trequire(recipients.length == a...\n      MSTORE \t\t\trequire(recipients.length == a...\n      PUSH 4\t\t\trequire(recipients.length == a...\n      ADD \t\t\trequire(recipients.length == a...\n      PUSH [tag] 146\t\t\trequire(recipients.length == a...\n      SWAP1 \t\t\trequire(recipients.length == a...\n      PUSH [tag] 59\t\t\trequire(recipients.length == a...\n      JUMP \t\t\trequire(recipients.length == a...\n    tag 146\t\t\trequire(recipients.length == a...\n      JUMPDEST \t\t\trequire(recipients.length == a...\n      PUSH 40\t\t\trequire(recipients.length == a...\n      MLOAD \t\t\trequire(recipients.length == a...\n      DUP1 \t\t\trequire(recipients.length == a...\n      SWAP2 \t\t\trequire(recipients.length == a...\n      SUB \t\t\trequire(recipients.length == a...\n      SWAP1 \t\t\trequire(recipients.length == a...\n      REVERT \t\t\trequire(recipients.length == a...\n    tag 145\t\t\trequire(recipients.length == a...\n      JUMPDEST \t\t\trequire(recipients.length == a...\n      PUSH 0\t\t\tuint256 total\n      DUP1 \t\t\tuint256 i\n    tag 147\t\t\tfor (uint256 i = 0; i < recipi...\n      JUMPDEST \t\t\tfor (uint256 i = 0; i < recipi...\n      DUP5 \t\t\trecipients\n      MLOAD \t\t\trecipients.length\n      DUP2 \t\t\ti\n      LT \t\t\ti < recipients.length\n      ISZERO \t\t\tfor (uint256 i = 0; i < recipi...\n      PUSH [tag] 148\t\t\tfor (uint256 i = 0; i < recipi...\n      JUMPI \t\t\tfor (uint256 i = 0; i < recipi...\n      DUP4 \t\t\tamount\n      DUP2 \t\t\ti\n      DUP2 \t\t\tamount[i]\n      MLOAD \t\t\tamount[i]\n      DUP2 \t\t\tamount[i]\n      LT \t\t\tamount[i]\n      PUSH [tag] 150\t\t\tamount[i]\n      JUMPI \t\t\tamount[i]\n      PUSH [tag] 151\t\t\tamount[i]\n      PUSH [tag] 36\t\t\tamount[i]\n      JUMP \t\t\tamount[i]\n    tag 151\t\t\tamount[i]\n      JUMPDEST \t\t\tamount[i]\n    tag 150\t\t\tamount[i]\n      JUMPDEST \t\t\tamount[i]\n      PUSH 20\t\t\tamount[i]\n      MUL \t\t\tamount[i]\n      PUSH 20\t\t\tamount[i]\n      ADD \t\t\tamount[i]\n      ADD \t\t\tamount[i]\n      MLOAD \t\t\tamount[i]\n      DUP3 \t\t\ttotal\n      PUSH [tag] 152\t\t\ttotal + amount[i]\n      SWAP2 \t\t\ttotal + amount[i]\n      SWAP1 \t\t\ttotal + amount[i]\n      PUSH [tag] 66\t\t\ttotal + amount[i]\n      JUMP \t\t\ttotal + amount[i]\n    tag 152\t\t\ttotal + amount[i]\n      JUMPDEST \t\t\ttotal + amount[i]\n      SWAP2 \t\t\ttotal = total + amount[i]\n      POP \t\t\ttotal = total + amount[i]\n      DUP1 \t\t\ti++\n      DUP1 \t\t\ti++\n      PUSH [tag] 153\t\t\ti++\n      SWAP1 \t\t\ti++\n      PUSH [tag] 55\t\t\ti++\n      JUMP \t\t\ti++\n    tag 153\t\t\ti++\n      JUMPDEST \t\t\ti++\n      SWAP2 \t\t\ti++\n      POP \t\t\ti++\n      POP \t\t\ti++\n      PUSH [tag] 147\t\t\tfor (uint256 i = 0; i < recipi...\n      JUMP \t\t\tfor (uint256 i = 0; i < recipi...\n    tag 148\t\t\tfor (uint256 i = 0; i < recipi...\n      JUMPDEST \t\t\tfor (uint256 i = 0; i < recipi...\n      POP \t\t\tfor (uint256 i = 0; i < recipi...\n      DUP2 \t\t\ttoken\n      PUSH FFFFFFFFFFFFFFFFFFFFFFFFFFFFFFFFFFFFFFFF\t\t\ttoken.transferFrom\n      AND \t\t\ttoken.transferFrom\n      PUSH 23B872DD\t\t\ttoken.transferFrom\n      CALLER \t\t\tmsg.sender\n      ADDRESS \t\t\tthis\n      DUP5 \t\t\ttotal\n      PUSH 40\t\t\ttoken.transferFrom(msg.sender,...\n      MLOAD \t\t\ttoken.transferFrom(msg.sender,...\n      DUP5 \t\t\ttoken.transferFrom(msg.sender,...\n      PUSH FFFFFFFF\t\t\ttoken.transferFrom(msg.sender,...\n      AND \t\t\ttoken.transferFrom(msg.sender,...\n      PUSH E0\t\t\ttoken.transferFrom(msg.sender,...\n      SHL \t\t\ttoken.transferFrom(msg.sender,...\n      DUP2 \t\t\ttoken.transferFrom(msg.sender,...\n      MSTORE \t\t\ttoken.transferFrom(msg.sender,...\n      PUSH 4\t\t\ttoken.transferFrom(msg.sender,...\n      ADD \t\t\ttoken.transferFrom(msg.sender,...\n      PUSH [tag] 154\t\t\ttoken.transferFrom(msg.sender,...\n      SWAP4 \t\t\ttoken.transferFrom(msg.sender,...\n      SWAP3 \t\t\ttoken.transferFrom(msg.sender,...\n      SWAP2 \t\t\ttoken.transferFrom(msg.sender,...\n      SWAP1 \t\t\ttoken.transferFrom(msg.sender,...\n      PUSH [tag] 69\t\t\ttoken.transferFrom(msg.sender,...\n      JUMP \t\t\ttoken.transferFrom(msg.sender,...\n    tag 154\t\t\ttoken.transferFrom(msg.sender,...\n      JUMPDEST \t\t\ttoken.transferFrom(msg.sender,...\n      PUSH 20\t\t\ttoken.transferFrom(msg.sender,...\n      PUSH 40\t\t\ttoken.transferFrom(msg.sender,...\n      MLOAD \t\t\ttoken.transferFrom(msg.sender,...\n      DUP1 \t\t\ttoken.transferFrom(msg.sender,...\n      DUP4 \t\t\ttoken.transferFrom(msg.sender,...\n      SUB \t\t\ttoken.transferFrom(msg.sender,...\n      DUP2 \t\t\ttoken.transferFrom(msg.sender,...\n      PUSH 0\t\t\ttoken.transferFrom(msg.sender,...\n      DUP8 \t\t\ttoken.transferFrom(msg.sender,...\n      GAS \t\t\ttoken.transferFrom(msg.sender,...\n      CALL \t\t\ttoken.transferFrom(msg.sender,...\n      ISZERO \t\t\ttoken.transferFrom(msg.sender,...\n      DUP1 \t\t\ttoken.transferFrom(msg.sender,...\n      ISZERO \t\t\ttoken.transferFrom(msg.sender,...\n      PUSH [tag] 156\t\t\ttoken.transferFrom(msg.sender,...\n      JUMPI \t\t\ttoken.transferFrom(msg.sender,...\n      RETURNDATASIZE \t\t\ttoken.transferFrom(msg.sender,...\n      PUSH 0\t\t\ttoken.transferFrom(msg.sender,...\n      DUP1 \t\t\ttoken.transferFrom(msg.sender,...\n      RETURNDATACOPY \t\t\ttoken.transferFrom(msg.sender,...\n      RETURNDATASIZE \t\t\ttoken.transferFrom(msg.sender,...\n      PUSH 0\t\t\ttoken.transferFrom(msg.sender,...\n      REVERT \t\t\ttoken.transferFrom(msg.sender,...\n    tag 156\t\t\ttoken.transferFrom(msg.sender,...\n      JUMPDEST \t\t\ttoken.transferFrom(msg.sender,...\n      POP \t\t\ttoken.transferFrom(msg.sender,...\n      POP \t\t\ttoken.transferFrom(msg.sender,...\n      POP \t\t\ttoken.transferFrom(msg.sender,...\n      POP \t\t\ttoken.transferFrom(msg.sender,...\n      PUSH 40\t\t\ttoken.transferFrom(msg.sender,...\n      MLOAD \t\t\ttoken.transferFrom(msg.sender,...\n      RETURNDATASIZE \t\t\ttoken.transferFrom(msg.sender,...\n      PUSH 1F\t\t\ttoken.transferFrom(msg.sender,...\n      NOT \t\t\ttoken.transferFrom(msg.sender,...\n      PUSH 1F\t\t\ttoken.transferFrom(msg.sender,...\n      DUP3 \t\t\ttoken.transferFrom(msg.sender,...\n      ADD \t\t\ttoken.transferFrom(msg.sender,...\n      AND \t\t\ttoken.transferFrom(msg.sender,...\n      DUP3 \t\t\ttoken.transferFrom(msg.sender,...\n      ADD \t\t\ttoken.transferFrom(msg.sender,...\n      DUP1 \t\t\ttoken.transferFrom(msg.sender,...\n      PUSH 40\t\t\ttoken.transferFrom(msg.sender,...\n      MSTORE \t\t\ttoken.transferFrom(msg.sender,...\n      POP \t\t\ttoken.transferFrom(msg.sender,...\n      DUP2 \t\t\ttoken.transferFrom(msg.sender,...\n      ADD \t\t\ttoken.transferFrom(msg.sender,...\n      SWAP1 \t\t\ttoken.transferFrom(msg.sender,...\n      PUSH [tag] 157\t\t\ttoken.transferFrom(msg.sender,...\n      SWAP2 \t\t\ttoken.transferFrom(msg.sender,...\n      SWAP1 \t\t\ttoken.transferFrom(msg.sender,...\n      PUSH [tag] 44\t\t\ttoken.transferFrom(msg.sender,...\n      JUMP \t\t\ttoken.transferFrom(msg.sender,...\n    tag 157\t\t\ttoken.transferFrom(msg.sender,...\n      JUMPDEST \t\t\ttoken.transferFrom(msg.sender,...\n      PUSH [tag] 158\t\t\trequire(token.transferFrom(msg...\n      JUMPI \t\t\trequire(token.transferFrom(msg...\n      PUSH 40\t\t\trequire(token.transferFrom(msg...\n      MLOAD \t\t\trequire(token.transferFrom(msg...\n      PUSH 8C379A000000000000000000000000000000000000000000000000000000000\t\t\trequire(token.transferFrom(msg...\n      DUP2 \t\t\trequire(token.transferFrom(msg...\n      MSTORE \t\t\trequire(token.transferFrom(msg...\n      PUSH 4\t\t\trequire(token.transferFrom(msg...\n      ADD \t\t\trequire(token.transferFrom(msg...\n      PUSH [tag] 159\t\t\trequire(token.transferFrom(msg...\n      SWAP1 \t\t\trequire(token.transferFrom(msg...\n      PUSH [tag] 116\t\t\trequire(token.transferFrom(msg...\n      JUMP \t\t\trequire(token.transferFrom(msg...\n    tag 159\t\t\trequire(token.transferFrom(msg...\n      JUMPDEST \t\t\trequire(token.transferFrom(msg...\n      PUSH 40\t\t\trequire(token.transferFrom(msg...\n      MLOAD \t\t\trequire(token.transferFrom(msg...\n      DUP1 \t\t\trequire(token.transferFrom(msg...\n      SWAP2 \t\t\trequire(token.transferFrom(msg...\n      SUB \t\t\trequire(token.transferFrom(msg...\n      SWAP1 \t\t\trequire(token.transferFrom(msg...\n      REVERT \t\t\trequire(token.transferFrom(msg...\n    tag 158\t\t\trequire(token.transferFrom(msg...\n      JUMPDEST \t\t\trequire(token.transferFrom(msg...\n      PUSH 0\t\t\tuint256 i\n    tag 160\t\t\tfor (uint256 i = 0; i < recipi...\n      JUMPDEST \t\t\tfor (uint256 i = 0; i < recipi...\n      DUP5 \t\t\trecipients\n      MLOAD \t\t\trecipients.length\n      DUP2 \t\t\ti\n      LT \t\t\ti < recipients.length\n      ISZERO \t\t\tfor (uint256 i = 0; i < recipi...\n      PUSH [tag] 161\t\t\tfor (uint256 i = 0; i < recipi...\n      JUMPI \t\t\tfor (uint256 i = 0; i < recipi...\n      DUP3 \t\t\ttoken\n      PUSH FFFFFFFFFFFFFFFFFFFFFFFFFFFFFFFFFFFFFFFF\t\t\ttoken.transfer\n      AND \t\t\ttoken.transfer\n      PUSH A9059CBB\t\t\ttoken.transfer\n      DUP7 \t\t\trecipients\n      DUP4 \t\t\ti\n      DUP2 \t\t\trecipients[i]\n      MLOAD \t\t\trecipients[i]\n      DUP2 \t\t\trecipients[i]\n      LT \t\t\trecipients[i]\n      PUSH [tag] 163\t\t\trecipients[i]\n      JUMPI \t\t\trecipients[i]\n      PUSH [tag] 164\t\t\trecipients[i]\n      PUSH [tag] 36\t\t\trecipients[i]\n      JUMP \t\t\trecipients[i]\n    tag 164\t\t\trecipients[i]\n      JUMPDEST \t\t\trecipients[i]\n    tag 163\t\t\trecipients[i]\n      JUMPDEST \t\t\trecipients[i]\n      PUSH 20\t\t\trecipients[i]\n      MUL \t\t\trecipients[i]\n      PUSH 20\t\t\trecipients[i]\n      ADD \t\t\trecipients[i]\n      ADD \t\t\trecipients[i]\n      MLOAD \t\t\trecipients[i]\n      DUP7 \t\t\tamount\n      DUP5 \t\t\ti\n      DUP2 \t\t\tamount[i]\n      MLOAD \t\t\tamount[i]\n      DUP2 \t\t\tamount[i]\n      LT \t\t\tamount[i]\n      PUSH [tag] 165\t\t\tamount[i]\n      JUMPI \t\t\tamount[i]\n      PUSH [tag] 166\t\t\tamount[i]\n      PUSH [tag] 36\t\t\tamount[i]\n      JUMP \t\t\tamount[i]\n    tag 166\t\t\tamount[i]\n      JUMPDEST \t\t\tamount[i]\n    tag 165\t\t\tamount[i]\n      JUMPDEST \t\t\tamount[i]\n      PUSH 20\t\t\tamount[i]\n      MUL \t\t\tamount[i]\n      PUSH 20\t\t\tamount[i]\n      ADD \t\t\tamount[i]\n      ADD \t\t\tamount[i]\n      MLOAD \t\t\tamount[i]\n      PUSH 40\t\t\ttoken.transfer(recipients[i], ...\n      MLOAD \t\t\ttoken.transfer(recipients[i], ...\n      DUP4 \t\t\ttoken.transfer(recipients[i], ...\n      PUSH FFFFFFFF\t\t\ttoken.transfer(recipients[i], ...\n      AND \t\t\ttoken.transfer(recipients[i], ...\n      PUSH E0\t\t\ttoken.transfer(recipients[i], ...\n      SHL \t\t\ttoken.transfer(recipients[i], ...\n      DUP2 \t\t\ttoken.transfer(recipients[i], ...\n      MSTORE \t\t\ttoken.transfer(recipients[i], ...\n      PUSH 4\t\t\ttoken.transfer(recipients[i], ...\n      ADD \t\t\ttoken.transfer(recipients[i], ...\n      PUSH [tag] 167\t\t\ttoken.transfer(recipients[i], ...\n      SWAP3 \t\t\ttoken.transfer(recipients[i], ...\n      SWAP2 \t\t\ttoken.transfer(recipients[i], ...\n      SWAP1 \t\t\ttoken.transfer(recipients[i], ...\n      PUSH [tag] 40\t\t\ttoken.transfer(recipients[i], ...\n      JUMP \t\t\ttoken.transfer(recipients[i], ...\n    tag 167\t\t\ttoken.transfer(recipients[i], ...\n      JUMPDEST \t\t\ttoken.transfer(recipients[i], ...\n      PUSH 20\t\t\ttoken.transfer(recipients[i], ...\n      PUSH 40\t\t\ttoken.transfer(recipients[i], ...\n      MLOAD \t\t\ttoken.transfer(recipients[i], ...\n      DUP1 \t\t\ttoken.transfer(recipients[i], ...\n      DUP4 \t\t\ttoken.transfer(recipients[i], ...\n      SUB \t\t\ttoken.transfer(recipients[i], ...\n      DUP2 \t\t\ttoken.transfer(recipients[i], ...\n      PUSH 0\t\t\ttoken.transfer(recipients[i], ...\n      DUP8 \t\t\ttoken.transfer(recipients[i], ...\n      GAS \t\t\ttoken.transfer(recipients[i], ...\n      CALL \t\t\ttoken.transfer(recipients[i], ...\n      ISZERO \t\t\ttoken.transfer(recipients[i], ...\n      DUP1 \t\t\ttoken.transfer(recipients[i], ...\n      ISZERO \t\t\ttoken.transfer(recipients[i], ...\n      PUSH [tag] 169\t\t\ttoken.transfer(recipients[i], ...\n      JUMPI \t\t\ttoken.transfer(recipients[i], ...\n      RETURNDATASIZE \t\t\ttoken.transfer(recipients[i], ...\n      PUSH 0\t\t\ttoken.transfer(recipients[i], ...\n      DUP1 \t\t\ttoken.transfer(recipients[i], ...\n      RETURNDATACOPY \t\t\ttoken.transfer(recipients[i], ...\n      RETURNDATASIZE \t\t\ttoken.transfer(recipients[i], ...\n      PUSH 0\t\t\ttoken.transfer(recipients[i], ...\n      REVERT \t\t\ttoken.transfer(recipients[i], ...\n    tag 169\t\t\ttoken.transfer(recipients[i], ...\n      JUMPDEST \t\t\ttoken.transfer(recipients[i], ...\n      POP \t\t\ttoken.transfer(recipients[i], ...\n      POP \t\t\ttoken.transfer(recipients[i], ...\n      POP \t\t\ttoken.transfer(recipients[i], ...\n      POP \t\t\ttoken.transfer(recipients[i], ...\n      PUSH 40\t\t\ttoken.transfer(recipients[i], ...\n      MLOAD \t\t\ttoken.transfer(recipients[i], ...\n      RETURNDATASIZE \t\t\ttoken.transfer(recipients[i], ...\n      PUSH 1F\t\t\ttoken.transfer(recipients[i], ...\n      NOT \t\t\ttoken.transfer(recipients[i], ...\n      PUSH 1F\t\t\ttoken.transfer(recipients[i], ...\n      DUP3 \t\t\ttoken.transfer(recipients[i], ...\n      ADD \t\t\ttoken.transfer(recipients[i], ...\n      AND \t\t\ttoken.transfer(recipients[i], ...\n      DUP3 \t\t\ttoken.transfer(recipients[i], ...\n      ADD \t\t\ttoken.transfer(recipients[i], ...\n      DUP1 \t\t\ttoken.transfer(recipients[i], ...\n      PUSH 40\t\t\ttoken.transfer(recipients[i], ...\n      MSTORE \t\t\ttoken.transfer(recipients[i], ...\n      POP \t\t\ttoken.transfer(recipients[i], ...\n      DUP2 \t\t\ttoken.transfer(recipients[i], ...\n      ADD \t\t\ttoken.transfer(recipients[i], ...\n      SWAP1 \t\t\ttoken.transfer(recipients[i], ...\n      PUSH [tag] 170\t\t\ttoken.transfer(recipients[i], ...\n      SWAP2 \t\t\ttoken.transfer(recipients[i], ...\n      SWAP1 \t\t\ttoken.transfer(recipients[i], ...\n      PUSH [tag] 44\t\t\ttoken.transfer(recipients[i], ...\n      JUMP \t\t\ttoken.transfer(recipients[i], ...\n    tag 170\t\t\ttoken.transfer(recipients[i], ...\n      JUMPDEST \t\t\ttoken.transfer(recipients[i], ...\n      PUSH [tag] 171\t\t\trequire(token.transfer(recipie...\n      JUMPI \t\t\trequire(token.transfer(recipie...\n      PUSH 40\t\t\trequire(token.transfer(recipie...\n      MLOAD \t\t\trequire(token.transfer(recipie...\n      PUSH 8C379A000000000000000000000000000000000000000000000000000000000\t\t\trequire(token.transfer(recipie...\n      DUP2 \t\t\trequire(token.transfer(recipie...\n      MSTORE \t\t\trequire(token.transfer(recipie...\n      PUSH 4\t\t\trequire(token.transfer(recipie...\n      ADD \t\t\trequire(token.transfer(recipie...\n      PUSH [tag] 172\t\t\trequire(token.transfer(recipie...\n      SWAP1 \t\t\trequire(token.transfer(recipie...\n      PUSH [tag] 47\t\t\trequire(token.transfer(recipie...\n      JUMP \t\t\trequire(token.transfer(recipie...\n    tag 172\t\t\trequire(token.transfer(recipie...\n      JUMPDEST \t\t\trequire(token.transfer(recipie...\n      PUSH 40\t\t\trequire(token.transfer(recipie...\n      MLOAD \t\t\trequire(token.transfer(recipie...\n      DUP1 \t\t\trequire(token.transfer(recipie...\n      SWAP2 \t\t\trequire(token.transfer(recipie...\n      SUB \t\t\trequire(token.transfer(recipie...\n      SWAP1 \t\t\trequire(token.transfer(recipie...\n      REVERT \t\t\trequire(token.transfer(recipie...\n    tag 171\t\t\trequire(token.transfer(recipie...\n      JUMPDEST \t\t\trequire(token.transfer(recipie...\n      DUP5 \t\t\trecipients\n      DUP2 \t\t\ti\n      DUP2 \t\t\trecipients[i]\n      MLOAD \t\t\trecipients[i]\n      DUP2 \t\t\trecipients[i]\n      LT \t\t\trecipients[i]\n      PUSH [tag] 173\t\t\trecipients[i]\n      JUMPI \t\t\trecipients[i]\n      PUSH [tag] 174\t\t\trecipients[i]\n      PUSH [tag] 36\t\t\trecipients[i]\n      JUMP \t\t\trecipients[i]\n    tag 174\t\t\trecipients[i]\n      JUMPDEST \t\t\trecipients[i]\n    tag 173\t\t\trecipients[i]\n      JUMPDEST \t\t\trecipients[i]\n      PUSH 20\t\t\trecipients[i]\n      MUL \t\t\trecipients[i]\n      PUSH 20\t\t\trecipients[i]\n      ADD \t\t\trecipients[i]\n      ADD \t\t\trecipients[i]\n      MLOAD \t\t\trecipients[i]\n      PUSH FFFFFFFFFFFFFFFFFFFFFFFFFFFFFFFFFFFFFFFF\t\t\tErc20BatchTransfer(i, recipien...\n      AND \t\t\tErc20BatchTransfer(i, recipien...\n      DUP2 \t\t\ti\n      PUSH B9471439BD4C23F19D2B486548FA6061AB17E1DA9815F325F2A2B29F22E715E3\t\t\tErc20BatchTransfer(i, recipien...\n      DUP7 \t\t\tamount\n      DUP5 \t\t\ti\n      DUP2 \t\t\tamount[i]\n      MLOAD \t\t\tamount[i]\n      DUP2 \t\t\tamount[i]\n      LT \t\t\tamount[i]\n      PUSH [tag] 175\t\t\tamount[i]\n      JUMPI \t\t\tamount[i]\n      PUSH [tag] 176\t\t\tamount[i]\n      PUSH [tag] 36\t\t\tamount[i]\n      JUMP \t\t\tamount[i]\n    tag 176\t\t\tamount[i]\n      JUMPDEST \t\t\tamount[i]\n    tag 175\t\t\tamount[i]\n      JUMPDEST \t\t\tamount[i]\n      PUSH 20\t\t\tamount[i]\n      MUL \t\t\tamount[i]\n      PUSH 20\t\t\tamount[i]\n      ADD \t\t\tamount[i]\n      ADD \t\t\tamount[i]\n      MLOAD \t\t\tamount[i]\n      PUSH 40\t\t\tErc20BatchTransfer(i, recipien...\n      MLOAD \t\t\tErc20BatchTransfer(i, recipien...\n      PUSH [tag] 177\t\t\tErc20BatchTransfer(i, recipien...\n      SWAP2 \t\t\tErc20BatchTransfer(i, recipien...\n      SWAP1 \t\t\tErc20BatchTransfer(i, recipien...\n      PUSH [tag] 53\t\t\tErc20BatchTransfer(i, recipien...\n      JUMP \t\t\tErc20BatchTransfer(i, recipien...\n    tag 177\t\t\tErc20BatchTransfer(i, recipien...\n      JUMPDEST \t\t\tErc20BatchTransfer(i, recipien...\n      PUSH 40\t\t\tErc20BatchTransfer(i, recipien...\n      MLOAD \t\t\tErc20BatchTransfer(i, recipien...\n      DUP1 \t\t\tErc20BatchTransfer(i, recipien...\n      SWAP2 \t\t\tErc20BatchTransfer(i, recipien...\n      SUB \t\t\tErc20BatchTransfer(i, recipien...\n      SWAP1 \t\t\tErc20BatchTransfer(i, recipien...\n      LOG3 \t\t\tErc20BatchTransfer(i, recipien...\n      DUP1 \t\t\ti++\n      DUP1 \t\t\ti++\n      PUSH [tag] 178\t\t\ti++\n      SWAP1 \t\t\ti++\n      PUSH [tag] 55\t\t\ti++\n      JUMP \t\t\ti++\n    tag 178\t\t\ti++\n      JUMPDEST \t\t\ti++\n      SWAP2 \t\t\ti++\n      POP \t\t\ti++\n      POP \t\t\ti++\n      PUSH [tag] 160\t\t\tfor (uint256 i = 0; i < recipi...\n      JUMP \t\t\tfor (uint256 i = 0; i < recipi...\n    tag 161\t\t\tfor (uint256 i = 0; i < recipi...\n      JUMPDEST \t\t\tfor (uint256 i = 0; i < recipi...\n      POP \t\t\tfor (uint256 i = 0; i < recipi...\n      POP \t\t\t{\\r\\n        IERC20 token = IE...\n      POP \t\t\t{\\r\\n        IERC20 token = IE...\n      POP \t\t\tfunction dispersal(address tok...\n      POP \t\t\tfunction dispersal(address tok...\n      POP \t\t\tfunction dispersal(address tok...\n      JUMP \t\t\tfunction dispersal(address tok...\n    tag 179\t\t\t-License-Identifier: MIT\\r\\n\\r...\n      JUMPDEST \t\t\t-License-Identifier: MIT\\r\\n\\r...\n      PUSH 0\t\t\tt \"@op\n      PUSH 40\t\t\tER\n      MLOAD \t\t\ttoken/ERC\n      SWAP1 \t\t\tcontracts/token/ERC\n      POP \t\t\tcontracts/token/ERC\n      SWAP1 \t\t\t-License-Identifier: MIT\\r\\n\\r...\n      JUMP \t\t\t-License-Identifier: MIT\\r\\n\\r...\n    tag 180\t\t\tl\";\\r\\nimport \"@acala-network/...\n      JUMPDEST \t\t\tl\";\\r\\nimport \"@acala-network/...\n      PUSH 0\t\t\tl\n      DUP1 \t\t\tr\n      REVERT \t\t\tacle/IOracle\n    tag 181\t\t\trt \"@acala-network/contracts/u...\n      JUMPDEST \t\t\trt \"@acala-network/contracts/u...\n      PUSH 0\t\t\t\\n\n      DUP1 \t\t\t\"\n      REVERT \t\t\tens.sol\";\\r\\n\\r\n    tag 182\t\t\tdity ^0.8.0;\\r\\n\\r\\ncontract D...\n      JUMPDEST \t\t\tdity ^0.8.0;\\r\\n\\r\\ncontract D...\n      PUSH 0\t\t\t    con\n      PUSH FFFFFFFFFFFFFFFFFFFFFFFFFFFFFFFFFFFFFFFF\t\t\tdule  scheduler = ISchedule(SC...\n      DUP3 \t\t\t  ISc\n      AND \t\t\t\\r\\n    ISchedule  scheduler =...\n      SWAP1 \t\t\tpayable{}\\r\\n\\r\\n    ISchedule...\n      POP \t\t\tpayable{}\\r\\n\\r\\n    ISchedule...\n      SWAP2 \t\t\tdity ^0.8.0;\\r\\n\\r\\ncontract D...\n      SWAP1 \t\t\tdity ^0.8.0;\\r\\n\\r\\ncontract D...\n      POP \t\t\tdity ^0.8.0;\\r\\n\\r\\ncontract D...\n      JUMP \t\t\tdity ^0.8.0;\\r\\n\\r\\ncontract D...\n    tag 183\t\t\tcle = IOracle(ORACLE);\\r\\n\\r\\n...\n      JUMPDEST \t\t\tcle = IOracle(ORACLE);\\r\\n\\r\\n...\n      PUSH 0\t\t\tk() ext\n      PUSH [tag] 260\t\t\teceive() external payabl\n      DUP3 \t\t\tpayab\n      PUSH [tag] 182\t\t\teceive() external payabl\n      JUMP \t\t\teceive() external payabl\n    tag 260\t\t\teceive() external payabl\n      JUMPDEST \t\t\teceive() external payabl\n      SWAP1 \t\t\tle{}\\r\\n    receive() external...\n      POP \t\t\tle{}\\r\\n    receive() external...\n      SWAP2 \t\t\tcle = IOracle(ORACLE);\\r\\n\\r\\n...\n      SWAP1 \t\t\tcle = IOracle(ORACLE);\\r\\n\\r\\n...\n      POP \t\t\tcle = IOracle(ORACLE);\\r\\n\\r\\n...\n      JUMP \t\t\tcle = IOracle(ORACLE);\\r\\n\\r\\n...\n    tag 184\t\t\tvent Erc20BatchTransfer(uint25...\n      JUMPDEST \t\t\tvent Erc20BatchTransfer(uint25...\n      PUSH [tag] 262\t\t\tecipient, uint256 amount\n      DUP2 \t\t\tamoun\n      PUSH [tag] 183\t\t\tecipient, uint256 amount\n      JUMP \t\t\tecipient, uint256 amount\n    tag 262\t\t\tecipient, uint256 amount\n      JUMPDEST \t\t\tecipient, uint256 amount\n      DUP2 \t\t\tdexed\n      EQ \t\t\t indexed recipient, uint256 am...\n      PUSH [tag] 263\t\t\tx, address indexed recipient, ...\n      JUMPI \t\t\tx, address indexed recipient, ...\n      PUSH 0\t\t\tr\n      DUP1 \t\t\tt\n      REVERT \t\t\t   event Tra\n    tag 263\t\t\tx, address indexed recipient, ...\n      JUMPDEST \t\t\tx, address indexed recipient, ...\n      POP \t\t\tvent Erc20BatchTransfer(uint25...\n      JUMP \t\t\tvent Erc20BatchTransfer(uint25...\n    tag 185\t\t\t(bytes indexed scheduleId, add...\n      JUMPDEST \t\t\t(bytes indexed scheduleId, add...\n      PUSH 0\t\t\ten, a\n      DUP2 \t\t\tounts,\n      CALLDATALOAD \t\t\t uint256[] amounts, \n      SWAP1 \t\t\tcipients, uint256[] amounts, \n      POP \t\t\tcipients, uint256[] amounts, \n      PUSH [tag] 265\t\t\txecutionTime);\\r\\n    event Pr...\n      DUP2 \t\t\triceC\n      PUSH [tag] 184\t\t\txecutionTime);\\r\\n    event Pr...\n      JUMP \t\t\txecutionTime);\\r\\n    event Pr...\n    tag 265\t\t\txecutionTime);\\r\\n    event Pr...\n      JUMPDEST \t\t\txecutionTime);\\r\\n    event Pr...\n      SWAP3 \t\t\t(bytes indexed scheduleId, add...\n      SWAP2 \t\t\t(bytes indexed scheduleId, add...\n      POP \t\t\t(bytes indexed scheduleId, add...\n      POP \t\t\t(bytes indexed scheduleId, add...\n      JUMP \t\t\t(bytes indexed scheduleId, add...\n    tag 186\t\t\t(bytes indexed scheduleId, uin...\n      JUMPDEST \t\t\t(bytes indexed scheduleId, uin...\n      PUSH 0\t\t\tm\n      DUP1 \t\t\t[\n      REVERT \t\t\taddress[] me\n    tag 187\t\t\tnts, uint256[] memory amount) ...\n      JUMPDEST \t\t\tnts, uint256[] memory amount) ...\n      PUSH 0\t\t\tlic{\\r\\n\n      PUSH 1F\t\t\t\\n \n      NOT \t\t\ts);\\r\\n  \n      PUSH 1F\t\t\tdd\n      DUP4 \t\t\t(toke\n      ADD \t\t\tRC20(tokenAddr\n      AND \t\t\t= IERC20(tokenAddress);\\r\\n   \n      SWAP1 \t\t\tC20 token = IERC20(tokenAddres...\n      POP \t\t\tC20 token = IERC20(tokenAddres...\n      SWAP2 \t\t\tnts, uint256[] memory amount) ...\n      SWAP1 \t\t\tnts, uint256[] memory amount) ...\n      POP \t\t\tnts, uint256[] memory amount) ...\n      JUMP \t\t\tnts, uint256[] memory amount) ...\n    tag 188\t\t\t(recipients.length == amount.l...\n      JUMPDEST \t\t\t(recipients.length == amount.l...\n      PUSH 4E487B7100000000000000000000000000000000000000000000000000000000\t\t\tts accordingly!\");\\r\\n        ...\n      PUSH 0\t\t\tn\n      MSTORE \t\t\t\"Give inputs accordingly!\");\\r...\n      PUSH 41\t\t\t; i+\n      PUSH 4\t\t\tg\n      MSTORE \t\t\tnts.length; i++\n      PUSH 24\t\t\ttal \n      PUSH 0\t\t\t \n      REVERT \t\t\t        total =\n    tag 189\t\t\tunt[i];\\r\\n            }\\r\\n  ...\n      JUMPDEST \t\t\tunt[i];\\r\\n            }\\r\\n  ...\n      PUSH [tag] 270\t\t\t), total) , \"Token transfer\n      DUP3 \t\t\tnsfe\n      PUSH [tag] 187\t\t\t), total) , \"Token transfer\n      JUMP \t\t\t), total) , \"Token transfer\n    tag 270\t\t\t), total) , \"Token transfer\n      JUMPDEST \t\t\t), total) , \"Token transfer\n      DUP2 \t\t\tess(th\n      ADD \t\t\taddress(this), total) , \"Token...\n      DUP2 \t\t\ttransf\n      DUP2 \t\t\tquire(toke\n      LT \t\t\t require(token.transfe\n      PUSH FFFFFFFFFFFFFFFF\t\t\t; i++) {\\r\\n        \n      DUP3 \t\t\tients.leng\n      GT \t\t\tcipients.length; i++) {\\r\\n   ...\n      OR \t\t\t recipients.length; i++) {\\r\\n...\n      ISZERO \t\t\ti < recipients.length; i++) {\\...\n      PUSH [tag] 271\t\t\ti < recipients.length; i++) {\\...\n      JUMPI \t\t\ti < recipients.length; i++) {\\...\n      PUSH [tag] 272\t\t\tcipients[i], amoun\n      PUSH [tag] 188\t\t\tcipients[i], amoun\n      JUMP \t\t\tcipients[i], amoun\n    tag 272\t\t\tcipients[i], amoun\n      JUMPDEST \t\t\tcipients[i], amoun\n    tag 271\t\t\ti < recipients.length; i++) {\\...\n      JUMPDEST \t\t\ti < recipients.length; i++) {\\...\n      DUP1 \t\t\t failed\");\n      PUSH 40\t\t\tsf\n      MSTORE \t\t\ten transfer failed\");\\r\n      POP \t\t\ten.transferFrom(msg.sender, ad...\n      POP \t\t\tunt[i];\\r\\n            }\\r\\n  ...\n      POP \t\t\tunt[i];\\r\\n            }\\r\\n  ...\n      JUMP \t\t\tunt[i];\\r\\n            }\\r\\n  ...\n    tag 190\t\t\t emit Erc20BatchTransfer(i, re...\n      JUMPDEST \t\t\t emit Erc20BatchTransfer(i, re...\n      PUSH 0\t\t\tents[i\n      PUSH [tag] 274\t\t\t       }\\r\\n    }\\r\\n\\r\\n \n      PUSH [tag] 179\t\t\t       }\\r\\n    }\\r\\n\\r\\n \n      JUMP \t\t\t       }\\r\\n    }\\r\\n\\r\\n \n    tag 274\t\t\t       }\\r\\n    }\\r\\n\\r\\n \n      JUMPDEST \t\t\t       }\\r\\n    }\\r\\n\\r\\n \n      SWAP1 \t\t\t]);\\r\\n            }\\r\\n    }\\...\n      POP \t\t\t]);\\r\\n            }\\r\\n    }\\...\n      PUSH [tag] 275\t\t\ton scheduled_dispersal(address...\n      DUP3 \t\t\tss t\n      DUP3 \t\t\tal(add\n      PUSH [tag] 189\t\t\ton scheduled_dispersal(address...\n      JUMP \t\t\ton scheduled_dispersal(address...\n    tag 275\t\t\ton scheduled_dispersal(address...\n      JUMPDEST \t\t\ton scheduled_dispersal(address...\n      SWAP2 \t\t\t emit Erc20BatchTransfer(i, re...\n      SWAP1 \t\t\t emit Erc20BatchTransfer(i, re...\n      POP \t\t\t emit Erc20BatchTransfer(i, re...\n      JUMP \t\t\t emit Erc20BatchTransfer(i, re...\n    tag 191\t\t\taddress[] memory recipients, u...\n      JUMPDEST \t\t\taddress[] memory recipients, u...\n      PUSH 0\t\t\t pub\n      PUSH FFFFFFFFFFFFFFFF\t\t\t== amounts.length,\n      DUP3 \t\t\t.lengt\n      GT \t\t\tnts.length == amounts.length, \n      ISZERO \t\t\tpients.length == amounts.lengt...\n      PUSH [tag] 277\t\t\tpients.length == amounts.lengt...\n      JUMPI \t\t\tpients.length == amounts.lengt...\n      PUSH [tag] 278\t\t\tve inputs accordin\n      PUSH [tag] 188\t\t\tve inputs accordin\n      JUMP \t\t\tve inputs accordin\n    tag 278\t\t\tve inputs accordin\n      JUMPDEST \t\t\tve inputs accordin\n    tag 277\t\t\tpients.length == amounts.lengt...\n      JUMPDEST \t\t\tpients.length == amounts.lengt...\n      PUSH 20\t\t\t 0;\\r\n      DUP3 \t\t\t total\n      MUL \t\t\tt256 total = 0;\\r\\n\n      SWAP1 \t\t\t     uint256 total = 0;\\r\\n\n      POP \t\t\t     uint256 total = 0;\\r\\n\n      PUSH 20\t\t\t\\n   \n      DUP2 \t\t\t++) \n      ADD \t\t\th; i++) {\\r\\n    \n      SWAP1 \t\t\tts.length; i++) {\\r\\n    \n      POP \t\t\tts.length; i++) {\\r\\n    \n      SWAP2 \t\t\taddress[] memory recipients, u...\n      SWAP1 \t\t\taddress[] memory recipients, u...\n      POP \t\t\taddress[] memory recipients, u...\n      JUMP \t\t\taddress[] memory recipients, u...\n    tag 192\t\t\t = total + amounts[i];\\r\\n    ...\n      JUMPDEST \t\t\t = total + amounts[i];\\r\\n    ...\n      PUSH 0\t\t\te\n      DUP1 \t\t\tT\n      REVERT \t\t\ttal), \"Token\n    tag 193\t\t\t bytes memory data = abi.encod...\n      JUMPDEST \t\t\t bytes memory data = abi.encod...\n      PUSH 0\t\t\t6[])\"\n      PUSH [tag] 281\t\t\tients, amounts);\\r\\n        by...\n      PUSH [tag] 282\t\t\t\\r\\n        bytes memory sched...\n      DUP5 \t\t\tl(addr\n      PUSH [tag] 191\t\t\t\\r\\n        bytes memory sched...\n      JUMP \t\t\t\\r\\n        bytes memory sched...\n    tag 282\t\t\t\\r\\n        bytes memory sched...\n      JUMPDEST \t\t\t\\r\\n        bytes memory sched...\n      PUSH [tag] 190\t\t\tients, amounts);\\r\\n        by...\n      JUMP \t\t\tients, amounts);\\r\\n        by...\n    tag 281\t\t\tients, amounts);\\r\\n        by...\n      JUMPDEST \t\t\tients, amounts);\\r\\n        by...\n      SWAP1 \t\t\tss, recipients, amounts);\\r\\n ...\n      POP \t\t\tss, recipients, amounts);\\r\\n ...\n      DUP1 \t\t\t 6400\n      DUP4 \t\t\t  emit\n      DUP3 \t\t\t\\n    \n      MSTORE \t\t\tdata);\\r\\n        emit \n      PUSH 20\t\t\td,to\n      DUP3 \t\t\thedul\n      ADD \t\t\td(scheduleId,tok\n      SWAP1 \t\t\tcheduled(scheduleId,tok\n      POP \t\t\tcheduled(scheduleId,tok\n      PUSH 20\t\t\t+ de\n      DUP5 \t\t\tmestam\n      MUL \t\t\tk.timestamp + del\n      DUP4 \t\t\tts, bl\n      ADD \t\t\tmounts, block.timestamp + dela\n      DUP6 \t\t\tion\n      DUP2 \t\t\t   fun\n      GT \t\t\t\\r\\n    function \n      ISZERO \t\t\t}\\r\\n\\r\\n    function executeE...\n      PUSH [tag] 283\t\t\t}\\r\\n\\r\\n    function executeE...\n      JUMPI \t\t\t}\\r\\n\\r\\n    function executeE...\n      PUSH [tag] 284\t\t\tchTransfer(address tokenAddres...\n      PUSH [tag] 192\t\t\tchTransfer(address tokenAddres...\n      JUMP \t\t\tchTransfer(address tokenAddres...\n    tag 284\t\t\tchTransfer(address tokenAddres...\n      JUMPDEST \t\t\tchTransfer(address tokenAddres...\n    tag 283\t\t\t}\\r\\n\\r\\n    function executeE...\n      JUMPDEST \t\t\t}\\r\\n\\r\\n    function executeE...\n      DUP4 \t\t\tken = \n    tag 285\t\t\t        IERC20 token = IERC20(...\n      JUMPDEST \t\t\t        IERC20 token = IERC20(...\n      DUP2 \t\t\tnAddre\n      DUP2 \t\t\t(to\n      LT \t\t\tC20(tokenAddres\n      ISZERO \t\t\t        IERC20 token = IERC20(...\n      PUSH [tag] 287\t\t\t        IERC20 token = IERC20(...\n      JUMPI \t\t\t        IERC20 token = IERC20(...\n      DUP1 \t\t\td r\n      PUSH [tag] 288\t\t\t        for (uint256 i = 0; i ...\n      DUP9 \t\t\teci\n      DUP3 \t\t\ti = 0; i <\n      PUSH [tag] 185\t\t\t        for (uint256 i = 0; i ...\n      JUMP \t\t\t        for (uint256 i = 0; i ...\n    tag 288\t\t\t        for (uint256 i = 0; i ...\n      JUMPDEST \t\t\t        for (uint256 i = 0; i ...\n      DUP5 \t\t\t\");\n      MSTORE \t\t\tamounts\");\\r\\n        for (uin...\n      PUSH 20\t\t\t    \n      DUP5 \t\t\t   \n      ADD \t\t\t\\n            r\n      SWAP4 \t\t\ti++) {\\r\\n            r\n      POP \t\t\ti++) {\\r\\n            r\n      POP \t\t\tgth == amounts.length, \"Mismat...\n      PUSH 20\t\t\te(re\n      DUP2 \t\t\tequ\n      ADD \t\t\t   require(rec\n      SWAP1 \t\t\t\\r\\n        require(rec\n      POP \t\t\t\\r\\n        require(rec\n      PUSH [tag] 285\t\t\t        IERC20 token = IERC20(...\n      JUMP \t\t\t        IERC20 token = IERC20(...\n    tag 287\t\t\t        IERC20 token = IERC20(...\n      JUMPDEST \t\t\t        IERC20 token = IERC20(...\n      POP \t\t\t    IERC20 token = IE\n      POP \t\t\ttokenAddress, recipients, amou...\n      POP \t\t\ttokenAddress, recipients, amou...\n      SWAP4 \t\t\t bytes memory data = abi.encod...\n      SWAP3 \t\t\t bytes memory data = abi.encod...\n      POP \t\t\t bytes memory data = abi.encod...\n      POP \t\t\t bytes memory data = abi.encod...\n      POP \t\t\t bytes memory data = abi.encod...\n      JUMP \t\t\t bytes memory data = abi.encod...\n    tag 194\t\t\tounts[i]), \"Token transfer fai...\n      JUMPDEST \t\t\tounts[i]), \"Token transfer fai...\n      PUSH 0\t\t\ter(i,\n      DUP3 \t\t\t }\\r\n      PUSH 1F\t\t\t }\\r\\n\n      DUP4 \t\t\t\\n     \n      ADD \t\t\t]);\\r\\n        }\\r\\n \n      SLT \t\t\tts[i]);\\r\\n        }\\r\\n    }\\...\n      PUSH [tag] 290\t\t\t[i], amounts[i]);\\r\\n        }...\n      JUMPI \t\t\t[i], amounts[i]);\\r\\n        }...\n      PUSH [tag] 291\t\t\t  function priceTriggeredDispe...\n      PUSH [tag] 186\t\t\t  function priceTriggeredDispe...\n      JUMP \t\t\t  function priceTriggeredDispe...\n    tag 291\t\t\t  function priceTriggeredDispe...\n      JUMPDEST \t\t\t  function priceTriggeredDispe...\n    tag 290\t\t\t[i], amounts[i]);\\r\\n        }...\n      JUMPDEST \t\t\t[i], amounts[i]);\\r\\n        }...\n      DUP2 \t\t\tt256[]\n      CALLDATALOAD \t\t\t\\r\\n        uint256[] \n      PUSH [tag] 292\t\t\t       uint256 desiredPrice,\\r...\n      DUP5 \t\t\t pa\n      DUP3 \t\t\te\\r\\n   \n      PUSH 20\t\t\trcen\n      DUP7 \t\t\tnt256 \n      ADD \t\t\t  uint256 percent\n      PUSH [tag] 193\t\t\t       uint256 desiredPrice,\\r...\n      JUMP \t\t\t       uint256 desiredPrice,\\r...\n    tag 292\t\t\t       uint256 desiredPrice,\\r...\n      JUMPDEST \t\t\t       uint256 desiredPrice,\\r...\n      SWAP2 \t\t\tounts,\\r\\n        uint256 desi...\n      POP \t\t\tounts,\\r\\n        uint256 desi...\n      POP \t\t\trecipients[i], amounts[i]);\\r\\...\n      SWAP3 \t\t\tounts[i]), \"Token transfer fai...\n      SWAP2 \t\t\tounts[i]), \"Token transfer fai...\n      POP \t\t\tounts[i]), \"Token transfer fai...\n      POP \t\t\tounts[i]), \"Token transfer fai...\n      JUMP \t\t\tounts[i]), \"Token transfer fai...\n    tag 195\t\t\t{\\r\\n\\r\\n        IERC20 token ...\n      JUMPDEST \t\t\t{\\r\\n\\r\\n        IERC20 token ...\n      PUSH 0\t\t\tce =\n      PUSH FFFFFFFFFFFFFFFF\t\t\tentage / 100;\\r\\n   \n      DUP3 \t\t\te * pe\n      GT \t\t\trice * percentage / 100;\\r\\n  ...\n      ISZERO \t\t\tedPrice * percentage / 100;\\r\\...\n      PUSH [tag] 294\t\t\tedPrice * percentage / 100;\\r\\...\n      JUMPI \t\t\tedPrice * percentage / 100;\\r\\...\n      PUSH [tag] 295\t\t\t \\r\\n        if(msg.\n      PUSH [tag] 188\t\t\t \\r\\n        if(msg.\n      JUMP \t\t\t \\r\\n        if(msg.\n    tag 295\t\t\t \\r\\n        if(msg.\n      JUMPDEST \t\t\t \\r\\n        if(msg.\n    tag 294\t\t\tedPrice * percentage / 100;\\r\\...\n      JUMPDEST \t\t\tedPrice * percentage / 100;\\r\\...\n      PUSH 20\t\t\t    \n      DUP3 \t\t\t{\\r\\n   \n      MUL \t\t\tis)){\\r\\n          \n      SWAP1 \t\t\tdress(this)){\\r\\n          \n      POP \t\t\tdress(this)){\\r\\n          \n      PUSH 20\t\t\tnput\n      DUP2 \t\t\tGive\n      ADD \t\t\t , \"Give inputs\n      SWAP1 \t\t\ts.length , \"Give inputs\n      POP \t\t\ts.length , \"Give inputs\n      SWAP2 \t\t\t{\\r\\n\\r\\n        IERC20 token ...\n      SWAP1 \t\t\t{\\r\\n\\r\\n        IERC20 token ...\n      POP \t\t\t{\\r\\n\\r\\n        IERC20 token ...\n      JUMP \t\t\t{\\r\\n\\r\\n        IERC20 token ...\n    tag 196\t\t\t\");\\r\\n            uint256 tot...\n      JUMPDEST \t\t\t\");\\r\\n            uint256 tot...\n      PUSH 0\t\t\t       \n      DUP2 \t\t\t0; i \n      SWAP1 \t\t\tint256 i = 0; i \n      POP \t\t\tint256 i = 0; i \n      SWAP2 \t\t\t\");\\r\\n            uint256 tot...\n      SWAP1 \t\t\t\");\\r\\n            uint256 tot...\n      POP \t\t\t\");\\r\\n            uint256 tot...\n      JUMP \t\t\t\");\\r\\n            uint256 tot...\n    tag 197\t\t\t.length; i++) {\\r\\n           ...\n      JUMPDEST \t\t\t.length; i++) {\\r\\n           ...\n      PUSH [tag] 298\t\t\t     }\\r\\n            requ\n      DUP2 \t\t\t  req\n      PUSH [tag] 196\t\t\t     }\\r\\n            requ\n      JUMP \t\t\t     }\\r\\n            requ\n    tag 298\t\t\t     }\\r\\n            requ\n      JUMPDEST \t\t\t     }\\r\\n            requ\n      DUP2 \t\t\t     \n      EQ \t\t\t               }\\r\\n          ...\n      PUSH [tag] 299\t\t\tnts[i];\\r\\n                }\\r...\n      JUMPI \t\t\tnts[i];\\r\\n                }\\r...\n      PUSH 0\t\t\tf\n      DUP1 \t\t\ta\n      REVERT \t\t\token.transfe\n    tag 299\t\t\tnts[i];\\r\\n                }\\r...\n      JUMPDEST \t\t\tnts[i];\\r\\n                }\\r...\n      POP \t\t\t.length; i++) {\\r\\n           ...\n      JUMP \t\t\t.length; i++) {\\r\\n           ...\n    tag 198\t\t\ter, address(this), total) , \"T...\n      JUMPDEST \t\t\ter, address(this), total) , \"T...\n      PUSH 0\t\t\tm fai\n      DUP2 \t\t\t      \n      CALLDATALOAD \t\t\t\\n        \\r\\n        i\n      SWAP1 \t\t\t       }\\r\\n        \\r\\n      ...\n      POP \t\t\t       }\\r\\n        \\r\\n      ...\n      PUSH [tag] 301\t\t\ttPrice >= desiredPrice - price...\n      DUP2 \t\t\ticeDi\n      PUSH [tag] 197\t\t\ttPrice >= desiredPrice - price...\n      JUMP \t\t\ttPrice >= desiredPrice - price...\n    tag 301\t\t\ttPrice >= desiredPrice - price...\n      JUMPDEST \t\t\ttPrice >= desiredPrice - price...\n      SWAP3 \t\t\ter, address(this), total) , \"T...\n      SWAP2 \t\t\ter, address(this), total) , \"T...\n      POP \t\t\ter, address(this), total) , \"T...\n      POP \t\t\ter, address(this), total) , \"T...\n      JUMP \t\t\ter, address(this), total) , \"T...\n    tag 199\t\t\tsiredPrice + priceDifference) ...\n      JUMPDEST \t\t\tsiredPrice + priceDifference) ...\n      PUSH 0\t\t\t     \n      PUSH [tag] 303\t\t\tnsfer(recipients[i], amounts[i...\n      PUSH [tag] 304\t\t\t[i], amounts[i]);\\r\\n         ...\n      DUP5 \t\t\t     b\n      PUSH [tag] 195\t\t\t[i], amounts[i]);\\r\\n         ...\n      JUMP \t\t\t[i], amounts[i]);\\r\\n         ...\n    tag 304\t\t\t[i], amounts[i]);\\r\\n         ...\n      JUMPDEST \t\t\t[i], amounts[i]);\\r\\n         ...\n      PUSH [tag] 190\t\t\tnsfer(recipients[i], amounts[i...\n      JUMP \t\t\tnsfer(recipients[i], amounts[i...\n    tag 303\t\t\tnsfer(recipients[i], amounts[i...\n      JUMPDEST \t\t\tnsfer(recipients[i], amounts[i...\n      SWAP1 \t\t\ttoken.transfer(recipients[i], ...\n      POP \t\t\ttoken.transfer(recipients[i], ...\n      DUP1 \t\t\t.enco\n      DUP4 \t\t\t      \n      DUP3 \t\t\t\\n    \n      MSTORE \t\t\tature(\\r\\n             \n      PUSH 20\t\t\t(add\n      DUP3 \t\t\tspers\n      ADD \t\t\tedDispersal(addr\n      SWAP1 \t\t\tTriggeredDispersal(addr\n      POP \t\t\tTriggeredDispersal(addr\n      PUSH 20\t\t\t\",\\r\\n\n      DUP5 \t\t\tuint25\n      MUL \t\t\t256,uint256)\",\\r\\n \n      DUP4 \t\t\t256,ui\n      ADD \t\t\tuint256,uint256,uint256)\",\\r\\n...\n      DUP6 \t\t\tess\n      DUP2 \t\t\tokenAd\n      GT \t\t\t  tokenAddress,\n      ISZERO \t\t\t     tokenAddress,\\r\\n        ...\n      PUSH [tag] 305\t\t\t     tokenAddress,\\r\\n        ...\n      JUMPI \t\t\t     tokenAddress,\\r\\n        ...\n      PUSH [tag] 306\t\t\t   recipients,\\r\\n            ...\n      PUSH [tag] 192\t\t\t   recipients,\\r\\n            ...\n      JUMP \t\t\t   recipients,\\r\\n            ...\n    tag 306\t\t\t   recipients,\\r\\n            ...\n      JUMPDEST \t\t\t   recipients,\\r\\n            ...\n    tag 305\t\t\t     tokenAddress,\\r\\n        ...\n      JUMPDEST \t\t\t     tokenAddress,\\r\\n        ...\n      DUP4 \t\t\t perce\n    tag 307\t\t\t\\r\\n                percentage...\n      JUMPDEST \t\t\t\\r\\n                percentage...\n      DUP2 \t\t\t      \n      DUP2 \t\t\t\\n  \n      LT \t\t\tge\\r\\n           \n      ISZERO \t\t\t\\r\\n                percentage...\n      PUSH [tag] 309\t\t\t\\r\\n                percentage...\n      JUMPI \t\t\t\\r\\n                percentage...\n      DUP1 \t\t\tdre\n      PUSH [tag] 310\t\t\t0, interval, data);\\r\\n       ...\n      DUP9 \t\t\temi\n      DUP3 \t\t\t          \n      PUSH [tag] 198\t\t\t0, interval, data);\\r\\n       ...\n      JUMP \t\t\t0, interval, data);\\r\\n       ...\n    tag 310\t\t\t0, interval, data);\\r\\n       ...\n      JUMPDEST \t\t\t0, interval, data);\\r\\n       ...\n      DUP5 \t\t\t 64\n      MSTORE \t\t\t100000, 64000, interval, data)...\n      PUSH 20\t\t\td, b\n      DUP5 \t\t\tdul\n      ADD \t\t\tscheduleId, bl\n      SWAP4 \t\t\teduled(scheduleId, bl\n      POP \t\t\teduled(scheduleId, bl\n      POP \t\t\tuleId = scheduler.scheduleCall...\n      PUSH 20\t\t\ttes \n      DUP2 \t\t\t   \n      ADD \t\t\t       bytes m\n      SWAP1 \t\t\t\\r\\n            bytes m\n      POP \t\t\t\\r\\n            bytes m\n      PUSH [tag] 307\t\t\t\\r\\n                percentage...\n      JUMP \t\t\t\\r\\n                percentage...\n    tag 309\t\t\t\\r\\n                percentage...\n      JUMPDEST \t\t\t\\r\\n                percentage...\n      POP \t\t\t              percent\n      POP \t\t\t          token.transfer(recip...\n      POP \t\t\t          token.transfer(recip...\n      SWAP4 \t\t\tsiredPrice + priceDifference) ...\n      SWAP3 \t\t\tsiredPrice + priceDifference) ...\n      POP \t\t\tsiredPrice + priceDifference) ...\n      POP \t\t\tsiredPrice + priceDifference) ...\n      POP \t\t\tsiredPrice + priceDifference) ...\n      JUMP \t\t\tsiredPrice + priceDifference) ...\n    tag 200\t\t\t    }\\r\\n}\n      JUMPDEST \t\t\t    }\\r\\n}\n      PUSH 0\t\t\t\n      DUP3 \t\t\t\n      PUSH 1F\t\t\t\n      DUP4 \t\t\t\n      ADD \t\t\t\n      SLT \t\t\t\n      PUSH [tag] 312\t\t\t\n      JUMPI \t\t\t\n      PUSH [tag] 313\t\t\t\n      PUSH [tag] 186\t\t\t\n      JUMP \t\t\t\n    tag 313\t\t\t\n      JUMPDEST \t\t\t\n    tag 312\t\t\t\n      JUMPDEST \t\t\t\n      DUP2 \t\t\t\n      CALLDATALOAD \t\t\t\n      PUSH [tag] 314\t\t\t\n      DUP5 \t\t\t\n      DUP3 \t\t\t\n      PUSH 20\t\t\t\n      DUP7 \t\t\t\n      ADD \t\t\t\n      PUSH [tag] 199\t\t\t\n      JUMP \t\t\t\n    tag 314\t\t\t\n      JUMPDEST \t\t\t\n      SWAP2 \t\t\t\n      POP \t\t\t\n      POP \t\t\t\n      SWAP3 \t\t\t    }\\r\\n}\n      SWAP2 \t\t\t    }\\r\\n}\n      POP \t\t\t    }\\r\\n}\n      POP \t\t\t    }\\r\\n}\n      JUMP \t\t\t    }\\r\\n}\n    tag 14\t\t\t\n      JUMPDEST \t\t\t\n      PUSH 0\t\t\t\n      DUP1 \t\t\t\n      PUSH 0\t\t\t\n      PUSH 60\t\t\t\n      DUP5 \t\t\t\n      DUP7 \t\t\t\n      SUB \t\t\t\n      SLT \t\t\t\n      ISZERO \t\t\t\n      PUSH [tag] 316\t\t\t\n      JUMPI \t\t\t\n      PUSH [tag] 317\t\t\t\n      PUSH [tag] 180\t\t\t\n      JUMP \t\t\t\n    tag 317\t\t\t\n      JUMPDEST \t\t\t\n    tag 316\t\t\t\n      JUMPDEST \t\t\t\n      PUSH 0\t\t\t\n      PUSH [tag] 318\t\t\t\n      DUP7 \t\t\t\n      DUP3 \t\t\t\n      DUP8 \t\t\t\n      ADD \t\t\t\n      PUSH [tag] 185\t\t\t\n      JUMP \t\t\t\n    tag 318\t\t\t\n      JUMPDEST \t\t\t\n      SWAP4 \t\t\t\n      POP \t\t\t\n      POP \t\t\t\n      PUSH 20\t\t\t\n      DUP5 \t\t\t\n      ADD \t\t\t\n      CALLDATALOAD \t\t\t\n      PUSH FFFFFFFFFFFFFFFF\t\t\t\n      DUP2 \t\t\t\n      GT \t\t\t\n      ISZERO \t\t\t\n      PUSH [tag] 319\t\t\t\n      JUMPI \t\t\t\n      PUSH [tag] 320\t\t\t\n      PUSH [tag] 181\t\t\t\n      JUMP \t\t\t\n    tag 320\t\t\t\n      JUMPDEST \t\t\t\n    tag 319\t\t\t\n      JUMPDEST \t\t\t\n      PUSH [tag] 321\t\t\t\n      DUP7 \t\t\t\n      DUP3 \t\t\t\n      DUP8 \t\t\t\n      ADD \t\t\t\n      PUSH [tag] 194\t\t\t\n      JUMP \t\t\t\n    tag 321\t\t\t\n      JUMPDEST \t\t\t\n      SWAP3 \t\t\t\n      POP \t\t\t\n      POP \t\t\t\n      PUSH 40\t\t\t\n      DUP5 \t\t\t\n      ADD \t\t\t\n      CALLDATALOAD \t\t\t\n      PUSH FFFFFFFFFFFFFFFF\t\t\t\n      DUP2 \t\t\t\n      GT \t\t\t\n      ISZERO \t\t\t\n      PUSH [tag] 322\t\t\t\n      JUMPI \t\t\t\n      PUSH [tag] 323\t\t\t\n      PUSH [tag] 181\t\t\t\n      JUMP \t\t\t\n    tag 323\t\t\t\n      JUMPDEST \t\t\t\n    tag 322\t\t\t\n      JUMPDEST \t\t\t\n      PUSH [tag] 324\t\t\t\n      DUP7 \t\t\t\n      DUP3 \t\t\t\n      DUP8 \t\t\t\n      ADD \t\t\t\n      PUSH [tag] 200\t\t\t\n      JUMP \t\t\t\n    tag 324\t\t\t\n      JUMPDEST \t\t\t\n      SWAP2 \t\t\t\n      POP \t\t\t\n      POP \t\t\t\n      SWAP3 \t\t\t\n      POP \t\t\t\n      SWAP3 \t\t\t\n      POP \t\t\t\n      SWAP3 \t\t\t\n      JUMP \t\t\t\n    tag 18\t\t\t\n      JUMPDEST \t\t\t\n      PUSH 0\t\t\t\n      DUP1 \t\t\t\n      PUSH 0\t\t\t\n      DUP1 \t\t\t\n      PUSH 80\t\t\t\n      DUP6 \t\t\t\n      DUP8 \t\t\t\n      SUB \t\t\t\n      SLT \t\t\t\n      ISZERO \t\t\t\n      PUSH [tag] 326\t\t\t\n      JUMPI \t\t\t\n      PUSH [tag] 327\t\t\t\n      PUSH [tag] 180\t\t\t\n      JUMP \t\t\t\n    tag 327\t\t\t\n      JUMPDEST \t\t\t\n    tag 326\t\t\t\n      JUMPDEST \t\t\t\n      PUSH 0\t\t\t\n      PUSH [tag] 328\t\t\t\n      DUP8 \t\t\t\n      DUP3 \t\t\t\n      DUP9 \t\t\t\n      ADD \t\t\t\n      PUSH [tag] 185\t\t\t\n      JUMP \t\t\t\n    tag 328\t\t\t\n      JUMPDEST \t\t\t\n      SWAP5 \t\t\t\n      POP \t\t\t\n      POP \t\t\t\n      PUSH 20\t\t\t\n      DUP6 \t\t\t\n      ADD \t\t\t\n      CALLDATALOAD \t\t\t\n      PUSH FFFFFFFFFFFFFFFF\t\t\t\n      DUP2 \t\t\t\n      GT \t\t\t\n      ISZERO \t\t\t\n      PUSH [tag] 329\t\t\t\n      JUMPI \t\t\t\n      PUSH [tag] 330\t\t\t\n      PUSH [tag] 181\t\t\t\n      JUMP \t\t\t\n    tag 330\t\t\t\n      JUMPDEST \t\t\t\n    tag 329\t\t\t\n      JUMPDEST \t\t\t\n      PUSH [tag] 331\t\t\t\n      DUP8 \t\t\t\n      DUP3 \t\t\t\n      DUP9 \t\t\t\n      ADD \t\t\t\n      PUSH [tag] 194\t\t\t\n      JUMP \t\t\t\n    tag 331\t\t\t\n      JUMPDEST \t\t\t\n      SWAP4 \t\t\t\n      POP \t\t\t\n      POP \t\t\t\n      PUSH 40\t\t\t\n      DUP6 \t\t\t\n      ADD \t\t\t\n      CALLDATALOAD \t\t\t\n      PUSH FFFFFFFFFFFFFFFF\t\t\t\n      DUP2 \t\t\t\n      GT \t\t\t\n      ISZERO \t\t\t\n      PUSH [tag] 332\t\t\t\n      JUMPI \t\t\t\n      PUSH [tag] 333\t\t\t\n      PUSH [tag] 181\t\t\t\n      JUMP \t\t\t\n    tag 333\t\t\t\n      JUMPDEST \t\t\t\n    tag 332\t\t\t\n      JUMPDEST \t\t\t\n      PUSH [tag] 334\t\t\t\n      DUP8 \t\t\t\n      DUP3 \t\t\t\n      DUP9 \t\t\t\n      ADD \t\t\t\n      PUSH [tag] 200\t\t\t\n      JUMP \t\t\t\n    tag 334\t\t\t\n      JUMPDEST \t\t\t\n      SWAP3 \t\t\t\n      POP \t\t\t\n      POP \t\t\t\n      PUSH 60\t\t\t\n      PUSH [tag] 335\t\t\t\n      DUP8 \t\t\t\n      DUP3 \t\t\t\n      DUP9 \t\t\t\n      ADD \t\t\t\n      PUSH [tag] 198\t\t\t\n      JUMP \t\t\t\n    tag 335\t\t\t\n      JUMPDEST \t\t\t\n      SWAP2 \t\t\t\n      POP \t\t\t\n      POP \t\t\t\n      SWAP3 \t\t\t\n      SWAP6 \t\t\t\n      SWAP2 \t\t\t\n      SWAP5 \t\t\t\n      POP \t\t\t\n      SWAP3 \t\t\t\n      POP \t\t\t\n      JUMP \t\t\t\n    tag 22\t\t\t\n      JUMPDEST \t\t\t\n      PUSH 0\t\t\t\n      DUP1 \t\t\t\n      PUSH 0\t\t\t\n      DUP1 \t\t\t\n      PUSH 0\t\t\t\n      DUP1 \t\t\t\n      PUSH C0\t\t\t\n      DUP8 \t\t\t\n      DUP10 \t\t\t\n      SUB \t\t\t\n      SLT \t\t\t\n      ISZERO \t\t\t\n      PUSH [tag] 337\t\t\t\n      JUMPI \t\t\t\n      PUSH [tag] 338\t\t\t\n      PUSH [tag] 180\t\t\t\n      JUMP \t\t\t\n    tag 338\t\t\t\n      JUMPDEST \t\t\t\n    tag 337\t\t\t\n      JUMPDEST \t\t\t\n      PUSH 0\t\t\t\n      PUSH [tag] 339\t\t\t\n      DUP10 \t\t\t\n      DUP3 \t\t\t\n      DUP11 \t\t\t\n      ADD \t\t\t\n      PUSH [tag] 185\t\t\t\n      JUMP \t\t\t\n    tag 339\t\t\t\n      JUMPDEST \t\t\t\n      SWAP7 \t\t\t\n      POP \t\t\t\n      POP \t\t\t\n      PUSH 20\t\t\t\n      DUP8 \t\t\t\n      ADD \t\t\t\n      CALLDATALOAD \t\t\t\n      PUSH FFFFFFFFFFFFFFFF\t\t\t\n      DUP2 \t\t\t\n      GT \t\t\t\n      ISZERO \t\t\t\n      PUSH [tag] 340\t\t\t\n      JUMPI \t\t\t\n      PUSH [tag] 341\t\t\t\n      PUSH [tag] 181\t\t\t\n      JUMP \t\t\t\n    tag 341\t\t\t\n      JUMPDEST \t\t\t\n    tag 340\t\t\t\n      JUMPDEST \t\t\t\n      PUSH [tag] 342\t\t\t\n      DUP10 \t\t\t\n      DUP3 \t\t\t\n      DUP11 \t\t\t\n      ADD \t\t\t\n      PUSH [tag] 194\t\t\t\n      JUMP \t\t\t\n    tag 342\t\t\t\n      JUMPDEST \t\t\t\n      SWAP6 \t\t\t\n      POP \t\t\t\n      POP \t\t\t\n      PUSH 40\t\t\t\n      DUP8 \t\t\t\n      ADD \t\t\t\n      CALLDATALOAD \t\t\t\n      PUSH FFFFFFFFFFFFFFFF\t\t\t\n      DUP2 \t\t\t\n      GT \t\t\t\n      ISZERO \t\t\t\n      PUSH [tag] 343\t\t\t\n      JUMPI \t\t\t\n      PUSH [tag] 344\t\t\t\n      PUSH [tag] 181\t\t\t\n      JUMP \t\t\t\n    tag 344\t\t\t\n      JUMPDEST \t\t\t\n    tag 343\t\t\t\n      JUMPDEST \t\t\t\n      PUSH [tag] 345\t\t\t\n      DUP10 \t\t\t\n      DUP3 \t\t\t\n      DUP11 \t\t\t\n      ADD \t\t\t\n      PUSH [tag] 200\t\t\t\n      JUMP \t\t\t\n    tag 345\t\t\t\n      JUMPDEST \t\t\t\n      SWAP5 \t\t\t\n      POP \t\t\t\n      POP \t\t\t\n      PUSH 60\t\t\t\n      PUSH [tag] 346\t\t\t\n      DUP10 \t\t\t\n      DUP3 \t\t\t\n      DUP11 \t\t\t\n      ADD \t\t\t\n      PUSH [tag] 198\t\t\t\n      JUMP \t\t\t\n    tag 346\t\t\t\n      JUMPDEST \t\t\t\n      SWAP4 \t\t\t\n      POP \t\t\t\n      POP \t\t\t\n      PUSH 80\t\t\t\n      PUSH [tag] 347\t\t\t\n      DUP10 \t\t\t\n      DUP3 \t\t\t\n      DUP11 \t\t\t\n      ADD \t\t\t\n      PUSH [tag] 198\t\t\t\n      JUMP \t\t\t\n    tag 347\t\t\t\n      JUMPDEST \t\t\t\n      SWAP3 \t\t\t\n      POP \t\t\t\n      POP \t\t\t\n      PUSH A0\t\t\t\n      PUSH [tag] 348\t\t\t\n      DUP10 \t\t\t\n      DUP3 \t\t\t\n      DUP11 \t\t\t\n      ADD \t\t\t\n      PUSH [tag] 198\t\t\t\n      JUMP \t\t\t\n    tag 348\t\t\t\n      JUMPDEST \t\t\t\n      SWAP2 \t\t\t\n      POP \t\t\t\n      POP \t\t\t\n      SWAP3 \t\t\t\n      SWAP6 \t\t\t\n      POP \t\t\t\n      SWAP3 \t\t\t\n      SWAP6 \t\t\t\n      POP \t\t\t\n      SWAP3 \t\t\t\n      SWAP6 \t\t\t\n      JUMP \t\t\t\n    tag 201\t\t\t\n      JUMPDEST \t\t\t\n      PUSH 0\t\t\t\n      DUP3 \t\t\t\n      DUP3 \t\t\t\n      MSTORE \t\t\t\n      PUSH 20\t\t\t\n      DUP3 \t\t\t\n      ADD \t\t\t\n      SWAP1 \t\t\t\n      POP \t\t\t\n      SWAP3 \t\t\t\n      SWAP2 \t\t\t\n      POP \t\t\t\n      POP \t\t\t\n      JUMP \t\t\t\n    tag 202\t\t\t\n      JUMPDEST \t\t\t\n      PUSH 4D69736D61746368656420726563697069656E747320616E6420616D6F756E74\t\t\t\n      PUSH 0\t\t\t\n      DUP3 \t\t\t\n      ADD \t\t\t\n      MSTORE \t\t\t\n      PUSH 7300000000000000000000000000000000000000000000000000000000000000\t\t\t\n      PUSH 20\t\t\t\n      DUP3 \t\t\t\n      ADD \t\t\t\n      MSTORE \t\t\t\n      POP \t\t\t\n      JUMP \t\t\t\n    tag 203\t\t\t\n      JUMPDEST \t\t\t\n      PUSH 0\t\t\t\n      PUSH [tag] 352\t\t\t\n      PUSH 21\t\t\t\n      DUP4 \t\t\t\n      PUSH [tag] 201\t\t\t\n      JUMP \t\t\t\n    tag 352\t\t\t\n      JUMPDEST \t\t\t\n      SWAP2 \t\t\t\n      POP \t\t\t\n      PUSH [tag] 353\t\t\t\n      DUP3 \t\t\t\n      PUSH [tag] 202\t\t\t\n      JUMP \t\t\t\n    tag 353\t\t\t\n      JUMPDEST \t\t\t\n      PUSH 40\t\t\t\n      DUP3 \t\t\t\n      ADD \t\t\t\n      SWAP1 \t\t\t\n      POP \t\t\t\n      SWAP2 \t\t\t\n      SWAP1 \t\t\t\n      POP \t\t\t\n      JUMP \t\t\t\n    tag 30\t\t\t\n      JUMPDEST \t\t\t\n      PUSH 0\t\t\t\n      PUSH 20\t\t\t\n      DUP3 \t\t\t\n      ADD \t\t\t\n      SWAP1 \t\t\t\n      POP \t\t\t\n      DUP2 \t\t\t\n      DUP2 \t\t\t\n      SUB \t\t\t\n      PUSH 0\t\t\t\n      DUP4 \t\t\t\n      ADD \t\t\t\n      MSTORE \t\t\t\n      PUSH [tag] 355\t\t\t\n      DUP2 \t\t\t\n      PUSH [tag] 203\t\t\t\n      JUMP \t\t\t\n    tag 355\t\t\t\n      JUMPDEST \t\t\t\n      SWAP1 \t\t\t\n      POP \t\t\t\n      SWAP2 \t\t\t\n      SWAP1 \t\t\t\n      POP \t\t\t\n      JUMP \t\t\t\n    tag 36\t\t\t\n      JUMPDEST \t\t\t\n      PUSH 4E487B7100000000000000000000000000000000000000000000000000000000\t\t\t\n      PUSH 0\t\t\t\n      MSTORE \t\t\t\n      PUSH 32\t\t\t\n      PUSH 4\t\t\t\n      MSTORE \t\t\t\n      PUSH 24\t\t\t\n      PUSH 0\t\t\t\n      REVERT \t\t\t\n    tag 204\t\t\t\n      JUMPDEST \t\t\t\n      PUSH [tag] 358\t\t\t\n      DUP2 \t\t\t\n      PUSH [tag] 183\t\t\t\n      JUMP \t\t\t\n    tag 358\t\t\t\n      JUMPDEST \t\t\t\n      DUP3 \t\t\t\n      MSTORE \t\t\t\n      POP \t\t\t\n      POP \t\t\t\n      JUMP \t\t\t\n    tag 205\t\t\t\n      JUMPDEST \t\t\t\n      PUSH [tag] 360\t\t\t\n      DUP2 \t\t\t\n      PUSH [tag] 196\t\t\t\n      JUMP \t\t\t\n    tag 360\t\t\t\n      JUMPDEST \t\t\t\n      DUP3 \t\t\t\n      MSTORE \t\t\t\n      POP \t\t\t\n      POP \t\t\t\n      JUMP \t\t\t\n    tag 40\t\t\t\n      JUMPDEST \t\t\t\n      PUSH 0\t\t\t\n      PUSH 40\t\t\t\n      DUP3 \t\t\t\n      ADD \t\t\t\n      SWAP1 \t\t\t\n      POP \t\t\t\n      PUSH [tag] 362\t\t\t\n      PUSH 0\t\t\t\n      DUP4 \t\t\t\n      ADD \t\t\t\n      DUP6 \t\t\t\n      PUSH [tag] 204\t\t\t\n      JUMP \t\t\t\n    tag 362\t\t\t\n      JUMPDEST \t\t\t\n      PUSH [tag] 363\t\t\t\n      PUSH 20\t\t\t\n      DUP4 \t\t\t\n      ADD \t\t\t\n      DUP5 \t\t\t\n      PUSH [tag] 205\t\t\t\n      JUMP \t\t\t\n    tag 363\t\t\t\n      JUMPDEST \t\t\t\n      SWAP4 \t\t\t\n      SWAP3 \t\t\t\n      POP \t\t\t\n      POP \t\t\t\n      POP \t\t\t\n      JUMP \t\t\t\n    tag 206\t\t\t\n      JUMPDEST \t\t\t\n      PUSH 0\t\t\t\n      DUP2 \t\t\t\n      ISZERO \t\t\t\n      ISZERO \t\t\t\n      SWAP1 \t\t\t\n      POP \t\t\t\n      SWAP2 \t\t\t\n      SWAP1 \t\t\t\n      POP \t\t\t\n      JUMP \t\t\t\n    tag 207\t\t\t\n      JUMPDEST \t\t\t\n      PUSH [tag] 366\t\t\t\n      DUP2 \t\t\t\n      PUSH [tag] 206\t\t\t\n      JUMP \t\t\t\n    tag 366\t\t\t\n      JUMPDEST \t\t\t\n      DUP2 \t\t\t\n      EQ \t\t\t\n      PUSH [tag] 367\t\t\t\n      JUMPI \t\t\t\n      PUSH 0\t\t\t\n      DUP1 \t\t\t\n      REVERT \t\t\t\n    tag 367\t\t\t\n      JUMPDEST \t\t\t\n      POP \t\t\t\n      JUMP \t\t\t\n    tag 208\t\t\t\n      JUMPDEST \t\t\t\n      PUSH 0\t\t\t\n      DUP2 \t\t\t\n      MLOAD \t\t\t\n      SWAP1 \t\t\t\n      POP \t\t\t\n      PUSH [tag] 369\t\t\t\n      DUP2 \t\t\t\n      PUSH [tag] 207\t\t\t\n      JUMP \t\t\t\n    tag 369\t\t\t\n      JUMPDEST \t\t\t\n      SWAP3 \t\t\t\n      SWAP2 \t\t\t\n      POP \t\t\t\n      POP \t\t\t\n      JUMP \t\t\t\n    tag 44\t\t\t\n      JUMPDEST \t\t\t\n      PUSH 0\t\t\t\n      PUSH 20\t\t\t\n      DUP3 \t\t\t\n      DUP5 \t\t\t\n      SUB \t\t\t\n      SLT \t\t\t\n      ISZERO \t\t\t\n      PUSH [tag] 371\t\t\t\n      JUMPI \t\t\t\n      PUSH [tag] 372\t\t\t\n      PUSH [tag] 180\t\t\t\n      JUMP \t\t\t\n    tag 372\t\t\t\n      JUMPDEST \t\t\t\n    tag 371\t\t\t\n      JUMPDEST \t\t\t\n      PUSH 0\t\t\t\n      PUSH [tag] 373\t\t\t\n      DUP5 \t\t\t\n      DUP3 \t\t\t\n      DUP6 \t\t\t\n      ADD \t\t\t\n      PUSH [tag] 208\t\t\t\n      JUMP \t\t\t\n    tag 373\t\t\t\n      JUMPDEST \t\t\t\n      SWAP2 \t\t\t\n      POP \t\t\t\n      POP \t\t\t\n      SWAP3 \t\t\t\n      SWAP2 \t\t\t\n      POP \t\t\t\n      POP \t\t\t\n      JUMP \t\t\t\n    tag 209\t\t\t\n      JUMPDEST \t\t\t\n      PUSH 546F6B656E207472616E73666572206661696C65640000000000000000000000\t\t\t\n      PUSH 0\t\t\t\n      DUP3 \t\t\t\n      ADD \t\t\t\n      MSTORE \t\t\t\n      POP \t\t\t\n      JUMP \t\t\t\n    tag 210\t\t\t\n      JUMPDEST \t\t\t\n      PUSH 0\t\t\t\n      PUSH [tag] 376\t\t\t\n      PUSH 15\t\t\t\n      DUP4 \t\t\t\n      PUSH [tag] 201\t\t\t\n      JUMP \t\t\t\n    tag 376\t\t\t\n      JUMPDEST \t\t\t\n      SWAP2 \t\t\t\n      POP \t\t\t\n      PUSH [tag] 377\t\t\t\n      DUP3 \t\t\t\n      PUSH [tag] 209\t\t\t\n      JUMP \t\t\t\n    tag 377\t\t\t\n      JUMPDEST \t\t\t\n      PUSH 20\t\t\t\n      DUP3 \t\t\t\n      ADD \t\t\t\n      SWAP1 \t\t\t\n      POP \t\t\t\n      SWAP2 \t\t\t\n      SWAP1 \t\t\t\n      POP \t\t\t\n      JUMP \t\t\t\n    tag 47\t\t\t\n      JUMPDEST \t\t\t\n      PUSH 0\t\t\t\n      PUSH 20\t\t\t\n      DUP3 \t\t\t\n      ADD \t\t\t\n      SWAP1 \t\t\t\n      POP \t\t\t\n      DUP2 \t\t\t\n      DUP2 \t\t\t\n      SUB \t\t\t\n      PUSH 0\t\t\t\n      DUP4 \t\t\t\n      ADD \t\t\t\n      MSTORE \t\t\t\n      PUSH [tag] 379\t\t\t\n      DUP2 \t\t\t\n      PUSH [tag] 210\t\t\t\n      JUMP \t\t\t\n    tag 379\t\t\t\n      JUMPDEST \t\t\t\n      SWAP1 \t\t\t\n      POP \t\t\t\n      SWAP2 \t\t\t\n      SWAP1 \t\t\t\n      POP \t\t\t\n      JUMP \t\t\t\n    tag 53\t\t\t\n      JUMPDEST \t\t\t\n      PUSH 0\t\t\t\n      PUSH 20\t\t\t\n      DUP3 \t\t\t\n      ADD \t\t\t\n      SWAP1 \t\t\t\n      POP \t\t\t\n      PUSH [tag] 381\t\t\t\n      PUSH 0\t\t\t\n      DUP4 \t\t\t\n      ADD \t\t\t\n      DUP5 \t\t\t\n      PUSH [tag] 205\t\t\t\n      JUMP \t\t\t\n    tag 381\t\t\t\n      JUMPDEST \t\t\t\n      SWAP3 \t\t\t\n      SWAP2 \t\t\t\n      POP \t\t\t\n      POP \t\t\t\n      JUMP \t\t\t\n    tag 211\t\t\t\n      JUMPDEST \t\t\t\n      PUSH 4E487B7100000000000000000000000000000000000000000000000000000000\t\t\t\n      PUSH 0\t\t\t\n      MSTORE \t\t\t\n      PUSH 11\t\t\t\n      PUSH 4\t\t\t\n      MSTORE \t\t\t\n      PUSH 24\t\t\t\n      PUSH 0\t\t\t\n      REVERT \t\t\t\n    tag 55\t\t\t\n      JUMPDEST \t\t\t\n      PUSH 0\t\t\t\n      PUSH [tag] 384\t\t\t\n      DUP3 \t\t\t\n      PUSH [tag] 196\t\t\t\n      JUMP \t\t\t\n    tag 384\t\t\t\n      JUMPDEST \t\t\t\n      SWAP2 \t\t\t\n      POP \t\t\t\n      PUSH FFFFFFFFFFFFFFFFFFFFFFFFFFFFFFFFFFFFFFFFFFFFFFFFFFFFFFFFFFFFFFFF\t\t\t\n      DUP3 \t\t\t\n      SUB \t\t\t\n      PUSH [tag] 385\t\t\t\n      JUMPI \t\t\t\n      PUSH [tag] 386\t\t\t\n      PUSH [tag] 211\t\t\t\n      JUMP \t\t\t\n    tag 386\t\t\t\n      JUMPDEST \t\t\t\n    tag 385\t\t\t\n      JUMPDEST \t\t\t\n      PUSH 1\t\t\t\n      DUP3 \t\t\t\n      ADD \t\t\t\n      SWAP1 \t\t\t\n      POP \t\t\t\n      SWAP2 \t\t\t\n      SWAP1 \t\t\t\n      POP \t\t\t\n      JUMP \t\t\t\n    tag 212\t\t\t\n      JUMPDEST \t\t\t\n      PUSH 4769766520696E70757473206163636F7264696E676C79210000000000000000\t\t\t\n      PUSH 0\t\t\t\n      DUP3 \t\t\t\n      ADD \t\t\t\n      MSTORE \t\t\t\n      POP \t\t\t\n      JUMP \t\t\t\n    tag 213\t\t\t\n      JUMPDEST \t\t\t\n      PUSH 0\t\t\t\n      PUSH [tag] 389\t\t\t\n      PUSH 18\t\t\t\n      DUP4 \t\t\t\n      PUSH [tag] 201\t\t\t\n      JUMP \t\t\t\n    tag 389\t\t\t\n      JUMPDEST \t\t\t\n      SWAP2 \t\t\t\n      POP \t\t\t\n      PUSH [tag] 390\t\t\t\n      DUP3 \t\t\t\n      PUSH [tag] 212\t\t\t\n      JUMP \t\t\t\n    tag 390\t\t\t\n      JUMPDEST \t\t\t\n      PUSH 20\t\t\t\n      DUP3 \t\t\t\n      ADD \t\t\t\n      SWAP1 \t\t\t\n      POP \t\t\t\n      SWAP2 \t\t\t\n      SWAP1 \t\t\t\n      POP \t\t\t\n      JUMP \t\t\t\n    tag 59\t\t\t\n      JUMPDEST \t\t\t\n      PUSH 0\t\t\t\n      PUSH 20\t\t\t\n      DUP3 \t\t\t\n      ADD \t\t\t\n      SWAP1 \t\t\t\n      POP \t\t\t\n      DUP2 \t\t\t\n      DUP2 \t\t\t\n      SUB \t\t\t\n      PUSH 0\t\t\t\n      DUP4 \t\t\t\n      ADD \t\t\t\n      MSTORE \t\t\t\n      PUSH [tag] 392\t\t\t\n      DUP2 \t\t\t\n      PUSH [tag] 213\t\t\t\n      JUMP \t\t\t\n    tag 392\t\t\t\n      JUMPDEST \t\t\t\n      SWAP1 \t\t\t\n      POP \t\t\t\n      SWAP2 \t\t\t\n      SWAP1 \t\t\t\n      POP \t\t\t\n      JUMP \t\t\t\n    tag 66\t\t\t\n      JUMPDEST \t\t\t\n      PUSH 0\t\t\t\n      PUSH [tag] 394\t\t\t\n      DUP3 \t\t\t\n      PUSH [tag] 196\t\t\t\n      JUMP \t\t\t\n    tag 394\t\t\t\n      JUMPDEST \t\t\t\n      SWAP2 \t\t\t\n      POP \t\t\t\n      PUSH [tag] 395\t\t\t\n      DUP4 \t\t\t\n      PUSH [tag] 196\t\t\t\n      JUMP \t\t\t\n    tag 395\t\t\t\n      JUMPDEST \t\t\t\n      SWAP3 \t\t\t\n      POP \t\t\t\n      DUP3 \t\t\t\n      DUP3 \t\t\t\n      ADD \t\t\t\n      SWAP1 \t\t\t\n      POP \t\t\t\n      DUP1 \t\t\t\n      DUP3 \t\t\t\n      GT \t\t\t\n      ISZERO \t\t\t\n      PUSH [tag] 396\t\t\t\n      JUMPI \t\t\t\n      PUSH [tag] 397\t\t\t\n      PUSH [tag] 211\t\t\t\n      JUMP \t\t\t\n    tag 397\t\t\t\n      JUMPDEST \t\t\t\n    tag 396\t\t\t\n      JUMPDEST \t\t\t\n      SWAP3 \t\t\t\n      SWAP2 \t\t\t\n      POP \t\t\t\n      POP \t\t\t\n      JUMP \t\t\t\n    tag 69\t\t\t\n      JUMPDEST \t\t\t\n      PUSH 0\t\t\t\n      PUSH 60\t\t\t\n      DUP3 \t\t\t\n      ADD \t\t\t\n      SWAP1 \t\t\t\n      POP \t\t\t\n      PUSH [tag] 399\t\t\t\n      PUSH 0\t\t\t\n      DUP4 \t\t\t\n      ADD \t\t\t\n      DUP7 \t\t\t\n      PUSH [tag] 204\t\t\t\n      JUMP \t\t\t\n    tag 399\t\t\t\n      JUMPDEST \t\t\t\n      PUSH [tag] 400\t\t\t\n      PUSH 20\t\t\t\n      DUP4 \t\t\t\n      ADD \t\t\t\n      DUP6 \t\t\t\n      PUSH [tag] 204\t\t\t\n      JUMP \t\t\t\n    tag 400\t\t\t\n      JUMPDEST \t\t\t\n      PUSH [tag] 401\t\t\t\n      PUSH 40\t\t\t\n      DUP4 \t\t\t\n      ADD \t\t\t\n      DUP5 \t\t\t\n      PUSH [tag] 205\t\t\t\n      JUMP \t\t\t\n    tag 401\t\t\t\n      JUMPDEST \t\t\t\n      SWAP5 \t\t\t\n      SWAP4 \t\t\t\n      POP \t\t\t\n      POP \t\t\t\n      POP \t\t\t\n      POP \t\t\t\n      JUMP \t\t\t\n    tag 214\t\t\t\n      JUMPDEST \t\t\t\n      PUSH 546F6B656E207472616E73666572206661696C65642100000000000000000000\t\t\t\n      PUSH 0\t\t\t\n      DUP3 \t\t\t\n      ADD \t\t\t\n      MSTORE \t\t\t\n      POP \t\t\t\n      JUMP \t\t\t\n    tag 215\t\t\t\n      JUMPDEST \t\t\t\n      PUSH 0\t\t\t\n      PUSH [tag] 404\t\t\t\n      PUSH 16\t\t\t\n      DUP4 \t\t\t\n      PUSH [tag] 201\t\t\t\n      JUMP \t\t\t\n    tag 404\t\t\t\n      JUMPDEST \t\t\t\n      SWAP2 \t\t\t\n      POP \t\t\t\n      PUSH [tag] 405\t\t\t\n      DUP3 \t\t\t\n      PUSH [tag] 214\t\t\t\n      JUMP \t\t\t\n    tag 405\t\t\t\n      JUMPDEST \t\t\t\n      PUSH 20\t\t\t\n      DUP3 \t\t\t\n      ADD \t\t\t\n      SWAP1 \t\t\t\n      POP \t\t\t\n      SWAP2 \t\t\t\n      SWAP1 \t\t\t\n      POP \t\t\t\n      JUMP \t\t\t\n    tag 75\t\t\t\n      JUMPDEST \t\t\t\n      PUSH 0\t\t\t\n      PUSH 20\t\t\t\n      DUP3 \t\t\t\n      ADD \t\t\t\n      SWAP1 \t\t\t\n      POP \t\t\t\n      DUP2 \t\t\t\n      DUP2 \t\t\t\n      SUB \t\t\t\n      PUSH 0\t\t\t\n      DUP4 \t\t\t\n      ADD \t\t\t\n      MSTORE \t\t\t\n      PUSH [tag] 407\t\t\t\n      DUP2 \t\t\t\n      PUSH [tag] 215\t\t\t\n      JUMP \t\t\t\n    tag 407\t\t\t\n      JUMPDEST \t\t\t\n      SWAP1 \t\t\t\n      POP \t\t\t\n      SWAP2 \t\t\t\n      SWAP1 \t\t\t\n      POP \t\t\t\n      JUMP \t\t\t\n    tag 216\t\t\t\n      JUMPDEST \t\t\t\n      PUSH 0\t\t\t\n      DUP2 \t\t\t\n      MLOAD \t\t\t\n      SWAP1 \t\t\t\n      POP \t\t\t\n      SWAP2 \t\t\t\n      SWAP1 \t\t\t\n      POP \t\t\t\n      JUMP \t\t\t\n    tag 217\t\t\t\n      JUMPDEST \t\t\t\n      PUSH 0\t\t\t\n      DUP3 \t\t\t\n      DUP3 \t\t\t\n      MSTORE \t\t\t\n      PUSH 20\t\t\t\n      DUP3 \t\t\t\n      ADD \t\t\t\n      SWAP1 \t\t\t\n      POP \t\t\t\n      SWAP3 \t\t\t\n      SWAP2 \t\t\t\n      POP \t\t\t\n      POP \t\t\t\n      JUMP \t\t\t\n    tag 218\t\t\t\n      JUMPDEST \t\t\t\n      PUSH 0\t\t\t\n      DUP2 \t\t\t\n      SWAP1 \t\t\t\n      POP \t\t\t\n      PUSH 20\t\t\t\n      DUP3 \t\t\t\n      ADD \t\t\t\n      SWAP1 \t\t\t\n      POP \t\t\t\n      SWAP2 \t\t\t\n      SWAP1 \t\t\t\n      POP \t\t\t\n      JUMP \t\t\t\n    tag 219\t\t\t\n      JUMPDEST \t\t\t\n      PUSH [tag] 412\t\t\t\n      DUP2 \t\t\t\n      PUSH [tag] 183\t\t\t\n      JUMP \t\t\t\n    tag 412\t\t\t\n      JUMPDEST \t\t\t\n      DUP3 \t\t\t\n      MSTORE \t\t\t\n      POP \t\t\t\n      POP \t\t\t\n      JUMP \t\t\t\n    tag 220\t\t\t\n      JUMPDEST \t\t\t\n      PUSH 0\t\t\t\n      PUSH [tag] 414\t\t\t\n      DUP4 \t\t\t\n      DUP4 \t\t\t\n      PUSH [tag] 219\t\t\t\n      JUMP \t\t\t\n    tag 414\t\t\t\n      JUMPDEST \t\t\t\n      PUSH 20\t\t\t\n      DUP4 \t\t\t\n      ADD \t\t\t\n      SWAP1 \t\t\t\n      POP \t\t\t\n      SWAP3 \t\t\t\n      SWAP2 \t\t\t\n      POP \t\t\t\n      POP \t\t\t\n      JUMP \t\t\t\n    tag 221\t\t\t\n      JUMPDEST \t\t\t\n      PUSH 0\t\t\t\n      PUSH 20\t\t\t\n      DUP3 \t\t\t\n      ADD \t\t\t\n      SWAP1 \t\t\t\n      POP \t\t\t\n      SWAP2 \t\t\t\n      SWAP1 \t\t\t\n      POP \t\t\t\n      JUMP \t\t\t\n    tag 222\t\t\t\n      JUMPDEST \t\t\t\n      PUSH 0\t\t\t\n      PUSH [tag] 417\t\t\t\n      DUP3 \t\t\t\n      PUSH [tag] 216\t\t\t\n      JUMP \t\t\t\n    tag 417\t\t\t\n      JUMPDEST \t\t\t\n      PUSH [tag] 418\t\t\t\n      DUP2 \t\t\t\n      DUP6 \t\t\t\n      PUSH [tag] 217\t\t\t\n      JUMP \t\t\t\n    tag 418\t\t\t\n      JUMPDEST \t\t\t\n      SWAP4 \t\t\t\n      POP \t\t\t\n      PUSH [tag] 419\t\t\t\n      DUP4 \t\t\t\n      PUSH [tag] 218\t\t\t\n      JUMP \t\t\t\n    tag 419\t\t\t\n      JUMPDEST \t\t\t\n      DUP1 \t\t\t\n      PUSH 0\t\t\t\n    tag 420\t\t\t\n      JUMPDEST \t\t\t\n      DUP4 \t\t\t\n      DUP2 \t\t\t\n      LT \t\t\t\n      ISZERO \t\t\t\n      PUSH [tag] 422\t\t\t\n      JUMPI \t\t\t\n      DUP2 \t\t\t\n      MLOAD \t\t\t\n      PUSH [tag] 423\t\t\t\n      DUP9 \t\t\t\n      DUP3 \t\t\t\n      PUSH [tag] 220\t\t\t\n      JUMP \t\t\t\n    tag 423\t\t\t\n      JUMPDEST \t\t\t\n      SWAP8 \t\t\t\n      POP \t\t\t\n      PUSH [tag] 424\t\t\t\n      DUP4 \t\t\t\n      PUSH [tag] 221\t\t\t\n      JUMP \t\t\t\n    tag 424\t\t\t\n      JUMPDEST \t\t\t\n      SWAP3 \t\t\t\n      POP \t\t\t\n      POP \t\t\t\n      PUSH 1\t\t\t\n      DUP2 \t\t\t\n      ADD \t\t\t\n      SWAP1 \t\t\t\n      POP \t\t\t\n      PUSH [tag] 420\t\t\t\n      JUMP \t\t\t\n    tag 422\t\t\t\n      JUMPDEST \t\t\t\n      POP \t\t\t\n      DUP6 \t\t\t\n      SWAP4 \t\t\t\n      POP \t\t\t\n      POP \t\t\t\n      POP \t\t\t\n      POP \t\t\t\n      SWAP3 \t\t\t\n      SWAP2 \t\t\t\n      POP \t\t\t\n      POP \t\t\t\n      JUMP \t\t\t\n    tag 223\t\t\t\n      JUMPDEST \t\t\t\n      PUSH 0\t\t\t\n      DUP2 \t\t\t\n      MLOAD \t\t\t\n      SWAP1 \t\t\t\n      POP \t\t\t\n      SWAP2 \t\t\t\n      SWAP1 \t\t\t\n      POP \t\t\t\n      JUMP \t\t\t\n    tag 224\t\t\t\n      JUMPDEST \t\t\t\n      PUSH 0\t\t\t\n      DUP3 \t\t\t\n      DUP3 \t\t\t\n      MSTORE \t\t\t\n      PUSH 20\t\t\t\n      DUP3 \t\t\t\n      ADD \t\t\t\n      SWAP1 \t\t\t\n      POP \t\t\t\n      SWAP3 \t\t\t\n      SWAP2 \t\t\t\n      POP \t\t\t\n      POP \t\t\t\n      JUMP \t\t\t\n    tag 225\t\t\t\n      JUMPDEST \t\t\t\n      PUSH 0\t\t\t\n      DUP2 \t\t\t\n      SWAP1 \t\t\t\n      POP \t\t\t\n      PUSH 20\t\t\t\n      DUP3 \t\t\t\n      ADD \t\t\t\n      SWAP1 \t\t\t\n      POP \t\t\t\n      SWAP2 \t\t\t\n      SWAP1 \t\t\t\n      POP \t\t\t\n      JUMP \t\t\t\n    tag 226\t\t\t\n      JUMPDEST \t\t\t\n      PUSH [tag] 429\t\t\t\n      DUP2 \t\t\t\n      PUSH [tag] 196\t\t\t\n      JUMP \t\t\t\n    tag 429\t\t\t\n      JUMPDEST \t\t\t\n      DUP3 \t\t\t\n      MSTORE \t\t\t\n      POP \t\t\t\n      POP \t\t\t\n      JUMP \t\t\t\n    tag 227\t\t\t\n      JUMPDEST \t\t\t\n      PUSH 0\t\t\t\n      PUSH [tag] 431\t\t\t\n      DUP4 \t\t\t\n      DUP4 \t\t\t\n      PUSH [tag] 226\t\t\t\n      JUMP \t\t\t\n    tag 431\t\t\t\n      JUMPDEST \t\t\t\n      PUSH 20\t\t\t\n      DUP4 \t\t\t\n      ADD \t\t\t\n      SWAP1 \t\t\t\n      POP \t\t\t\n      SWAP3 \t\t\t\n      SWAP2 \t\t\t\n      POP \t\t\t\n      POP \t\t\t\n      JUMP \t\t\t\n    tag 228\t\t\t\n      JUMPDEST \t\t\t\n      PUSH 0\t\t\t\n      PUSH 20\t\t\t\n      DUP3 \t\t\t\n      ADD \t\t\t\n      SWAP1 \t\t\t\n      POP \t\t\t\n      SWAP2 \t\t\t\n      SWAP1 \t\t\t\n      POP \t\t\t\n      JUMP \t\t\t\n    tag 229\t\t\t\n      JUMPDEST \t\t\t\n      PUSH 0\t\t\t\n      PUSH [tag] 434\t\t\t\n      DUP3 \t\t\t\n      PUSH [tag] 223\t\t\t\n      JUMP \t\t\t\n    tag 434\t\t\t\n      JUMPDEST \t\t\t\n      PUSH [tag] 435\t\t\t\n      DUP2 \t\t\t\n      DUP6 \t\t\t\n      PUSH [tag] 224\t\t\t\n      JUMP \t\t\t\n    tag 435\t\t\t\n      JUMPDEST \t\t\t\n      SWAP4 \t\t\t\n      POP \t\t\t\n      PUSH [tag] 436\t\t\t\n      DUP4 \t\t\t\n      PUSH [tag] 225\t\t\t\n      JUMP \t\t\t\n    tag 436\t\t\t\n      JUMPDEST \t\t\t\n      DUP1 \t\t\t\n      PUSH 0\t\t\t\n    tag 437\t\t\t\n      JUMPDEST \t\t\t\n      DUP4 \t\t\t\n      DUP2 \t\t\t\n      LT \t\t\t\n      ISZERO \t\t\t\n      PUSH [tag] 439\t\t\t\n      JUMPI \t\t\t\n      DUP2 \t\t\t\n      MLOAD \t\t\t\n      PUSH [tag] 440\t\t\t\n      DUP9 \t\t\t\n      DUP3 \t\t\t\n      PUSH [tag] 227\t\t\t\n      JUMP \t\t\t\n    tag 440\t\t\t\n      JUMPDEST \t\t\t\n      SWAP8 \t\t\t\n      POP \t\t\t\n      PUSH [tag] 441\t\t\t\n      DUP4 \t\t\t\n      PUSH [tag] 228\t\t\t\n      JUMP \t\t\t\n    tag 441\t\t\t\n      JUMPDEST \t\t\t\n      SWAP3 \t\t\t\n      POP \t\t\t\n      POP \t\t\t\n      PUSH 1\t\t\t\n      DUP2 \t\t\t\n      ADD \t\t\t\n      SWAP1 \t\t\t\n      POP \t\t\t\n      PUSH [tag] 437\t\t\t\n      JUMP \t\t\t\n    tag 439\t\t\t\n      JUMPDEST \t\t\t\n      POP \t\t\t\n      DUP6 \t\t\t\n      SWAP4 \t\t\t\n      POP \t\t\t\n      POP \t\t\t\n      POP \t\t\t\n      POP \t\t\t\n      SWAP3 \t\t\t\n      SWAP2 \t\t\t\n      POP \t\t\t\n      POP \t\t\t\n      JUMP \t\t\t\n    tag 77\t\t\t\n      JUMPDEST \t\t\t\n      PUSH 0\t\t\t\n      PUSH 60\t\t\t\n      DUP3 \t\t\t\n      ADD \t\t\t\n      SWAP1 \t\t\t\n      POP \t\t\t\n      PUSH [tag] 443\t\t\t\n      PUSH 0\t\t\t\n      DUP4 \t\t\t\n      ADD \t\t\t\n      DUP7 \t\t\t\n      PUSH [tag] 204\t\t\t\n      JUMP \t\t\t\n    tag 443\t\t\t\n      JUMPDEST \t\t\t\n      DUP2 \t\t\t\n      DUP2 \t\t\t\n      SUB \t\t\t\n      PUSH 20\t\t\t\n      DUP4 \t\t\t\n      ADD \t\t\t\n      MSTORE \t\t\t\n      PUSH [tag] 444\t\t\t\n      DUP2 \t\t\t\n      DUP6 \t\t\t\n      PUSH [tag] 222\t\t\t\n      JUMP \t\t\t\n    tag 444\t\t\t\n      JUMPDEST \t\t\t\n      SWAP1 \t\t\t\n      POP \t\t\t\n      DUP2 \t\t\t\n      DUP2 \t\t\t\n      SUB \t\t\t\n      PUSH 40\t\t\t\n      DUP4 \t\t\t\n      ADD \t\t\t\n      MSTORE \t\t\t\n      PUSH [tag] 445\t\t\t\n      DUP2 \t\t\t\n      DUP5 \t\t\t\n      PUSH [tag] 229\t\t\t\n      JUMP \t\t\t\n    tag 445\t\t\t\n      JUMPDEST \t\t\t\n      SWAP1 \t\t\t\n      POP \t\t\t\n      SWAP5 \t\t\t\n      SWAP4 \t\t\t\n      POP \t\t\t\n      POP \t\t\t\n      POP \t\t\t\n      POP \t\t\t\n      JUMP \t\t\t\n    tag 230\t\t\t\n      JUMPDEST \t\t\t\n      PUSH 0\t\t\t\n      DUP2 \t\t\t\n      SWAP1 \t\t\t\n      POP \t\t\t\n      SWAP2 \t\t\t\n      SWAP1 \t\t\t\n      POP \t\t\t\n      JUMP \t\t\t\n    tag 231\t\t\t\n      JUMPDEST \t\t\t\n      PUSH 0\t\t\t\n      DUP2 \t\t\t\n      SWAP1 \t\t\t\n      POP \t\t\t\n      SWAP2 \t\t\t\n      SWAP1 \t\t\t\n      POP \t\t\t\n      JUMP \t\t\t\n    tag 232\t\t\t\n      JUMPDEST \t\t\t\n      PUSH 0\t\t\t\n      PUSH [tag] 449\t\t\t\n      PUSH [tag] 450\t\t\t\n      PUSH [tag] 451\t\t\t\n      DUP5 \t\t\t\n      PUSH [tag] 230\t\t\t\n      JUMP \t\t\t\n    tag 451\t\t\t\n      JUMPDEST \t\t\t\n      PUSH [tag] 231\t\t\t\n      JUMP \t\t\t\n    tag 450\t\t\t\n      JUMPDEST \t\t\t\n      PUSH [tag] 196\t\t\t\n      JUMP \t\t\t\n    tag 449\t\t\t\n      JUMPDEST \t\t\t\n      SWAP1 \t\t\t\n      POP \t\t\t\n      SWAP2 \t\t\t\n      SWAP1 \t\t\t\n      POP \t\t\t\n      JUMP \t\t\t\n    tag 233\t\t\t\n      JUMPDEST \t\t\t\n      PUSH [tag] 453\t\t\t\n      DUP2 \t\t\t\n      PUSH [tag] 232\t\t\t\n      JUMP \t\t\t\n    tag 453\t\t\t\n      JUMPDEST \t\t\t\n      DUP3 \t\t\t\n      MSTORE \t\t\t\n      POP \t\t\t\n      POP \t\t\t\n      JUMP \t\t\t\n    tag 234\t\t\t\n      JUMPDEST \t\t\t\n      PUSH 0\t\t\t\n      DUP2 \t\t\t\n      SWAP1 \t\t\t\n      POP \t\t\t\n      SWAP2 \t\t\t\n      SWAP1 \t\t\t\n      POP \t\t\t\n      JUMP \t\t\t\n    tag 235\t\t\t\n      JUMPDEST \t\t\t\n      PUSH 0\t\t\t\n      PUSH [tag] 456\t\t\t\n      PUSH [tag] 457\t\t\t\n      PUSH [tag] 458\t\t\t\n      DUP5 \t\t\t\n      PUSH [tag] 234\t\t\t\n      JUMP \t\t\t\n    tag 458\t\t\t\n      JUMPDEST \t\t\t\n      PUSH [tag] 231\t\t\t\n      JUMP \t\t\t\n    tag 457\t\t\t\n      JUMPDEST \t\t\t\n      PUSH [tag] 196\t\t\t\n      JUMP \t\t\t\n    tag 456\t\t\t\n      JUMPDEST \t\t\t\n      SWAP1 \t\t\t\n      POP \t\t\t\n      SWAP2 \t\t\t\n      SWAP1 \t\t\t\n      POP \t\t\t\n      JUMP \t\t\t\n    tag 236\t\t\t\n      JUMPDEST \t\t\t\n      PUSH [tag] 460\t\t\t\n      DUP2 \t\t\t\n      PUSH [tag] 235\t\t\t\n      JUMP \t\t\t\n    tag 460\t\t\t\n      JUMPDEST \t\t\t\n      DUP3 \t\t\t\n      MSTORE \t\t\t\n      POP \t\t\t\n      POP \t\t\t\n      JUMP \t\t\t\n    tag 237\t\t\t\n      JUMPDEST \t\t\t\n      PUSH 0\t\t\t\n      DUP2 \t\t\t\n      SWAP1 \t\t\t\n      POP \t\t\t\n      SWAP2 \t\t\t\n      SWAP1 \t\t\t\n      POP \t\t\t\n      JUMP \t\t\t\n    tag 238\t\t\t\n      JUMPDEST \t\t\t\n      PUSH 0\t\t\t\n      PUSH [tag] 463\t\t\t\n      PUSH [tag] 464\t\t\t\n      PUSH [tag] 465\t\t\t\n      DUP5 \t\t\t\n      PUSH [tag] 237\t\t\t\n      JUMP \t\t\t\n    tag 465\t\t\t\n      JUMPDEST \t\t\t\n      PUSH [tag] 231\t\t\t\n      JUMP \t\t\t\n    tag 464\t\t\t\n      JUMPDEST \t\t\t\n      PUSH [tag] 196\t\t\t\n      JUMP \t\t\t\n    tag 463\t\t\t\n      JUMPDEST \t\t\t\n      SWAP1 \t\t\t\n      POP \t\t\t\n      SWAP2 \t\t\t\n      SWAP1 \t\t\t\n      POP \t\t\t\n      JUMP \t\t\t\n    tag 239\t\t\t\n      JUMPDEST \t\t\t\n      PUSH [tag] 467\t\t\t\n      DUP2 \t\t\t\n      PUSH [tag] 238\t\t\t\n      JUMP \t\t\t\n    tag 467\t\t\t\n      JUMPDEST \t\t\t\n      DUP3 \t\t\t\n      MSTORE \t\t\t\n      POP \t\t\t\n      POP \t\t\t\n      JUMP \t\t\t\n    tag 240\t\t\t\n      JUMPDEST \t\t\t\n      PUSH 0\t\t\t\n      DUP2 \t\t\t\n      MLOAD \t\t\t\n      SWAP1 \t\t\t\n      POP \t\t\t\n      SWAP2 \t\t\t\n      SWAP1 \t\t\t\n      POP \t\t\t\n      JUMP \t\t\t\n    tag 241\t\t\t\n      JUMPDEST \t\t\t\n      PUSH 0\t\t\t\n      DUP3 \t\t\t\n      DUP3 \t\t\t\n      MSTORE \t\t\t\n      PUSH 20\t\t\t\n      DUP3 \t\t\t\n      ADD \t\t\t\n      SWAP1 \t\t\t\n      POP \t\t\t\n      SWAP3 \t\t\t\n      SWAP2 \t\t\t\n      POP \t\t\t\n      POP \t\t\t\n      JUMP \t\t\t\n    tag 242\t\t\t\n      JUMPDEST \t\t\t\n      PUSH 0\t\t\t\n    tag 471\t\t\t\n      JUMPDEST \t\t\t\n      DUP4 \t\t\t\n      DUP2 \t\t\t\n      LT \t\t\t\n      ISZERO \t\t\t\n      PUSH [tag] 473\t\t\t\n      JUMPI \t\t\t\n      DUP1 \t\t\t\n      DUP3 \t\t\t\n      ADD \t\t\t\n      MLOAD \t\t\t\n      DUP2 \t\t\t\n      DUP5 \t\t\t\n      ADD \t\t\t\n      MSTORE \t\t\t\n      PUSH 20\t\t\t\n      DUP2 \t\t\t\n      ADD \t\t\t\n      SWAP1 \t\t\t\n      POP \t\t\t\n      PUSH [tag] 471\t\t\t\n      JUMP \t\t\t\n    tag 473\t\t\t\n      JUMPDEST \t\t\t\n      PUSH 0\t\t\t\n      DUP5 \t\t\t\n      DUP5 \t\t\t\n      ADD \t\t\t\n      MSTORE \t\t\t\n      POP \t\t\t\n      POP \t\t\t\n      POP \t\t\t\n      POP \t\t\t\n      JUMP \t\t\t\n    tag 243\t\t\t\n      JUMPDEST \t\t\t\n      PUSH 0\t\t\t\n      PUSH [tag] 475\t\t\t\n      DUP3 \t\t\t\n      PUSH [tag] 240\t\t\t\n      JUMP \t\t\t\n    tag 475\t\t\t\n      JUMPDEST \t\t\t\n      PUSH [tag] 476\t\t\t\n      DUP2 \t\t\t\n      DUP6 \t\t\t\n      PUSH [tag] 241\t\t\t\n      JUMP \t\t\t\n    tag 476\t\t\t\n      JUMPDEST \t\t\t\n      SWAP4 \t\t\t\n      POP \t\t\t\n      PUSH [tag] 477\t\t\t\n      DUP2 \t\t\t\n      DUP6 \t\t\t\n      PUSH 20\t\t\t\n      DUP7 \t\t\t\n      ADD \t\t\t\n      PUSH [tag] 242\t\t\t\n      JUMP \t\t\t\n    tag 477\t\t\t\n      JUMPDEST \t\t\t\n      PUSH [tag] 478\t\t\t\n      DUP2 \t\t\t\n      PUSH [tag] 187\t\t\t\n      JUMP \t\t\t\n    tag 478\t\t\t\n      JUMPDEST \t\t\t\n      DUP5 \t\t\t\n      ADD \t\t\t\n      SWAP2 \t\t\t\n      POP \t\t\t\n      POP \t\t\t\n      SWAP3 \t\t\t\n      SWAP2 \t\t\t\n      POP \t\t\t\n      POP \t\t\t\n      JUMP \t\t\t\n    tag 79\t\t\t\n      JUMPDEST \t\t\t\n      PUSH 0\t\t\t\n      PUSH C0\t\t\t\n      DUP3 \t\t\t\n      ADD \t\t\t\n      SWAP1 \t\t\t\n      POP \t\t\t\n      PUSH [tag] 480\t\t\t\n      PUSH 0\t\t\t\n      DUP4 \t\t\t\n      ADD \t\t\t\n      DUP10 \t\t\t\n      PUSH [tag] 204\t\t\t\n      JUMP \t\t\t\n    tag 480\t\t\t\n      JUMPDEST \t\t\t\n      PUSH [tag] 481\t\t\t\n      PUSH 20\t\t\t\n      DUP4 \t\t\t\n      ADD \t\t\t\n      DUP9 \t\t\t\n      PUSH [tag] 233\t\t\t\n      JUMP \t\t\t\n    tag 481\t\t\t\n      JUMPDEST \t\t\t\n      PUSH [tag] 482\t\t\t\n      PUSH 40\t\t\t\n      DUP4 \t\t\t\n      ADD \t\t\t\n      DUP8 \t\t\t\n      PUSH [tag] 236\t\t\t\n      JUMP \t\t\t\n    tag 482\t\t\t\n      JUMPDEST \t\t\t\n      PUSH [tag] 483\t\t\t\n      PUSH 60\t\t\t\n      DUP4 \t\t\t\n      ADD \t\t\t\n      DUP7 \t\t\t\n      PUSH [tag] 239\t\t\t\n      JUMP \t\t\t\n    tag 483\t\t\t\n      JUMPDEST \t\t\t\n      PUSH [tag] 484\t\t\t\n      PUSH 80\t\t\t\n      DUP4 \t\t\t\n      ADD \t\t\t\n      DUP6 \t\t\t\n      PUSH [tag] 205\t\t\t\n      JUMP \t\t\t\n    tag 484\t\t\t\n      JUMPDEST \t\t\t\n      DUP2 \t\t\t\n      DUP2 \t\t\t\n      SUB \t\t\t\n      PUSH A0\t\t\t\n      DUP4 \t\t\t\n      ADD \t\t\t\n      MSTORE \t\t\t\n      PUSH [tag] 485\t\t\t\n      DUP2 \t\t\t\n      DUP5 \t\t\t\n      PUSH [tag] 243\t\t\t\n      JUMP \t\t\t\n    tag 485\t\t\t\n      JUMPDEST \t\t\t\n      SWAP1 \t\t\t\n      POP \t\t\t\n      SWAP8 \t\t\t\n      SWAP7 \t\t\t\n      POP \t\t\t\n      POP \t\t\t\n      POP \t\t\t\n      POP \t\t\t\n      POP \t\t\t\n      POP \t\t\t\n      POP \t\t\t\n      JUMP \t\t\t\n    tag 244\t\t\t\n      JUMPDEST \t\t\t\n      PUSH 0\t\t\t\n      DUP1 \t\t\t\n      REVERT \t\t\t\n    tag 245\t\t\t\n      JUMPDEST \t\t\t\n      PUSH 0\t\t\t\n      PUSH FFFFFFFFFFFFFFFF\t\t\t\n      DUP3 \t\t\t\n      GT \t\t\t\n      ISZERO \t\t\t\n      PUSH [tag] 488\t\t\t\n      JUMPI \t\t\t\n      PUSH [tag] 489\t\t\t\n      PUSH [tag] 188\t\t\t\n      JUMP \t\t\t\n    tag 489\t\t\t\n      JUMPDEST \t\t\t\n    tag 488\t\t\t\n      JUMPDEST \t\t\t\n      PUSH [tag] 490\t\t\t\n      DUP3 \t\t\t\n      PUSH [tag] 187\t\t\t\n      JUMP \t\t\t\n    tag 490\t\t\t\n      JUMPDEST \t\t\t\n      SWAP1 \t\t\t\n      POP \t\t\t\n      PUSH 20\t\t\t\n      DUP2 \t\t\t\n      ADD \t\t\t\n      SWAP1 \t\t\t\n      POP \t\t\t\n      SWAP2 \t\t\t\n      SWAP1 \t\t\t\n      POP \t\t\t\n      JUMP \t\t\t\n    tag 246\t\t\t\n      JUMPDEST \t\t\t\n      PUSH 0\t\t\t\n      PUSH [tag] 492\t\t\t\n      PUSH [tag] 493\t\t\t\n      DUP5 \t\t\t\n      PUSH [tag] 245\t\t\t\n      JUMP \t\t\t\n    tag 493\t\t\t\n      JUMPDEST \t\t\t\n      PUSH [tag] 190\t\t\t\n      JUMP \t\t\t\n    tag 492\t\t\t\n      JUMPDEST \t\t\t\n      SWAP1 \t\t\t\n      POP \t\t\t\n      DUP3 \t\t\t\n      DUP2 \t\t\t\n      MSTORE \t\t\t\n      PUSH 20\t\t\t\n      DUP2 \t\t\t\n      ADD \t\t\t\n      DUP5 \t\t\t\n      DUP5 \t\t\t\n      DUP5 \t\t\t\n      ADD \t\t\t\n      GT \t\t\t\n      ISZERO \t\t\t\n      PUSH [tag] 494\t\t\t\n      JUMPI \t\t\t\n      PUSH [tag] 495\t\t\t\n      PUSH [tag] 244\t\t\t\n      JUMP \t\t\t\n    tag 495\t\t\t\n      JUMPDEST \t\t\t\n    tag 494\t\t\t\n      JUMPDEST \t\t\t\n      PUSH [tag] 496\t\t\t\n      DUP5 \t\t\t\n      DUP3 \t\t\t\n      DUP6 \t\t\t\n      PUSH [tag] 242\t\t\t\n      JUMP \t\t\t\n    tag 496\t\t\t\n      JUMPDEST \t\t\t\n      POP \t\t\t\n      SWAP4 \t\t\t\n      SWAP3 \t\t\t\n      POP \t\t\t\n      POP \t\t\t\n      POP \t\t\t\n      JUMP \t\t\t\n    tag 247\t\t\t\n      JUMPDEST \t\t\t\n      PUSH 0\t\t\t\n      DUP3 \t\t\t\n      PUSH 1F\t\t\t\n      DUP4 \t\t\t\n      ADD \t\t\t\n      SLT \t\t\t\n      PUSH [tag] 498\t\t\t\n      JUMPI \t\t\t\n      PUSH [tag] 499\t\t\t\n      PUSH [tag] 186\t\t\t\n      JUMP \t\t\t\n    tag 499\t\t\t\n      JUMPDEST \t\t\t\n    tag 498\t\t\t\n      JUMPDEST \t\t\t\n      DUP2 \t\t\t\n      MLOAD \t\t\t\n      PUSH [tag] 500\t\t\t\n      DUP5 \t\t\t\n      DUP3 \t\t\t\n      PUSH 20\t\t\t\n      DUP7 \t\t\t\n      ADD \t\t\t\n      PUSH [tag] 246\t\t\t\n      JUMP \t\t\t\n    tag 500\t\t\t\n      JUMPDEST \t\t\t\n      SWAP2 \t\t\t\n      POP \t\t\t\n      POP \t\t\t\n      SWAP3 \t\t\t\n      SWAP2 \t\t\t\n      POP \t\t\t\n      POP \t\t\t\n      JUMP \t\t\t\n    tag 83\t\t\t\n      JUMPDEST \t\t\t\n      PUSH 0\t\t\t\n      PUSH 20\t\t\t\n      DUP3 \t\t\t\n      DUP5 \t\t\t\n      SUB \t\t\t\n      SLT \t\t\t\n      ISZERO \t\t\t\n      PUSH [tag] 502\t\t\t\n      JUMPI \t\t\t\n      PUSH [tag] 503\t\t\t\n      PUSH [tag] 180\t\t\t\n      JUMP \t\t\t\n    tag 503\t\t\t\n      JUMPDEST \t\t\t\n    tag 502\t\t\t\n      JUMPDEST \t\t\t\n      PUSH 0\t\t\t\n      DUP3 \t\t\t\n      ADD \t\t\t\n      MLOAD \t\t\t\n      PUSH FFFFFFFFFFFFFFFF\t\t\t\n      DUP2 \t\t\t\n      GT \t\t\t\n      ISZERO \t\t\t\n      PUSH [tag] 504\t\t\t\n      JUMPI \t\t\t\n      PUSH [tag] 505\t\t\t\n      PUSH [tag] 181\t\t\t\n      JUMP \t\t\t\n    tag 505\t\t\t\n      JUMPDEST \t\t\t\n    tag 504\t\t\t\n      JUMPDEST \t\t\t\n      PUSH [tag] 506\t\t\t\n      DUP5 \t\t\t\n      DUP3 \t\t\t\n      DUP6 \t\t\t\n      ADD \t\t\t\n      PUSH [tag] 247\t\t\t\n      JUMP \t\t\t\n    tag 506\t\t\t\n      JUMPDEST \t\t\t\n      SWAP2 \t\t\t\n      POP \t\t\t\n      POP \t\t\t\n      SWAP3 \t\t\t\n      SWAP2 \t\t\t\n      POP \t\t\t\n      POP \t\t\t\n      JUMP \t\t\t\n    tag 248\t\t\t\n      JUMPDEST \t\t\t\n      PUSH 0\t\t\t\n      DUP2 \t\t\t\n      SWAP1 \t\t\t\n      POP \t\t\t\n      SWAP3 \t\t\t\n      SWAP2 \t\t\t\n      POP \t\t\t\n      POP \t\t\t\n      JUMP \t\t\t\n    tag 249\t\t\t\n      JUMPDEST \t\t\t\n      PUSH 0\t\t\t\n      PUSH [tag] 509\t\t\t\n      DUP3 \t\t\t\n      PUSH [tag] 240\t\t\t\n      JUMP \t\t\t\n    tag 509\t\t\t\n      JUMPDEST \t\t\t\n      PUSH [tag] 510\t\t\t\n      DUP2 \t\t\t\n      DUP6 \t\t\t\n      PUSH [tag] 248\t\t\t\n      JUMP \t\t\t\n    tag 510\t\t\t\n      JUMPDEST \t\t\t\n      SWAP4 \t\t\t\n      POP \t\t\t\n      PUSH [tag] 511\t\t\t\n      DUP2 \t\t\t\n      DUP6 \t\t\t\n      PUSH 20\t\t\t\n      DUP7 \t\t\t\n      ADD \t\t\t\n      PUSH [tag] 242\t\t\t\n      JUMP \t\t\t\n    tag 511\t\t\t\n      JUMPDEST \t\t\t\n      DUP1 \t\t\t\n      DUP5 \t\t\t\n      ADD \t\t\t\n      SWAP2 \t\t\t\n      POP \t\t\t\n      POP \t\t\t\n      SWAP3 \t\t\t\n      SWAP2 \t\t\t\n      POP \t\t\t\n      POP \t\t\t\n      JUMP \t\t\t\n    tag 85\t\t\t\n      JUMPDEST \t\t\t\n      PUSH 0\t\t\t\n      PUSH [tag] 513\t\t\t\n      DUP3 \t\t\t\n      DUP5 \t\t\t\n      PUSH [tag] 249\t\t\t\n      JUMP \t\t\t\n    tag 513\t\t\t\n      JUMPDEST \t\t\t\n      SWAP2 \t\t\t\n      POP \t\t\t\n      DUP2 \t\t\t\n      SWAP1 \t\t\t\n      POP \t\t\t\n      SWAP3 \t\t\t\n      SWAP2 \t\t\t\n      POP \t\t\t\n      POP \t\t\t\n      JUMP \t\t\t\n    tag 88\t\t\t\n      JUMPDEST \t\t\t\n      PUSH 0\t\t\t\n      PUSH 60\t\t\t\n      DUP3 \t\t\t\n      ADD \t\t\t\n      SWAP1 \t\t\t\n      POP \t\t\t\n      DUP2 \t\t\t\n      DUP2 \t\t\t\n      SUB \t\t\t\n      PUSH 0\t\t\t\n      DUP4 \t\t\t\n      ADD \t\t\t\n      MSTORE \t\t\t\n      PUSH [tag] 515\t\t\t\n      DUP2 \t\t\t\n      DUP7 \t\t\t\n      PUSH [tag] 222\t\t\t\n      JUMP \t\t\t\n    tag 515\t\t\t\n      JUMPDEST \t\t\t\n      SWAP1 \t\t\t\n      POP \t\t\t\n      DUP2 \t\t\t\n      DUP2 \t\t\t\n      SUB \t\t\t\n      PUSH 20\t\t\t\n      DUP4 \t\t\t\n      ADD \t\t\t\n      MSTORE \t\t\t\n      PUSH [tag] 516\t\t\t\n      DUP2 \t\t\t\n      DUP6 \t\t\t\n      PUSH [tag] 229\t\t\t\n      JUMP \t\t\t\n    tag 516\t\t\t\n      JUMPDEST \t\t\t\n      SWAP1 \t\t\t\n      POP \t\t\t\n      PUSH [tag] 517\t\t\t\n      PUSH 40\t\t\t\n      DUP4 \t\t\t\n      ADD \t\t\t\n      DUP5 \t\t\t\n      PUSH [tag] 205\t\t\t\n      JUMP \t\t\t\n    tag 517\t\t\t\n      JUMPDEST \t\t\t\n      SWAP5 \t\t\t\n      SWAP4 \t\t\t\n      POP \t\t\t\n      POP \t\t\t\n      POP \t\t\t\n      POP \t\t\t\n      JUMP \t\t\t\n    tag 91\t\t\t\n      JUMPDEST \t\t\t\n      PUSH 0\t\t\t\n      PUSH 20\t\t\t\n      DUP3 \t\t\t\n      ADD \t\t\t\n      SWAP1 \t\t\t\n      POP \t\t\t\n      PUSH [tag] 519\t\t\t\n      PUSH 0\t\t\t\n      DUP4 \t\t\t\n      ADD \t\t\t\n      DUP5 \t\t\t\n      PUSH [tag] 204\t\t\t\n      JUMP \t\t\t\n    tag 519\t\t\t\n      JUMPDEST \t\t\t\n      SWAP3 \t\t\t\n      SWAP2 \t\t\t\n      POP \t\t\t\n      POP \t\t\t\n      JUMP \t\t\t\n    tag 250\t\t\t\n      JUMPDEST \t\t\t\n      PUSH 0\t\t\t\n      DUP2 \t\t\t\n      MLOAD \t\t\t\n      SWAP1 \t\t\t\n      POP \t\t\t\n      PUSH [tag] 521\t\t\t\n      DUP2 \t\t\t\n      PUSH [tag] 197\t\t\t\n      JUMP \t\t\t\n    tag 521\t\t\t\n      JUMPDEST \t\t\t\n      SWAP3 \t\t\t\n      SWAP2 \t\t\t\n      POP \t\t\t\n      POP \t\t\t\n      JUMP \t\t\t\n    tag 95\t\t\t\n      JUMPDEST \t\t\t\n      PUSH 0\t\t\t\n      PUSH 20\t\t\t\n      DUP3 \t\t\t\n      DUP5 \t\t\t\n      SUB \t\t\t\n      SLT \t\t\t\n      ISZERO \t\t\t\n      PUSH [tag] 523\t\t\t\n      JUMPI \t\t\t\n      PUSH [tag] 524\t\t\t\n      PUSH [tag] 180\t\t\t\n      JUMP \t\t\t\n    tag 524\t\t\t\n      JUMPDEST \t\t\t\n    tag 523\t\t\t\n      JUMPDEST \t\t\t\n      PUSH 0\t\t\t\n      PUSH [tag] 525\t\t\t\n      DUP5 \t\t\t\n      DUP3 \t\t\t\n      DUP6 \t\t\t\n      ADD \t\t\t\n      PUSH [tag] 250\t\t\t\n      JUMP \t\t\t\n    tag 525\t\t\t\n      JUMPDEST \t\t\t\n      SWAP2 \t\t\t\n      POP \t\t\t\n      POP \t\t\t\n      SWAP3 \t\t\t\n      SWAP2 \t\t\t\n      POP \t\t\t\n      POP \t\t\t\n      JUMP \t\t\t\n    tag 97\t\t\t\n      JUMPDEST \t\t\t\n      PUSH 0\t\t\t\n      PUSH [tag] 527\t\t\t\n      DUP3 \t\t\t\n      PUSH [tag] 196\t\t\t\n      JUMP \t\t\t\n    tag 527\t\t\t\n      JUMPDEST \t\t\t\n      SWAP2 \t\t\t\n      POP \t\t\t\n      PUSH [tag] 528\t\t\t\n      DUP4 \t\t\t\n      PUSH [tag] 196\t\t\t\n      JUMP \t\t\t\n    tag 528\t\t\t\n      JUMPDEST \t\t\t\n      SWAP3 \t\t\t\n      POP \t\t\t\n      DUP3 \t\t\t\n      DUP3 \t\t\t\n      MUL \t\t\t\n      PUSH [tag] 529\t\t\t\n      DUP2 \t\t\t\n      PUSH [tag] 196\t\t\t\n      JUMP \t\t\t\n    tag 529\t\t\t\n      JUMPDEST \t\t\t\n      SWAP2 \t\t\t\n      POP \t\t\t\n      DUP3 \t\t\t\n      DUP3 \t\t\t\n      DIV \t\t\t\n      DUP5 \t\t\t\n      EQ \t\t\t\n      DUP4 \t\t\t\n      ISZERO \t\t\t\n      OR \t\t\t\n      PUSH [tag] 530\t\t\t\n      JUMPI \t\t\t\n      PUSH [tag] 531\t\t\t\n      PUSH [tag] 211\t\t\t\n      JUMP \t\t\t\n    tag 531\t\t\t\n      JUMPDEST \t\t\t\n    tag 530\t\t\t\n      JUMPDEST \t\t\t\n      POP \t\t\t\n      SWAP3 \t\t\t\n      SWAP2 \t\t\t\n      POP \t\t\t\n      POP \t\t\t\n      JUMP \t\t\t\n    tag 251\t\t\t\n      JUMPDEST \t\t\t\n      PUSH 4E487B7100000000000000000000000000000000000000000000000000000000\t\t\t\n      PUSH 0\t\t\t\n      MSTORE \t\t\t\n      PUSH 12\t\t\t\n      PUSH 4\t\t\t\n      MSTORE \t\t\t\n      PUSH 24\t\t\t\n      PUSH 0\t\t\t\n      REVERT \t\t\t\n    tag 99\t\t\t\n      JUMPDEST \t\t\t\n      PUSH 0\t\t\t\n      PUSH [tag] 534\t\t\t\n      DUP3 \t\t\t\n      PUSH [tag] 196\t\t\t\n      JUMP \t\t\t\n    tag 534\t\t\t\n      JUMPDEST \t\t\t\n      SWAP2 \t\t\t\n      POP \t\t\t\n      PUSH [tag] 535\t\t\t\n      DUP4 \t\t\t\n      PUSH [tag] 196\t\t\t\n      JUMP \t\t\t\n    tag 535\t\t\t\n      JUMPDEST \t\t\t\n      SWAP3 \t\t\t\n      POP \t\t\t\n      DUP3 \t\t\t\n      PUSH [tag] 536\t\t\t\n      JUMPI \t\t\t\n      PUSH [tag] 537\t\t\t\n      PUSH [tag] 251\t\t\t\n      JUMP \t\t\t\n    tag 537\t\t\t\n      JUMPDEST \t\t\t\n    tag 536\t\t\t\n      JUMPDEST \t\t\t\n      DUP3 \t\t\t\n      DUP3 \t\t\t\n      DIV \t\t\t\n      SWAP1 \t\t\t\n      POP \t\t\t\n      SWAP3 \t\t\t\n      SWAP2 \t\t\t\n      POP \t\t\t\n      POP \t\t\t\n      JUMP \t\t\t\n    tag 252\t\t\t\n      JUMPDEST \t\t\t\n      PUSH 546F6B656E207472616E7366657246726F6D206661696C656421200000000000\t\t\t\n      PUSH 0\t\t\t\n      DUP3 \t\t\t\n      ADD \t\t\t\n      MSTORE \t\t\t\n      POP \t\t\t\n      JUMP \t\t\t\n    tag 253\t\t\t\n      JUMPDEST \t\t\t\n      PUSH 0\t\t\t\n      PUSH [tag] 540\t\t\t\n      PUSH 1B\t\t\t\n      DUP4 \t\t\t\n      PUSH [tag] 201\t\t\t\n      JUMP \t\t\t\n    tag 540\t\t\t\n      JUMPDEST \t\t\t\n      SWAP2 \t\t\t\n      POP \t\t\t\n      PUSH [tag] 541\t\t\t\n      DUP3 \t\t\t\n      PUSH [tag] 252\t\t\t\n      JUMP \t\t\t\n    tag 541\t\t\t\n      JUMPDEST \t\t\t\n      PUSH 20\t\t\t\n      DUP3 \t\t\t\n      ADD \t\t\t\n      SWAP1 \t\t\t\n      POP \t\t\t\n      SWAP2 \t\t\t\n      SWAP1 \t\t\t\n      POP \t\t\t\n      JUMP \t\t\t\n    tag 116\t\t\t\n      JUMPDEST \t\t\t\n      PUSH 0\t\t\t\n      PUSH 20\t\t\t\n      DUP3 \t\t\t\n      ADD \t\t\t\n      SWAP1 \t\t\t\n      POP \t\t\t\n      DUP2 \t\t\t\n      DUP2 \t\t\t\n      SUB \t\t\t\n      PUSH 0\t\t\t\n      DUP4 \t\t\t\n      ADD \t\t\t\n      MSTORE \t\t\t\n      PUSH [tag] 543\t\t\t\n      DUP2 \t\t\t\n      PUSH [tag] 253\t\t\t\n      JUMP \t\t\t\n    tag 543\t\t\t\n      JUMPDEST \t\t\t\n      SWAP1 \t\t\t\n      POP \t\t\t\n      SWAP2 \t\t\t\n      SWAP1 \t\t\t\n      POP \t\t\t\n      JUMP \t\t\t\n    tag 118\t\t\t\n      JUMPDEST \t\t\t\n      PUSH 0\t\t\t\n      PUSH [tag] 545\t\t\t\n      DUP3 \t\t\t\n      PUSH [tag] 196\t\t\t\n      JUMP \t\t\t\n    tag 545\t\t\t\n      JUMPDEST \t\t\t\n      SWAP2 \t\t\t\n      POP \t\t\t\n      PUSH [tag] 546\t\t\t\n      DUP4 \t\t\t\n      PUSH [tag] 196\t\t\t\n      JUMP \t\t\t\n    tag 546\t\t\t\n      JUMPDEST \t\t\t\n      SWAP3 \t\t\t\n      POP \t\t\t\n      DUP3 \t\t\t\n      DUP3 \t\t\t\n      SUB \t\t\t\n      SWAP1 \t\t\t\n      POP \t\t\t\n      DUP2 \t\t\t\n      DUP2 \t\t\t\n      GT \t\t\t\n      ISZERO \t\t\t\n      PUSH [tag] 547\t\t\t\n      JUMPI \t\t\t\n      PUSH [tag] 548\t\t\t\n      PUSH [tag] 211\t\t\t\n      JUMP \t\t\t\n    tag 548\t\t\t\n      JUMPDEST \t\t\t\n    tag 547\t\t\t\n      JUMPDEST \t\t\t\n      SWAP3 \t\t\t\n      SWAP2 \t\t\t\n      POP \t\t\t\n      POP \t\t\t\n      JUMP \t\t\t\n    tag 136\t\t\t\n      JUMPDEST \t\t\t\n      PUSH 0\t\t\t\n      PUSH C0\t\t\t\n      DUP3 \t\t\t\n      ADD \t\t\t\n      SWAP1 \t\t\t\n      POP \t\t\t\n      PUSH [tag] 550\t\t\t\n      PUSH 0\t\t\t\n      DUP4 \t\t\t\n      ADD \t\t\t\n      DUP10 \t\t\t\n      PUSH [tag] 204\t\t\t\n      JUMP \t\t\t\n    tag 550\t\t\t\n      JUMPDEST \t\t\t\n      DUP2 \t\t\t\n      DUP2 \t\t\t\n      SUB \t\t\t\n      PUSH 20\t\t\t\n      DUP4 \t\t\t\n      ADD \t\t\t\n      MSTORE \t\t\t\n      PUSH [tag] 551\t\t\t\n      DUP2 \t\t\t\n      DUP9 \t\t\t\n      PUSH [tag] 222\t\t\t\n      JUMP \t\t\t\n    tag 551\t\t\t\n      JUMPDEST \t\t\t\n      SWAP1 \t\t\t\n      POP \t\t\t\n      DUP2 \t\t\t\n      DUP2 \t\t\t\n      SUB \t\t\t\n      PUSH 40\t\t\t\n      DUP4 \t\t\t\n      ADD \t\t\t\n      MSTORE \t\t\t\n      PUSH [tag] 552\t\t\t\n      DUP2 \t\t\t\n      DUP8 \t\t\t\n      PUSH [tag] 229\t\t\t\n      JUMP \t\t\t\n    tag 552\t\t\t\n      JUMPDEST \t\t\t\n      SWAP1 \t\t\t\n      POP \t\t\t\n      PUSH [tag] 553\t\t\t\n      PUSH 60\t\t\t\n      DUP4 \t\t\t\n      ADD \t\t\t\n      DUP7 \t\t\t\n      PUSH [tag] 205\t\t\t\n      JUMP \t\t\t\n    tag 553\t\t\t\n      JUMPDEST \t\t\t\n      PUSH [tag] 554\t\t\t\n      PUSH 80\t\t\t\n      DUP4 \t\t\t\n      ADD \t\t\t\n      DUP6 \t\t\t\n      PUSH [tag] 205\t\t\t\n      JUMP \t\t\t\n    tag 554\t\t\t\n      JUMPDEST \t\t\t\n      PUSH [tag] 555\t\t\t\n      PUSH A0\t\t\t\n      DUP4 \t\t\t\n      ADD \t\t\t\n      DUP5 \t\t\t\n      PUSH [tag] 205\t\t\t\n      JUMP \t\t\t\n    tag 555\t\t\t\n      JUMPDEST \t\t\t\n      SWAP8 \t\t\t\n      SWAP7 \t\t\t\n      POP \t\t\t\n      POP \t\t\t\n      POP \t\t\t\n      POP \t\t\t\n      POP \t\t\t\n      POP \t\t\t\n      POP \t\t\t\n      JUMP \t\t\t\n    .data\n"
}