{
	"compilerInput": "{\"language\":\"Solidity\",\"sources\":{\"DisDrop.sol\":{\"content\":\"// SPDX-License-Identifier: MIT\\r\\n\\r\\nimport \\\"@openzeppelin/contracts/token/ERC20/IERC20.sol\\\";\\r\\nimport \\\"@acala-network/contracts/schedule/ISchedule.sol\\\";\\r\\nimport \\\"@acala-network/contracts/oracle/IOracle.sol\\\";\\r\\nimport \\\"@acala-network/contracts/utils/Predeploy.sol\\\";\\r\\nimport \\\"@acala-network/contracts/utils/AcalaTokens.sol\\\";\\r\\n\\r\\npragma solidity ^0.8.0;\\r\\n\\r\\ncontract DisDrop{\\r\\n\\r\\n    constructor() payable{}\\r\\n\\r\\n    ISchedule  scheduler = ISchedule(SCHEDULE);\\r\\n    IOracle oracle = IOracle(ORACLE);\\r\\n\\r\\n    fallback() external payable{}\\r\\n    receive() external payable{}\\r\\n\\r\\n    event Erc20BatchTransfer(uint256 indexed recipientIndex, address indexed recipient, uint256 amount);\\r\\n    event TransferScheduled(bytes indexed scheduleId, address indexed token, address[] recipients, uint256[] amounts, uint256 executionTime);\\r\\n    event PriceCheckScheduled(bytes indexed scheduleId, uint256 nextCheckTime);\\r\\n\\r\\n    function dispersal(address tokenAddress, address[] memory recipients, uint256[] memory amount) payable public{\\r\\n        IERC20 token = IERC20(tokenAddress);\\r\\n        require(recipients.length == amount.length , \\\"Give inputs accordingly!\\\");\\r\\n        uint256 total = 0;\\r\\n        for (uint256 i = 0; i < recipients.length; i++) {\\r\\n            total = total + amount[i];\\r\\n            }\\r\\n        require(token.transferFrom(msg.sender, address(this), total) , \\\"Token transferFrom failed! \\\");\\r\\n        for (uint256 i = 0; i < recipients.length; i++) {\\r\\n            require(token.transfer(recipients[i], amount[i]), \\\"Token transfer failed\\\");\\r\\n            emit Erc20BatchTransfer(i, recipients[i], amount[i]);\\r\\n            }\\r\\n    }\\r\\n\\r\\n    function scheduled_dispersal(address tokenAddress, address[] memory recipients, uint256[] memory amounts, uint256 delay) payable public{\\r\\n        IERC20 token = IERC20(tokenAddress);\\r\\n        require(recipients.length == amounts.length, \\\"Give inputs accordingly!\\\");\\r\\n        uint256 total = 0;\\r\\n        for (uint256 i = 0; i < amounts.length; i++) {\\r\\n            total = total + amounts[i];\\r\\n        }\\r\\n        require(token.transferFrom(msg.sender, address(this), total), \\\"Token transfer failed!\\\");\\r\\n        bytes memory data = abi.encodeWithSignature(\\\"executeERC20BatchTransfer(address,address[],uint256[])\\\",tokenAddress, recipients, amounts);\\r\\n        bytes memory scheduleId = scheduler.scheduleCall(address(this), 0, 2100000, 64000, delay, data);\\r\\n        emit TransferScheduled(scheduleId,tokenAddress, recipients, amounts, block.timestamp + delay);\\r\\n    }\\r\\n\\r\\n    function executeERC20BatchTransfer(address tokenAddress, address[] memory recipients, uint256[] memory amounts) private{\\r\\n        IERC20 token = IERC20(tokenAddress);\\r\\n        require(recipients.length == amounts.length, \\\"Mismatched recipients and amounts\\\");\\r\\n        for (uint256 i = 0; i < recipients.length; i++) {\\r\\n            require(token.transfer(recipients[i], amounts[i]), \\\"Token transfer failed\\\");\\r\\n            emit Erc20BatchTransfer(i, recipients[i], amounts[i]);\\r\\n        }\\r\\n    }\\r\\n\\r\\n    function priceTriggeredDispersal(\\r\\n        address tokenAddress,\\r\\n        address[] memory recipients,\\r\\n        uint256[] memory amounts,\\r\\n        uint256 desiredPrice,\\r\\n        uint256 interval\\r\\n    ) payable public{\\r\\n        IERC20 token = IERC20(tokenAddress);\\r\\n        address spender = msg.sender;\\r\\n        uint256 currentPrice = oracle.getPrice(address(token));\\r\\n        if (currentPrice == desiredPrice) {\\r\\n            executeBatchTransfer(tokenAddress, recipients, amounts, spender);\\r\\n        } else {\\r\\n            bytes memory data = abi.encodeWithSignature(\\r\\n                \\\"checkPriceandDisperse(address,address[],uint256[],uint256,uint256,address)\\\",\\r\\n                tokenAddress,\\r\\n                recipients,\\r\\n                amounts,\\r\\n                desiredPrice,\\r\\n                interval,\\r\\n                spender\\r\\n            );\\r\\n            bytes memory scheduleId = scheduler.scheduleCall(address(this), 0, 2100000, 64000, interval, data);\\r\\n            emit PriceCheckScheduled(scheduleId, block.timestamp + interval);\\r\\n        }\\r\\n    }\\r\\n\\r\\n    function checkPriceandDisperse(\\r\\n        address tokenAddress,\\r\\n        address[] memory recipients,\\r\\n        uint256[] memory amounts,\\r\\n        uint256 desiredPrice,\\r\\n        uint256 interval,\\r\\n        address spender\\r\\n    )private{\\r\\n        IERC20 token = IERC20(tokenAddress);\\r\\n        uint256 currentPrice = oracle.getPrice(address(token));\\r\\n        if (currentPrice == desiredPrice) {\\r\\n            executeBatchTransfer(tokenAddress, recipients, amounts,spender);\\r\\n        } else {\\r\\n            priceTriggeredDispersal(tokenAddress, recipients, amounts, desiredPrice, interval);\\r\\n        }\\r\\n    }\\r\\n\\r\\n    function executeBatchTransfer(\\r\\n        address tokenAddress,\\r\\n        address[] memory recipients,\\r\\n        uint256[] memory amounts,\\r\\n        address spender\\r\\n    )private{\\r\\n        IERC20 token = IERC20(tokenAddress);\\r\\n        require(recipients.length == amounts.length, \\\"Mismatched recipients and amounts\\\");\\r\\n        uint256 totalAmount = 0;\\r\\n        for (uint256 i = 0; i < amounts.length; i++) {\\r\\n            totalAmount += amounts[i];\\r\\n        }\\r\\n        require(token.transferFrom(spender, address(this), totalAmount), \\\"Token transfer failed\\\");\\r\\n        for (uint256 i = 0; i < recipients.length; i++) {\\r\\n            token.transfer(recipients[i], amounts[i]);\\r\\n        }\\r\\n    }\\r\\n}\"},\"@acala-network/contracts/utils/AcalaTokens.sol\":{\"content\":\"// SPDX-License-Identifier: GPL-3.0-or-later\\n\\npragma solidity ^0.8.0;\\n\\naddress constant ACA = 0x0000000000000000000100000000000000000000;\\naddress constant AUSD = 0x0000000000000000000100000000000000000001;\\naddress constant DOT = 0x0000000000000000000100000000000000000002;\\naddress constant LDOT = 0x0000000000000000000100000000000000000003;\\naddress constant TAP = 0x0000000000000000000100000000000000000004;\\naddress constant LP_ACA_AUSD = 0x0000000000000000000200000000000000000001;\\naddress constant LP_LDOT_AUSD = 0x0000000000000000000200000000010000000003;\\naddress constant LP_LCDOT_AUSD = 0x000000000000000000020000000001020000000D;\\naddress constant LP_LCDOT_DOT = 0x000000000000000000020000000002020000000d;\\naddress constant SA_DOT = 0x0000000000000000000300000000000000000000;\\naddress constant LCDOT_13 = 0x000000000000000000040000000000000000000d;\\naddress constant FA_GLMR = 0x0000000000000000000500000000000000000000;\\naddress constant FA_PARA = 0x0000000000000000000500000000000000000001;\\naddress constant FA_ASTR = 0x0000000000000000000500000000000000000002;\\naddress constant FA_IBTC = 0x0000000000000000000500000000000000000003;\\naddress constant FA_INTR = 0x0000000000000000000500000000000000000004;\\naddress constant FA_WBTC = 0x0000000000000000000500000000000000000005;\\naddress constant FA_WETH = 0x0000000000000000000500000000000000000006;\\naddress constant FA_EQ = 0x0000000000000000000500000000000000000007;\\naddress constant FA_EQD = 0x0000000000000000000500000000000000000008;\\n\"},\"@acala-network/contracts/utils/Predeploy.sol\":{\"content\":\"// SPDX-License-Identifier: GPL-3.0-or-later\\n\\npragma solidity ^0.8.0;\\n\\naddress constant EVM = 0x0000000000000000000000000000000000000800;\\naddress constant ORACLE = 0x0000000000000000000000000000000000000801;\\naddress constant SCHEDULE = 0x0000000000000000000000000000000000000802;\\naddress constant DEX = 0x0000000000000000000000000000000000000803;\\naddress constant STABLE_ASSET = 0x0000000000000000000000000000000000000804;\\naddress constant HOMA = 0x0000000000000000000000000000000000000805;\\naddress constant EVM_ACCOUNTS = 0x0000000000000000000000000000000000000806;\\naddress constant HONZON = 0x0000000000000000000000000000000000000807;\\naddress constant INCENTIVES = 0x0000000000000000000000000000000000000808;\\naddress constant XTOKENS = 0x0000000000000000000000000000000000000809;\\n\"},\"@acala-network/contracts/oracle/IOracle.sol\":{\"content\":\"// SPDX-License-Identifier: GPL-3.0-or-later\\n\\npragma solidity ^0.8.0;\\n\\n/// @title Oracle Predeploy Contract Interface\\n/// @author Acala Developers\\n/// @notice You can use this predeploy contract to call oracle pallet\\n/// @dev The interface through which solidity contracts will interact with oracle pallet\\ninterface IOracle {\\n    /// @notice Get the price of the currency_id.\\n    /// @param token The ERC20 address of currency_id.\\n    /// @return Returns the (price, timestamp).\\n    function getPrice(address token) external view returns (uint256);\\n}\\n\"},\"@acala-network/contracts/schedule/ISchedule.sol\":{\"content\":\"// SPDX-License-Identifier: GPL-3.0-or-later\\n\\npragma solidity ^0.8.0;\\n\\n/// @title Schedule Predeploy Contract Interface\\n/// @author Acala Developers\\n/// @notice You can use this predeploy contract to call idle-schedule pallet\\n/// @dev The interface through which solidity contracts will interact with idle-schedule pallet\\ninterface ISchedule {\\n    /// @notice The scheduled call event.\\n    /// @param sender The sender of the transaction.\\n    /// @param contractAddress The scheduled contract address.\\n    /// @param taskId The scheduled task id.\\n    event ScheduledCall(\\n        address indexed sender,\\n        address indexed contractAddress,\\n        bytes taskId\\n    );\\n\\n    /// @notice The canceled call event.\\n    /// @param sender The sender of the transaction.\\n    /// @param taskId The scheduled task id.\\n    event CanceledCall(address indexed sender, bytes taskId);\\n\\n    /// @notice The rescheduled call event.\\n    /// @param sender The sender of the transaction.\\n    /// @param taskId The scheduled task id.\\n    event RescheduledCall(address indexed sender, bytes taskId);\\n\\n    /// @notice Schedule call the contract.\\n    /// @dev It'll emit an {ScheduledCall} event.\\n    /// @param contractAddress The contract address to be called in future.\\n    /// @param value How much native token to send alone with the call.\\n    /// @param gasLimit The gas limit for the call. Corresponding fee will be reserved upfront and refunded after call.\\n    /// @param storageLimit The storage limit for the call.\\n    /// Corresponding fee will be reserved upfront and refunded after call.\\n    /// @param minDelay Minimum number of blocks before the scheduled call will be called.\\n    /// @param inputData The input data to the call.\\n    /// @return Returns a bytes value equal to the taskId of the task created.\\n    function scheduleCall(\\n        address contractAddress,\\n        uint256 value,\\n        uint256 gasLimit,\\n        uint256 storageLimit,\\n        uint256 minDelay,\\n        bytes calldata inputData\\n    ) external returns (bytes memory);\\n\\n    /// @notice Cancel schedule call the contract.\\n    /// @dev It'll emit an {CanceledCall} event.\\n    /// @param taskId The task id of the scheduler. Get it from the `ScheduledCall` event.\\n    /// @return Returns a boolean value indicating whether the operation succeeded.\\n    function cancelCall(bytes calldata taskId) external returns (bool);\\n\\n    /// @notice Reschedule call the contract.\\n    /// @dev It'll emit an {RescheduledCall} event.\\n    /// @param minDelay The Minimum number of blocks before the scheduled call will be called.\\n    /// @param taskId The task id of the scheduler. Get it from the `ScheduledCall` event.\\n    /// @return Returns a boolean value indicating whether the operation succeeded.\\n    function rescheduleCall(\\n        uint256 minDelay,\\n        bytes calldata taskId\\n    ) external returns (bool);\\n}\\n\"},\"@openzeppelin/contracts/token/ERC20/IERC20.sol\":{\"content\":\"// SPDX-License-Identifier: MIT\\n// OpenZeppelin Contracts (last updated v4.6.0) (token/ERC20/IERC20.sol)\\n\\npragma solidity ^0.8.0;\\n\\n/**\\n * @dev Interface of the ERC20 standard as defined in the EIP.\\n */\\ninterface IERC20 {\\n    /**\\n     * @dev Emitted when `value` tokens are moved from one account (`from`) to\\n     * another (`to`).\\n     *\\n     * Note that `value` may be zero.\\n     */\\n    event Transfer(address indexed from, address indexed to, uint256 value);\\n\\n    /**\\n     * @dev Emitted when the allowance of a `spender` for an `owner` is set by\\n     * a call to {approve}. `value` is the new allowance.\\n     */\\n    event Approval(address indexed owner, address indexed spender, uint256 value);\\n\\n    /**\\n     * @dev Returns the amount of tokens in existence.\\n     */\\n    function totalSupply() external view returns (uint256);\\n\\n    /**\\n     * @dev Returns the amount of tokens owned by `account`.\\n     */\\n    function balanceOf(address account) external view returns (uint256);\\n\\n    /**\\n     * @dev Moves `amount` tokens from the caller's account to `to`.\\n     *\\n     * Returns a boolean value indicating whether the operation succeeded.\\n     *\\n     * Emits a {Transfer} event.\\n     */\\n    function transfer(address to, uint256 amount) external returns (bool);\\n\\n    /**\\n     * @dev Returns the remaining number of tokens that `spender` will be\\n     * allowed to spend on behalf of `owner` through {transferFrom}. This is\\n     * zero by default.\\n     *\\n     * This value changes when {approve} or {transferFrom} are called.\\n     */\\n    function allowance(address owner, address spender) external view returns (uint256);\\n\\n    /**\\n     * @dev Sets `amount` as the allowance of `spender` over the caller's tokens.\\n     *\\n     * Returns a boolean value indicating whether the operation succeeded.\\n     *\\n     * IMPORTANT: Beware that changing an allowance with this method brings the risk\\n     * that someone may use both the old and the new allowance by unfortunate\\n     * transaction ordering. One possible solution to mitigate this race\\n     * condition is to first reduce the spender's allowance to 0 and set the\\n     * desired value afterwards:\\n     * https://github.com/ethereum/EIPs/issues/20#issuecomment-263524729\\n     *\\n     * Emits an {Approval} event.\\n     */\\n    function approve(address spender, uint256 amount) external returns (bool);\\n\\n    /**\\n     * @dev Moves `amount` tokens from `from` to `to` using the\\n     * allowance mechanism. `amount` is then deducted from the caller's\\n     * allowance.\\n     *\\n     * Returns a boolean value indicating whether the operation succeeded.\\n     *\\n     * Emits a {Transfer} event.\\n     */\\n    function transferFrom(\\n        address from,\\n        address to,\\n        uint256 amount\\n    ) external returns (bool);\\n}\\n\"}},\"settings\":{\"optimizer\":{\"enabled\":false,\"runs\":200},\"outputSelection\":{\"*\":{\"\":[\"ast\"],\"*\":[\"abi\",\"metadata\",\"devdoc\",\"userdoc\",\"storageLayout\",\"evm.legacyAssembly\",\"evm.bytecode\",\"evm.deployedBytecode\",\"evm.methodIdentifiers\",\"evm.gasEstimates\",\"evm.assembly\"]}}}}",
	"name": "DisDrop",
	"bytecode": {
		"linkReferences": {},
		"object": "60806040526108026000806101000a81548173ffffffffffffffffffffffffffffffffffffffff021916908373ffffffffffffffffffffffffffffffffffffffff160217905550610801600160006101000a81548173ffffffffffffffffffffffffffffffffffffffff021916908373ffffffffffffffffffffffffffffffffffffffff1602179055506119f8806100986000396000f3fe6080604052600436106100385760003560e01c80635b93f50714610041578063ed44b3881461005d578063f2b0244f146100795761003f565b3661003f57005b005b61005b60048036038101906100569190610e04565b610095565b005b61007760048036038101906100729190610ea3565b6103af565b005b610093600480360381019061008e9190610f2e565b61069b565b005b600084905082518451146100de576040517f08c379a00000000000000000000000000000000000000000000000000000000081526004016100d59061103e565b60405180910390fd5b6000805b8451811015610126578481815181106100fe576100fd61105e565b5b60200260200101518261011191906110bc565b9150808061011e906110f0565b9150506100e2565b508173ffffffffffffffffffffffffffffffffffffffff166323b872dd3330846040518463ffffffff1660e01b815260040161016493929190611156565b6020604051808303816000875af1158015610183573d6000803e3d6000fd5b505050506040513d601f19601f820116820180604052508101906101a791906111c5565b6101e6576040517f08c379a00000000000000000000000000000000000000000000000000000000081526004016101dd9061123e565b60405180910390fd5b60008686866040516024016101fd939291906113da565b6040516020818303038152906040527f46ba5fed000000000000000000000000000000000000000000000000000000007bffffffffffffffffffffffffffffffffffffffffffffffffffffffff19166020820180517bffffffffffffffffffffffffffffffffffffffffffffffffffffffff8381831617835250505050905060008060009054906101000a900473ffffffffffffffffffffffffffffffffffffffff1673ffffffffffffffffffffffffffffffffffffffff1663168d560d30600062200b2061fa008a886040518763ffffffff1660e01b81526004016102e896959493929190611559565b6000604051808303816000875af1158015610307573d6000803e3d6000fd5b505050506040513d6000823e3d601f19601f820116820180604052508101906103309190611667565b90508773ffffffffffffffffffffffffffffffffffffffff168160405161035791906116ec565b60405180910390207fc9c9afe41dd5e3a9438dd88814edcb9c8089a9e980f48b14414eda3d6d3d0e9a8989894261038e91906110bc565b60405161039d93929190611703565b60405180910390a35050505050505050565b600083905081518351146103f8576040517f08c379a00000000000000000000000000000000000000000000000000000000081526004016103ef9061103e565b60405180910390fd5b6000805b8451811015610440578381815181106104185761041761105e565b5b60200260200101518261042b91906110bc565b91508080610438906110f0565b9150506103fc565b508173ffffffffffffffffffffffffffffffffffffffff166323b872dd3330846040518463ffffffff1660e01b815260040161047e93929190611156565b6020604051808303816000875af115801561049d573d6000803e3d6000fd5b505050506040513d601f19601f820116820180604052508101906104c191906111c5565b610500576040517f08c379a00000000000000000000000000000000000000000000000000000000081526004016104f790611794565b60405180910390fd5b60005b8451811015610693578273ffffffffffffffffffffffffffffffffffffffff1663a9059cbb86838151811061053b5761053a61105e565b5b60200260200101518684815181106105565761055561105e565b5b60200260200101516040518363ffffffff1660e01b815260040161057b9291906117b4565b6020604051808303816000875af115801561059a573d6000803e3d6000fd5b505050506040513d601f19601f820116820180604052508101906105be91906111c5565b6105fd576040517f08c379a00000000000000000000000000000000000000000000000000000000081526004016105f490611829565b60405180910390fd5b8481815181106106105761060f61105e565b5b602002602001015173ffffffffffffffffffffffffffffffffffffffff16817fb9471439bd4c23f19d2b486548fa6061ab17e1da9815f325f2a2b29f22e715e38684815181106106635761066261105e565b5b60200260200101516040516106789190611849565b60405180910390a3808061068b906110f0565b915050610503565b505050505050565b600085905060003390506000600160009054906101000a900473ffffffffffffffffffffffffffffffffffffffff1673ffffffffffffffffffffffffffffffffffffffff166341976e09846040518263ffffffff1660e01b81526004016107029190611864565b602060405180830381865afa15801561071f573d6000803e3d6000fd5b505050506040513d601f19601f820116820180604052508101906107439190611894565b905084810361075d5761075888888885610914565b61090a565b600088888888888760405160240161077a969594939291906118c1565b6040516020818303038152906040527fab54b1ba000000000000000000000000000000000000000000000000000000007bffffffffffffffffffffffffffffffffffffffffffffffffffffffff19166020820180517bffffffffffffffffffffffffffffffffffffffffffffffffffffffff8381831617835250505050905060008060009054906101000a900473ffffffffffffffffffffffffffffffffffffffff1673ffffffffffffffffffffffffffffffffffffffff1663168d560d30600062200b2061fa008b886040518763ffffffff1660e01b815260040161086596959493929190611559565b6000604051808303816000875af1158015610884573d6000803e3d6000fd5b505050506040513d6000823e3d601f19601f820116820180604052508101906108ad9190611667565b9050806040516108bd91906116ec565b60405180910390207f9e989ccc644aff3dccb44d63c0125cf7c49f64c9631016543486e7dfc72187c787426108f291906110bc565b6040516108ff9190611849565b60405180910390a250505b5050505050505050565b6000849050825184511461095d576040517f08c379a0000000000000000000000000000000000000000000000000000000008152600401610954906119a2565b60405180910390fd5b6000805b84518110156109a55784818151811061097d5761097c61105e565b5b60200260200101518261099091906110bc565b9150808061099d906110f0565b915050610961565b508173ffffffffffffffffffffffffffffffffffffffff166323b872dd8430846040518463ffffffff1660e01b81526004016109e393929190611156565b6020604051808303816000875af1158015610a02573d6000803e3d6000fd5b505050506040513d601f19601f82011682018060405250810190610a2691906111c5565b610a65576040517f08c379a0000000000000000000000000000000000000000000000000000000008152600401610a5c90611829565b60405180910390fd5b60005b8551811015610b37578273ffffffffffffffffffffffffffffffffffffffff1663a9059cbb878381518110610aa057610a9f61105e565b5b6020026020010151878481518110610abb57610aba61105e565b5b60200260200101516040518363ffffffff1660e01b8152600401610ae09291906117b4565b6020604051808303816000875af1158015610aff573d6000803e3d6000fd5b505050506040513d601f19601f82011682018060405250810190610b2391906111c5565b508080610b2f906110f0565b915050610a68565b50505050505050565b6000604051905090565b600080fd5b600080fd5b600073ffffffffffffffffffffffffffffffffffffffff82169050919050565b6000610b7f82610b54565b9050919050565b610b8f81610b74565b8114610b9a57600080fd5b50565b600081359050610bac81610b86565b92915050565b600080fd5b6000601f19601f8301169050919050565b7f4e487b7100000000000000000000000000000000000000000000000000000000600052604160045260246000fd5b610c0082610bb7565b810181811067ffffffffffffffff82111715610c1f57610c1e610bc8565b5b80604052505050565b6000610c32610b40565b9050610c3e8282610bf7565b919050565b600067ffffffffffffffff821115610c5e57610c5d610bc8565b5b602082029050602081019050919050565b600080fd5b6000610c87610c8284610c43565b610c28565b90508083825260208201905060208402830185811115610caa57610ca9610c6f565b5b835b81811015610cd35780610cbf8882610b9d565b845260208401935050602081019050610cac565b5050509392505050565b600082601f830112610cf257610cf1610bb2565b5b8135610d02848260208601610c74565b91505092915050565b600067ffffffffffffffff821115610d2657610d25610bc8565b5b602082029050602081019050919050565b6000819050919050565b610d4a81610d37565b8114610d5557600080fd5b50565b600081359050610d6781610d41565b92915050565b6000610d80610d7b84610d0b565b610c28565b90508083825260208201905060208402830185811115610da357610da2610c6f565b5b835b81811015610dcc5780610db88882610d58565b845260208401935050602081019050610da5565b5050509392505050565b600082601f830112610deb57610dea610bb2565b5b8135610dfb848260208601610d6d565b91505092915050565b60008060008060808587031215610e1e57610e1d610b4a565b5b6000610e2c87828801610b9d565b945050602085013567ffffffffffffffff811115610e4d57610e4c610b4f565b5b610e5987828801610cdd565b935050604085013567ffffffffffffffff811115610e7a57610e79610b4f565b5b610e8687828801610dd6565b9250506060610e9787828801610d58565b91505092959194509250565b600080600060608486031215610ebc57610ebb610b4a565b5b6000610eca86828701610b9d565b935050602084013567ffffffffffffffff811115610eeb57610eea610b4f565b5b610ef786828701610cdd565b925050604084013567ffffffffffffffff811115610f1857610f17610b4f565b5b610f2486828701610dd6565b9150509250925092565b600080600080600060a08688031215610f4a57610f49610b4a565b5b6000610f5888828901610b9d565b955050602086013567ffffffffffffffff811115610f7957610f78610b4f565b5b610f8588828901610cdd565b945050604086013567ffffffffffffffff811115610fa657610fa5610b4f565b5b610fb288828901610dd6565b9350506060610fc388828901610d58565b9250506080610fd488828901610d58565b9150509295509295909350565b600082825260208201905092915050565b7f4769766520696e70757473206163636f7264696e676c79210000000000000000600082015250565b6000611028601883610fe1565b915061103382610ff2565b602082019050919050565b600060208201905081810360008301526110578161101b565b9050919050565b7f4e487b7100000000000000000000000000000000000000000000000000000000600052603260045260246000fd5b7f4e487b7100000000000000000000000000000000000000000000000000000000600052601160045260246000fd5b60006110c782610d37565b91506110d283610d37565b92508282019050808211156110ea576110e961108d565b5b92915050565b60006110fb82610d37565b91507fffffffffffffffffffffffffffffffffffffffffffffffffffffffffffffffff820361112d5761112c61108d565b5b600182019050919050565b61114181610b74565b82525050565b61115081610d37565b82525050565b600060608201905061116b6000830186611138565b6111786020830185611138565b6111856040830184611147565b949350505050565b60008115159050919050565b6111a28161118d565b81146111ad57600080fd5b50565b6000815190506111bf81611199565b92915050565b6000602082840312156111db576111da610b4a565b5b60006111e9848285016111b0565b91505092915050565b7f546f6b656e207472616e73666572206661696c65642100000000000000000000600082015250565b6000611228601683610fe1565b9150611233826111f2565b602082019050919050565b600060208201905081810360008301526112578161121b565b9050919050565b600081519050919050565b600082825260208201905092915050565b6000819050602082019050919050565b61129381610b74565b82525050565b60006112a5838361128a565b60208301905092915050565b6000602082019050919050565b60006112c98261125e565b6112d38185611269565b93506112de8361127a565b8060005b8381101561130f5781516112f68882611299565b9750611301836112b1565b9250506001810190506112e2565b5085935050505092915050565b600081519050919050565b600082825260208201905092915050565b6000819050602082019050919050565b61135181610d37565b82525050565b60006113638383611348565b60208301905092915050565b6000602082019050919050565b60006113878261131c565b6113918185611327565b935061139c83611338565b8060005b838110156113cd5781516113b48882611357565b97506113bf8361136f565b9250506001810190506113a0565b5085935050505092915050565b60006060820190506113ef6000830186611138565b818103602083015261140181856112be565b90508181036040830152611415818461137c565b9050949350505050565b6000819050919050565b6000819050919050565b600061144e6114496114448461141f565b611429565b610d37565b9050919050565b61145e81611433565b82525050565b6000819050919050565b600061148961148461147f84611464565b611429565b610d37565b9050919050565b6114998161146e565b82525050565b6000819050919050565b60006114c46114bf6114ba8461149f565b611429565b610d37565b9050919050565b6114d4816114a9565b82525050565b600081519050919050565b600082825260208201905092915050565b60005b838110156115145780820151818401526020810190506114f9565b60008484015250505050565b600061152b826114da565b61153581856114e5565b93506115458185602086016114f6565b61154e81610bb7565b840191505092915050565b600060c08201905061156e6000830189611138565b61157b6020830188611455565b6115886040830187611490565b61159560608301866114cb565b6115a26080830185611147565b81810360a08301526115b48184611520565b9050979650505050505050565b600080fd5b600067ffffffffffffffff8211156115e1576115e0610bc8565b5b6115ea82610bb7565b9050602081019050919050565b600061160a611605846115c6565b610c28565b905082815260208101848484011115611626576116256115c1565b5b6116318482856114f6565b509392505050565b600082601f83011261164e5761164d610bb2565b5b815161165e8482602086016115f7565b91505092915050565b60006020828403121561167d5761167c610b4a565b5b600082015167ffffffffffffffff81111561169b5761169a610b4f565b5b6116a784828501611639565b91505092915050565b600081905092915050565b60006116c6826114da565b6116d081856116b0565b93506116e08185602086016114f6565b80840191505092915050565b60006116f882846116bb565b915081905092915050565b6000606082019050818103600083015261171d81866112be565b90508181036020830152611731818561137c565b90506117406040830184611147565b949350505050565b7f546f6b656e207472616e7366657246726f6d206661696c656421200000000000600082015250565b600061177e601b83610fe1565b915061178982611748565b602082019050919050565b600060208201905081810360008301526117ad81611771565b9050919050565b60006040820190506117c96000830185611138565b6117d66020830184611147565b9392505050565b7f546f6b656e207472616e73666572206661696c65640000000000000000000000600082015250565b6000611813601583610fe1565b915061181e826117dd565b602082019050919050565b6000602082019050818103600083015261184281611806565b9050919050565b600060208201905061185e6000830184611147565b92915050565b60006020820190506118796000830184611138565b92915050565b60008151905061188e81610d41565b92915050565b6000602082840312156118aa576118a9610b4a565b5b60006118b88482850161187f565b91505092915050565b600060c0820190506118d66000830189611138565b81810360208301526118e881886112be565b905081810360408301526118fc818761137c565b905061190b6060830186611147565b6119186080830185611147565b61192560a0830184611138565b979650505050505050565b7f4d69736d61746368656420726563697069656e747320616e6420616d6f756e7460008201527f7300000000000000000000000000000000000000000000000000000000000000602082015250565b600061198c602183610fe1565b915061199782611930565b604082019050919050565b600060208201905081810360008301526119bb8161197f565b905091905056fea2646970667358221220d8ea52efb641c91dc8a0af94376a379c8283eeb8ba7ef78e5c2fc67e46b6179864736f6c63430008120033",
		"opcodes": "PUSH1 0x80 PUSH1 0x40 MSTORE PUSH2 0x802 PUSH1 0x0 DUP1 PUSH2 0x100 EXP DUP2 SLOAD DUP2 PUSH20 0xFFFFFFFFFFFFFFFFFFFFFFFFFFFFFFFFFFFFFFFF MUL NOT AND SWAP1 DUP4 PUSH20 0xFFFFFFFFFFFFFFFFFFFFFFFFFFFFFFFFFFFFFFFF AND MUL OR SWAP1 SSTORE POP PUSH2 0x801 PUSH1 0x1 PUSH1 0x0 PUSH2 0x100 EXP DUP2 SLOAD DUP2 PUSH20 0xFFFFFFFFFFFFFFFFFFFFFFFFFFFFFFFFFFFFFFFF MUL NOT AND SWAP1 DUP4 PUSH20 0xFFFFFFFFFFFFFFFFFFFFFFFFFFFFFFFFFFFFFFFF AND MUL OR SWAP1 SSTORE POP PUSH2 0x19F8 DUP1 PUSH2 0x98 PUSH1 0x0 CODECOPY PUSH1 0x0 RETURN INVALID PUSH1 0x80 PUSH1 0x40 MSTORE PUSH1 0x4 CALLDATASIZE LT PUSH2 0x38 JUMPI PUSH1 0x0 CALLDATALOAD PUSH1 0xE0 SHR DUP1 PUSH4 0x5B93F507 EQ PUSH2 0x41 JUMPI DUP1 PUSH4 0xED44B388 EQ PUSH2 0x5D JUMPI DUP1 PUSH4 0xF2B0244F EQ PUSH2 0x79 JUMPI PUSH2 0x3F JUMP JUMPDEST CALLDATASIZE PUSH2 0x3F JUMPI STOP JUMPDEST STOP JUMPDEST PUSH2 0x5B PUSH1 0x4 DUP1 CALLDATASIZE SUB DUP2 ADD SWAP1 PUSH2 0x56 SWAP2 SWAP1 PUSH2 0xE04 JUMP JUMPDEST PUSH2 0x95 JUMP JUMPDEST STOP JUMPDEST PUSH2 0x77 PUSH1 0x4 DUP1 CALLDATASIZE SUB DUP2 ADD SWAP1 PUSH2 0x72 SWAP2 SWAP1 PUSH2 0xEA3 JUMP JUMPDEST PUSH2 0x3AF JUMP JUMPDEST STOP JUMPDEST PUSH2 0x93 PUSH1 0x4 DUP1 CALLDATASIZE SUB DUP2 ADD SWAP1 PUSH2 0x8E SWAP2 SWAP1 PUSH2 0xF2E JUMP JUMPDEST PUSH2 0x69B JUMP JUMPDEST STOP JUMPDEST PUSH1 0x0 DUP5 SWAP1 POP DUP3 MLOAD DUP5 MLOAD EQ PUSH2 0xDE JUMPI PUSH1 0x40 MLOAD PUSH32 0x8C379A000000000000000000000000000000000000000000000000000000000 DUP2 MSTORE PUSH1 0x4 ADD PUSH2 0xD5 SWAP1 PUSH2 0x103E JUMP JUMPDEST PUSH1 0x40 MLOAD DUP1 SWAP2 SUB SWAP1 REVERT JUMPDEST PUSH1 0x0 DUP1 JUMPDEST DUP5 MLOAD DUP2 LT ISZERO PUSH2 0x126 JUMPI DUP5 DUP2 DUP2 MLOAD DUP2 LT PUSH2 0xFE JUMPI PUSH2 0xFD PUSH2 0x105E JUMP JUMPDEST JUMPDEST PUSH1 0x20 MUL PUSH1 0x20 ADD ADD MLOAD DUP3 PUSH2 0x111 SWAP2 SWAP1 PUSH2 0x10BC JUMP JUMPDEST SWAP2 POP DUP1 DUP1 PUSH2 0x11E SWAP1 PUSH2 0x10F0 JUMP JUMPDEST SWAP2 POP POP PUSH2 0xE2 JUMP JUMPDEST POP DUP2 PUSH20 0xFFFFFFFFFFFFFFFFFFFFFFFFFFFFFFFFFFFFFFFF AND PUSH4 0x23B872DD CALLER ADDRESS DUP5 PUSH1 0x40 MLOAD DUP5 PUSH4 0xFFFFFFFF AND PUSH1 0xE0 SHL DUP2 MSTORE PUSH1 0x4 ADD PUSH2 0x164 SWAP4 SWAP3 SWAP2 SWAP1 PUSH2 0x1156 JUMP JUMPDEST PUSH1 0x20 PUSH1 0x40 MLOAD DUP1 DUP4 SUB DUP2 PUSH1 0x0 DUP8 GAS CALL ISZERO DUP1 ISZERO PUSH2 0x183 JUMPI RETURNDATASIZE PUSH1 0x0 DUP1 RETURNDATACOPY RETURNDATASIZE PUSH1 0x0 REVERT JUMPDEST POP POP POP POP PUSH1 0x40 MLOAD RETURNDATASIZE PUSH1 0x1F NOT PUSH1 0x1F DUP3 ADD AND DUP3 ADD DUP1 PUSH1 0x40 MSTORE POP DUP2 ADD SWAP1 PUSH2 0x1A7 SWAP2 SWAP1 PUSH2 0x11C5 JUMP JUMPDEST PUSH2 0x1E6 JUMPI PUSH1 0x40 MLOAD PUSH32 0x8C379A000000000000000000000000000000000000000000000000000000000 DUP2 MSTORE PUSH1 0x4 ADD PUSH2 0x1DD SWAP1 PUSH2 0x123E JUMP JUMPDEST PUSH1 0x40 MLOAD DUP1 SWAP2 SUB SWAP1 REVERT JUMPDEST PUSH1 0x0 DUP7 DUP7 DUP7 PUSH1 0x40 MLOAD PUSH1 0x24 ADD PUSH2 0x1FD SWAP4 SWAP3 SWAP2 SWAP1 PUSH2 0x13DA JUMP JUMPDEST PUSH1 0x40 MLOAD PUSH1 0x20 DUP2 DUP4 SUB SUB DUP2 MSTORE SWAP1 PUSH1 0x40 MSTORE PUSH32 0x46BA5FED00000000000000000000000000000000000000000000000000000000 PUSH28 0xFFFFFFFFFFFFFFFFFFFFFFFFFFFFFFFFFFFFFFFFFFFFFFFFFFFFFFFF NOT AND PUSH1 0x20 DUP3 ADD DUP1 MLOAD PUSH28 0xFFFFFFFFFFFFFFFFFFFFFFFFFFFFFFFFFFFFFFFFFFFFFFFFFFFFFFFF DUP4 DUP2 DUP4 AND OR DUP4 MSTORE POP POP POP POP SWAP1 POP PUSH1 0x0 DUP1 PUSH1 0x0 SWAP1 SLOAD SWAP1 PUSH2 0x100 EXP SWAP1 DIV PUSH20 0xFFFFFFFFFFFFFFFFFFFFFFFFFFFFFFFFFFFFFFFF AND PUSH20 0xFFFFFFFFFFFFFFFFFFFFFFFFFFFFFFFFFFFFFFFF AND PUSH4 0x168D560D ADDRESS PUSH1 0x0 PUSH3 0x200B20 PUSH2 0xFA00 DUP11 DUP9 PUSH1 0x40 MLOAD DUP8 PUSH4 0xFFFFFFFF AND PUSH1 0xE0 SHL DUP2 MSTORE PUSH1 0x4 ADD PUSH2 0x2E8 SWAP7 SWAP6 SWAP5 SWAP4 SWAP3 SWAP2 SWAP1 PUSH2 0x1559 JUMP JUMPDEST PUSH1 0x0 PUSH1 0x40 MLOAD DUP1 DUP4 SUB DUP2 PUSH1 0x0 DUP8 GAS CALL ISZERO DUP1 ISZERO PUSH2 0x307 JUMPI RETURNDATASIZE PUSH1 0x0 DUP1 RETURNDATACOPY RETURNDATASIZE PUSH1 0x0 REVERT JUMPDEST POP POP POP POP PUSH1 0x40 MLOAD RETURNDATASIZE PUSH1 0x0 DUP3 RETURNDATACOPY RETURNDATASIZE PUSH1 0x1F NOT PUSH1 0x1F DUP3 ADD AND DUP3 ADD DUP1 PUSH1 0x40 MSTORE POP DUP2 ADD SWAP1 PUSH2 0x330 SWAP2 SWAP1 PUSH2 0x1667 JUMP JUMPDEST SWAP1 POP DUP8 PUSH20 0xFFFFFFFFFFFFFFFFFFFFFFFFFFFFFFFFFFFFFFFF AND DUP2 PUSH1 0x40 MLOAD PUSH2 0x357 SWAP2 SWAP1 PUSH2 0x16EC JUMP JUMPDEST PUSH1 0x40 MLOAD DUP1 SWAP2 SUB SWAP1 KECCAK256 PUSH32 0xC9C9AFE41DD5E3A9438DD88814EDCB9C8089A9E980F48B14414EDA3D6D3D0E9A DUP10 DUP10 DUP10 TIMESTAMP PUSH2 0x38E SWAP2 SWAP1 PUSH2 0x10BC JUMP JUMPDEST PUSH1 0x40 MLOAD PUSH2 0x39D SWAP4 SWAP3 SWAP2 SWAP1 PUSH2 0x1703 JUMP JUMPDEST PUSH1 0x40 MLOAD DUP1 SWAP2 SUB SWAP1 LOG3 POP POP POP POP POP POP POP POP JUMP JUMPDEST PUSH1 0x0 DUP4 SWAP1 POP DUP2 MLOAD DUP4 MLOAD EQ PUSH2 0x3F8 JUMPI PUSH1 0x40 MLOAD PUSH32 0x8C379A000000000000000000000000000000000000000000000000000000000 DUP2 MSTORE PUSH1 0x4 ADD PUSH2 0x3EF SWAP1 PUSH2 0x103E JUMP JUMPDEST PUSH1 0x40 MLOAD DUP1 SWAP2 SUB SWAP1 REVERT JUMPDEST PUSH1 0x0 DUP1 JUMPDEST DUP5 MLOAD DUP2 LT ISZERO PUSH2 0x440 JUMPI DUP4 DUP2 DUP2 MLOAD DUP2 LT PUSH2 0x418 JUMPI PUSH2 0x417 PUSH2 0x105E JUMP JUMPDEST JUMPDEST PUSH1 0x20 MUL PUSH1 0x20 ADD ADD MLOAD DUP3 PUSH2 0x42B SWAP2 SWAP1 PUSH2 0x10BC JUMP JUMPDEST SWAP2 POP DUP1 DUP1 PUSH2 0x438 SWAP1 PUSH2 0x10F0 JUMP JUMPDEST SWAP2 POP POP PUSH2 0x3FC JUMP JUMPDEST POP DUP2 PUSH20 0xFFFFFFFFFFFFFFFFFFFFFFFFFFFFFFFFFFFFFFFF AND PUSH4 0x23B872DD CALLER ADDRESS DUP5 PUSH1 0x40 MLOAD DUP5 PUSH4 0xFFFFFFFF AND PUSH1 0xE0 SHL DUP2 MSTORE PUSH1 0x4 ADD PUSH2 0x47E SWAP4 SWAP3 SWAP2 SWAP1 PUSH2 0x1156 JUMP JUMPDEST PUSH1 0x20 PUSH1 0x40 MLOAD DUP1 DUP4 SUB DUP2 PUSH1 0x0 DUP8 GAS CALL ISZERO DUP1 ISZERO PUSH2 0x49D JUMPI RETURNDATASIZE PUSH1 0x0 DUP1 RETURNDATACOPY RETURNDATASIZE PUSH1 0x0 REVERT JUMPDEST POP POP POP POP PUSH1 0x40 MLOAD RETURNDATASIZE PUSH1 0x1F NOT PUSH1 0x1F DUP3 ADD AND DUP3 ADD DUP1 PUSH1 0x40 MSTORE POP DUP2 ADD SWAP1 PUSH2 0x4C1 SWAP2 SWAP1 PUSH2 0x11C5 JUMP JUMPDEST PUSH2 0x500 JUMPI PUSH1 0x40 MLOAD PUSH32 0x8C379A000000000000000000000000000000000000000000000000000000000 DUP2 MSTORE PUSH1 0x4 ADD PUSH2 0x4F7 SWAP1 PUSH2 0x1794 JUMP JUMPDEST PUSH1 0x40 MLOAD DUP1 SWAP2 SUB SWAP1 REVERT JUMPDEST PUSH1 0x0 JUMPDEST DUP5 MLOAD DUP2 LT ISZERO PUSH2 0x693 JUMPI DUP3 PUSH20 0xFFFFFFFFFFFFFFFFFFFFFFFFFFFFFFFFFFFFFFFF AND PUSH4 0xA9059CBB DUP7 DUP4 DUP2 MLOAD DUP2 LT PUSH2 0x53B JUMPI PUSH2 0x53A PUSH2 0x105E JUMP JUMPDEST JUMPDEST PUSH1 0x20 MUL PUSH1 0x20 ADD ADD MLOAD DUP7 DUP5 DUP2 MLOAD DUP2 LT PUSH2 0x556 JUMPI PUSH2 0x555 PUSH2 0x105E JUMP JUMPDEST JUMPDEST PUSH1 0x20 MUL PUSH1 0x20 ADD ADD MLOAD PUSH1 0x40 MLOAD DUP4 PUSH4 0xFFFFFFFF AND PUSH1 0xE0 SHL DUP2 MSTORE PUSH1 0x4 ADD PUSH2 0x57B SWAP3 SWAP2 SWAP1 PUSH2 0x17B4 JUMP JUMPDEST PUSH1 0x20 PUSH1 0x40 MLOAD DUP1 DUP4 SUB DUP2 PUSH1 0x0 DUP8 GAS CALL ISZERO DUP1 ISZERO PUSH2 0x59A JUMPI RETURNDATASIZE PUSH1 0x0 DUP1 RETURNDATACOPY RETURNDATASIZE PUSH1 0x0 REVERT JUMPDEST POP POP POP POP PUSH1 0x40 MLOAD RETURNDATASIZE PUSH1 0x1F NOT PUSH1 0x1F DUP3 ADD AND DUP3 ADD DUP1 PUSH1 0x40 MSTORE POP DUP2 ADD SWAP1 PUSH2 0x5BE SWAP2 SWAP1 PUSH2 0x11C5 JUMP JUMPDEST PUSH2 0x5FD JUMPI PUSH1 0x40 MLOAD PUSH32 0x8C379A000000000000000000000000000000000000000000000000000000000 DUP2 MSTORE PUSH1 0x4 ADD PUSH2 0x5F4 SWAP1 PUSH2 0x1829 JUMP JUMPDEST PUSH1 0x40 MLOAD DUP1 SWAP2 SUB SWAP1 REVERT JUMPDEST DUP5 DUP2 DUP2 MLOAD DUP2 LT PUSH2 0x610 JUMPI PUSH2 0x60F PUSH2 0x105E JUMP JUMPDEST JUMPDEST PUSH1 0x20 MUL PUSH1 0x20 ADD ADD MLOAD PUSH20 0xFFFFFFFFFFFFFFFFFFFFFFFFFFFFFFFFFFFFFFFF AND DUP2 PUSH32 0xB9471439BD4C23F19D2B486548FA6061AB17E1DA9815F325F2A2B29F22E715E3 DUP7 DUP5 DUP2 MLOAD DUP2 LT PUSH2 0x663 JUMPI PUSH2 0x662 PUSH2 0x105E JUMP JUMPDEST JUMPDEST PUSH1 0x20 MUL PUSH1 0x20 ADD ADD MLOAD PUSH1 0x40 MLOAD PUSH2 0x678 SWAP2 SWAP1 PUSH2 0x1849 JUMP JUMPDEST PUSH1 0x40 MLOAD DUP1 SWAP2 SUB SWAP1 LOG3 DUP1 DUP1 PUSH2 0x68B SWAP1 PUSH2 0x10F0 JUMP JUMPDEST SWAP2 POP POP PUSH2 0x503 JUMP JUMPDEST POP POP POP POP POP POP JUMP JUMPDEST PUSH1 0x0 DUP6 SWAP1 POP PUSH1 0x0 CALLER SWAP1 POP PUSH1 0x0 PUSH1 0x1 PUSH1 0x0 SWAP1 SLOAD SWAP1 PUSH2 0x100 EXP SWAP1 DIV PUSH20 0xFFFFFFFFFFFFFFFFFFFFFFFFFFFFFFFFFFFFFFFF AND PUSH20 0xFFFFFFFFFFFFFFFFFFFFFFFFFFFFFFFFFFFFFFFF AND PUSH4 0x41976E09 DUP5 PUSH1 0x40 MLOAD DUP3 PUSH4 0xFFFFFFFF AND PUSH1 0xE0 SHL DUP2 MSTORE PUSH1 0x4 ADD PUSH2 0x702 SWAP2 SWAP1 PUSH2 0x1864 JUMP JUMPDEST PUSH1 0x20 PUSH1 0x40 MLOAD DUP1 DUP4 SUB DUP2 DUP7 GAS STATICCALL ISZERO DUP1 ISZERO PUSH2 0x71F JUMPI RETURNDATASIZE PUSH1 0x0 DUP1 RETURNDATACOPY RETURNDATASIZE PUSH1 0x0 REVERT JUMPDEST POP POP POP POP PUSH1 0x40 MLOAD RETURNDATASIZE PUSH1 0x1F NOT PUSH1 0x1F DUP3 ADD AND DUP3 ADD DUP1 PUSH1 0x40 MSTORE POP DUP2 ADD SWAP1 PUSH2 0x743 SWAP2 SWAP1 PUSH2 0x1894 JUMP JUMPDEST SWAP1 POP DUP5 DUP2 SUB PUSH2 0x75D JUMPI PUSH2 0x758 DUP9 DUP9 DUP9 DUP6 PUSH2 0x914 JUMP JUMPDEST PUSH2 0x90A JUMP JUMPDEST PUSH1 0x0 DUP9 DUP9 DUP9 DUP9 DUP9 DUP8 PUSH1 0x40 MLOAD PUSH1 0x24 ADD PUSH2 0x77A SWAP7 SWAP6 SWAP5 SWAP4 SWAP3 SWAP2 SWAP1 PUSH2 0x18C1 JUMP JUMPDEST PUSH1 0x40 MLOAD PUSH1 0x20 DUP2 DUP4 SUB SUB DUP2 MSTORE SWAP1 PUSH1 0x40 MSTORE PUSH32 0xAB54B1BA00000000000000000000000000000000000000000000000000000000 PUSH28 0xFFFFFFFFFFFFFFFFFFFFFFFFFFFFFFFFFFFFFFFFFFFFFFFFFFFFFFFF NOT AND PUSH1 0x20 DUP3 ADD DUP1 MLOAD PUSH28 0xFFFFFFFFFFFFFFFFFFFFFFFFFFFFFFFFFFFFFFFFFFFFFFFFFFFFFFFF DUP4 DUP2 DUP4 AND OR DUP4 MSTORE POP POP POP POP SWAP1 POP PUSH1 0x0 DUP1 PUSH1 0x0 SWAP1 SLOAD SWAP1 PUSH2 0x100 EXP SWAP1 DIV PUSH20 0xFFFFFFFFFFFFFFFFFFFFFFFFFFFFFFFFFFFFFFFF AND PUSH20 0xFFFFFFFFFFFFFFFFFFFFFFFFFFFFFFFFFFFFFFFF AND PUSH4 0x168D560D ADDRESS PUSH1 0x0 PUSH3 0x200B20 PUSH2 0xFA00 DUP12 DUP9 PUSH1 0x40 MLOAD DUP8 PUSH4 0xFFFFFFFF AND PUSH1 0xE0 SHL DUP2 MSTORE PUSH1 0x4 ADD PUSH2 0x865 SWAP7 SWAP6 SWAP5 SWAP4 SWAP3 SWAP2 SWAP1 PUSH2 0x1559 JUMP JUMPDEST PUSH1 0x0 PUSH1 0x40 MLOAD DUP1 DUP4 SUB DUP2 PUSH1 0x0 DUP8 GAS CALL ISZERO DUP1 ISZERO PUSH2 0x884 JUMPI RETURNDATASIZE PUSH1 0x0 DUP1 RETURNDATACOPY RETURNDATASIZE PUSH1 0x0 REVERT JUMPDEST POP POP POP POP PUSH1 0x40 MLOAD RETURNDATASIZE PUSH1 0x0 DUP3 RETURNDATACOPY RETURNDATASIZE PUSH1 0x1F NOT PUSH1 0x1F DUP3 ADD AND DUP3 ADD DUP1 PUSH1 0x40 MSTORE POP DUP2 ADD SWAP1 PUSH2 0x8AD SWAP2 SWAP1 PUSH2 0x1667 JUMP JUMPDEST SWAP1 POP DUP1 PUSH1 0x40 MLOAD PUSH2 0x8BD SWAP2 SWAP1 PUSH2 0x16EC JUMP JUMPDEST PUSH1 0x40 MLOAD DUP1 SWAP2 SUB SWAP1 KECCAK256 PUSH32 0x9E989CCC644AFF3DCCB44D63C0125CF7C49F64C9631016543486E7DFC72187C7 DUP8 TIMESTAMP PUSH2 0x8F2 SWAP2 SWAP1 PUSH2 0x10BC JUMP JUMPDEST PUSH1 0x40 MLOAD PUSH2 0x8FF SWAP2 SWAP1 PUSH2 0x1849 JUMP JUMPDEST PUSH1 0x40 MLOAD DUP1 SWAP2 SUB SWAP1 LOG2 POP POP JUMPDEST POP POP POP POP POP POP POP POP JUMP JUMPDEST PUSH1 0x0 DUP5 SWAP1 POP DUP3 MLOAD DUP5 MLOAD EQ PUSH2 0x95D JUMPI PUSH1 0x40 MLOAD PUSH32 0x8C379A000000000000000000000000000000000000000000000000000000000 DUP2 MSTORE PUSH1 0x4 ADD PUSH2 0x954 SWAP1 PUSH2 0x19A2 JUMP JUMPDEST PUSH1 0x40 MLOAD DUP1 SWAP2 SUB SWAP1 REVERT JUMPDEST PUSH1 0x0 DUP1 JUMPDEST DUP5 MLOAD DUP2 LT ISZERO PUSH2 0x9A5 JUMPI DUP5 DUP2 DUP2 MLOAD DUP2 LT PUSH2 0x97D JUMPI PUSH2 0x97C PUSH2 0x105E JUMP JUMPDEST JUMPDEST PUSH1 0x20 MUL PUSH1 0x20 ADD ADD MLOAD DUP3 PUSH2 0x990 SWAP2 SWAP1 PUSH2 0x10BC JUMP JUMPDEST SWAP2 POP DUP1 DUP1 PUSH2 0x99D SWAP1 PUSH2 0x10F0 JUMP JUMPDEST SWAP2 POP POP PUSH2 0x961 JUMP JUMPDEST POP DUP2 PUSH20 0xFFFFFFFFFFFFFFFFFFFFFFFFFFFFFFFFFFFFFFFF AND PUSH4 0x23B872DD DUP5 ADDRESS DUP5 PUSH1 0x40 MLOAD DUP5 PUSH4 0xFFFFFFFF AND PUSH1 0xE0 SHL DUP2 MSTORE PUSH1 0x4 ADD PUSH2 0x9E3 SWAP4 SWAP3 SWAP2 SWAP1 PUSH2 0x1156 JUMP JUMPDEST PUSH1 0x20 PUSH1 0x40 MLOAD DUP1 DUP4 SUB DUP2 PUSH1 0x0 DUP8 GAS CALL ISZERO DUP1 ISZERO PUSH2 0xA02 JUMPI RETURNDATASIZE PUSH1 0x0 DUP1 RETURNDATACOPY RETURNDATASIZE PUSH1 0x0 REVERT JUMPDEST POP POP POP POP PUSH1 0x40 MLOAD RETURNDATASIZE PUSH1 0x1F NOT PUSH1 0x1F DUP3 ADD AND DUP3 ADD DUP1 PUSH1 0x40 MSTORE POP DUP2 ADD SWAP1 PUSH2 0xA26 SWAP2 SWAP1 PUSH2 0x11C5 JUMP JUMPDEST PUSH2 0xA65 JUMPI PUSH1 0x40 MLOAD PUSH32 0x8C379A000000000000000000000000000000000000000000000000000000000 DUP2 MSTORE PUSH1 0x4 ADD PUSH2 0xA5C SWAP1 PUSH2 0x1829 JUMP JUMPDEST PUSH1 0x40 MLOAD DUP1 SWAP2 SUB SWAP1 REVERT JUMPDEST PUSH1 0x0 JUMPDEST DUP6 MLOAD DUP2 LT ISZERO PUSH2 0xB37 JUMPI DUP3 PUSH20 0xFFFFFFFFFFFFFFFFFFFFFFFFFFFFFFFFFFFFFFFF AND PUSH4 0xA9059CBB DUP8 DUP4 DUP2 MLOAD DUP2 LT PUSH2 0xAA0 JUMPI PUSH2 0xA9F PUSH2 0x105E JUMP JUMPDEST JUMPDEST PUSH1 0x20 MUL PUSH1 0x20 ADD ADD MLOAD DUP8 DUP5 DUP2 MLOAD DUP2 LT PUSH2 0xABB JUMPI PUSH2 0xABA PUSH2 0x105E JUMP JUMPDEST JUMPDEST PUSH1 0x20 MUL PUSH1 0x20 ADD ADD MLOAD PUSH1 0x40 MLOAD DUP4 PUSH4 0xFFFFFFFF AND PUSH1 0xE0 SHL DUP2 MSTORE PUSH1 0x4 ADD PUSH2 0xAE0 SWAP3 SWAP2 SWAP1 PUSH2 0x17B4 JUMP JUMPDEST PUSH1 0x20 PUSH1 0x40 MLOAD DUP1 DUP4 SUB DUP2 PUSH1 0x0 DUP8 GAS CALL ISZERO DUP1 ISZERO PUSH2 0xAFF JUMPI RETURNDATASIZE PUSH1 0x0 DUP1 RETURNDATACOPY RETURNDATASIZE PUSH1 0x0 REVERT JUMPDEST POP POP POP POP PUSH1 0x40 MLOAD RETURNDATASIZE PUSH1 0x1F NOT PUSH1 0x1F DUP3 ADD AND DUP3 ADD DUP1 PUSH1 0x40 MSTORE POP DUP2 ADD SWAP1 PUSH2 0xB23 SWAP2 SWAP1 PUSH2 0x11C5 JUMP JUMPDEST POP DUP1 DUP1 PUSH2 0xB2F SWAP1 PUSH2 0x10F0 JUMP JUMPDEST SWAP2 POP POP PUSH2 0xA68 JUMP JUMPDEST POP POP POP POP POP POP POP JUMP JUMPDEST PUSH1 0x0 PUSH1 0x40 MLOAD SWAP1 POP SWAP1 JUMP JUMPDEST PUSH1 0x0 DUP1 REVERT JUMPDEST PUSH1 0x0 DUP1 REVERT JUMPDEST PUSH1 0x0 PUSH20 0xFFFFFFFFFFFFFFFFFFFFFFFFFFFFFFFFFFFFFFFF DUP3 AND SWAP1 POP SWAP2 SWAP1 POP JUMP JUMPDEST PUSH1 0x0 PUSH2 0xB7F DUP3 PUSH2 0xB54 JUMP JUMPDEST SWAP1 POP SWAP2 SWAP1 POP JUMP JUMPDEST PUSH2 0xB8F DUP2 PUSH2 0xB74 JUMP JUMPDEST DUP2 EQ PUSH2 0xB9A JUMPI PUSH1 0x0 DUP1 REVERT JUMPDEST POP JUMP JUMPDEST PUSH1 0x0 DUP2 CALLDATALOAD SWAP1 POP PUSH2 0xBAC DUP2 PUSH2 0xB86 JUMP JUMPDEST SWAP3 SWAP2 POP POP JUMP JUMPDEST PUSH1 0x0 DUP1 REVERT JUMPDEST PUSH1 0x0 PUSH1 0x1F NOT PUSH1 0x1F DUP4 ADD AND SWAP1 POP SWAP2 SWAP1 POP JUMP JUMPDEST PUSH32 0x4E487B7100000000000000000000000000000000000000000000000000000000 PUSH1 0x0 MSTORE PUSH1 0x41 PUSH1 0x4 MSTORE PUSH1 0x24 PUSH1 0x0 REVERT JUMPDEST PUSH2 0xC00 DUP3 PUSH2 0xBB7 JUMP JUMPDEST DUP2 ADD DUP2 DUP2 LT PUSH8 0xFFFFFFFFFFFFFFFF DUP3 GT OR ISZERO PUSH2 0xC1F JUMPI PUSH2 0xC1E PUSH2 0xBC8 JUMP JUMPDEST JUMPDEST DUP1 PUSH1 0x40 MSTORE POP POP POP JUMP JUMPDEST PUSH1 0x0 PUSH2 0xC32 PUSH2 0xB40 JUMP JUMPDEST SWAP1 POP PUSH2 0xC3E DUP3 DUP3 PUSH2 0xBF7 JUMP JUMPDEST SWAP2 SWAP1 POP JUMP JUMPDEST PUSH1 0x0 PUSH8 0xFFFFFFFFFFFFFFFF DUP3 GT ISZERO PUSH2 0xC5E JUMPI PUSH2 0xC5D PUSH2 0xBC8 JUMP JUMPDEST JUMPDEST PUSH1 0x20 DUP3 MUL SWAP1 POP PUSH1 0x20 DUP2 ADD SWAP1 POP SWAP2 SWAP1 POP JUMP JUMPDEST PUSH1 0x0 DUP1 REVERT JUMPDEST PUSH1 0x0 PUSH2 0xC87 PUSH2 0xC82 DUP5 PUSH2 0xC43 JUMP JUMPDEST PUSH2 0xC28 JUMP JUMPDEST SWAP1 POP DUP1 DUP4 DUP3 MSTORE PUSH1 0x20 DUP3 ADD SWAP1 POP PUSH1 0x20 DUP5 MUL DUP4 ADD DUP6 DUP2 GT ISZERO PUSH2 0xCAA JUMPI PUSH2 0xCA9 PUSH2 0xC6F JUMP JUMPDEST JUMPDEST DUP4 JUMPDEST DUP2 DUP2 LT ISZERO PUSH2 0xCD3 JUMPI DUP1 PUSH2 0xCBF DUP9 DUP3 PUSH2 0xB9D JUMP JUMPDEST DUP5 MSTORE PUSH1 0x20 DUP5 ADD SWAP4 POP POP PUSH1 0x20 DUP2 ADD SWAP1 POP PUSH2 0xCAC JUMP JUMPDEST POP POP POP SWAP4 SWAP3 POP POP POP JUMP JUMPDEST PUSH1 0x0 DUP3 PUSH1 0x1F DUP4 ADD SLT PUSH2 0xCF2 JUMPI PUSH2 0xCF1 PUSH2 0xBB2 JUMP JUMPDEST JUMPDEST DUP2 CALLDATALOAD PUSH2 0xD02 DUP5 DUP3 PUSH1 0x20 DUP7 ADD PUSH2 0xC74 JUMP JUMPDEST SWAP2 POP POP SWAP3 SWAP2 POP POP JUMP JUMPDEST PUSH1 0x0 PUSH8 0xFFFFFFFFFFFFFFFF DUP3 GT ISZERO PUSH2 0xD26 JUMPI PUSH2 0xD25 PUSH2 0xBC8 JUMP JUMPDEST JUMPDEST PUSH1 0x20 DUP3 MUL SWAP1 POP PUSH1 0x20 DUP2 ADD SWAP1 POP SWAP2 SWAP1 POP JUMP JUMPDEST PUSH1 0x0 DUP2 SWAP1 POP SWAP2 SWAP1 POP JUMP JUMPDEST PUSH2 0xD4A DUP2 PUSH2 0xD37 JUMP JUMPDEST DUP2 EQ PUSH2 0xD55 JUMPI PUSH1 0x0 DUP1 REVERT JUMPDEST POP JUMP JUMPDEST PUSH1 0x0 DUP2 CALLDATALOAD SWAP1 POP PUSH2 0xD67 DUP2 PUSH2 0xD41 JUMP JUMPDEST SWAP3 SWAP2 POP POP JUMP JUMPDEST PUSH1 0x0 PUSH2 0xD80 PUSH2 0xD7B DUP5 PUSH2 0xD0B JUMP JUMPDEST PUSH2 0xC28 JUMP JUMPDEST SWAP1 POP DUP1 DUP4 DUP3 MSTORE PUSH1 0x20 DUP3 ADD SWAP1 POP PUSH1 0x20 DUP5 MUL DUP4 ADD DUP6 DUP2 GT ISZERO PUSH2 0xDA3 JUMPI PUSH2 0xDA2 PUSH2 0xC6F JUMP JUMPDEST JUMPDEST DUP4 JUMPDEST DUP2 DUP2 LT ISZERO PUSH2 0xDCC JUMPI DUP1 PUSH2 0xDB8 DUP9 DUP3 PUSH2 0xD58 JUMP JUMPDEST DUP5 MSTORE PUSH1 0x20 DUP5 ADD SWAP4 POP POP PUSH1 0x20 DUP2 ADD SWAP1 POP PUSH2 0xDA5 JUMP JUMPDEST POP POP POP SWAP4 SWAP3 POP POP POP JUMP JUMPDEST PUSH1 0x0 DUP3 PUSH1 0x1F DUP4 ADD SLT PUSH2 0xDEB JUMPI PUSH2 0xDEA PUSH2 0xBB2 JUMP JUMPDEST JUMPDEST DUP2 CALLDATALOAD PUSH2 0xDFB DUP5 DUP3 PUSH1 0x20 DUP7 ADD PUSH2 0xD6D JUMP JUMPDEST SWAP2 POP POP SWAP3 SWAP2 POP POP JUMP JUMPDEST PUSH1 0x0 DUP1 PUSH1 0x0 DUP1 PUSH1 0x80 DUP6 DUP8 SUB SLT ISZERO PUSH2 0xE1E JUMPI PUSH2 0xE1D PUSH2 0xB4A JUMP JUMPDEST JUMPDEST PUSH1 0x0 PUSH2 0xE2C DUP8 DUP3 DUP9 ADD PUSH2 0xB9D JUMP JUMPDEST SWAP5 POP POP PUSH1 0x20 DUP6 ADD CALLDATALOAD PUSH8 0xFFFFFFFFFFFFFFFF DUP2 GT ISZERO PUSH2 0xE4D JUMPI PUSH2 0xE4C PUSH2 0xB4F JUMP JUMPDEST JUMPDEST PUSH2 0xE59 DUP8 DUP3 DUP9 ADD PUSH2 0xCDD JUMP JUMPDEST SWAP4 POP POP PUSH1 0x40 DUP6 ADD CALLDATALOAD PUSH8 0xFFFFFFFFFFFFFFFF DUP2 GT ISZERO PUSH2 0xE7A JUMPI PUSH2 0xE79 PUSH2 0xB4F JUMP JUMPDEST JUMPDEST PUSH2 0xE86 DUP8 DUP3 DUP9 ADD PUSH2 0xDD6 JUMP JUMPDEST SWAP3 POP POP PUSH1 0x60 PUSH2 0xE97 DUP8 DUP3 DUP9 ADD PUSH2 0xD58 JUMP JUMPDEST SWAP2 POP POP SWAP3 SWAP6 SWAP2 SWAP5 POP SWAP3 POP JUMP JUMPDEST PUSH1 0x0 DUP1 PUSH1 0x0 PUSH1 0x60 DUP5 DUP7 SUB SLT ISZERO PUSH2 0xEBC JUMPI PUSH2 0xEBB PUSH2 0xB4A JUMP JUMPDEST JUMPDEST PUSH1 0x0 PUSH2 0xECA DUP7 DUP3 DUP8 ADD PUSH2 0xB9D JUMP JUMPDEST SWAP4 POP POP PUSH1 0x20 DUP5 ADD CALLDATALOAD PUSH8 0xFFFFFFFFFFFFFFFF DUP2 GT ISZERO PUSH2 0xEEB JUMPI PUSH2 0xEEA PUSH2 0xB4F JUMP JUMPDEST JUMPDEST PUSH2 0xEF7 DUP7 DUP3 DUP8 ADD PUSH2 0xCDD JUMP JUMPDEST SWAP3 POP POP PUSH1 0x40 DUP5 ADD CALLDATALOAD PUSH8 0xFFFFFFFFFFFFFFFF DUP2 GT ISZERO PUSH2 0xF18 JUMPI PUSH2 0xF17 PUSH2 0xB4F JUMP JUMPDEST JUMPDEST PUSH2 0xF24 DUP7 DUP3 DUP8 ADD PUSH2 0xDD6 JUMP JUMPDEST SWAP2 POP POP SWAP3 POP SWAP3 POP SWAP3 JUMP JUMPDEST PUSH1 0x0 DUP1 PUSH1 0x0 DUP1 PUSH1 0x0 PUSH1 0xA0 DUP7 DUP9 SUB SLT ISZERO PUSH2 0xF4A JUMPI PUSH2 0xF49 PUSH2 0xB4A JUMP JUMPDEST JUMPDEST PUSH1 0x0 PUSH2 0xF58 DUP9 DUP3 DUP10 ADD PUSH2 0xB9D JUMP JUMPDEST SWAP6 POP POP PUSH1 0x20 DUP7 ADD CALLDATALOAD PUSH8 0xFFFFFFFFFFFFFFFF DUP2 GT ISZERO PUSH2 0xF79 JUMPI PUSH2 0xF78 PUSH2 0xB4F JUMP JUMPDEST JUMPDEST PUSH2 0xF85 DUP9 DUP3 DUP10 ADD PUSH2 0xCDD JUMP JUMPDEST SWAP5 POP POP PUSH1 0x40 DUP7 ADD CALLDATALOAD PUSH8 0xFFFFFFFFFFFFFFFF DUP2 GT ISZERO PUSH2 0xFA6 JUMPI PUSH2 0xFA5 PUSH2 0xB4F JUMP JUMPDEST JUMPDEST PUSH2 0xFB2 DUP9 DUP3 DUP10 ADD PUSH2 0xDD6 JUMP JUMPDEST SWAP4 POP POP PUSH1 0x60 PUSH2 0xFC3 DUP9 DUP3 DUP10 ADD PUSH2 0xD58 JUMP JUMPDEST SWAP3 POP POP PUSH1 0x80 PUSH2 0xFD4 DUP9 DUP3 DUP10 ADD PUSH2 0xD58 JUMP JUMPDEST SWAP2 POP POP SWAP3 SWAP6 POP SWAP3 SWAP6 SWAP1 SWAP4 POP JUMP JUMPDEST PUSH1 0x0 DUP3 DUP3 MSTORE PUSH1 0x20 DUP3 ADD SWAP1 POP SWAP3 SWAP2 POP POP JUMP JUMPDEST PUSH32 0x4769766520696E70757473206163636F7264696E676C79210000000000000000 PUSH1 0x0 DUP3 ADD MSTORE POP JUMP JUMPDEST PUSH1 0x0 PUSH2 0x1028 PUSH1 0x18 DUP4 PUSH2 0xFE1 JUMP JUMPDEST SWAP2 POP PUSH2 0x1033 DUP3 PUSH2 0xFF2 JUMP JUMPDEST PUSH1 0x20 DUP3 ADD SWAP1 POP SWAP2 SWAP1 POP JUMP JUMPDEST PUSH1 0x0 PUSH1 0x20 DUP3 ADD SWAP1 POP DUP2 DUP2 SUB PUSH1 0x0 DUP4 ADD MSTORE PUSH2 0x1057 DUP2 PUSH2 0x101B JUMP JUMPDEST SWAP1 POP SWAP2 SWAP1 POP JUMP JUMPDEST PUSH32 0x4E487B7100000000000000000000000000000000000000000000000000000000 PUSH1 0x0 MSTORE PUSH1 0x32 PUSH1 0x4 MSTORE PUSH1 0x24 PUSH1 0x0 REVERT JUMPDEST PUSH32 0x4E487B7100000000000000000000000000000000000000000000000000000000 PUSH1 0x0 MSTORE PUSH1 0x11 PUSH1 0x4 MSTORE PUSH1 0x24 PUSH1 0x0 REVERT JUMPDEST PUSH1 0x0 PUSH2 0x10C7 DUP3 PUSH2 0xD37 JUMP JUMPDEST SWAP2 POP PUSH2 0x10D2 DUP4 PUSH2 0xD37 JUMP JUMPDEST SWAP3 POP DUP3 DUP3 ADD SWAP1 POP DUP1 DUP3 GT ISZERO PUSH2 0x10EA JUMPI PUSH2 0x10E9 PUSH2 0x108D JUMP JUMPDEST JUMPDEST SWAP3 SWAP2 POP POP JUMP JUMPDEST PUSH1 0x0 PUSH2 0x10FB DUP3 PUSH2 0xD37 JUMP JUMPDEST SWAP2 POP PUSH32 0xFFFFFFFFFFFFFFFFFFFFFFFFFFFFFFFFFFFFFFFFFFFFFFFFFFFFFFFFFFFFFFFF DUP3 SUB PUSH2 0x112D JUMPI PUSH2 0x112C PUSH2 0x108D JUMP JUMPDEST JUMPDEST PUSH1 0x1 DUP3 ADD SWAP1 POP SWAP2 SWAP1 POP JUMP JUMPDEST PUSH2 0x1141 DUP2 PUSH2 0xB74 JUMP JUMPDEST DUP3 MSTORE POP POP JUMP JUMPDEST PUSH2 0x1150 DUP2 PUSH2 0xD37 JUMP JUMPDEST DUP3 MSTORE POP POP JUMP JUMPDEST PUSH1 0x0 PUSH1 0x60 DUP3 ADD SWAP1 POP PUSH2 0x116B PUSH1 0x0 DUP4 ADD DUP7 PUSH2 0x1138 JUMP JUMPDEST PUSH2 0x1178 PUSH1 0x20 DUP4 ADD DUP6 PUSH2 0x1138 JUMP JUMPDEST PUSH2 0x1185 PUSH1 0x40 DUP4 ADD DUP5 PUSH2 0x1147 JUMP JUMPDEST SWAP5 SWAP4 POP POP POP POP JUMP JUMPDEST PUSH1 0x0 DUP2 ISZERO ISZERO SWAP1 POP SWAP2 SWAP1 POP JUMP JUMPDEST PUSH2 0x11A2 DUP2 PUSH2 0x118D JUMP JUMPDEST DUP2 EQ PUSH2 0x11AD JUMPI PUSH1 0x0 DUP1 REVERT JUMPDEST POP JUMP JUMPDEST PUSH1 0x0 DUP2 MLOAD SWAP1 POP PUSH2 0x11BF DUP2 PUSH2 0x1199 JUMP JUMPDEST SWAP3 SWAP2 POP POP JUMP JUMPDEST PUSH1 0x0 PUSH1 0x20 DUP3 DUP5 SUB SLT ISZERO PUSH2 0x11DB JUMPI PUSH2 0x11DA PUSH2 0xB4A JUMP JUMPDEST JUMPDEST PUSH1 0x0 PUSH2 0x11E9 DUP5 DUP3 DUP6 ADD PUSH2 0x11B0 JUMP JUMPDEST SWAP2 POP POP SWAP3 SWAP2 POP POP JUMP JUMPDEST PUSH32 0x546F6B656E207472616E73666572206661696C65642100000000000000000000 PUSH1 0x0 DUP3 ADD MSTORE POP JUMP JUMPDEST PUSH1 0x0 PUSH2 0x1228 PUSH1 0x16 DUP4 PUSH2 0xFE1 JUMP JUMPDEST SWAP2 POP PUSH2 0x1233 DUP3 PUSH2 0x11F2 JUMP JUMPDEST PUSH1 0x20 DUP3 ADD SWAP1 POP SWAP2 SWAP1 POP JUMP JUMPDEST PUSH1 0x0 PUSH1 0x20 DUP3 ADD SWAP1 POP DUP2 DUP2 SUB PUSH1 0x0 DUP4 ADD MSTORE PUSH2 0x1257 DUP2 PUSH2 0x121B JUMP JUMPDEST SWAP1 POP SWAP2 SWAP1 POP JUMP JUMPDEST PUSH1 0x0 DUP2 MLOAD SWAP1 POP SWAP2 SWAP1 POP JUMP JUMPDEST PUSH1 0x0 DUP3 DUP3 MSTORE PUSH1 0x20 DUP3 ADD SWAP1 POP SWAP3 SWAP2 POP POP JUMP JUMPDEST PUSH1 0x0 DUP2 SWAP1 POP PUSH1 0x20 DUP3 ADD SWAP1 POP SWAP2 SWAP1 POP JUMP JUMPDEST PUSH2 0x1293 DUP2 PUSH2 0xB74 JUMP JUMPDEST DUP3 MSTORE POP POP JUMP JUMPDEST PUSH1 0x0 PUSH2 0x12A5 DUP4 DUP4 PUSH2 0x128A JUMP JUMPDEST PUSH1 0x20 DUP4 ADD SWAP1 POP SWAP3 SWAP2 POP POP JUMP JUMPDEST PUSH1 0x0 PUSH1 0x20 DUP3 ADD SWAP1 POP SWAP2 SWAP1 POP JUMP JUMPDEST PUSH1 0x0 PUSH2 0x12C9 DUP3 PUSH2 0x125E JUMP JUMPDEST PUSH2 0x12D3 DUP2 DUP6 PUSH2 0x1269 JUMP JUMPDEST SWAP4 POP PUSH2 0x12DE DUP4 PUSH2 0x127A JUMP JUMPDEST DUP1 PUSH1 0x0 JUMPDEST DUP4 DUP2 LT ISZERO PUSH2 0x130F JUMPI DUP2 MLOAD PUSH2 0x12F6 DUP9 DUP3 PUSH2 0x1299 JUMP JUMPDEST SWAP8 POP PUSH2 0x1301 DUP4 PUSH2 0x12B1 JUMP JUMPDEST SWAP3 POP POP PUSH1 0x1 DUP2 ADD SWAP1 POP PUSH2 0x12E2 JUMP JUMPDEST POP DUP6 SWAP4 POP POP POP POP SWAP3 SWAP2 POP POP JUMP JUMPDEST PUSH1 0x0 DUP2 MLOAD SWAP1 POP SWAP2 SWAP1 POP JUMP JUMPDEST PUSH1 0x0 DUP3 DUP3 MSTORE PUSH1 0x20 DUP3 ADD SWAP1 POP SWAP3 SWAP2 POP POP JUMP JUMPDEST PUSH1 0x0 DUP2 SWAP1 POP PUSH1 0x20 DUP3 ADD SWAP1 POP SWAP2 SWAP1 POP JUMP JUMPDEST PUSH2 0x1351 DUP2 PUSH2 0xD37 JUMP JUMPDEST DUP3 MSTORE POP POP JUMP JUMPDEST PUSH1 0x0 PUSH2 0x1363 DUP4 DUP4 PUSH2 0x1348 JUMP JUMPDEST PUSH1 0x20 DUP4 ADD SWAP1 POP SWAP3 SWAP2 POP POP JUMP JUMPDEST PUSH1 0x0 PUSH1 0x20 DUP3 ADD SWAP1 POP SWAP2 SWAP1 POP JUMP JUMPDEST PUSH1 0x0 PUSH2 0x1387 DUP3 PUSH2 0x131C JUMP JUMPDEST PUSH2 0x1391 DUP2 DUP6 PUSH2 0x1327 JUMP JUMPDEST SWAP4 POP PUSH2 0x139C DUP4 PUSH2 0x1338 JUMP JUMPDEST DUP1 PUSH1 0x0 JUMPDEST DUP4 DUP2 LT ISZERO PUSH2 0x13CD JUMPI DUP2 MLOAD PUSH2 0x13B4 DUP9 DUP3 PUSH2 0x1357 JUMP JUMPDEST SWAP8 POP PUSH2 0x13BF DUP4 PUSH2 0x136F JUMP JUMPDEST SWAP3 POP POP PUSH1 0x1 DUP2 ADD SWAP1 POP PUSH2 0x13A0 JUMP JUMPDEST POP DUP6 SWAP4 POP POP POP POP SWAP3 SWAP2 POP POP JUMP JUMPDEST PUSH1 0x0 PUSH1 0x60 DUP3 ADD SWAP1 POP PUSH2 0x13EF PUSH1 0x0 DUP4 ADD DUP7 PUSH2 0x1138 JUMP JUMPDEST DUP2 DUP2 SUB PUSH1 0x20 DUP4 ADD MSTORE PUSH2 0x1401 DUP2 DUP6 PUSH2 0x12BE JUMP JUMPDEST SWAP1 POP DUP2 DUP2 SUB PUSH1 0x40 DUP4 ADD MSTORE PUSH2 0x1415 DUP2 DUP5 PUSH2 0x137C JUMP JUMPDEST SWAP1 POP SWAP5 SWAP4 POP POP POP POP JUMP JUMPDEST PUSH1 0x0 DUP2 SWAP1 POP SWAP2 SWAP1 POP JUMP JUMPDEST PUSH1 0x0 DUP2 SWAP1 POP SWAP2 SWAP1 POP JUMP JUMPDEST PUSH1 0x0 PUSH2 0x144E PUSH2 0x1449 PUSH2 0x1444 DUP5 PUSH2 0x141F JUMP JUMPDEST PUSH2 0x1429 JUMP JUMPDEST PUSH2 0xD37 JUMP JUMPDEST SWAP1 POP SWAP2 SWAP1 POP JUMP JUMPDEST PUSH2 0x145E DUP2 PUSH2 0x1433 JUMP JUMPDEST DUP3 MSTORE POP POP JUMP JUMPDEST PUSH1 0x0 DUP2 SWAP1 POP SWAP2 SWAP1 POP JUMP JUMPDEST PUSH1 0x0 PUSH2 0x1489 PUSH2 0x1484 PUSH2 0x147F DUP5 PUSH2 0x1464 JUMP JUMPDEST PUSH2 0x1429 JUMP JUMPDEST PUSH2 0xD37 JUMP JUMPDEST SWAP1 POP SWAP2 SWAP1 POP JUMP JUMPDEST PUSH2 0x1499 DUP2 PUSH2 0x146E JUMP JUMPDEST DUP3 MSTORE POP POP JUMP JUMPDEST PUSH1 0x0 DUP2 SWAP1 POP SWAP2 SWAP1 POP JUMP JUMPDEST PUSH1 0x0 PUSH2 0x14C4 PUSH2 0x14BF PUSH2 0x14BA DUP5 PUSH2 0x149F JUMP JUMPDEST PUSH2 0x1429 JUMP JUMPDEST PUSH2 0xD37 JUMP JUMPDEST SWAP1 POP SWAP2 SWAP1 POP JUMP JUMPDEST PUSH2 0x14D4 DUP2 PUSH2 0x14A9 JUMP JUMPDEST DUP3 MSTORE POP POP JUMP JUMPDEST PUSH1 0x0 DUP2 MLOAD SWAP1 POP SWAP2 SWAP1 POP JUMP JUMPDEST PUSH1 0x0 DUP3 DUP3 MSTORE PUSH1 0x20 DUP3 ADD SWAP1 POP SWAP3 SWAP2 POP POP JUMP JUMPDEST PUSH1 0x0 JUMPDEST DUP4 DUP2 LT ISZERO PUSH2 0x1514 JUMPI DUP1 DUP3 ADD MLOAD DUP2 DUP5 ADD MSTORE PUSH1 0x20 DUP2 ADD SWAP1 POP PUSH2 0x14F9 JUMP JUMPDEST PUSH1 0x0 DUP5 DUP5 ADD MSTORE POP POP POP POP JUMP JUMPDEST PUSH1 0x0 PUSH2 0x152B DUP3 PUSH2 0x14DA JUMP JUMPDEST PUSH2 0x1535 DUP2 DUP6 PUSH2 0x14E5 JUMP JUMPDEST SWAP4 POP PUSH2 0x1545 DUP2 DUP6 PUSH1 0x20 DUP7 ADD PUSH2 0x14F6 JUMP JUMPDEST PUSH2 0x154E DUP2 PUSH2 0xBB7 JUMP JUMPDEST DUP5 ADD SWAP2 POP POP SWAP3 SWAP2 POP POP JUMP JUMPDEST PUSH1 0x0 PUSH1 0xC0 DUP3 ADD SWAP1 POP PUSH2 0x156E PUSH1 0x0 DUP4 ADD DUP10 PUSH2 0x1138 JUMP JUMPDEST PUSH2 0x157B PUSH1 0x20 DUP4 ADD DUP9 PUSH2 0x1455 JUMP JUMPDEST PUSH2 0x1588 PUSH1 0x40 DUP4 ADD DUP8 PUSH2 0x1490 JUMP JUMPDEST PUSH2 0x1595 PUSH1 0x60 DUP4 ADD DUP7 PUSH2 0x14CB JUMP JUMPDEST PUSH2 0x15A2 PUSH1 0x80 DUP4 ADD DUP6 PUSH2 0x1147 JUMP JUMPDEST DUP2 DUP2 SUB PUSH1 0xA0 DUP4 ADD MSTORE PUSH2 0x15B4 DUP2 DUP5 PUSH2 0x1520 JUMP JUMPDEST SWAP1 POP SWAP8 SWAP7 POP POP POP POP POP POP POP JUMP JUMPDEST PUSH1 0x0 DUP1 REVERT JUMPDEST PUSH1 0x0 PUSH8 0xFFFFFFFFFFFFFFFF DUP3 GT ISZERO PUSH2 0x15E1 JUMPI PUSH2 0x15E0 PUSH2 0xBC8 JUMP JUMPDEST JUMPDEST PUSH2 0x15EA DUP3 PUSH2 0xBB7 JUMP JUMPDEST SWAP1 POP PUSH1 0x20 DUP2 ADD SWAP1 POP SWAP2 SWAP1 POP JUMP JUMPDEST PUSH1 0x0 PUSH2 0x160A PUSH2 0x1605 DUP5 PUSH2 0x15C6 JUMP JUMPDEST PUSH2 0xC28 JUMP JUMPDEST SWAP1 POP DUP3 DUP2 MSTORE PUSH1 0x20 DUP2 ADD DUP5 DUP5 DUP5 ADD GT ISZERO PUSH2 0x1626 JUMPI PUSH2 0x1625 PUSH2 0x15C1 JUMP JUMPDEST JUMPDEST PUSH2 0x1631 DUP5 DUP3 DUP6 PUSH2 0x14F6 JUMP JUMPDEST POP SWAP4 SWAP3 POP POP POP JUMP JUMPDEST PUSH1 0x0 DUP3 PUSH1 0x1F DUP4 ADD SLT PUSH2 0x164E JUMPI PUSH2 0x164D PUSH2 0xBB2 JUMP JUMPDEST JUMPDEST DUP2 MLOAD PUSH2 0x165E DUP5 DUP3 PUSH1 0x20 DUP7 ADD PUSH2 0x15F7 JUMP JUMPDEST SWAP2 POP POP SWAP3 SWAP2 POP POP JUMP JUMPDEST PUSH1 0x0 PUSH1 0x20 DUP3 DUP5 SUB SLT ISZERO PUSH2 0x167D JUMPI PUSH2 0x167C PUSH2 0xB4A JUMP JUMPDEST JUMPDEST PUSH1 0x0 DUP3 ADD MLOAD PUSH8 0xFFFFFFFFFFFFFFFF DUP2 GT ISZERO PUSH2 0x169B JUMPI PUSH2 0x169A PUSH2 0xB4F JUMP JUMPDEST JUMPDEST PUSH2 0x16A7 DUP5 DUP3 DUP6 ADD PUSH2 0x1639 JUMP JUMPDEST SWAP2 POP POP SWAP3 SWAP2 POP POP JUMP JUMPDEST PUSH1 0x0 DUP2 SWAP1 POP SWAP3 SWAP2 POP POP JUMP JUMPDEST PUSH1 0x0 PUSH2 0x16C6 DUP3 PUSH2 0x14DA JUMP JUMPDEST PUSH2 0x16D0 DUP2 DUP6 PUSH2 0x16B0 JUMP JUMPDEST SWAP4 POP PUSH2 0x16E0 DUP2 DUP6 PUSH1 0x20 DUP7 ADD PUSH2 0x14F6 JUMP JUMPDEST DUP1 DUP5 ADD SWAP2 POP POP SWAP3 SWAP2 POP POP JUMP JUMPDEST PUSH1 0x0 PUSH2 0x16F8 DUP3 DUP5 PUSH2 0x16BB JUMP JUMPDEST SWAP2 POP DUP2 SWAP1 POP SWAP3 SWAP2 POP POP JUMP JUMPDEST PUSH1 0x0 PUSH1 0x60 DUP3 ADD SWAP1 POP DUP2 DUP2 SUB PUSH1 0x0 DUP4 ADD MSTORE PUSH2 0x171D DUP2 DUP7 PUSH2 0x12BE JUMP JUMPDEST SWAP1 POP DUP2 DUP2 SUB PUSH1 0x20 DUP4 ADD MSTORE PUSH2 0x1731 DUP2 DUP6 PUSH2 0x137C JUMP JUMPDEST SWAP1 POP PUSH2 0x1740 PUSH1 0x40 DUP4 ADD DUP5 PUSH2 0x1147 JUMP JUMPDEST SWAP5 SWAP4 POP POP POP POP JUMP JUMPDEST PUSH32 0x546F6B656E207472616E7366657246726F6D206661696C656421200000000000 PUSH1 0x0 DUP3 ADD MSTORE POP JUMP JUMPDEST PUSH1 0x0 PUSH2 0x177E PUSH1 0x1B DUP4 PUSH2 0xFE1 JUMP JUMPDEST SWAP2 POP PUSH2 0x1789 DUP3 PUSH2 0x1748 JUMP JUMPDEST PUSH1 0x20 DUP3 ADD SWAP1 POP SWAP2 SWAP1 POP JUMP JUMPDEST PUSH1 0x0 PUSH1 0x20 DUP3 ADD SWAP1 POP DUP2 DUP2 SUB PUSH1 0x0 DUP4 ADD MSTORE PUSH2 0x17AD DUP2 PUSH2 0x1771 JUMP JUMPDEST SWAP1 POP SWAP2 SWAP1 POP JUMP JUMPDEST PUSH1 0x0 PUSH1 0x40 DUP3 ADD SWAP1 POP PUSH2 0x17C9 PUSH1 0x0 DUP4 ADD DUP6 PUSH2 0x1138 JUMP JUMPDEST PUSH2 0x17D6 PUSH1 0x20 DUP4 ADD DUP5 PUSH2 0x1147 JUMP JUMPDEST SWAP4 SWAP3 POP POP POP JUMP JUMPDEST PUSH32 0x546F6B656E207472616E73666572206661696C65640000000000000000000000 PUSH1 0x0 DUP3 ADD MSTORE POP JUMP JUMPDEST PUSH1 0x0 PUSH2 0x1813 PUSH1 0x15 DUP4 PUSH2 0xFE1 JUMP JUMPDEST SWAP2 POP PUSH2 0x181E DUP3 PUSH2 0x17DD JUMP JUMPDEST PUSH1 0x20 DUP3 ADD SWAP1 POP SWAP2 SWAP1 POP JUMP JUMPDEST PUSH1 0x0 PUSH1 0x20 DUP3 ADD SWAP1 POP DUP2 DUP2 SUB PUSH1 0x0 DUP4 ADD MSTORE PUSH2 0x1842 DUP2 PUSH2 0x1806 JUMP JUMPDEST SWAP1 POP SWAP2 SWAP1 POP JUMP JUMPDEST PUSH1 0x0 PUSH1 0x20 DUP3 ADD SWAP1 POP PUSH2 0x185E PUSH1 0x0 DUP4 ADD DUP5 PUSH2 0x1147 JUMP JUMPDEST SWAP3 SWAP2 POP POP JUMP JUMPDEST PUSH1 0x0 PUSH1 0x20 DUP3 ADD SWAP1 POP PUSH2 0x1879 PUSH1 0x0 DUP4 ADD DUP5 PUSH2 0x1138 JUMP JUMPDEST SWAP3 SWAP2 POP POP JUMP JUMPDEST PUSH1 0x0 DUP2 MLOAD SWAP1 POP PUSH2 0x188E DUP2 PUSH2 0xD41 JUMP JUMPDEST SWAP3 SWAP2 POP POP JUMP JUMPDEST PUSH1 0x0 PUSH1 0x20 DUP3 DUP5 SUB SLT ISZERO PUSH2 0x18AA JUMPI PUSH2 0x18A9 PUSH2 0xB4A JUMP JUMPDEST JUMPDEST PUSH1 0x0 PUSH2 0x18B8 DUP5 DUP3 DUP6 ADD PUSH2 0x187F JUMP JUMPDEST SWAP2 POP POP SWAP3 SWAP2 POP POP JUMP JUMPDEST PUSH1 0x0 PUSH1 0xC0 DUP3 ADD SWAP1 POP PUSH2 0x18D6 PUSH1 0x0 DUP4 ADD DUP10 PUSH2 0x1138 JUMP JUMPDEST DUP2 DUP2 SUB PUSH1 0x20 DUP4 ADD MSTORE PUSH2 0x18E8 DUP2 DUP9 PUSH2 0x12BE JUMP JUMPDEST SWAP1 POP DUP2 DUP2 SUB PUSH1 0x40 DUP4 ADD MSTORE PUSH2 0x18FC DUP2 DUP8 PUSH2 0x137C JUMP JUMPDEST SWAP1 POP PUSH2 0x190B PUSH1 0x60 DUP4 ADD DUP7 PUSH2 0x1147 JUMP JUMPDEST PUSH2 0x1918 PUSH1 0x80 DUP4 ADD DUP6 PUSH2 0x1147 JUMP JUMPDEST PUSH2 0x1925 PUSH1 0xA0 DUP4 ADD DUP5 PUSH2 0x1138 JUMP JUMPDEST SWAP8 SWAP7 POP POP POP POP POP POP POP JUMP JUMPDEST PUSH32 0x4D69736D61746368656420726563697069656E747320616E6420616D6F756E74 PUSH1 0x0 DUP3 ADD MSTORE PUSH32 0x7300000000000000000000000000000000000000000000000000000000000000 PUSH1 0x20 DUP3 ADD MSTORE POP JUMP JUMPDEST PUSH1 0x0 PUSH2 0x198C PUSH1 0x21 DUP4 PUSH2 0xFE1 JUMP JUMPDEST SWAP2 POP PUSH2 0x1997 DUP3 PUSH2 0x1930 JUMP JUMPDEST PUSH1 0x40 DUP3 ADD SWAP1 POP SWAP2 SWAP1 POP JUMP JUMPDEST PUSH1 0x0 PUSH1 0x20 DUP3 ADD SWAP1 POP DUP2 DUP2 SUB PUSH1 0x0 DUP4 ADD MSTORE PUSH2 0x19BB DUP2 PUSH2 0x197F JUMP JUMPDEST SWAP1 POP SWAP2 SWAP1 POP JUMP INVALID LOG2 PUSH5 0x6970667358 0x22 SLT KECCAK256 0xD8 0xEA MSTORE 0xEF 0xB6 COINBASE 0xC9 SAR 0xC8 LOG0 0xAF SWAP5 CALLDATACOPY PUSH11 0x379C8283EEB8BA7EF78E5C 0x2F 0xC6 PUSH31 0x46B6179864736F6C6343000812003300000000000000000000000000000000 "
	},
	"abi": [
		{
			"inputs": [],
			"stateMutability": "payable",
			"type": "constructor"
		},
		{
			"anonymous": false,
			"inputs": [
				{
					"indexed": true,
					"internalType": "uint256",
					"name": "recipientIndex",
					"type": "uint256"
				},
				{
					"indexed": true,
					"internalType": "address",
					"name": "recipient",
					"type": "address"
				},
				{
					"indexed": false,
					"internalType": "uint256",
					"name": "amount",
					"type": "uint256"
				}
			],
			"name": "Erc20BatchTransfer",
			"type": "event"
		},
		{
			"anonymous": false,
			"inputs": [
				{
					"indexed": true,
					"internalType": "bytes",
					"name": "scheduleId",
					"type": "bytes"
				},
				{
					"indexed": false,
					"internalType": "uint256",
					"name": "nextCheckTime",
					"type": "uint256"
				}
			],
			"name": "PriceCheckScheduled",
			"type": "event"
		},
		{
			"anonymous": false,
			"inputs": [
				{
					"indexed": true,
					"internalType": "bytes",
					"name": "scheduleId",
					"type": "bytes"
				},
				{
					"indexed": true,
					"internalType": "address",
					"name": "token",
					"type": "address"
				},
				{
					"indexed": false,
					"internalType": "address[]",
					"name": "recipients",
					"type": "address[]"
				},
				{
					"indexed": false,
					"internalType": "uint256[]",
					"name": "amounts",
					"type": "uint256[]"
				},
				{
					"indexed": false,
					"internalType": "uint256",
					"name": "executionTime",
					"type": "uint256"
				}
			],
			"name": "TransferScheduled",
			"type": "event"
		},
		{
			"stateMutability": "payable",
			"type": "fallback"
		},
		{
			"inputs": [
				{
					"internalType": "address",
					"name": "tokenAddress",
					"type": "address"
				},
				{
					"internalType": "address[]",
					"name": "recipients",
					"type": "address[]"
				},
				{
					"internalType": "uint256[]",
					"name": "amount",
					"type": "uint256[]"
				}
			],
			"name": "dispersal",
			"outputs": [],
			"stateMutability": "payable",
			"type": "function"
		},
		{
			"inputs": [
				{
					"internalType": "address",
					"name": "tokenAddress",
					"type": "address"
				},
				{
					"internalType": "address[]",
					"name": "recipients",
					"type": "address[]"
				},
				{
					"internalType": "uint256[]",
					"name": "amounts",
					"type": "uint256[]"
				},
				{
					"internalType": "uint256",
					"name": "desiredPrice",
					"type": "uint256"
				},
				{
					"internalType": "uint256",
					"name": "interval",
					"type": "uint256"
				}
			],
			"name": "priceTriggeredDispersal",
			"outputs": [],
			"stateMutability": "payable",
			"type": "function"
		},
		{
			"inputs": [
				{
					"internalType": "address",
					"name": "tokenAddress",
					"type": "address"
				},
				{
					"internalType": "address[]",
					"name": "recipients",
					"type": "address[]"
				},
				{
					"internalType": "uint256[]",
					"name": "amounts",
					"type": "uint256[]"
				},
				{
					"internalType": "uint256",
					"name": "delay",
					"type": "uint256"
				}
			],
			"name": "scheduled_dispersal",
			"outputs": [],
			"stateMutability": "payable",
			"type": "function"
		},
		{
			"stateMutability": "payable",
			"type": "receive"
		}
	],
	"storageLayout": {
		"storage": [
			{
				"astId": 263,
				"contract": "DisDrop.sol:DisDrop",
				"label": "scheduler",
				"offset": 0,
				"slot": "0",
				"type": "t_contract(ISchedule)74"
			},
			{
				"astId": 269,
				"contract": "DisDrop.sol:DisDrop",
				"label": "oracle",
				"offset": 0,
				"slot": "1",
				"type": "t_contract(IOracle)11"
			}
		],
		"types": {
			"t_contract(IOracle)11": {
				"encoding": "inplace",
				"label": "contract IOracle",
				"numberOfBytes": "20"
			},
			"t_contract(ISchedule)74": {
				"encoding": "inplace",
				"label": "contract ISchedule",
				"numberOfBytes": "20"
			}
		}
	},
	"web3Deploy": "var disdropContract = new web3.eth.Contract([{\"inputs\":[],\"stateMutability\":\"payable\",\"type\":\"constructor\"},{\"anonymous\":false,\"inputs\":[{\"indexed\":true,\"internalType\":\"uint256\",\"name\":\"recipientIndex\",\"type\":\"uint256\"},{\"indexed\":true,\"internalType\":\"address\",\"name\":\"recipient\",\"type\":\"address\"},{\"indexed\":false,\"internalType\":\"uint256\",\"name\":\"amount\",\"type\":\"uint256\"}],\"name\":\"Erc20BatchTransfer\",\"type\":\"event\"},{\"anonymous\":false,\"inputs\":[{\"indexed\":true,\"internalType\":\"bytes\",\"name\":\"scheduleId\",\"type\":\"bytes\"},{\"indexed\":false,\"internalType\":\"uint256\",\"name\":\"nextCheckTime\",\"type\":\"uint256\"}],\"name\":\"PriceCheckScheduled\",\"type\":\"event\"},{\"anonymous\":false,\"inputs\":[{\"indexed\":true,\"internalType\":\"bytes\",\"name\":\"scheduleId\",\"type\":\"bytes\"},{\"indexed\":true,\"internalType\":\"address\",\"name\":\"token\",\"type\":\"address\"},{\"indexed\":false,\"internalType\":\"address[]\",\"name\":\"recipients\",\"type\":\"address[]\"},{\"indexed\":false,\"internalType\":\"uint256[]\",\"name\":\"amounts\",\"type\":\"uint256[]\"},{\"indexed\":false,\"internalType\":\"uint256\",\"name\":\"executionTime\",\"type\":\"uint256\"}],\"name\":\"TransferScheduled\",\"type\":\"event\"},{\"stateMutability\":\"payable\",\"type\":\"fallback\"},{\"inputs\":[{\"internalType\":\"address\",\"name\":\"tokenAddress\",\"type\":\"address\"},{\"internalType\":\"address[]\",\"name\":\"recipients\",\"type\":\"address[]\"},{\"internalType\":\"uint256[]\",\"name\":\"amount\",\"type\":\"uint256[]\"}],\"name\":\"dispersal\",\"outputs\":[],\"stateMutability\":\"payable\",\"type\":\"function\"},{\"inputs\":[{\"internalType\":\"address\",\"name\":\"tokenAddress\",\"type\":\"address\"},{\"internalType\":\"address[]\",\"name\":\"recipients\",\"type\":\"address[]\"},{\"internalType\":\"uint256[]\",\"name\":\"amounts\",\"type\":\"uint256[]\"},{\"internalType\":\"uint256\",\"name\":\"desiredPrice\",\"type\":\"uint256\"},{\"internalType\":\"uint256\",\"name\":\"interval\",\"type\":\"uint256\"}],\"name\":\"priceTriggeredDispersal\",\"outputs\":[],\"stateMutability\":\"payable\",\"type\":\"function\"},{\"inputs\":[{\"internalType\":\"address\",\"name\":\"tokenAddress\",\"type\":\"address\"},{\"internalType\":\"address[]\",\"name\":\"recipients\",\"type\":\"address[]\"},{\"internalType\":\"uint256[]\",\"name\":\"amounts\",\"type\":\"uint256[]\"},{\"internalType\":\"uint256\",\"name\":\"delay\",\"type\":\"uint256\"}],\"name\":\"scheduled_dispersal\",\"outputs\":[],\"stateMutability\":\"payable\",\"type\":\"function\"},{\"stateMutability\":\"payable\",\"type\":\"receive\"}]);\nvar disdrop = disdropContract.deploy({\n     data: '0x60806040526108026000806101000a81548173ffffffffffffffffffffffffffffffffffffffff021916908373ffffffffffffffffffffffffffffffffffffffff160217905550610801600160006101000a81548173ffffffffffffffffffffffffffffffffffffffff021916908373ffffffffffffffffffffffffffffffffffffffff1602179055506119f8806100986000396000f3fe6080604052600436106100385760003560e01c80635b93f50714610041578063ed44b3881461005d578063f2b0244f146100795761003f565b3661003f57005b005b61005b60048036038101906100569190610e04565b610095565b005b61007760048036038101906100729190610ea3565b6103af565b005b610093600480360381019061008e9190610f2e565b61069b565b005b600084905082518451146100de576040517f08c379a00000000000000000000000000000000000000000000000000000000081526004016100d59061103e565b60405180910390fd5b6000805b8451811015610126578481815181106100fe576100fd61105e565b5b60200260200101518261011191906110bc565b9150808061011e906110f0565b9150506100e2565b508173ffffffffffffffffffffffffffffffffffffffff166323b872dd3330846040518463ffffffff1660e01b815260040161016493929190611156565b6020604051808303816000875af1158015610183573d6000803e3d6000fd5b505050506040513d601f19601f820116820180604052508101906101a791906111c5565b6101e6576040517f08c379a00000000000000000000000000000000000000000000000000000000081526004016101dd9061123e565b60405180910390fd5b60008686866040516024016101fd939291906113da565b6040516020818303038152906040527f46ba5fed000000000000000000000000000000000000000000000000000000007bffffffffffffffffffffffffffffffffffffffffffffffffffffffff19166020820180517bffffffffffffffffffffffffffffffffffffffffffffffffffffffff8381831617835250505050905060008060009054906101000a900473ffffffffffffffffffffffffffffffffffffffff1673ffffffffffffffffffffffffffffffffffffffff1663168d560d30600062200b2061fa008a886040518763ffffffff1660e01b81526004016102e896959493929190611559565b6000604051808303816000875af1158015610307573d6000803e3d6000fd5b505050506040513d6000823e3d601f19601f820116820180604052508101906103309190611667565b90508773ffffffffffffffffffffffffffffffffffffffff168160405161035791906116ec565b60405180910390207fc9c9afe41dd5e3a9438dd88814edcb9c8089a9e980f48b14414eda3d6d3d0e9a8989894261038e91906110bc565b60405161039d93929190611703565b60405180910390a35050505050505050565b600083905081518351146103f8576040517f08c379a00000000000000000000000000000000000000000000000000000000081526004016103ef9061103e565b60405180910390fd5b6000805b8451811015610440578381815181106104185761041761105e565b5b60200260200101518261042b91906110bc565b91508080610438906110f0565b9150506103fc565b508173ffffffffffffffffffffffffffffffffffffffff166323b872dd3330846040518463ffffffff1660e01b815260040161047e93929190611156565b6020604051808303816000875af115801561049d573d6000803e3d6000fd5b505050506040513d601f19601f820116820180604052508101906104c191906111c5565b610500576040517f08c379a00000000000000000000000000000000000000000000000000000000081526004016104f790611794565b60405180910390fd5b60005b8451811015610693578273ffffffffffffffffffffffffffffffffffffffff1663a9059cbb86838151811061053b5761053a61105e565b5b60200260200101518684815181106105565761055561105e565b5b60200260200101516040518363ffffffff1660e01b815260040161057b9291906117b4565b6020604051808303816000875af115801561059a573d6000803e3d6000fd5b505050506040513d601f19601f820116820180604052508101906105be91906111c5565b6105fd576040517f08c379a00000000000000000000000000000000000000000000000000000000081526004016105f490611829565b60405180910390fd5b8481815181106106105761060f61105e565b5b602002602001015173ffffffffffffffffffffffffffffffffffffffff16817fb9471439bd4c23f19d2b486548fa6061ab17e1da9815f325f2a2b29f22e715e38684815181106106635761066261105e565b5b60200260200101516040516106789190611849565b60405180910390a3808061068b906110f0565b915050610503565b505050505050565b600085905060003390506000600160009054906101000a900473ffffffffffffffffffffffffffffffffffffffff1673ffffffffffffffffffffffffffffffffffffffff166341976e09846040518263ffffffff1660e01b81526004016107029190611864565b602060405180830381865afa15801561071f573d6000803e3d6000fd5b505050506040513d601f19601f820116820180604052508101906107439190611894565b905084810361075d5761075888888885610914565b61090a565b600088888888888760405160240161077a969594939291906118c1565b6040516020818303038152906040527fab54b1ba000000000000000000000000000000000000000000000000000000007bffffffffffffffffffffffffffffffffffffffffffffffffffffffff19166020820180517bffffffffffffffffffffffffffffffffffffffffffffffffffffffff8381831617835250505050905060008060009054906101000a900473ffffffffffffffffffffffffffffffffffffffff1673ffffffffffffffffffffffffffffffffffffffff1663168d560d30600062200b2061fa008b886040518763ffffffff1660e01b815260040161086596959493929190611559565b6000604051808303816000875af1158015610884573d6000803e3d6000fd5b505050506040513d6000823e3d601f19601f820116820180604052508101906108ad9190611667565b9050806040516108bd91906116ec565b60405180910390207f9e989ccc644aff3dccb44d63c0125cf7c49f64c9631016543486e7dfc72187c787426108f291906110bc565b6040516108ff9190611849565b60405180910390a250505b5050505050505050565b6000849050825184511461095d576040517f08c379a0000000000000000000000000000000000000000000000000000000008152600401610954906119a2565b60405180910390fd5b6000805b84518110156109a55784818151811061097d5761097c61105e565b5b60200260200101518261099091906110bc565b9150808061099d906110f0565b915050610961565b508173ffffffffffffffffffffffffffffffffffffffff166323b872dd8430846040518463ffffffff1660e01b81526004016109e393929190611156565b6020604051808303816000875af1158015610a02573d6000803e3d6000fd5b505050506040513d601f19601f82011682018060405250810190610a2691906111c5565b610a65576040517f08c379a0000000000000000000000000000000000000000000000000000000008152600401610a5c90611829565b60405180910390fd5b60005b8551811015610b37578273ffffffffffffffffffffffffffffffffffffffff1663a9059cbb878381518110610aa057610a9f61105e565b5b6020026020010151878481518110610abb57610aba61105e565b5b60200260200101516040518363ffffffff1660e01b8152600401610ae09291906117b4565b6020604051808303816000875af1158015610aff573d6000803e3d6000fd5b505050506040513d601f19601f82011682018060405250810190610b2391906111c5565b508080610b2f906110f0565b915050610a68565b50505050505050565b6000604051905090565b600080fd5b600080fd5b600073ffffffffffffffffffffffffffffffffffffffff82169050919050565b6000610b7f82610b54565b9050919050565b610b8f81610b74565b8114610b9a57600080fd5b50565b600081359050610bac81610b86565b92915050565b600080fd5b6000601f19601f8301169050919050565b7f4e487b7100000000000000000000000000000000000000000000000000000000600052604160045260246000fd5b610c0082610bb7565b810181811067ffffffffffffffff82111715610c1f57610c1e610bc8565b5b80604052505050565b6000610c32610b40565b9050610c3e8282610bf7565b919050565b600067ffffffffffffffff821115610c5e57610c5d610bc8565b5b602082029050602081019050919050565b600080fd5b6000610c87610c8284610c43565b610c28565b90508083825260208201905060208402830185811115610caa57610ca9610c6f565b5b835b81811015610cd35780610cbf8882610b9d565b845260208401935050602081019050610cac565b5050509392505050565b600082601f830112610cf257610cf1610bb2565b5b8135610d02848260208601610c74565b91505092915050565b600067ffffffffffffffff821115610d2657610d25610bc8565b5b602082029050602081019050919050565b6000819050919050565b610d4a81610d37565b8114610d5557600080fd5b50565b600081359050610d6781610d41565b92915050565b6000610d80610d7b84610d0b565b610c28565b90508083825260208201905060208402830185811115610da357610da2610c6f565b5b835b81811015610dcc5780610db88882610d58565b845260208401935050602081019050610da5565b5050509392505050565b600082601f830112610deb57610dea610bb2565b5b8135610dfb848260208601610d6d565b91505092915050565b60008060008060808587031215610e1e57610e1d610b4a565b5b6000610e2c87828801610b9d565b945050602085013567ffffffffffffffff811115610e4d57610e4c610b4f565b5b610e5987828801610cdd565b935050604085013567ffffffffffffffff811115610e7a57610e79610b4f565b5b610e8687828801610dd6565b9250506060610e9787828801610d58565b91505092959194509250565b600080600060608486031215610ebc57610ebb610b4a565b5b6000610eca86828701610b9d565b935050602084013567ffffffffffffffff811115610eeb57610eea610b4f565b5b610ef786828701610cdd565b925050604084013567ffffffffffffffff811115610f1857610f17610b4f565b5b610f2486828701610dd6565b9150509250925092565b600080600080600060a08688031215610f4a57610f49610b4a565b5b6000610f5888828901610b9d565b955050602086013567ffffffffffffffff811115610f7957610f78610b4f565b5b610f8588828901610cdd565b945050604086013567ffffffffffffffff811115610fa657610fa5610b4f565b5b610fb288828901610dd6565b9350506060610fc388828901610d58565b9250506080610fd488828901610d58565b9150509295509295909350565b600082825260208201905092915050565b7f4769766520696e70757473206163636f7264696e676c79210000000000000000600082015250565b6000611028601883610fe1565b915061103382610ff2565b602082019050919050565b600060208201905081810360008301526110578161101b565b9050919050565b7f4e487b7100000000000000000000000000000000000000000000000000000000600052603260045260246000fd5b7f4e487b7100000000000000000000000000000000000000000000000000000000600052601160045260246000fd5b60006110c782610d37565b91506110d283610d37565b92508282019050808211156110ea576110e961108d565b5b92915050565b60006110fb82610d37565b91507fffffffffffffffffffffffffffffffffffffffffffffffffffffffffffffffff820361112d5761112c61108d565b5b600182019050919050565b61114181610b74565b82525050565b61115081610d37565b82525050565b600060608201905061116b6000830186611138565b6111786020830185611138565b6111856040830184611147565b949350505050565b60008115159050919050565b6111a28161118d565b81146111ad57600080fd5b50565b6000815190506111bf81611199565b92915050565b6000602082840312156111db576111da610b4a565b5b60006111e9848285016111b0565b91505092915050565b7f546f6b656e207472616e73666572206661696c65642100000000000000000000600082015250565b6000611228601683610fe1565b9150611233826111f2565b602082019050919050565b600060208201905081810360008301526112578161121b565b9050919050565b600081519050919050565b600082825260208201905092915050565b6000819050602082019050919050565b61129381610b74565b82525050565b60006112a5838361128a565b60208301905092915050565b6000602082019050919050565b60006112c98261125e565b6112d38185611269565b93506112de8361127a565b8060005b8381101561130f5781516112f68882611299565b9750611301836112b1565b9250506001810190506112e2565b5085935050505092915050565b600081519050919050565b600082825260208201905092915050565b6000819050602082019050919050565b61135181610d37565b82525050565b60006113638383611348565b60208301905092915050565b6000602082019050919050565b60006113878261131c565b6113918185611327565b935061139c83611338565b8060005b838110156113cd5781516113b48882611357565b97506113bf8361136f565b9250506001810190506113a0565b5085935050505092915050565b60006060820190506113ef6000830186611138565b818103602083015261140181856112be565b90508181036040830152611415818461137c565b9050949350505050565b6000819050919050565b6000819050919050565b600061144e6114496114448461141f565b611429565b610d37565b9050919050565b61145e81611433565b82525050565b6000819050919050565b600061148961148461147f84611464565b611429565b610d37565b9050919050565b6114998161146e565b82525050565b6000819050919050565b60006114c46114bf6114ba8461149f565b611429565b610d37565b9050919050565b6114d4816114a9565b82525050565b600081519050919050565b600082825260208201905092915050565b60005b838110156115145780820151818401526020810190506114f9565b60008484015250505050565b600061152b826114da565b61153581856114e5565b93506115458185602086016114f6565b61154e81610bb7565b840191505092915050565b600060c08201905061156e6000830189611138565b61157b6020830188611455565b6115886040830187611490565b61159560608301866114cb565b6115a26080830185611147565b81810360a08301526115b48184611520565b9050979650505050505050565b600080fd5b600067ffffffffffffffff8211156115e1576115e0610bc8565b5b6115ea82610bb7565b9050602081019050919050565b600061160a611605846115c6565b610c28565b905082815260208101848484011115611626576116256115c1565b5b6116318482856114f6565b509392505050565b600082601f83011261164e5761164d610bb2565b5b815161165e8482602086016115f7565b91505092915050565b60006020828403121561167d5761167c610b4a565b5b600082015167ffffffffffffffff81111561169b5761169a610b4f565b5b6116a784828501611639565b91505092915050565b600081905092915050565b60006116c6826114da565b6116d081856116b0565b93506116e08185602086016114f6565b80840191505092915050565b60006116f882846116bb565b915081905092915050565b6000606082019050818103600083015261171d81866112be565b90508181036020830152611731818561137c565b90506117406040830184611147565b949350505050565b7f546f6b656e207472616e7366657246726f6d206661696c656421200000000000600082015250565b600061177e601b83610fe1565b915061178982611748565b602082019050919050565b600060208201905081810360008301526117ad81611771565b9050919050565b60006040820190506117c96000830185611138565b6117d66020830184611147565b9392505050565b7f546f6b656e207472616e73666572206661696c65640000000000000000000000600082015250565b6000611813601583610fe1565b915061181e826117dd565b602082019050919050565b6000602082019050818103600083015261184281611806565b9050919050565b600060208201905061185e6000830184611147565b92915050565b60006020820190506118796000830184611138565b92915050565b60008151905061188e81610d41565b92915050565b6000602082840312156118aa576118a9610b4a565b5b60006118b88482850161187f565b91505092915050565b600060c0820190506118d66000830189611138565b81810360208301526118e881886112be565b905081810360408301526118fc818761137c565b905061190b6060830186611147565b6119186080830185611147565b61192560a0830184611138565b979650505050505050565b7f4d69736d61746368656420726563697069656e747320616e6420616d6f756e7460008201527f7300000000000000000000000000000000000000000000000000000000000000602082015250565b600061198c602183610fe1565b915061199782611930565b604082019050919050565b600060208201905081810360008301526119bb8161197f565b905091905056fea2646970667358221220d8ea52efb641c91dc8a0af94376a379c8283eeb8ba7ef78e5c2fc67e46b6179864736f6c63430008120033', \n     arguments: [\n     ]\n}).send({\n     from: web3.eth.accounts[0], \n     gas: '4700000'\n   }, function (e, contract){\n    console.log(e, contract);\n    if (typeof contract.address !== 'undefined') {\n         console.log('Contract mined! address: ' + contract.address + ' transactionHash: ' + contract.transactionHash);\n    }\n })",
	"functionHashes": {
		"ed44b388": "dispersal(address,address[],uint256[])",
		"f2b0244f": "priceTriggeredDispersal(address,address[],uint256[],uint256,uint256)",
		"5b93f507": "scheduled_dispersal(address,address[],uint256[],uint256)"
	},
	"gasEstimates": {
		"Creation": {
			"codeDepositCost": "1329600",
			"executionCost": "49893",
			"totalCost": "1379493"
		},
		"External": {
			"": "129",
			"dispersal(address,address[],uint256[])": "infinite",
			"priceTriggeredDispersal(address,address[],uint256[],uint256,uint256)": "infinite",
			"scheduled_dispersal(address,address[],uint256[],uint256)": "infinite"
		},
		"Internal": {
			"checkPriceandDisperse(address,address[] memory,uint256[] memory,uint256,uint256,address)": "infinite",
			"executeBatchTransfer(address,address[] memory,uint256[] memory,address)": "infinite",
			"executeERC20BatchTransfer(address,address[] memory,uint256[] memory)": "infinite"
		}
	},
	"devdoc": {
		"kind": "dev",
		"methods": {},
		"version": 1
	},
	"userdoc": {
		"kind": "user",
		"methods": {},
		"version": 1
	},
	"Runtime Bytecode": {
		"immutableReferences": {},
		"linkReferences": {},
		"object": "6080604052600436106100385760003560e01c80635b93f50714610041578063ed44b3881461005d578063f2b0244f146100795761003f565b3661003f57005b005b61005b60048036038101906100569190610e04565b610095565b005b61007760048036038101906100729190610ea3565b6103af565b005b610093600480360381019061008e9190610f2e565b61069b565b005b600084905082518451146100de576040517f08c379a00000000000000000000000000000000000000000000000000000000081526004016100d59061103e565b60405180910390fd5b6000805b8451811015610126578481815181106100fe576100fd61105e565b5b60200260200101518261011191906110bc565b9150808061011e906110f0565b9150506100e2565b508173ffffffffffffffffffffffffffffffffffffffff166323b872dd3330846040518463ffffffff1660e01b815260040161016493929190611156565b6020604051808303816000875af1158015610183573d6000803e3d6000fd5b505050506040513d601f19601f820116820180604052508101906101a791906111c5565b6101e6576040517f08c379a00000000000000000000000000000000000000000000000000000000081526004016101dd9061123e565b60405180910390fd5b60008686866040516024016101fd939291906113da565b6040516020818303038152906040527f46ba5fed000000000000000000000000000000000000000000000000000000007bffffffffffffffffffffffffffffffffffffffffffffffffffffffff19166020820180517bffffffffffffffffffffffffffffffffffffffffffffffffffffffff8381831617835250505050905060008060009054906101000a900473ffffffffffffffffffffffffffffffffffffffff1673ffffffffffffffffffffffffffffffffffffffff1663168d560d30600062200b2061fa008a886040518763ffffffff1660e01b81526004016102e896959493929190611559565b6000604051808303816000875af1158015610307573d6000803e3d6000fd5b505050506040513d6000823e3d601f19601f820116820180604052508101906103309190611667565b90508773ffffffffffffffffffffffffffffffffffffffff168160405161035791906116ec565b60405180910390207fc9c9afe41dd5e3a9438dd88814edcb9c8089a9e980f48b14414eda3d6d3d0e9a8989894261038e91906110bc565b60405161039d93929190611703565b60405180910390a35050505050505050565b600083905081518351146103f8576040517f08c379a00000000000000000000000000000000000000000000000000000000081526004016103ef9061103e565b60405180910390fd5b6000805b8451811015610440578381815181106104185761041761105e565b5b60200260200101518261042b91906110bc565b91508080610438906110f0565b9150506103fc565b508173ffffffffffffffffffffffffffffffffffffffff166323b872dd3330846040518463ffffffff1660e01b815260040161047e93929190611156565b6020604051808303816000875af115801561049d573d6000803e3d6000fd5b505050506040513d601f19601f820116820180604052508101906104c191906111c5565b610500576040517f08c379a00000000000000000000000000000000000000000000000000000000081526004016104f790611794565b60405180910390fd5b60005b8451811015610693578273ffffffffffffffffffffffffffffffffffffffff1663a9059cbb86838151811061053b5761053a61105e565b5b60200260200101518684815181106105565761055561105e565b5b60200260200101516040518363ffffffff1660e01b815260040161057b9291906117b4565b6020604051808303816000875af115801561059a573d6000803e3d6000fd5b505050506040513d601f19601f820116820180604052508101906105be91906111c5565b6105fd576040517f08c379a00000000000000000000000000000000000000000000000000000000081526004016105f490611829565b60405180910390fd5b8481815181106106105761060f61105e565b5b602002602001015173ffffffffffffffffffffffffffffffffffffffff16817fb9471439bd4c23f19d2b486548fa6061ab17e1da9815f325f2a2b29f22e715e38684815181106106635761066261105e565b5b60200260200101516040516106789190611849565b60405180910390a3808061068b906110f0565b915050610503565b505050505050565b600085905060003390506000600160009054906101000a900473ffffffffffffffffffffffffffffffffffffffff1673ffffffffffffffffffffffffffffffffffffffff166341976e09846040518263ffffffff1660e01b81526004016107029190611864565b602060405180830381865afa15801561071f573d6000803e3d6000fd5b505050506040513d601f19601f820116820180604052508101906107439190611894565b905084810361075d5761075888888885610914565b61090a565b600088888888888760405160240161077a969594939291906118c1565b6040516020818303038152906040527fab54b1ba000000000000000000000000000000000000000000000000000000007bffffffffffffffffffffffffffffffffffffffffffffffffffffffff19166020820180517bffffffffffffffffffffffffffffffffffffffffffffffffffffffff8381831617835250505050905060008060009054906101000a900473ffffffffffffffffffffffffffffffffffffffff1673ffffffffffffffffffffffffffffffffffffffff1663168d560d30600062200b2061fa008b886040518763ffffffff1660e01b815260040161086596959493929190611559565b6000604051808303816000875af1158015610884573d6000803e3d6000fd5b505050506040513d6000823e3d601f19601f820116820180604052508101906108ad9190611667565b9050806040516108bd91906116ec565b60405180910390207f9e989ccc644aff3dccb44d63c0125cf7c49f64c9631016543486e7dfc72187c787426108f291906110bc565b6040516108ff9190611849565b60405180910390a250505b5050505050505050565b6000849050825184511461095d576040517f08c379a0000000000000000000000000000000000000000000000000000000008152600401610954906119a2565b60405180910390fd5b6000805b84518110156109a55784818151811061097d5761097c61105e565b5b60200260200101518261099091906110bc565b9150808061099d906110f0565b915050610961565b508173ffffffffffffffffffffffffffffffffffffffff166323b872dd8430846040518463ffffffff1660e01b81526004016109e393929190611156565b6020604051808303816000875af1158015610a02573d6000803e3d6000fd5b505050506040513d601f19601f82011682018060405250810190610a2691906111c5565b610a65576040517f08c379a0000000000000000000000000000000000000000000000000000000008152600401610a5c90611829565b60405180910390fd5b60005b8551811015610b37578273ffffffffffffffffffffffffffffffffffffffff1663a9059cbb878381518110610aa057610a9f61105e565b5b6020026020010151878481518110610abb57610aba61105e565b5b60200260200101516040518363ffffffff1660e01b8152600401610ae09291906117b4565b6020604051808303816000875af1158015610aff573d6000803e3d6000fd5b505050506040513d601f19601f82011682018060405250810190610b2391906111c5565b508080610b2f906110f0565b915050610a68565b50505050505050565b6000604051905090565b600080fd5b600080fd5b600073ffffffffffffffffffffffffffffffffffffffff82169050919050565b6000610b7f82610b54565b9050919050565b610b8f81610b74565b8114610b9a57600080fd5b50565b600081359050610bac81610b86565b92915050565b600080fd5b6000601f19601f8301169050919050565b7f4e487b7100000000000000000000000000000000000000000000000000000000600052604160045260246000fd5b610c0082610bb7565b810181811067ffffffffffffffff82111715610c1f57610c1e610bc8565b5b80604052505050565b6000610c32610b40565b9050610c3e8282610bf7565b919050565b600067ffffffffffffffff821115610c5e57610c5d610bc8565b5b602082029050602081019050919050565b600080fd5b6000610c87610c8284610c43565b610c28565b90508083825260208201905060208402830185811115610caa57610ca9610c6f565b5b835b81811015610cd35780610cbf8882610b9d565b845260208401935050602081019050610cac565b5050509392505050565b600082601f830112610cf257610cf1610bb2565b5b8135610d02848260208601610c74565b91505092915050565b600067ffffffffffffffff821115610d2657610d25610bc8565b5b602082029050602081019050919050565b6000819050919050565b610d4a81610d37565b8114610d5557600080fd5b50565b600081359050610d6781610d41565b92915050565b6000610d80610d7b84610d0b565b610c28565b90508083825260208201905060208402830185811115610da357610da2610c6f565b5b835b81811015610dcc5780610db88882610d58565b845260208401935050602081019050610da5565b5050509392505050565b600082601f830112610deb57610dea610bb2565b5b8135610dfb848260208601610d6d565b91505092915050565b60008060008060808587031215610e1e57610e1d610b4a565b5b6000610e2c87828801610b9d565b945050602085013567ffffffffffffffff811115610e4d57610e4c610b4f565b5b610e5987828801610cdd565b935050604085013567ffffffffffffffff811115610e7a57610e79610b4f565b5b610e8687828801610dd6565b9250506060610e9787828801610d58565b91505092959194509250565b600080600060608486031215610ebc57610ebb610b4a565b5b6000610eca86828701610b9d565b935050602084013567ffffffffffffffff811115610eeb57610eea610b4f565b5b610ef786828701610cdd565b925050604084013567ffffffffffffffff811115610f1857610f17610b4f565b5b610f2486828701610dd6565b9150509250925092565b600080600080600060a08688031215610f4a57610f49610b4a565b5b6000610f5888828901610b9d565b955050602086013567ffffffffffffffff811115610f7957610f78610b4f565b5b610f8588828901610cdd565b945050604086013567ffffffffffffffff811115610fa657610fa5610b4f565b5b610fb288828901610dd6565b9350506060610fc388828901610d58565b9250506080610fd488828901610d58565b9150509295509295909350565b600082825260208201905092915050565b7f4769766520696e70757473206163636f7264696e676c79210000000000000000600082015250565b6000611028601883610fe1565b915061103382610ff2565b602082019050919050565b600060208201905081810360008301526110578161101b565b9050919050565b7f4e487b7100000000000000000000000000000000000000000000000000000000600052603260045260246000fd5b7f4e487b7100000000000000000000000000000000000000000000000000000000600052601160045260246000fd5b60006110c782610d37565b91506110d283610d37565b92508282019050808211156110ea576110e961108d565b5b92915050565b60006110fb82610d37565b91507fffffffffffffffffffffffffffffffffffffffffffffffffffffffffffffffff820361112d5761112c61108d565b5b600182019050919050565b61114181610b74565b82525050565b61115081610d37565b82525050565b600060608201905061116b6000830186611138565b6111786020830185611138565b6111856040830184611147565b949350505050565b60008115159050919050565b6111a28161118d565b81146111ad57600080fd5b50565b6000815190506111bf81611199565b92915050565b6000602082840312156111db576111da610b4a565b5b60006111e9848285016111b0565b91505092915050565b7f546f6b656e207472616e73666572206661696c65642100000000000000000000600082015250565b6000611228601683610fe1565b9150611233826111f2565b602082019050919050565b600060208201905081810360008301526112578161121b565b9050919050565b600081519050919050565b600082825260208201905092915050565b6000819050602082019050919050565b61129381610b74565b82525050565b60006112a5838361128a565b60208301905092915050565b6000602082019050919050565b60006112c98261125e565b6112d38185611269565b93506112de8361127a565b8060005b8381101561130f5781516112f68882611299565b9750611301836112b1565b9250506001810190506112e2565b5085935050505092915050565b600081519050919050565b600082825260208201905092915050565b6000819050602082019050919050565b61135181610d37565b82525050565b60006113638383611348565b60208301905092915050565b6000602082019050919050565b60006113878261131c565b6113918185611327565b935061139c83611338565b8060005b838110156113cd5781516113b48882611357565b97506113bf8361136f565b9250506001810190506113a0565b5085935050505092915050565b60006060820190506113ef6000830186611138565b818103602083015261140181856112be565b90508181036040830152611415818461137c565b9050949350505050565b6000819050919050565b6000819050919050565b600061144e6114496114448461141f565b611429565b610d37565b9050919050565b61145e81611433565b82525050565b6000819050919050565b600061148961148461147f84611464565b611429565b610d37565b9050919050565b6114998161146e565b82525050565b6000819050919050565b60006114c46114bf6114ba8461149f565b611429565b610d37565b9050919050565b6114d4816114a9565b82525050565b600081519050919050565b600082825260208201905092915050565b60005b838110156115145780820151818401526020810190506114f9565b60008484015250505050565b600061152b826114da565b61153581856114e5565b93506115458185602086016114f6565b61154e81610bb7565b840191505092915050565b600060c08201905061156e6000830189611138565b61157b6020830188611455565b6115886040830187611490565b61159560608301866114cb565b6115a26080830185611147565b81810360a08301526115b48184611520565b9050979650505050505050565b600080fd5b600067ffffffffffffffff8211156115e1576115e0610bc8565b5b6115ea82610bb7565b9050602081019050919050565b600061160a611605846115c6565b610c28565b905082815260208101848484011115611626576116256115c1565b5b6116318482856114f6565b509392505050565b600082601f83011261164e5761164d610bb2565b5b815161165e8482602086016115f7565b91505092915050565b60006020828403121561167d5761167c610b4a565b5b600082015167ffffffffffffffff81111561169b5761169a610b4f565b5b6116a784828501611639565b91505092915050565b600081905092915050565b60006116c6826114da565b6116d081856116b0565b93506116e08185602086016114f6565b80840191505092915050565b60006116f882846116bb565b915081905092915050565b6000606082019050818103600083015261171d81866112be565b90508181036020830152611731818561137c565b90506117406040830184611147565b949350505050565b7f546f6b656e207472616e7366657246726f6d206661696c656421200000000000600082015250565b600061177e601b83610fe1565b915061178982611748565b602082019050919050565b600060208201905081810360008301526117ad81611771565b9050919050565b60006040820190506117c96000830185611138565b6117d66020830184611147565b9392505050565b7f546f6b656e207472616e73666572206661696c65640000000000000000000000600082015250565b6000611813601583610fe1565b915061181e826117dd565b602082019050919050565b6000602082019050818103600083015261184281611806565b9050919050565b600060208201905061185e6000830184611147565b92915050565b60006020820190506118796000830184611138565b92915050565b60008151905061188e81610d41565b92915050565b6000602082840312156118aa576118a9610b4a565b5b60006118b88482850161187f565b91505092915050565b600060c0820190506118d66000830189611138565b81810360208301526118e881886112be565b905081810360408301526118fc818761137c565b905061190b6060830186611147565b6119186080830185611147565b61192560a0830184611138565b979650505050505050565b7f4d69736d61746368656420726563697069656e747320616e6420616d6f756e7460008201527f7300000000000000000000000000000000000000000000000000000000000000602082015250565b600061198c602183610fe1565b915061199782611930565b604082019050919050565b600060208201905081810360008301526119bb8161197f565b905091905056fea2646970667358221220d8ea52efb641c91dc8a0af94376a379c8283eeb8ba7ef78e5c2fc67e46b6179864736f6c63430008120033",
		"opcodes": "PUSH1 0x80 PUSH1 0x40 MSTORE PUSH1 0x4 CALLDATASIZE LT PUSH2 0x38 JUMPI PUSH1 0x0 CALLDATALOAD PUSH1 0xE0 SHR DUP1 PUSH4 0x5B93F507 EQ PUSH2 0x41 JUMPI DUP1 PUSH4 0xED44B388 EQ PUSH2 0x5D JUMPI DUP1 PUSH4 0xF2B0244F EQ PUSH2 0x79 JUMPI PUSH2 0x3F JUMP JUMPDEST CALLDATASIZE PUSH2 0x3F JUMPI STOP JUMPDEST STOP JUMPDEST PUSH2 0x5B PUSH1 0x4 DUP1 CALLDATASIZE SUB DUP2 ADD SWAP1 PUSH2 0x56 SWAP2 SWAP1 PUSH2 0xE04 JUMP JUMPDEST PUSH2 0x95 JUMP JUMPDEST STOP JUMPDEST PUSH2 0x77 PUSH1 0x4 DUP1 CALLDATASIZE SUB DUP2 ADD SWAP1 PUSH2 0x72 SWAP2 SWAP1 PUSH2 0xEA3 JUMP JUMPDEST PUSH2 0x3AF JUMP JUMPDEST STOP JUMPDEST PUSH2 0x93 PUSH1 0x4 DUP1 CALLDATASIZE SUB DUP2 ADD SWAP1 PUSH2 0x8E SWAP2 SWAP1 PUSH2 0xF2E JUMP JUMPDEST PUSH2 0x69B JUMP JUMPDEST STOP JUMPDEST PUSH1 0x0 DUP5 SWAP1 POP DUP3 MLOAD DUP5 MLOAD EQ PUSH2 0xDE JUMPI PUSH1 0x40 MLOAD PUSH32 0x8C379A000000000000000000000000000000000000000000000000000000000 DUP2 MSTORE PUSH1 0x4 ADD PUSH2 0xD5 SWAP1 PUSH2 0x103E JUMP JUMPDEST PUSH1 0x40 MLOAD DUP1 SWAP2 SUB SWAP1 REVERT JUMPDEST PUSH1 0x0 DUP1 JUMPDEST DUP5 MLOAD DUP2 LT ISZERO PUSH2 0x126 JUMPI DUP5 DUP2 DUP2 MLOAD DUP2 LT PUSH2 0xFE JUMPI PUSH2 0xFD PUSH2 0x105E JUMP JUMPDEST JUMPDEST PUSH1 0x20 MUL PUSH1 0x20 ADD ADD MLOAD DUP3 PUSH2 0x111 SWAP2 SWAP1 PUSH2 0x10BC JUMP JUMPDEST SWAP2 POP DUP1 DUP1 PUSH2 0x11E SWAP1 PUSH2 0x10F0 JUMP JUMPDEST SWAP2 POP POP PUSH2 0xE2 JUMP JUMPDEST POP DUP2 PUSH20 0xFFFFFFFFFFFFFFFFFFFFFFFFFFFFFFFFFFFFFFFF AND PUSH4 0x23B872DD CALLER ADDRESS DUP5 PUSH1 0x40 MLOAD DUP5 PUSH4 0xFFFFFFFF AND PUSH1 0xE0 SHL DUP2 MSTORE PUSH1 0x4 ADD PUSH2 0x164 SWAP4 SWAP3 SWAP2 SWAP1 PUSH2 0x1156 JUMP JUMPDEST PUSH1 0x20 PUSH1 0x40 MLOAD DUP1 DUP4 SUB DUP2 PUSH1 0x0 DUP8 GAS CALL ISZERO DUP1 ISZERO PUSH2 0x183 JUMPI RETURNDATASIZE PUSH1 0x0 DUP1 RETURNDATACOPY RETURNDATASIZE PUSH1 0x0 REVERT JUMPDEST POP POP POP POP PUSH1 0x40 MLOAD RETURNDATASIZE PUSH1 0x1F NOT PUSH1 0x1F DUP3 ADD AND DUP3 ADD DUP1 PUSH1 0x40 MSTORE POP DUP2 ADD SWAP1 PUSH2 0x1A7 SWAP2 SWAP1 PUSH2 0x11C5 JUMP JUMPDEST PUSH2 0x1E6 JUMPI PUSH1 0x40 MLOAD PUSH32 0x8C379A000000000000000000000000000000000000000000000000000000000 DUP2 MSTORE PUSH1 0x4 ADD PUSH2 0x1DD SWAP1 PUSH2 0x123E JUMP JUMPDEST PUSH1 0x40 MLOAD DUP1 SWAP2 SUB SWAP1 REVERT JUMPDEST PUSH1 0x0 DUP7 DUP7 DUP7 PUSH1 0x40 MLOAD PUSH1 0x24 ADD PUSH2 0x1FD SWAP4 SWAP3 SWAP2 SWAP1 PUSH2 0x13DA JUMP JUMPDEST PUSH1 0x40 MLOAD PUSH1 0x20 DUP2 DUP4 SUB SUB DUP2 MSTORE SWAP1 PUSH1 0x40 MSTORE PUSH32 0x46BA5FED00000000000000000000000000000000000000000000000000000000 PUSH28 0xFFFFFFFFFFFFFFFFFFFFFFFFFFFFFFFFFFFFFFFFFFFFFFFFFFFFFFFF NOT AND PUSH1 0x20 DUP3 ADD DUP1 MLOAD PUSH28 0xFFFFFFFFFFFFFFFFFFFFFFFFFFFFFFFFFFFFFFFFFFFFFFFFFFFFFFFF DUP4 DUP2 DUP4 AND OR DUP4 MSTORE POP POP POP POP SWAP1 POP PUSH1 0x0 DUP1 PUSH1 0x0 SWAP1 SLOAD SWAP1 PUSH2 0x100 EXP SWAP1 DIV PUSH20 0xFFFFFFFFFFFFFFFFFFFFFFFFFFFFFFFFFFFFFFFF AND PUSH20 0xFFFFFFFFFFFFFFFFFFFFFFFFFFFFFFFFFFFFFFFF AND PUSH4 0x168D560D ADDRESS PUSH1 0x0 PUSH3 0x200B20 PUSH2 0xFA00 DUP11 DUP9 PUSH1 0x40 MLOAD DUP8 PUSH4 0xFFFFFFFF AND PUSH1 0xE0 SHL DUP2 MSTORE PUSH1 0x4 ADD PUSH2 0x2E8 SWAP7 SWAP6 SWAP5 SWAP4 SWAP3 SWAP2 SWAP1 PUSH2 0x1559 JUMP JUMPDEST PUSH1 0x0 PUSH1 0x40 MLOAD DUP1 DUP4 SUB DUP2 PUSH1 0x0 DUP8 GAS CALL ISZERO DUP1 ISZERO PUSH2 0x307 JUMPI RETURNDATASIZE PUSH1 0x0 DUP1 RETURNDATACOPY RETURNDATASIZE PUSH1 0x0 REVERT JUMPDEST POP POP POP POP PUSH1 0x40 MLOAD RETURNDATASIZE PUSH1 0x0 DUP3 RETURNDATACOPY RETURNDATASIZE PUSH1 0x1F NOT PUSH1 0x1F DUP3 ADD AND DUP3 ADD DUP1 PUSH1 0x40 MSTORE POP DUP2 ADD SWAP1 PUSH2 0x330 SWAP2 SWAP1 PUSH2 0x1667 JUMP JUMPDEST SWAP1 POP DUP8 PUSH20 0xFFFFFFFFFFFFFFFFFFFFFFFFFFFFFFFFFFFFFFFF AND DUP2 PUSH1 0x40 MLOAD PUSH2 0x357 SWAP2 SWAP1 PUSH2 0x16EC JUMP JUMPDEST PUSH1 0x40 MLOAD DUP1 SWAP2 SUB SWAP1 KECCAK256 PUSH32 0xC9C9AFE41DD5E3A9438DD88814EDCB9C8089A9E980F48B14414EDA3D6D3D0E9A DUP10 DUP10 DUP10 TIMESTAMP PUSH2 0x38E SWAP2 SWAP1 PUSH2 0x10BC JUMP JUMPDEST PUSH1 0x40 MLOAD PUSH2 0x39D SWAP4 SWAP3 SWAP2 SWAP1 PUSH2 0x1703 JUMP JUMPDEST PUSH1 0x40 MLOAD DUP1 SWAP2 SUB SWAP1 LOG3 POP POP POP POP POP POP POP POP JUMP JUMPDEST PUSH1 0x0 DUP4 SWAP1 POP DUP2 MLOAD DUP4 MLOAD EQ PUSH2 0x3F8 JUMPI PUSH1 0x40 MLOAD PUSH32 0x8C379A000000000000000000000000000000000000000000000000000000000 DUP2 MSTORE PUSH1 0x4 ADD PUSH2 0x3EF SWAP1 PUSH2 0x103E JUMP JUMPDEST PUSH1 0x40 MLOAD DUP1 SWAP2 SUB SWAP1 REVERT JUMPDEST PUSH1 0x0 DUP1 JUMPDEST DUP5 MLOAD DUP2 LT ISZERO PUSH2 0x440 JUMPI DUP4 DUP2 DUP2 MLOAD DUP2 LT PUSH2 0x418 JUMPI PUSH2 0x417 PUSH2 0x105E JUMP JUMPDEST JUMPDEST PUSH1 0x20 MUL PUSH1 0x20 ADD ADD MLOAD DUP3 PUSH2 0x42B SWAP2 SWAP1 PUSH2 0x10BC JUMP JUMPDEST SWAP2 POP DUP1 DUP1 PUSH2 0x438 SWAP1 PUSH2 0x10F0 JUMP JUMPDEST SWAP2 POP POP PUSH2 0x3FC JUMP JUMPDEST POP DUP2 PUSH20 0xFFFFFFFFFFFFFFFFFFFFFFFFFFFFFFFFFFFFFFFF AND PUSH4 0x23B872DD CALLER ADDRESS DUP5 PUSH1 0x40 MLOAD DUP5 PUSH4 0xFFFFFFFF AND PUSH1 0xE0 SHL DUP2 MSTORE PUSH1 0x4 ADD PUSH2 0x47E SWAP4 SWAP3 SWAP2 SWAP1 PUSH2 0x1156 JUMP JUMPDEST PUSH1 0x20 PUSH1 0x40 MLOAD DUP1 DUP4 SUB DUP2 PUSH1 0x0 DUP8 GAS CALL ISZERO DUP1 ISZERO PUSH2 0x49D JUMPI RETURNDATASIZE PUSH1 0x0 DUP1 RETURNDATACOPY RETURNDATASIZE PUSH1 0x0 REVERT JUMPDEST POP POP POP POP PUSH1 0x40 MLOAD RETURNDATASIZE PUSH1 0x1F NOT PUSH1 0x1F DUP3 ADD AND DUP3 ADD DUP1 PUSH1 0x40 MSTORE POP DUP2 ADD SWAP1 PUSH2 0x4C1 SWAP2 SWAP1 PUSH2 0x11C5 JUMP JUMPDEST PUSH2 0x500 JUMPI PUSH1 0x40 MLOAD PUSH32 0x8C379A000000000000000000000000000000000000000000000000000000000 DUP2 MSTORE PUSH1 0x4 ADD PUSH2 0x4F7 SWAP1 PUSH2 0x1794 JUMP JUMPDEST PUSH1 0x40 MLOAD DUP1 SWAP2 SUB SWAP1 REVERT JUMPDEST PUSH1 0x0 JUMPDEST DUP5 MLOAD DUP2 LT ISZERO PUSH2 0x693 JUMPI DUP3 PUSH20 0xFFFFFFFFFFFFFFFFFFFFFFFFFFFFFFFFFFFFFFFF AND PUSH4 0xA9059CBB DUP7 DUP4 DUP2 MLOAD DUP2 LT PUSH2 0x53B JUMPI PUSH2 0x53A PUSH2 0x105E JUMP JUMPDEST JUMPDEST PUSH1 0x20 MUL PUSH1 0x20 ADD ADD MLOAD DUP7 DUP5 DUP2 MLOAD DUP2 LT PUSH2 0x556 JUMPI PUSH2 0x555 PUSH2 0x105E JUMP JUMPDEST JUMPDEST PUSH1 0x20 MUL PUSH1 0x20 ADD ADD MLOAD PUSH1 0x40 MLOAD DUP4 PUSH4 0xFFFFFFFF AND PUSH1 0xE0 SHL DUP2 MSTORE PUSH1 0x4 ADD PUSH2 0x57B SWAP3 SWAP2 SWAP1 PUSH2 0x17B4 JUMP JUMPDEST PUSH1 0x20 PUSH1 0x40 MLOAD DUP1 DUP4 SUB DUP2 PUSH1 0x0 DUP8 GAS CALL ISZERO DUP1 ISZERO PUSH2 0x59A JUMPI RETURNDATASIZE PUSH1 0x0 DUP1 RETURNDATACOPY RETURNDATASIZE PUSH1 0x0 REVERT JUMPDEST POP POP POP POP PUSH1 0x40 MLOAD RETURNDATASIZE PUSH1 0x1F NOT PUSH1 0x1F DUP3 ADD AND DUP3 ADD DUP1 PUSH1 0x40 MSTORE POP DUP2 ADD SWAP1 PUSH2 0x5BE SWAP2 SWAP1 PUSH2 0x11C5 JUMP JUMPDEST PUSH2 0x5FD JUMPI PUSH1 0x40 MLOAD PUSH32 0x8C379A000000000000000000000000000000000000000000000000000000000 DUP2 MSTORE PUSH1 0x4 ADD PUSH2 0x5F4 SWAP1 PUSH2 0x1829 JUMP JUMPDEST PUSH1 0x40 MLOAD DUP1 SWAP2 SUB SWAP1 REVERT JUMPDEST DUP5 DUP2 DUP2 MLOAD DUP2 LT PUSH2 0x610 JUMPI PUSH2 0x60F PUSH2 0x105E JUMP JUMPDEST JUMPDEST PUSH1 0x20 MUL PUSH1 0x20 ADD ADD MLOAD PUSH20 0xFFFFFFFFFFFFFFFFFFFFFFFFFFFFFFFFFFFFFFFF AND DUP2 PUSH32 0xB9471439BD4C23F19D2B486548FA6061AB17E1DA9815F325F2A2B29F22E715E3 DUP7 DUP5 DUP2 MLOAD DUP2 LT PUSH2 0x663 JUMPI PUSH2 0x662 PUSH2 0x105E JUMP JUMPDEST JUMPDEST PUSH1 0x20 MUL PUSH1 0x20 ADD ADD MLOAD PUSH1 0x40 MLOAD PUSH2 0x678 SWAP2 SWAP1 PUSH2 0x1849 JUMP JUMPDEST PUSH1 0x40 MLOAD DUP1 SWAP2 SUB SWAP1 LOG3 DUP1 DUP1 PUSH2 0x68B SWAP1 PUSH2 0x10F0 JUMP JUMPDEST SWAP2 POP POP PUSH2 0x503 JUMP JUMPDEST POP POP POP POP POP POP JUMP JUMPDEST PUSH1 0x0 DUP6 SWAP1 POP PUSH1 0x0 CALLER SWAP1 POP PUSH1 0x0 PUSH1 0x1 PUSH1 0x0 SWAP1 SLOAD SWAP1 PUSH2 0x100 EXP SWAP1 DIV PUSH20 0xFFFFFFFFFFFFFFFFFFFFFFFFFFFFFFFFFFFFFFFF AND PUSH20 0xFFFFFFFFFFFFFFFFFFFFFFFFFFFFFFFFFFFFFFFF AND PUSH4 0x41976E09 DUP5 PUSH1 0x40 MLOAD DUP3 PUSH4 0xFFFFFFFF AND PUSH1 0xE0 SHL DUP2 MSTORE PUSH1 0x4 ADD PUSH2 0x702 SWAP2 SWAP1 PUSH2 0x1864 JUMP JUMPDEST PUSH1 0x20 PUSH1 0x40 MLOAD DUP1 DUP4 SUB DUP2 DUP7 GAS STATICCALL ISZERO DUP1 ISZERO PUSH2 0x71F JUMPI RETURNDATASIZE PUSH1 0x0 DUP1 RETURNDATACOPY RETURNDATASIZE PUSH1 0x0 REVERT JUMPDEST POP POP POP POP PUSH1 0x40 MLOAD RETURNDATASIZE PUSH1 0x1F NOT PUSH1 0x1F DUP3 ADD AND DUP3 ADD DUP1 PUSH1 0x40 MSTORE POP DUP2 ADD SWAP1 PUSH2 0x743 SWAP2 SWAP1 PUSH2 0x1894 JUMP JUMPDEST SWAP1 POP DUP5 DUP2 SUB PUSH2 0x75D JUMPI PUSH2 0x758 DUP9 DUP9 DUP9 DUP6 PUSH2 0x914 JUMP JUMPDEST PUSH2 0x90A JUMP JUMPDEST PUSH1 0x0 DUP9 DUP9 DUP9 DUP9 DUP9 DUP8 PUSH1 0x40 MLOAD PUSH1 0x24 ADD PUSH2 0x77A SWAP7 SWAP6 SWAP5 SWAP4 SWAP3 SWAP2 SWAP1 PUSH2 0x18C1 JUMP JUMPDEST PUSH1 0x40 MLOAD PUSH1 0x20 DUP2 DUP4 SUB SUB DUP2 MSTORE SWAP1 PUSH1 0x40 MSTORE PUSH32 0xAB54B1BA00000000000000000000000000000000000000000000000000000000 PUSH28 0xFFFFFFFFFFFFFFFFFFFFFFFFFFFFFFFFFFFFFFFFFFFFFFFFFFFFFFFF NOT AND PUSH1 0x20 DUP3 ADD DUP1 MLOAD PUSH28 0xFFFFFFFFFFFFFFFFFFFFFFFFFFFFFFFFFFFFFFFFFFFFFFFFFFFFFFFF DUP4 DUP2 DUP4 AND OR DUP4 MSTORE POP POP POP POP SWAP1 POP PUSH1 0x0 DUP1 PUSH1 0x0 SWAP1 SLOAD SWAP1 PUSH2 0x100 EXP SWAP1 DIV PUSH20 0xFFFFFFFFFFFFFFFFFFFFFFFFFFFFFFFFFFFFFFFF AND PUSH20 0xFFFFFFFFFFFFFFFFFFFFFFFFFFFFFFFFFFFFFFFF AND PUSH4 0x168D560D ADDRESS PUSH1 0x0 PUSH3 0x200B20 PUSH2 0xFA00 DUP12 DUP9 PUSH1 0x40 MLOAD DUP8 PUSH4 0xFFFFFFFF AND PUSH1 0xE0 SHL DUP2 MSTORE PUSH1 0x4 ADD PUSH2 0x865 SWAP7 SWAP6 SWAP5 SWAP4 SWAP3 SWAP2 SWAP1 PUSH2 0x1559 JUMP JUMPDEST PUSH1 0x0 PUSH1 0x40 MLOAD DUP1 DUP4 SUB DUP2 PUSH1 0x0 DUP8 GAS CALL ISZERO DUP1 ISZERO PUSH2 0x884 JUMPI RETURNDATASIZE PUSH1 0x0 DUP1 RETURNDATACOPY RETURNDATASIZE PUSH1 0x0 REVERT JUMPDEST POP POP POP POP PUSH1 0x40 MLOAD RETURNDATASIZE PUSH1 0x0 DUP3 RETURNDATACOPY RETURNDATASIZE PUSH1 0x1F NOT PUSH1 0x1F DUP3 ADD AND DUP3 ADD DUP1 PUSH1 0x40 MSTORE POP DUP2 ADD SWAP1 PUSH2 0x8AD SWAP2 SWAP1 PUSH2 0x1667 JUMP JUMPDEST SWAP1 POP DUP1 PUSH1 0x40 MLOAD PUSH2 0x8BD SWAP2 SWAP1 PUSH2 0x16EC JUMP JUMPDEST PUSH1 0x40 MLOAD DUP1 SWAP2 SUB SWAP1 KECCAK256 PUSH32 0x9E989CCC644AFF3DCCB44D63C0125CF7C49F64C9631016543486E7DFC72187C7 DUP8 TIMESTAMP PUSH2 0x8F2 SWAP2 SWAP1 PUSH2 0x10BC JUMP JUMPDEST PUSH1 0x40 MLOAD PUSH2 0x8FF SWAP2 SWAP1 PUSH2 0x1849 JUMP JUMPDEST PUSH1 0x40 MLOAD DUP1 SWAP2 SUB SWAP1 LOG2 POP POP JUMPDEST POP POP POP POP POP POP POP POP JUMP JUMPDEST PUSH1 0x0 DUP5 SWAP1 POP DUP3 MLOAD DUP5 MLOAD EQ PUSH2 0x95D JUMPI PUSH1 0x40 MLOAD PUSH32 0x8C379A000000000000000000000000000000000000000000000000000000000 DUP2 MSTORE PUSH1 0x4 ADD PUSH2 0x954 SWAP1 PUSH2 0x19A2 JUMP JUMPDEST PUSH1 0x40 MLOAD DUP1 SWAP2 SUB SWAP1 REVERT JUMPDEST PUSH1 0x0 DUP1 JUMPDEST DUP5 MLOAD DUP2 LT ISZERO PUSH2 0x9A5 JUMPI DUP5 DUP2 DUP2 MLOAD DUP2 LT PUSH2 0x97D JUMPI PUSH2 0x97C PUSH2 0x105E JUMP JUMPDEST JUMPDEST PUSH1 0x20 MUL PUSH1 0x20 ADD ADD MLOAD DUP3 PUSH2 0x990 SWAP2 SWAP1 PUSH2 0x10BC JUMP JUMPDEST SWAP2 POP DUP1 DUP1 PUSH2 0x99D SWAP1 PUSH2 0x10F0 JUMP JUMPDEST SWAP2 POP POP PUSH2 0x961 JUMP JUMPDEST POP DUP2 PUSH20 0xFFFFFFFFFFFFFFFFFFFFFFFFFFFFFFFFFFFFFFFF AND PUSH4 0x23B872DD DUP5 ADDRESS DUP5 PUSH1 0x40 MLOAD DUP5 PUSH4 0xFFFFFFFF AND PUSH1 0xE0 SHL DUP2 MSTORE PUSH1 0x4 ADD PUSH2 0x9E3 SWAP4 SWAP3 SWAP2 SWAP1 PUSH2 0x1156 JUMP JUMPDEST PUSH1 0x20 PUSH1 0x40 MLOAD DUP1 DUP4 SUB DUP2 PUSH1 0x0 DUP8 GAS CALL ISZERO DUP1 ISZERO PUSH2 0xA02 JUMPI RETURNDATASIZE PUSH1 0x0 DUP1 RETURNDATACOPY RETURNDATASIZE PUSH1 0x0 REVERT JUMPDEST POP POP POP POP PUSH1 0x40 MLOAD RETURNDATASIZE PUSH1 0x1F NOT PUSH1 0x1F DUP3 ADD AND DUP3 ADD DUP1 PUSH1 0x40 MSTORE POP DUP2 ADD SWAP1 PUSH2 0xA26 SWAP2 SWAP1 PUSH2 0x11C5 JUMP JUMPDEST PUSH2 0xA65 JUMPI PUSH1 0x40 MLOAD PUSH32 0x8C379A000000000000000000000000000000000000000000000000000000000 DUP2 MSTORE PUSH1 0x4 ADD PUSH2 0xA5C SWAP1 PUSH2 0x1829 JUMP JUMPDEST PUSH1 0x40 MLOAD DUP1 SWAP2 SUB SWAP1 REVERT JUMPDEST PUSH1 0x0 JUMPDEST DUP6 MLOAD DUP2 LT ISZERO PUSH2 0xB37 JUMPI DUP3 PUSH20 0xFFFFFFFFFFFFFFFFFFFFFFFFFFFFFFFFFFFFFFFF AND PUSH4 0xA9059CBB DUP8 DUP4 DUP2 MLOAD DUP2 LT PUSH2 0xAA0 JUMPI PUSH2 0xA9F PUSH2 0x105E JUMP JUMPDEST JUMPDEST PUSH1 0x20 MUL PUSH1 0x20 ADD ADD MLOAD DUP8 DUP5 DUP2 MLOAD DUP2 LT PUSH2 0xABB JUMPI PUSH2 0xABA PUSH2 0x105E JUMP JUMPDEST JUMPDEST PUSH1 0x20 MUL PUSH1 0x20 ADD ADD MLOAD PUSH1 0x40 MLOAD DUP4 PUSH4 0xFFFFFFFF AND PUSH1 0xE0 SHL DUP2 MSTORE PUSH1 0x4 ADD PUSH2 0xAE0 SWAP3 SWAP2 SWAP1 PUSH2 0x17B4 JUMP JUMPDEST PUSH1 0x20 PUSH1 0x40 MLOAD DUP1 DUP4 SUB DUP2 PUSH1 0x0 DUP8 GAS CALL ISZERO DUP1 ISZERO PUSH2 0xAFF JUMPI RETURNDATASIZE PUSH1 0x0 DUP1 RETURNDATACOPY RETURNDATASIZE PUSH1 0x0 REVERT JUMPDEST POP POP POP POP PUSH1 0x40 MLOAD RETURNDATASIZE PUSH1 0x1F NOT PUSH1 0x1F DUP3 ADD AND DUP3 ADD DUP1 PUSH1 0x40 MSTORE POP DUP2 ADD SWAP1 PUSH2 0xB23 SWAP2 SWAP1 PUSH2 0x11C5 JUMP JUMPDEST POP DUP1 DUP1 PUSH2 0xB2F SWAP1 PUSH2 0x10F0 JUMP JUMPDEST SWAP2 POP POP PUSH2 0xA68 JUMP JUMPDEST POP POP POP POP POP POP POP JUMP JUMPDEST PUSH1 0x0 PUSH1 0x40 MLOAD SWAP1 POP SWAP1 JUMP JUMPDEST PUSH1 0x0 DUP1 REVERT JUMPDEST PUSH1 0x0 DUP1 REVERT JUMPDEST PUSH1 0x0 PUSH20 0xFFFFFFFFFFFFFFFFFFFFFFFFFFFFFFFFFFFFFFFF DUP3 AND SWAP1 POP SWAP2 SWAP1 POP JUMP JUMPDEST PUSH1 0x0 PUSH2 0xB7F DUP3 PUSH2 0xB54 JUMP JUMPDEST SWAP1 POP SWAP2 SWAP1 POP JUMP JUMPDEST PUSH2 0xB8F DUP2 PUSH2 0xB74 JUMP JUMPDEST DUP2 EQ PUSH2 0xB9A JUMPI PUSH1 0x0 DUP1 REVERT JUMPDEST POP JUMP JUMPDEST PUSH1 0x0 DUP2 CALLDATALOAD SWAP1 POP PUSH2 0xBAC DUP2 PUSH2 0xB86 JUMP JUMPDEST SWAP3 SWAP2 POP POP JUMP JUMPDEST PUSH1 0x0 DUP1 REVERT JUMPDEST PUSH1 0x0 PUSH1 0x1F NOT PUSH1 0x1F DUP4 ADD AND SWAP1 POP SWAP2 SWAP1 POP JUMP JUMPDEST PUSH32 0x4E487B7100000000000000000000000000000000000000000000000000000000 PUSH1 0x0 MSTORE PUSH1 0x41 PUSH1 0x4 MSTORE PUSH1 0x24 PUSH1 0x0 REVERT JUMPDEST PUSH2 0xC00 DUP3 PUSH2 0xBB7 JUMP JUMPDEST DUP2 ADD DUP2 DUP2 LT PUSH8 0xFFFFFFFFFFFFFFFF DUP3 GT OR ISZERO PUSH2 0xC1F JUMPI PUSH2 0xC1E PUSH2 0xBC8 JUMP JUMPDEST JUMPDEST DUP1 PUSH1 0x40 MSTORE POP POP POP JUMP JUMPDEST PUSH1 0x0 PUSH2 0xC32 PUSH2 0xB40 JUMP JUMPDEST SWAP1 POP PUSH2 0xC3E DUP3 DUP3 PUSH2 0xBF7 JUMP JUMPDEST SWAP2 SWAP1 POP JUMP JUMPDEST PUSH1 0x0 PUSH8 0xFFFFFFFFFFFFFFFF DUP3 GT ISZERO PUSH2 0xC5E JUMPI PUSH2 0xC5D PUSH2 0xBC8 JUMP JUMPDEST JUMPDEST PUSH1 0x20 DUP3 MUL SWAP1 POP PUSH1 0x20 DUP2 ADD SWAP1 POP SWAP2 SWAP1 POP JUMP JUMPDEST PUSH1 0x0 DUP1 REVERT JUMPDEST PUSH1 0x0 PUSH2 0xC87 PUSH2 0xC82 DUP5 PUSH2 0xC43 JUMP JUMPDEST PUSH2 0xC28 JUMP JUMPDEST SWAP1 POP DUP1 DUP4 DUP3 MSTORE PUSH1 0x20 DUP3 ADD SWAP1 POP PUSH1 0x20 DUP5 MUL DUP4 ADD DUP6 DUP2 GT ISZERO PUSH2 0xCAA JUMPI PUSH2 0xCA9 PUSH2 0xC6F JUMP JUMPDEST JUMPDEST DUP4 JUMPDEST DUP2 DUP2 LT ISZERO PUSH2 0xCD3 JUMPI DUP1 PUSH2 0xCBF DUP9 DUP3 PUSH2 0xB9D JUMP JUMPDEST DUP5 MSTORE PUSH1 0x20 DUP5 ADD SWAP4 POP POP PUSH1 0x20 DUP2 ADD SWAP1 POP PUSH2 0xCAC JUMP JUMPDEST POP POP POP SWAP4 SWAP3 POP POP POP JUMP JUMPDEST PUSH1 0x0 DUP3 PUSH1 0x1F DUP4 ADD SLT PUSH2 0xCF2 JUMPI PUSH2 0xCF1 PUSH2 0xBB2 JUMP JUMPDEST JUMPDEST DUP2 CALLDATALOAD PUSH2 0xD02 DUP5 DUP3 PUSH1 0x20 DUP7 ADD PUSH2 0xC74 JUMP JUMPDEST SWAP2 POP POP SWAP3 SWAP2 POP POP JUMP JUMPDEST PUSH1 0x0 PUSH8 0xFFFFFFFFFFFFFFFF DUP3 GT ISZERO PUSH2 0xD26 JUMPI PUSH2 0xD25 PUSH2 0xBC8 JUMP JUMPDEST JUMPDEST PUSH1 0x20 DUP3 MUL SWAP1 POP PUSH1 0x20 DUP2 ADD SWAP1 POP SWAP2 SWAP1 POP JUMP JUMPDEST PUSH1 0x0 DUP2 SWAP1 POP SWAP2 SWAP1 POP JUMP JUMPDEST PUSH2 0xD4A DUP2 PUSH2 0xD37 JUMP JUMPDEST DUP2 EQ PUSH2 0xD55 JUMPI PUSH1 0x0 DUP1 REVERT JUMPDEST POP JUMP JUMPDEST PUSH1 0x0 DUP2 CALLDATALOAD SWAP1 POP PUSH2 0xD67 DUP2 PUSH2 0xD41 JUMP JUMPDEST SWAP3 SWAP2 POP POP JUMP JUMPDEST PUSH1 0x0 PUSH2 0xD80 PUSH2 0xD7B DUP5 PUSH2 0xD0B JUMP JUMPDEST PUSH2 0xC28 JUMP JUMPDEST SWAP1 POP DUP1 DUP4 DUP3 MSTORE PUSH1 0x20 DUP3 ADD SWAP1 POP PUSH1 0x20 DUP5 MUL DUP4 ADD DUP6 DUP2 GT ISZERO PUSH2 0xDA3 JUMPI PUSH2 0xDA2 PUSH2 0xC6F JUMP JUMPDEST JUMPDEST DUP4 JUMPDEST DUP2 DUP2 LT ISZERO PUSH2 0xDCC JUMPI DUP1 PUSH2 0xDB8 DUP9 DUP3 PUSH2 0xD58 JUMP JUMPDEST DUP5 MSTORE PUSH1 0x20 DUP5 ADD SWAP4 POP POP PUSH1 0x20 DUP2 ADD SWAP1 POP PUSH2 0xDA5 JUMP JUMPDEST POP POP POP SWAP4 SWAP3 POP POP POP JUMP JUMPDEST PUSH1 0x0 DUP3 PUSH1 0x1F DUP4 ADD SLT PUSH2 0xDEB JUMPI PUSH2 0xDEA PUSH2 0xBB2 JUMP JUMPDEST JUMPDEST DUP2 CALLDATALOAD PUSH2 0xDFB DUP5 DUP3 PUSH1 0x20 DUP7 ADD PUSH2 0xD6D JUMP JUMPDEST SWAP2 POP POP SWAP3 SWAP2 POP POP JUMP JUMPDEST PUSH1 0x0 DUP1 PUSH1 0x0 DUP1 PUSH1 0x80 DUP6 DUP8 SUB SLT ISZERO PUSH2 0xE1E JUMPI PUSH2 0xE1D PUSH2 0xB4A JUMP JUMPDEST JUMPDEST PUSH1 0x0 PUSH2 0xE2C DUP8 DUP3 DUP9 ADD PUSH2 0xB9D JUMP JUMPDEST SWAP5 POP POP PUSH1 0x20 DUP6 ADD CALLDATALOAD PUSH8 0xFFFFFFFFFFFFFFFF DUP2 GT ISZERO PUSH2 0xE4D JUMPI PUSH2 0xE4C PUSH2 0xB4F JUMP JUMPDEST JUMPDEST PUSH2 0xE59 DUP8 DUP3 DUP9 ADD PUSH2 0xCDD JUMP JUMPDEST SWAP4 POP POP PUSH1 0x40 DUP6 ADD CALLDATALOAD PUSH8 0xFFFFFFFFFFFFFFFF DUP2 GT ISZERO PUSH2 0xE7A JUMPI PUSH2 0xE79 PUSH2 0xB4F JUMP JUMPDEST JUMPDEST PUSH2 0xE86 DUP8 DUP3 DUP9 ADD PUSH2 0xDD6 JUMP JUMPDEST SWAP3 POP POP PUSH1 0x60 PUSH2 0xE97 DUP8 DUP3 DUP9 ADD PUSH2 0xD58 JUMP JUMPDEST SWAP2 POP POP SWAP3 SWAP6 SWAP2 SWAP5 POP SWAP3 POP JUMP JUMPDEST PUSH1 0x0 DUP1 PUSH1 0x0 PUSH1 0x60 DUP5 DUP7 SUB SLT ISZERO PUSH2 0xEBC JUMPI PUSH2 0xEBB PUSH2 0xB4A JUMP JUMPDEST JUMPDEST PUSH1 0x0 PUSH2 0xECA DUP7 DUP3 DUP8 ADD PUSH2 0xB9D JUMP JUMPDEST SWAP4 POP POP PUSH1 0x20 DUP5 ADD CALLDATALOAD PUSH8 0xFFFFFFFFFFFFFFFF DUP2 GT ISZERO PUSH2 0xEEB JUMPI PUSH2 0xEEA PUSH2 0xB4F JUMP JUMPDEST JUMPDEST PUSH2 0xEF7 DUP7 DUP3 DUP8 ADD PUSH2 0xCDD JUMP JUMPDEST SWAP3 POP POP PUSH1 0x40 DUP5 ADD CALLDATALOAD PUSH8 0xFFFFFFFFFFFFFFFF DUP2 GT ISZERO PUSH2 0xF18 JUMPI PUSH2 0xF17 PUSH2 0xB4F JUMP JUMPDEST JUMPDEST PUSH2 0xF24 DUP7 DUP3 DUP8 ADD PUSH2 0xDD6 JUMP JUMPDEST SWAP2 POP POP SWAP3 POP SWAP3 POP SWAP3 JUMP JUMPDEST PUSH1 0x0 DUP1 PUSH1 0x0 DUP1 PUSH1 0x0 PUSH1 0xA0 DUP7 DUP9 SUB SLT ISZERO PUSH2 0xF4A JUMPI PUSH2 0xF49 PUSH2 0xB4A JUMP JUMPDEST JUMPDEST PUSH1 0x0 PUSH2 0xF58 DUP9 DUP3 DUP10 ADD PUSH2 0xB9D JUMP JUMPDEST SWAP6 POP POP PUSH1 0x20 DUP7 ADD CALLDATALOAD PUSH8 0xFFFFFFFFFFFFFFFF DUP2 GT ISZERO PUSH2 0xF79 JUMPI PUSH2 0xF78 PUSH2 0xB4F JUMP JUMPDEST JUMPDEST PUSH2 0xF85 DUP9 DUP3 DUP10 ADD PUSH2 0xCDD JUMP JUMPDEST SWAP5 POP POP PUSH1 0x40 DUP7 ADD CALLDATALOAD PUSH8 0xFFFFFFFFFFFFFFFF DUP2 GT ISZERO PUSH2 0xFA6 JUMPI PUSH2 0xFA5 PUSH2 0xB4F JUMP JUMPDEST JUMPDEST PUSH2 0xFB2 DUP9 DUP3 DUP10 ADD PUSH2 0xDD6 JUMP JUMPDEST SWAP4 POP POP PUSH1 0x60 PUSH2 0xFC3 DUP9 DUP3 DUP10 ADD PUSH2 0xD58 JUMP JUMPDEST SWAP3 POP POP PUSH1 0x80 PUSH2 0xFD4 DUP9 DUP3 DUP10 ADD PUSH2 0xD58 JUMP JUMPDEST SWAP2 POP POP SWAP3 SWAP6 POP SWAP3 SWAP6 SWAP1 SWAP4 POP JUMP JUMPDEST PUSH1 0x0 DUP3 DUP3 MSTORE PUSH1 0x20 DUP3 ADD SWAP1 POP SWAP3 SWAP2 POP POP JUMP JUMPDEST PUSH32 0x4769766520696E70757473206163636F7264696E676C79210000000000000000 PUSH1 0x0 DUP3 ADD MSTORE POP JUMP JUMPDEST PUSH1 0x0 PUSH2 0x1028 PUSH1 0x18 DUP4 PUSH2 0xFE1 JUMP JUMPDEST SWAP2 POP PUSH2 0x1033 DUP3 PUSH2 0xFF2 JUMP JUMPDEST PUSH1 0x20 DUP3 ADD SWAP1 POP SWAP2 SWAP1 POP JUMP JUMPDEST PUSH1 0x0 PUSH1 0x20 DUP3 ADD SWAP1 POP DUP2 DUP2 SUB PUSH1 0x0 DUP4 ADD MSTORE PUSH2 0x1057 DUP2 PUSH2 0x101B JUMP JUMPDEST SWAP1 POP SWAP2 SWAP1 POP JUMP JUMPDEST PUSH32 0x4E487B7100000000000000000000000000000000000000000000000000000000 PUSH1 0x0 MSTORE PUSH1 0x32 PUSH1 0x4 MSTORE PUSH1 0x24 PUSH1 0x0 REVERT JUMPDEST PUSH32 0x4E487B7100000000000000000000000000000000000000000000000000000000 PUSH1 0x0 MSTORE PUSH1 0x11 PUSH1 0x4 MSTORE PUSH1 0x24 PUSH1 0x0 REVERT JUMPDEST PUSH1 0x0 PUSH2 0x10C7 DUP3 PUSH2 0xD37 JUMP JUMPDEST SWAP2 POP PUSH2 0x10D2 DUP4 PUSH2 0xD37 JUMP JUMPDEST SWAP3 POP DUP3 DUP3 ADD SWAP1 POP DUP1 DUP3 GT ISZERO PUSH2 0x10EA JUMPI PUSH2 0x10E9 PUSH2 0x108D JUMP JUMPDEST JUMPDEST SWAP3 SWAP2 POP POP JUMP JUMPDEST PUSH1 0x0 PUSH2 0x10FB DUP3 PUSH2 0xD37 JUMP JUMPDEST SWAP2 POP PUSH32 0xFFFFFFFFFFFFFFFFFFFFFFFFFFFFFFFFFFFFFFFFFFFFFFFFFFFFFFFFFFFFFFFF DUP3 SUB PUSH2 0x112D JUMPI PUSH2 0x112C PUSH2 0x108D JUMP JUMPDEST JUMPDEST PUSH1 0x1 DUP3 ADD SWAP1 POP SWAP2 SWAP1 POP JUMP JUMPDEST PUSH2 0x1141 DUP2 PUSH2 0xB74 JUMP JUMPDEST DUP3 MSTORE POP POP JUMP JUMPDEST PUSH2 0x1150 DUP2 PUSH2 0xD37 JUMP JUMPDEST DUP3 MSTORE POP POP JUMP JUMPDEST PUSH1 0x0 PUSH1 0x60 DUP3 ADD SWAP1 POP PUSH2 0x116B PUSH1 0x0 DUP4 ADD DUP7 PUSH2 0x1138 JUMP JUMPDEST PUSH2 0x1178 PUSH1 0x20 DUP4 ADD DUP6 PUSH2 0x1138 JUMP JUMPDEST PUSH2 0x1185 PUSH1 0x40 DUP4 ADD DUP5 PUSH2 0x1147 JUMP JUMPDEST SWAP5 SWAP4 POP POP POP POP JUMP JUMPDEST PUSH1 0x0 DUP2 ISZERO ISZERO SWAP1 POP SWAP2 SWAP1 POP JUMP JUMPDEST PUSH2 0x11A2 DUP2 PUSH2 0x118D JUMP JUMPDEST DUP2 EQ PUSH2 0x11AD JUMPI PUSH1 0x0 DUP1 REVERT JUMPDEST POP JUMP JUMPDEST PUSH1 0x0 DUP2 MLOAD SWAP1 POP PUSH2 0x11BF DUP2 PUSH2 0x1199 JUMP JUMPDEST SWAP3 SWAP2 POP POP JUMP JUMPDEST PUSH1 0x0 PUSH1 0x20 DUP3 DUP5 SUB SLT ISZERO PUSH2 0x11DB JUMPI PUSH2 0x11DA PUSH2 0xB4A JUMP JUMPDEST JUMPDEST PUSH1 0x0 PUSH2 0x11E9 DUP5 DUP3 DUP6 ADD PUSH2 0x11B0 JUMP JUMPDEST SWAP2 POP POP SWAP3 SWAP2 POP POP JUMP JUMPDEST PUSH32 0x546F6B656E207472616E73666572206661696C65642100000000000000000000 PUSH1 0x0 DUP3 ADD MSTORE POP JUMP JUMPDEST PUSH1 0x0 PUSH2 0x1228 PUSH1 0x16 DUP4 PUSH2 0xFE1 JUMP JUMPDEST SWAP2 POP PUSH2 0x1233 DUP3 PUSH2 0x11F2 JUMP JUMPDEST PUSH1 0x20 DUP3 ADD SWAP1 POP SWAP2 SWAP1 POP JUMP JUMPDEST PUSH1 0x0 PUSH1 0x20 DUP3 ADD SWAP1 POP DUP2 DUP2 SUB PUSH1 0x0 DUP4 ADD MSTORE PUSH2 0x1257 DUP2 PUSH2 0x121B JUMP JUMPDEST SWAP1 POP SWAP2 SWAP1 POP JUMP JUMPDEST PUSH1 0x0 DUP2 MLOAD SWAP1 POP SWAP2 SWAP1 POP JUMP JUMPDEST PUSH1 0x0 DUP3 DUP3 MSTORE PUSH1 0x20 DUP3 ADD SWAP1 POP SWAP3 SWAP2 POP POP JUMP JUMPDEST PUSH1 0x0 DUP2 SWAP1 POP PUSH1 0x20 DUP3 ADD SWAP1 POP SWAP2 SWAP1 POP JUMP JUMPDEST PUSH2 0x1293 DUP2 PUSH2 0xB74 JUMP JUMPDEST DUP3 MSTORE POP POP JUMP JUMPDEST PUSH1 0x0 PUSH2 0x12A5 DUP4 DUP4 PUSH2 0x128A JUMP JUMPDEST PUSH1 0x20 DUP4 ADD SWAP1 POP SWAP3 SWAP2 POP POP JUMP JUMPDEST PUSH1 0x0 PUSH1 0x20 DUP3 ADD SWAP1 POP SWAP2 SWAP1 POP JUMP JUMPDEST PUSH1 0x0 PUSH2 0x12C9 DUP3 PUSH2 0x125E JUMP JUMPDEST PUSH2 0x12D3 DUP2 DUP6 PUSH2 0x1269 JUMP JUMPDEST SWAP4 POP PUSH2 0x12DE DUP4 PUSH2 0x127A JUMP JUMPDEST DUP1 PUSH1 0x0 JUMPDEST DUP4 DUP2 LT ISZERO PUSH2 0x130F JUMPI DUP2 MLOAD PUSH2 0x12F6 DUP9 DUP3 PUSH2 0x1299 JUMP JUMPDEST SWAP8 POP PUSH2 0x1301 DUP4 PUSH2 0x12B1 JUMP JUMPDEST SWAP3 POP POP PUSH1 0x1 DUP2 ADD SWAP1 POP PUSH2 0x12E2 JUMP JUMPDEST POP DUP6 SWAP4 POP POP POP POP SWAP3 SWAP2 POP POP JUMP JUMPDEST PUSH1 0x0 DUP2 MLOAD SWAP1 POP SWAP2 SWAP1 POP JUMP JUMPDEST PUSH1 0x0 DUP3 DUP3 MSTORE PUSH1 0x20 DUP3 ADD SWAP1 POP SWAP3 SWAP2 POP POP JUMP JUMPDEST PUSH1 0x0 DUP2 SWAP1 POP PUSH1 0x20 DUP3 ADD SWAP1 POP SWAP2 SWAP1 POP JUMP JUMPDEST PUSH2 0x1351 DUP2 PUSH2 0xD37 JUMP JUMPDEST DUP3 MSTORE POP POP JUMP JUMPDEST PUSH1 0x0 PUSH2 0x1363 DUP4 DUP4 PUSH2 0x1348 JUMP JUMPDEST PUSH1 0x20 DUP4 ADD SWAP1 POP SWAP3 SWAP2 POP POP JUMP JUMPDEST PUSH1 0x0 PUSH1 0x20 DUP3 ADD SWAP1 POP SWAP2 SWAP1 POP JUMP JUMPDEST PUSH1 0x0 PUSH2 0x1387 DUP3 PUSH2 0x131C JUMP JUMPDEST PUSH2 0x1391 DUP2 DUP6 PUSH2 0x1327 JUMP JUMPDEST SWAP4 POP PUSH2 0x139C DUP4 PUSH2 0x1338 JUMP JUMPDEST DUP1 PUSH1 0x0 JUMPDEST DUP4 DUP2 LT ISZERO PUSH2 0x13CD JUMPI DUP2 MLOAD PUSH2 0x13B4 DUP9 DUP3 PUSH2 0x1357 JUMP JUMPDEST SWAP8 POP PUSH2 0x13BF DUP4 PUSH2 0x136F JUMP JUMPDEST SWAP3 POP POP PUSH1 0x1 DUP2 ADD SWAP1 POP PUSH2 0x13A0 JUMP JUMPDEST POP DUP6 SWAP4 POP POP POP POP SWAP3 SWAP2 POP POP JUMP JUMPDEST PUSH1 0x0 PUSH1 0x60 DUP3 ADD SWAP1 POP PUSH2 0x13EF PUSH1 0x0 DUP4 ADD DUP7 PUSH2 0x1138 JUMP JUMPDEST DUP2 DUP2 SUB PUSH1 0x20 DUP4 ADD MSTORE PUSH2 0x1401 DUP2 DUP6 PUSH2 0x12BE JUMP JUMPDEST SWAP1 POP DUP2 DUP2 SUB PUSH1 0x40 DUP4 ADD MSTORE PUSH2 0x1415 DUP2 DUP5 PUSH2 0x137C JUMP JUMPDEST SWAP1 POP SWAP5 SWAP4 POP POP POP POP JUMP JUMPDEST PUSH1 0x0 DUP2 SWAP1 POP SWAP2 SWAP1 POP JUMP JUMPDEST PUSH1 0x0 DUP2 SWAP1 POP SWAP2 SWAP1 POP JUMP JUMPDEST PUSH1 0x0 PUSH2 0x144E PUSH2 0x1449 PUSH2 0x1444 DUP5 PUSH2 0x141F JUMP JUMPDEST PUSH2 0x1429 JUMP JUMPDEST PUSH2 0xD37 JUMP JUMPDEST SWAP1 POP SWAP2 SWAP1 POP JUMP JUMPDEST PUSH2 0x145E DUP2 PUSH2 0x1433 JUMP JUMPDEST DUP3 MSTORE POP POP JUMP JUMPDEST PUSH1 0x0 DUP2 SWAP1 POP SWAP2 SWAP1 POP JUMP JUMPDEST PUSH1 0x0 PUSH2 0x1489 PUSH2 0x1484 PUSH2 0x147F DUP5 PUSH2 0x1464 JUMP JUMPDEST PUSH2 0x1429 JUMP JUMPDEST PUSH2 0xD37 JUMP JUMPDEST SWAP1 POP SWAP2 SWAP1 POP JUMP JUMPDEST PUSH2 0x1499 DUP2 PUSH2 0x146E JUMP JUMPDEST DUP3 MSTORE POP POP JUMP JUMPDEST PUSH1 0x0 DUP2 SWAP1 POP SWAP2 SWAP1 POP JUMP JUMPDEST PUSH1 0x0 PUSH2 0x14C4 PUSH2 0x14BF PUSH2 0x14BA DUP5 PUSH2 0x149F JUMP JUMPDEST PUSH2 0x1429 JUMP JUMPDEST PUSH2 0xD37 JUMP JUMPDEST SWAP1 POP SWAP2 SWAP1 POP JUMP JUMPDEST PUSH2 0x14D4 DUP2 PUSH2 0x14A9 JUMP JUMPDEST DUP3 MSTORE POP POP JUMP JUMPDEST PUSH1 0x0 DUP2 MLOAD SWAP1 POP SWAP2 SWAP1 POP JUMP JUMPDEST PUSH1 0x0 DUP3 DUP3 MSTORE PUSH1 0x20 DUP3 ADD SWAP1 POP SWAP3 SWAP2 POP POP JUMP JUMPDEST PUSH1 0x0 JUMPDEST DUP4 DUP2 LT ISZERO PUSH2 0x1514 JUMPI DUP1 DUP3 ADD MLOAD DUP2 DUP5 ADD MSTORE PUSH1 0x20 DUP2 ADD SWAP1 POP PUSH2 0x14F9 JUMP JUMPDEST PUSH1 0x0 DUP5 DUP5 ADD MSTORE POP POP POP POP JUMP JUMPDEST PUSH1 0x0 PUSH2 0x152B DUP3 PUSH2 0x14DA JUMP JUMPDEST PUSH2 0x1535 DUP2 DUP6 PUSH2 0x14E5 JUMP JUMPDEST SWAP4 POP PUSH2 0x1545 DUP2 DUP6 PUSH1 0x20 DUP7 ADD PUSH2 0x14F6 JUMP JUMPDEST PUSH2 0x154E DUP2 PUSH2 0xBB7 JUMP JUMPDEST DUP5 ADD SWAP2 POP POP SWAP3 SWAP2 POP POP JUMP JUMPDEST PUSH1 0x0 PUSH1 0xC0 DUP3 ADD SWAP1 POP PUSH2 0x156E PUSH1 0x0 DUP4 ADD DUP10 PUSH2 0x1138 JUMP JUMPDEST PUSH2 0x157B PUSH1 0x20 DUP4 ADD DUP9 PUSH2 0x1455 JUMP JUMPDEST PUSH2 0x1588 PUSH1 0x40 DUP4 ADD DUP8 PUSH2 0x1490 JUMP JUMPDEST PUSH2 0x1595 PUSH1 0x60 DUP4 ADD DUP7 PUSH2 0x14CB JUMP JUMPDEST PUSH2 0x15A2 PUSH1 0x80 DUP4 ADD DUP6 PUSH2 0x1147 JUMP JUMPDEST DUP2 DUP2 SUB PUSH1 0xA0 DUP4 ADD MSTORE PUSH2 0x15B4 DUP2 DUP5 PUSH2 0x1520 JUMP JUMPDEST SWAP1 POP SWAP8 SWAP7 POP POP POP POP POP POP POP JUMP JUMPDEST PUSH1 0x0 DUP1 REVERT JUMPDEST PUSH1 0x0 PUSH8 0xFFFFFFFFFFFFFFFF DUP3 GT ISZERO PUSH2 0x15E1 JUMPI PUSH2 0x15E0 PUSH2 0xBC8 JUMP JUMPDEST JUMPDEST PUSH2 0x15EA DUP3 PUSH2 0xBB7 JUMP JUMPDEST SWAP1 POP PUSH1 0x20 DUP2 ADD SWAP1 POP SWAP2 SWAP1 POP JUMP JUMPDEST PUSH1 0x0 PUSH2 0x160A PUSH2 0x1605 DUP5 PUSH2 0x15C6 JUMP JUMPDEST PUSH2 0xC28 JUMP JUMPDEST SWAP1 POP DUP3 DUP2 MSTORE PUSH1 0x20 DUP2 ADD DUP5 DUP5 DUP5 ADD GT ISZERO PUSH2 0x1626 JUMPI PUSH2 0x1625 PUSH2 0x15C1 JUMP JUMPDEST JUMPDEST PUSH2 0x1631 DUP5 DUP3 DUP6 PUSH2 0x14F6 JUMP JUMPDEST POP SWAP4 SWAP3 POP POP POP JUMP JUMPDEST PUSH1 0x0 DUP3 PUSH1 0x1F DUP4 ADD SLT PUSH2 0x164E JUMPI PUSH2 0x164D PUSH2 0xBB2 JUMP JUMPDEST JUMPDEST DUP2 MLOAD PUSH2 0x165E DUP5 DUP3 PUSH1 0x20 DUP7 ADD PUSH2 0x15F7 JUMP JUMPDEST SWAP2 POP POP SWAP3 SWAP2 POP POP JUMP JUMPDEST PUSH1 0x0 PUSH1 0x20 DUP3 DUP5 SUB SLT ISZERO PUSH2 0x167D JUMPI PUSH2 0x167C PUSH2 0xB4A JUMP JUMPDEST JUMPDEST PUSH1 0x0 DUP3 ADD MLOAD PUSH8 0xFFFFFFFFFFFFFFFF DUP2 GT ISZERO PUSH2 0x169B JUMPI PUSH2 0x169A PUSH2 0xB4F JUMP JUMPDEST JUMPDEST PUSH2 0x16A7 DUP5 DUP3 DUP6 ADD PUSH2 0x1639 JUMP JUMPDEST SWAP2 POP POP SWAP3 SWAP2 POP POP JUMP JUMPDEST PUSH1 0x0 DUP2 SWAP1 POP SWAP3 SWAP2 POP POP JUMP JUMPDEST PUSH1 0x0 PUSH2 0x16C6 DUP3 PUSH2 0x14DA JUMP JUMPDEST PUSH2 0x16D0 DUP2 DUP6 PUSH2 0x16B0 JUMP JUMPDEST SWAP4 POP PUSH2 0x16E0 DUP2 DUP6 PUSH1 0x20 DUP7 ADD PUSH2 0x14F6 JUMP JUMPDEST DUP1 DUP5 ADD SWAP2 POP POP SWAP3 SWAP2 POP POP JUMP JUMPDEST PUSH1 0x0 PUSH2 0x16F8 DUP3 DUP5 PUSH2 0x16BB JUMP JUMPDEST SWAP2 POP DUP2 SWAP1 POP SWAP3 SWAP2 POP POP JUMP JUMPDEST PUSH1 0x0 PUSH1 0x60 DUP3 ADD SWAP1 POP DUP2 DUP2 SUB PUSH1 0x0 DUP4 ADD MSTORE PUSH2 0x171D DUP2 DUP7 PUSH2 0x12BE JUMP JUMPDEST SWAP1 POP DUP2 DUP2 SUB PUSH1 0x20 DUP4 ADD MSTORE PUSH2 0x1731 DUP2 DUP6 PUSH2 0x137C JUMP JUMPDEST SWAP1 POP PUSH2 0x1740 PUSH1 0x40 DUP4 ADD DUP5 PUSH2 0x1147 JUMP JUMPDEST SWAP5 SWAP4 POP POP POP POP JUMP JUMPDEST PUSH32 0x546F6B656E207472616E7366657246726F6D206661696C656421200000000000 PUSH1 0x0 DUP3 ADD MSTORE POP JUMP JUMPDEST PUSH1 0x0 PUSH2 0x177E PUSH1 0x1B DUP4 PUSH2 0xFE1 JUMP JUMPDEST SWAP2 POP PUSH2 0x1789 DUP3 PUSH2 0x1748 JUMP JUMPDEST PUSH1 0x20 DUP3 ADD SWAP1 POP SWAP2 SWAP1 POP JUMP JUMPDEST PUSH1 0x0 PUSH1 0x20 DUP3 ADD SWAP1 POP DUP2 DUP2 SUB PUSH1 0x0 DUP4 ADD MSTORE PUSH2 0x17AD DUP2 PUSH2 0x1771 JUMP JUMPDEST SWAP1 POP SWAP2 SWAP1 POP JUMP JUMPDEST PUSH1 0x0 PUSH1 0x40 DUP3 ADD SWAP1 POP PUSH2 0x17C9 PUSH1 0x0 DUP4 ADD DUP6 PUSH2 0x1138 JUMP JUMPDEST PUSH2 0x17D6 PUSH1 0x20 DUP4 ADD DUP5 PUSH2 0x1147 JUMP JUMPDEST SWAP4 SWAP3 POP POP POP JUMP JUMPDEST PUSH32 0x546F6B656E207472616E73666572206661696C65640000000000000000000000 PUSH1 0x0 DUP3 ADD MSTORE POP JUMP JUMPDEST PUSH1 0x0 PUSH2 0x1813 PUSH1 0x15 DUP4 PUSH2 0xFE1 JUMP JUMPDEST SWAP2 POP PUSH2 0x181E DUP3 PUSH2 0x17DD JUMP JUMPDEST PUSH1 0x20 DUP3 ADD SWAP1 POP SWAP2 SWAP1 POP JUMP JUMPDEST PUSH1 0x0 PUSH1 0x20 DUP3 ADD SWAP1 POP DUP2 DUP2 SUB PUSH1 0x0 DUP4 ADD MSTORE PUSH2 0x1842 DUP2 PUSH2 0x1806 JUMP JUMPDEST SWAP1 POP SWAP2 SWAP1 POP JUMP JUMPDEST PUSH1 0x0 PUSH1 0x20 DUP3 ADD SWAP1 POP PUSH2 0x185E PUSH1 0x0 DUP4 ADD DUP5 PUSH2 0x1147 JUMP JUMPDEST SWAP3 SWAP2 POP POP JUMP JUMPDEST PUSH1 0x0 PUSH1 0x20 DUP3 ADD SWAP1 POP PUSH2 0x1879 PUSH1 0x0 DUP4 ADD DUP5 PUSH2 0x1138 JUMP JUMPDEST SWAP3 SWAP2 POP POP JUMP JUMPDEST PUSH1 0x0 DUP2 MLOAD SWAP1 POP PUSH2 0x188E DUP2 PUSH2 0xD41 JUMP JUMPDEST SWAP3 SWAP2 POP POP JUMP JUMPDEST PUSH1 0x0 PUSH1 0x20 DUP3 DUP5 SUB SLT ISZERO PUSH2 0x18AA JUMPI PUSH2 0x18A9 PUSH2 0xB4A JUMP JUMPDEST JUMPDEST PUSH1 0x0 PUSH2 0x18B8 DUP5 DUP3 DUP6 ADD PUSH2 0x187F JUMP JUMPDEST SWAP2 POP POP SWAP3 SWAP2 POP POP JUMP JUMPDEST PUSH1 0x0 PUSH1 0xC0 DUP3 ADD SWAP1 POP PUSH2 0x18D6 PUSH1 0x0 DUP4 ADD DUP10 PUSH2 0x1138 JUMP JUMPDEST DUP2 DUP2 SUB PUSH1 0x20 DUP4 ADD MSTORE PUSH2 0x18E8 DUP2 DUP9 PUSH2 0x12BE JUMP JUMPDEST SWAP1 POP DUP2 DUP2 SUB PUSH1 0x40 DUP4 ADD MSTORE PUSH2 0x18FC DUP2 DUP8 PUSH2 0x137C JUMP JUMPDEST SWAP1 POP PUSH2 0x190B PUSH1 0x60 DUP4 ADD DUP7 PUSH2 0x1147 JUMP JUMPDEST PUSH2 0x1918 PUSH1 0x80 DUP4 ADD DUP6 PUSH2 0x1147 JUMP JUMPDEST PUSH2 0x1925 PUSH1 0xA0 DUP4 ADD DUP5 PUSH2 0x1138 JUMP JUMPDEST SWAP8 SWAP7 POP POP POP POP POP POP POP JUMP JUMPDEST PUSH32 0x4D69736D61746368656420726563697069656E747320616E6420616D6F756E74 PUSH1 0x0 DUP3 ADD MSTORE PUSH32 0x7300000000000000000000000000000000000000000000000000000000000000 PUSH1 0x20 DUP3 ADD MSTORE POP JUMP JUMPDEST PUSH1 0x0 PUSH2 0x198C PUSH1 0x21 DUP4 PUSH2 0xFE1 JUMP JUMPDEST SWAP2 POP PUSH2 0x1997 DUP3 PUSH2 0x1930 JUMP JUMPDEST PUSH1 0x40 DUP3 ADD SWAP1 POP SWAP2 SWAP1 POP JUMP JUMPDEST PUSH1 0x0 PUSH1 0x20 DUP3 ADD SWAP1 POP DUP2 DUP2 SUB PUSH1 0x0 DUP4 ADD MSTORE PUSH2 0x19BB DUP2 PUSH2 0x197F JUMP JUMPDEST SWAP1 POP SWAP2 SWAP1 POP JUMP INVALID LOG2 PUSH5 0x6970667358 0x22 SLT KECCAK256 0xD8 0xEA MSTORE 0xEF 0xB6 COINBASE 0xC9 SAR 0xC8 LOG0 0xAF SWAP5 CALLDATACOPY PUSH11 0x379C8283EEB8BA7EF78E5C 0x2F 0xC6 PUSH31 0x46B6179864736F6C6343000812003300000000000000000000000000000000 "
	},
	"Assembly": ".code\n  PUSH 80\t\t\tcontract DisDrop{\\r\\n\\r\\n    c...\n  PUSH 40\t\t\tcontract DisDrop{\\r\\n\\r\\n    c...\n  MSTORE \t\t\tcontract DisDrop{\\r\\n\\r\\n    c...\n  PUSH 802\t\t\tcts/utils/Predeploy.sol\";\\r\\ni...\n  PUSH 0\t\t\tISchedule  scheduler = ISchedu...\n  DUP1 \t\t\tISchedule  scheduler = ISchedu...\n  PUSH 100\t\t\tISchedule  scheduler = ISchedu...\n  EXP \t\t\tISchedule  scheduler = ISchedu...\n  DUP2 \t\t\tISchedule  scheduler = ISchedu...\n  SLOAD \t\t\tISchedule  scheduler = ISchedu...\n  DUP2 \t\t\tISchedule  scheduler = ISchedu...\n  PUSH FFFFFFFFFFFFFFFFFFFFFFFFFFFFFFFFFFFFFFFF\t\t\tISchedule  scheduler = ISchedu...\n  MUL \t\t\tISchedule  scheduler = ISchedu...\n  NOT \t\t\tISchedule  scheduler = ISchedu...\n  AND \t\t\tISchedule  scheduler = ISchedu...\n  SWAP1 \t\t\tISchedule  scheduler = ISchedu...\n  DUP4 \t\t\tISchedule  scheduler = ISchedu...\n  PUSH FFFFFFFFFFFFFFFFFFFFFFFFFFFFFFFFFFFFFFFF\t\t\tISchedule  scheduler = ISchedu...\n  AND \t\t\tISchedule  scheduler = ISchedu...\n  MUL \t\t\tISchedule  scheduler = ISchedu...\n  OR \t\t\tISchedule  scheduler = ISchedu...\n  SWAP1 \t\t\tISchedule  scheduler = ISchedu...\n  SSTORE \t\t\tISchedule  scheduler = ISchedu...\n  POP \t\t\tISchedule  scheduler = ISchedu...\n  PUSH 801\t\t\tla-network/contracts/oracle/IO...\n  PUSH 1\t\t\tIOracle oracle = IOracle(ORACL...\n  PUSH 0\t\t\tIOracle oracle = IOracle(ORACL...\n  PUSH 100\t\t\tIOracle oracle = IOracle(ORACL...\n  EXP \t\t\tIOracle oracle = IOracle(ORACL...\n  DUP2 \t\t\tIOracle oracle = IOracle(ORACL...\n  SLOAD \t\t\tIOracle oracle = IOracle(ORACL...\n  DUP2 \t\t\tIOracle oracle = IOracle(ORACL...\n  PUSH FFFFFFFFFFFFFFFFFFFFFFFFFFFFFFFFFFFFFFFF\t\t\tIOracle oracle = IOracle(ORACL...\n  MUL \t\t\tIOracle oracle = IOracle(ORACL...\n  NOT \t\t\tIOracle oracle = IOracle(ORACL...\n  AND \t\t\tIOracle oracle = IOracle(ORACL...\n  SWAP1 \t\t\tIOracle oracle = IOracle(ORACL...\n  DUP4 \t\t\tIOracle oracle = IOracle(ORACL...\n  PUSH FFFFFFFFFFFFFFFFFFFFFFFFFFFFFFFFFFFFFFFF\t\t\tIOracle oracle = IOracle(ORACL...\n  AND \t\t\tIOracle oracle = IOracle(ORACL...\n  MUL \t\t\tIOracle oracle = IOracle(ORACL...\n  OR \t\t\tIOracle oracle = IOracle(ORACL...\n  SWAP1 \t\t\tIOracle oracle = IOracle(ORACL...\n  SSTORE \t\t\tIOracle oracle = IOracle(ORACL...\n  POP \t\t\tIOracle oracle = IOracle(ORACL...\n  PUSH #[$] 0000000000000000000000000000000000000000000000000000000000000000\t\t\tcontract DisDrop{\\r\\n\\r\\n    c...\n  DUP1 \t\t\tcontract DisDrop{\\r\\n\\r\\n    c...\n  PUSH [$] 0000000000000000000000000000000000000000000000000000000000000000\t\t\tcontract DisDrop{\\r\\n\\r\\n    c...\n  PUSH 0\t\t\tcontract DisDrop{\\r\\n\\r\\n    c...\n  CODECOPY \t\t\tcontract DisDrop{\\r\\n\\r\\n    c...\n  PUSH 0\t\t\tcontract DisDrop{\\r\\n\\r\\n    c...\n  RETURN \t\t\tcontract DisDrop{\\r\\n\\r\\n    c...\n.data\n  0:\n    .code\n      PUSH 80\t\t\tcontract DisDrop{\\r\\n\\r\\n    c...\n      PUSH 40\t\t\tcontract DisDrop{\\r\\n\\r\\n    c...\n      MSTORE \t\t\tcontract DisDrop{\\r\\n\\r\\n    c...\n      PUSH 4\t\t\tcontract DisDrop{\\r\\n\\r\\n    c...\n      CALLDATASIZE \t\t\tcontract DisDrop{\\r\\n\\r\\n    c...\n      LT \t\t\tcontract DisDrop{\\r\\n\\r\\n    c...\n      PUSH [tag] 1\t\t\tcontract DisDrop{\\r\\n\\r\\n    c...\n      JUMPI \t\t\tcontract DisDrop{\\r\\n\\r\\n    c...\n      PUSH 0\t\t\tcontract DisDrop{\\r\\n\\r\\n    c...\n      CALLDATALOAD \t\t\tcontract DisDrop{\\r\\n\\r\\n    c...\n      PUSH E0\t\t\tcontract DisDrop{\\r\\n\\r\\n    c...\n      SHR \t\t\tcontract DisDrop{\\r\\n\\r\\n    c...\n      DUP1 \t\t\tcontract DisDrop{\\r\\n\\r\\n    c...\n      PUSH 5B93F507\t\t\tcontract DisDrop{\\r\\n\\r\\n    c...\n      EQ \t\t\tcontract DisDrop{\\r\\n\\r\\n    c...\n      PUSH [tag] 3\t\t\tcontract DisDrop{\\r\\n\\r\\n    c...\n      JUMPI \t\t\tcontract DisDrop{\\r\\n\\r\\n    c...\n      DUP1 \t\t\tcontract DisDrop{\\r\\n\\r\\n    c...\n      PUSH ED44B388\t\t\tcontract DisDrop{\\r\\n\\r\\n    c...\n      EQ \t\t\tcontract DisDrop{\\r\\n\\r\\n    c...\n      PUSH [tag] 4\t\t\tcontract DisDrop{\\r\\n\\r\\n    c...\n      JUMPI \t\t\tcontract DisDrop{\\r\\n\\r\\n    c...\n      DUP1 \t\t\tcontract DisDrop{\\r\\n\\r\\n    c...\n      PUSH F2B0244F\t\t\tcontract DisDrop{\\r\\n\\r\\n    c...\n      EQ \t\t\tcontract DisDrop{\\r\\n\\r\\n    c...\n      PUSH [tag] 5\t\t\tcontract DisDrop{\\r\\n\\r\\n    c...\n      JUMPI \t\t\tcontract DisDrop{\\r\\n\\r\\n    c...\n      PUSH [tag] 2\t\t\tcontract DisDrop{\\r\\n\\r\\n    c...\n      JUMP \t\t\tcontract DisDrop{\\r\\n\\r\\n    c...\n    tag 1\t\t\tcontract DisDrop{\\r\\n\\r\\n    c...\n      JUMPDEST \t\t\tcontract DisDrop{\\r\\n\\r\\n    c...\n      CALLDATASIZE \t\t\tcontract DisDrop{\\r\\n\\r\\n    c...\n      PUSH [tag] 2\t\t\tcontract DisDrop{\\r\\n\\r\\n    c...\n      JUMPI \t\t\tcontract DisDrop{\\r\\n\\r\\n    c...\n      STOP \t\t\tcontract DisDrop{\\r\\n\\r\\n    c...\n    tag 2\t\t\tcontract DisDrop{\\r\\n\\r\\n    c...\n      JUMPDEST \t\t\tcontract DisDrop{\\r\\n\\r\\n    c...\n      STOP \t\t\tcontract DisDrop{\\r\\n\\r\\n    c...\n    tag 3\t\t\tfunction scheduled_dispersal(a...\n      JUMPDEST \t\t\tfunction scheduled_dispersal(a...\n      PUSH [tag] 10\t\t\tfunction scheduled_dispersal(a...\n      PUSH 4\t\t\tfunction scheduled_dispersal(a...\n      DUP1 \t\t\tfunction scheduled_dispersal(a...\n      CALLDATASIZE \t\t\tfunction scheduled_dispersal(a...\n      SUB \t\t\tfunction scheduled_dispersal(a...\n      DUP2 \t\t\tfunction scheduled_dispersal(a...\n      ADD \t\t\tfunction scheduled_dispersal(a...\n      SWAP1 \t\t\tfunction scheduled_dispersal(a...\n      PUSH [tag] 11\t\t\tfunction scheduled_dispersal(a...\n      SWAP2 \t\t\tfunction scheduled_dispersal(a...\n      SWAP1 \t\t\tfunction scheduled_dispersal(a...\n      PUSH [tag] 12\t\t\tfunction scheduled_dispersal(a...\n      JUMP \t\t\tfunction scheduled_dispersal(a...\n    tag 11\t\t\tfunction scheduled_dispersal(a...\n      JUMPDEST \t\t\tfunction scheduled_dispersal(a...\n      PUSH [tag] 13\t\t\tfunction scheduled_dispersal(a...\n      JUMP \t\t\tfunction scheduled_dispersal(a...\n    tag 10\t\t\tfunction scheduled_dispersal(a...\n      JUMPDEST \t\t\tfunction scheduled_dispersal(a...\n      STOP \t\t\tfunction scheduled_dispersal(a...\n    tag 4\t\t\tfunction dispersal(address tok...\n      JUMPDEST \t\t\tfunction dispersal(address tok...\n      PUSH [tag] 14\t\t\tfunction dispersal(address tok...\n      PUSH 4\t\t\tfunction dispersal(address tok...\n      DUP1 \t\t\tfunction dispersal(address tok...\n      CALLDATASIZE \t\t\tfunction dispersal(address tok...\n      SUB \t\t\tfunction dispersal(address tok...\n      DUP2 \t\t\tfunction dispersal(address tok...\n      ADD \t\t\tfunction dispersal(address tok...\n      SWAP1 \t\t\tfunction dispersal(address tok...\n      PUSH [tag] 15\t\t\tfunction dispersal(address tok...\n      SWAP2 \t\t\tfunction dispersal(address tok...\n      SWAP1 \t\t\tfunction dispersal(address tok...\n      PUSH [tag] 16\t\t\tfunction dispersal(address tok...\n      JUMP \t\t\tfunction dispersal(address tok...\n    tag 15\t\t\tfunction dispersal(address tok...\n      JUMPDEST \t\t\tfunction dispersal(address tok...\n      PUSH [tag] 17\t\t\tfunction dispersal(address tok...\n      JUMP \t\t\tfunction dispersal(address tok...\n    tag 14\t\t\tfunction dispersal(address tok...\n      JUMPDEST \t\t\tfunction dispersal(address tok...\n      STOP \t\t\tfunction dispersal(address tok...\n    tag 5\t\t\tfunction priceTriggeredDispers...\n      JUMPDEST \t\t\tfunction priceTriggeredDispers...\n      PUSH [tag] 18\t\t\tfunction priceTriggeredDispers...\n      PUSH 4\t\t\tfunction priceTriggeredDispers...\n      DUP1 \t\t\tfunction priceTriggeredDispers...\n      CALLDATASIZE \t\t\tfunction priceTriggeredDispers...\n      SUB \t\t\tfunction priceTriggeredDispers...\n      DUP2 \t\t\tfunction priceTriggeredDispers...\n      ADD \t\t\tfunction priceTriggeredDispers...\n      SWAP1 \t\t\tfunction priceTriggeredDispers...\n      PUSH [tag] 19\t\t\tfunction priceTriggeredDispers...\n      SWAP2 \t\t\tfunction priceTriggeredDispers...\n      SWAP1 \t\t\tfunction priceTriggeredDispers...\n      PUSH [tag] 20\t\t\tfunction priceTriggeredDispers...\n      JUMP \t\t\tfunction priceTriggeredDispers...\n    tag 19\t\t\tfunction priceTriggeredDispers...\n      JUMPDEST \t\t\tfunction priceTriggeredDispers...\n      PUSH [tag] 21\t\t\tfunction priceTriggeredDispers...\n      JUMP \t\t\tfunction priceTriggeredDispers...\n    tag 18\t\t\tfunction priceTriggeredDispers...\n      JUMPDEST \t\t\tfunction priceTriggeredDispers...\n      STOP \t\t\tfunction priceTriggeredDispers...\n    tag 13\t\t\tfunction scheduled_dispersal(a...\n      JUMPDEST \t\t\tfunction scheduled_dispersal(a...\n      PUSH 0\t\t\tIERC20 token\n      DUP5 \t\t\ttokenAddress\n      SWAP1 \t\t\tIERC20 token = IERC20(tokenAdd...\n      POP \t\t\tIERC20 token = IERC20(tokenAdd...\n      DUP3 \t\t\tamounts\n      MLOAD \t\t\tamounts.length\n      DUP5 \t\t\trecipients\n      MLOAD \t\t\trecipients.length\n      EQ \t\t\trecipients.length == amounts.l...\n      PUSH [tag] 23\t\t\trequire(recipients.length == a...\n      JUMPI \t\t\trequire(recipients.length == a...\n      PUSH 40\t\t\trequire(recipients.length == a...\n      MLOAD \t\t\trequire(recipients.length == a...\n      PUSH 8C379A000000000000000000000000000000000000000000000000000000000\t\t\trequire(recipients.length == a...\n      DUP2 \t\t\trequire(recipients.length == a...\n      MSTORE \t\t\trequire(recipients.length == a...\n      PUSH 4\t\t\trequire(recipients.length == a...\n      ADD \t\t\trequire(recipients.length == a...\n      PUSH [tag] 24\t\t\trequire(recipients.length == a...\n      SWAP1 \t\t\trequire(recipients.length == a...\n      PUSH [tag] 25\t\t\trequire(recipients.length == a...\n      JUMP \t\t\trequire(recipients.length == a...\n    tag 24\t\t\trequire(recipients.length == a...\n      JUMPDEST \t\t\trequire(recipients.length == a...\n      PUSH 40\t\t\trequire(recipients.length == a...\n      MLOAD \t\t\trequire(recipients.length == a...\n      DUP1 \t\t\trequire(recipients.length == a...\n      SWAP2 \t\t\trequire(recipients.length == a...\n      SUB \t\t\trequire(recipients.length == a...\n      SWAP1 \t\t\trequire(recipients.length == a...\n      REVERT \t\t\trequire(recipients.length == a...\n    tag 23\t\t\trequire(recipients.length == a...\n      JUMPDEST \t\t\trequire(recipients.length == a...\n      PUSH 0\t\t\tuint256 total\n      DUP1 \t\t\tuint256 i\n    tag 26\t\t\tfor (uint256 i = 0; i < amount...\n      JUMPDEST \t\t\tfor (uint256 i = 0; i < amount...\n      DUP5 \t\t\tamounts\n      MLOAD \t\t\tamounts.length\n      DUP2 \t\t\ti\n      LT \t\t\ti < amounts.length\n      ISZERO \t\t\tfor (uint256 i = 0; i < amount...\n      PUSH [tag] 27\t\t\tfor (uint256 i = 0; i < amount...\n      JUMPI \t\t\tfor (uint256 i = 0; i < amount...\n      DUP5 \t\t\tamounts\n      DUP2 \t\t\ti\n      DUP2 \t\t\tamounts[i]\n      MLOAD \t\t\tamounts[i]\n      DUP2 \t\t\tamounts[i]\n      LT \t\t\tamounts[i]\n      PUSH [tag] 29\t\t\tamounts[i]\n      JUMPI \t\t\tamounts[i]\n      PUSH [tag] 30\t\t\tamounts[i]\n      PUSH [tag] 31\t\t\tamounts[i]\n      JUMP \t\t\tamounts[i]\n    tag 30\t\t\tamounts[i]\n      JUMPDEST \t\t\tamounts[i]\n    tag 29\t\t\tamounts[i]\n      JUMPDEST \t\t\tamounts[i]\n      PUSH 20\t\t\tamounts[i]\n      MUL \t\t\tamounts[i]\n      PUSH 20\t\t\tamounts[i]\n      ADD \t\t\tamounts[i]\n      ADD \t\t\tamounts[i]\n      MLOAD \t\t\tamounts[i]\n      DUP3 \t\t\ttotal\n      PUSH [tag] 32\t\t\ttotal + amounts[i]\n      SWAP2 \t\t\ttotal + amounts[i]\n      SWAP1 \t\t\ttotal + amounts[i]\n      PUSH [tag] 33\t\t\ttotal + amounts[i]\n      JUMP \t\t\ttotal + amounts[i]\n    tag 32\t\t\ttotal + amounts[i]\n      JUMPDEST \t\t\ttotal + amounts[i]\n      SWAP2 \t\t\ttotal = total + amounts[i]\n      POP \t\t\ttotal = total + amounts[i]\n      DUP1 \t\t\ti++\n      DUP1 \t\t\ti++\n      PUSH [tag] 34\t\t\ti++\n      SWAP1 \t\t\ti++\n      PUSH [tag] 35\t\t\ti++\n      JUMP \t\t\ti++\n    tag 34\t\t\ti++\n      JUMPDEST \t\t\ti++\n      SWAP2 \t\t\ti++\n      POP \t\t\ti++\n      POP \t\t\ti++\n      PUSH [tag] 26\t\t\tfor (uint256 i = 0; i < amount...\n      JUMP \t\t\tfor (uint256 i = 0; i < amount...\n    tag 27\t\t\tfor (uint256 i = 0; i < amount...\n      JUMPDEST \t\t\tfor (uint256 i = 0; i < amount...\n      POP \t\t\tfor (uint256 i = 0; i < amount...\n      DUP2 \t\t\ttoken\n      PUSH FFFFFFFFFFFFFFFFFFFFFFFFFFFFFFFFFFFFFFFF\t\t\ttoken.transferFrom\n      AND \t\t\ttoken.transferFrom\n      PUSH 23B872DD\t\t\ttoken.transferFrom\n      CALLER \t\t\tmsg.sender\n      ADDRESS \t\t\tthis\n      DUP5 \t\t\ttotal\n      PUSH 40\t\t\ttoken.transferFrom(msg.sender,...\n      MLOAD \t\t\ttoken.transferFrom(msg.sender,...\n      DUP5 \t\t\ttoken.transferFrom(msg.sender,...\n      PUSH FFFFFFFF\t\t\ttoken.transferFrom(msg.sender,...\n      AND \t\t\ttoken.transferFrom(msg.sender,...\n      PUSH E0\t\t\ttoken.transferFrom(msg.sender,...\n      SHL \t\t\ttoken.transferFrom(msg.sender,...\n      DUP2 \t\t\ttoken.transferFrom(msg.sender,...\n      MSTORE \t\t\ttoken.transferFrom(msg.sender,...\n      PUSH 4\t\t\ttoken.transferFrom(msg.sender,...\n      ADD \t\t\ttoken.transferFrom(msg.sender,...\n      PUSH [tag] 36\t\t\ttoken.transferFrom(msg.sender,...\n      SWAP4 \t\t\ttoken.transferFrom(msg.sender,...\n      SWAP3 \t\t\ttoken.transferFrom(msg.sender,...\n      SWAP2 \t\t\ttoken.transferFrom(msg.sender,...\n      SWAP1 \t\t\ttoken.transferFrom(msg.sender,...\n      PUSH [tag] 37\t\t\ttoken.transferFrom(msg.sender,...\n      JUMP \t\t\ttoken.transferFrom(msg.sender,...\n    tag 36\t\t\ttoken.transferFrom(msg.sender,...\n      JUMPDEST \t\t\ttoken.transferFrom(msg.sender,...\n      PUSH 20\t\t\ttoken.transferFrom(msg.sender,...\n      PUSH 40\t\t\ttoken.transferFrom(msg.sender,...\n      MLOAD \t\t\ttoken.transferFrom(msg.sender,...\n      DUP1 \t\t\ttoken.transferFrom(msg.sender,...\n      DUP4 \t\t\ttoken.transferFrom(msg.sender,...\n      SUB \t\t\ttoken.transferFrom(msg.sender,...\n      DUP2 \t\t\ttoken.transferFrom(msg.sender,...\n      PUSH 0\t\t\ttoken.transferFrom(msg.sender,...\n      DUP8 \t\t\ttoken.transferFrom(msg.sender,...\n      GAS \t\t\ttoken.transferFrom(msg.sender,...\n      CALL \t\t\ttoken.transferFrom(msg.sender,...\n      ISZERO \t\t\ttoken.transferFrom(msg.sender,...\n      DUP1 \t\t\ttoken.transferFrom(msg.sender,...\n      ISZERO \t\t\ttoken.transferFrom(msg.sender,...\n      PUSH [tag] 39\t\t\ttoken.transferFrom(msg.sender,...\n      JUMPI \t\t\ttoken.transferFrom(msg.sender,...\n      RETURNDATASIZE \t\t\ttoken.transferFrom(msg.sender,...\n      PUSH 0\t\t\ttoken.transferFrom(msg.sender,...\n      DUP1 \t\t\ttoken.transferFrom(msg.sender,...\n      RETURNDATACOPY \t\t\ttoken.transferFrom(msg.sender,...\n      RETURNDATASIZE \t\t\ttoken.transferFrom(msg.sender,...\n      PUSH 0\t\t\ttoken.transferFrom(msg.sender,...\n      REVERT \t\t\ttoken.transferFrom(msg.sender,...\n    tag 39\t\t\ttoken.transferFrom(msg.sender,...\n      JUMPDEST \t\t\ttoken.transferFrom(msg.sender,...\n      POP \t\t\ttoken.transferFrom(msg.sender,...\n      POP \t\t\ttoken.transferFrom(msg.sender,...\n      POP \t\t\ttoken.transferFrom(msg.sender,...\n      POP \t\t\ttoken.transferFrom(msg.sender,...\n      PUSH 40\t\t\ttoken.transferFrom(msg.sender,...\n      MLOAD \t\t\ttoken.transferFrom(msg.sender,...\n      RETURNDATASIZE \t\t\ttoken.transferFrom(msg.sender,...\n      PUSH 1F\t\t\ttoken.transferFrom(msg.sender,...\n      NOT \t\t\ttoken.transferFrom(msg.sender,...\n      PUSH 1F\t\t\ttoken.transferFrom(msg.sender,...\n      DUP3 \t\t\ttoken.transferFrom(msg.sender,...\n      ADD \t\t\ttoken.transferFrom(msg.sender,...\n      AND \t\t\ttoken.transferFrom(msg.sender,...\n      DUP3 \t\t\ttoken.transferFrom(msg.sender,...\n      ADD \t\t\ttoken.transferFrom(msg.sender,...\n      DUP1 \t\t\ttoken.transferFrom(msg.sender,...\n      PUSH 40\t\t\ttoken.transferFrom(msg.sender,...\n      MSTORE \t\t\ttoken.transferFrom(msg.sender,...\n      POP \t\t\ttoken.transferFrom(msg.sender,...\n      DUP2 \t\t\ttoken.transferFrom(msg.sender,...\n      ADD \t\t\ttoken.transferFrom(msg.sender,...\n      SWAP1 \t\t\ttoken.transferFrom(msg.sender,...\n      PUSH [tag] 40\t\t\ttoken.transferFrom(msg.sender,...\n      SWAP2 \t\t\ttoken.transferFrom(msg.sender,...\n      SWAP1 \t\t\ttoken.transferFrom(msg.sender,...\n      PUSH [tag] 41\t\t\ttoken.transferFrom(msg.sender,...\n      JUMP \t\t\ttoken.transferFrom(msg.sender,...\n    tag 40\t\t\ttoken.transferFrom(msg.sender,...\n      JUMPDEST \t\t\ttoken.transferFrom(msg.sender,...\n      PUSH [tag] 42\t\t\trequire(token.transferFrom(msg...\n      JUMPI \t\t\trequire(token.transferFrom(msg...\n      PUSH 40\t\t\trequire(token.transferFrom(msg...\n      MLOAD \t\t\trequire(token.transferFrom(msg...\n      PUSH 8C379A000000000000000000000000000000000000000000000000000000000\t\t\trequire(token.transferFrom(msg...\n      DUP2 \t\t\trequire(token.transferFrom(msg...\n      MSTORE \t\t\trequire(token.transferFrom(msg...\n      PUSH 4\t\t\trequire(token.transferFrom(msg...\n      ADD \t\t\trequire(token.transferFrom(msg...\n      PUSH [tag] 43\t\t\trequire(token.transferFrom(msg...\n      SWAP1 \t\t\trequire(token.transferFrom(msg...\n      PUSH [tag] 44\t\t\trequire(token.transferFrom(msg...\n      JUMP \t\t\trequire(token.transferFrom(msg...\n    tag 43\t\t\trequire(token.transferFrom(msg...\n      JUMPDEST \t\t\trequire(token.transferFrom(msg...\n      PUSH 40\t\t\trequire(token.transferFrom(msg...\n      MLOAD \t\t\trequire(token.transferFrom(msg...\n      DUP1 \t\t\trequire(token.transferFrom(msg...\n      SWAP2 \t\t\trequire(token.transferFrom(msg...\n      SUB \t\t\trequire(token.transferFrom(msg...\n      SWAP1 \t\t\trequire(token.transferFrom(msg...\n      REVERT \t\t\trequire(token.transferFrom(msg...\n    tag 42\t\t\trequire(token.transferFrom(msg...\n      JUMPDEST \t\t\trequire(token.transferFrom(msg...\n      PUSH 0\t\t\tbytes memory data\n      DUP7 \t\t\ttokenAddress\n      DUP7 \t\t\trecipients\n      DUP7 \t\t\tamounts\n      PUSH 40\t\t\tabi.encodeWithSignature(\"execu...\n      MLOAD \t\t\tabi.encodeWithSignature(\"execu...\n      PUSH 24\t\t\tabi.encodeWithSignature(\"execu...\n      ADD \t\t\tabi.encodeWithSignature(\"execu...\n      PUSH [tag] 45\t\t\tabi.encodeWithSignature(\"execu...\n      SWAP4 \t\t\tabi.encodeWithSignature(\"execu...\n      SWAP3 \t\t\tabi.encodeWithSignature(\"execu...\n      SWAP2 \t\t\tabi.encodeWithSignature(\"execu...\n      SWAP1 \t\t\tabi.encodeWithSignature(\"execu...\n      PUSH [tag] 46\t\t\tabi.encodeWithSignature(\"execu...\n      JUMP \t\t\tabi.encodeWithSignature(\"execu...\n    tag 45\t\t\tabi.encodeWithSignature(\"execu...\n      JUMPDEST \t\t\tabi.encodeWithSignature(\"execu...\n      PUSH 40\t\t\tabi.encodeWithSignature(\"execu...\n      MLOAD \t\t\tabi.encodeWithSignature(\"execu...\n      PUSH 20\t\t\tabi.encodeWithSignature(\"execu...\n      DUP2 \t\t\tabi.encodeWithSignature(\"execu...\n      DUP4 \t\t\tabi.encodeWithSignature(\"execu...\n      SUB \t\t\tabi.encodeWithSignature(\"execu...\n      SUB \t\t\tabi.encodeWithSignature(\"execu...\n      DUP2 \t\t\tabi.encodeWithSignature(\"execu...\n      MSTORE \t\t\tabi.encodeWithSignature(\"execu...\n      SWAP1 \t\t\tabi.encodeWithSignature(\"execu...\n      PUSH 40\t\t\tabi.encodeWithSignature(\"execu...\n      MSTORE \t\t\tabi.encodeWithSignature(\"execu...\n      PUSH 46BA5FED00000000000000000000000000000000000000000000000000000000\t\t\tabi.encodeWithSignature(\"execu...\n      PUSH FFFFFFFFFFFFFFFFFFFFFFFFFFFFFFFFFFFFFFFFFFFFFFFFFFFFFFFF\t\t\tabi.encodeWithSignature(\"execu...\n      NOT \t\t\tabi.encodeWithSignature(\"execu...\n      AND \t\t\tabi.encodeWithSignature(\"execu...\n      PUSH 20\t\t\tabi.encodeWithSignature(\"execu...\n      DUP3 \t\t\tabi.encodeWithSignature(\"execu...\n      ADD \t\t\tabi.encodeWithSignature(\"execu...\n      DUP1 \t\t\tabi.encodeWithSignature(\"execu...\n      MLOAD \t\t\tabi.encodeWithSignature(\"execu...\n      PUSH FFFFFFFFFFFFFFFFFFFFFFFFFFFFFFFFFFFFFFFFFFFFFFFFFFFFFFFF\t\t\tabi.encodeWithSignature(\"execu...\n      DUP4 \t\t\tabi.encodeWithSignature(\"execu...\n      DUP2 \t\t\tabi.encodeWithSignature(\"execu...\n      DUP4 \t\t\tabi.encodeWithSignature(\"execu...\n      AND \t\t\tabi.encodeWithSignature(\"execu...\n      OR \t\t\tabi.encodeWithSignature(\"execu...\n      DUP4 \t\t\tabi.encodeWithSignature(\"execu...\n      MSTORE \t\t\tabi.encodeWithSignature(\"execu...\n      POP \t\t\tabi.encodeWithSignature(\"execu...\n      POP \t\t\tabi.encodeWithSignature(\"execu...\n      POP \t\t\tabi.encodeWithSignature(\"execu...\n      POP \t\t\tabi.encodeWithSignature(\"execu...\n      SWAP1 \t\t\tbytes memory data = abi.encode...\n      POP \t\t\tbytes memory data = abi.encode...\n      PUSH 0\t\t\tbytes memory scheduleId\n      DUP1 \t\t\tscheduler\n      PUSH 0\t\t\tscheduler\n      SWAP1 \t\t\tscheduler\n      SLOAD \t\t\tscheduler\n      SWAP1 \t\t\tscheduler\n      PUSH 100\t\t\tscheduler\n      EXP \t\t\tscheduler\n      SWAP1 \t\t\tscheduler\n      DIV \t\t\tscheduler\n      PUSH FFFFFFFFFFFFFFFFFFFFFFFFFFFFFFFFFFFFFFFF\t\t\tscheduler\n      AND \t\t\tscheduler\n      PUSH FFFFFFFFFFFFFFFFFFFFFFFFFFFFFFFFFFFFFFFF\t\t\tscheduler.scheduleCall\n      AND \t\t\tscheduler.scheduleCall\n      PUSH 168D560D\t\t\tscheduler.scheduleCall\n      ADDRESS \t\t\tthis\n      PUSH 0\t\t\t0\n      PUSH 200B20\t\t\t2100000\n      PUSH FA00\t\t\t64000\n      DUP11 \t\t\tdelay\n      DUP9 \t\t\tdata\n      PUSH 40\t\t\tscheduler.scheduleCall(address...\n      MLOAD \t\t\tscheduler.scheduleCall(address...\n      DUP8 \t\t\tscheduler.scheduleCall(address...\n      PUSH FFFFFFFF\t\t\tscheduler.scheduleCall(address...\n      AND \t\t\tscheduler.scheduleCall(address...\n      PUSH E0\t\t\tscheduler.scheduleCall(address...\n      SHL \t\t\tscheduler.scheduleCall(address...\n      DUP2 \t\t\tscheduler.scheduleCall(address...\n      MSTORE \t\t\tscheduler.scheduleCall(address...\n      PUSH 4\t\t\tscheduler.scheduleCall(address...\n      ADD \t\t\tscheduler.scheduleCall(address...\n      PUSH [tag] 47\t\t\tscheduler.scheduleCall(address...\n      SWAP7 \t\t\tscheduler.scheduleCall(address...\n      SWAP6 \t\t\tscheduler.scheduleCall(address...\n      SWAP5 \t\t\tscheduler.scheduleCall(address...\n      SWAP4 \t\t\tscheduler.scheduleCall(address...\n      SWAP3 \t\t\tscheduler.scheduleCall(address...\n      SWAP2 \t\t\tscheduler.scheduleCall(address...\n      SWAP1 \t\t\tscheduler.scheduleCall(address...\n      PUSH [tag] 48\t\t\tscheduler.scheduleCall(address...\n      JUMP \t\t\tscheduler.scheduleCall(address...\n    tag 47\t\t\tscheduler.scheduleCall(address...\n      JUMPDEST \t\t\tscheduler.scheduleCall(address...\n      PUSH 0\t\t\tscheduler.scheduleCall(address...\n      PUSH 40\t\t\tscheduler.scheduleCall(address...\n      MLOAD \t\t\tscheduler.scheduleCall(address...\n      DUP1 \t\t\tscheduler.scheduleCall(address...\n      DUP4 \t\t\tscheduler.scheduleCall(address...\n      SUB \t\t\tscheduler.scheduleCall(address...\n      DUP2 \t\t\tscheduler.scheduleCall(address...\n      PUSH 0\t\t\tscheduler.scheduleCall(address...\n      DUP8 \t\t\tscheduler.scheduleCall(address...\n      GAS \t\t\tscheduler.scheduleCall(address...\n      CALL \t\t\tscheduler.scheduleCall(address...\n      ISZERO \t\t\tscheduler.scheduleCall(address...\n      DUP1 \t\t\tscheduler.scheduleCall(address...\n      ISZERO \t\t\tscheduler.scheduleCall(address...\n      PUSH [tag] 50\t\t\tscheduler.scheduleCall(address...\n      JUMPI \t\t\tscheduler.scheduleCall(address...\n      RETURNDATASIZE \t\t\tscheduler.scheduleCall(address...\n      PUSH 0\t\t\tscheduler.scheduleCall(address...\n      DUP1 \t\t\tscheduler.scheduleCall(address...\n      RETURNDATACOPY \t\t\tscheduler.scheduleCall(address...\n      RETURNDATASIZE \t\t\tscheduler.scheduleCall(address...\n      PUSH 0\t\t\tscheduler.scheduleCall(address...\n      REVERT \t\t\tscheduler.scheduleCall(address...\n    tag 50\t\t\tscheduler.scheduleCall(address...\n      JUMPDEST \t\t\tscheduler.scheduleCall(address...\n      POP \t\t\tscheduler.scheduleCall(address...\n      POP \t\t\tscheduler.scheduleCall(address...\n      POP \t\t\tscheduler.scheduleCall(address...\n      POP \t\t\tscheduler.scheduleCall(address...\n      PUSH 40\t\t\tscheduler.scheduleCall(address...\n      MLOAD \t\t\tscheduler.scheduleCall(address...\n      RETURNDATASIZE \t\t\tscheduler.scheduleCall(address...\n      PUSH 0\t\t\tscheduler.scheduleCall(address...\n      DUP3 \t\t\tscheduler.scheduleCall(address...\n      RETURNDATACOPY \t\t\tscheduler.scheduleCall(address...\n      RETURNDATASIZE \t\t\tscheduler.scheduleCall(address...\n      PUSH 1F\t\t\tscheduler.scheduleCall(address...\n      NOT \t\t\tscheduler.scheduleCall(address...\n      PUSH 1F\t\t\tscheduler.scheduleCall(address...\n      DUP3 \t\t\tscheduler.scheduleCall(address...\n      ADD \t\t\tscheduler.scheduleCall(address...\n      AND \t\t\tscheduler.scheduleCall(address...\n      DUP3 \t\t\tscheduler.scheduleCall(address...\n      ADD \t\t\tscheduler.scheduleCall(address...\n      DUP1 \t\t\tscheduler.scheduleCall(address...\n      PUSH 40\t\t\tscheduler.scheduleCall(address...\n      MSTORE \t\t\tscheduler.scheduleCall(address...\n      POP \t\t\tscheduler.scheduleCall(address...\n      DUP2 \t\t\tscheduler.scheduleCall(address...\n      ADD \t\t\tscheduler.scheduleCall(address...\n      SWAP1 \t\t\tscheduler.scheduleCall(address...\n      PUSH [tag] 51\t\t\tscheduler.scheduleCall(address...\n      SWAP2 \t\t\tscheduler.scheduleCall(address...\n      SWAP1 \t\t\tscheduler.scheduleCall(address...\n      PUSH [tag] 52\t\t\tscheduler.scheduleCall(address...\n      JUMP \t\t\tscheduler.scheduleCall(address...\n    tag 51\t\t\tscheduler.scheduleCall(address...\n      JUMPDEST \t\t\tscheduler.scheduleCall(address...\n      SWAP1 \t\t\tbytes memory scheduleId = sche...\n      POP \t\t\tbytes memory scheduleId = sche...\n      DUP8 \t\t\ttokenAddress\n      PUSH FFFFFFFFFFFFFFFFFFFFFFFFFFFFFFFFFFFFFFFF\t\t\tTransferScheduled(scheduleId,t...\n      AND \t\t\tTransferScheduled(scheduleId,t...\n      DUP2 \t\t\tscheduleId\n      PUSH 40\t\t\tTransferScheduled(scheduleId,t...\n      MLOAD \t\t\tTransferScheduled(scheduleId,t...\n      PUSH [tag] 53\t\t\tTransferScheduled(scheduleId,t...\n      SWAP2 \t\t\tTransferScheduled(scheduleId,t...\n      SWAP1 \t\t\tTransferScheduled(scheduleId,t...\n      PUSH [tag] 54\t\t\tTransferScheduled(scheduleId,t...\n      JUMP \t\t\tTransferScheduled(scheduleId,t...\n    tag 53\t\t\tTransferScheduled(scheduleId,t...\n      JUMPDEST \t\t\tTransferScheduled(scheduleId,t...\n      PUSH 40\t\t\tTransferScheduled(scheduleId,t...\n      MLOAD \t\t\tTransferScheduled(scheduleId,t...\n      DUP1 \t\t\tTransferScheduled(scheduleId,t...\n      SWAP2 \t\t\tTransferScheduled(scheduleId,t...\n      SUB \t\t\tTransferScheduled(scheduleId,t...\n      SWAP1 \t\t\tTransferScheduled(scheduleId,t...\n      KECCAK256 \t\t\tTransferScheduled(scheduleId,t...\n      PUSH C9C9AFE41DD5E3A9438DD88814EDCB9C8089A9E980F48B14414EDA3D6D3D0E9A\t\t\tTransferScheduled(scheduleId,t...\n      DUP10 \t\t\trecipients\n      DUP10 \t\t\tamounts\n      DUP10 \t\t\tdelay\n      TIMESTAMP \t\t\tblock.timestamp\n      PUSH [tag] 55\t\t\tblock.timestamp + delay\n      SWAP2 \t\t\tblock.timestamp + delay\n      SWAP1 \t\t\tblock.timestamp + delay\n      PUSH [tag] 33\t\t\tblock.timestamp + delay\n      JUMP \t\t\tblock.timestamp + delay\n    tag 55\t\t\tblock.timestamp + delay\n      JUMPDEST \t\t\tblock.timestamp + delay\n      PUSH 40\t\t\tTransferScheduled(scheduleId,t...\n      MLOAD \t\t\tTransferScheduled(scheduleId,t...\n      PUSH [tag] 56\t\t\tTransferScheduled(scheduleId,t...\n      SWAP4 \t\t\tTransferScheduled(scheduleId,t...\n      SWAP3 \t\t\tTransferScheduled(scheduleId,t...\n      SWAP2 \t\t\tTransferScheduled(scheduleId,t...\n      SWAP1 \t\t\tTransferScheduled(scheduleId,t...\n      PUSH [tag] 57\t\t\tTransferScheduled(scheduleId,t...\n      JUMP \t\t\tTransferScheduled(scheduleId,t...\n    tag 56\t\t\tTransferScheduled(scheduleId,t...\n      JUMPDEST \t\t\tTransferScheduled(scheduleId,t...\n      PUSH 40\t\t\tTransferScheduled(scheduleId,t...\n      MLOAD \t\t\tTransferScheduled(scheduleId,t...\n      DUP1 \t\t\tTransferScheduled(scheduleId,t...\n      SWAP2 \t\t\tTransferScheduled(scheduleId,t...\n      SUB \t\t\tTransferScheduled(scheduleId,t...\n      SWAP1 \t\t\tTransferScheduled(scheduleId,t...\n      LOG3 \t\t\tTransferScheduled(scheduleId,t...\n      POP \t\t\t{\\r\\n        IERC20 token = IE...\n      POP \t\t\t{\\r\\n        IERC20 token = IE...\n      POP \t\t\t{\\r\\n        IERC20 token = IE...\n      POP \t\t\t{\\r\\n        IERC20 token = IE...\n      POP \t\t\tfunction scheduled_dispersal(a...\n      POP \t\t\tfunction scheduled_dispersal(a...\n      POP \t\t\tfunction scheduled_dispersal(a...\n      POP \t\t\tfunction scheduled_dispersal(a...\n      JUMP \t\t\tfunction scheduled_dispersal(a...\n    tag 17\t\t\tfunction dispersal(address tok...\n      JUMPDEST \t\t\tfunction dispersal(address tok...\n      PUSH 0\t\t\tIERC20 token\n      DUP4 \t\t\ttokenAddress\n      SWAP1 \t\t\tIERC20 token = IERC20(tokenAdd...\n      POP \t\t\tIERC20 token = IERC20(tokenAdd...\n      DUP2 \t\t\tamount\n      MLOAD \t\t\tamount.length\n      DUP4 \t\t\trecipients\n      MLOAD \t\t\trecipients.length\n      EQ \t\t\trecipients.length == amount.le...\n      PUSH [tag] 59\t\t\trequire(recipients.length == a...\n      JUMPI \t\t\trequire(recipients.length == a...\n      PUSH 40\t\t\trequire(recipients.length == a...\n      MLOAD \t\t\trequire(recipients.length == a...\n      PUSH 8C379A000000000000000000000000000000000000000000000000000000000\t\t\trequire(recipients.length == a...\n      DUP2 \t\t\trequire(recipients.length == a...\n      MSTORE \t\t\trequire(recipients.length == a...\n      PUSH 4\t\t\trequire(recipients.length == a...\n      ADD \t\t\trequire(recipients.length == a...\n      PUSH [tag] 60\t\t\trequire(recipients.length == a...\n      SWAP1 \t\t\trequire(recipients.length == a...\n      PUSH [tag] 25\t\t\trequire(recipients.length == a...\n      JUMP \t\t\trequire(recipients.length == a...\n    tag 60\t\t\trequire(recipients.length == a...\n      JUMPDEST \t\t\trequire(recipients.length == a...\n      PUSH 40\t\t\trequire(recipients.length == a...\n      MLOAD \t\t\trequire(recipients.length == a...\n      DUP1 \t\t\trequire(recipients.length == a...\n      SWAP2 \t\t\trequire(recipients.length == a...\n      SUB \t\t\trequire(recipients.length == a...\n      SWAP1 \t\t\trequire(recipients.length == a...\n      REVERT \t\t\trequire(recipients.length == a...\n    tag 59\t\t\trequire(recipients.length == a...\n      JUMPDEST \t\t\trequire(recipients.length == a...\n      PUSH 0\t\t\tuint256 total\n      DUP1 \t\t\tuint256 i\n    tag 61\t\t\tfor (uint256 i = 0; i < recipi...\n      JUMPDEST \t\t\tfor (uint256 i = 0; i < recipi...\n      DUP5 \t\t\trecipients\n      MLOAD \t\t\trecipients.length\n      DUP2 \t\t\ti\n      LT \t\t\ti < recipients.length\n      ISZERO \t\t\tfor (uint256 i = 0; i < recipi...\n      PUSH [tag] 62\t\t\tfor (uint256 i = 0; i < recipi...\n      JUMPI \t\t\tfor (uint256 i = 0; i < recipi...\n      DUP4 \t\t\tamount\n      DUP2 \t\t\ti\n      DUP2 \t\t\tamount[i]\n      MLOAD \t\t\tamount[i]\n      DUP2 \t\t\tamount[i]\n      LT \t\t\tamount[i]\n      PUSH [tag] 64\t\t\tamount[i]\n      JUMPI \t\t\tamount[i]\n      PUSH [tag] 65\t\t\tamount[i]\n      PUSH [tag] 31\t\t\tamount[i]\n      JUMP \t\t\tamount[i]\n    tag 65\t\t\tamount[i]\n      JUMPDEST \t\t\tamount[i]\n    tag 64\t\t\tamount[i]\n      JUMPDEST \t\t\tamount[i]\n      PUSH 20\t\t\tamount[i]\n      MUL \t\t\tamount[i]\n      PUSH 20\t\t\tamount[i]\n      ADD \t\t\tamount[i]\n      ADD \t\t\tamount[i]\n      MLOAD \t\t\tamount[i]\n      DUP3 \t\t\ttotal\n      PUSH [tag] 66\t\t\ttotal + amount[i]\n      SWAP2 \t\t\ttotal + amount[i]\n      SWAP1 \t\t\ttotal + amount[i]\n      PUSH [tag] 33\t\t\ttotal + amount[i]\n      JUMP \t\t\ttotal + amount[i]\n    tag 66\t\t\ttotal + amount[i]\n      JUMPDEST \t\t\ttotal + amount[i]\n      SWAP2 \t\t\ttotal = total + amount[i]\n      POP \t\t\ttotal = total + amount[i]\n      DUP1 \t\t\ti++\n      DUP1 \t\t\ti++\n      PUSH [tag] 67\t\t\ti++\n      SWAP1 \t\t\ti++\n      PUSH [tag] 35\t\t\ti++\n      JUMP \t\t\ti++\n    tag 67\t\t\ti++\n      JUMPDEST \t\t\ti++\n      SWAP2 \t\t\ti++\n      POP \t\t\ti++\n      POP \t\t\ti++\n      PUSH [tag] 61\t\t\tfor (uint256 i = 0; i < recipi...\n      JUMP \t\t\tfor (uint256 i = 0; i < recipi...\n    tag 62\t\t\tfor (uint256 i = 0; i < recipi...\n      JUMPDEST \t\t\tfor (uint256 i = 0; i < recipi...\n      POP \t\t\tfor (uint256 i = 0; i < recipi...\n      DUP2 \t\t\ttoken\n      PUSH FFFFFFFFFFFFFFFFFFFFFFFFFFFFFFFFFFFFFFFF\t\t\ttoken.transferFrom\n      AND \t\t\ttoken.transferFrom\n      PUSH 23B872DD\t\t\ttoken.transferFrom\n      CALLER \t\t\tmsg.sender\n      ADDRESS \t\t\tthis\n      DUP5 \t\t\ttotal\n      PUSH 40\t\t\ttoken.transferFrom(msg.sender,...\n      MLOAD \t\t\ttoken.transferFrom(msg.sender,...\n      DUP5 \t\t\ttoken.transferFrom(msg.sender,...\n      PUSH FFFFFFFF\t\t\ttoken.transferFrom(msg.sender,...\n      AND \t\t\ttoken.transferFrom(msg.sender,...\n      PUSH E0\t\t\ttoken.transferFrom(msg.sender,...\n      SHL \t\t\ttoken.transferFrom(msg.sender,...\n      DUP2 \t\t\ttoken.transferFrom(msg.sender,...\n      MSTORE \t\t\ttoken.transferFrom(msg.sender,...\n      PUSH 4\t\t\ttoken.transferFrom(msg.sender,...\n      ADD \t\t\ttoken.transferFrom(msg.sender,...\n      PUSH [tag] 68\t\t\ttoken.transferFrom(msg.sender,...\n      SWAP4 \t\t\ttoken.transferFrom(msg.sender,...\n      SWAP3 \t\t\ttoken.transferFrom(msg.sender,...\n      SWAP2 \t\t\ttoken.transferFrom(msg.sender,...\n      SWAP1 \t\t\ttoken.transferFrom(msg.sender,...\n      PUSH [tag] 37\t\t\ttoken.transferFrom(msg.sender,...\n      JUMP \t\t\ttoken.transferFrom(msg.sender,...\n    tag 68\t\t\ttoken.transferFrom(msg.sender,...\n      JUMPDEST \t\t\ttoken.transferFrom(msg.sender,...\n      PUSH 20\t\t\ttoken.transferFrom(msg.sender,...\n      PUSH 40\t\t\ttoken.transferFrom(msg.sender,...\n      MLOAD \t\t\ttoken.transferFrom(msg.sender,...\n      DUP1 \t\t\ttoken.transferFrom(msg.sender,...\n      DUP4 \t\t\ttoken.transferFrom(msg.sender,...\n      SUB \t\t\ttoken.transferFrom(msg.sender,...\n      DUP2 \t\t\ttoken.transferFrom(msg.sender,...\n      PUSH 0\t\t\ttoken.transferFrom(msg.sender,...\n      DUP8 \t\t\ttoken.transferFrom(msg.sender,...\n      GAS \t\t\ttoken.transferFrom(msg.sender,...\n      CALL \t\t\ttoken.transferFrom(msg.sender,...\n      ISZERO \t\t\ttoken.transferFrom(msg.sender,...\n      DUP1 \t\t\ttoken.transferFrom(msg.sender,...\n      ISZERO \t\t\ttoken.transferFrom(msg.sender,...\n      PUSH [tag] 70\t\t\ttoken.transferFrom(msg.sender,...\n      JUMPI \t\t\ttoken.transferFrom(msg.sender,...\n      RETURNDATASIZE \t\t\ttoken.transferFrom(msg.sender,...\n      PUSH 0\t\t\ttoken.transferFrom(msg.sender,...\n      DUP1 \t\t\ttoken.transferFrom(msg.sender,...\n      RETURNDATACOPY \t\t\ttoken.transferFrom(msg.sender,...\n      RETURNDATASIZE \t\t\ttoken.transferFrom(msg.sender,...\n      PUSH 0\t\t\ttoken.transferFrom(msg.sender,...\n      REVERT \t\t\ttoken.transferFrom(msg.sender,...\n    tag 70\t\t\ttoken.transferFrom(msg.sender,...\n      JUMPDEST \t\t\ttoken.transferFrom(msg.sender,...\n      POP \t\t\ttoken.transferFrom(msg.sender,...\n      POP \t\t\ttoken.transferFrom(msg.sender,...\n      POP \t\t\ttoken.transferFrom(msg.sender,...\n      POP \t\t\ttoken.transferFrom(msg.sender,...\n      PUSH 40\t\t\ttoken.transferFrom(msg.sender,...\n      MLOAD \t\t\ttoken.transferFrom(msg.sender,...\n      RETURNDATASIZE \t\t\ttoken.transferFrom(msg.sender,...\n      PUSH 1F\t\t\ttoken.transferFrom(msg.sender,...\n      NOT \t\t\ttoken.transferFrom(msg.sender,...\n      PUSH 1F\t\t\ttoken.transferFrom(msg.sender,...\n      DUP3 \t\t\ttoken.transferFrom(msg.sender,...\n      ADD \t\t\ttoken.transferFrom(msg.sender,...\n      AND \t\t\ttoken.transferFrom(msg.sender,...\n      DUP3 \t\t\ttoken.transferFrom(msg.sender,...\n      ADD \t\t\ttoken.transferFrom(msg.sender,...\n      DUP1 \t\t\ttoken.transferFrom(msg.sender,...\n      PUSH 40\t\t\ttoken.transferFrom(msg.sender,...\n      MSTORE \t\t\ttoken.transferFrom(msg.sender,...\n      POP \t\t\ttoken.transferFrom(msg.sender,...\n      DUP2 \t\t\ttoken.transferFrom(msg.sender,...\n      ADD \t\t\ttoken.transferFrom(msg.sender,...\n      SWAP1 \t\t\ttoken.transferFrom(msg.sender,...\n      PUSH [tag] 71\t\t\ttoken.transferFrom(msg.sender,...\n      SWAP2 \t\t\ttoken.transferFrom(msg.sender,...\n      SWAP1 \t\t\ttoken.transferFrom(msg.sender,...\n      PUSH [tag] 41\t\t\ttoken.transferFrom(msg.sender,...\n      JUMP \t\t\ttoken.transferFrom(msg.sender,...\n    tag 71\t\t\ttoken.transferFrom(msg.sender,...\n      JUMPDEST \t\t\ttoken.transferFrom(msg.sender,...\n      PUSH [tag] 72\t\t\trequire(token.transferFrom(msg...\n      JUMPI \t\t\trequire(token.transferFrom(msg...\n      PUSH 40\t\t\trequire(token.transferFrom(msg...\n      MLOAD \t\t\trequire(token.transferFrom(msg...\n      PUSH 8C379A000000000000000000000000000000000000000000000000000000000\t\t\trequire(token.transferFrom(msg...\n      DUP2 \t\t\trequire(token.transferFrom(msg...\n      MSTORE \t\t\trequire(token.transferFrom(msg...\n      PUSH 4\t\t\trequire(token.transferFrom(msg...\n      ADD \t\t\trequire(token.transferFrom(msg...\n      PUSH [tag] 73\t\t\trequire(token.transferFrom(msg...\n      SWAP1 \t\t\trequire(token.transferFrom(msg...\n      PUSH [tag] 74\t\t\trequire(token.transferFrom(msg...\n      JUMP \t\t\trequire(token.transferFrom(msg...\n    tag 73\t\t\trequire(token.transferFrom(msg...\n      JUMPDEST \t\t\trequire(token.transferFrom(msg...\n      PUSH 40\t\t\trequire(token.transferFrom(msg...\n      MLOAD \t\t\trequire(token.transferFrom(msg...\n      DUP1 \t\t\trequire(token.transferFrom(msg...\n      SWAP2 \t\t\trequire(token.transferFrom(msg...\n      SUB \t\t\trequire(token.transferFrom(msg...\n      SWAP1 \t\t\trequire(token.transferFrom(msg...\n      REVERT \t\t\trequire(token.transferFrom(msg...\n    tag 72\t\t\trequire(token.transferFrom(msg...\n      JUMPDEST \t\t\trequire(token.transferFrom(msg...\n      PUSH 0\t\t\tuint256 i\n    tag 75\t\t\tfor (uint256 i = 0; i < recipi...\n      JUMPDEST \t\t\tfor (uint256 i = 0; i < recipi...\n      DUP5 \t\t\trecipients\n      MLOAD \t\t\trecipients.length\n      DUP2 \t\t\ti\n      LT \t\t\ti < recipients.length\n      ISZERO \t\t\tfor (uint256 i = 0; i < recipi...\n      PUSH [tag] 76\t\t\tfor (uint256 i = 0; i < recipi...\n      JUMPI \t\t\tfor (uint256 i = 0; i < recipi...\n      DUP3 \t\t\ttoken\n      PUSH FFFFFFFFFFFFFFFFFFFFFFFFFFFFFFFFFFFFFFFF\t\t\ttoken.transfer\n      AND \t\t\ttoken.transfer\n      PUSH A9059CBB\t\t\ttoken.transfer\n      DUP7 \t\t\trecipients\n      DUP4 \t\t\ti\n      DUP2 \t\t\trecipients[i]\n      MLOAD \t\t\trecipients[i]\n      DUP2 \t\t\trecipients[i]\n      LT \t\t\trecipients[i]\n      PUSH [tag] 78\t\t\trecipients[i]\n      JUMPI \t\t\trecipients[i]\n      PUSH [tag] 79\t\t\trecipients[i]\n      PUSH [tag] 31\t\t\trecipients[i]\n      JUMP \t\t\trecipients[i]\n    tag 79\t\t\trecipients[i]\n      JUMPDEST \t\t\trecipients[i]\n    tag 78\t\t\trecipients[i]\n      JUMPDEST \t\t\trecipients[i]\n      PUSH 20\t\t\trecipients[i]\n      MUL \t\t\trecipients[i]\n      PUSH 20\t\t\trecipients[i]\n      ADD \t\t\trecipients[i]\n      ADD \t\t\trecipients[i]\n      MLOAD \t\t\trecipients[i]\n      DUP7 \t\t\tamount\n      DUP5 \t\t\ti\n      DUP2 \t\t\tamount[i]\n      MLOAD \t\t\tamount[i]\n      DUP2 \t\t\tamount[i]\n      LT \t\t\tamount[i]\n      PUSH [tag] 80\t\t\tamount[i]\n      JUMPI \t\t\tamount[i]\n      PUSH [tag] 81\t\t\tamount[i]\n      PUSH [tag] 31\t\t\tamount[i]\n      JUMP \t\t\tamount[i]\n    tag 81\t\t\tamount[i]\n      JUMPDEST \t\t\tamount[i]\n    tag 80\t\t\tamount[i]\n      JUMPDEST \t\t\tamount[i]\n      PUSH 20\t\t\tamount[i]\n      MUL \t\t\tamount[i]\n      PUSH 20\t\t\tamount[i]\n      ADD \t\t\tamount[i]\n      ADD \t\t\tamount[i]\n      MLOAD \t\t\tamount[i]\n      PUSH 40\t\t\ttoken.transfer(recipients[i], ...\n      MLOAD \t\t\ttoken.transfer(recipients[i], ...\n      DUP4 \t\t\ttoken.transfer(recipients[i], ...\n      PUSH FFFFFFFF\t\t\ttoken.transfer(recipients[i], ...\n      AND \t\t\ttoken.transfer(recipients[i], ...\n      PUSH E0\t\t\ttoken.transfer(recipients[i], ...\n      SHL \t\t\ttoken.transfer(recipients[i], ...\n      DUP2 \t\t\ttoken.transfer(recipients[i], ...\n      MSTORE \t\t\ttoken.transfer(recipients[i], ...\n      PUSH 4\t\t\ttoken.transfer(recipients[i], ...\n      ADD \t\t\ttoken.transfer(recipients[i], ...\n      PUSH [tag] 82\t\t\ttoken.transfer(recipients[i], ...\n      SWAP3 \t\t\ttoken.transfer(recipients[i], ...\n      SWAP2 \t\t\ttoken.transfer(recipients[i], ...\n      SWAP1 \t\t\ttoken.transfer(recipients[i], ...\n      PUSH [tag] 83\t\t\ttoken.transfer(recipients[i], ...\n      JUMP \t\t\ttoken.transfer(recipients[i], ...\n    tag 82\t\t\ttoken.transfer(recipients[i], ...\n      JUMPDEST \t\t\ttoken.transfer(recipients[i], ...\n      PUSH 20\t\t\ttoken.transfer(recipients[i], ...\n      PUSH 40\t\t\ttoken.transfer(recipients[i], ...\n      MLOAD \t\t\ttoken.transfer(recipients[i], ...\n      DUP1 \t\t\ttoken.transfer(recipients[i], ...\n      DUP4 \t\t\ttoken.transfer(recipients[i], ...\n      SUB \t\t\ttoken.transfer(recipients[i], ...\n      DUP2 \t\t\ttoken.transfer(recipients[i], ...\n      PUSH 0\t\t\ttoken.transfer(recipients[i], ...\n      DUP8 \t\t\ttoken.transfer(recipients[i], ...\n      GAS \t\t\ttoken.transfer(recipients[i], ...\n      CALL \t\t\ttoken.transfer(recipients[i], ...\n      ISZERO \t\t\ttoken.transfer(recipients[i], ...\n      DUP1 \t\t\ttoken.transfer(recipients[i], ...\n      ISZERO \t\t\ttoken.transfer(recipients[i], ...\n      PUSH [tag] 85\t\t\ttoken.transfer(recipients[i], ...\n      JUMPI \t\t\ttoken.transfer(recipients[i], ...\n      RETURNDATASIZE \t\t\ttoken.transfer(recipients[i], ...\n      PUSH 0\t\t\ttoken.transfer(recipients[i], ...\n      DUP1 \t\t\ttoken.transfer(recipients[i], ...\n      RETURNDATACOPY \t\t\ttoken.transfer(recipients[i], ...\n      RETURNDATASIZE \t\t\ttoken.transfer(recipients[i], ...\n      PUSH 0\t\t\ttoken.transfer(recipients[i], ...\n      REVERT \t\t\ttoken.transfer(recipients[i], ...\n    tag 85\t\t\ttoken.transfer(recipients[i], ...\n      JUMPDEST \t\t\ttoken.transfer(recipients[i], ...\n      POP \t\t\ttoken.transfer(recipients[i], ...\n      POP \t\t\ttoken.transfer(recipients[i], ...\n      POP \t\t\ttoken.transfer(recipients[i], ...\n      POP \t\t\ttoken.transfer(recipients[i], ...\n      PUSH 40\t\t\ttoken.transfer(recipients[i], ...\n      MLOAD \t\t\ttoken.transfer(recipients[i], ...\n      RETURNDATASIZE \t\t\ttoken.transfer(recipients[i], ...\n      PUSH 1F\t\t\ttoken.transfer(recipients[i], ...\n      NOT \t\t\ttoken.transfer(recipients[i], ...\n      PUSH 1F\t\t\ttoken.transfer(recipients[i], ...\n      DUP3 \t\t\ttoken.transfer(recipients[i], ...\n      ADD \t\t\ttoken.transfer(recipients[i], ...\n      AND \t\t\ttoken.transfer(recipients[i], ...\n      DUP3 \t\t\ttoken.transfer(recipients[i], ...\n      ADD \t\t\ttoken.transfer(recipients[i], ...\n      DUP1 \t\t\ttoken.transfer(recipients[i], ...\n      PUSH 40\t\t\ttoken.transfer(recipients[i], ...\n      MSTORE \t\t\ttoken.transfer(recipients[i], ...\n      POP \t\t\ttoken.transfer(recipients[i], ...\n      DUP2 \t\t\ttoken.transfer(recipients[i], ...\n      ADD \t\t\ttoken.transfer(recipients[i], ...\n      SWAP1 \t\t\ttoken.transfer(recipients[i], ...\n      PUSH [tag] 86\t\t\ttoken.transfer(recipients[i], ...\n      SWAP2 \t\t\ttoken.transfer(recipients[i], ...\n      SWAP1 \t\t\ttoken.transfer(recipients[i], ...\n      PUSH [tag] 41\t\t\ttoken.transfer(recipients[i], ...\n      JUMP \t\t\ttoken.transfer(recipients[i], ...\n    tag 86\t\t\ttoken.transfer(recipients[i], ...\n      JUMPDEST \t\t\ttoken.transfer(recipients[i], ...\n      PUSH [tag] 87\t\t\trequire(token.transfer(recipie...\n      JUMPI \t\t\trequire(token.transfer(recipie...\n      PUSH 40\t\t\trequire(token.transfer(recipie...\n      MLOAD \t\t\trequire(token.transfer(recipie...\n      PUSH 8C379A000000000000000000000000000000000000000000000000000000000\t\t\trequire(token.transfer(recipie...\n      DUP2 \t\t\trequire(token.transfer(recipie...\n      MSTORE \t\t\trequire(token.transfer(recipie...\n      PUSH 4\t\t\trequire(token.transfer(recipie...\n      ADD \t\t\trequire(token.transfer(recipie...\n      PUSH [tag] 88\t\t\trequire(token.transfer(recipie...\n      SWAP1 \t\t\trequire(token.transfer(recipie...\n      PUSH [tag] 89\t\t\trequire(token.transfer(recipie...\n      JUMP \t\t\trequire(token.transfer(recipie...\n    tag 88\t\t\trequire(token.transfer(recipie...\n      JUMPDEST \t\t\trequire(token.transfer(recipie...\n      PUSH 40\t\t\trequire(token.transfer(recipie...\n      MLOAD \t\t\trequire(token.transfer(recipie...\n      DUP1 \t\t\trequire(token.transfer(recipie...\n      SWAP2 \t\t\trequire(token.transfer(recipie...\n      SUB \t\t\trequire(token.transfer(recipie...\n      SWAP1 \t\t\trequire(token.transfer(recipie...\n      REVERT \t\t\trequire(token.transfer(recipie...\n    tag 87\t\t\trequire(token.transfer(recipie...\n      JUMPDEST \t\t\trequire(token.transfer(recipie...\n      DUP5 \t\t\trecipients\n      DUP2 \t\t\ti\n      DUP2 \t\t\trecipients[i]\n      MLOAD \t\t\trecipients[i]\n      DUP2 \t\t\trecipients[i]\n      LT \t\t\trecipients[i]\n      PUSH [tag] 90\t\t\trecipients[i]\n      JUMPI \t\t\trecipients[i]\n      PUSH [tag] 91\t\t\trecipients[i]\n      PUSH [tag] 31\t\t\trecipients[i]\n      JUMP \t\t\trecipients[i]\n    tag 91\t\t\trecipients[i]\n      JUMPDEST \t\t\trecipients[i]\n    tag 90\t\t\trecipients[i]\n      JUMPDEST \t\t\trecipients[i]\n      PUSH 20\t\t\trecipients[i]\n      MUL \t\t\trecipients[i]\n      PUSH 20\t\t\trecipients[i]\n      ADD \t\t\trecipients[i]\n      ADD \t\t\trecipients[i]\n      MLOAD \t\t\trecipients[i]\n      PUSH FFFFFFFFFFFFFFFFFFFFFFFFFFFFFFFFFFFFFFFF\t\t\tErc20BatchTransfer(i, recipien...\n      AND \t\t\tErc20BatchTransfer(i, recipien...\n      DUP2 \t\t\ti\n      PUSH B9471439BD4C23F19D2B486548FA6061AB17E1DA9815F325F2A2B29F22E715E3\t\t\tErc20BatchTransfer(i, recipien...\n      DUP7 \t\t\tamount\n      DUP5 \t\t\ti\n      DUP2 \t\t\tamount[i]\n      MLOAD \t\t\tamount[i]\n      DUP2 \t\t\tamount[i]\n      LT \t\t\tamount[i]\n      PUSH [tag] 92\t\t\tamount[i]\n      JUMPI \t\t\tamount[i]\n      PUSH [tag] 93\t\t\tamount[i]\n      PUSH [tag] 31\t\t\tamount[i]\n      JUMP \t\t\tamount[i]\n    tag 93\t\t\tamount[i]\n      JUMPDEST \t\t\tamount[i]\n    tag 92\t\t\tamount[i]\n      JUMPDEST \t\t\tamount[i]\n      PUSH 20\t\t\tamount[i]\n      MUL \t\t\tamount[i]\n      PUSH 20\t\t\tamount[i]\n      ADD \t\t\tamount[i]\n      ADD \t\t\tamount[i]\n      MLOAD \t\t\tamount[i]\n      PUSH 40\t\t\tErc20BatchTransfer(i, recipien...\n      MLOAD \t\t\tErc20BatchTransfer(i, recipien...\n      PUSH [tag] 94\t\t\tErc20BatchTransfer(i, recipien...\n      SWAP2 \t\t\tErc20BatchTransfer(i, recipien...\n      SWAP1 \t\t\tErc20BatchTransfer(i, recipien...\n      PUSH [tag] 95\t\t\tErc20BatchTransfer(i, recipien...\n      JUMP \t\t\tErc20BatchTransfer(i, recipien...\n    tag 94\t\t\tErc20BatchTransfer(i, recipien...\n      JUMPDEST \t\t\tErc20BatchTransfer(i, recipien...\n      PUSH 40\t\t\tErc20BatchTransfer(i, recipien...\n      MLOAD \t\t\tErc20BatchTransfer(i, recipien...\n      DUP1 \t\t\tErc20BatchTransfer(i, recipien...\n      SWAP2 \t\t\tErc20BatchTransfer(i, recipien...\n      SUB \t\t\tErc20BatchTransfer(i, recipien...\n      SWAP1 \t\t\tErc20BatchTransfer(i, recipien...\n      LOG3 \t\t\tErc20BatchTransfer(i, recipien...\n      DUP1 \t\t\ti++\n      DUP1 \t\t\ti++\n      PUSH [tag] 96\t\t\ti++\n      SWAP1 \t\t\ti++\n      PUSH [tag] 35\t\t\ti++\n      JUMP \t\t\ti++\n    tag 96\t\t\ti++\n      JUMPDEST \t\t\ti++\n      SWAP2 \t\t\ti++\n      POP \t\t\ti++\n      POP \t\t\ti++\n      PUSH [tag] 75\t\t\tfor (uint256 i = 0; i < recipi...\n      JUMP \t\t\tfor (uint256 i = 0; i < recipi...\n    tag 76\t\t\tfor (uint256 i = 0; i < recipi...\n      JUMPDEST \t\t\tfor (uint256 i = 0; i < recipi...\n      POP \t\t\tfor (uint256 i = 0; i < recipi...\n      POP \t\t\t{\\r\\n        IERC20 token = IE...\n      POP \t\t\t{\\r\\n        IERC20 token = IE...\n      POP \t\t\tfunction dispersal(address tok...\n      POP \t\t\tfunction dispersal(address tok...\n      POP \t\t\tfunction dispersal(address tok...\n      JUMP \t\t\tfunction dispersal(address tok...\n    tag 21\t\t\tfunction priceTriggeredDispers...\n      JUMPDEST \t\t\tfunction priceTriggeredDispers...\n      PUSH 0\t\t\tIERC20 token\n      DUP6 \t\t\ttokenAddress\n      SWAP1 \t\t\tIERC20 token = IERC20(tokenAdd...\n      POP \t\t\tIERC20 token = IERC20(tokenAdd...\n      PUSH 0\t\t\taddress spender\n      CALLER \t\t\tmsg.sender\n      SWAP1 \t\t\taddress spender = msg.sender\n      POP \t\t\taddress spender = msg.sender\n      PUSH 0\t\t\tuint256 currentPrice\n      PUSH 1\t\t\toracle\n      PUSH 0\t\t\toracle\n      SWAP1 \t\t\toracle\n      SLOAD \t\t\toracle\n      SWAP1 \t\t\toracle\n      PUSH 100\t\t\toracle\n      EXP \t\t\toracle\n      SWAP1 \t\t\toracle\n      DIV \t\t\toracle\n      PUSH FFFFFFFFFFFFFFFFFFFFFFFFFFFFFFFFFFFFFFFF\t\t\toracle\n      AND \t\t\toracle\n      PUSH FFFFFFFFFFFFFFFFFFFFFFFFFFFFFFFFFFFFFFFF\t\t\toracle.getPrice\n      AND \t\t\toracle.getPrice\n      PUSH 41976E09\t\t\toracle.getPrice\n      DUP5 \t\t\ttoken\n      PUSH 40\t\t\toracle.getPrice(address(token)...\n      MLOAD \t\t\toracle.getPrice(address(token)...\n      DUP3 \t\t\toracle.getPrice(address(token)...\n      PUSH FFFFFFFF\t\t\toracle.getPrice(address(token)...\n      AND \t\t\toracle.getPrice(address(token)...\n      PUSH E0\t\t\toracle.getPrice(address(token)...\n      SHL \t\t\toracle.getPrice(address(token)...\n      DUP2 \t\t\toracle.getPrice(address(token)...\n      MSTORE \t\t\toracle.getPrice(address(token)...\n      PUSH 4\t\t\toracle.getPrice(address(token)...\n      ADD \t\t\toracle.getPrice(address(token)...\n      PUSH [tag] 98\t\t\toracle.getPrice(address(token)...\n      SWAP2 \t\t\toracle.getPrice(address(token)...\n      SWAP1 \t\t\toracle.getPrice(address(token)...\n      PUSH [tag] 99\t\t\toracle.getPrice(address(token)...\n      JUMP \t\t\toracle.getPrice(address(token)...\n    tag 98\t\t\toracle.getPrice(address(token)...\n      JUMPDEST \t\t\toracle.getPrice(address(token)...\n      PUSH 20\t\t\toracle.getPrice(address(token)...\n      PUSH 40\t\t\toracle.getPrice(address(token)...\n      MLOAD \t\t\toracle.getPrice(address(token)...\n      DUP1 \t\t\toracle.getPrice(address(token)...\n      DUP4 \t\t\toracle.getPrice(address(token)...\n      SUB \t\t\toracle.getPrice(address(token)...\n      DUP2 \t\t\toracle.getPrice(address(token)...\n      DUP7 \t\t\toracle.getPrice(address(token)...\n      GAS \t\t\toracle.getPrice(address(token)...\n      STATICCALL \t\t\toracle.getPrice(address(token)...\n      ISZERO \t\t\toracle.getPrice(address(token)...\n      DUP1 \t\t\toracle.getPrice(address(token)...\n      ISZERO \t\t\toracle.getPrice(address(token)...\n      PUSH [tag] 101\t\t\toracle.getPrice(address(token)...\n      JUMPI \t\t\toracle.getPrice(address(token)...\n      RETURNDATASIZE \t\t\toracle.getPrice(address(token)...\n      PUSH 0\t\t\toracle.getPrice(address(token)...\n      DUP1 \t\t\toracle.getPrice(address(token)...\n      RETURNDATACOPY \t\t\toracle.getPrice(address(token)...\n      RETURNDATASIZE \t\t\toracle.getPrice(address(token)...\n      PUSH 0\t\t\toracle.getPrice(address(token)...\n      REVERT \t\t\toracle.getPrice(address(token)...\n    tag 101\t\t\toracle.getPrice(address(token)...\n      JUMPDEST \t\t\toracle.getPrice(address(token)...\n      POP \t\t\toracle.getPrice(address(token)...\n      POP \t\t\toracle.getPrice(address(token)...\n      POP \t\t\toracle.getPrice(address(token)...\n      POP \t\t\toracle.getPrice(address(token)...\n      PUSH 40\t\t\toracle.getPrice(address(token)...\n      MLOAD \t\t\toracle.getPrice(address(token)...\n      RETURNDATASIZE \t\t\toracle.getPrice(address(token)...\n      PUSH 1F\t\t\toracle.getPrice(address(token)...\n      NOT \t\t\toracle.getPrice(address(token)...\n      PUSH 1F\t\t\toracle.getPrice(address(token)...\n      DUP3 \t\t\toracle.getPrice(address(token)...\n      ADD \t\t\toracle.getPrice(address(token)...\n      AND \t\t\toracle.getPrice(address(token)...\n      DUP3 \t\t\toracle.getPrice(address(token)...\n      ADD \t\t\toracle.getPrice(address(token)...\n      DUP1 \t\t\toracle.getPrice(address(token)...\n      PUSH 40\t\t\toracle.getPrice(address(token)...\n      MSTORE \t\t\toracle.getPrice(address(token)...\n      POP \t\t\toracle.getPrice(address(token)...\n      DUP2 \t\t\toracle.getPrice(address(token)...\n      ADD \t\t\toracle.getPrice(address(token)...\n      SWAP1 \t\t\toracle.getPrice(address(token)...\n      PUSH [tag] 102\t\t\toracle.getPrice(address(token)...\n      SWAP2 \t\t\toracle.getPrice(address(token)...\n      SWAP1 \t\t\toracle.getPrice(address(token)...\n      PUSH [tag] 103\t\t\toracle.getPrice(address(token)...\n      JUMP \t\t\toracle.getPrice(address(token)...\n    tag 102\t\t\toracle.getPrice(address(token)...\n      JUMPDEST \t\t\toracle.getPrice(address(token)...\n      SWAP1 \t\t\tuint256 currentPrice = oracle....\n      POP \t\t\tuint256 currentPrice = oracle....\n      DUP5 \t\t\tdesiredPrice\n      DUP2 \t\t\tcurrentPrice\n      SUB \t\t\tcurrentPrice == desiredPrice\n      PUSH [tag] 104\t\t\tif (currentPrice == desiredPri...\n      JUMPI \t\t\tif (currentPrice == desiredPri...\n      PUSH [tag] 105\t\t\texecuteBatchTransfer(tokenAddr...\n      DUP9 \t\t\ttokenAddress\n      DUP9 \t\t\trecipients\n      DUP9 \t\t\tamounts\n      DUP6 \t\t\tspender\n      PUSH [tag] 106\t\t\texecuteBatchTransfer\n      JUMP \t\t\texecuteBatchTransfer(tokenAddr...\n    tag 105\t\t\texecuteBatchTransfer(tokenAddr...\n      JUMPDEST \t\t\texecuteBatchTransfer(tokenAddr...\n      PUSH [tag] 107\t\t\tif (currentPrice == desiredPri...\n      JUMP \t\t\tif (currentPrice == desiredPri...\n    tag 104\t\t\tif (currentPrice == desiredPri...\n      JUMPDEST \t\t\tif (currentPrice == desiredPri...\n      PUSH 0\t\t\tbytes memory data\n      DUP9 \t\t\ttokenAddress\n      DUP9 \t\t\trecipients\n      DUP9 \t\t\tamounts\n      DUP9 \t\t\tdesiredPrice\n      DUP9 \t\t\tinterval\n      DUP8 \t\t\tspender\n      PUSH 40\t\t\tabi.encodeWithSignature(\\r\\n  ...\n      MLOAD \t\t\tabi.encodeWithSignature(\\r\\n  ...\n      PUSH 24\t\t\tabi.encodeWithSignature(\\r\\n  ...\n      ADD \t\t\tabi.encodeWithSignature(\\r\\n  ...\n      PUSH [tag] 108\t\t\tabi.encodeWithSignature(\\r\\n  ...\n      SWAP7 \t\t\tabi.encodeWithSignature(\\r\\n  ...\n      SWAP6 \t\t\tabi.encodeWithSignature(\\r\\n  ...\n      SWAP5 \t\t\tabi.encodeWithSignature(\\r\\n  ...\n      SWAP4 \t\t\tabi.encodeWithSignature(\\r\\n  ...\n      SWAP3 \t\t\tabi.encodeWithSignature(\\r\\n  ...\n      SWAP2 \t\t\tabi.encodeWithSignature(\\r\\n  ...\n      SWAP1 \t\t\tabi.encodeWithSignature(\\r\\n  ...\n      PUSH [tag] 109\t\t\tabi.encodeWithSignature(\\r\\n  ...\n      JUMP \t\t\tabi.encodeWithSignature(\\r\\n  ...\n    tag 108\t\t\tabi.encodeWithSignature(\\r\\n  ...\n      JUMPDEST \t\t\tabi.encodeWithSignature(\\r\\n  ...\n      PUSH 40\t\t\tabi.encodeWithSignature(\\r\\n  ...\n      MLOAD \t\t\tabi.encodeWithSignature(\\r\\n  ...\n      PUSH 20\t\t\tabi.encodeWithSignature(\\r\\n  ...\n      DUP2 \t\t\tabi.encodeWithSignature(\\r\\n  ...\n      DUP4 \t\t\tabi.encodeWithSignature(\\r\\n  ...\n      SUB \t\t\tabi.encodeWithSignature(\\r\\n  ...\n      SUB \t\t\tabi.encodeWithSignature(\\r\\n  ...\n      DUP2 \t\t\tabi.encodeWithSignature(\\r\\n  ...\n      MSTORE \t\t\tabi.encodeWithSignature(\\r\\n  ...\n      SWAP1 \t\t\tabi.encodeWithSignature(\\r\\n  ...\n      PUSH 40\t\t\tabi.encodeWithSignature(\\r\\n  ...\n      MSTORE \t\t\tabi.encodeWithSignature(\\r\\n  ...\n      PUSH AB54B1BA00000000000000000000000000000000000000000000000000000000\t\t\tabi.encodeWithSignature(\\r\\n  ...\n      PUSH FFFFFFFFFFFFFFFFFFFFFFFFFFFFFFFFFFFFFFFFFFFFFFFFFFFFFFFF\t\t\tabi.encodeWithSignature(\\r\\n  ...\n      NOT \t\t\tabi.encodeWithSignature(\\r\\n  ...\n      AND \t\t\tabi.encodeWithSignature(\\r\\n  ...\n      PUSH 20\t\t\tabi.encodeWithSignature(\\r\\n  ...\n      DUP3 \t\t\tabi.encodeWithSignature(\\r\\n  ...\n      ADD \t\t\tabi.encodeWithSignature(\\r\\n  ...\n      DUP1 \t\t\tabi.encodeWithSignature(\\r\\n  ...\n      MLOAD \t\t\tabi.encodeWithSignature(\\r\\n  ...\n      PUSH FFFFFFFFFFFFFFFFFFFFFFFFFFFFFFFFFFFFFFFFFFFFFFFFFFFFFFFF\t\t\tabi.encodeWithSignature(\\r\\n  ...\n      DUP4 \t\t\tabi.encodeWithSignature(\\r\\n  ...\n      DUP2 \t\t\tabi.encodeWithSignature(\\r\\n  ...\n      DUP4 \t\t\tabi.encodeWithSignature(\\r\\n  ...\n      AND \t\t\tabi.encodeWithSignature(\\r\\n  ...\n      OR \t\t\tabi.encodeWithSignature(\\r\\n  ...\n      DUP4 \t\t\tabi.encodeWithSignature(\\r\\n  ...\n      MSTORE \t\t\tabi.encodeWithSignature(\\r\\n  ...\n      POP \t\t\tabi.encodeWithSignature(\\r\\n  ...\n      POP \t\t\tabi.encodeWithSignature(\\r\\n  ...\n      POP \t\t\tabi.encodeWithSignature(\\r\\n  ...\n      POP \t\t\tabi.encodeWithSignature(\\r\\n  ...\n      SWAP1 \t\t\tbytes memory data = abi.encode...\n      POP \t\t\tbytes memory data = abi.encode...\n      PUSH 0\t\t\tbytes memory scheduleId\n      DUP1 \t\t\tscheduler\n      PUSH 0\t\t\tscheduler\n      SWAP1 \t\t\tscheduler\n      SLOAD \t\t\tscheduler\n      SWAP1 \t\t\tscheduler\n      PUSH 100\t\t\tscheduler\n      EXP \t\t\tscheduler\n      SWAP1 \t\t\tscheduler\n      DIV \t\t\tscheduler\n      PUSH FFFFFFFFFFFFFFFFFFFFFFFFFFFFFFFFFFFFFFFF\t\t\tscheduler\n      AND \t\t\tscheduler\n      PUSH FFFFFFFFFFFFFFFFFFFFFFFFFFFFFFFFFFFFFFFF\t\t\tscheduler.scheduleCall\n      AND \t\t\tscheduler.scheduleCall\n      PUSH 168D560D\t\t\tscheduler.scheduleCall\n      ADDRESS \t\t\tthis\n      PUSH 0\t\t\t0\n      PUSH 200B20\t\t\t2100000\n      PUSH FA00\t\t\t64000\n      DUP12 \t\t\tinterval\n      DUP9 \t\t\tdata\n      PUSH 40\t\t\tscheduler.scheduleCall(address...\n      MLOAD \t\t\tscheduler.scheduleCall(address...\n      DUP8 \t\t\tscheduler.scheduleCall(address...\n      PUSH FFFFFFFF\t\t\tscheduler.scheduleCall(address...\n      AND \t\t\tscheduler.scheduleCall(address...\n      PUSH E0\t\t\tscheduler.scheduleCall(address...\n      SHL \t\t\tscheduler.scheduleCall(address...\n      DUP2 \t\t\tscheduler.scheduleCall(address...\n      MSTORE \t\t\tscheduler.scheduleCall(address...\n      PUSH 4\t\t\tscheduler.scheduleCall(address...\n      ADD \t\t\tscheduler.scheduleCall(address...\n      PUSH [tag] 110\t\t\tscheduler.scheduleCall(address...\n      SWAP7 \t\t\tscheduler.scheduleCall(address...\n      SWAP6 \t\t\tscheduler.scheduleCall(address...\n      SWAP5 \t\t\tscheduler.scheduleCall(address...\n      SWAP4 \t\t\tscheduler.scheduleCall(address...\n      SWAP3 \t\t\tscheduler.scheduleCall(address...\n      SWAP2 \t\t\tscheduler.scheduleCall(address...\n      SWAP1 \t\t\tscheduler.scheduleCall(address...\n      PUSH [tag] 48\t\t\tscheduler.scheduleCall(address...\n      JUMP \t\t\tscheduler.scheduleCall(address...\n    tag 110\t\t\tscheduler.scheduleCall(address...\n      JUMPDEST \t\t\tscheduler.scheduleCall(address...\n      PUSH 0\t\t\tscheduler.scheduleCall(address...\n      PUSH 40\t\t\tscheduler.scheduleCall(address...\n      MLOAD \t\t\tscheduler.scheduleCall(address...\n      DUP1 \t\t\tscheduler.scheduleCall(address...\n      DUP4 \t\t\tscheduler.scheduleCall(address...\n      SUB \t\t\tscheduler.scheduleCall(address...\n      DUP2 \t\t\tscheduler.scheduleCall(address...\n      PUSH 0\t\t\tscheduler.scheduleCall(address...\n      DUP8 \t\t\tscheduler.scheduleCall(address...\n      GAS \t\t\tscheduler.scheduleCall(address...\n      CALL \t\t\tscheduler.scheduleCall(address...\n      ISZERO \t\t\tscheduler.scheduleCall(address...\n      DUP1 \t\t\tscheduler.scheduleCall(address...\n      ISZERO \t\t\tscheduler.scheduleCall(address...\n      PUSH [tag] 112\t\t\tscheduler.scheduleCall(address...\n      JUMPI \t\t\tscheduler.scheduleCall(address...\n      RETURNDATASIZE \t\t\tscheduler.scheduleCall(address...\n      PUSH 0\t\t\tscheduler.scheduleCall(address...\n      DUP1 \t\t\tscheduler.scheduleCall(address...\n      RETURNDATACOPY \t\t\tscheduler.scheduleCall(address...\n      RETURNDATASIZE \t\t\tscheduler.scheduleCall(address...\n      PUSH 0\t\t\tscheduler.scheduleCall(address...\n      REVERT \t\t\tscheduler.scheduleCall(address...\n    tag 112\t\t\tscheduler.scheduleCall(address...\n      JUMPDEST \t\t\tscheduler.scheduleCall(address...\n      POP \t\t\tscheduler.scheduleCall(address...\n      POP \t\t\tscheduler.scheduleCall(address...\n      POP \t\t\tscheduler.scheduleCall(address...\n      POP \t\t\tscheduler.scheduleCall(address...\n      PUSH 40\t\t\tscheduler.scheduleCall(address...\n      MLOAD \t\t\tscheduler.scheduleCall(address...\n      RETURNDATASIZE \t\t\tscheduler.scheduleCall(address...\n      PUSH 0\t\t\tscheduler.scheduleCall(address...\n      DUP3 \t\t\tscheduler.scheduleCall(address...\n      RETURNDATACOPY \t\t\tscheduler.scheduleCall(address...\n      RETURNDATASIZE \t\t\tscheduler.scheduleCall(address...\n      PUSH 1F\t\t\tscheduler.scheduleCall(address...\n      NOT \t\t\tscheduler.scheduleCall(address...\n      PUSH 1F\t\t\tscheduler.scheduleCall(address...\n      DUP3 \t\t\tscheduler.scheduleCall(address...\n      ADD \t\t\tscheduler.scheduleCall(address...\n      AND \t\t\tscheduler.scheduleCall(address...\n      DUP3 \t\t\tscheduler.scheduleCall(address...\n      ADD \t\t\tscheduler.scheduleCall(address...\n      DUP1 \t\t\tscheduler.scheduleCall(address...\n      PUSH 40\t\t\tscheduler.scheduleCall(address...\n      MSTORE \t\t\tscheduler.scheduleCall(address...\n      POP \t\t\tscheduler.scheduleCall(address...\n      DUP2 \t\t\tscheduler.scheduleCall(address...\n      ADD \t\t\tscheduler.scheduleCall(address...\n      SWAP1 \t\t\tscheduler.scheduleCall(address...\n      PUSH [tag] 113\t\t\tscheduler.scheduleCall(address...\n      SWAP2 \t\t\tscheduler.scheduleCall(address...\n      SWAP1 \t\t\tscheduler.scheduleCall(address...\n      PUSH [tag] 52\t\t\tscheduler.scheduleCall(address...\n      JUMP \t\t\tscheduler.scheduleCall(address...\n    tag 113\t\t\tscheduler.scheduleCall(address...\n      JUMPDEST \t\t\tscheduler.scheduleCall(address...\n      SWAP1 \t\t\tbytes memory scheduleId = sche...\n      POP \t\t\tbytes memory scheduleId = sche...\n      DUP1 \t\t\tscheduleId\n      PUSH 40\t\t\tPriceCheckScheduled(scheduleId...\n      MLOAD \t\t\tPriceCheckScheduled(scheduleId...\n      PUSH [tag] 114\t\t\tPriceCheckScheduled(scheduleId...\n      SWAP2 \t\t\tPriceCheckScheduled(scheduleId...\n      SWAP1 \t\t\tPriceCheckScheduled(scheduleId...\n      PUSH [tag] 54\t\t\tPriceCheckScheduled(scheduleId...\n      JUMP \t\t\tPriceCheckScheduled(scheduleId...\n    tag 114\t\t\tPriceCheckScheduled(scheduleId...\n      JUMPDEST \t\t\tPriceCheckScheduled(scheduleId...\n      PUSH 40\t\t\tPriceCheckScheduled(scheduleId...\n      MLOAD \t\t\tPriceCheckScheduled(scheduleId...\n      DUP1 \t\t\tPriceCheckScheduled(scheduleId...\n      SWAP2 \t\t\tPriceCheckScheduled(scheduleId...\n      SUB \t\t\tPriceCheckScheduled(scheduleId...\n      SWAP1 \t\t\tPriceCheckScheduled(scheduleId...\n      KECCAK256 \t\t\tPriceCheckScheduled(scheduleId...\n      PUSH 9E989CCC644AFF3DCCB44D63C0125CF7C49F64C9631016543486E7DFC72187C7\t\t\tPriceCheckScheduled(scheduleId...\n      DUP8 \t\t\tinterval\n      TIMESTAMP \t\t\tblock.timestamp\n      PUSH [tag] 115\t\t\tblock.timestamp + interval\n      SWAP2 \t\t\tblock.timestamp + interval\n      SWAP1 \t\t\tblock.timestamp + interval\n      PUSH [tag] 33\t\t\tblock.timestamp + interval\n      JUMP \t\t\tblock.timestamp + interval\n    tag 115\t\t\tblock.timestamp + interval\n      JUMPDEST \t\t\tblock.timestamp + interval\n      PUSH 40\t\t\tPriceCheckScheduled(scheduleId...\n      MLOAD \t\t\tPriceCheckScheduled(scheduleId...\n      PUSH [tag] 116\t\t\tPriceCheckScheduled(scheduleId...\n      SWAP2 \t\t\tPriceCheckScheduled(scheduleId...\n      SWAP1 \t\t\tPriceCheckScheduled(scheduleId...\n      PUSH [tag] 95\t\t\tPriceCheckScheduled(scheduleId...\n      JUMP \t\t\tPriceCheckScheduled(scheduleId...\n    tag 116\t\t\tPriceCheckScheduled(scheduleId...\n      JUMPDEST \t\t\tPriceCheckScheduled(scheduleId...\n      PUSH 40\t\t\tPriceCheckScheduled(scheduleId...\n      MLOAD \t\t\tPriceCheckScheduled(scheduleId...\n      DUP1 \t\t\tPriceCheckScheduled(scheduleId...\n      SWAP2 \t\t\tPriceCheckScheduled(scheduleId...\n      SUB \t\t\tPriceCheckScheduled(scheduleId...\n      SWAP1 \t\t\tPriceCheckScheduled(scheduleId...\n      LOG2 \t\t\tPriceCheckScheduled(scheduleId...\n      POP \t\t\t{\\r\\n            bytes memory ...\n      POP \t\t\t{\\r\\n            bytes memory ...\n    tag 107\t\t\tif (currentPrice == desiredPri...\n      JUMPDEST \t\t\tif (currentPrice == desiredPri...\n      POP \t\t\t{\\r\\n        IERC20 token = IE...\n      POP \t\t\t{\\r\\n        IERC20 token = IE...\n      POP \t\t\t{\\r\\n        IERC20 token = IE...\n      POP \t\t\tfunction priceTriggeredDispers...\n      POP \t\t\tfunction priceTriggeredDispers...\n      POP \t\t\tfunction priceTriggeredDispers...\n      POP \t\t\tfunction priceTriggeredDispers...\n      POP \t\t\tfunction priceTriggeredDispers...\n      JUMP \t\t\tfunction priceTriggeredDispers...\n    tag 106\t\t\tfunction executeBatchTransfer(...\n      JUMPDEST \t\t\tfunction executeBatchTransfer(...\n      PUSH 0\t\t\tIERC20 token\n      DUP5 \t\t\ttokenAddress\n      SWAP1 \t\t\tIERC20 token = IERC20(tokenAdd...\n      POP \t\t\tIERC20 token = IERC20(tokenAdd...\n      DUP3 \t\t\tamounts\n      MLOAD \t\t\tamounts.length\n      DUP5 \t\t\trecipients\n      MLOAD \t\t\trecipients.length\n      EQ \t\t\trecipients.length == amounts.l...\n      PUSH [tag] 118\t\t\trequire(recipients.length == a...\n      JUMPI \t\t\trequire(recipients.length == a...\n      PUSH 40\t\t\trequire(recipients.length == a...\n      MLOAD \t\t\trequire(recipients.length == a...\n      PUSH 8C379A000000000000000000000000000000000000000000000000000000000\t\t\trequire(recipients.length == a...\n      DUP2 \t\t\trequire(recipients.length == a...\n      MSTORE \t\t\trequire(recipients.length == a...\n      PUSH 4\t\t\trequire(recipients.length == a...\n      ADD \t\t\trequire(recipients.length == a...\n      PUSH [tag] 119\t\t\trequire(recipients.length == a...\n      SWAP1 \t\t\trequire(recipients.length == a...\n      PUSH [tag] 120\t\t\trequire(recipients.length == a...\n      JUMP \t\t\trequire(recipients.length == a...\n    tag 119\t\t\trequire(recipients.length == a...\n      JUMPDEST \t\t\trequire(recipients.length == a...\n      PUSH 40\t\t\trequire(recipients.length == a...\n      MLOAD \t\t\trequire(recipients.length == a...\n      DUP1 \t\t\trequire(recipients.length == a...\n      SWAP2 \t\t\trequire(recipients.length == a...\n      SUB \t\t\trequire(recipients.length == a...\n      SWAP1 \t\t\trequire(recipients.length == a...\n      REVERT \t\t\trequire(recipients.length == a...\n    tag 118\t\t\trequire(recipients.length == a...\n      JUMPDEST \t\t\trequire(recipients.length == a...\n      PUSH 0\t\t\tuint256 totalAmount\n      DUP1 \t\t\tuint256 i\n    tag 121\t\t\tfor (uint256 i = 0; i < amount...\n      JUMPDEST \t\t\tfor (uint256 i = 0; i < amount...\n      DUP5 \t\t\tamounts\n      MLOAD \t\t\tamounts.length\n      DUP2 \t\t\ti\n      LT \t\t\ti < amounts.length\n      ISZERO \t\t\tfor (uint256 i = 0; i < amount...\n      PUSH [tag] 122\t\t\tfor (uint256 i = 0; i < amount...\n      JUMPI \t\t\tfor (uint256 i = 0; i < amount...\n      DUP5 \t\t\tamounts\n      DUP2 \t\t\ti\n      DUP2 \t\t\tamounts[i]\n      MLOAD \t\t\tamounts[i]\n      DUP2 \t\t\tamounts[i]\n      LT \t\t\tamounts[i]\n      PUSH [tag] 124\t\t\tamounts[i]\n      JUMPI \t\t\tamounts[i]\n      PUSH [tag] 125\t\t\tamounts[i]\n      PUSH [tag] 31\t\t\tamounts[i]\n      JUMP \t\t\tamounts[i]\n    tag 125\t\t\tamounts[i]\n      JUMPDEST \t\t\tamounts[i]\n    tag 124\t\t\tamounts[i]\n      JUMPDEST \t\t\tamounts[i]\n      PUSH 20\t\t\tamounts[i]\n      MUL \t\t\tamounts[i]\n      PUSH 20\t\t\tamounts[i]\n      ADD \t\t\tamounts[i]\n      ADD \t\t\tamounts[i]\n      MLOAD \t\t\tamounts[i]\n      DUP3 \t\t\ttotalAmount += amounts[i]\n      PUSH [tag] 126\t\t\ttotalAmount += amounts[i]\n      SWAP2 \t\t\ttotalAmount += amounts[i]\n      SWAP1 \t\t\ttotalAmount += amounts[i]\n      PUSH [tag] 33\t\t\ttotalAmount += amounts[i]\n      JUMP \t\t\ttotalAmount += amounts[i]\n    tag 126\t\t\ttotalAmount += amounts[i]\n      JUMPDEST \t\t\ttotalAmount += amounts[i]\n      SWAP2 \t\t\ttotalAmount += amounts[i]\n      POP \t\t\ttotalAmount += amounts[i]\n      DUP1 \t\t\ti++\n      DUP1 \t\t\ti++\n      PUSH [tag] 127\t\t\ti++\n      SWAP1 \t\t\ti++\n      PUSH [tag] 35\t\t\ti++\n      JUMP \t\t\ti++\n    tag 127\t\t\ti++\n      JUMPDEST \t\t\ti++\n      SWAP2 \t\t\ti++\n      POP \t\t\ti++\n      POP \t\t\ti++\n      PUSH [tag] 121\t\t\tfor (uint256 i = 0; i < amount...\n      JUMP \t\t\tfor (uint256 i = 0; i < amount...\n    tag 122\t\t\tfor (uint256 i = 0; i < amount...\n      JUMPDEST \t\t\tfor (uint256 i = 0; i < amount...\n      POP \t\t\tfor (uint256 i = 0; i < amount...\n      DUP2 \t\t\ttoken\n      PUSH FFFFFFFFFFFFFFFFFFFFFFFFFFFFFFFFFFFFFFFF\t\t\ttoken.transferFrom\n      AND \t\t\ttoken.transferFrom\n      PUSH 23B872DD\t\t\ttoken.transferFrom\n      DUP5 \t\t\tspender\n      ADDRESS \t\t\tthis\n      DUP5 \t\t\ttotalAmount\n      PUSH 40\t\t\ttoken.transferFrom(spender, ad...\n      MLOAD \t\t\ttoken.transferFrom(spender, ad...\n      DUP5 \t\t\ttoken.transferFrom(spender, ad...\n      PUSH FFFFFFFF\t\t\ttoken.transferFrom(spender, ad...\n      AND \t\t\ttoken.transferFrom(spender, ad...\n      PUSH E0\t\t\ttoken.transferFrom(spender, ad...\n      SHL \t\t\ttoken.transferFrom(spender, ad...\n      DUP2 \t\t\ttoken.transferFrom(spender, ad...\n      MSTORE \t\t\ttoken.transferFrom(spender, ad...\n      PUSH 4\t\t\ttoken.transferFrom(spender, ad...\n      ADD \t\t\ttoken.transferFrom(spender, ad...\n      PUSH [tag] 128\t\t\ttoken.transferFrom(spender, ad...\n      SWAP4 \t\t\ttoken.transferFrom(spender, ad...\n      SWAP3 \t\t\ttoken.transferFrom(spender, ad...\n      SWAP2 \t\t\ttoken.transferFrom(spender, ad...\n      SWAP1 \t\t\ttoken.transferFrom(spender, ad...\n      PUSH [tag] 37\t\t\ttoken.transferFrom(spender, ad...\n      JUMP \t\t\ttoken.transferFrom(spender, ad...\n    tag 128\t\t\ttoken.transferFrom(spender, ad...\n      JUMPDEST \t\t\ttoken.transferFrom(spender, ad...\n      PUSH 20\t\t\ttoken.transferFrom(spender, ad...\n      PUSH 40\t\t\ttoken.transferFrom(spender, ad...\n      MLOAD \t\t\ttoken.transferFrom(spender, ad...\n      DUP1 \t\t\ttoken.transferFrom(spender, ad...\n      DUP4 \t\t\ttoken.transferFrom(spender, ad...\n      SUB \t\t\ttoken.transferFrom(spender, ad...\n      DUP2 \t\t\ttoken.transferFrom(spender, ad...\n      PUSH 0\t\t\ttoken.transferFrom(spender, ad...\n      DUP8 \t\t\ttoken.transferFrom(spender, ad...\n      GAS \t\t\ttoken.transferFrom(spender, ad...\n      CALL \t\t\ttoken.transferFrom(spender, ad...\n      ISZERO \t\t\ttoken.transferFrom(spender, ad...\n      DUP1 \t\t\ttoken.transferFrom(spender, ad...\n      ISZERO \t\t\ttoken.transferFrom(spender, ad...\n      PUSH [tag] 130\t\t\ttoken.transferFrom(spender, ad...\n      JUMPI \t\t\ttoken.transferFrom(spender, ad...\n      RETURNDATASIZE \t\t\ttoken.transferFrom(spender, ad...\n      PUSH 0\t\t\ttoken.transferFrom(spender, ad...\n      DUP1 \t\t\ttoken.transferFrom(spender, ad...\n      RETURNDATACOPY \t\t\ttoken.transferFrom(spender, ad...\n      RETURNDATASIZE \t\t\ttoken.transferFrom(spender, ad...\n      PUSH 0\t\t\ttoken.transferFrom(spender, ad...\n      REVERT \t\t\ttoken.transferFrom(spender, ad...\n    tag 130\t\t\ttoken.transferFrom(spender, ad...\n      JUMPDEST \t\t\ttoken.transferFrom(spender, ad...\n      POP \t\t\ttoken.transferFrom(spender, ad...\n      POP \t\t\ttoken.transferFrom(spender, ad...\n      POP \t\t\ttoken.transferFrom(spender, ad...\n      POP \t\t\ttoken.transferFrom(spender, ad...\n      PUSH 40\t\t\ttoken.transferFrom(spender, ad...\n      MLOAD \t\t\ttoken.transferFrom(spender, ad...\n      RETURNDATASIZE \t\t\ttoken.transferFrom(spender, ad...\n      PUSH 1F\t\t\ttoken.transferFrom(spender, ad...\n      NOT \t\t\ttoken.transferFrom(spender, ad...\n      PUSH 1F\t\t\ttoken.transferFrom(spender, ad...\n      DUP3 \t\t\ttoken.transferFrom(spender, ad...\n      ADD \t\t\ttoken.transferFrom(spender, ad...\n      AND \t\t\ttoken.transferFrom(spender, ad...\n      DUP3 \t\t\ttoken.transferFrom(spender, ad...\n      ADD \t\t\ttoken.transferFrom(spender, ad...\n      DUP1 \t\t\ttoken.transferFrom(spender, ad...\n      PUSH 40\t\t\ttoken.transferFrom(spender, ad...\n      MSTORE \t\t\ttoken.transferFrom(spender, ad...\n      POP \t\t\ttoken.transferFrom(spender, ad...\n      DUP2 \t\t\ttoken.transferFrom(spender, ad...\n      ADD \t\t\ttoken.transferFrom(spender, ad...\n      SWAP1 \t\t\ttoken.transferFrom(spender, ad...\n      PUSH [tag] 131\t\t\ttoken.transferFrom(spender, ad...\n      SWAP2 \t\t\ttoken.transferFrom(spender, ad...\n      SWAP1 \t\t\ttoken.transferFrom(spender, ad...\n      PUSH [tag] 41\t\t\ttoken.transferFrom(spender, ad...\n      JUMP \t\t\ttoken.transferFrom(spender, ad...\n    tag 131\t\t\ttoken.transferFrom(spender, ad...\n      JUMPDEST \t\t\ttoken.transferFrom(spender, ad...\n      PUSH [tag] 132\t\t\trequire(token.transferFrom(spe...\n      JUMPI \t\t\trequire(token.transferFrom(spe...\n      PUSH 40\t\t\trequire(token.transferFrom(spe...\n      MLOAD \t\t\trequire(token.transferFrom(spe...\n      PUSH 8C379A000000000000000000000000000000000000000000000000000000000\t\t\trequire(token.transferFrom(spe...\n      DUP2 \t\t\trequire(token.transferFrom(spe...\n      MSTORE \t\t\trequire(token.transferFrom(spe...\n      PUSH 4\t\t\trequire(token.transferFrom(spe...\n      ADD \t\t\trequire(token.transferFrom(spe...\n      PUSH [tag] 133\t\t\trequire(token.transferFrom(spe...\n      SWAP1 \t\t\trequire(token.transferFrom(spe...\n      PUSH [tag] 89\t\t\trequire(token.transferFrom(spe...\n      JUMP \t\t\trequire(token.transferFrom(spe...\n    tag 133\t\t\trequire(token.transferFrom(spe...\n      JUMPDEST \t\t\trequire(token.transferFrom(spe...\n      PUSH 40\t\t\trequire(token.transferFrom(spe...\n      MLOAD \t\t\trequire(token.transferFrom(spe...\n      DUP1 \t\t\trequire(token.transferFrom(spe...\n      SWAP2 \t\t\trequire(token.transferFrom(spe...\n      SUB \t\t\trequire(token.transferFrom(spe...\n      SWAP1 \t\t\trequire(token.transferFrom(spe...\n      REVERT \t\t\trequire(token.transferFrom(spe...\n    tag 132\t\t\trequire(token.transferFrom(spe...\n      JUMPDEST \t\t\trequire(token.transferFrom(spe...\n      PUSH 0\t\t\tuint256 i\n    tag 134\t\t\tfor (uint256 i = 0; i < recipi...\n      JUMPDEST \t\t\tfor (uint256 i = 0; i < recipi...\n      DUP6 \t\t\trecipients\n      MLOAD \t\t\trecipients.length\n      DUP2 \t\t\ti\n      LT \t\t\ti < recipients.length\n      ISZERO \t\t\tfor (uint256 i = 0; i < recipi...\n      PUSH [tag] 135\t\t\tfor (uint256 i = 0; i < recipi...\n      JUMPI \t\t\tfor (uint256 i = 0; i < recipi...\n      DUP3 \t\t\ttoken\n      PUSH FFFFFFFFFFFFFFFFFFFFFFFFFFFFFFFFFFFFFFFF\t\t\ttoken.transfer\n      AND \t\t\ttoken.transfer\n      PUSH A9059CBB\t\t\ttoken.transfer\n      DUP8 \t\t\trecipients\n      DUP4 \t\t\ti\n      DUP2 \t\t\trecipients[i]\n      MLOAD \t\t\trecipients[i]\n      DUP2 \t\t\trecipients[i]\n      LT \t\t\trecipients[i]\n      PUSH [tag] 137\t\t\trecipients[i]\n      JUMPI \t\t\trecipients[i]\n      PUSH [tag] 138\t\t\trecipients[i]\n      PUSH [tag] 31\t\t\trecipients[i]\n      JUMP \t\t\trecipients[i]\n    tag 138\t\t\trecipients[i]\n      JUMPDEST \t\t\trecipients[i]\n    tag 137\t\t\trecipients[i]\n      JUMPDEST \t\t\trecipients[i]\n      PUSH 20\t\t\trecipients[i]\n      MUL \t\t\trecipients[i]\n      PUSH 20\t\t\trecipients[i]\n      ADD \t\t\trecipients[i]\n      ADD \t\t\trecipients[i]\n      MLOAD \t\t\trecipients[i]\n      DUP8 \t\t\tamounts\n      DUP5 \t\t\ti\n      DUP2 \t\t\tamounts[i]\n      MLOAD \t\t\tamounts[i]\n      DUP2 \t\t\tamounts[i]\n      LT \t\t\tamounts[i]\n      PUSH [tag] 139\t\t\tamounts[i]\n      JUMPI \t\t\tamounts[i]\n      PUSH [tag] 140\t\t\tamounts[i]\n      PUSH [tag] 31\t\t\tamounts[i]\n      JUMP \t\t\tamounts[i]\n    tag 140\t\t\tamounts[i]\n      JUMPDEST \t\t\tamounts[i]\n    tag 139\t\t\tamounts[i]\n      JUMPDEST \t\t\tamounts[i]\n      PUSH 20\t\t\tamounts[i]\n      MUL \t\t\tamounts[i]\n      PUSH 20\t\t\tamounts[i]\n      ADD \t\t\tamounts[i]\n      ADD \t\t\tamounts[i]\n      MLOAD \t\t\tamounts[i]\n      PUSH 40\t\t\ttoken.transfer(recipients[i], ...\n      MLOAD \t\t\ttoken.transfer(recipients[i], ...\n      DUP4 \t\t\ttoken.transfer(recipients[i], ...\n      PUSH FFFFFFFF\t\t\ttoken.transfer(recipients[i], ...\n      AND \t\t\ttoken.transfer(recipients[i], ...\n      PUSH E0\t\t\ttoken.transfer(recipients[i], ...\n      SHL \t\t\ttoken.transfer(recipients[i], ...\n      DUP2 \t\t\ttoken.transfer(recipients[i], ...\n      MSTORE \t\t\ttoken.transfer(recipients[i], ...\n      PUSH 4\t\t\ttoken.transfer(recipients[i], ...\n      ADD \t\t\ttoken.transfer(recipients[i], ...\n      PUSH [tag] 141\t\t\ttoken.transfer(recipients[i], ...\n      SWAP3 \t\t\ttoken.transfer(recipients[i], ...\n      SWAP2 \t\t\ttoken.transfer(recipients[i], ...\n      SWAP1 \t\t\ttoken.transfer(recipients[i], ...\n      PUSH [tag] 83\t\t\ttoken.transfer(recipients[i], ...\n      JUMP \t\t\ttoken.transfer(recipients[i], ...\n    tag 141\t\t\ttoken.transfer(recipients[i], ...\n      JUMPDEST \t\t\ttoken.transfer(recipients[i], ...\n      PUSH 20\t\t\ttoken.transfer(recipients[i], ...\n      PUSH 40\t\t\ttoken.transfer(recipients[i], ...\n      MLOAD \t\t\ttoken.transfer(recipients[i], ...\n      DUP1 \t\t\ttoken.transfer(recipients[i], ...\n      DUP4 \t\t\ttoken.transfer(recipients[i], ...\n      SUB \t\t\ttoken.transfer(recipients[i], ...\n      DUP2 \t\t\ttoken.transfer(recipients[i], ...\n      PUSH 0\t\t\ttoken.transfer(recipients[i], ...\n      DUP8 \t\t\ttoken.transfer(recipients[i], ...\n      GAS \t\t\ttoken.transfer(recipients[i], ...\n      CALL \t\t\ttoken.transfer(recipients[i], ...\n      ISZERO \t\t\ttoken.transfer(recipients[i], ...\n      DUP1 \t\t\ttoken.transfer(recipients[i], ...\n      ISZERO \t\t\ttoken.transfer(recipients[i], ...\n      PUSH [tag] 143\t\t\ttoken.transfer(recipients[i], ...\n      JUMPI \t\t\ttoken.transfer(recipients[i], ...\n      RETURNDATASIZE \t\t\ttoken.transfer(recipients[i], ...\n      PUSH 0\t\t\ttoken.transfer(recipients[i], ...\n      DUP1 \t\t\ttoken.transfer(recipients[i], ...\n      RETURNDATACOPY \t\t\ttoken.transfer(recipients[i], ...\n      RETURNDATASIZE \t\t\ttoken.transfer(recipients[i], ...\n      PUSH 0\t\t\ttoken.transfer(recipients[i], ...\n      REVERT \t\t\ttoken.transfer(recipients[i], ...\n    tag 143\t\t\ttoken.transfer(recipients[i], ...\n      JUMPDEST \t\t\ttoken.transfer(recipients[i], ...\n      POP \t\t\ttoken.transfer(recipients[i], ...\n      POP \t\t\ttoken.transfer(recipients[i], ...\n      POP \t\t\ttoken.transfer(recipients[i], ...\n      POP \t\t\ttoken.transfer(recipients[i], ...\n      PUSH 40\t\t\ttoken.transfer(recipients[i], ...\n      MLOAD \t\t\ttoken.transfer(recipients[i], ...\n      RETURNDATASIZE \t\t\ttoken.transfer(recipients[i], ...\n      PUSH 1F\t\t\ttoken.transfer(recipients[i], ...\n      NOT \t\t\ttoken.transfer(recipients[i], ...\n      PUSH 1F\t\t\ttoken.transfer(recipients[i], ...\n      DUP3 \t\t\ttoken.transfer(recipients[i], ...\n      ADD \t\t\ttoken.transfer(recipients[i], ...\n      AND \t\t\ttoken.transfer(recipients[i], ...\n      DUP3 \t\t\ttoken.transfer(recipients[i], ...\n      ADD \t\t\ttoken.transfer(recipients[i], ...\n      DUP1 \t\t\ttoken.transfer(recipients[i], ...\n      PUSH 40\t\t\ttoken.transfer(recipients[i], ...\n      MSTORE \t\t\ttoken.transfer(recipients[i], ...\n      POP \t\t\ttoken.transfer(recipients[i], ...\n      DUP2 \t\t\ttoken.transfer(recipients[i], ...\n      ADD \t\t\ttoken.transfer(recipients[i], ...\n      SWAP1 \t\t\ttoken.transfer(recipients[i], ...\n      PUSH [tag] 144\t\t\ttoken.transfer(recipients[i], ...\n      SWAP2 \t\t\ttoken.transfer(recipients[i], ...\n      SWAP1 \t\t\ttoken.transfer(recipients[i], ...\n      PUSH [tag] 41\t\t\ttoken.transfer(recipients[i], ...\n      JUMP \t\t\ttoken.transfer(recipients[i], ...\n    tag 144\t\t\ttoken.transfer(recipients[i], ...\n      JUMPDEST \t\t\ttoken.transfer(recipients[i], ...\n      POP \t\t\ttoken.transfer(recipients[i], ...\n      DUP1 \t\t\ti++\n      DUP1 \t\t\ti++\n      PUSH [tag] 145\t\t\ti++\n      SWAP1 \t\t\ti++\n      PUSH [tag] 35\t\t\ti++\n      JUMP \t\t\ti++\n    tag 145\t\t\ti++\n      JUMPDEST \t\t\ti++\n      SWAP2 \t\t\ti++\n      POP \t\t\ti++\n      POP \t\t\ti++\n      PUSH [tag] 134\t\t\tfor (uint256 i = 0; i < recipi...\n      JUMP \t\t\tfor (uint256 i = 0; i < recipi...\n    tag 135\t\t\tfor (uint256 i = 0; i < recipi...\n      JUMPDEST \t\t\tfor (uint256 i = 0; i < recipi...\n      POP \t\t\tfor (uint256 i = 0; i < recipi...\n      POP \t\t\t{\\r\\n        IERC20 token = IE...\n      POP \t\t\t{\\r\\n        IERC20 token = IE...\n      POP \t\t\tfunction executeBatchTransfer(...\n      POP \t\t\tfunction executeBatchTransfer(...\n      POP \t\t\tfunction executeBatchTransfer(...\n      POP \t\t\tfunction executeBatchTransfer(...\n      JUMP \t\t\tfunction executeBatchTransfer(...\n    tag 146\t\t\t-License-Identifier: MIT\\r\\n\\r...\n      JUMPDEST \t\t\t-License-Identifier: MIT\\r\\n\\r...\n      PUSH 0\t\t\tt \"@op\n      PUSH 40\t\t\tER\n      MLOAD \t\t\ttoken/ERC\n      SWAP1 \t\t\tcontracts/token/ERC\n      POP \t\t\tcontracts/token/ERC\n      SWAP1 \t\t\t-License-Identifier: MIT\\r\\n\\r...\n      JUMP \t\t\t-License-Identifier: MIT\\r\\n\\r...\n    tag 147\t\t\tl\";\\r\\nimport \"@acala-network/...\n      JUMPDEST \t\t\tl\";\\r\\nimport \"@acala-network/...\n      PUSH 0\t\t\tl\n      DUP1 \t\t\tr\n      REVERT \t\t\tacle/IOracle\n    tag 148\t\t\trt \"@acala-network/contracts/u...\n      JUMPDEST \t\t\trt \"@acala-network/contracts/u...\n      PUSH 0\t\t\t\\n\n      DUP1 \t\t\t\"\n      REVERT \t\t\tens.sol\";\\r\\n\\r\n    tag 149\t\t\tdity ^0.8.0;\\r\\n\\r\\ncontract D...\n      JUMPDEST \t\t\tdity ^0.8.0;\\r\\n\\r\\ncontract D...\n      PUSH 0\t\t\t    con\n      PUSH FFFFFFFFFFFFFFFFFFFFFFFFFFFFFFFFFFFFFFFF\t\t\tdule  scheduler = ISchedule(SC...\n      DUP3 \t\t\t  ISc\n      AND \t\t\t\\r\\n    ISchedule  scheduler =...\n      SWAP1 \t\t\tpayable{}\\r\\n\\r\\n    ISchedule...\n      POP \t\t\tpayable{}\\r\\n\\r\\n    ISchedule...\n      SWAP2 \t\t\tdity ^0.8.0;\\r\\n\\r\\ncontract D...\n      SWAP1 \t\t\tdity ^0.8.0;\\r\\n\\r\\ncontract D...\n      POP \t\t\tdity ^0.8.0;\\r\\n\\r\\ncontract D...\n      JUMP \t\t\tdity ^0.8.0;\\r\\n\\r\\ncontract D...\n    tag 150\t\t\tcle = IOracle(ORACLE);\\r\\n\\r\\n...\n      JUMPDEST \t\t\tcle = IOracle(ORACLE);\\r\\n\\r\\n...\n      PUSH 0\t\t\tk() ext\n      PUSH [tag] 226\t\t\teceive() external payabl\n      DUP3 \t\t\tpayab\n      PUSH [tag] 149\t\t\teceive() external payabl\n      JUMP \t\t\teceive() external payabl\n    tag 226\t\t\teceive() external payabl\n      JUMPDEST \t\t\teceive() external payabl\n      SWAP1 \t\t\tle{}\\r\\n    receive() external...\n      POP \t\t\tle{}\\r\\n    receive() external...\n      SWAP2 \t\t\tcle = IOracle(ORACLE);\\r\\n\\r\\n...\n      SWAP1 \t\t\tcle = IOracle(ORACLE);\\r\\n\\r\\n...\n      POP \t\t\tcle = IOracle(ORACLE);\\r\\n\\r\\n...\n      JUMP \t\t\tcle = IOracle(ORACLE);\\r\\n\\r\\n...\n    tag 151\t\t\tvent Erc20BatchTransfer(uint25...\n      JUMPDEST \t\t\tvent Erc20BatchTransfer(uint25...\n      PUSH [tag] 228\t\t\tecipient, uint256 amount\n      DUP2 \t\t\tamoun\n      PUSH [tag] 150\t\t\tecipient, uint256 amount\n      JUMP \t\t\tecipient, uint256 amount\n    tag 228\t\t\tecipient, uint256 amount\n      JUMPDEST \t\t\tecipient, uint256 amount\n      DUP2 \t\t\tdexed\n      EQ \t\t\t indexed recipient, uint256 am...\n      PUSH [tag] 229\t\t\tx, address indexed recipient, ...\n      JUMPI \t\t\tx, address indexed recipient, ...\n      PUSH 0\t\t\tr\n      DUP1 \t\t\tt\n      REVERT \t\t\t   event Tra\n    tag 229\t\t\tx, address indexed recipient, ...\n      JUMPDEST \t\t\tx, address indexed recipient, ...\n      POP \t\t\tvent Erc20BatchTransfer(uint25...\n      JUMP \t\t\tvent Erc20BatchTransfer(uint25...\n    tag 152\t\t\t(bytes indexed scheduleId, add...\n      JUMPDEST \t\t\t(bytes indexed scheduleId, add...\n      PUSH 0\t\t\ten, a\n      DUP2 \t\t\tounts,\n      CALLDATALOAD \t\t\t uint256[] amounts, \n      SWAP1 \t\t\tcipients, uint256[] amounts, \n      POP \t\t\tcipients, uint256[] amounts, \n      PUSH [tag] 231\t\t\txecutionTime);\\r\\n    event Pr...\n      DUP2 \t\t\triceC\n      PUSH [tag] 151\t\t\txecutionTime);\\r\\n    event Pr...\n      JUMP \t\t\txecutionTime);\\r\\n    event Pr...\n    tag 231\t\t\txecutionTime);\\r\\n    event Pr...\n      JUMPDEST \t\t\txecutionTime);\\r\\n    event Pr...\n      SWAP3 \t\t\t(bytes indexed scheduleId, add...\n      SWAP2 \t\t\t(bytes indexed scheduleId, add...\n      POP \t\t\t(bytes indexed scheduleId, add...\n      POP \t\t\t(bytes indexed scheduleId, add...\n      JUMP \t\t\t(bytes indexed scheduleId, add...\n    tag 153\t\t\t(bytes indexed scheduleId, uin...\n      JUMPDEST \t\t\t(bytes indexed scheduleId, uin...\n      PUSH 0\t\t\tm\n      DUP1 \t\t\t[\n      REVERT \t\t\taddress[] me\n    tag 154\t\t\tnts, uint256[] memory amount) ...\n      JUMPDEST \t\t\tnts, uint256[] memory amount) ...\n      PUSH 0\t\t\tlic{\\r\\n\n      PUSH 1F\t\t\t\\n \n      NOT \t\t\ts);\\r\\n  \n      PUSH 1F\t\t\tdd\n      DUP4 \t\t\t(toke\n      ADD \t\t\tRC20(tokenAddr\n      AND \t\t\t= IERC20(tokenAddress);\\r\\n   \n      SWAP1 \t\t\tC20 token = IERC20(tokenAddres...\n      POP \t\t\tC20 token = IERC20(tokenAddres...\n      SWAP2 \t\t\tnts, uint256[] memory amount) ...\n      SWAP1 \t\t\tnts, uint256[] memory amount) ...\n      POP \t\t\tnts, uint256[] memory amount) ...\n      JUMP \t\t\tnts, uint256[] memory amount) ...\n    tag 155\t\t\t(recipients.length == amount.l...\n      JUMPDEST \t\t\t(recipients.length == amount.l...\n      PUSH 4E487B7100000000000000000000000000000000000000000000000000000000\t\t\tts accordingly!\");\\r\\n        ...\n      PUSH 0\t\t\tn\n      MSTORE \t\t\t\"Give inputs accordingly!\");\\r...\n      PUSH 41\t\t\t; i+\n      PUSH 4\t\t\tg\n      MSTORE \t\t\tnts.length; i++\n      PUSH 24\t\t\ttal \n      PUSH 0\t\t\t \n      REVERT \t\t\t        total =\n    tag 156\t\t\tunt[i];\\r\\n            }\\r\\n  ...\n      JUMPDEST \t\t\tunt[i];\\r\\n            }\\r\\n  ...\n      PUSH [tag] 236\t\t\t), total) , \"Token transfer\n      DUP3 \t\t\tnsfe\n      PUSH [tag] 154\t\t\t), total) , \"Token transfer\n      JUMP \t\t\t), total) , \"Token transfer\n    tag 236\t\t\t), total) , \"Token transfer\n      JUMPDEST \t\t\t), total) , \"Token transfer\n      DUP2 \t\t\tess(th\n      ADD \t\t\taddress(this), total) , \"Token...\n      DUP2 \t\t\ttransf\n      DUP2 \t\t\tquire(toke\n      LT \t\t\t require(token.transfe\n      PUSH FFFFFFFFFFFFFFFF\t\t\t; i++) {\\r\\n        \n      DUP3 \t\t\tients.leng\n      GT \t\t\tcipients.length; i++) {\\r\\n   ...\n      OR \t\t\t recipients.length; i++) {\\r\\n...\n      ISZERO \t\t\ti < recipients.length; i++) {\\...\n      PUSH [tag] 237\t\t\ti < recipients.length; i++) {\\...\n      JUMPI \t\t\ti < recipients.length; i++) {\\...\n      PUSH [tag] 238\t\t\tcipients[i], amoun\n      PUSH [tag] 155\t\t\tcipients[i], amoun\n      JUMP \t\t\tcipients[i], amoun\n    tag 238\t\t\tcipients[i], amoun\n      JUMPDEST \t\t\tcipients[i], amoun\n    tag 237\t\t\ti < recipients.length; i++) {\\...\n      JUMPDEST \t\t\ti < recipients.length; i++) {\\...\n      DUP1 \t\t\t failed\");\n      PUSH 40\t\t\tsf\n      MSTORE \t\t\ten transfer failed\");\\r\n      POP \t\t\ten.transferFrom(msg.sender, ad...\n      POP \t\t\tunt[i];\\r\\n            }\\r\\n  ...\n      POP \t\t\tunt[i];\\r\\n            }\\r\\n  ...\n      JUMP \t\t\tunt[i];\\r\\n            }\\r\\n  ...\n    tag 157\t\t\t emit Erc20BatchTransfer(i, re...\n      JUMPDEST \t\t\t emit Erc20BatchTransfer(i, re...\n      PUSH 0\t\t\tents[i\n      PUSH [tag] 240\t\t\t       }\\r\\n    }\\r\\n\\r\\n \n      PUSH [tag] 146\t\t\t       }\\r\\n    }\\r\\n\\r\\n \n      JUMP \t\t\t       }\\r\\n    }\\r\\n\\r\\n \n    tag 240\t\t\t       }\\r\\n    }\\r\\n\\r\\n \n      JUMPDEST \t\t\t       }\\r\\n    }\\r\\n\\r\\n \n      SWAP1 \t\t\t]);\\r\\n            }\\r\\n    }\\...\n      POP \t\t\t]);\\r\\n            }\\r\\n    }\\...\n      PUSH [tag] 241\t\t\ton scheduled_dispersal(address...\n      DUP3 \t\t\tss t\n      DUP3 \t\t\tal(add\n      PUSH [tag] 156\t\t\ton scheduled_dispersal(address...\n      JUMP \t\t\ton scheduled_dispersal(address...\n    tag 241\t\t\ton scheduled_dispersal(address...\n      JUMPDEST \t\t\ton scheduled_dispersal(address...\n      SWAP2 \t\t\t emit Erc20BatchTransfer(i, re...\n      SWAP1 \t\t\t emit Erc20BatchTransfer(i, re...\n      POP \t\t\t emit Erc20BatchTransfer(i, re...\n      JUMP \t\t\t emit Erc20BatchTransfer(i, re...\n    tag 158\t\t\taddress[] memory recipients, u...\n      JUMPDEST \t\t\taddress[] memory recipients, u...\n      PUSH 0\t\t\t pub\n      PUSH FFFFFFFFFFFFFFFF\t\t\t== amounts.length,\n      DUP3 \t\t\t.lengt\n      GT \t\t\tnts.length == amounts.length, \n      ISZERO \t\t\tpients.length == amounts.lengt...\n      PUSH [tag] 243\t\t\tpients.length == amounts.lengt...\n      JUMPI \t\t\tpients.length == amounts.lengt...\n      PUSH [tag] 244\t\t\tve inputs accordin\n      PUSH [tag] 155\t\t\tve inputs accordin\n      JUMP \t\t\tve inputs accordin\n    tag 244\t\t\tve inputs accordin\n      JUMPDEST \t\t\tve inputs accordin\n    tag 243\t\t\tpients.length == amounts.lengt...\n      JUMPDEST \t\t\tpients.length == amounts.lengt...\n      PUSH 20\t\t\t 0;\\r\n      DUP3 \t\t\t total\n      MUL \t\t\tt256 total = 0;\\r\\n\n      SWAP1 \t\t\t     uint256 total = 0;\\r\\n\n      POP \t\t\t     uint256 total = 0;\\r\\n\n      PUSH 20\t\t\t\\n   \n      DUP2 \t\t\t++) \n      ADD \t\t\th; i++) {\\r\\n    \n      SWAP1 \t\t\tts.length; i++) {\\r\\n    \n      POP \t\t\tts.length; i++) {\\r\\n    \n      SWAP2 \t\t\taddress[] memory recipients, u...\n      SWAP1 \t\t\taddress[] memory recipients, u...\n      POP \t\t\taddress[] memory recipients, u...\n      JUMP \t\t\taddress[] memory recipients, u...\n    tag 159\t\t\t = total + amounts[i];\\r\\n    ...\n      JUMPDEST \t\t\t = total + amounts[i];\\r\\n    ...\n      PUSH 0\t\t\te\n      DUP1 \t\t\tT\n      REVERT \t\t\ttal), \"Token\n    tag 160\t\t\t bytes memory data = abi.encod...\n      JUMPDEST \t\t\t bytes memory data = abi.encod...\n      PUSH 0\t\t\t6[])\"\n      PUSH [tag] 247\t\t\tients, amounts);\\r\\n        by...\n      PUSH [tag] 248\t\t\t\\r\\n        bytes memory sched...\n      DUP5 \t\t\tl(addr\n      PUSH [tag] 158\t\t\t\\r\\n        bytes memory sched...\n      JUMP \t\t\t\\r\\n        bytes memory sched...\n    tag 248\t\t\t\\r\\n        bytes memory sched...\n      JUMPDEST \t\t\t\\r\\n        bytes memory sched...\n      PUSH [tag] 157\t\t\tients, amounts);\\r\\n        by...\n      JUMP \t\t\tients, amounts);\\r\\n        by...\n    tag 247\t\t\tients, amounts);\\r\\n        by...\n      JUMPDEST \t\t\tients, amounts);\\r\\n        by...\n      SWAP1 \t\t\tss, recipients, amounts);\\r\\n ...\n      POP \t\t\tss, recipients, amounts);\\r\\n ...\n      DUP1 \t\t\t 6400\n      DUP4 \t\t\t  emit\n      DUP3 \t\t\t\\n    \n      MSTORE \t\t\tdata);\\r\\n        emit \n      PUSH 20\t\t\td,to\n      DUP3 \t\t\thedul\n      ADD \t\t\td(scheduleId,tok\n      SWAP1 \t\t\tcheduled(scheduleId,tok\n      POP \t\t\tcheduled(scheduleId,tok\n      PUSH 20\t\t\t+ de\n      DUP5 \t\t\tmestam\n      MUL \t\t\tk.timestamp + del\n      DUP4 \t\t\tts, bl\n      ADD \t\t\tmounts, block.timestamp + dela\n      DUP6 \t\t\tion\n      DUP2 \t\t\t   fun\n      GT \t\t\t\\r\\n    function \n      ISZERO \t\t\t}\\r\\n\\r\\n    function executeE...\n      PUSH [tag] 249\t\t\t}\\r\\n\\r\\n    function executeE...\n      JUMPI \t\t\t}\\r\\n\\r\\n    function executeE...\n      PUSH [tag] 250\t\t\tchTransfer(address tokenAddres...\n      PUSH [tag] 159\t\t\tchTransfer(address tokenAddres...\n      JUMP \t\t\tchTransfer(address tokenAddres...\n    tag 250\t\t\tchTransfer(address tokenAddres...\n      JUMPDEST \t\t\tchTransfer(address tokenAddres...\n    tag 249\t\t\t}\\r\\n\\r\\n    function executeE...\n      JUMPDEST \t\t\t}\\r\\n\\r\\n    function executeE...\n      DUP4 \t\t\tken = \n    tag 251\t\t\t        IERC20 token = IERC20(...\n      JUMPDEST \t\t\t        IERC20 token = IERC20(...\n      DUP2 \t\t\tnAddre\n      DUP2 \t\t\t(to\n      LT \t\t\tC20(tokenAddres\n      ISZERO \t\t\t        IERC20 token = IERC20(...\n      PUSH [tag] 253\t\t\t        IERC20 token = IERC20(...\n      JUMPI \t\t\t        IERC20 token = IERC20(...\n      DUP1 \t\t\td r\n      PUSH [tag] 254\t\t\t        for (uint256 i = 0; i ...\n      DUP9 \t\t\teci\n      DUP3 \t\t\ti = 0; i <\n      PUSH [tag] 152\t\t\t        for (uint256 i = 0; i ...\n      JUMP \t\t\t        for (uint256 i = 0; i ...\n    tag 254\t\t\t        for (uint256 i = 0; i ...\n      JUMPDEST \t\t\t        for (uint256 i = 0; i ...\n      DUP5 \t\t\t\");\n      MSTORE \t\t\tamounts\");\\r\\n        for (uin...\n      PUSH 20\t\t\t    \n      DUP5 \t\t\t   \n      ADD \t\t\t\\n            r\n      SWAP4 \t\t\ti++) {\\r\\n            r\n      POP \t\t\ti++) {\\r\\n            r\n      POP \t\t\tgth == amounts.length, \"Mismat...\n      PUSH 20\t\t\te(re\n      DUP2 \t\t\tequ\n      ADD \t\t\t   require(rec\n      SWAP1 \t\t\t\\r\\n        require(rec\n      POP \t\t\t\\r\\n        require(rec\n      PUSH [tag] 251\t\t\t        IERC20 token = IERC20(...\n      JUMP \t\t\t        IERC20 token = IERC20(...\n    tag 253\t\t\t        IERC20 token = IERC20(...\n      JUMPDEST \t\t\t        IERC20 token = IERC20(...\n      POP \t\t\t    IERC20 token = IE\n      POP \t\t\ttokenAddress, recipients, amou...\n      POP \t\t\ttokenAddress, recipients, amou...\n      SWAP4 \t\t\t bytes memory data = abi.encod...\n      SWAP3 \t\t\t bytes memory data = abi.encod...\n      POP \t\t\t bytes memory data = abi.encod...\n      POP \t\t\t bytes memory data = abi.encod...\n      POP \t\t\t bytes memory data = abi.encod...\n      JUMP \t\t\t bytes memory data = abi.encod...\n    tag 161\t\t\tounts[i]), \"Token transfer fai...\n      JUMPDEST \t\t\tounts[i]), \"Token transfer fai...\n      PUSH 0\t\t\ter(i,\n      DUP3 \t\t\t }\\r\n      PUSH 1F\t\t\t }\\r\\n\n      DUP4 \t\t\t\\n     \n      ADD \t\t\t]);\\r\\n        }\\r\\n \n      SLT \t\t\tts[i]);\\r\\n        }\\r\\n    }\\...\n      PUSH [tag] 256\t\t\t[i], amounts[i]);\\r\\n        }...\n      JUMPI \t\t\t[i], amounts[i]);\\r\\n        }...\n      PUSH [tag] 257\t\t\t  function priceTriggeredDispe...\n      PUSH [tag] 153\t\t\t  function priceTriggeredDispe...\n      JUMP \t\t\t  function priceTriggeredDispe...\n    tag 257\t\t\t  function priceTriggeredDispe...\n      JUMPDEST \t\t\t  function priceTriggeredDispe...\n    tag 256\t\t\t[i], amounts[i]);\\r\\n        }...\n      JUMPDEST \t\t\t[i], amounts[i]);\\r\\n        }...\n      DUP2 \t\t\tt256[]\n      CALLDATALOAD \t\t\t\\r\\n        uint256[] \n      PUSH [tag] 258\t\t\t       uint256 desiredPrice,\\r...\n      DUP5 \t\t\tC20\n      DUP3 \t\t\t     I\n      PUSH 20\t\t\tc{\\r\\n\n      DUP7 \t\t\tle pub\n      ADD \t\t\tayable public{\\r\\n \n      PUSH [tag] 160\t\t\t       uint256 desiredPrice,\\r...\n      JUMP \t\t\t       uint256 desiredPrice,\\r...\n    tag 258\t\t\t       uint256 desiredPrice,\\r...\n      JUMPDEST \t\t\t       uint256 desiredPrice,\\r...\n      SWAP2 \t\t\tounts,\\r\\n        uint256 desi...\n      POP \t\t\tounts,\\r\\n        uint256 desi...\n      POP \t\t\trecipients[i], amounts[i]);\\r\\...\n      SWAP3 \t\t\tounts[i]), \"Token transfer fai...\n      SWAP2 \t\t\tounts[i]), \"Token transfer fai...\n      POP \t\t\tounts[i]), \"Token transfer fai...\n      POP \t\t\tounts[i]), \"Token transfer fai...\n      JUMP \t\t\tounts[i]), \"Token transfer fai...\n    tag 162\t\t\t20(tokenAddress);\\r\\n        a...\n      JUMPDEST \t\t\t20(tokenAddress);\\r\\n        a...\n      PUSH 0\t\t\trent\n      PUSH FFFFFFFFFFFFFFFF\t\t\t\\n            execu\n      DUP3 \t\t\trice) \n      GT \t\t\tedPrice) {\\r\\n            exec...\n      ISZERO \t\t\tsiredPrice) {\\r\\n            e...\n      PUSH [tag] 260\t\t\tsiredPrice) {\\r\\n            e...\n      JUMPI \t\t\tsiredPrice) {\\r\\n            e...\n      PUSH [tag] 261\t\t\ttchTransfer(tokenA\n      PUSH [tag] 155\t\t\ttchTransfer(tokenA\n      JUMP \t\t\ttchTransfer(tokenA\n    tag 261\t\t\ttchTransfer(tokenA\n      JUMPDEST \t\t\ttchTransfer(tokenA\n    tag 260\t\t\tsiredPrice) {\\r\\n            e...\n      JUMPDEST \t\t\tsiredPrice) {\\r\\n            e...\n      PUSH 20\t\t\tnder\n      DUP3 \t\t\tnts, s\n      MUL \t\t\tamounts, spender)\n      SWAP1 \t\t\tpients, amounts, spender)\n      POP \t\t\tpients, amounts, spender)\n      PUSH 20\t\t\ti.en\n      DUP2 \t\t\ta = \n      ADD \t\t\t data = abi.enc\n      SWAP1 \t\t\ts memory data = abi.enc\n      POP \t\t\ts memory data = abi.enc\n      SWAP2 \t\t\t20(tokenAddress);\\r\\n        a...\n      SWAP1 \t\t\t20(tokenAddress);\\r\\n        a...\n      POP \t\t\t20(tokenAddress);\\r\\n        a...\n      JUMP \t\t\t20(tokenAddress);\\r\\n        a...\n    tag 163\t\t\ture(\\r\\n                \"check...\n      JUMPDEST \t\t\ture(\\r\\n                \"check...\n      PUSH 0\t\t\tisperse\n      DUP2 \t\t\tt256[\n      SWAP1 \t\t\tdress[],uint256[\n      POP \t\t\tdress[],uint256[\n      SWAP2 \t\t\ture(\\r\\n                \"check...\n      SWAP1 \t\t\ture(\\r\\n                \"check...\n      POP \t\t\ture(\\r\\n                \"check...\n      JUMP \t\t\ture(\\r\\n                \"check...\n    tag 164\t\t\tnt256,address)\",\\r\\n          ...\n      JUMPDEST \t\t\tnt256,address)\",\\r\\n          ...\n      PUSH [tag] 264\t\t\tts,\\r\\n                amo\n      DUP2 \t\t\t   am\n      PUSH [tag] 163\t\t\tts,\\r\\n                amo\n      JUMP \t\t\tts,\\r\\n                amo\n    tag 264\t\t\tts,\\r\\n                amo\n      JUMPDEST \t\t\tts,\\r\\n                amo\n      DUP2 \t\t\tecipi\n      EQ \t\t\t  recipients,\\r\\n             ...\n      PUSH [tag] 265\t\t\t            recipients,\\r\\n   ...\n      JUMPI \t\t\t            recipients,\\r\\n   ...\n      PUSH 0\t\t\t \n      DUP1 \t\t\t \n      REVERT \t\t\t\\r\\n          \n    tag 265\t\t\t            recipients,\\r\\n   ...\n      JUMPDEST \t\t\t            recipients,\\r\\n   ...\n      POP \t\t\tnt256,address)\",\\r\\n          ...\n      JUMP \t\t\tnt256,address)\",\\r\\n          ...\n    tag 165\t\t\trice,\\r\\n                inter...\n      JUMPDEST \t\t\trice,\\r\\n                inter...\n      PUSH 0\t\t\t    s\n      DUP2 \t\t\t   byt\n      CALLDATALOAD \t\t\t);\\r\\n            byte\n      SWAP1 \t\t\t         );\\r\\n            byt...\n      POP \t\t\t         );\\r\\n            byt...\n      PUSH [tag] 267\t\t\tscheduleId = scheduler.schedul...\n      DUP2 \t\t\tduleC\n      PUSH [tag] 164\t\t\tscheduleId = scheduler.schedul...\n      JUMP \t\t\tscheduleId = scheduler.schedul...\n    tag 267\t\t\tscheduleId = scheduler.schedul...\n      JUMPDEST \t\t\tscheduleId = scheduler.schedul...\n      SWAP3 \t\t\trice,\\r\\n                inter...\n      SWAP2 \t\t\trice,\\r\\n                inter...\n      POP \t\t\trice,\\r\\n                inter...\n      POP \t\t\trice,\\r\\n                inter...\n      JUMP \t\t\trice,\\r\\n                inter...\n    tag 166\t\t\t 64000, interval, data);\\r\\n  ...\n      JUMPDEST \t\t\t 64000, interval, data);\\r\\n  ...\n      PUSH 0\t\t\terval\n      PUSH [tag] 269\t\t\t\\r\\n\\r\\n    function checkPric...\n      PUSH [tag] 270\t\t\t checkPriceandDisperse(\\r\\n   ...\n      DUP5 \t\t\t      \n      PUSH [tag] 162\t\t\t checkPriceandDisperse(\\r\\n   ...\n      JUMP \t\t\t checkPriceandDisperse(\\r\\n   ...\n    tag 270\t\t\t checkPriceandDisperse(\\r\\n   ...\n      JUMPDEST \t\t\t checkPriceandDisperse(\\r\\n   ...\n      PUSH [tag] 157\t\t\t\\r\\n\\r\\n    function checkPric...\n      JUMP \t\t\t\\r\\n\\r\\n    function checkPric...\n    tag 269\t\t\t\\r\\n\\r\\n    function checkPric...\n      JUMPDEST \t\t\t\\r\\n\\r\\n    function checkPric...\n      SWAP1 \t\t\t }\\r\\n    }\\r\\n\\r\\n    functio...\n      POP \t\t\t }\\r\\n    }\\r\\n\\r\\n    functio...\n      DUP1 \t\t\tpient\n      DUP4 \t\t\tmory a\n      DUP3 \t\t\t56[] \n      MSTORE \t\t\t  uint256[] memory am\n      PUSH 20\t\t\tired\n      DUP3 \t\t\t256 d\n      ADD \t\t\tuint256 desiredP\n      SWAP1 \t\t\t       uint256 desiredP\n      POP \t\t\t       uint256 desiredP\n      PUSH 20\t\t\ts sp\n      DUP5 \t\t\t  addr\n      MUL \t\t\t      address spe\n      DUP4 \t\t\tval,\\r\\n\n      ADD \t\t\tnterval,\\r\\n        address sp...\n      DUP6 \t\t\t   \n      DUP2 \t\t\tte{\\r\\n \n      GT \t\t\tivate{\\r\\n       \n      ISZERO \t\t\t)private{\\r\\n        IERC20 to...\n      PUSH [tag] 271\t\t\t)private{\\r\\n        IERC20 to...\n      JUMPI \t\t\t)private{\\r\\n        IERC20 to...\n      PUSH [tag] 272\t\t\t IERC20(tokenAddress);\\r\\n    ...\n      PUSH [tag] 159\t\t\t IERC20(tokenAddress);\\r\\n    ...\n      JUMP \t\t\t IERC20(tokenAddress);\\r\\n    ...\n    tag 272\t\t\t IERC20(tokenAddress);\\r\\n    ...\n      JUMPDEST \t\t\t IERC20(tokenAddress);\\r\\n    ...\n    tag 271\t\t\t)private{\\r\\n        IERC20 to...\n      JUMPDEST \t\t\t)private{\\r\\n        IERC20 to...\n      DUP4 \t\t\t= desi\n    tag 273\t\t\tf (currentPrice == desiredPric...\n      JUMPDEST \t\t\tf (currentPrice == desiredPric...\n      DUP2 \t\t\t\\r\\n    \n      DUP2 \t\t\tce)\n      LT \t\t\tPrice) {\\r\\n     \n      ISZERO \t\t\tf (currentPrice == desiredPric...\n      PUSH [tag] 275\t\t\tf (currentPrice == desiredPric...\n      JUMPI \t\t\tf (currentPrice == desiredPric...\n      DUP1 \t\t\tr);\n      PUSH [tag] 276\t\t\t      priceTriggeredDispersal(...\n      DUP9 \t\t\tenA\n      DUP3 \t\t\tispersal(t\n      PUSH [tag] 165\t\t\t      priceTriggeredDispersal(...\n      JUMP \t\t\t      priceTriggeredDispersal(...\n    tag 276\t\t\t      priceTriggeredDispersal(...\n      JUMPDEST \t\t\t      priceTriggeredDispersal(...\n      DUP5 \t\t\t   \n      MSTORE \t\t\tse {\\r\\n            priceTrigg...\n      PUSH 20\t\t\tsire\n      DUP5 \t\t\ts, \n      ADD \t\t\tounts, desired\n      SWAP4 \t\t\tnts, amounts, desired\n      POP \t\t\tnts, amounts, desired\n      POP \t\t\tdress, recipients, amounts,spe...\n      PUSH 20\t\t\tTran\n      DUP2 \t\t\tBat\n      ADD \t\t\tcuteBatchTrans\n      SWAP1 \t\t\t    executeBatchTrans\n      POP \t\t\t    executeBatchTrans\n      PUSH [tag] 273\t\t\tf (currentPrice == desiredPric...\n      JUMP \t\t\tf (currentPrice == desiredPric...\n    tag 275\t\t\tf (currentPrice == desiredPric...\n      JUMPDEST \t\t\tf (currentPrice == desiredPric...\n      POP \t\t\turrentPrice == desire\n      POP \t\t\t;\\r\\n        }\\r\\n    }\\r\\n\\r\\...\n      POP \t\t\t;\\r\\n        }\\r\\n    }\\r\\n\\r\\...\n      SWAP4 \t\t\t 64000, interval, data);\\r\\n  ...\n      SWAP3 \t\t\t 64000, interval, data);\\r\\n  ...\n      POP \t\t\t 64000, interval, data);\\r\\n  ...\n      POP \t\t\t 64000, interval, data);\\r\\n  ...\n      POP \t\t\t 64000, interval, data);\\r\\n  ...\n      JUMP \t\t\t 64000, interval, data);\\r\\n  ...\n    tag 167\t\t\t    function executeBatchTrans...\n      JUMPDEST \t\t\t    function executeBatchTrans...\n      PUSH 0\t\t\t    a\n      DUP3 \t\t\t[] \n      PUSH 1F\t\t\tuint\n      DUP4 \t\t\t      \n      ADD \t\t\ts,\\r\\n        uint2\n      SLT \t\t\tients,\\r\\n        uint256[] m\n      PUSH [tag] 278\t\t\tmory recipients,\\r\\n        ui...\n      JUMPI \t\t\tmory recipients,\\r\\n        ui...\n      PUSH [tag] 279\t\t\ty amounts,\\r\\n        address ...\n      PUSH [tag] 153\t\t\ty amounts,\\r\\n        address ...\n      JUMP \t\t\ty amounts,\\r\\n        address ...\n    tag 279\t\t\ty amounts,\\r\\n        address ...\n      JUMPDEST \t\t\ty amounts,\\r\\n        address ...\n    tag 278\t\t\tmory recipients,\\r\\n        ui...\n      JUMPDEST \t\t\tmory recipients,\\r\\n        ui...\n      DUP2 \t\t\tipient\n      CALLDATALOAD \t\t\t  require(recipients\n      PUSH [tag] 280\t\t\t.length, \"Mismatched recipient...\n      DUP5 \t\t\tfor\n      DUP3 \t\t\t      \n      PUSH 20\t\t\t = 0\n      DUP7 \t\t\talAmou\n      ADD \t\t\t totalAmount = 0;\n      PUSH [tag] 166\t\t\t.length, \"Mismatched recipient...\n      JUMP \t\t\t.length, \"Mismatched recipient...\n    tag 280\t\t\t.length, \"Mismatched recipient...\n      JUMPDEST \t\t\t.length, \"Mismatched recipient...\n      SWAP2 \t\t\t= amounts.length, \"Mismatched ...\n      POP \t\t\t= amounts.length, \"Mismatched ...\n      POP \t\t\tdress[] memory recipients,\\r\\n...\n      SWAP3 \t\t\t    function executeBatchTrans...\n      SWAP2 \t\t\t    function executeBatchTrans...\n      POP \t\t\t    function executeBatchTrans...\n      POP \t\t\t    function executeBatchTrans...\n      JUMP \t\t\t    function executeBatchTrans...\n    tag 12\t\t\t 0; i < amounts.length; i++) {...\n      JUMPDEST \t\t\t 0; i < amounts.length; i++) {...\n      PUSH 0\t\t\this), \n      DUP1 \t\t\ttalAmo\n      PUSH 0\t\t\tt), \"T\n      DUP1 \t\t\ten tra\n      PUSH 80\t\t\t; i\n      DUP6 \t\t\tint256 i \n      DUP8 \t\t\t   for \n      SUB \t\t\t       for (uint256 i =\n      SLT \t\t\t;\\r\\n        for (uint256 i = ...\n      ISZERO \t\t\td\");\\r\\n        for (uint256 i...\n      PUSH [tag] 282\t\t\td\");\\r\\n        for (uint256 i...\n      JUMPI \t\t\td\");\\r\\n        for (uint256 i...\n      PUSH [tag] 283\t\t\tecipients.length; i++) {\\r\\n  ...\n      PUSH [tag] 147\t\t\tecipients.length; i++) {\\r\\n  ...\n      JUMP \t\t\tecipients.length; i++) {\\r\\n  ...\n    tag 283\t\t\tecipients.length; i++) {\\r\\n  ...\n      JUMPDEST \t\t\tecipients.length; i++) {\\r\\n  ...\n    tag 282\t\t\td\");\\r\\n        for (uint256 i...\n      JUMPDEST \t\t\td\");\\r\\n        for (uint256 i...\n      PUSH 0\t\t\t\n      PUSH [tag] 284\t\t\t\n      DUP8 \t\t\t\n      DUP3 \t\t\t\n      DUP9 \t\t\t\n      ADD \t\t\t\n      PUSH [tag] 152\t\t\t\n      JUMP \t\t\t\n    tag 284\t\t\t\n      JUMPDEST \t\t\t\n      SWAP5 \t\t\t\n      POP \t\t\t\n      POP \t\t\t\\r\\n    }\\r\\n}\n      PUSH 20\t\t\t\n      DUP6 \t\t\t\n      ADD \t\t\t\n      CALLDATALOAD \t\t\t\n      PUSH FFFFFFFFFFFFFFFF\t\t\t\n      DUP2 \t\t\t\n      GT \t\t\t\n      ISZERO \t\t\t\n      PUSH [tag] 285\t\t\t\n      JUMPI \t\t\t\n      PUSH [tag] 286\t\t\t\n      PUSH [tag] 148\t\t\t\n      JUMP \t\t\t\n    tag 286\t\t\t\n      JUMPDEST \t\t\t\n    tag 285\t\t\t\n      JUMPDEST \t\t\t\n      PUSH [tag] 287\t\t\t\n      DUP8 \t\t\t\n      DUP3 \t\t\t\n      DUP9 \t\t\t\n      ADD \t\t\t\n      PUSH [tag] 161\t\t\t\n      JUMP \t\t\t\n    tag 287\t\t\t\n      JUMPDEST \t\t\t\n      SWAP4 \t\t\t\n      POP \t\t\t\n      POP \t\t\t\n      PUSH 40\t\t\t\n      DUP6 \t\t\t\n      ADD \t\t\t\n      CALLDATALOAD \t\t\t\n      PUSH FFFFFFFFFFFFFFFF\t\t\t\n      DUP2 \t\t\t\n      GT \t\t\t\n      ISZERO \t\t\t\n      PUSH [tag] 288\t\t\t\n      JUMPI \t\t\t\n      PUSH [tag] 289\t\t\t\n      PUSH [tag] 148\t\t\t\n      JUMP \t\t\t\n    tag 289\t\t\t\n      JUMPDEST \t\t\t\n    tag 288\t\t\t\n      JUMPDEST \t\t\t\n      PUSH [tag] 290\t\t\t\n      DUP8 \t\t\t\n      DUP3 \t\t\t\n      DUP9 \t\t\t\n      ADD \t\t\t\n      PUSH [tag] 167\t\t\t\n      JUMP \t\t\t\n    tag 290\t\t\t\n      JUMPDEST \t\t\t\n      SWAP3 \t\t\t\n      POP \t\t\t\n      POP \t\t\t\n      PUSH 60\t\t\t\n      PUSH [tag] 291\t\t\t\n      DUP8 \t\t\t\n      DUP3 \t\t\t\n      DUP9 \t\t\t\n      ADD \t\t\t\n      PUSH [tag] 165\t\t\t\n      JUMP \t\t\t\n    tag 291\t\t\t\n      JUMPDEST \t\t\t\n      SWAP2 \t\t\t\n      POP \t\t\t\n      POP \t\t\t\n      SWAP3 \t\t\t 0; i < amounts.length; i++) {...\n      SWAP6 \t\t\t 0; i < amounts.length; i++) {...\n      SWAP2 \t\t\t 0; i < amounts.length; i++) {...\n      SWAP5 \t\t\t 0; i < amounts.length; i++) {...\n      POP \t\t\t 0; i < amounts.length; i++) {...\n      SWAP3 \t\t\t 0; i < amounts.length; i++) {...\n      POP \t\t\t 0; i < amounts.length; i++) {...\n      JUMP \t\t\t 0; i < amounts.length; i++) {...\n    tag 16\t\t\t\n      JUMPDEST \t\t\t\n      PUSH 0\t\t\t\n      DUP1 \t\t\t\n      PUSH 0\t\t\t\n      PUSH 60\t\t\t\n      DUP5 \t\t\t\n      DUP7 \t\t\t\n      SUB \t\t\t\n      SLT \t\t\t\n      ISZERO \t\t\t\n      PUSH [tag] 293\t\t\t\n      JUMPI \t\t\t\n      PUSH [tag] 294\t\t\t\n      PUSH [tag] 147\t\t\t\n      JUMP \t\t\t\n    tag 294\t\t\t\n      JUMPDEST \t\t\t\n    tag 293\t\t\t\n      JUMPDEST \t\t\t\n      PUSH 0\t\t\t\n      PUSH [tag] 295\t\t\t\n      DUP7 \t\t\t\n      DUP3 \t\t\t\n      DUP8 \t\t\t\n      ADD \t\t\t\n      PUSH [tag] 152\t\t\t\n      JUMP \t\t\t\n    tag 295\t\t\t\n      JUMPDEST \t\t\t\n      SWAP4 \t\t\t\n      POP \t\t\t\n      POP \t\t\t\n      PUSH 20\t\t\t\n      DUP5 \t\t\t\n      ADD \t\t\t\n      CALLDATALOAD \t\t\t\n      PUSH FFFFFFFFFFFFFFFF\t\t\t\n      DUP2 \t\t\t\n      GT \t\t\t\n      ISZERO \t\t\t\n      PUSH [tag] 296\t\t\t\n      JUMPI \t\t\t\n      PUSH [tag] 297\t\t\t\n      PUSH [tag] 148\t\t\t\n      JUMP \t\t\t\n    tag 297\t\t\t\n      JUMPDEST \t\t\t\n    tag 296\t\t\t\n      JUMPDEST \t\t\t\n      PUSH [tag] 298\t\t\t\n      DUP7 \t\t\t\n      DUP3 \t\t\t\n      DUP8 \t\t\t\n      ADD \t\t\t\n      PUSH [tag] 161\t\t\t\n      JUMP \t\t\t\n    tag 298\t\t\t\n      JUMPDEST \t\t\t\n      SWAP3 \t\t\t\n      POP \t\t\t\n      POP \t\t\t\n      PUSH 40\t\t\t\n      DUP5 \t\t\t\n      ADD \t\t\t\n      CALLDATALOAD \t\t\t\n      PUSH FFFFFFFFFFFFFFFF\t\t\t\n      DUP2 \t\t\t\n      GT \t\t\t\n      ISZERO \t\t\t\n      PUSH [tag] 299\t\t\t\n      JUMPI \t\t\t\n      PUSH [tag] 300\t\t\t\n      PUSH [tag] 148\t\t\t\n      JUMP \t\t\t\n    tag 300\t\t\t\n      JUMPDEST \t\t\t\n    tag 299\t\t\t\n      JUMPDEST \t\t\t\n      PUSH [tag] 301\t\t\t\n      DUP7 \t\t\t\n      DUP3 \t\t\t\n      DUP8 \t\t\t\n      ADD \t\t\t\n      PUSH [tag] 167\t\t\t\n      JUMP \t\t\t\n    tag 301\t\t\t\n      JUMPDEST \t\t\t\n      SWAP2 \t\t\t\n      POP \t\t\t\n      POP \t\t\t\n      SWAP3 \t\t\t\n      POP \t\t\t\n      SWAP3 \t\t\t\n      POP \t\t\t\n      SWAP3 \t\t\t\n      JUMP \t\t\t\n    tag 20\t\t\t\n      JUMPDEST \t\t\t\n      PUSH 0\t\t\t\n      DUP1 \t\t\t\n      PUSH 0\t\t\t\n      DUP1 \t\t\t\n      PUSH 0\t\t\t\n      PUSH A0\t\t\t\n      DUP7 \t\t\t\n      DUP9 \t\t\t\n      SUB \t\t\t\n      SLT \t\t\t\n      ISZERO \t\t\t\n      PUSH [tag] 303\t\t\t\n      JUMPI \t\t\t\n      PUSH [tag] 304\t\t\t\n      PUSH [tag] 147\t\t\t\n      JUMP \t\t\t\n    tag 304\t\t\t\n      JUMPDEST \t\t\t\n    tag 303\t\t\t\n      JUMPDEST \t\t\t\n      PUSH 0\t\t\t\n      PUSH [tag] 305\t\t\t\n      DUP9 \t\t\t\n      DUP3 \t\t\t\n      DUP10 \t\t\t\n      ADD \t\t\t\n      PUSH [tag] 152\t\t\t\n      JUMP \t\t\t\n    tag 305\t\t\t\n      JUMPDEST \t\t\t\n      SWAP6 \t\t\t\n      POP \t\t\t\n      POP \t\t\t\n      PUSH 20\t\t\t\n      DUP7 \t\t\t\n      ADD \t\t\t\n      CALLDATALOAD \t\t\t\n      PUSH FFFFFFFFFFFFFFFF\t\t\t\n      DUP2 \t\t\t\n      GT \t\t\t\n      ISZERO \t\t\t\n      PUSH [tag] 306\t\t\t\n      JUMPI \t\t\t\n      PUSH [tag] 307\t\t\t\n      PUSH [tag] 148\t\t\t\n      JUMP \t\t\t\n    tag 307\t\t\t\n      JUMPDEST \t\t\t\n    tag 306\t\t\t\n      JUMPDEST \t\t\t\n      PUSH [tag] 308\t\t\t\n      DUP9 \t\t\t\n      DUP3 \t\t\t\n      DUP10 \t\t\t\n      ADD \t\t\t\n      PUSH [tag] 161\t\t\t\n      JUMP \t\t\t\n    tag 308\t\t\t\n      JUMPDEST \t\t\t\n      SWAP5 \t\t\t\n      POP \t\t\t\n      POP \t\t\t\n      PUSH 40\t\t\t\n      DUP7 \t\t\t\n      ADD \t\t\t\n      CALLDATALOAD \t\t\t\n      PUSH FFFFFFFFFFFFFFFF\t\t\t\n      DUP2 \t\t\t\n      GT \t\t\t\n      ISZERO \t\t\t\n      PUSH [tag] 309\t\t\t\n      JUMPI \t\t\t\n      PUSH [tag] 310\t\t\t\n      PUSH [tag] 148\t\t\t\n      JUMP \t\t\t\n    tag 310\t\t\t\n      JUMPDEST \t\t\t\n    tag 309\t\t\t\n      JUMPDEST \t\t\t\n      PUSH [tag] 311\t\t\t\n      DUP9 \t\t\t\n      DUP3 \t\t\t\n      DUP10 \t\t\t\n      ADD \t\t\t\n      PUSH [tag] 167\t\t\t\n      JUMP \t\t\t\n    tag 311\t\t\t\n      JUMPDEST \t\t\t\n      SWAP4 \t\t\t\n      POP \t\t\t\n      POP \t\t\t\n      PUSH 60\t\t\t\n      PUSH [tag] 312\t\t\t\n      DUP9 \t\t\t\n      DUP3 \t\t\t\n      DUP10 \t\t\t\n      ADD \t\t\t\n      PUSH [tag] 165\t\t\t\n      JUMP \t\t\t\n    tag 312\t\t\t\n      JUMPDEST \t\t\t\n      SWAP3 \t\t\t\n      POP \t\t\t\n      POP \t\t\t\n      PUSH 80\t\t\t\n      PUSH [tag] 313\t\t\t\n      DUP9 \t\t\t\n      DUP3 \t\t\t\n      DUP10 \t\t\t\n      ADD \t\t\t\n      PUSH [tag] 165\t\t\t\n      JUMP \t\t\t\n    tag 313\t\t\t\n      JUMPDEST \t\t\t\n      SWAP2 \t\t\t\n      POP \t\t\t\n      POP \t\t\t\n      SWAP3 \t\t\t\n      SWAP6 \t\t\t\n      POP \t\t\t\n      SWAP3 \t\t\t\n      SWAP6 \t\t\t\n      SWAP1 \t\t\t\n      SWAP4 \t\t\t\n      POP \t\t\t\n      JUMP \t\t\t\n    tag 168\t\t\t\n      JUMPDEST \t\t\t\n      PUSH 0\t\t\t\n      DUP3 \t\t\t\n      DUP3 \t\t\t\n      MSTORE \t\t\t\n      PUSH 20\t\t\t\n      DUP3 \t\t\t\n      ADD \t\t\t\n      SWAP1 \t\t\t\n      POP \t\t\t\n      SWAP3 \t\t\t\n      SWAP2 \t\t\t\n      POP \t\t\t\n      POP \t\t\t\n      JUMP \t\t\t\n    tag 169\t\t\t\n      JUMPDEST \t\t\t\n      PUSH 4769766520696E70757473206163636F7264696E676C79210000000000000000\t\t\t\n      PUSH 0\t\t\t\n      DUP3 \t\t\t\n      ADD \t\t\t\n      MSTORE \t\t\t\n      POP \t\t\t\n      JUMP \t\t\t\n    tag 170\t\t\t\n      JUMPDEST \t\t\t\n      PUSH 0\t\t\t\n      PUSH [tag] 317\t\t\t\n      PUSH 18\t\t\t\n      DUP4 \t\t\t\n      PUSH [tag] 168\t\t\t\n      JUMP \t\t\t\n    tag 317\t\t\t\n      JUMPDEST \t\t\t\n      SWAP2 \t\t\t\n      POP \t\t\t\n      PUSH [tag] 318\t\t\t\n      DUP3 \t\t\t\n      PUSH [tag] 169\t\t\t\n      JUMP \t\t\t\n    tag 318\t\t\t\n      JUMPDEST \t\t\t\n      PUSH 20\t\t\t\n      DUP3 \t\t\t\n      ADD \t\t\t\n      SWAP1 \t\t\t\n      POP \t\t\t\n      SWAP2 \t\t\t\n      SWAP1 \t\t\t\n      POP \t\t\t\n      JUMP \t\t\t\n    tag 25\t\t\t\n      JUMPDEST \t\t\t\n      PUSH 0\t\t\t\n      PUSH 20\t\t\t\n      DUP3 \t\t\t\n      ADD \t\t\t\n      SWAP1 \t\t\t\n      POP \t\t\t\n      DUP2 \t\t\t\n      DUP2 \t\t\t\n      SUB \t\t\t\n      PUSH 0\t\t\t\n      DUP4 \t\t\t\n      ADD \t\t\t\n      MSTORE \t\t\t\n      PUSH [tag] 320\t\t\t\n      DUP2 \t\t\t\n      PUSH [tag] 170\t\t\t\n      JUMP \t\t\t\n    tag 320\t\t\t\n      JUMPDEST \t\t\t\n      SWAP1 \t\t\t\n      POP \t\t\t\n      SWAP2 \t\t\t\n      SWAP1 \t\t\t\n      POP \t\t\t\n      JUMP \t\t\t\n    tag 31\t\t\t\n      JUMPDEST \t\t\t\n      PUSH 4E487B7100000000000000000000000000000000000000000000000000000000\t\t\t\n      PUSH 0\t\t\t\n      MSTORE \t\t\t\n      PUSH 32\t\t\t\n      PUSH 4\t\t\t\n      MSTORE \t\t\t\n      PUSH 24\t\t\t\n      PUSH 0\t\t\t\n      REVERT \t\t\t\n    tag 171\t\t\t\n      JUMPDEST \t\t\t\n      PUSH 4E487B7100000000000000000000000000000000000000000000000000000000\t\t\t\n      PUSH 0\t\t\t\n      MSTORE \t\t\t\n      PUSH 11\t\t\t\n      PUSH 4\t\t\t\n      MSTORE \t\t\t\n      PUSH 24\t\t\t\n      PUSH 0\t\t\t\n      REVERT \t\t\t\n    tag 33\t\t\t\n      JUMPDEST \t\t\t\n      PUSH 0\t\t\t\n      PUSH [tag] 324\t\t\t\n      DUP3 \t\t\t\n      PUSH [tag] 163\t\t\t\n      JUMP \t\t\t\n    tag 324\t\t\t\n      JUMPDEST \t\t\t\n      SWAP2 \t\t\t\n      POP \t\t\t\n      PUSH [tag] 325\t\t\t\n      DUP4 \t\t\t\n      PUSH [tag] 163\t\t\t\n      JUMP \t\t\t\n    tag 325\t\t\t\n      JUMPDEST \t\t\t\n      SWAP3 \t\t\t\n      POP \t\t\t\n      DUP3 \t\t\t\n      DUP3 \t\t\t\n      ADD \t\t\t\n      SWAP1 \t\t\t\n      POP \t\t\t\n      DUP1 \t\t\t\n      DUP3 \t\t\t\n      GT \t\t\t\n      ISZERO \t\t\t\n      PUSH [tag] 326\t\t\t\n      JUMPI \t\t\t\n      PUSH [tag] 327\t\t\t\n      PUSH [tag] 171\t\t\t\n      JUMP \t\t\t\n    tag 327\t\t\t\n      JUMPDEST \t\t\t\n    tag 326\t\t\t\n      JUMPDEST \t\t\t\n      SWAP3 \t\t\t\n      SWAP2 \t\t\t\n      POP \t\t\t\n      POP \t\t\t\n      JUMP \t\t\t\n    tag 35\t\t\t\n      JUMPDEST \t\t\t\n      PUSH 0\t\t\t\n      PUSH [tag] 329\t\t\t\n      DUP3 \t\t\t\n      PUSH [tag] 163\t\t\t\n      JUMP \t\t\t\n    tag 329\t\t\t\n      JUMPDEST \t\t\t\n      SWAP2 \t\t\t\n      POP \t\t\t\n      PUSH FFFFFFFFFFFFFFFFFFFFFFFFFFFFFFFFFFFFFFFFFFFFFFFFFFFFFFFFFFFFFFFF\t\t\t\n      DUP3 \t\t\t\n      SUB \t\t\t\n      PUSH [tag] 330\t\t\t\n      JUMPI \t\t\t\n      PUSH [tag] 331\t\t\t\n      PUSH [tag] 171\t\t\t\n      JUMP \t\t\t\n    tag 331\t\t\t\n      JUMPDEST \t\t\t\n    tag 330\t\t\t\n      JUMPDEST \t\t\t\n      PUSH 1\t\t\t\n      DUP3 \t\t\t\n      ADD \t\t\t\n      SWAP1 \t\t\t\n      POP \t\t\t\n      SWAP2 \t\t\t\n      SWAP1 \t\t\t\n      POP \t\t\t\n      JUMP \t\t\t\n    tag 172\t\t\t\n      JUMPDEST \t\t\t\n      PUSH [tag] 333\t\t\t\n      DUP2 \t\t\t\n      PUSH [tag] 150\t\t\t\n      JUMP \t\t\t\n    tag 333\t\t\t\n      JUMPDEST \t\t\t\n      DUP3 \t\t\t\n      MSTORE \t\t\t\n      POP \t\t\t\n      POP \t\t\t\n      JUMP \t\t\t\n    tag 173\t\t\t\n      JUMPDEST \t\t\t\n      PUSH [tag] 335\t\t\t\n      DUP2 \t\t\t\n      PUSH [tag] 163\t\t\t\n      JUMP \t\t\t\n    tag 335\t\t\t\n      JUMPDEST \t\t\t\n      DUP3 \t\t\t\n      MSTORE \t\t\t\n      POP \t\t\t\n      POP \t\t\t\n      JUMP \t\t\t\n    tag 37\t\t\t\n      JUMPDEST \t\t\t\n      PUSH 0\t\t\t\n      PUSH 60\t\t\t\n      DUP3 \t\t\t\n      ADD \t\t\t\n      SWAP1 \t\t\t\n      POP \t\t\t\n      PUSH [tag] 337\t\t\t\n      PUSH 0\t\t\t\n      DUP4 \t\t\t\n      ADD \t\t\t\n      DUP7 \t\t\t\n      PUSH [tag] 172\t\t\t\n      JUMP \t\t\t\n    tag 337\t\t\t\n      JUMPDEST \t\t\t\n      PUSH [tag] 338\t\t\t\n      PUSH 20\t\t\t\n      DUP4 \t\t\t\n      ADD \t\t\t\n      DUP6 \t\t\t\n      PUSH [tag] 172\t\t\t\n      JUMP \t\t\t\n    tag 338\t\t\t\n      JUMPDEST \t\t\t\n      PUSH [tag] 339\t\t\t\n      PUSH 40\t\t\t\n      DUP4 \t\t\t\n      ADD \t\t\t\n      DUP5 \t\t\t\n      PUSH [tag] 173\t\t\t\n      JUMP \t\t\t\n    tag 339\t\t\t\n      JUMPDEST \t\t\t\n      SWAP5 \t\t\t\n      SWAP4 \t\t\t\n      POP \t\t\t\n      POP \t\t\t\n      POP \t\t\t\n      POP \t\t\t\n      JUMP \t\t\t\n    tag 174\t\t\t\n      JUMPDEST \t\t\t\n      PUSH 0\t\t\t\n      DUP2 \t\t\t\n      ISZERO \t\t\t\n      ISZERO \t\t\t\n      SWAP1 \t\t\t\n      POP \t\t\t\n      SWAP2 \t\t\t\n      SWAP1 \t\t\t\n      POP \t\t\t\n      JUMP \t\t\t\n    tag 175\t\t\t\n      JUMPDEST \t\t\t\n      PUSH [tag] 342\t\t\t\n      DUP2 \t\t\t\n      PUSH [tag] 174\t\t\t\n      JUMP \t\t\t\n    tag 342\t\t\t\n      JUMPDEST \t\t\t\n      DUP2 \t\t\t\n      EQ \t\t\t\n      PUSH [tag] 343\t\t\t\n      JUMPI \t\t\t\n      PUSH 0\t\t\t\n      DUP1 \t\t\t\n      REVERT \t\t\t\n    tag 343\t\t\t\n      JUMPDEST \t\t\t\n      POP \t\t\t\n      JUMP \t\t\t\n    tag 176\t\t\t\n      JUMPDEST \t\t\t\n      PUSH 0\t\t\t\n      DUP2 \t\t\t\n      MLOAD \t\t\t\n      SWAP1 \t\t\t\n      POP \t\t\t\n      PUSH [tag] 345\t\t\t\n      DUP2 \t\t\t\n      PUSH [tag] 175\t\t\t\n      JUMP \t\t\t\n    tag 345\t\t\t\n      JUMPDEST \t\t\t\n      SWAP3 \t\t\t\n      SWAP2 \t\t\t\n      POP \t\t\t\n      POP \t\t\t\n      JUMP \t\t\t\n    tag 41\t\t\t\n      JUMPDEST \t\t\t\n      PUSH 0\t\t\t\n      PUSH 20\t\t\t\n      DUP3 \t\t\t\n      DUP5 \t\t\t\n      SUB \t\t\t\n      SLT \t\t\t\n      ISZERO \t\t\t\n      PUSH [tag] 347\t\t\t\n      JUMPI \t\t\t\n      PUSH [tag] 348\t\t\t\n      PUSH [tag] 147\t\t\t\n      JUMP \t\t\t\n    tag 348\t\t\t\n      JUMPDEST \t\t\t\n    tag 347\t\t\t\n      JUMPDEST \t\t\t\n      PUSH 0\t\t\t\n      PUSH [tag] 349\t\t\t\n      DUP5 \t\t\t\n      DUP3 \t\t\t\n      DUP6 \t\t\t\n      ADD \t\t\t\n      PUSH [tag] 176\t\t\t\n      JUMP \t\t\t\n    tag 349\t\t\t\n      JUMPDEST \t\t\t\n      SWAP2 \t\t\t\n      POP \t\t\t\n      POP \t\t\t\n      SWAP3 \t\t\t\n      SWAP2 \t\t\t\n      POP \t\t\t\n      POP \t\t\t\n      JUMP \t\t\t\n    tag 177\t\t\t\n      JUMPDEST \t\t\t\n      PUSH 546F6B656E207472616E73666572206661696C65642100000000000000000000\t\t\t\n      PUSH 0\t\t\t\n      DUP3 \t\t\t\n      ADD \t\t\t\n      MSTORE \t\t\t\n      POP \t\t\t\n      JUMP \t\t\t\n    tag 178\t\t\t\n      JUMPDEST \t\t\t\n      PUSH 0\t\t\t\n      PUSH [tag] 352\t\t\t\n      PUSH 16\t\t\t\n      DUP4 \t\t\t\n      PUSH [tag] 168\t\t\t\n      JUMP \t\t\t\n    tag 352\t\t\t\n      JUMPDEST \t\t\t\n      SWAP2 \t\t\t\n      POP \t\t\t\n      PUSH [tag] 353\t\t\t\n      DUP3 \t\t\t\n      PUSH [tag] 177\t\t\t\n      JUMP \t\t\t\n    tag 353\t\t\t\n      JUMPDEST \t\t\t\n      PUSH 20\t\t\t\n      DUP3 \t\t\t\n      ADD \t\t\t\n      SWAP1 \t\t\t\n      POP \t\t\t\n      SWAP2 \t\t\t\n      SWAP1 \t\t\t\n      POP \t\t\t\n      JUMP \t\t\t\n    tag 44\t\t\t\n      JUMPDEST \t\t\t\n      PUSH 0\t\t\t\n      PUSH 20\t\t\t\n      DUP3 \t\t\t\n      ADD \t\t\t\n      SWAP1 \t\t\t\n      POP \t\t\t\n      DUP2 \t\t\t\n      DUP2 \t\t\t\n      SUB \t\t\t\n      PUSH 0\t\t\t\n      DUP4 \t\t\t\n      ADD \t\t\t\n      MSTORE \t\t\t\n      PUSH [tag] 355\t\t\t\n      DUP2 \t\t\t\n      PUSH [tag] 178\t\t\t\n      JUMP \t\t\t\n    tag 355\t\t\t\n      JUMPDEST \t\t\t\n      SWAP1 \t\t\t\n      POP \t\t\t\n      SWAP2 \t\t\t\n      SWAP1 \t\t\t\n      POP \t\t\t\n      JUMP \t\t\t\n    tag 179\t\t\t\n      JUMPDEST \t\t\t\n      PUSH 0\t\t\t\n      DUP2 \t\t\t\n      MLOAD \t\t\t\n      SWAP1 \t\t\t\n      POP \t\t\t\n      SWAP2 \t\t\t\n      SWAP1 \t\t\t\n      POP \t\t\t\n      JUMP \t\t\t\n    tag 180\t\t\t\n      JUMPDEST \t\t\t\n      PUSH 0\t\t\t\n      DUP3 \t\t\t\n      DUP3 \t\t\t\n      MSTORE \t\t\t\n      PUSH 20\t\t\t\n      DUP3 \t\t\t\n      ADD \t\t\t\n      SWAP1 \t\t\t\n      POP \t\t\t\n      SWAP3 \t\t\t\n      SWAP2 \t\t\t\n      POP \t\t\t\n      POP \t\t\t\n      JUMP \t\t\t\n    tag 181\t\t\t\n      JUMPDEST \t\t\t\n      PUSH 0\t\t\t\n      DUP2 \t\t\t\n      SWAP1 \t\t\t\n      POP \t\t\t\n      PUSH 20\t\t\t\n      DUP3 \t\t\t\n      ADD \t\t\t\n      SWAP1 \t\t\t\n      POP \t\t\t\n      SWAP2 \t\t\t\n      SWAP1 \t\t\t\n      POP \t\t\t\n      JUMP \t\t\t\n    tag 182\t\t\t\n      JUMPDEST \t\t\t\n      PUSH [tag] 360\t\t\t\n      DUP2 \t\t\t\n      PUSH [tag] 150\t\t\t\n      JUMP \t\t\t\n    tag 360\t\t\t\n      JUMPDEST \t\t\t\n      DUP3 \t\t\t\n      MSTORE \t\t\t\n      POP \t\t\t\n      POP \t\t\t\n      JUMP \t\t\t\n    tag 183\t\t\t\n      JUMPDEST \t\t\t\n      PUSH 0\t\t\t\n      PUSH [tag] 362\t\t\t\n      DUP4 \t\t\t\n      DUP4 \t\t\t\n      PUSH [tag] 182\t\t\t\n      JUMP \t\t\t\n    tag 362\t\t\t\n      JUMPDEST \t\t\t\n      PUSH 20\t\t\t\n      DUP4 \t\t\t\n      ADD \t\t\t\n      SWAP1 \t\t\t\n      POP \t\t\t\n      SWAP3 \t\t\t\n      SWAP2 \t\t\t\n      POP \t\t\t\n      POP \t\t\t\n      JUMP \t\t\t\n    tag 184\t\t\t\n      JUMPDEST \t\t\t\n      PUSH 0\t\t\t\n      PUSH 20\t\t\t\n      DUP3 \t\t\t\n      ADD \t\t\t\n      SWAP1 \t\t\t\n      POP \t\t\t\n      SWAP2 \t\t\t\n      SWAP1 \t\t\t\n      POP \t\t\t\n      JUMP \t\t\t\n    tag 185\t\t\t\n      JUMPDEST \t\t\t\n      PUSH 0\t\t\t\n      PUSH [tag] 365\t\t\t\n      DUP3 \t\t\t\n      PUSH [tag] 179\t\t\t\n      JUMP \t\t\t\n    tag 365\t\t\t\n      JUMPDEST \t\t\t\n      PUSH [tag] 366\t\t\t\n      DUP2 \t\t\t\n      DUP6 \t\t\t\n      PUSH [tag] 180\t\t\t\n      JUMP \t\t\t\n    tag 366\t\t\t\n      JUMPDEST \t\t\t\n      SWAP4 \t\t\t\n      POP \t\t\t\n      PUSH [tag] 367\t\t\t\n      DUP4 \t\t\t\n      PUSH [tag] 181\t\t\t\n      JUMP \t\t\t\n    tag 367\t\t\t\n      JUMPDEST \t\t\t\n      DUP1 \t\t\t\n      PUSH 0\t\t\t\n    tag 368\t\t\t\n      JUMPDEST \t\t\t\n      DUP4 \t\t\t\n      DUP2 \t\t\t\n      LT \t\t\t\n      ISZERO \t\t\t\n      PUSH [tag] 370\t\t\t\n      JUMPI \t\t\t\n      DUP2 \t\t\t\n      MLOAD \t\t\t\n      PUSH [tag] 371\t\t\t\n      DUP9 \t\t\t\n      DUP3 \t\t\t\n      PUSH [tag] 183\t\t\t\n      JUMP \t\t\t\n    tag 371\t\t\t\n      JUMPDEST \t\t\t\n      SWAP8 \t\t\t\n      POP \t\t\t\n      PUSH [tag] 372\t\t\t\n      DUP4 \t\t\t\n      PUSH [tag] 184\t\t\t\n      JUMP \t\t\t\n    tag 372\t\t\t\n      JUMPDEST \t\t\t\n      SWAP3 \t\t\t\n      POP \t\t\t\n      POP \t\t\t\n      PUSH 1\t\t\t\n      DUP2 \t\t\t\n      ADD \t\t\t\n      SWAP1 \t\t\t\n      POP \t\t\t\n      PUSH [tag] 368\t\t\t\n      JUMP \t\t\t\n    tag 370\t\t\t\n      JUMPDEST \t\t\t\n      POP \t\t\t\n      DUP6 \t\t\t\n      SWAP4 \t\t\t\n      POP \t\t\t\n      POP \t\t\t\n      POP \t\t\t\n      POP \t\t\t\n      SWAP3 \t\t\t\n      SWAP2 \t\t\t\n      POP \t\t\t\n      POP \t\t\t\n      JUMP \t\t\t\n    tag 186\t\t\t\n      JUMPDEST \t\t\t\n      PUSH 0\t\t\t\n      DUP2 \t\t\t\n      MLOAD \t\t\t\n      SWAP1 \t\t\t\n      POP \t\t\t\n      SWAP2 \t\t\t\n      SWAP1 \t\t\t\n      POP \t\t\t\n      JUMP \t\t\t\n    tag 187\t\t\t\n      JUMPDEST \t\t\t\n      PUSH 0\t\t\t\n      DUP3 \t\t\t\n      DUP3 \t\t\t\n      MSTORE \t\t\t\n      PUSH 20\t\t\t\n      DUP3 \t\t\t\n      ADD \t\t\t\n      SWAP1 \t\t\t\n      POP \t\t\t\n      SWAP3 \t\t\t\n      SWAP2 \t\t\t\n      POP \t\t\t\n      POP \t\t\t\n      JUMP \t\t\t\n    tag 188\t\t\t\n      JUMPDEST \t\t\t\n      PUSH 0\t\t\t\n      DUP2 \t\t\t\n      SWAP1 \t\t\t\n      POP \t\t\t\n      PUSH 20\t\t\t\n      DUP3 \t\t\t\n      ADD \t\t\t\n      SWAP1 \t\t\t\n      POP \t\t\t\n      SWAP2 \t\t\t\n      SWAP1 \t\t\t\n      POP \t\t\t\n      JUMP \t\t\t\n    tag 189\t\t\t\n      JUMPDEST \t\t\t\n      PUSH [tag] 377\t\t\t\n      DUP2 \t\t\t\n      PUSH [tag] 163\t\t\t\n      JUMP \t\t\t\n    tag 377\t\t\t\n      JUMPDEST \t\t\t\n      DUP3 \t\t\t\n      MSTORE \t\t\t\n      POP \t\t\t\n      POP \t\t\t\n      JUMP \t\t\t\n    tag 190\t\t\t\n      JUMPDEST \t\t\t\n      PUSH 0\t\t\t\n      PUSH [tag] 379\t\t\t\n      DUP4 \t\t\t\n      DUP4 \t\t\t\n      PUSH [tag] 189\t\t\t\n      JUMP \t\t\t\n    tag 379\t\t\t\n      JUMPDEST \t\t\t\n      PUSH 20\t\t\t\n      DUP4 \t\t\t\n      ADD \t\t\t\n      SWAP1 \t\t\t\n      POP \t\t\t\n      SWAP3 \t\t\t\n      SWAP2 \t\t\t\n      POP \t\t\t\n      POP \t\t\t\n      JUMP \t\t\t\n    tag 191\t\t\t\n      JUMPDEST \t\t\t\n      PUSH 0\t\t\t\n      PUSH 20\t\t\t\n      DUP3 \t\t\t\n      ADD \t\t\t\n      SWAP1 \t\t\t\n      POP \t\t\t\n      SWAP2 \t\t\t\n      SWAP1 \t\t\t\n      POP \t\t\t\n      JUMP \t\t\t\n    tag 192\t\t\t\n      JUMPDEST \t\t\t\n      PUSH 0\t\t\t\n      PUSH [tag] 382\t\t\t\n      DUP3 \t\t\t\n      PUSH [tag] 186\t\t\t\n      JUMP \t\t\t\n    tag 382\t\t\t\n      JUMPDEST \t\t\t\n      PUSH [tag] 383\t\t\t\n      DUP2 \t\t\t\n      DUP6 \t\t\t\n      PUSH [tag] 187\t\t\t\n      JUMP \t\t\t\n    tag 383\t\t\t\n      JUMPDEST \t\t\t\n      SWAP4 \t\t\t\n      POP \t\t\t\n      PUSH [tag] 384\t\t\t\n      DUP4 \t\t\t\n      PUSH [tag] 188\t\t\t\n      JUMP \t\t\t\n    tag 384\t\t\t\n      JUMPDEST \t\t\t\n      DUP1 \t\t\t\n      PUSH 0\t\t\t\n    tag 385\t\t\t\n      JUMPDEST \t\t\t\n      DUP4 \t\t\t\n      DUP2 \t\t\t\n      LT \t\t\t\n      ISZERO \t\t\t\n      PUSH [tag] 387\t\t\t\n      JUMPI \t\t\t\n      DUP2 \t\t\t\n      MLOAD \t\t\t\n      PUSH [tag] 388\t\t\t\n      DUP9 \t\t\t\n      DUP3 \t\t\t\n      PUSH [tag] 190\t\t\t\n      JUMP \t\t\t\n    tag 388\t\t\t\n      JUMPDEST \t\t\t\n      SWAP8 \t\t\t\n      POP \t\t\t\n      PUSH [tag] 389\t\t\t\n      DUP4 \t\t\t\n      PUSH [tag] 191\t\t\t\n      JUMP \t\t\t\n    tag 389\t\t\t\n      JUMPDEST \t\t\t\n      SWAP3 \t\t\t\n      POP \t\t\t\n      POP \t\t\t\n      PUSH 1\t\t\t\n      DUP2 \t\t\t\n      ADD \t\t\t\n      SWAP1 \t\t\t\n      POP \t\t\t\n      PUSH [tag] 385\t\t\t\n      JUMP \t\t\t\n    tag 387\t\t\t\n      JUMPDEST \t\t\t\n      POP \t\t\t\n      DUP6 \t\t\t\n      SWAP4 \t\t\t\n      POP \t\t\t\n      POP \t\t\t\n      POP \t\t\t\n      POP \t\t\t\n      SWAP3 \t\t\t\n      SWAP2 \t\t\t\n      POP \t\t\t\n      POP \t\t\t\n      JUMP \t\t\t\n    tag 46\t\t\t\n      JUMPDEST \t\t\t\n      PUSH 0\t\t\t\n      PUSH 60\t\t\t\n      DUP3 \t\t\t\n      ADD \t\t\t\n      SWAP1 \t\t\t\n      POP \t\t\t\n      PUSH [tag] 391\t\t\t\n      PUSH 0\t\t\t\n      DUP4 \t\t\t\n      ADD \t\t\t\n      DUP7 \t\t\t\n      PUSH [tag] 172\t\t\t\n      JUMP \t\t\t\n    tag 391\t\t\t\n      JUMPDEST \t\t\t\n      DUP2 \t\t\t\n      DUP2 \t\t\t\n      SUB \t\t\t\n      PUSH 20\t\t\t\n      DUP4 \t\t\t\n      ADD \t\t\t\n      MSTORE \t\t\t\n      PUSH [tag] 392\t\t\t\n      DUP2 \t\t\t\n      DUP6 \t\t\t\n      PUSH [tag] 185\t\t\t\n      JUMP \t\t\t\n    tag 392\t\t\t\n      JUMPDEST \t\t\t\n      SWAP1 \t\t\t\n      POP \t\t\t\n      DUP2 \t\t\t\n      DUP2 \t\t\t\n      SUB \t\t\t\n      PUSH 40\t\t\t\n      DUP4 \t\t\t\n      ADD \t\t\t\n      MSTORE \t\t\t\n      PUSH [tag] 393\t\t\t\n      DUP2 \t\t\t\n      DUP5 \t\t\t\n      PUSH [tag] 192\t\t\t\n      JUMP \t\t\t\n    tag 393\t\t\t\n      JUMPDEST \t\t\t\n      SWAP1 \t\t\t\n      POP \t\t\t\n      SWAP5 \t\t\t\n      SWAP4 \t\t\t\n      POP \t\t\t\n      POP \t\t\t\n      POP \t\t\t\n      POP \t\t\t\n      JUMP \t\t\t\n    tag 193\t\t\t\n      JUMPDEST \t\t\t\n      PUSH 0\t\t\t\n      DUP2 \t\t\t\n      SWAP1 \t\t\t\n      POP \t\t\t\n      SWAP2 \t\t\t\n      SWAP1 \t\t\t\n      POP \t\t\t\n      JUMP \t\t\t\n    tag 194\t\t\t\n      JUMPDEST \t\t\t\n      PUSH 0\t\t\t\n      DUP2 \t\t\t\n      SWAP1 \t\t\t\n      POP \t\t\t\n      SWAP2 \t\t\t\n      SWAP1 \t\t\t\n      POP \t\t\t\n      JUMP \t\t\t\n    tag 195\t\t\t\n      JUMPDEST \t\t\t\n      PUSH 0\t\t\t\n      PUSH [tag] 397\t\t\t\n      PUSH [tag] 398\t\t\t\n      PUSH [tag] 399\t\t\t\n      DUP5 \t\t\t\n      PUSH [tag] 193\t\t\t\n      JUMP \t\t\t\n    tag 399\t\t\t\n      JUMPDEST \t\t\t\n      PUSH [tag] 194\t\t\t\n      JUMP \t\t\t\n    tag 398\t\t\t\n      JUMPDEST \t\t\t\n      PUSH [tag] 163\t\t\t\n      JUMP \t\t\t\n    tag 397\t\t\t\n      JUMPDEST \t\t\t\n      SWAP1 \t\t\t\n      POP \t\t\t\n      SWAP2 \t\t\t\n      SWAP1 \t\t\t\n      POP \t\t\t\n      JUMP \t\t\t\n    tag 196\t\t\t\n      JUMPDEST \t\t\t\n      PUSH [tag] 401\t\t\t\n      DUP2 \t\t\t\n      PUSH [tag] 195\t\t\t\n      JUMP \t\t\t\n    tag 401\t\t\t\n      JUMPDEST \t\t\t\n      DUP3 \t\t\t\n      MSTORE \t\t\t\n      POP \t\t\t\n      POP \t\t\t\n      JUMP \t\t\t\n    tag 197\t\t\t\n      JUMPDEST \t\t\t\n      PUSH 0\t\t\t\n      DUP2 \t\t\t\n      SWAP1 \t\t\t\n      POP \t\t\t\n      SWAP2 \t\t\t\n      SWAP1 \t\t\t\n      POP \t\t\t\n      JUMP \t\t\t\n    tag 198\t\t\t\n      JUMPDEST \t\t\t\n      PUSH 0\t\t\t\n      PUSH [tag] 404\t\t\t\n      PUSH [tag] 405\t\t\t\n      PUSH [tag] 406\t\t\t\n      DUP5 \t\t\t\n      PUSH [tag] 197\t\t\t\n      JUMP \t\t\t\n    tag 406\t\t\t\n      JUMPDEST \t\t\t\n      PUSH [tag] 194\t\t\t\n      JUMP \t\t\t\n    tag 405\t\t\t\n      JUMPDEST \t\t\t\n      PUSH [tag] 163\t\t\t\n      JUMP \t\t\t\n    tag 404\t\t\t\n      JUMPDEST \t\t\t\n      SWAP1 \t\t\t\n      POP \t\t\t\n      SWAP2 \t\t\t\n      SWAP1 \t\t\t\n      POP \t\t\t\n      JUMP \t\t\t\n    tag 199\t\t\t\n      JUMPDEST \t\t\t\n      PUSH [tag] 408\t\t\t\n      DUP2 \t\t\t\n      PUSH [tag] 198\t\t\t\n      JUMP \t\t\t\n    tag 408\t\t\t\n      JUMPDEST \t\t\t\n      DUP3 \t\t\t\n      MSTORE \t\t\t\n      POP \t\t\t\n      POP \t\t\t\n      JUMP \t\t\t\n    tag 200\t\t\t\n      JUMPDEST \t\t\t\n      PUSH 0\t\t\t\n      DUP2 \t\t\t\n      SWAP1 \t\t\t\n      POP \t\t\t\n      SWAP2 \t\t\t\n      SWAP1 \t\t\t\n      POP \t\t\t\n      JUMP \t\t\t\n    tag 201\t\t\t\n      JUMPDEST \t\t\t\n      PUSH 0\t\t\t\n      PUSH [tag] 411\t\t\t\n      PUSH [tag] 412\t\t\t\n      PUSH [tag] 413\t\t\t\n      DUP5 \t\t\t\n      PUSH [tag] 200\t\t\t\n      JUMP \t\t\t\n    tag 413\t\t\t\n      JUMPDEST \t\t\t\n      PUSH [tag] 194\t\t\t\n      JUMP \t\t\t\n    tag 412\t\t\t\n      JUMPDEST \t\t\t\n      PUSH [tag] 163\t\t\t\n      JUMP \t\t\t\n    tag 411\t\t\t\n      JUMPDEST \t\t\t\n      SWAP1 \t\t\t\n      POP \t\t\t\n      SWAP2 \t\t\t\n      SWAP1 \t\t\t\n      POP \t\t\t\n      JUMP \t\t\t\n    tag 202\t\t\t\n      JUMPDEST \t\t\t\n      PUSH [tag] 415\t\t\t\n      DUP2 \t\t\t\n      PUSH [tag] 201\t\t\t\n      JUMP \t\t\t\n    tag 415\t\t\t\n      JUMPDEST \t\t\t\n      DUP3 \t\t\t\n      MSTORE \t\t\t\n      POP \t\t\t\n      POP \t\t\t\n      JUMP \t\t\t\n    tag 203\t\t\t\n      JUMPDEST \t\t\t\n      PUSH 0\t\t\t\n      DUP2 \t\t\t\n      MLOAD \t\t\t\n      SWAP1 \t\t\t\n      POP \t\t\t\n      SWAP2 \t\t\t\n      SWAP1 \t\t\t\n      POP \t\t\t\n      JUMP \t\t\t\n    tag 204\t\t\t\n      JUMPDEST \t\t\t\n      PUSH 0\t\t\t\n      DUP3 \t\t\t\n      DUP3 \t\t\t\n      MSTORE \t\t\t\n      PUSH 20\t\t\t\n      DUP3 \t\t\t\n      ADD \t\t\t\n      SWAP1 \t\t\t\n      POP \t\t\t\n      SWAP3 \t\t\t\n      SWAP2 \t\t\t\n      POP \t\t\t\n      POP \t\t\t\n      JUMP \t\t\t\n    tag 205\t\t\t\n      JUMPDEST \t\t\t\n      PUSH 0\t\t\t\n    tag 419\t\t\t\n      JUMPDEST \t\t\t\n      DUP4 \t\t\t\n      DUP2 \t\t\t\n      LT \t\t\t\n      ISZERO \t\t\t\n      PUSH [tag] 421\t\t\t\n      JUMPI \t\t\t\n      DUP1 \t\t\t\n      DUP3 \t\t\t\n      ADD \t\t\t\n      MLOAD \t\t\t\n      DUP2 \t\t\t\n      DUP5 \t\t\t\n      ADD \t\t\t\n      MSTORE \t\t\t\n      PUSH 20\t\t\t\n      DUP2 \t\t\t\n      ADD \t\t\t\n      SWAP1 \t\t\t\n      POP \t\t\t\n      PUSH [tag] 419\t\t\t\n      JUMP \t\t\t\n    tag 421\t\t\t\n      JUMPDEST \t\t\t\n      PUSH 0\t\t\t\n      DUP5 \t\t\t\n      DUP5 \t\t\t\n      ADD \t\t\t\n      MSTORE \t\t\t\n      POP \t\t\t\n      POP \t\t\t\n      POP \t\t\t\n      POP \t\t\t\n      JUMP \t\t\t\n    tag 206\t\t\t\n      JUMPDEST \t\t\t\n      PUSH 0\t\t\t\n      PUSH [tag] 423\t\t\t\n      DUP3 \t\t\t\n      PUSH [tag] 203\t\t\t\n      JUMP \t\t\t\n    tag 423\t\t\t\n      JUMPDEST \t\t\t\n      PUSH [tag] 424\t\t\t\n      DUP2 \t\t\t\n      DUP6 \t\t\t\n      PUSH [tag] 204\t\t\t\n      JUMP \t\t\t\n    tag 424\t\t\t\n      JUMPDEST \t\t\t\n      SWAP4 \t\t\t\n      POP \t\t\t\n      PUSH [tag] 425\t\t\t\n      DUP2 \t\t\t\n      DUP6 \t\t\t\n      PUSH 20\t\t\t\n      DUP7 \t\t\t\n      ADD \t\t\t\n      PUSH [tag] 205\t\t\t\n      JUMP \t\t\t\n    tag 425\t\t\t\n      JUMPDEST \t\t\t\n      PUSH [tag] 426\t\t\t\n      DUP2 \t\t\t\n      PUSH [tag] 154\t\t\t\n      JUMP \t\t\t\n    tag 426\t\t\t\n      JUMPDEST \t\t\t\n      DUP5 \t\t\t\n      ADD \t\t\t\n      SWAP2 \t\t\t\n      POP \t\t\t\n      POP \t\t\t\n      SWAP3 \t\t\t\n      SWAP2 \t\t\t\n      POP \t\t\t\n      POP \t\t\t\n      JUMP \t\t\t\n    tag 48\t\t\t\n      JUMPDEST \t\t\t\n      PUSH 0\t\t\t\n      PUSH C0\t\t\t\n      DUP3 \t\t\t\n      ADD \t\t\t\n      SWAP1 \t\t\t\n      POP \t\t\t\n      PUSH [tag] 428\t\t\t\n      PUSH 0\t\t\t\n      DUP4 \t\t\t\n      ADD \t\t\t\n      DUP10 \t\t\t\n      PUSH [tag] 172\t\t\t\n      JUMP \t\t\t\n    tag 428\t\t\t\n      JUMPDEST \t\t\t\n      PUSH [tag] 429\t\t\t\n      PUSH 20\t\t\t\n      DUP4 \t\t\t\n      ADD \t\t\t\n      DUP9 \t\t\t\n      PUSH [tag] 196\t\t\t\n      JUMP \t\t\t\n    tag 429\t\t\t\n      JUMPDEST \t\t\t\n      PUSH [tag] 430\t\t\t\n      PUSH 40\t\t\t\n      DUP4 \t\t\t\n      ADD \t\t\t\n      DUP8 \t\t\t\n      PUSH [tag] 199\t\t\t\n      JUMP \t\t\t\n    tag 430\t\t\t\n      JUMPDEST \t\t\t\n      PUSH [tag] 431\t\t\t\n      PUSH 60\t\t\t\n      DUP4 \t\t\t\n      ADD \t\t\t\n      DUP7 \t\t\t\n      PUSH [tag] 202\t\t\t\n      JUMP \t\t\t\n    tag 431\t\t\t\n      JUMPDEST \t\t\t\n      PUSH [tag] 432\t\t\t\n      PUSH 80\t\t\t\n      DUP4 \t\t\t\n      ADD \t\t\t\n      DUP6 \t\t\t\n      PUSH [tag] 173\t\t\t\n      JUMP \t\t\t\n    tag 432\t\t\t\n      JUMPDEST \t\t\t\n      DUP2 \t\t\t\n      DUP2 \t\t\t\n      SUB \t\t\t\n      PUSH A0\t\t\t\n      DUP4 \t\t\t\n      ADD \t\t\t\n      MSTORE \t\t\t\n      PUSH [tag] 433\t\t\t\n      DUP2 \t\t\t\n      DUP5 \t\t\t\n      PUSH [tag] 206\t\t\t\n      JUMP \t\t\t\n    tag 433\t\t\t\n      JUMPDEST \t\t\t\n      SWAP1 \t\t\t\n      POP \t\t\t\n      SWAP8 \t\t\t\n      SWAP7 \t\t\t\n      POP \t\t\t\n      POP \t\t\t\n      POP \t\t\t\n      POP \t\t\t\n      POP \t\t\t\n      POP \t\t\t\n      POP \t\t\t\n      JUMP \t\t\t\n    tag 207\t\t\t\n      JUMPDEST \t\t\t\n      PUSH 0\t\t\t\n      DUP1 \t\t\t\n      REVERT \t\t\t\n    tag 208\t\t\t\n      JUMPDEST \t\t\t\n      PUSH 0\t\t\t\n      PUSH FFFFFFFFFFFFFFFF\t\t\t\n      DUP3 \t\t\t\n      GT \t\t\t\n      ISZERO \t\t\t\n      PUSH [tag] 436\t\t\t\n      JUMPI \t\t\t\n      PUSH [tag] 437\t\t\t\n      PUSH [tag] 155\t\t\t\n      JUMP \t\t\t\n    tag 437\t\t\t\n      JUMPDEST \t\t\t\n    tag 436\t\t\t\n      JUMPDEST \t\t\t\n      PUSH [tag] 438\t\t\t\n      DUP3 \t\t\t\n      PUSH [tag] 154\t\t\t\n      JUMP \t\t\t\n    tag 438\t\t\t\n      JUMPDEST \t\t\t\n      SWAP1 \t\t\t\n      POP \t\t\t\n      PUSH 20\t\t\t\n      DUP2 \t\t\t\n      ADD \t\t\t\n      SWAP1 \t\t\t\n      POP \t\t\t\n      SWAP2 \t\t\t\n      SWAP1 \t\t\t\n      POP \t\t\t\n      JUMP \t\t\t\n    tag 209\t\t\t\n      JUMPDEST \t\t\t\n      PUSH 0\t\t\t\n      PUSH [tag] 440\t\t\t\n      PUSH [tag] 441\t\t\t\n      DUP5 \t\t\t\n      PUSH [tag] 208\t\t\t\n      JUMP \t\t\t\n    tag 441\t\t\t\n      JUMPDEST \t\t\t\n      PUSH [tag] 157\t\t\t\n      JUMP \t\t\t\n    tag 440\t\t\t\n      JUMPDEST \t\t\t\n      SWAP1 \t\t\t\n      POP \t\t\t\n      DUP3 \t\t\t\n      DUP2 \t\t\t\n      MSTORE \t\t\t\n      PUSH 20\t\t\t\n      DUP2 \t\t\t\n      ADD \t\t\t\n      DUP5 \t\t\t\n      DUP5 \t\t\t\n      DUP5 \t\t\t\n      ADD \t\t\t\n      GT \t\t\t\n      ISZERO \t\t\t\n      PUSH [tag] 442\t\t\t\n      JUMPI \t\t\t\n      PUSH [tag] 443\t\t\t\n      PUSH [tag] 207\t\t\t\n      JUMP \t\t\t\n    tag 443\t\t\t\n      JUMPDEST \t\t\t\n    tag 442\t\t\t\n      JUMPDEST \t\t\t\n      PUSH [tag] 444\t\t\t\n      DUP5 \t\t\t\n      DUP3 \t\t\t\n      DUP6 \t\t\t\n      PUSH [tag] 205\t\t\t\n      JUMP \t\t\t\n    tag 444\t\t\t\n      JUMPDEST \t\t\t\n      POP \t\t\t\n      SWAP4 \t\t\t\n      SWAP3 \t\t\t\n      POP \t\t\t\n      POP \t\t\t\n      POP \t\t\t\n      JUMP \t\t\t\n    tag 210\t\t\t\n      JUMPDEST \t\t\t\n      PUSH 0\t\t\t\n      DUP3 \t\t\t\n      PUSH 1F\t\t\t\n      DUP4 \t\t\t\n      ADD \t\t\t\n      SLT \t\t\t\n      PUSH [tag] 446\t\t\t\n      JUMPI \t\t\t\n      PUSH [tag] 447\t\t\t\n      PUSH [tag] 153\t\t\t\n      JUMP \t\t\t\n    tag 447\t\t\t\n      JUMPDEST \t\t\t\n    tag 446\t\t\t\n      JUMPDEST \t\t\t\n      DUP2 \t\t\t\n      MLOAD \t\t\t\n      PUSH [tag] 448\t\t\t\n      DUP5 \t\t\t\n      DUP3 \t\t\t\n      PUSH 20\t\t\t\n      DUP7 \t\t\t\n      ADD \t\t\t\n      PUSH [tag] 209\t\t\t\n      JUMP \t\t\t\n    tag 448\t\t\t\n      JUMPDEST \t\t\t\n      SWAP2 \t\t\t\n      POP \t\t\t\n      POP \t\t\t\n      SWAP3 \t\t\t\n      SWAP2 \t\t\t\n      POP \t\t\t\n      POP \t\t\t\n      JUMP \t\t\t\n    tag 52\t\t\t\n      JUMPDEST \t\t\t\n      PUSH 0\t\t\t\n      PUSH 20\t\t\t\n      DUP3 \t\t\t\n      DUP5 \t\t\t\n      SUB \t\t\t\n      SLT \t\t\t\n      ISZERO \t\t\t\n      PUSH [tag] 450\t\t\t\n      JUMPI \t\t\t\n      PUSH [tag] 451\t\t\t\n      PUSH [tag] 147\t\t\t\n      JUMP \t\t\t\n    tag 451\t\t\t\n      JUMPDEST \t\t\t\n    tag 450\t\t\t\n      JUMPDEST \t\t\t\n      PUSH 0\t\t\t\n      DUP3 \t\t\t\n      ADD \t\t\t\n      MLOAD \t\t\t\n      PUSH FFFFFFFFFFFFFFFF\t\t\t\n      DUP2 \t\t\t\n      GT \t\t\t\n      ISZERO \t\t\t\n      PUSH [tag] 452\t\t\t\n      JUMPI \t\t\t\n      PUSH [tag] 453\t\t\t\n      PUSH [tag] 148\t\t\t\n      JUMP \t\t\t\n    tag 453\t\t\t\n      JUMPDEST \t\t\t\n    tag 452\t\t\t\n      JUMPDEST \t\t\t\n      PUSH [tag] 454\t\t\t\n      DUP5 \t\t\t\n      DUP3 \t\t\t\n      DUP6 \t\t\t\n      ADD \t\t\t\n      PUSH [tag] 210\t\t\t\n      JUMP \t\t\t\n    tag 454\t\t\t\n      JUMPDEST \t\t\t\n      SWAP2 \t\t\t\n      POP \t\t\t\n      POP \t\t\t\n      SWAP3 \t\t\t\n      SWAP2 \t\t\t\n      POP \t\t\t\n      POP \t\t\t\n      JUMP \t\t\t\n    tag 211\t\t\t\n      JUMPDEST \t\t\t\n      PUSH 0\t\t\t\n      DUP2 \t\t\t\n      SWAP1 \t\t\t\n      POP \t\t\t\n      SWAP3 \t\t\t\n      SWAP2 \t\t\t\n      POP \t\t\t\n      POP \t\t\t\n      JUMP \t\t\t\n    tag 212\t\t\t\n      JUMPDEST \t\t\t\n      PUSH 0\t\t\t\n      PUSH [tag] 457\t\t\t\n      DUP3 \t\t\t\n      PUSH [tag] 203\t\t\t\n      JUMP \t\t\t\n    tag 457\t\t\t\n      JUMPDEST \t\t\t\n      PUSH [tag] 458\t\t\t\n      DUP2 \t\t\t\n      DUP6 \t\t\t\n      PUSH [tag] 211\t\t\t\n      JUMP \t\t\t\n    tag 458\t\t\t\n      JUMPDEST \t\t\t\n      SWAP4 \t\t\t\n      POP \t\t\t\n      PUSH [tag] 459\t\t\t\n      DUP2 \t\t\t\n      DUP6 \t\t\t\n      PUSH 20\t\t\t\n      DUP7 \t\t\t\n      ADD \t\t\t\n      PUSH [tag] 205\t\t\t\n      JUMP \t\t\t\n    tag 459\t\t\t\n      JUMPDEST \t\t\t\n      DUP1 \t\t\t\n      DUP5 \t\t\t\n      ADD \t\t\t\n      SWAP2 \t\t\t\n      POP \t\t\t\n      POP \t\t\t\n      SWAP3 \t\t\t\n      SWAP2 \t\t\t\n      POP \t\t\t\n      POP \t\t\t\n      JUMP \t\t\t\n    tag 54\t\t\t\n      JUMPDEST \t\t\t\n      PUSH 0\t\t\t\n      PUSH [tag] 461\t\t\t\n      DUP3 \t\t\t\n      DUP5 \t\t\t\n      PUSH [tag] 212\t\t\t\n      JUMP \t\t\t\n    tag 461\t\t\t\n      JUMPDEST \t\t\t\n      SWAP2 \t\t\t\n      POP \t\t\t\n      DUP2 \t\t\t\n      SWAP1 \t\t\t\n      POP \t\t\t\n      SWAP3 \t\t\t\n      SWAP2 \t\t\t\n      POP \t\t\t\n      POP \t\t\t\n      JUMP \t\t\t\n    tag 57\t\t\t\n      JUMPDEST \t\t\t\n      PUSH 0\t\t\t\n      PUSH 60\t\t\t\n      DUP3 \t\t\t\n      ADD \t\t\t\n      SWAP1 \t\t\t\n      POP \t\t\t\n      DUP2 \t\t\t\n      DUP2 \t\t\t\n      SUB \t\t\t\n      PUSH 0\t\t\t\n      DUP4 \t\t\t\n      ADD \t\t\t\n      MSTORE \t\t\t\n      PUSH [tag] 463\t\t\t\n      DUP2 \t\t\t\n      DUP7 \t\t\t\n      PUSH [tag] 185\t\t\t\n      JUMP \t\t\t\n    tag 463\t\t\t\n      JUMPDEST \t\t\t\n      SWAP1 \t\t\t\n      POP \t\t\t\n      DUP2 \t\t\t\n      DUP2 \t\t\t\n      SUB \t\t\t\n      PUSH 20\t\t\t\n      DUP4 \t\t\t\n      ADD \t\t\t\n      MSTORE \t\t\t\n      PUSH [tag] 464\t\t\t\n      DUP2 \t\t\t\n      DUP6 \t\t\t\n      PUSH [tag] 192\t\t\t\n      JUMP \t\t\t\n    tag 464\t\t\t\n      JUMPDEST \t\t\t\n      SWAP1 \t\t\t\n      POP \t\t\t\n      PUSH [tag] 465\t\t\t\n      PUSH 40\t\t\t\n      DUP4 \t\t\t\n      ADD \t\t\t\n      DUP5 \t\t\t\n      PUSH [tag] 173\t\t\t\n      JUMP \t\t\t\n    tag 465\t\t\t\n      JUMPDEST \t\t\t\n      SWAP5 \t\t\t\n      SWAP4 \t\t\t\n      POP \t\t\t\n      POP \t\t\t\n      POP \t\t\t\n      POP \t\t\t\n      JUMP \t\t\t\n    tag 213\t\t\t\n      JUMPDEST \t\t\t\n      PUSH 546F6B656E207472616E7366657246726F6D206661696C656421200000000000\t\t\t\n      PUSH 0\t\t\t\n      DUP3 \t\t\t\n      ADD \t\t\t\n      MSTORE \t\t\t\n      POP \t\t\t\n      JUMP \t\t\t\n    tag 214\t\t\t\n      JUMPDEST \t\t\t\n      PUSH 0\t\t\t\n      PUSH [tag] 468\t\t\t\n      PUSH 1B\t\t\t\n      DUP4 \t\t\t\n      PUSH [tag] 168\t\t\t\n      JUMP \t\t\t\n    tag 468\t\t\t\n      JUMPDEST \t\t\t\n      SWAP2 \t\t\t\n      POP \t\t\t\n      PUSH [tag] 469\t\t\t\n      DUP3 \t\t\t\n      PUSH [tag] 213\t\t\t\n      JUMP \t\t\t\n    tag 469\t\t\t\n      JUMPDEST \t\t\t\n      PUSH 20\t\t\t\n      DUP3 \t\t\t\n      ADD \t\t\t\n      SWAP1 \t\t\t\n      POP \t\t\t\n      SWAP2 \t\t\t\n      SWAP1 \t\t\t\n      POP \t\t\t\n      JUMP \t\t\t\n    tag 74\t\t\t\n      JUMPDEST \t\t\t\n      PUSH 0\t\t\t\n      PUSH 20\t\t\t\n      DUP3 \t\t\t\n      ADD \t\t\t\n      SWAP1 \t\t\t\n      POP \t\t\t\n      DUP2 \t\t\t\n      DUP2 \t\t\t\n      SUB \t\t\t\n      PUSH 0\t\t\t\n      DUP4 \t\t\t\n      ADD \t\t\t\n      MSTORE \t\t\t\n      PUSH [tag] 471\t\t\t\n      DUP2 \t\t\t\n      PUSH [tag] 214\t\t\t\n      JUMP \t\t\t\n    tag 471\t\t\t\n      JUMPDEST \t\t\t\n      SWAP1 \t\t\t\n      POP \t\t\t\n      SWAP2 \t\t\t\n      SWAP1 \t\t\t\n      POP \t\t\t\n      JUMP \t\t\t\n    tag 83\t\t\t\n      JUMPDEST \t\t\t\n      PUSH 0\t\t\t\n      PUSH 40\t\t\t\n      DUP3 \t\t\t\n      ADD \t\t\t\n      SWAP1 \t\t\t\n      POP \t\t\t\n      PUSH [tag] 473\t\t\t\n      PUSH 0\t\t\t\n      DUP4 \t\t\t\n      ADD \t\t\t\n      DUP6 \t\t\t\n      PUSH [tag] 172\t\t\t\n      JUMP \t\t\t\n    tag 473\t\t\t\n      JUMPDEST \t\t\t\n      PUSH [tag] 474\t\t\t\n      PUSH 20\t\t\t\n      DUP4 \t\t\t\n      ADD \t\t\t\n      DUP5 \t\t\t\n      PUSH [tag] 173\t\t\t\n      JUMP \t\t\t\n    tag 474\t\t\t\n      JUMPDEST \t\t\t\n      SWAP4 \t\t\t\n      SWAP3 \t\t\t\n      POP \t\t\t\n      POP \t\t\t\n      POP \t\t\t\n      JUMP \t\t\t\n    tag 215\t\t\t\n      JUMPDEST \t\t\t\n      PUSH 546F6B656E207472616E73666572206661696C65640000000000000000000000\t\t\t\n      PUSH 0\t\t\t\n      DUP3 \t\t\t\n      ADD \t\t\t\n      MSTORE \t\t\t\n      POP \t\t\t\n      JUMP \t\t\t\n    tag 216\t\t\t\n      JUMPDEST \t\t\t\n      PUSH 0\t\t\t\n      PUSH [tag] 477\t\t\t\n      PUSH 15\t\t\t\n      DUP4 \t\t\t\n      PUSH [tag] 168\t\t\t\n      JUMP \t\t\t\n    tag 477\t\t\t\n      JUMPDEST \t\t\t\n      SWAP2 \t\t\t\n      POP \t\t\t\n      PUSH [tag] 478\t\t\t\n      DUP3 \t\t\t\n      PUSH [tag] 215\t\t\t\n      JUMP \t\t\t\n    tag 478\t\t\t\n      JUMPDEST \t\t\t\n      PUSH 20\t\t\t\n      DUP3 \t\t\t\n      ADD \t\t\t\n      SWAP1 \t\t\t\n      POP \t\t\t\n      SWAP2 \t\t\t\n      SWAP1 \t\t\t\n      POP \t\t\t\n      JUMP \t\t\t\n    tag 89\t\t\t\n      JUMPDEST \t\t\t\n      PUSH 0\t\t\t\n      PUSH 20\t\t\t\n      DUP3 \t\t\t\n      ADD \t\t\t\n      SWAP1 \t\t\t\n      POP \t\t\t\n      DUP2 \t\t\t\n      DUP2 \t\t\t\n      SUB \t\t\t\n      PUSH 0\t\t\t\n      DUP4 \t\t\t\n      ADD \t\t\t\n      MSTORE \t\t\t\n      PUSH [tag] 480\t\t\t\n      DUP2 \t\t\t\n      PUSH [tag] 216\t\t\t\n      JUMP \t\t\t\n    tag 480\t\t\t\n      JUMPDEST \t\t\t\n      SWAP1 \t\t\t\n      POP \t\t\t\n      SWAP2 \t\t\t\n      SWAP1 \t\t\t\n      POP \t\t\t\n      JUMP \t\t\t\n    tag 95\t\t\t\n      JUMPDEST \t\t\t\n      PUSH 0\t\t\t\n      PUSH 20\t\t\t\n      DUP3 \t\t\t\n      ADD \t\t\t\n      SWAP1 \t\t\t\n      POP \t\t\t\n      PUSH [tag] 482\t\t\t\n      PUSH 0\t\t\t\n      DUP4 \t\t\t\n      ADD \t\t\t\n      DUP5 \t\t\t\n      PUSH [tag] 173\t\t\t\n      JUMP \t\t\t\n    tag 482\t\t\t\n      JUMPDEST \t\t\t\n      SWAP3 \t\t\t\n      SWAP2 \t\t\t\n      POP \t\t\t\n      POP \t\t\t\n      JUMP \t\t\t\n    tag 99\t\t\t\n      JUMPDEST \t\t\t\n      PUSH 0\t\t\t\n      PUSH 20\t\t\t\n      DUP3 \t\t\t\n      ADD \t\t\t\n      SWAP1 \t\t\t\n      POP \t\t\t\n      PUSH [tag] 484\t\t\t\n      PUSH 0\t\t\t\n      DUP4 \t\t\t\n      ADD \t\t\t\n      DUP5 \t\t\t\n      PUSH [tag] 172\t\t\t\n      JUMP \t\t\t\n    tag 484\t\t\t\n      JUMPDEST \t\t\t\n      SWAP3 \t\t\t\n      SWAP2 \t\t\t\n      POP \t\t\t\n      POP \t\t\t\n      JUMP \t\t\t\n    tag 217\t\t\t\n      JUMPDEST \t\t\t\n      PUSH 0\t\t\t\n      DUP2 \t\t\t\n      MLOAD \t\t\t\n      SWAP1 \t\t\t\n      POP \t\t\t\n      PUSH [tag] 486\t\t\t\n      DUP2 \t\t\t\n      PUSH [tag] 164\t\t\t\n      JUMP \t\t\t\n    tag 486\t\t\t\n      JUMPDEST \t\t\t\n      SWAP3 \t\t\t\n      SWAP2 \t\t\t\n      POP \t\t\t\n      POP \t\t\t\n      JUMP \t\t\t\n    tag 103\t\t\t\n      JUMPDEST \t\t\t\n      PUSH 0\t\t\t\n      PUSH 20\t\t\t\n      DUP3 \t\t\t\n      DUP5 \t\t\t\n      SUB \t\t\t\n      SLT \t\t\t\n      ISZERO \t\t\t\n      PUSH [tag] 488\t\t\t\n      JUMPI \t\t\t\n      PUSH [tag] 489\t\t\t\n      PUSH [tag] 147\t\t\t\n      JUMP \t\t\t\n    tag 489\t\t\t\n      JUMPDEST \t\t\t\n    tag 488\t\t\t\n      JUMPDEST \t\t\t\n      PUSH 0\t\t\t\n      PUSH [tag] 490\t\t\t\n      DUP5 \t\t\t\n      DUP3 \t\t\t\n      DUP6 \t\t\t\n      ADD \t\t\t\n      PUSH [tag] 217\t\t\t\n      JUMP \t\t\t\n    tag 490\t\t\t\n      JUMPDEST \t\t\t\n      SWAP2 \t\t\t\n      POP \t\t\t\n      POP \t\t\t\n      SWAP3 \t\t\t\n      SWAP2 \t\t\t\n      POP \t\t\t\n      POP \t\t\t\n      JUMP \t\t\t\n    tag 109\t\t\t\n      JUMPDEST \t\t\t\n      PUSH 0\t\t\t\n      PUSH C0\t\t\t\n      DUP3 \t\t\t\n      ADD \t\t\t\n      SWAP1 \t\t\t\n      POP \t\t\t\n      PUSH [tag] 492\t\t\t\n      PUSH 0\t\t\t\n      DUP4 \t\t\t\n      ADD \t\t\t\n      DUP10 \t\t\t\n      PUSH [tag] 172\t\t\t\n      JUMP \t\t\t\n    tag 492\t\t\t\n      JUMPDEST \t\t\t\n      DUP2 \t\t\t\n      DUP2 \t\t\t\n      SUB \t\t\t\n      PUSH 20\t\t\t\n      DUP4 \t\t\t\n      ADD \t\t\t\n      MSTORE \t\t\t\n      PUSH [tag] 493\t\t\t\n      DUP2 \t\t\t\n      DUP9 \t\t\t\n      PUSH [tag] 185\t\t\t\n      JUMP \t\t\t\n    tag 493\t\t\t\n      JUMPDEST \t\t\t\n      SWAP1 \t\t\t\n      POP \t\t\t\n      DUP2 \t\t\t\n      DUP2 \t\t\t\n      SUB \t\t\t\n      PUSH 40\t\t\t\n      DUP4 \t\t\t\n      ADD \t\t\t\n      MSTORE \t\t\t\n      PUSH [tag] 494\t\t\t\n      DUP2 \t\t\t\n      DUP8 \t\t\t\n      PUSH [tag] 192\t\t\t\n      JUMP \t\t\t\n    tag 494\t\t\t\n      JUMPDEST \t\t\t\n      SWAP1 \t\t\t\n      POP \t\t\t\n      PUSH [tag] 495\t\t\t\n      PUSH 60\t\t\t\n      DUP4 \t\t\t\n      ADD \t\t\t\n      DUP7 \t\t\t\n      PUSH [tag] 173\t\t\t\n      JUMP \t\t\t\n    tag 495\t\t\t\n      JUMPDEST \t\t\t\n      PUSH [tag] 496\t\t\t\n      PUSH 80\t\t\t\n      DUP4 \t\t\t\n      ADD \t\t\t\n      DUP6 \t\t\t\n      PUSH [tag] 173\t\t\t\n      JUMP \t\t\t\n    tag 496\t\t\t\n      JUMPDEST \t\t\t\n      PUSH [tag] 497\t\t\t\n      PUSH A0\t\t\t\n      DUP4 \t\t\t\n      ADD \t\t\t\n      DUP5 \t\t\t\n      PUSH [tag] 172\t\t\t\n      JUMP \t\t\t\n    tag 497\t\t\t\n      JUMPDEST \t\t\t\n      SWAP8 \t\t\t\n      SWAP7 \t\t\t\n      POP \t\t\t\n      POP \t\t\t\n      POP \t\t\t\n      POP \t\t\t\n      POP \t\t\t\n      POP \t\t\t\n      POP \t\t\t\n      JUMP \t\t\t\n    tag 218\t\t\t\n      JUMPDEST \t\t\t\n      PUSH 4D69736D61746368656420726563697069656E747320616E6420616D6F756E74\t\t\t\n      PUSH 0\t\t\t\n      DUP3 \t\t\t\n      ADD \t\t\t\n      MSTORE \t\t\t\n      PUSH 7300000000000000000000000000000000000000000000000000000000000000\t\t\t\n      PUSH 20\t\t\t\n      DUP3 \t\t\t\n      ADD \t\t\t\n      MSTORE \t\t\t\n      POP \t\t\t\n      JUMP \t\t\t\n    tag 219\t\t\t\n      JUMPDEST \t\t\t\n      PUSH 0\t\t\t\n      PUSH [tag] 500\t\t\t\n      PUSH 21\t\t\t\n      DUP4 \t\t\t\n      PUSH [tag] 168\t\t\t\n      JUMP \t\t\t\n    tag 500\t\t\t\n      JUMPDEST \t\t\t\n      SWAP2 \t\t\t\n      POP \t\t\t\n      PUSH [tag] 501\t\t\t\n      DUP3 \t\t\t\n      PUSH [tag] 218\t\t\t\n      JUMP \t\t\t\n    tag 501\t\t\t\n      JUMPDEST \t\t\t\n      PUSH 40\t\t\t\n      DUP3 \t\t\t\n      ADD \t\t\t\n      SWAP1 \t\t\t\n      POP \t\t\t\n      SWAP2 \t\t\t\n      SWAP1 \t\t\t\n      POP \t\t\t\n      JUMP \t\t\t\n    tag 120\t\t\t\n      JUMPDEST \t\t\t\n      PUSH 0\t\t\t\n      PUSH 20\t\t\t\n      DUP3 \t\t\t\n      ADD \t\t\t\n      SWAP1 \t\t\t\n      POP \t\t\t\n      DUP2 \t\t\t\n      DUP2 \t\t\t\n      SUB \t\t\t\n      PUSH 0\t\t\t\n      DUP4 \t\t\t\n      ADD \t\t\t\n      MSTORE \t\t\t\n      PUSH [tag] 503\t\t\t\n      DUP2 \t\t\t\n      PUSH [tag] 219\t\t\t\n      JUMP \t\t\t\n    tag 503\t\t\t\n      JUMPDEST \t\t\t\n      SWAP1 \t\t\t\n      POP \t\t\t\n      SWAP2 \t\t\t\n      SWAP1 \t\t\t\n      POP \t\t\t\n      JUMP \t\t\t\n    .data\n"
}