{
	"compilerInput": "{\"language\":\"Solidity\",\"sources\":{\"contracts/Test.sol\":{\"content\":\"// SPDX-License-Identifier: MIT\\r\\n\\r\\nimport \\\"@openzeppelin/contracts/token/ERC20/IERC20.sol\\\";\\r\\nimport \\\"@acala-network/contracts/schedule/ISchedule.sol\\\";\\r\\nimport \\\"@acala-network/contracts/oracle/IOracle.sol\\\";\\r\\nimport \\\"@acala-network/contracts/utils/Predeploy.sol\\\";\\r\\nimport \\\"@acala-network/contracts/utils/AcalaTokens.sol\\\";\\r\\n\\r\\npragma solidity ^0.8.0;\\r\\n\\r\\ncontract DisDrop{\\r\\n\\r\\n    constructor() payable{}\\r\\n\\r\\n    ISchedule  scheduler = ISchedule(SCHEDULE);\\r\\n    IOracle oracle = IOracle(ORACLE);\\r\\n\\r\\n    fallback() external payable{}\\r\\n    receive() external payable{}\\r\\n\\r\\n    event Erc20BatchTransfer(uint256 indexed recipientIndex, address indexed recipient, uint256 amount);\\r\\n    event TransferScheduled(bytes indexed scheduleId, address indexed token, address[] recipients, uint256[] amounts, uint256 executionTime);\\r\\n    event PriceCheckScheduled(bytes indexed scheduleId, uint256 nextCheckTime);\\r\\n\\r\\n    function dispersal(address tokenAddress, address[] memory recipients, uint256[] memory amount) payable public{\\r\\n        IERC20 token = IERC20(tokenAddress);\\r\\n        require(recipients.length == amount.length , \\\"Give inputs accordingly!\\\");\\r\\n        uint256 total = 0;\\r\\n        for (uint256 i = 0; i < recipients.length; i++) {\\r\\n            total = total + amount[i];\\r\\n            }\\r\\n        require(token.transferFrom(msg.sender, address(this), total) , \\\"Token transferFrom failed! \\\");\\r\\n        for (uint256 i = 0; i < recipients.length; i++) {\\r\\n            require(token.transfer(recipients[i], amount[i]), \\\"Token transfer failed\\\");\\r\\n            emit Erc20BatchTransfer(i, recipients[i], amount[i]);\\r\\n            }\\r\\n    }\\r\\n\\r\\n    function scheduled_dispersal(address tokenAddress, address[] memory recipients, uint256[] memory amounts, uint256 delay) payable public{\\r\\n        IERC20 token = IERC20(tokenAddress);\\r\\n        require(recipients.length == amounts.length, \\\"Give inputs accordingly!\\\");\\r\\n        uint256 total = 0;\\r\\n        for (uint256 i = 0; i < amounts.length; i++) {\\r\\n            total = total + amounts[i];\\r\\n        }\\r\\n        require(token.transferFrom(msg.sender, address(this), total), \\\"Token transfer failed!\\\");\\r\\n        bytes memory data = abi.encodeWithSignature(\\\"executeERC20BatchTransfer(address,address[],uint256[])\\\",tokenAddress, recipients, amounts);\\r\\n        bytes memory scheduleId = scheduler.scheduleCall(address(this), 0, 2100000, 64000, delay, data);\\r\\n        emit TransferScheduled(scheduleId,tokenAddress, recipients, amounts, block.timestamp + delay);\\r\\n    }\\r\\n\\r\\n    function executeERC20BatchTransfer(address tokenAddress, address[] memory recipients, uint256[] memory amounts) public {\\r\\n        IERC20 token = IERC20(tokenAddress);\\r\\n        require(recipients.length == amounts.length, \\\"Mismatched recipients and amounts\\\");\\r\\n        for (uint256 i = 0; i < recipients.length; i++) {\\r\\n            require(token.transfer(recipients[i], amounts[i]), \\\"Token transfer failed\\\");\\r\\n            emit Erc20BatchTransfer(i, recipients[i], amounts[i]);\\r\\n        }\\r\\n    }\\r\\n\\r\\n    function priceTriggeredDispersal(\\r\\n        address tokenAddress,\\r\\n        address[] memory recipients,\\r\\n        uint256[] memory amounts,\\r\\n        uint256 desiredPrice,\\r\\n        uint256 interval\\r\\n    ) payable public{\\r\\n        IERC20 token = IERC20(tokenAddress);\\r\\n        address spender = msg.sender;\\r\\n        uint256 currentPrice = oracle.getPrice(address(token));\\r\\n        if (currentPrice == desiredPrice) {\\r\\n            executeBatchTransfer(tokenAddress, recipients, amounts, spender);\\r\\n        } else {\\r\\n            bytes memory data = abi.encodeWithSignature(\\r\\n                \\\"checkPriceandDisperse(address,address[],uint256[],uint256,uint256,address)\\\",\\r\\n                tokenAddress,\\r\\n                recipients,\\r\\n                amounts,\\r\\n                desiredPrice,\\r\\n                interval,\\r\\n                spender\\r\\n            );\\r\\n            bytes memory scheduleId = scheduler.scheduleCall(address(this), 0, 2100000, 64000, interval, data);\\r\\n            emit PriceCheckScheduled(scheduleId, block.timestamp + interval);\\r\\n        }\\r\\n    }\\r\\n\\r\\n    function checkPriceandDisperse(\\r\\n        address tokenAddress,\\r\\n        address[] memory recipients,\\r\\n        uint256[] memory amounts,\\r\\n        uint256 desiredPrice,\\r\\n        uint256 interval,\\r\\n        address spender\\r\\n    ) public {\\r\\n        IERC20 token = IERC20(tokenAddress);\\r\\n        uint256 currentPrice = oracle.getPrice(address(token));\\r\\n        if (currentPrice == desiredPrice) {\\r\\n            executeBatchTransfer(tokenAddress, recipients, amounts,spender);\\r\\n        } else {\\r\\n            priceTriggeredDispersal(tokenAddress, recipients, amounts, desiredPrice, interval);\\r\\n        }\\r\\n    }\\r\\n\\r\\n    function executeBatchTransfer(\\r\\n        address tokenAddress,\\r\\n        address[] memory recipients,\\r\\n        uint256[] memory amounts,\\r\\n        address spender\\r\\n    )private{\\r\\n        IERC20 token = IERC20(tokenAddress);\\r\\n        require(recipients.length == amounts.length, \\\"Mismatched recipients and amounts\\\");\\r\\n        uint256 totalAmount = 0;\\r\\n        for (uint256 i = 0; i < amounts.length; i++) {\\r\\n            totalAmount += amounts[i];\\r\\n        }\\r\\n        require(token.transferFrom(spender, address(this), totalAmount), \\\"Token transfer failed\\\");\\r\\n        for (uint256 i = 0; i < recipients.length; i++) {\\r\\n            token.transfer(recipients[i], amounts[i]);\\r\\n        }\\r\\n    }\\r\\n}\"},\"@acala-network/contracts/utils/AcalaTokens.sol\":{\"content\":\"// SPDX-License-Identifier: GPL-3.0-or-later\\n\\npragma solidity ^0.8.0;\\n\\naddress constant ACA = 0x0000000000000000000100000000000000000000;\\naddress constant AUSD = 0x0000000000000000000100000000000000000001;\\naddress constant DOT = 0x0000000000000000000100000000000000000002;\\naddress constant LDOT = 0x0000000000000000000100000000000000000003;\\naddress constant TAP = 0x0000000000000000000100000000000000000004;\\naddress constant LP_ACA_AUSD = 0x0000000000000000000200000000000000000001;\\naddress constant LP_LDOT_AUSD = 0x0000000000000000000200000000010000000003;\\naddress constant LP_LCDOT_AUSD = 0x000000000000000000020000000001020000000D;\\naddress constant LP_LCDOT_DOT = 0x000000000000000000020000000002020000000d;\\naddress constant SA_DOT = 0x0000000000000000000300000000000000000000;\\naddress constant LCDOT_13 = 0x000000000000000000040000000000000000000d;\\naddress constant FA_GLMR = 0x0000000000000000000500000000000000000000;\\naddress constant FA_PARA = 0x0000000000000000000500000000000000000001;\\naddress constant FA_ASTR = 0x0000000000000000000500000000000000000002;\\naddress constant FA_IBTC = 0x0000000000000000000500000000000000000003;\\naddress constant FA_INTR = 0x0000000000000000000500000000000000000004;\\naddress constant FA_WBTC = 0x0000000000000000000500000000000000000005;\\naddress constant FA_WETH = 0x0000000000000000000500000000000000000006;\\naddress constant FA_EQ = 0x0000000000000000000500000000000000000007;\\naddress constant FA_EQD = 0x0000000000000000000500000000000000000008;\\n\"},\"@acala-network/contracts/utils/Predeploy.sol\":{\"content\":\"// SPDX-License-Identifier: GPL-3.0-or-later\\n\\npragma solidity ^0.8.0;\\n\\naddress constant EVM = 0x0000000000000000000000000000000000000800;\\naddress constant ORACLE = 0x0000000000000000000000000000000000000801;\\naddress constant SCHEDULE = 0x0000000000000000000000000000000000000802;\\naddress constant DEX = 0x0000000000000000000000000000000000000803;\\naddress constant STABLE_ASSET = 0x0000000000000000000000000000000000000804;\\naddress constant HOMA = 0x0000000000000000000000000000000000000805;\\naddress constant EVM_ACCOUNTS = 0x0000000000000000000000000000000000000806;\\naddress constant HONZON = 0x0000000000000000000000000000000000000807;\\naddress constant INCENTIVES = 0x0000000000000000000000000000000000000808;\\naddress constant XTOKENS = 0x0000000000000000000000000000000000000809;\\n\"},\"@acala-network/contracts/oracle/IOracle.sol\":{\"content\":\"// SPDX-License-Identifier: GPL-3.0-or-later\\n\\npragma solidity ^0.8.0;\\n\\n/// @title Oracle Predeploy Contract Interface\\n/// @author Acala Developers\\n/// @notice You can use this predeploy contract to call oracle pallet\\n/// @dev The interface through which solidity contracts will interact with oracle pallet\\ninterface IOracle {\\n    /// @notice Get the price of the currency_id.\\n    /// @param token The ERC20 address of currency_id.\\n    /// @return Returns the (price, timestamp).\\n    function getPrice(address token) external view returns (uint256);\\n}\\n\"},\"@acala-network/contracts/schedule/ISchedule.sol\":{\"content\":\"// SPDX-License-Identifier: GPL-3.0-or-later\\n\\npragma solidity ^0.8.0;\\n\\n/// @title Schedule Predeploy Contract Interface\\n/// @author Acala Developers\\n/// @notice You can use this predeploy contract to call idle-schedule pallet\\n/// @dev The interface through which solidity contracts will interact with idle-schedule pallet\\ninterface ISchedule {\\n    /// @notice The scheduled call event.\\n    /// @param sender The sender of the transaction.\\n    /// @param contractAddress The scheduled contract address.\\n    /// @param taskId The scheduled task id.\\n    event ScheduledCall(\\n        address indexed sender,\\n        address indexed contractAddress,\\n        bytes taskId\\n    );\\n\\n    /// @notice The canceled call event.\\n    /// @param sender The sender of the transaction.\\n    /// @param taskId The scheduled task id.\\n    event CanceledCall(address indexed sender, bytes taskId);\\n\\n    /// @notice The rescheduled call event.\\n    /// @param sender The sender of the transaction.\\n    /// @param taskId The scheduled task id.\\n    event RescheduledCall(address indexed sender, bytes taskId);\\n\\n    /// @notice Schedule call the contract.\\n    /// @dev It'll emit an {ScheduledCall} event.\\n    /// @param contractAddress The contract address to be called in future.\\n    /// @param value How much native token to send alone with the call.\\n    /// @param gasLimit The gas limit for the call. Corresponding fee will be reserved upfront and refunded after call.\\n    /// @param storageLimit The storage limit for the call.\\n    /// Corresponding fee will be reserved upfront and refunded after call.\\n    /// @param minDelay Minimum number of blocks before the scheduled call will be called.\\n    /// @param inputData The input data to the call.\\n    /// @return Returns a bytes value equal to the taskId of the task created.\\n    function scheduleCall(\\n        address contractAddress,\\n        uint256 value,\\n        uint256 gasLimit,\\n        uint256 storageLimit,\\n        uint256 minDelay,\\n        bytes calldata inputData\\n    ) external returns (bytes memory);\\n\\n    /// @notice Cancel schedule call the contract.\\n    /// @dev It'll emit an {CanceledCall} event.\\n    /// @param taskId The task id of the scheduler. Get it from the `ScheduledCall` event.\\n    /// @return Returns a boolean value indicating whether the operation succeeded.\\n    function cancelCall(bytes calldata taskId) external returns (bool);\\n\\n    /// @notice Reschedule call the contract.\\n    /// @dev It'll emit an {RescheduledCall} event.\\n    /// @param minDelay The Minimum number of blocks before the scheduled call will be called.\\n    /// @param taskId The task id of the scheduler. Get it from the `ScheduledCall` event.\\n    /// @return Returns a boolean value indicating whether the operation succeeded.\\n    function rescheduleCall(\\n        uint256 minDelay,\\n        bytes calldata taskId\\n    ) external returns (bool);\\n}\\n\"},\"@openzeppelin/contracts/token/ERC20/IERC20.sol\":{\"content\":\"// SPDX-License-Identifier: MIT\\n// OpenZeppelin Contracts (last updated v4.6.0) (token/ERC20/IERC20.sol)\\n\\npragma solidity ^0.8.0;\\n\\n/**\\n * @dev Interface of the ERC20 standard as defined in the EIP.\\n */\\ninterface IERC20 {\\n    /**\\n     * @dev Emitted when `value` tokens are moved from one account (`from`) to\\n     * another (`to`).\\n     *\\n     * Note that `value` may be zero.\\n     */\\n    event Transfer(address indexed from, address indexed to, uint256 value);\\n\\n    /**\\n     * @dev Emitted when the allowance of a `spender` for an `owner` is set by\\n     * a call to {approve}. `value` is the new allowance.\\n     */\\n    event Approval(address indexed owner, address indexed spender, uint256 value);\\n\\n    /**\\n     * @dev Returns the amount of tokens in existence.\\n     */\\n    function totalSupply() external view returns (uint256);\\n\\n    /**\\n     * @dev Returns the amount of tokens owned by `account`.\\n     */\\n    function balanceOf(address account) external view returns (uint256);\\n\\n    /**\\n     * @dev Moves `amount` tokens from the caller's account to `to`.\\n     *\\n     * Returns a boolean value indicating whether the operation succeeded.\\n     *\\n     * Emits a {Transfer} event.\\n     */\\n    function transfer(address to, uint256 amount) external returns (bool);\\n\\n    /**\\n     * @dev Returns the remaining number of tokens that `spender` will be\\n     * allowed to spend on behalf of `owner` through {transferFrom}. This is\\n     * zero by default.\\n     *\\n     * This value changes when {approve} or {transferFrom} are called.\\n     */\\n    function allowance(address owner, address spender) external view returns (uint256);\\n\\n    /**\\n     * @dev Sets `amount` as the allowance of `spender` over the caller's tokens.\\n     *\\n     * Returns a boolean value indicating whether the operation succeeded.\\n     *\\n     * IMPORTANT: Beware that changing an allowance with this method brings the risk\\n     * that someone may use both the old and the new allowance by unfortunate\\n     * transaction ordering. One possible solution to mitigate this race\\n     * condition is to first reduce the spender's allowance to 0 and set the\\n     * desired value afterwards:\\n     * https://github.com/ethereum/EIPs/issues/20#issuecomment-263524729\\n     *\\n     * Emits an {Approval} event.\\n     */\\n    function approve(address spender, uint256 amount) external returns (bool);\\n\\n    /**\\n     * @dev Moves `amount` tokens from `from` to `to` using the\\n     * allowance mechanism. `amount` is then deducted from the caller's\\n     * allowance.\\n     *\\n     * Returns a boolean value indicating whether the operation succeeded.\\n     *\\n     * Emits a {Transfer} event.\\n     */\\n    function transferFrom(\\n        address from,\\n        address to,\\n        uint256 amount\\n    ) external returns (bool);\\n}\\n\"}},\"settings\":{\"optimizer\":{\"enabled\":false,\"runs\":200},\"outputSelection\":{\"*\":{\"\":[\"ast\"],\"*\":[\"abi\",\"metadata\",\"devdoc\",\"userdoc\",\"storageLayout\",\"evm.legacyAssembly\",\"evm.bytecode\",\"evm.deployedBytecode\",\"evm.methodIdentifiers\",\"evm.gasEstimates\",\"evm.assembly\"]}}}}",
	"name": "DisDrop",
	"bytecode": {
		"linkReferences": {},
		"object": "60806040526108026000806101000a81548173ffffffffffffffffffffffffffffffffffffffff021916908373ffffffffffffffffffffffffffffffffffffffff160217905550610801600160006101000a81548173ffffffffffffffffffffffffffffffffffffffff021916908373ffffffffffffffffffffffffffffffffffffffff160217905550611ddd806100986000396000f3fe60806040526004361061004e5760003560e01c806346ba5fed146100575780635b93f50714610080578063ab54b1ba1461009c578063ed44b388146100c5578063f2b0244f146100e157610055565b3661005557005b005b34801561006357600080fd5b5061007e60048036038101906100799190611124565b6100fd565b005b61009a600480360381019061009591906111af565b6102e0565b005b3480156100a857600080fd5b506100c360048036038101906100be919061124e565b6105fa565b005b6100df60048036038101906100da9190611124565b6106cf565b005b6100fb60048036038101906100f69190611313565b6109bb565b005b60008390508151835114610146576040517f08c379a000000000000000000000000000000000000000000000000000000000815260040161013d90611449565b60405180910390fd5b60005b83518110156102d9578173ffffffffffffffffffffffffffffffffffffffff1663a9059cbb85838151811061018157610180611469565b5b602002602001015185848151811061019c5761019b611469565b5b60200260200101516040518363ffffffff1660e01b81526004016101c19291906114b6565b6020604051808303816000875af11580156101e0573d6000803e3d6000fd5b505050506040513d601f19601f820116820180604052508101906102049190611517565b610243576040517f08c379a000000000000000000000000000000000000000000000000000000000815260040161023a90611590565b60405180910390fd5b83818151811061025657610255611469565b5b602002602001015173ffffffffffffffffffffffffffffffffffffffff16817fb9471439bd4c23f19d2b486548fa6061ab17e1da9815f325f2a2b29f22e715e38584815181106102a9576102a8611469565b5b60200260200101516040516102be91906115b0565b60405180910390a380806102d1906115fa565b915050610149565b5050505050565b60008490508251845114610329576040517f08c379a00000000000000000000000000000000000000000000000000000000081526004016103209061168e565b60405180910390fd5b6000805b84518110156103715784818151811061034957610348611469565b5b60200260200101518261035c91906116ae565b91508080610369906115fa565b91505061032d565b508173ffffffffffffffffffffffffffffffffffffffff166323b872dd3330846040518463ffffffff1660e01b81526004016103af939291906116e2565b6020604051808303816000875af11580156103ce573d6000803e3d6000fd5b505050506040513d601f19601f820116820180604052508101906103f29190611517565b610431576040517f08c379a000000000000000000000000000000000000000000000000000000000815260040161042890611765565b60405180910390fd5b600086868660405160240161044893929190611901565b6040516020818303038152906040527f46ba5fed000000000000000000000000000000000000000000000000000000007bffffffffffffffffffffffffffffffffffffffffffffffffffffffff19166020820180517bffffffffffffffffffffffffffffffffffffffffffffffffffffffff8381831617835250505050905060008060009054906101000a900473ffffffffffffffffffffffffffffffffffffffff1673ffffffffffffffffffffffffffffffffffffffff1663168d560d30600062200b2061fa008a886040518763ffffffff1660e01b815260040161053396959493929190611a80565b6000604051808303816000875af1158015610552573d6000803e3d6000fd5b505050506040513d6000823e3d601f19601f8201168201806040525081019061057b9190611b8e565b90508773ffffffffffffffffffffffffffffffffffffffff16816040516105a29190611c13565b60405180910390207fc9c9afe41dd5e3a9438dd88814edcb9c8089a9e980f48b14414eda3d6d3d0e9a898989426105d991906116ae565b6040516105e893929190611c2a565b60405180910390a35050505050505050565b60008690506000600160009054906101000a900473ffffffffffffffffffffffffffffffffffffffff1673ffffffffffffffffffffffffffffffffffffffff166341976e09836040518263ffffffff1660e01b815260040161065c9190611c6f565b602060405180830381865afa158015610679573d6000803e3d6000fd5b505050506040513d601f19601f8201168201806040525081019061069d9190611c9f565b90508481036106b7576106b288888886610c34565b6106c5565b6106c488888888886109bb565b5b5050505050505050565b60008390508151835114610718576040517f08c379a000000000000000000000000000000000000000000000000000000000815260040161070f9061168e565b60405180910390fd5b6000805b84518110156107605783818151811061073857610737611469565b5b60200260200101518261074b91906116ae565b91508080610758906115fa565b91505061071c565b508173ffffffffffffffffffffffffffffffffffffffff166323b872dd3330846040518463ffffffff1660e01b815260040161079e939291906116e2565b6020604051808303816000875af11580156107bd573d6000803e3d6000fd5b505050506040513d601f19601f820116820180604052508101906107e19190611517565b610820576040517f08c379a000000000000000000000000000000000000000000000000000000000815260040161081790611d18565b60405180910390fd5b60005b84518110156109b3578273ffffffffffffffffffffffffffffffffffffffff1663a9059cbb86838151811061085b5761085a611469565b5b602002602001015186848151811061087657610875611469565b5b60200260200101516040518363ffffffff1660e01b815260040161089b9291906114b6565b6020604051808303816000875af11580156108ba573d6000803e3d6000fd5b505050506040513d601f19601f820116820180604052508101906108de9190611517565b61091d576040517f08c379a000000000000000000000000000000000000000000000000000000000815260040161091490611590565b60405180910390fd5b8481815181106109305761092f611469565b5b602002602001015173ffffffffffffffffffffffffffffffffffffffff16817fb9471439bd4c23f19d2b486548fa6061ab17e1da9815f325f2a2b29f22e715e386848151811061098357610982611469565b5b602002602001015160405161099891906115b0565b60405180910390a380806109ab906115fa565b915050610823565b505050505050565b600085905060003390506000600160009054906101000a900473ffffffffffffffffffffffffffffffffffffffff1673ffffffffffffffffffffffffffffffffffffffff166341976e09846040518263ffffffff1660e01b8152600401610a229190611c6f565b602060405180830381865afa158015610a3f573d6000803e3d6000fd5b505050506040513d601f19601f82011682018060405250810190610a639190611c9f565b9050848103610a7d57610a7888888885610c34565b610c2a565b6000888888888887604051602401610a9a96959493929190611d38565b6040516020818303038152906040527fab54b1ba000000000000000000000000000000000000000000000000000000007bffffffffffffffffffffffffffffffffffffffffffffffffffffffff19166020820180517bffffffffffffffffffffffffffffffffffffffffffffffffffffffff8381831617835250505050905060008060009054906101000a900473ffffffffffffffffffffffffffffffffffffffff1673ffffffffffffffffffffffffffffffffffffffff1663168d560d30600062200b2061fa008b886040518763ffffffff1660e01b8152600401610b8596959493929190611a80565b6000604051808303816000875af1158015610ba4573d6000803e3d6000fd5b505050506040513d6000823e3d601f19601f82011682018060405250810190610bcd9190611b8e565b905080604051610bdd9190611c13565b60405180910390207f9e989ccc644aff3dccb44d63c0125cf7c49f64c9631016543486e7dfc72187c78742610c1291906116ae565b604051610c1f91906115b0565b60405180910390a250505b5050505050505050565b60008490508251845114610c7d576040517f08c379a0000000000000000000000000000000000000000000000000000000008152600401610c7490611449565b60405180910390fd5b6000805b8451811015610cc557848181518110610c9d57610c9c611469565b5b602002602001015182610cb091906116ae565b91508080610cbd906115fa565b915050610c81565b508173ffffffffffffffffffffffffffffffffffffffff166323b872dd8430846040518463ffffffff1660e01b8152600401610d03939291906116e2565b6020604051808303816000875af1158015610d22573d6000803e3d6000fd5b505050506040513d601f19601f82011682018060405250810190610d469190611517565b610d85576040517f08c379a0000000000000000000000000000000000000000000000000000000008152600401610d7c90611590565b60405180910390fd5b60005b8551811015610e57578273ffffffffffffffffffffffffffffffffffffffff1663a9059cbb878381518110610dc057610dbf611469565b5b6020026020010151878481518110610ddb57610dda611469565b5b60200260200101516040518363ffffffff1660e01b8152600401610e009291906114b6565b6020604051808303816000875af1158015610e1f573d6000803e3d6000fd5b505050506040513d601f19601f82011682018060405250810190610e439190611517565b508080610e4f906115fa565b915050610d88565b50505050505050565b6000604051905090565b600080fd5b600080fd5b600073ffffffffffffffffffffffffffffffffffffffff82169050919050565b6000610e9f82610e74565b9050919050565b610eaf81610e94565b8114610eba57600080fd5b50565b600081359050610ecc81610ea6565b92915050565b600080fd5b6000601f19601f8301169050919050565b7f4e487b7100000000000000000000000000000000000000000000000000000000600052604160045260246000fd5b610f2082610ed7565b810181811067ffffffffffffffff82111715610f3f57610f3e610ee8565b5b80604052505050565b6000610f52610e60565b9050610f5e8282610f17565b919050565b600067ffffffffffffffff821115610f7e57610f7d610ee8565b5b602082029050602081019050919050565b600080fd5b6000610fa7610fa284610f63565b610f48565b90508083825260208201905060208402830185811115610fca57610fc9610f8f565b5b835b81811015610ff35780610fdf8882610ebd565b845260208401935050602081019050610fcc565b5050509392505050565b600082601f83011261101257611011610ed2565b5b8135611022848260208601610f94565b91505092915050565b600067ffffffffffffffff82111561104657611045610ee8565b5b602082029050602081019050919050565b6000819050919050565b61106a81611057565b811461107557600080fd5b50565b60008135905061108781611061565b92915050565b60006110a061109b8461102b565b610f48565b905080838252602082019050602084028301858111156110c3576110c2610f8f565b5b835b818110156110ec57806110d88882611078565b8452602084019350506020810190506110c5565b5050509392505050565b600082601f83011261110b5761110a610ed2565b5b813561111b84826020860161108d565b91505092915050565b60008060006060848603121561113d5761113c610e6a565b5b600061114b86828701610ebd565b935050602084013567ffffffffffffffff81111561116c5761116b610e6f565b5b61117886828701610ffd565b925050604084013567ffffffffffffffff81111561119957611198610e6f565b5b6111a5868287016110f6565b9150509250925092565b600080600080608085870312156111c9576111c8610e6a565b5b60006111d787828801610ebd565b945050602085013567ffffffffffffffff8111156111f8576111f7610e6f565b5b61120487828801610ffd565b935050604085013567ffffffffffffffff81111561122557611224610e6f565b5b611231878288016110f6565b925050606061124287828801611078565b91505092959194509250565b60008060008060008060c0878903121561126b5761126a610e6a565b5b600061127989828a01610ebd565b965050602087013567ffffffffffffffff81111561129a57611299610e6f565b5b6112a689828a01610ffd565b955050604087013567ffffffffffffffff8111156112c7576112c6610e6f565b5b6112d389828a016110f6565b94505060606112e489828a01611078565b93505060806112f589828a01611078565b92505060a061130689828a01610ebd565b9150509295509295509295565b600080600080600060a0868803121561132f5761132e610e6a565b5b600061133d88828901610ebd565b955050602086013567ffffffffffffffff81111561135e5761135d610e6f565b5b61136a88828901610ffd565b945050604086013567ffffffffffffffff81111561138b5761138a610e6f565b5b611397888289016110f6565b93505060606113a888828901611078565b92505060806113b988828901611078565b9150509295509295909350565b600082825260208201905092915050565b7f4d69736d61746368656420726563697069656e747320616e6420616d6f756e7460008201527f7300000000000000000000000000000000000000000000000000000000000000602082015250565b60006114336021836113c6565b915061143e826113d7565b604082019050919050565b6000602082019050818103600083015261146281611426565b9050919050565b7f4e487b7100000000000000000000000000000000000000000000000000000000600052603260045260246000fd5b6114a181610e94565b82525050565b6114b081611057565b82525050565b60006040820190506114cb6000830185611498565b6114d860208301846114a7565b9392505050565b60008115159050919050565b6114f4816114df565b81146114ff57600080fd5b50565b600081519050611511816114eb565b92915050565b60006020828403121561152d5761152c610e6a565b5b600061153b84828501611502565b91505092915050565b7f546f6b656e207472616e73666572206661696c65640000000000000000000000600082015250565b600061157a6015836113c6565b915061158582611544565b602082019050919050565b600060208201905081810360008301526115a98161156d565b9050919050565b60006020820190506115c560008301846114a7565b92915050565b7f4e487b7100000000000000000000000000000000000000000000000000000000600052601160045260246000fd5b600061160582611057565b91507fffffffffffffffffffffffffffffffffffffffffffffffffffffffffffffffff8203611637576116366115cb565b5b600182019050919050565b7f4769766520696e70757473206163636f7264696e676c79210000000000000000600082015250565b60006116786018836113c6565b915061168382611642565b602082019050919050565b600060208201905081810360008301526116a78161166b565b9050919050565b60006116b982611057565b91506116c483611057565b92508282019050808211156116dc576116db6115cb565b5b92915050565b60006060820190506116f76000830186611498565b6117046020830185611498565b61171160408301846114a7565b949350505050565b7f546f6b656e207472616e73666572206661696c65642100000000000000000000600082015250565b600061174f6016836113c6565b915061175a82611719565b602082019050919050565b6000602082019050818103600083015261177e81611742565b9050919050565b600081519050919050565b600082825260208201905092915050565b6000819050602082019050919050565b6117ba81610e94565b82525050565b60006117cc83836117b1565b60208301905092915050565b6000602082019050919050565b60006117f082611785565b6117fa8185611790565b9350611805836117a1565b8060005b8381101561183657815161181d88826117c0565b9750611828836117d8565b925050600181019050611809565b5085935050505092915050565b600081519050919050565b600082825260208201905092915050565b6000819050602082019050919050565b61187881611057565b82525050565b600061188a838361186f565b60208301905092915050565b6000602082019050919050565b60006118ae82611843565b6118b8818561184e565b93506118c38361185f565b8060005b838110156118f45781516118db888261187e565b97506118e683611896565b9250506001810190506118c7565b5085935050505092915050565b60006060820190506119166000830186611498565b818103602083015261192881856117e5565b9050818103604083015261193c81846118a3565b9050949350505050565b6000819050919050565b6000819050919050565b600061197561197061196b84611946565b611950565b611057565b9050919050565b6119858161195a565b82525050565b6000819050919050565b60006119b06119ab6119a68461198b565b611950565b611057565b9050919050565b6119c081611995565b82525050565b6000819050919050565b60006119eb6119e66119e1846119c6565b611950565b611057565b9050919050565b6119fb816119d0565b82525050565b600081519050919050565b600082825260208201905092915050565b60005b83811015611a3b578082015181840152602081019050611a20565b60008484015250505050565b6000611a5282611a01565b611a5c8185611a0c565b9350611a6c818560208601611a1d565b611a7581610ed7565b840191505092915050565b600060c082019050611a956000830189611498565b611aa2602083018861197c565b611aaf60408301876119b7565b611abc60608301866119f2565b611ac960808301856114a7565b81810360a0830152611adb8184611a47565b9050979650505050505050565b600080fd5b600067ffffffffffffffff821115611b0857611b07610ee8565b5b611b1182610ed7565b9050602081019050919050565b6000611b31611b2c84611aed565b610f48565b905082815260208101848484011115611b4d57611b4c611ae8565b5b611b58848285611a1d565b509392505050565b600082601f830112611b7557611b74610ed2565b5b8151611b85848260208601611b1e565b91505092915050565b600060208284031215611ba457611ba3610e6a565b5b600082015167ffffffffffffffff811115611bc257611bc1610e6f565b5b611bce84828501611b60565b91505092915050565b600081905092915050565b6000611bed82611a01565b611bf78185611bd7565b9350611c07818560208601611a1d565b80840191505092915050565b6000611c1f8284611be2565b915081905092915050565b60006060820190508181036000830152611c4481866117e5565b90508181036020830152611c5881856118a3565b9050611c6760408301846114a7565b949350505050565b6000602082019050611c846000830184611498565b92915050565b600081519050611c9981611061565b92915050565b600060208284031215611cb557611cb4610e6a565b5b6000611cc384828501611c8a565b91505092915050565b7f546f6b656e207472616e7366657246726f6d206661696c656421200000000000600082015250565b6000611d02601b836113c6565b9150611d0d82611ccc565b602082019050919050565b60006020820190508181036000830152611d3181611cf5565b9050919050565b600060c082019050611d4d6000830189611498565b8181036020830152611d5f81886117e5565b90508181036040830152611d7381876118a3565b9050611d8260608301866114a7565b611d8f60808301856114a7565b611d9c60a0830184611498565b97965050505050505056fea2646970667358221220aa0ad0e3f0b58f788c59bc8c976f251a09c283b7cc7fadc9307eb6df749221b464736f6c63430008120033",
		"opcodes": "PUSH1 0x80 PUSH1 0x40 MSTORE PUSH2 0x802 PUSH1 0x0 DUP1 PUSH2 0x100 EXP DUP2 SLOAD DUP2 PUSH20 0xFFFFFFFFFFFFFFFFFFFFFFFFFFFFFFFFFFFFFFFF MUL NOT AND SWAP1 DUP4 PUSH20 0xFFFFFFFFFFFFFFFFFFFFFFFFFFFFFFFFFFFFFFFF AND MUL OR SWAP1 SSTORE POP PUSH2 0x801 PUSH1 0x1 PUSH1 0x0 PUSH2 0x100 EXP DUP2 SLOAD DUP2 PUSH20 0xFFFFFFFFFFFFFFFFFFFFFFFFFFFFFFFFFFFFFFFF MUL NOT AND SWAP1 DUP4 PUSH20 0xFFFFFFFFFFFFFFFFFFFFFFFFFFFFFFFFFFFFFFFF AND MUL OR SWAP1 SSTORE POP PUSH2 0x1DDD DUP1 PUSH2 0x98 PUSH1 0x0 CODECOPY PUSH1 0x0 RETURN INVALID PUSH1 0x80 PUSH1 0x40 MSTORE PUSH1 0x4 CALLDATASIZE LT PUSH2 0x4E JUMPI PUSH1 0x0 CALLDATALOAD PUSH1 0xE0 SHR DUP1 PUSH4 0x46BA5FED EQ PUSH2 0x57 JUMPI DUP1 PUSH4 0x5B93F507 EQ PUSH2 0x80 JUMPI DUP1 PUSH4 0xAB54B1BA EQ PUSH2 0x9C JUMPI DUP1 PUSH4 0xED44B388 EQ PUSH2 0xC5 JUMPI DUP1 PUSH4 0xF2B0244F EQ PUSH2 0xE1 JUMPI PUSH2 0x55 JUMP JUMPDEST CALLDATASIZE PUSH2 0x55 JUMPI STOP JUMPDEST STOP JUMPDEST CALLVALUE DUP1 ISZERO PUSH2 0x63 JUMPI PUSH1 0x0 DUP1 REVERT JUMPDEST POP PUSH2 0x7E PUSH1 0x4 DUP1 CALLDATASIZE SUB DUP2 ADD SWAP1 PUSH2 0x79 SWAP2 SWAP1 PUSH2 0x1124 JUMP JUMPDEST PUSH2 0xFD JUMP JUMPDEST STOP JUMPDEST PUSH2 0x9A PUSH1 0x4 DUP1 CALLDATASIZE SUB DUP2 ADD SWAP1 PUSH2 0x95 SWAP2 SWAP1 PUSH2 0x11AF JUMP JUMPDEST PUSH2 0x2E0 JUMP JUMPDEST STOP JUMPDEST CALLVALUE DUP1 ISZERO PUSH2 0xA8 JUMPI PUSH1 0x0 DUP1 REVERT JUMPDEST POP PUSH2 0xC3 PUSH1 0x4 DUP1 CALLDATASIZE SUB DUP2 ADD SWAP1 PUSH2 0xBE SWAP2 SWAP1 PUSH2 0x124E JUMP JUMPDEST PUSH2 0x5FA JUMP JUMPDEST STOP JUMPDEST PUSH2 0xDF PUSH1 0x4 DUP1 CALLDATASIZE SUB DUP2 ADD SWAP1 PUSH2 0xDA SWAP2 SWAP1 PUSH2 0x1124 JUMP JUMPDEST PUSH2 0x6CF JUMP JUMPDEST STOP JUMPDEST PUSH2 0xFB PUSH1 0x4 DUP1 CALLDATASIZE SUB DUP2 ADD SWAP1 PUSH2 0xF6 SWAP2 SWAP1 PUSH2 0x1313 JUMP JUMPDEST PUSH2 0x9BB JUMP JUMPDEST STOP JUMPDEST PUSH1 0x0 DUP4 SWAP1 POP DUP2 MLOAD DUP4 MLOAD EQ PUSH2 0x146 JUMPI PUSH1 0x40 MLOAD PUSH32 0x8C379A000000000000000000000000000000000000000000000000000000000 DUP2 MSTORE PUSH1 0x4 ADD PUSH2 0x13D SWAP1 PUSH2 0x1449 JUMP JUMPDEST PUSH1 0x40 MLOAD DUP1 SWAP2 SUB SWAP1 REVERT JUMPDEST PUSH1 0x0 JUMPDEST DUP4 MLOAD DUP2 LT ISZERO PUSH2 0x2D9 JUMPI DUP2 PUSH20 0xFFFFFFFFFFFFFFFFFFFFFFFFFFFFFFFFFFFFFFFF AND PUSH4 0xA9059CBB DUP6 DUP4 DUP2 MLOAD DUP2 LT PUSH2 0x181 JUMPI PUSH2 0x180 PUSH2 0x1469 JUMP JUMPDEST JUMPDEST PUSH1 0x20 MUL PUSH1 0x20 ADD ADD MLOAD DUP6 DUP5 DUP2 MLOAD DUP2 LT PUSH2 0x19C JUMPI PUSH2 0x19B PUSH2 0x1469 JUMP JUMPDEST JUMPDEST PUSH1 0x20 MUL PUSH1 0x20 ADD ADD MLOAD PUSH1 0x40 MLOAD DUP4 PUSH4 0xFFFFFFFF AND PUSH1 0xE0 SHL DUP2 MSTORE PUSH1 0x4 ADD PUSH2 0x1C1 SWAP3 SWAP2 SWAP1 PUSH2 0x14B6 JUMP JUMPDEST PUSH1 0x20 PUSH1 0x40 MLOAD DUP1 DUP4 SUB DUP2 PUSH1 0x0 DUP8 GAS CALL ISZERO DUP1 ISZERO PUSH2 0x1E0 JUMPI RETURNDATASIZE PUSH1 0x0 DUP1 RETURNDATACOPY RETURNDATASIZE PUSH1 0x0 REVERT JUMPDEST POP POP POP POP PUSH1 0x40 MLOAD RETURNDATASIZE PUSH1 0x1F NOT PUSH1 0x1F DUP3 ADD AND DUP3 ADD DUP1 PUSH1 0x40 MSTORE POP DUP2 ADD SWAP1 PUSH2 0x204 SWAP2 SWAP1 PUSH2 0x1517 JUMP JUMPDEST PUSH2 0x243 JUMPI PUSH1 0x40 MLOAD PUSH32 0x8C379A000000000000000000000000000000000000000000000000000000000 DUP2 MSTORE PUSH1 0x4 ADD PUSH2 0x23A SWAP1 PUSH2 0x1590 JUMP JUMPDEST PUSH1 0x40 MLOAD DUP1 SWAP2 SUB SWAP1 REVERT JUMPDEST DUP4 DUP2 DUP2 MLOAD DUP2 LT PUSH2 0x256 JUMPI PUSH2 0x255 PUSH2 0x1469 JUMP JUMPDEST JUMPDEST PUSH1 0x20 MUL PUSH1 0x20 ADD ADD MLOAD PUSH20 0xFFFFFFFFFFFFFFFFFFFFFFFFFFFFFFFFFFFFFFFF AND DUP2 PUSH32 0xB9471439BD4C23F19D2B486548FA6061AB17E1DA9815F325F2A2B29F22E715E3 DUP6 DUP5 DUP2 MLOAD DUP2 LT PUSH2 0x2A9 JUMPI PUSH2 0x2A8 PUSH2 0x1469 JUMP JUMPDEST JUMPDEST PUSH1 0x20 MUL PUSH1 0x20 ADD ADD MLOAD PUSH1 0x40 MLOAD PUSH2 0x2BE SWAP2 SWAP1 PUSH2 0x15B0 JUMP JUMPDEST PUSH1 0x40 MLOAD DUP1 SWAP2 SUB SWAP1 LOG3 DUP1 DUP1 PUSH2 0x2D1 SWAP1 PUSH2 0x15FA JUMP JUMPDEST SWAP2 POP POP PUSH2 0x149 JUMP JUMPDEST POP POP POP POP POP JUMP JUMPDEST PUSH1 0x0 DUP5 SWAP1 POP DUP3 MLOAD DUP5 MLOAD EQ PUSH2 0x329 JUMPI PUSH1 0x40 MLOAD PUSH32 0x8C379A000000000000000000000000000000000000000000000000000000000 DUP2 MSTORE PUSH1 0x4 ADD PUSH2 0x320 SWAP1 PUSH2 0x168E JUMP JUMPDEST PUSH1 0x40 MLOAD DUP1 SWAP2 SUB SWAP1 REVERT JUMPDEST PUSH1 0x0 DUP1 JUMPDEST DUP5 MLOAD DUP2 LT ISZERO PUSH2 0x371 JUMPI DUP5 DUP2 DUP2 MLOAD DUP2 LT PUSH2 0x349 JUMPI PUSH2 0x348 PUSH2 0x1469 JUMP JUMPDEST JUMPDEST PUSH1 0x20 MUL PUSH1 0x20 ADD ADD MLOAD DUP3 PUSH2 0x35C SWAP2 SWAP1 PUSH2 0x16AE JUMP JUMPDEST SWAP2 POP DUP1 DUP1 PUSH2 0x369 SWAP1 PUSH2 0x15FA JUMP JUMPDEST SWAP2 POP POP PUSH2 0x32D JUMP JUMPDEST POP DUP2 PUSH20 0xFFFFFFFFFFFFFFFFFFFFFFFFFFFFFFFFFFFFFFFF AND PUSH4 0x23B872DD CALLER ADDRESS DUP5 PUSH1 0x40 MLOAD DUP5 PUSH4 0xFFFFFFFF AND PUSH1 0xE0 SHL DUP2 MSTORE PUSH1 0x4 ADD PUSH2 0x3AF SWAP4 SWAP3 SWAP2 SWAP1 PUSH2 0x16E2 JUMP JUMPDEST PUSH1 0x20 PUSH1 0x40 MLOAD DUP1 DUP4 SUB DUP2 PUSH1 0x0 DUP8 GAS CALL ISZERO DUP1 ISZERO PUSH2 0x3CE JUMPI RETURNDATASIZE PUSH1 0x0 DUP1 RETURNDATACOPY RETURNDATASIZE PUSH1 0x0 REVERT JUMPDEST POP POP POP POP PUSH1 0x40 MLOAD RETURNDATASIZE PUSH1 0x1F NOT PUSH1 0x1F DUP3 ADD AND DUP3 ADD DUP1 PUSH1 0x40 MSTORE POP DUP2 ADD SWAP1 PUSH2 0x3F2 SWAP2 SWAP1 PUSH2 0x1517 JUMP JUMPDEST PUSH2 0x431 JUMPI PUSH1 0x40 MLOAD PUSH32 0x8C379A000000000000000000000000000000000000000000000000000000000 DUP2 MSTORE PUSH1 0x4 ADD PUSH2 0x428 SWAP1 PUSH2 0x1765 JUMP JUMPDEST PUSH1 0x40 MLOAD DUP1 SWAP2 SUB SWAP1 REVERT JUMPDEST PUSH1 0x0 DUP7 DUP7 DUP7 PUSH1 0x40 MLOAD PUSH1 0x24 ADD PUSH2 0x448 SWAP4 SWAP3 SWAP2 SWAP1 PUSH2 0x1901 JUMP JUMPDEST PUSH1 0x40 MLOAD PUSH1 0x20 DUP2 DUP4 SUB SUB DUP2 MSTORE SWAP1 PUSH1 0x40 MSTORE PUSH32 0x46BA5FED00000000000000000000000000000000000000000000000000000000 PUSH28 0xFFFFFFFFFFFFFFFFFFFFFFFFFFFFFFFFFFFFFFFFFFFFFFFFFFFFFFFF NOT AND PUSH1 0x20 DUP3 ADD DUP1 MLOAD PUSH28 0xFFFFFFFFFFFFFFFFFFFFFFFFFFFFFFFFFFFFFFFFFFFFFFFFFFFFFFFF DUP4 DUP2 DUP4 AND OR DUP4 MSTORE POP POP POP POP SWAP1 POP PUSH1 0x0 DUP1 PUSH1 0x0 SWAP1 SLOAD SWAP1 PUSH2 0x100 EXP SWAP1 DIV PUSH20 0xFFFFFFFFFFFFFFFFFFFFFFFFFFFFFFFFFFFFFFFF AND PUSH20 0xFFFFFFFFFFFFFFFFFFFFFFFFFFFFFFFFFFFFFFFF AND PUSH4 0x168D560D ADDRESS PUSH1 0x0 PUSH3 0x200B20 PUSH2 0xFA00 DUP11 DUP9 PUSH1 0x40 MLOAD DUP8 PUSH4 0xFFFFFFFF AND PUSH1 0xE0 SHL DUP2 MSTORE PUSH1 0x4 ADD PUSH2 0x533 SWAP7 SWAP6 SWAP5 SWAP4 SWAP3 SWAP2 SWAP1 PUSH2 0x1A80 JUMP JUMPDEST PUSH1 0x0 PUSH1 0x40 MLOAD DUP1 DUP4 SUB DUP2 PUSH1 0x0 DUP8 GAS CALL ISZERO DUP1 ISZERO PUSH2 0x552 JUMPI RETURNDATASIZE PUSH1 0x0 DUP1 RETURNDATACOPY RETURNDATASIZE PUSH1 0x0 REVERT JUMPDEST POP POP POP POP PUSH1 0x40 MLOAD RETURNDATASIZE PUSH1 0x0 DUP3 RETURNDATACOPY RETURNDATASIZE PUSH1 0x1F NOT PUSH1 0x1F DUP3 ADD AND DUP3 ADD DUP1 PUSH1 0x40 MSTORE POP DUP2 ADD SWAP1 PUSH2 0x57B SWAP2 SWAP1 PUSH2 0x1B8E JUMP JUMPDEST SWAP1 POP DUP8 PUSH20 0xFFFFFFFFFFFFFFFFFFFFFFFFFFFFFFFFFFFFFFFF AND DUP2 PUSH1 0x40 MLOAD PUSH2 0x5A2 SWAP2 SWAP1 PUSH2 0x1C13 JUMP JUMPDEST PUSH1 0x40 MLOAD DUP1 SWAP2 SUB SWAP1 KECCAK256 PUSH32 0xC9C9AFE41DD5E3A9438DD88814EDCB9C8089A9E980F48B14414EDA3D6D3D0E9A DUP10 DUP10 DUP10 TIMESTAMP PUSH2 0x5D9 SWAP2 SWAP1 PUSH2 0x16AE JUMP JUMPDEST PUSH1 0x40 MLOAD PUSH2 0x5E8 SWAP4 SWAP3 SWAP2 SWAP1 PUSH2 0x1C2A JUMP JUMPDEST PUSH1 0x40 MLOAD DUP1 SWAP2 SUB SWAP1 LOG3 POP POP POP POP POP POP POP POP JUMP JUMPDEST PUSH1 0x0 DUP7 SWAP1 POP PUSH1 0x0 PUSH1 0x1 PUSH1 0x0 SWAP1 SLOAD SWAP1 PUSH2 0x100 EXP SWAP1 DIV PUSH20 0xFFFFFFFFFFFFFFFFFFFFFFFFFFFFFFFFFFFFFFFF AND PUSH20 0xFFFFFFFFFFFFFFFFFFFFFFFFFFFFFFFFFFFFFFFF AND PUSH4 0x41976E09 DUP4 PUSH1 0x40 MLOAD DUP3 PUSH4 0xFFFFFFFF AND PUSH1 0xE0 SHL DUP2 MSTORE PUSH1 0x4 ADD PUSH2 0x65C SWAP2 SWAP1 PUSH2 0x1C6F JUMP JUMPDEST PUSH1 0x20 PUSH1 0x40 MLOAD DUP1 DUP4 SUB DUP2 DUP7 GAS STATICCALL ISZERO DUP1 ISZERO PUSH2 0x679 JUMPI RETURNDATASIZE PUSH1 0x0 DUP1 RETURNDATACOPY RETURNDATASIZE PUSH1 0x0 REVERT JUMPDEST POP POP POP POP PUSH1 0x40 MLOAD RETURNDATASIZE PUSH1 0x1F NOT PUSH1 0x1F DUP3 ADD AND DUP3 ADD DUP1 PUSH1 0x40 MSTORE POP DUP2 ADD SWAP1 PUSH2 0x69D SWAP2 SWAP1 PUSH2 0x1C9F JUMP JUMPDEST SWAP1 POP DUP5 DUP2 SUB PUSH2 0x6B7 JUMPI PUSH2 0x6B2 DUP9 DUP9 DUP9 DUP7 PUSH2 0xC34 JUMP JUMPDEST PUSH2 0x6C5 JUMP JUMPDEST PUSH2 0x6C4 DUP9 DUP9 DUP9 DUP9 DUP9 PUSH2 0x9BB JUMP JUMPDEST JUMPDEST POP POP POP POP POP POP POP POP JUMP JUMPDEST PUSH1 0x0 DUP4 SWAP1 POP DUP2 MLOAD DUP4 MLOAD EQ PUSH2 0x718 JUMPI PUSH1 0x40 MLOAD PUSH32 0x8C379A000000000000000000000000000000000000000000000000000000000 DUP2 MSTORE PUSH1 0x4 ADD PUSH2 0x70F SWAP1 PUSH2 0x168E JUMP JUMPDEST PUSH1 0x40 MLOAD DUP1 SWAP2 SUB SWAP1 REVERT JUMPDEST PUSH1 0x0 DUP1 JUMPDEST DUP5 MLOAD DUP2 LT ISZERO PUSH2 0x760 JUMPI DUP4 DUP2 DUP2 MLOAD DUP2 LT PUSH2 0x738 JUMPI PUSH2 0x737 PUSH2 0x1469 JUMP JUMPDEST JUMPDEST PUSH1 0x20 MUL PUSH1 0x20 ADD ADD MLOAD DUP3 PUSH2 0x74B SWAP2 SWAP1 PUSH2 0x16AE JUMP JUMPDEST SWAP2 POP DUP1 DUP1 PUSH2 0x758 SWAP1 PUSH2 0x15FA JUMP JUMPDEST SWAP2 POP POP PUSH2 0x71C JUMP JUMPDEST POP DUP2 PUSH20 0xFFFFFFFFFFFFFFFFFFFFFFFFFFFFFFFFFFFFFFFF AND PUSH4 0x23B872DD CALLER ADDRESS DUP5 PUSH1 0x40 MLOAD DUP5 PUSH4 0xFFFFFFFF AND PUSH1 0xE0 SHL DUP2 MSTORE PUSH1 0x4 ADD PUSH2 0x79E SWAP4 SWAP3 SWAP2 SWAP1 PUSH2 0x16E2 JUMP JUMPDEST PUSH1 0x20 PUSH1 0x40 MLOAD DUP1 DUP4 SUB DUP2 PUSH1 0x0 DUP8 GAS CALL ISZERO DUP1 ISZERO PUSH2 0x7BD JUMPI RETURNDATASIZE PUSH1 0x0 DUP1 RETURNDATACOPY RETURNDATASIZE PUSH1 0x0 REVERT JUMPDEST POP POP POP POP PUSH1 0x40 MLOAD RETURNDATASIZE PUSH1 0x1F NOT PUSH1 0x1F DUP3 ADD AND DUP3 ADD DUP1 PUSH1 0x40 MSTORE POP DUP2 ADD SWAP1 PUSH2 0x7E1 SWAP2 SWAP1 PUSH2 0x1517 JUMP JUMPDEST PUSH2 0x820 JUMPI PUSH1 0x40 MLOAD PUSH32 0x8C379A000000000000000000000000000000000000000000000000000000000 DUP2 MSTORE PUSH1 0x4 ADD PUSH2 0x817 SWAP1 PUSH2 0x1D18 JUMP JUMPDEST PUSH1 0x40 MLOAD DUP1 SWAP2 SUB SWAP1 REVERT JUMPDEST PUSH1 0x0 JUMPDEST DUP5 MLOAD DUP2 LT ISZERO PUSH2 0x9B3 JUMPI DUP3 PUSH20 0xFFFFFFFFFFFFFFFFFFFFFFFFFFFFFFFFFFFFFFFF AND PUSH4 0xA9059CBB DUP7 DUP4 DUP2 MLOAD DUP2 LT PUSH2 0x85B JUMPI PUSH2 0x85A PUSH2 0x1469 JUMP JUMPDEST JUMPDEST PUSH1 0x20 MUL PUSH1 0x20 ADD ADD MLOAD DUP7 DUP5 DUP2 MLOAD DUP2 LT PUSH2 0x876 JUMPI PUSH2 0x875 PUSH2 0x1469 JUMP JUMPDEST JUMPDEST PUSH1 0x20 MUL PUSH1 0x20 ADD ADD MLOAD PUSH1 0x40 MLOAD DUP4 PUSH4 0xFFFFFFFF AND PUSH1 0xE0 SHL DUP2 MSTORE PUSH1 0x4 ADD PUSH2 0x89B SWAP3 SWAP2 SWAP1 PUSH2 0x14B6 JUMP JUMPDEST PUSH1 0x20 PUSH1 0x40 MLOAD DUP1 DUP4 SUB DUP2 PUSH1 0x0 DUP8 GAS CALL ISZERO DUP1 ISZERO PUSH2 0x8BA JUMPI RETURNDATASIZE PUSH1 0x0 DUP1 RETURNDATACOPY RETURNDATASIZE PUSH1 0x0 REVERT JUMPDEST POP POP POP POP PUSH1 0x40 MLOAD RETURNDATASIZE PUSH1 0x1F NOT PUSH1 0x1F DUP3 ADD AND DUP3 ADD DUP1 PUSH1 0x40 MSTORE POP DUP2 ADD SWAP1 PUSH2 0x8DE SWAP2 SWAP1 PUSH2 0x1517 JUMP JUMPDEST PUSH2 0x91D JUMPI PUSH1 0x40 MLOAD PUSH32 0x8C379A000000000000000000000000000000000000000000000000000000000 DUP2 MSTORE PUSH1 0x4 ADD PUSH2 0x914 SWAP1 PUSH2 0x1590 JUMP JUMPDEST PUSH1 0x40 MLOAD DUP1 SWAP2 SUB SWAP1 REVERT JUMPDEST DUP5 DUP2 DUP2 MLOAD DUP2 LT PUSH2 0x930 JUMPI PUSH2 0x92F PUSH2 0x1469 JUMP JUMPDEST JUMPDEST PUSH1 0x20 MUL PUSH1 0x20 ADD ADD MLOAD PUSH20 0xFFFFFFFFFFFFFFFFFFFFFFFFFFFFFFFFFFFFFFFF AND DUP2 PUSH32 0xB9471439BD4C23F19D2B486548FA6061AB17E1DA9815F325F2A2B29F22E715E3 DUP7 DUP5 DUP2 MLOAD DUP2 LT PUSH2 0x983 JUMPI PUSH2 0x982 PUSH2 0x1469 JUMP JUMPDEST JUMPDEST PUSH1 0x20 MUL PUSH1 0x20 ADD ADD MLOAD PUSH1 0x40 MLOAD PUSH2 0x998 SWAP2 SWAP1 PUSH2 0x15B0 JUMP JUMPDEST PUSH1 0x40 MLOAD DUP1 SWAP2 SUB SWAP1 LOG3 DUP1 DUP1 PUSH2 0x9AB SWAP1 PUSH2 0x15FA JUMP JUMPDEST SWAP2 POP POP PUSH2 0x823 JUMP JUMPDEST POP POP POP POP POP POP JUMP JUMPDEST PUSH1 0x0 DUP6 SWAP1 POP PUSH1 0x0 CALLER SWAP1 POP PUSH1 0x0 PUSH1 0x1 PUSH1 0x0 SWAP1 SLOAD SWAP1 PUSH2 0x100 EXP SWAP1 DIV PUSH20 0xFFFFFFFFFFFFFFFFFFFFFFFFFFFFFFFFFFFFFFFF AND PUSH20 0xFFFFFFFFFFFFFFFFFFFFFFFFFFFFFFFFFFFFFFFF AND PUSH4 0x41976E09 DUP5 PUSH1 0x40 MLOAD DUP3 PUSH4 0xFFFFFFFF AND PUSH1 0xE0 SHL DUP2 MSTORE PUSH1 0x4 ADD PUSH2 0xA22 SWAP2 SWAP1 PUSH2 0x1C6F JUMP JUMPDEST PUSH1 0x20 PUSH1 0x40 MLOAD DUP1 DUP4 SUB DUP2 DUP7 GAS STATICCALL ISZERO DUP1 ISZERO PUSH2 0xA3F JUMPI RETURNDATASIZE PUSH1 0x0 DUP1 RETURNDATACOPY RETURNDATASIZE PUSH1 0x0 REVERT JUMPDEST POP POP POP POP PUSH1 0x40 MLOAD RETURNDATASIZE PUSH1 0x1F NOT PUSH1 0x1F DUP3 ADD AND DUP3 ADD DUP1 PUSH1 0x40 MSTORE POP DUP2 ADD SWAP1 PUSH2 0xA63 SWAP2 SWAP1 PUSH2 0x1C9F JUMP JUMPDEST SWAP1 POP DUP5 DUP2 SUB PUSH2 0xA7D JUMPI PUSH2 0xA78 DUP9 DUP9 DUP9 DUP6 PUSH2 0xC34 JUMP JUMPDEST PUSH2 0xC2A JUMP JUMPDEST PUSH1 0x0 DUP9 DUP9 DUP9 DUP9 DUP9 DUP8 PUSH1 0x40 MLOAD PUSH1 0x24 ADD PUSH2 0xA9A SWAP7 SWAP6 SWAP5 SWAP4 SWAP3 SWAP2 SWAP1 PUSH2 0x1D38 JUMP JUMPDEST PUSH1 0x40 MLOAD PUSH1 0x20 DUP2 DUP4 SUB SUB DUP2 MSTORE SWAP1 PUSH1 0x40 MSTORE PUSH32 0xAB54B1BA00000000000000000000000000000000000000000000000000000000 PUSH28 0xFFFFFFFFFFFFFFFFFFFFFFFFFFFFFFFFFFFFFFFFFFFFFFFFFFFFFFFF NOT AND PUSH1 0x20 DUP3 ADD DUP1 MLOAD PUSH28 0xFFFFFFFFFFFFFFFFFFFFFFFFFFFFFFFFFFFFFFFFFFFFFFFFFFFFFFFF DUP4 DUP2 DUP4 AND OR DUP4 MSTORE POP POP POP POP SWAP1 POP PUSH1 0x0 DUP1 PUSH1 0x0 SWAP1 SLOAD SWAP1 PUSH2 0x100 EXP SWAP1 DIV PUSH20 0xFFFFFFFFFFFFFFFFFFFFFFFFFFFFFFFFFFFFFFFF AND PUSH20 0xFFFFFFFFFFFFFFFFFFFFFFFFFFFFFFFFFFFFFFFF AND PUSH4 0x168D560D ADDRESS PUSH1 0x0 PUSH3 0x200B20 PUSH2 0xFA00 DUP12 DUP9 PUSH1 0x40 MLOAD DUP8 PUSH4 0xFFFFFFFF AND PUSH1 0xE0 SHL DUP2 MSTORE PUSH1 0x4 ADD PUSH2 0xB85 SWAP7 SWAP6 SWAP5 SWAP4 SWAP3 SWAP2 SWAP1 PUSH2 0x1A80 JUMP JUMPDEST PUSH1 0x0 PUSH1 0x40 MLOAD DUP1 DUP4 SUB DUP2 PUSH1 0x0 DUP8 GAS CALL ISZERO DUP1 ISZERO PUSH2 0xBA4 JUMPI RETURNDATASIZE PUSH1 0x0 DUP1 RETURNDATACOPY RETURNDATASIZE PUSH1 0x0 REVERT JUMPDEST POP POP POP POP PUSH1 0x40 MLOAD RETURNDATASIZE PUSH1 0x0 DUP3 RETURNDATACOPY RETURNDATASIZE PUSH1 0x1F NOT PUSH1 0x1F DUP3 ADD AND DUP3 ADD DUP1 PUSH1 0x40 MSTORE POP DUP2 ADD SWAP1 PUSH2 0xBCD SWAP2 SWAP1 PUSH2 0x1B8E JUMP JUMPDEST SWAP1 POP DUP1 PUSH1 0x40 MLOAD PUSH2 0xBDD SWAP2 SWAP1 PUSH2 0x1C13 JUMP JUMPDEST PUSH1 0x40 MLOAD DUP1 SWAP2 SUB SWAP1 KECCAK256 PUSH32 0x9E989CCC644AFF3DCCB44D63C0125CF7C49F64C9631016543486E7DFC72187C7 DUP8 TIMESTAMP PUSH2 0xC12 SWAP2 SWAP1 PUSH2 0x16AE JUMP JUMPDEST PUSH1 0x40 MLOAD PUSH2 0xC1F SWAP2 SWAP1 PUSH2 0x15B0 JUMP JUMPDEST PUSH1 0x40 MLOAD DUP1 SWAP2 SUB SWAP1 LOG2 POP POP JUMPDEST POP POP POP POP POP POP POP POP JUMP JUMPDEST PUSH1 0x0 DUP5 SWAP1 POP DUP3 MLOAD DUP5 MLOAD EQ PUSH2 0xC7D JUMPI PUSH1 0x40 MLOAD PUSH32 0x8C379A000000000000000000000000000000000000000000000000000000000 DUP2 MSTORE PUSH1 0x4 ADD PUSH2 0xC74 SWAP1 PUSH2 0x1449 JUMP JUMPDEST PUSH1 0x40 MLOAD DUP1 SWAP2 SUB SWAP1 REVERT JUMPDEST PUSH1 0x0 DUP1 JUMPDEST DUP5 MLOAD DUP2 LT ISZERO PUSH2 0xCC5 JUMPI DUP5 DUP2 DUP2 MLOAD DUP2 LT PUSH2 0xC9D JUMPI PUSH2 0xC9C PUSH2 0x1469 JUMP JUMPDEST JUMPDEST PUSH1 0x20 MUL PUSH1 0x20 ADD ADD MLOAD DUP3 PUSH2 0xCB0 SWAP2 SWAP1 PUSH2 0x16AE JUMP JUMPDEST SWAP2 POP DUP1 DUP1 PUSH2 0xCBD SWAP1 PUSH2 0x15FA JUMP JUMPDEST SWAP2 POP POP PUSH2 0xC81 JUMP JUMPDEST POP DUP2 PUSH20 0xFFFFFFFFFFFFFFFFFFFFFFFFFFFFFFFFFFFFFFFF AND PUSH4 0x23B872DD DUP5 ADDRESS DUP5 PUSH1 0x40 MLOAD DUP5 PUSH4 0xFFFFFFFF AND PUSH1 0xE0 SHL DUP2 MSTORE PUSH1 0x4 ADD PUSH2 0xD03 SWAP4 SWAP3 SWAP2 SWAP1 PUSH2 0x16E2 JUMP JUMPDEST PUSH1 0x20 PUSH1 0x40 MLOAD DUP1 DUP4 SUB DUP2 PUSH1 0x0 DUP8 GAS CALL ISZERO DUP1 ISZERO PUSH2 0xD22 JUMPI RETURNDATASIZE PUSH1 0x0 DUP1 RETURNDATACOPY RETURNDATASIZE PUSH1 0x0 REVERT JUMPDEST POP POP POP POP PUSH1 0x40 MLOAD RETURNDATASIZE PUSH1 0x1F NOT PUSH1 0x1F DUP3 ADD AND DUP3 ADD DUP1 PUSH1 0x40 MSTORE POP DUP2 ADD SWAP1 PUSH2 0xD46 SWAP2 SWAP1 PUSH2 0x1517 JUMP JUMPDEST PUSH2 0xD85 JUMPI PUSH1 0x40 MLOAD PUSH32 0x8C379A000000000000000000000000000000000000000000000000000000000 DUP2 MSTORE PUSH1 0x4 ADD PUSH2 0xD7C SWAP1 PUSH2 0x1590 JUMP JUMPDEST PUSH1 0x40 MLOAD DUP1 SWAP2 SUB SWAP1 REVERT JUMPDEST PUSH1 0x0 JUMPDEST DUP6 MLOAD DUP2 LT ISZERO PUSH2 0xE57 JUMPI DUP3 PUSH20 0xFFFFFFFFFFFFFFFFFFFFFFFFFFFFFFFFFFFFFFFF AND PUSH4 0xA9059CBB DUP8 DUP4 DUP2 MLOAD DUP2 LT PUSH2 0xDC0 JUMPI PUSH2 0xDBF PUSH2 0x1469 JUMP JUMPDEST JUMPDEST PUSH1 0x20 MUL PUSH1 0x20 ADD ADD MLOAD DUP8 DUP5 DUP2 MLOAD DUP2 LT PUSH2 0xDDB JUMPI PUSH2 0xDDA PUSH2 0x1469 JUMP JUMPDEST JUMPDEST PUSH1 0x20 MUL PUSH1 0x20 ADD ADD MLOAD PUSH1 0x40 MLOAD DUP4 PUSH4 0xFFFFFFFF AND PUSH1 0xE0 SHL DUP2 MSTORE PUSH1 0x4 ADD PUSH2 0xE00 SWAP3 SWAP2 SWAP1 PUSH2 0x14B6 JUMP JUMPDEST PUSH1 0x20 PUSH1 0x40 MLOAD DUP1 DUP4 SUB DUP2 PUSH1 0x0 DUP8 GAS CALL ISZERO DUP1 ISZERO PUSH2 0xE1F JUMPI RETURNDATASIZE PUSH1 0x0 DUP1 RETURNDATACOPY RETURNDATASIZE PUSH1 0x0 REVERT JUMPDEST POP POP POP POP PUSH1 0x40 MLOAD RETURNDATASIZE PUSH1 0x1F NOT PUSH1 0x1F DUP3 ADD AND DUP3 ADD DUP1 PUSH1 0x40 MSTORE POP DUP2 ADD SWAP1 PUSH2 0xE43 SWAP2 SWAP1 PUSH2 0x1517 JUMP JUMPDEST POP DUP1 DUP1 PUSH2 0xE4F SWAP1 PUSH2 0x15FA JUMP JUMPDEST SWAP2 POP POP PUSH2 0xD88 JUMP JUMPDEST POP POP POP POP POP POP POP JUMP JUMPDEST PUSH1 0x0 PUSH1 0x40 MLOAD SWAP1 POP SWAP1 JUMP JUMPDEST PUSH1 0x0 DUP1 REVERT JUMPDEST PUSH1 0x0 DUP1 REVERT JUMPDEST PUSH1 0x0 PUSH20 0xFFFFFFFFFFFFFFFFFFFFFFFFFFFFFFFFFFFFFFFF DUP3 AND SWAP1 POP SWAP2 SWAP1 POP JUMP JUMPDEST PUSH1 0x0 PUSH2 0xE9F DUP3 PUSH2 0xE74 JUMP JUMPDEST SWAP1 POP SWAP2 SWAP1 POP JUMP JUMPDEST PUSH2 0xEAF DUP2 PUSH2 0xE94 JUMP JUMPDEST DUP2 EQ PUSH2 0xEBA JUMPI PUSH1 0x0 DUP1 REVERT JUMPDEST POP JUMP JUMPDEST PUSH1 0x0 DUP2 CALLDATALOAD SWAP1 POP PUSH2 0xECC DUP2 PUSH2 0xEA6 JUMP JUMPDEST SWAP3 SWAP2 POP POP JUMP JUMPDEST PUSH1 0x0 DUP1 REVERT JUMPDEST PUSH1 0x0 PUSH1 0x1F NOT PUSH1 0x1F DUP4 ADD AND SWAP1 POP SWAP2 SWAP1 POP JUMP JUMPDEST PUSH32 0x4E487B7100000000000000000000000000000000000000000000000000000000 PUSH1 0x0 MSTORE PUSH1 0x41 PUSH1 0x4 MSTORE PUSH1 0x24 PUSH1 0x0 REVERT JUMPDEST PUSH2 0xF20 DUP3 PUSH2 0xED7 JUMP JUMPDEST DUP2 ADD DUP2 DUP2 LT PUSH8 0xFFFFFFFFFFFFFFFF DUP3 GT OR ISZERO PUSH2 0xF3F JUMPI PUSH2 0xF3E PUSH2 0xEE8 JUMP JUMPDEST JUMPDEST DUP1 PUSH1 0x40 MSTORE POP POP POP JUMP JUMPDEST PUSH1 0x0 PUSH2 0xF52 PUSH2 0xE60 JUMP JUMPDEST SWAP1 POP PUSH2 0xF5E DUP3 DUP3 PUSH2 0xF17 JUMP JUMPDEST SWAP2 SWAP1 POP JUMP JUMPDEST PUSH1 0x0 PUSH8 0xFFFFFFFFFFFFFFFF DUP3 GT ISZERO PUSH2 0xF7E JUMPI PUSH2 0xF7D PUSH2 0xEE8 JUMP JUMPDEST JUMPDEST PUSH1 0x20 DUP3 MUL SWAP1 POP PUSH1 0x20 DUP2 ADD SWAP1 POP SWAP2 SWAP1 POP JUMP JUMPDEST PUSH1 0x0 DUP1 REVERT JUMPDEST PUSH1 0x0 PUSH2 0xFA7 PUSH2 0xFA2 DUP5 PUSH2 0xF63 JUMP JUMPDEST PUSH2 0xF48 JUMP JUMPDEST SWAP1 POP DUP1 DUP4 DUP3 MSTORE PUSH1 0x20 DUP3 ADD SWAP1 POP PUSH1 0x20 DUP5 MUL DUP4 ADD DUP6 DUP2 GT ISZERO PUSH2 0xFCA JUMPI PUSH2 0xFC9 PUSH2 0xF8F JUMP JUMPDEST JUMPDEST DUP4 JUMPDEST DUP2 DUP2 LT ISZERO PUSH2 0xFF3 JUMPI DUP1 PUSH2 0xFDF DUP9 DUP3 PUSH2 0xEBD JUMP JUMPDEST DUP5 MSTORE PUSH1 0x20 DUP5 ADD SWAP4 POP POP PUSH1 0x20 DUP2 ADD SWAP1 POP PUSH2 0xFCC JUMP JUMPDEST POP POP POP SWAP4 SWAP3 POP POP POP JUMP JUMPDEST PUSH1 0x0 DUP3 PUSH1 0x1F DUP4 ADD SLT PUSH2 0x1012 JUMPI PUSH2 0x1011 PUSH2 0xED2 JUMP JUMPDEST JUMPDEST DUP2 CALLDATALOAD PUSH2 0x1022 DUP5 DUP3 PUSH1 0x20 DUP7 ADD PUSH2 0xF94 JUMP JUMPDEST SWAP2 POP POP SWAP3 SWAP2 POP POP JUMP JUMPDEST PUSH1 0x0 PUSH8 0xFFFFFFFFFFFFFFFF DUP3 GT ISZERO PUSH2 0x1046 JUMPI PUSH2 0x1045 PUSH2 0xEE8 JUMP JUMPDEST JUMPDEST PUSH1 0x20 DUP3 MUL SWAP1 POP PUSH1 0x20 DUP2 ADD SWAP1 POP SWAP2 SWAP1 POP JUMP JUMPDEST PUSH1 0x0 DUP2 SWAP1 POP SWAP2 SWAP1 POP JUMP JUMPDEST PUSH2 0x106A DUP2 PUSH2 0x1057 JUMP JUMPDEST DUP2 EQ PUSH2 0x1075 JUMPI PUSH1 0x0 DUP1 REVERT JUMPDEST POP JUMP JUMPDEST PUSH1 0x0 DUP2 CALLDATALOAD SWAP1 POP PUSH2 0x1087 DUP2 PUSH2 0x1061 JUMP JUMPDEST SWAP3 SWAP2 POP POP JUMP JUMPDEST PUSH1 0x0 PUSH2 0x10A0 PUSH2 0x109B DUP5 PUSH2 0x102B JUMP JUMPDEST PUSH2 0xF48 JUMP JUMPDEST SWAP1 POP DUP1 DUP4 DUP3 MSTORE PUSH1 0x20 DUP3 ADD SWAP1 POP PUSH1 0x20 DUP5 MUL DUP4 ADD DUP6 DUP2 GT ISZERO PUSH2 0x10C3 JUMPI PUSH2 0x10C2 PUSH2 0xF8F JUMP JUMPDEST JUMPDEST DUP4 JUMPDEST DUP2 DUP2 LT ISZERO PUSH2 0x10EC JUMPI DUP1 PUSH2 0x10D8 DUP9 DUP3 PUSH2 0x1078 JUMP JUMPDEST DUP5 MSTORE PUSH1 0x20 DUP5 ADD SWAP4 POP POP PUSH1 0x20 DUP2 ADD SWAP1 POP PUSH2 0x10C5 JUMP JUMPDEST POP POP POP SWAP4 SWAP3 POP POP POP JUMP JUMPDEST PUSH1 0x0 DUP3 PUSH1 0x1F DUP4 ADD SLT PUSH2 0x110B JUMPI PUSH2 0x110A PUSH2 0xED2 JUMP JUMPDEST JUMPDEST DUP2 CALLDATALOAD PUSH2 0x111B DUP5 DUP3 PUSH1 0x20 DUP7 ADD PUSH2 0x108D JUMP JUMPDEST SWAP2 POP POP SWAP3 SWAP2 POP POP JUMP JUMPDEST PUSH1 0x0 DUP1 PUSH1 0x0 PUSH1 0x60 DUP5 DUP7 SUB SLT ISZERO PUSH2 0x113D JUMPI PUSH2 0x113C PUSH2 0xE6A JUMP JUMPDEST JUMPDEST PUSH1 0x0 PUSH2 0x114B DUP7 DUP3 DUP8 ADD PUSH2 0xEBD JUMP JUMPDEST SWAP4 POP POP PUSH1 0x20 DUP5 ADD CALLDATALOAD PUSH8 0xFFFFFFFFFFFFFFFF DUP2 GT ISZERO PUSH2 0x116C JUMPI PUSH2 0x116B PUSH2 0xE6F JUMP JUMPDEST JUMPDEST PUSH2 0x1178 DUP7 DUP3 DUP8 ADD PUSH2 0xFFD JUMP JUMPDEST SWAP3 POP POP PUSH1 0x40 DUP5 ADD CALLDATALOAD PUSH8 0xFFFFFFFFFFFFFFFF DUP2 GT ISZERO PUSH2 0x1199 JUMPI PUSH2 0x1198 PUSH2 0xE6F JUMP JUMPDEST JUMPDEST PUSH2 0x11A5 DUP7 DUP3 DUP8 ADD PUSH2 0x10F6 JUMP JUMPDEST SWAP2 POP POP SWAP3 POP SWAP3 POP SWAP3 JUMP JUMPDEST PUSH1 0x0 DUP1 PUSH1 0x0 DUP1 PUSH1 0x80 DUP6 DUP8 SUB SLT ISZERO PUSH2 0x11C9 JUMPI PUSH2 0x11C8 PUSH2 0xE6A JUMP JUMPDEST JUMPDEST PUSH1 0x0 PUSH2 0x11D7 DUP8 DUP3 DUP9 ADD PUSH2 0xEBD JUMP JUMPDEST SWAP5 POP POP PUSH1 0x20 DUP6 ADD CALLDATALOAD PUSH8 0xFFFFFFFFFFFFFFFF DUP2 GT ISZERO PUSH2 0x11F8 JUMPI PUSH2 0x11F7 PUSH2 0xE6F JUMP JUMPDEST JUMPDEST PUSH2 0x1204 DUP8 DUP3 DUP9 ADD PUSH2 0xFFD JUMP JUMPDEST SWAP4 POP POP PUSH1 0x40 DUP6 ADD CALLDATALOAD PUSH8 0xFFFFFFFFFFFFFFFF DUP2 GT ISZERO PUSH2 0x1225 JUMPI PUSH2 0x1224 PUSH2 0xE6F JUMP JUMPDEST JUMPDEST PUSH2 0x1231 DUP8 DUP3 DUP9 ADD PUSH2 0x10F6 JUMP JUMPDEST SWAP3 POP POP PUSH1 0x60 PUSH2 0x1242 DUP8 DUP3 DUP9 ADD PUSH2 0x1078 JUMP JUMPDEST SWAP2 POP POP SWAP3 SWAP6 SWAP2 SWAP5 POP SWAP3 POP JUMP JUMPDEST PUSH1 0x0 DUP1 PUSH1 0x0 DUP1 PUSH1 0x0 DUP1 PUSH1 0xC0 DUP8 DUP10 SUB SLT ISZERO PUSH2 0x126B JUMPI PUSH2 0x126A PUSH2 0xE6A JUMP JUMPDEST JUMPDEST PUSH1 0x0 PUSH2 0x1279 DUP10 DUP3 DUP11 ADD PUSH2 0xEBD JUMP JUMPDEST SWAP7 POP POP PUSH1 0x20 DUP8 ADD CALLDATALOAD PUSH8 0xFFFFFFFFFFFFFFFF DUP2 GT ISZERO PUSH2 0x129A JUMPI PUSH2 0x1299 PUSH2 0xE6F JUMP JUMPDEST JUMPDEST PUSH2 0x12A6 DUP10 DUP3 DUP11 ADD PUSH2 0xFFD JUMP JUMPDEST SWAP6 POP POP PUSH1 0x40 DUP8 ADD CALLDATALOAD PUSH8 0xFFFFFFFFFFFFFFFF DUP2 GT ISZERO PUSH2 0x12C7 JUMPI PUSH2 0x12C6 PUSH2 0xE6F JUMP JUMPDEST JUMPDEST PUSH2 0x12D3 DUP10 DUP3 DUP11 ADD PUSH2 0x10F6 JUMP JUMPDEST SWAP5 POP POP PUSH1 0x60 PUSH2 0x12E4 DUP10 DUP3 DUP11 ADD PUSH2 0x1078 JUMP JUMPDEST SWAP4 POP POP PUSH1 0x80 PUSH2 0x12F5 DUP10 DUP3 DUP11 ADD PUSH2 0x1078 JUMP JUMPDEST SWAP3 POP POP PUSH1 0xA0 PUSH2 0x1306 DUP10 DUP3 DUP11 ADD PUSH2 0xEBD JUMP JUMPDEST SWAP2 POP POP SWAP3 SWAP6 POP SWAP3 SWAP6 POP SWAP3 SWAP6 JUMP JUMPDEST PUSH1 0x0 DUP1 PUSH1 0x0 DUP1 PUSH1 0x0 PUSH1 0xA0 DUP7 DUP9 SUB SLT ISZERO PUSH2 0x132F JUMPI PUSH2 0x132E PUSH2 0xE6A JUMP JUMPDEST JUMPDEST PUSH1 0x0 PUSH2 0x133D DUP9 DUP3 DUP10 ADD PUSH2 0xEBD JUMP JUMPDEST SWAP6 POP POP PUSH1 0x20 DUP7 ADD CALLDATALOAD PUSH8 0xFFFFFFFFFFFFFFFF DUP2 GT ISZERO PUSH2 0x135E JUMPI PUSH2 0x135D PUSH2 0xE6F JUMP JUMPDEST JUMPDEST PUSH2 0x136A DUP9 DUP3 DUP10 ADD PUSH2 0xFFD JUMP JUMPDEST SWAP5 POP POP PUSH1 0x40 DUP7 ADD CALLDATALOAD PUSH8 0xFFFFFFFFFFFFFFFF DUP2 GT ISZERO PUSH2 0x138B JUMPI PUSH2 0x138A PUSH2 0xE6F JUMP JUMPDEST JUMPDEST PUSH2 0x1397 DUP9 DUP3 DUP10 ADD PUSH2 0x10F6 JUMP JUMPDEST SWAP4 POP POP PUSH1 0x60 PUSH2 0x13A8 DUP9 DUP3 DUP10 ADD PUSH2 0x1078 JUMP JUMPDEST SWAP3 POP POP PUSH1 0x80 PUSH2 0x13B9 DUP9 DUP3 DUP10 ADD PUSH2 0x1078 JUMP JUMPDEST SWAP2 POP POP SWAP3 SWAP6 POP SWAP3 SWAP6 SWAP1 SWAP4 POP JUMP JUMPDEST PUSH1 0x0 DUP3 DUP3 MSTORE PUSH1 0x20 DUP3 ADD SWAP1 POP SWAP3 SWAP2 POP POP JUMP JUMPDEST PUSH32 0x4D69736D61746368656420726563697069656E747320616E6420616D6F756E74 PUSH1 0x0 DUP3 ADD MSTORE PUSH32 0x7300000000000000000000000000000000000000000000000000000000000000 PUSH1 0x20 DUP3 ADD MSTORE POP JUMP JUMPDEST PUSH1 0x0 PUSH2 0x1433 PUSH1 0x21 DUP4 PUSH2 0x13C6 JUMP JUMPDEST SWAP2 POP PUSH2 0x143E DUP3 PUSH2 0x13D7 JUMP JUMPDEST PUSH1 0x40 DUP3 ADD SWAP1 POP SWAP2 SWAP1 POP JUMP JUMPDEST PUSH1 0x0 PUSH1 0x20 DUP3 ADD SWAP1 POP DUP2 DUP2 SUB PUSH1 0x0 DUP4 ADD MSTORE PUSH2 0x1462 DUP2 PUSH2 0x1426 JUMP JUMPDEST SWAP1 POP SWAP2 SWAP1 POP JUMP JUMPDEST PUSH32 0x4E487B7100000000000000000000000000000000000000000000000000000000 PUSH1 0x0 MSTORE PUSH1 0x32 PUSH1 0x4 MSTORE PUSH1 0x24 PUSH1 0x0 REVERT JUMPDEST PUSH2 0x14A1 DUP2 PUSH2 0xE94 JUMP JUMPDEST DUP3 MSTORE POP POP JUMP JUMPDEST PUSH2 0x14B0 DUP2 PUSH2 0x1057 JUMP JUMPDEST DUP3 MSTORE POP POP JUMP JUMPDEST PUSH1 0x0 PUSH1 0x40 DUP3 ADD SWAP1 POP PUSH2 0x14CB PUSH1 0x0 DUP4 ADD DUP6 PUSH2 0x1498 JUMP JUMPDEST PUSH2 0x14D8 PUSH1 0x20 DUP4 ADD DUP5 PUSH2 0x14A7 JUMP JUMPDEST SWAP4 SWAP3 POP POP POP JUMP JUMPDEST PUSH1 0x0 DUP2 ISZERO ISZERO SWAP1 POP SWAP2 SWAP1 POP JUMP JUMPDEST PUSH2 0x14F4 DUP2 PUSH2 0x14DF JUMP JUMPDEST DUP2 EQ PUSH2 0x14FF JUMPI PUSH1 0x0 DUP1 REVERT JUMPDEST POP JUMP JUMPDEST PUSH1 0x0 DUP2 MLOAD SWAP1 POP PUSH2 0x1511 DUP2 PUSH2 0x14EB JUMP JUMPDEST SWAP3 SWAP2 POP POP JUMP JUMPDEST PUSH1 0x0 PUSH1 0x20 DUP3 DUP5 SUB SLT ISZERO PUSH2 0x152D JUMPI PUSH2 0x152C PUSH2 0xE6A JUMP JUMPDEST JUMPDEST PUSH1 0x0 PUSH2 0x153B DUP5 DUP3 DUP6 ADD PUSH2 0x1502 JUMP JUMPDEST SWAP2 POP POP SWAP3 SWAP2 POP POP JUMP JUMPDEST PUSH32 0x546F6B656E207472616E73666572206661696C65640000000000000000000000 PUSH1 0x0 DUP3 ADD MSTORE POP JUMP JUMPDEST PUSH1 0x0 PUSH2 0x157A PUSH1 0x15 DUP4 PUSH2 0x13C6 JUMP JUMPDEST SWAP2 POP PUSH2 0x1585 DUP3 PUSH2 0x1544 JUMP JUMPDEST PUSH1 0x20 DUP3 ADD SWAP1 POP SWAP2 SWAP1 POP JUMP JUMPDEST PUSH1 0x0 PUSH1 0x20 DUP3 ADD SWAP1 POP DUP2 DUP2 SUB PUSH1 0x0 DUP4 ADD MSTORE PUSH2 0x15A9 DUP2 PUSH2 0x156D JUMP JUMPDEST SWAP1 POP SWAP2 SWAP1 POP JUMP JUMPDEST PUSH1 0x0 PUSH1 0x20 DUP3 ADD SWAP1 POP PUSH2 0x15C5 PUSH1 0x0 DUP4 ADD DUP5 PUSH2 0x14A7 JUMP JUMPDEST SWAP3 SWAP2 POP POP JUMP JUMPDEST PUSH32 0x4E487B7100000000000000000000000000000000000000000000000000000000 PUSH1 0x0 MSTORE PUSH1 0x11 PUSH1 0x4 MSTORE PUSH1 0x24 PUSH1 0x0 REVERT JUMPDEST PUSH1 0x0 PUSH2 0x1605 DUP3 PUSH2 0x1057 JUMP JUMPDEST SWAP2 POP PUSH32 0xFFFFFFFFFFFFFFFFFFFFFFFFFFFFFFFFFFFFFFFFFFFFFFFFFFFFFFFFFFFFFFFF DUP3 SUB PUSH2 0x1637 JUMPI PUSH2 0x1636 PUSH2 0x15CB JUMP JUMPDEST JUMPDEST PUSH1 0x1 DUP3 ADD SWAP1 POP SWAP2 SWAP1 POP JUMP JUMPDEST PUSH32 0x4769766520696E70757473206163636F7264696E676C79210000000000000000 PUSH1 0x0 DUP3 ADD MSTORE POP JUMP JUMPDEST PUSH1 0x0 PUSH2 0x1678 PUSH1 0x18 DUP4 PUSH2 0x13C6 JUMP JUMPDEST SWAP2 POP PUSH2 0x1683 DUP3 PUSH2 0x1642 JUMP JUMPDEST PUSH1 0x20 DUP3 ADD SWAP1 POP SWAP2 SWAP1 POP JUMP JUMPDEST PUSH1 0x0 PUSH1 0x20 DUP3 ADD SWAP1 POP DUP2 DUP2 SUB PUSH1 0x0 DUP4 ADD MSTORE PUSH2 0x16A7 DUP2 PUSH2 0x166B JUMP JUMPDEST SWAP1 POP SWAP2 SWAP1 POP JUMP JUMPDEST PUSH1 0x0 PUSH2 0x16B9 DUP3 PUSH2 0x1057 JUMP JUMPDEST SWAP2 POP PUSH2 0x16C4 DUP4 PUSH2 0x1057 JUMP JUMPDEST SWAP3 POP DUP3 DUP3 ADD SWAP1 POP DUP1 DUP3 GT ISZERO PUSH2 0x16DC JUMPI PUSH2 0x16DB PUSH2 0x15CB JUMP JUMPDEST JUMPDEST SWAP3 SWAP2 POP POP JUMP JUMPDEST PUSH1 0x0 PUSH1 0x60 DUP3 ADD SWAP1 POP PUSH2 0x16F7 PUSH1 0x0 DUP4 ADD DUP7 PUSH2 0x1498 JUMP JUMPDEST PUSH2 0x1704 PUSH1 0x20 DUP4 ADD DUP6 PUSH2 0x1498 JUMP JUMPDEST PUSH2 0x1711 PUSH1 0x40 DUP4 ADD DUP5 PUSH2 0x14A7 JUMP JUMPDEST SWAP5 SWAP4 POP POP POP POP JUMP JUMPDEST PUSH32 0x546F6B656E207472616E73666572206661696C65642100000000000000000000 PUSH1 0x0 DUP3 ADD MSTORE POP JUMP JUMPDEST PUSH1 0x0 PUSH2 0x174F PUSH1 0x16 DUP4 PUSH2 0x13C6 JUMP JUMPDEST SWAP2 POP PUSH2 0x175A DUP3 PUSH2 0x1719 JUMP JUMPDEST PUSH1 0x20 DUP3 ADD SWAP1 POP SWAP2 SWAP1 POP JUMP JUMPDEST PUSH1 0x0 PUSH1 0x20 DUP3 ADD SWAP1 POP DUP2 DUP2 SUB PUSH1 0x0 DUP4 ADD MSTORE PUSH2 0x177E DUP2 PUSH2 0x1742 JUMP JUMPDEST SWAP1 POP SWAP2 SWAP1 POP JUMP JUMPDEST PUSH1 0x0 DUP2 MLOAD SWAP1 POP SWAP2 SWAP1 POP JUMP JUMPDEST PUSH1 0x0 DUP3 DUP3 MSTORE PUSH1 0x20 DUP3 ADD SWAP1 POP SWAP3 SWAP2 POP POP JUMP JUMPDEST PUSH1 0x0 DUP2 SWAP1 POP PUSH1 0x20 DUP3 ADD SWAP1 POP SWAP2 SWAP1 POP JUMP JUMPDEST PUSH2 0x17BA DUP2 PUSH2 0xE94 JUMP JUMPDEST DUP3 MSTORE POP POP JUMP JUMPDEST PUSH1 0x0 PUSH2 0x17CC DUP4 DUP4 PUSH2 0x17B1 JUMP JUMPDEST PUSH1 0x20 DUP4 ADD SWAP1 POP SWAP3 SWAP2 POP POP JUMP JUMPDEST PUSH1 0x0 PUSH1 0x20 DUP3 ADD SWAP1 POP SWAP2 SWAP1 POP JUMP JUMPDEST PUSH1 0x0 PUSH2 0x17F0 DUP3 PUSH2 0x1785 JUMP JUMPDEST PUSH2 0x17FA DUP2 DUP6 PUSH2 0x1790 JUMP JUMPDEST SWAP4 POP PUSH2 0x1805 DUP4 PUSH2 0x17A1 JUMP JUMPDEST DUP1 PUSH1 0x0 JUMPDEST DUP4 DUP2 LT ISZERO PUSH2 0x1836 JUMPI DUP2 MLOAD PUSH2 0x181D DUP9 DUP3 PUSH2 0x17C0 JUMP JUMPDEST SWAP8 POP PUSH2 0x1828 DUP4 PUSH2 0x17D8 JUMP JUMPDEST SWAP3 POP POP PUSH1 0x1 DUP2 ADD SWAP1 POP PUSH2 0x1809 JUMP JUMPDEST POP DUP6 SWAP4 POP POP POP POP SWAP3 SWAP2 POP POP JUMP JUMPDEST PUSH1 0x0 DUP2 MLOAD SWAP1 POP SWAP2 SWAP1 POP JUMP JUMPDEST PUSH1 0x0 DUP3 DUP3 MSTORE PUSH1 0x20 DUP3 ADD SWAP1 POP SWAP3 SWAP2 POP POP JUMP JUMPDEST PUSH1 0x0 DUP2 SWAP1 POP PUSH1 0x20 DUP3 ADD SWAP1 POP SWAP2 SWAP1 POP JUMP JUMPDEST PUSH2 0x1878 DUP2 PUSH2 0x1057 JUMP JUMPDEST DUP3 MSTORE POP POP JUMP JUMPDEST PUSH1 0x0 PUSH2 0x188A DUP4 DUP4 PUSH2 0x186F JUMP JUMPDEST PUSH1 0x20 DUP4 ADD SWAP1 POP SWAP3 SWAP2 POP POP JUMP JUMPDEST PUSH1 0x0 PUSH1 0x20 DUP3 ADD SWAP1 POP SWAP2 SWAP1 POP JUMP JUMPDEST PUSH1 0x0 PUSH2 0x18AE DUP3 PUSH2 0x1843 JUMP JUMPDEST PUSH2 0x18B8 DUP2 DUP6 PUSH2 0x184E JUMP JUMPDEST SWAP4 POP PUSH2 0x18C3 DUP4 PUSH2 0x185F JUMP JUMPDEST DUP1 PUSH1 0x0 JUMPDEST DUP4 DUP2 LT ISZERO PUSH2 0x18F4 JUMPI DUP2 MLOAD PUSH2 0x18DB DUP9 DUP3 PUSH2 0x187E JUMP JUMPDEST SWAP8 POP PUSH2 0x18E6 DUP4 PUSH2 0x1896 JUMP JUMPDEST SWAP3 POP POP PUSH1 0x1 DUP2 ADD SWAP1 POP PUSH2 0x18C7 JUMP JUMPDEST POP DUP6 SWAP4 POP POP POP POP SWAP3 SWAP2 POP POP JUMP JUMPDEST PUSH1 0x0 PUSH1 0x60 DUP3 ADD SWAP1 POP PUSH2 0x1916 PUSH1 0x0 DUP4 ADD DUP7 PUSH2 0x1498 JUMP JUMPDEST DUP2 DUP2 SUB PUSH1 0x20 DUP4 ADD MSTORE PUSH2 0x1928 DUP2 DUP6 PUSH2 0x17E5 JUMP JUMPDEST SWAP1 POP DUP2 DUP2 SUB PUSH1 0x40 DUP4 ADD MSTORE PUSH2 0x193C DUP2 DUP5 PUSH2 0x18A3 JUMP JUMPDEST SWAP1 POP SWAP5 SWAP4 POP POP POP POP JUMP JUMPDEST PUSH1 0x0 DUP2 SWAP1 POP SWAP2 SWAP1 POP JUMP JUMPDEST PUSH1 0x0 DUP2 SWAP1 POP SWAP2 SWAP1 POP JUMP JUMPDEST PUSH1 0x0 PUSH2 0x1975 PUSH2 0x1970 PUSH2 0x196B DUP5 PUSH2 0x1946 JUMP JUMPDEST PUSH2 0x1950 JUMP JUMPDEST PUSH2 0x1057 JUMP JUMPDEST SWAP1 POP SWAP2 SWAP1 POP JUMP JUMPDEST PUSH2 0x1985 DUP2 PUSH2 0x195A JUMP JUMPDEST DUP3 MSTORE POP POP JUMP JUMPDEST PUSH1 0x0 DUP2 SWAP1 POP SWAP2 SWAP1 POP JUMP JUMPDEST PUSH1 0x0 PUSH2 0x19B0 PUSH2 0x19AB PUSH2 0x19A6 DUP5 PUSH2 0x198B JUMP JUMPDEST PUSH2 0x1950 JUMP JUMPDEST PUSH2 0x1057 JUMP JUMPDEST SWAP1 POP SWAP2 SWAP1 POP JUMP JUMPDEST PUSH2 0x19C0 DUP2 PUSH2 0x1995 JUMP JUMPDEST DUP3 MSTORE POP POP JUMP JUMPDEST PUSH1 0x0 DUP2 SWAP1 POP SWAP2 SWAP1 POP JUMP JUMPDEST PUSH1 0x0 PUSH2 0x19EB PUSH2 0x19E6 PUSH2 0x19E1 DUP5 PUSH2 0x19C6 JUMP JUMPDEST PUSH2 0x1950 JUMP JUMPDEST PUSH2 0x1057 JUMP JUMPDEST SWAP1 POP SWAP2 SWAP1 POP JUMP JUMPDEST PUSH2 0x19FB DUP2 PUSH2 0x19D0 JUMP JUMPDEST DUP3 MSTORE POP POP JUMP JUMPDEST PUSH1 0x0 DUP2 MLOAD SWAP1 POP SWAP2 SWAP1 POP JUMP JUMPDEST PUSH1 0x0 DUP3 DUP3 MSTORE PUSH1 0x20 DUP3 ADD SWAP1 POP SWAP3 SWAP2 POP POP JUMP JUMPDEST PUSH1 0x0 JUMPDEST DUP4 DUP2 LT ISZERO PUSH2 0x1A3B JUMPI DUP1 DUP3 ADD MLOAD DUP2 DUP5 ADD MSTORE PUSH1 0x20 DUP2 ADD SWAP1 POP PUSH2 0x1A20 JUMP JUMPDEST PUSH1 0x0 DUP5 DUP5 ADD MSTORE POP POP POP POP JUMP JUMPDEST PUSH1 0x0 PUSH2 0x1A52 DUP3 PUSH2 0x1A01 JUMP JUMPDEST PUSH2 0x1A5C DUP2 DUP6 PUSH2 0x1A0C JUMP JUMPDEST SWAP4 POP PUSH2 0x1A6C DUP2 DUP6 PUSH1 0x20 DUP7 ADD PUSH2 0x1A1D JUMP JUMPDEST PUSH2 0x1A75 DUP2 PUSH2 0xED7 JUMP JUMPDEST DUP5 ADD SWAP2 POP POP SWAP3 SWAP2 POP POP JUMP JUMPDEST PUSH1 0x0 PUSH1 0xC0 DUP3 ADD SWAP1 POP PUSH2 0x1A95 PUSH1 0x0 DUP4 ADD DUP10 PUSH2 0x1498 JUMP JUMPDEST PUSH2 0x1AA2 PUSH1 0x20 DUP4 ADD DUP9 PUSH2 0x197C JUMP JUMPDEST PUSH2 0x1AAF PUSH1 0x40 DUP4 ADD DUP8 PUSH2 0x19B7 JUMP JUMPDEST PUSH2 0x1ABC PUSH1 0x60 DUP4 ADD DUP7 PUSH2 0x19F2 JUMP JUMPDEST PUSH2 0x1AC9 PUSH1 0x80 DUP4 ADD DUP6 PUSH2 0x14A7 JUMP JUMPDEST DUP2 DUP2 SUB PUSH1 0xA0 DUP4 ADD MSTORE PUSH2 0x1ADB DUP2 DUP5 PUSH2 0x1A47 JUMP JUMPDEST SWAP1 POP SWAP8 SWAP7 POP POP POP POP POP POP POP JUMP JUMPDEST PUSH1 0x0 DUP1 REVERT JUMPDEST PUSH1 0x0 PUSH8 0xFFFFFFFFFFFFFFFF DUP3 GT ISZERO PUSH2 0x1B08 JUMPI PUSH2 0x1B07 PUSH2 0xEE8 JUMP JUMPDEST JUMPDEST PUSH2 0x1B11 DUP3 PUSH2 0xED7 JUMP JUMPDEST SWAP1 POP PUSH1 0x20 DUP2 ADD SWAP1 POP SWAP2 SWAP1 POP JUMP JUMPDEST PUSH1 0x0 PUSH2 0x1B31 PUSH2 0x1B2C DUP5 PUSH2 0x1AED JUMP JUMPDEST PUSH2 0xF48 JUMP JUMPDEST SWAP1 POP DUP3 DUP2 MSTORE PUSH1 0x20 DUP2 ADD DUP5 DUP5 DUP5 ADD GT ISZERO PUSH2 0x1B4D JUMPI PUSH2 0x1B4C PUSH2 0x1AE8 JUMP JUMPDEST JUMPDEST PUSH2 0x1B58 DUP5 DUP3 DUP6 PUSH2 0x1A1D JUMP JUMPDEST POP SWAP4 SWAP3 POP POP POP JUMP JUMPDEST PUSH1 0x0 DUP3 PUSH1 0x1F DUP4 ADD SLT PUSH2 0x1B75 JUMPI PUSH2 0x1B74 PUSH2 0xED2 JUMP JUMPDEST JUMPDEST DUP2 MLOAD PUSH2 0x1B85 DUP5 DUP3 PUSH1 0x20 DUP7 ADD PUSH2 0x1B1E JUMP JUMPDEST SWAP2 POP POP SWAP3 SWAP2 POP POP JUMP JUMPDEST PUSH1 0x0 PUSH1 0x20 DUP3 DUP5 SUB SLT ISZERO PUSH2 0x1BA4 JUMPI PUSH2 0x1BA3 PUSH2 0xE6A JUMP JUMPDEST JUMPDEST PUSH1 0x0 DUP3 ADD MLOAD PUSH8 0xFFFFFFFFFFFFFFFF DUP2 GT ISZERO PUSH2 0x1BC2 JUMPI PUSH2 0x1BC1 PUSH2 0xE6F JUMP JUMPDEST JUMPDEST PUSH2 0x1BCE DUP5 DUP3 DUP6 ADD PUSH2 0x1B60 JUMP JUMPDEST SWAP2 POP POP SWAP3 SWAP2 POP POP JUMP JUMPDEST PUSH1 0x0 DUP2 SWAP1 POP SWAP3 SWAP2 POP POP JUMP JUMPDEST PUSH1 0x0 PUSH2 0x1BED DUP3 PUSH2 0x1A01 JUMP JUMPDEST PUSH2 0x1BF7 DUP2 DUP6 PUSH2 0x1BD7 JUMP JUMPDEST SWAP4 POP PUSH2 0x1C07 DUP2 DUP6 PUSH1 0x20 DUP7 ADD PUSH2 0x1A1D JUMP JUMPDEST DUP1 DUP5 ADD SWAP2 POP POP SWAP3 SWAP2 POP POP JUMP JUMPDEST PUSH1 0x0 PUSH2 0x1C1F DUP3 DUP5 PUSH2 0x1BE2 JUMP JUMPDEST SWAP2 POP DUP2 SWAP1 POP SWAP3 SWAP2 POP POP JUMP JUMPDEST PUSH1 0x0 PUSH1 0x60 DUP3 ADD SWAP1 POP DUP2 DUP2 SUB PUSH1 0x0 DUP4 ADD MSTORE PUSH2 0x1C44 DUP2 DUP7 PUSH2 0x17E5 JUMP JUMPDEST SWAP1 POP DUP2 DUP2 SUB PUSH1 0x20 DUP4 ADD MSTORE PUSH2 0x1C58 DUP2 DUP6 PUSH2 0x18A3 JUMP JUMPDEST SWAP1 POP PUSH2 0x1C67 PUSH1 0x40 DUP4 ADD DUP5 PUSH2 0x14A7 JUMP JUMPDEST SWAP5 SWAP4 POP POP POP POP JUMP JUMPDEST PUSH1 0x0 PUSH1 0x20 DUP3 ADD SWAP1 POP PUSH2 0x1C84 PUSH1 0x0 DUP4 ADD DUP5 PUSH2 0x1498 JUMP JUMPDEST SWAP3 SWAP2 POP POP JUMP JUMPDEST PUSH1 0x0 DUP2 MLOAD SWAP1 POP PUSH2 0x1C99 DUP2 PUSH2 0x1061 JUMP JUMPDEST SWAP3 SWAP2 POP POP JUMP JUMPDEST PUSH1 0x0 PUSH1 0x20 DUP3 DUP5 SUB SLT ISZERO PUSH2 0x1CB5 JUMPI PUSH2 0x1CB4 PUSH2 0xE6A JUMP JUMPDEST JUMPDEST PUSH1 0x0 PUSH2 0x1CC3 DUP5 DUP3 DUP6 ADD PUSH2 0x1C8A JUMP JUMPDEST SWAP2 POP POP SWAP3 SWAP2 POP POP JUMP JUMPDEST PUSH32 0x546F6B656E207472616E7366657246726F6D206661696C656421200000000000 PUSH1 0x0 DUP3 ADD MSTORE POP JUMP JUMPDEST PUSH1 0x0 PUSH2 0x1D02 PUSH1 0x1B DUP4 PUSH2 0x13C6 JUMP JUMPDEST SWAP2 POP PUSH2 0x1D0D DUP3 PUSH2 0x1CCC JUMP JUMPDEST PUSH1 0x20 DUP3 ADD SWAP1 POP SWAP2 SWAP1 POP JUMP JUMPDEST PUSH1 0x0 PUSH1 0x20 DUP3 ADD SWAP1 POP DUP2 DUP2 SUB PUSH1 0x0 DUP4 ADD MSTORE PUSH2 0x1D31 DUP2 PUSH2 0x1CF5 JUMP JUMPDEST SWAP1 POP SWAP2 SWAP1 POP JUMP JUMPDEST PUSH1 0x0 PUSH1 0xC0 DUP3 ADD SWAP1 POP PUSH2 0x1D4D PUSH1 0x0 DUP4 ADD DUP10 PUSH2 0x1498 JUMP JUMPDEST DUP2 DUP2 SUB PUSH1 0x20 DUP4 ADD MSTORE PUSH2 0x1D5F DUP2 DUP9 PUSH2 0x17E5 JUMP JUMPDEST SWAP1 POP DUP2 DUP2 SUB PUSH1 0x40 DUP4 ADD MSTORE PUSH2 0x1D73 DUP2 DUP8 PUSH2 0x18A3 JUMP JUMPDEST SWAP1 POP PUSH2 0x1D82 PUSH1 0x60 DUP4 ADD DUP7 PUSH2 0x14A7 JUMP JUMPDEST PUSH2 0x1D8F PUSH1 0x80 DUP4 ADD DUP6 PUSH2 0x14A7 JUMP JUMPDEST PUSH2 0x1D9C PUSH1 0xA0 DUP4 ADD DUP5 PUSH2 0x1498 JUMP JUMPDEST SWAP8 SWAP7 POP POP POP POP POP POP POP JUMP INVALID LOG2 PUSH5 0x6970667358 0x22 SLT KECCAK256 0xAA EXP 0xD0 0xE3 CREATE 0xB5 DUP16 PUSH25 0x8C59BC8C976F251A09C283B7CC7FADC9307EB6DF749221B464 PUSH20 0x6F6C634300081200330000000000000000000000 "
	},
	"abi": [
		{
			"inputs": [],
			"stateMutability": "payable",
			"type": "constructor"
		},
		{
			"anonymous": false,
			"inputs": [
				{
					"indexed": true,
					"internalType": "uint256",
					"name": "recipientIndex",
					"type": "uint256"
				},
				{
					"indexed": true,
					"internalType": "address",
					"name": "recipient",
					"type": "address"
				},
				{
					"indexed": false,
					"internalType": "uint256",
					"name": "amount",
					"type": "uint256"
				}
			],
			"name": "Erc20BatchTransfer",
			"type": "event"
		},
		{
			"anonymous": false,
			"inputs": [
				{
					"indexed": true,
					"internalType": "bytes",
					"name": "scheduleId",
					"type": "bytes"
				},
				{
					"indexed": false,
					"internalType": "uint256",
					"name": "nextCheckTime",
					"type": "uint256"
				}
			],
			"name": "PriceCheckScheduled",
			"type": "event"
		},
		{
			"anonymous": false,
			"inputs": [
				{
					"indexed": true,
					"internalType": "bytes",
					"name": "scheduleId",
					"type": "bytes"
				},
				{
					"indexed": true,
					"internalType": "address",
					"name": "token",
					"type": "address"
				},
				{
					"indexed": false,
					"internalType": "address[]",
					"name": "recipients",
					"type": "address[]"
				},
				{
					"indexed": false,
					"internalType": "uint256[]",
					"name": "amounts",
					"type": "uint256[]"
				},
				{
					"indexed": false,
					"internalType": "uint256",
					"name": "executionTime",
					"type": "uint256"
				}
			],
			"name": "TransferScheduled",
			"type": "event"
		},
		{
			"stateMutability": "payable",
			"type": "fallback"
		},
		{
			"inputs": [
				{
					"internalType": "address",
					"name": "tokenAddress",
					"type": "address"
				},
				{
					"internalType": "address[]",
					"name": "recipients",
					"type": "address[]"
				},
				{
					"internalType": "uint256[]",
					"name": "amounts",
					"type": "uint256[]"
				},
				{
					"internalType": "uint256",
					"name": "desiredPrice",
					"type": "uint256"
				},
				{
					"internalType": "uint256",
					"name": "interval",
					"type": "uint256"
				},
				{
					"internalType": "address",
					"name": "spender",
					"type": "address"
				}
			],
			"name": "checkPriceandDisperse",
			"outputs": [],
			"stateMutability": "nonpayable",
			"type": "function"
		},
		{
			"inputs": [
				{
					"internalType": "address",
					"name": "tokenAddress",
					"type": "address"
				},
				{
					"internalType": "address[]",
					"name": "recipients",
					"type": "address[]"
				},
				{
					"internalType": "uint256[]",
					"name": "amount",
					"type": "uint256[]"
				}
			],
			"name": "dispersal",
			"outputs": [],
			"stateMutability": "payable",
			"type": "function"
		},
		{
			"inputs": [
				{
					"internalType": "address",
					"name": "tokenAddress",
					"type": "address"
				},
				{
					"internalType": "address[]",
					"name": "recipients",
					"type": "address[]"
				},
				{
					"internalType": "uint256[]",
					"name": "amounts",
					"type": "uint256[]"
				}
			],
			"name": "executeERC20BatchTransfer",
			"outputs": [],
			"stateMutability": "nonpayable",
			"type": "function"
		},
		{
			"inputs": [
				{
					"internalType": "address",
					"name": "tokenAddress",
					"type": "address"
				},
				{
					"internalType": "address[]",
					"name": "recipients",
					"type": "address[]"
				},
				{
					"internalType": "uint256[]",
					"name": "amounts",
					"type": "uint256[]"
				},
				{
					"internalType": "uint256",
					"name": "desiredPrice",
					"type": "uint256"
				},
				{
					"internalType": "uint256",
					"name": "interval",
					"type": "uint256"
				}
			],
			"name": "priceTriggeredDispersal",
			"outputs": [],
			"stateMutability": "payable",
			"type": "function"
		},
		{
			"inputs": [
				{
					"internalType": "address",
					"name": "tokenAddress",
					"type": "address"
				},
				{
					"internalType": "address[]",
					"name": "recipients",
					"type": "address[]"
				},
				{
					"internalType": "uint256[]",
					"name": "amounts",
					"type": "uint256[]"
				},
				{
					"internalType": "uint256",
					"name": "delay",
					"type": "uint256"
				}
			],
			"name": "scheduled_dispersal",
			"outputs": [],
			"stateMutability": "payable",
			"type": "function"
		},
		{
			"stateMutability": "payable",
			"type": "receive"
		}
	],
	"storageLayout": {
		"storage": [
			{
				"astId": 263,
				"contract": "contracts/Test.sol:DisDrop",
				"label": "scheduler",
				"offset": 0,
				"slot": "0",
				"type": "t_contract(ISchedule)74"
			},
			{
				"astId": 269,
				"contract": "contracts/Test.sol:DisDrop",
				"label": "oracle",
				"offset": 0,
				"slot": "1",
				"type": "t_contract(IOracle)11"
			}
		],
		"types": {
			"t_contract(IOracle)11": {
				"encoding": "inplace",
				"label": "contract IOracle",
				"numberOfBytes": "20"
			},
			"t_contract(ISchedule)74": {
				"encoding": "inplace",
				"label": "contract ISchedule",
				"numberOfBytes": "20"
			}
		}
	},
	"web3Deploy": "var disdropContract = new web3.eth.Contract([{\"inputs\":[],\"stateMutability\":\"payable\",\"type\":\"constructor\"},{\"anonymous\":false,\"inputs\":[{\"indexed\":true,\"internalType\":\"uint256\",\"name\":\"recipientIndex\",\"type\":\"uint256\"},{\"indexed\":true,\"internalType\":\"address\",\"name\":\"recipient\",\"type\":\"address\"},{\"indexed\":false,\"internalType\":\"uint256\",\"name\":\"amount\",\"type\":\"uint256\"}],\"name\":\"Erc20BatchTransfer\",\"type\":\"event\"},{\"anonymous\":false,\"inputs\":[{\"indexed\":true,\"internalType\":\"bytes\",\"name\":\"scheduleId\",\"type\":\"bytes\"},{\"indexed\":false,\"internalType\":\"uint256\",\"name\":\"nextCheckTime\",\"type\":\"uint256\"}],\"name\":\"PriceCheckScheduled\",\"type\":\"event\"},{\"anonymous\":false,\"inputs\":[{\"indexed\":true,\"internalType\":\"bytes\",\"name\":\"scheduleId\",\"type\":\"bytes\"},{\"indexed\":true,\"internalType\":\"address\",\"name\":\"token\",\"type\":\"address\"},{\"indexed\":false,\"internalType\":\"address[]\",\"name\":\"recipients\",\"type\":\"address[]\"},{\"indexed\":false,\"internalType\":\"uint256[]\",\"name\":\"amounts\",\"type\":\"uint256[]\"},{\"indexed\":false,\"internalType\":\"uint256\",\"name\":\"executionTime\",\"type\":\"uint256\"}],\"name\":\"TransferScheduled\",\"type\":\"event\"},{\"stateMutability\":\"payable\",\"type\":\"fallback\"},{\"inputs\":[{\"internalType\":\"address\",\"name\":\"tokenAddress\",\"type\":\"address\"},{\"internalType\":\"address[]\",\"name\":\"recipients\",\"type\":\"address[]\"},{\"internalType\":\"uint256[]\",\"name\":\"amounts\",\"type\":\"uint256[]\"},{\"internalType\":\"uint256\",\"name\":\"desiredPrice\",\"type\":\"uint256\"},{\"internalType\":\"uint256\",\"name\":\"interval\",\"type\":\"uint256\"},{\"internalType\":\"address\",\"name\":\"spender\",\"type\":\"address\"}],\"name\":\"checkPriceandDisperse\",\"outputs\":[],\"stateMutability\":\"nonpayable\",\"type\":\"function\"},{\"inputs\":[{\"internalType\":\"address\",\"name\":\"tokenAddress\",\"type\":\"address\"},{\"internalType\":\"address[]\",\"name\":\"recipients\",\"type\":\"address[]\"},{\"internalType\":\"uint256[]\",\"name\":\"amount\",\"type\":\"uint256[]\"}],\"name\":\"dispersal\",\"outputs\":[],\"stateMutability\":\"payable\",\"type\":\"function\"},{\"inputs\":[{\"internalType\":\"address\",\"name\":\"tokenAddress\",\"type\":\"address\"},{\"internalType\":\"address[]\",\"name\":\"recipients\",\"type\":\"address[]\"},{\"internalType\":\"uint256[]\",\"name\":\"amounts\",\"type\":\"uint256[]\"}],\"name\":\"executeERC20BatchTransfer\",\"outputs\":[],\"stateMutability\":\"nonpayable\",\"type\":\"function\"},{\"inputs\":[{\"internalType\":\"address\",\"name\":\"tokenAddress\",\"type\":\"address\"},{\"internalType\":\"address[]\",\"name\":\"recipients\",\"type\":\"address[]\"},{\"internalType\":\"uint256[]\",\"name\":\"amounts\",\"type\":\"uint256[]\"},{\"internalType\":\"uint256\",\"name\":\"desiredPrice\",\"type\":\"uint256\"},{\"internalType\":\"uint256\",\"name\":\"interval\",\"type\":\"uint256\"}],\"name\":\"priceTriggeredDispersal\",\"outputs\":[],\"stateMutability\":\"payable\",\"type\":\"function\"},{\"inputs\":[{\"internalType\":\"address\",\"name\":\"tokenAddress\",\"type\":\"address\"},{\"internalType\":\"address[]\",\"name\":\"recipients\",\"type\":\"address[]\"},{\"internalType\":\"uint256[]\",\"name\":\"amounts\",\"type\":\"uint256[]\"},{\"internalType\":\"uint256\",\"name\":\"delay\",\"type\":\"uint256\"}],\"name\":\"scheduled_dispersal\",\"outputs\":[],\"stateMutability\":\"payable\",\"type\":\"function\"},{\"stateMutability\":\"payable\",\"type\":\"receive\"}]);\nvar disdrop = disdropContract.deploy({\n     data: '0x60806040526108026000806101000a81548173ffffffffffffffffffffffffffffffffffffffff021916908373ffffffffffffffffffffffffffffffffffffffff160217905550610801600160006101000a81548173ffffffffffffffffffffffffffffffffffffffff021916908373ffffffffffffffffffffffffffffffffffffffff160217905550611ddd806100986000396000f3fe60806040526004361061004e5760003560e01c806346ba5fed146100575780635b93f50714610080578063ab54b1ba1461009c578063ed44b388146100c5578063f2b0244f146100e157610055565b3661005557005b005b34801561006357600080fd5b5061007e60048036038101906100799190611124565b6100fd565b005b61009a600480360381019061009591906111af565b6102e0565b005b3480156100a857600080fd5b506100c360048036038101906100be919061124e565b6105fa565b005b6100df60048036038101906100da9190611124565b6106cf565b005b6100fb60048036038101906100f69190611313565b6109bb565b005b60008390508151835114610146576040517f08c379a000000000000000000000000000000000000000000000000000000000815260040161013d90611449565b60405180910390fd5b60005b83518110156102d9578173ffffffffffffffffffffffffffffffffffffffff1663a9059cbb85838151811061018157610180611469565b5b602002602001015185848151811061019c5761019b611469565b5b60200260200101516040518363ffffffff1660e01b81526004016101c19291906114b6565b6020604051808303816000875af11580156101e0573d6000803e3d6000fd5b505050506040513d601f19601f820116820180604052508101906102049190611517565b610243576040517f08c379a000000000000000000000000000000000000000000000000000000000815260040161023a90611590565b60405180910390fd5b83818151811061025657610255611469565b5b602002602001015173ffffffffffffffffffffffffffffffffffffffff16817fb9471439bd4c23f19d2b486548fa6061ab17e1da9815f325f2a2b29f22e715e38584815181106102a9576102a8611469565b5b60200260200101516040516102be91906115b0565b60405180910390a380806102d1906115fa565b915050610149565b5050505050565b60008490508251845114610329576040517f08c379a00000000000000000000000000000000000000000000000000000000081526004016103209061168e565b60405180910390fd5b6000805b84518110156103715784818151811061034957610348611469565b5b60200260200101518261035c91906116ae565b91508080610369906115fa565b91505061032d565b508173ffffffffffffffffffffffffffffffffffffffff166323b872dd3330846040518463ffffffff1660e01b81526004016103af939291906116e2565b6020604051808303816000875af11580156103ce573d6000803e3d6000fd5b505050506040513d601f19601f820116820180604052508101906103f29190611517565b610431576040517f08c379a000000000000000000000000000000000000000000000000000000000815260040161042890611765565b60405180910390fd5b600086868660405160240161044893929190611901565b6040516020818303038152906040527f46ba5fed000000000000000000000000000000000000000000000000000000007bffffffffffffffffffffffffffffffffffffffffffffffffffffffff19166020820180517bffffffffffffffffffffffffffffffffffffffffffffffffffffffff8381831617835250505050905060008060009054906101000a900473ffffffffffffffffffffffffffffffffffffffff1673ffffffffffffffffffffffffffffffffffffffff1663168d560d30600062200b2061fa008a886040518763ffffffff1660e01b815260040161053396959493929190611a80565b6000604051808303816000875af1158015610552573d6000803e3d6000fd5b505050506040513d6000823e3d601f19601f8201168201806040525081019061057b9190611b8e565b90508773ffffffffffffffffffffffffffffffffffffffff16816040516105a29190611c13565b60405180910390207fc9c9afe41dd5e3a9438dd88814edcb9c8089a9e980f48b14414eda3d6d3d0e9a898989426105d991906116ae565b6040516105e893929190611c2a565b60405180910390a35050505050505050565b60008690506000600160009054906101000a900473ffffffffffffffffffffffffffffffffffffffff1673ffffffffffffffffffffffffffffffffffffffff166341976e09836040518263ffffffff1660e01b815260040161065c9190611c6f565b602060405180830381865afa158015610679573d6000803e3d6000fd5b505050506040513d601f19601f8201168201806040525081019061069d9190611c9f565b90508481036106b7576106b288888886610c34565b6106c5565b6106c488888888886109bb565b5b5050505050505050565b60008390508151835114610718576040517f08c379a000000000000000000000000000000000000000000000000000000000815260040161070f9061168e565b60405180910390fd5b6000805b84518110156107605783818151811061073857610737611469565b5b60200260200101518261074b91906116ae565b91508080610758906115fa565b91505061071c565b508173ffffffffffffffffffffffffffffffffffffffff166323b872dd3330846040518463ffffffff1660e01b815260040161079e939291906116e2565b6020604051808303816000875af11580156107bd573d6000803e3d6000fd5b505050506040513d601f19601f820116820180604052508101906107e19190611517565b610820576040517f08c379a000000000000000000000000000000000000000000000000000000000815260040161081790611d18565b60405180910390fd5b60005b84518110156109b3578273ffffffffffffffffffffffffffffffffffffffff1663a9059cbb86838151811061085b5761085a611469565b5b602002602001015186848151811061087657610875611469565b5b60200260200101516040518363ffffffff1660e01b815260040161089b9291906114b6565b6020604051808303816000875af11580156108ba573d6000803e3d6000fd5b505050506040513d601f19601f820116820180604052508101906108de9190611517565b61091d576040517f08c379a000000000000000000000000000000000000000000000000000000000815260040161091490611590565b60405180910390fd5b8481815181106109305761092f611469565b5b602002602001015173ffffffffffffffffffffffffffffffffffffffff16817fb9471439bd4c23f19d2b486548fa6061ab17e1da9815f325f2a2b29f22e715e386848151811061098357610982611469565b5b602002602001015160405161099891906115b0565b60405180910390a380806109ab906115fa565b915050610823565b505050505050565b600085905060003390506000600160009054906101000a900473ffffffffffffffffffffffffffffffffffffffff1673ffffffffffffffffffffffffffffffffffffffff166341976e09846040518263ffffffff1660e01b8152600401610a229190611c6f565b602060405180830381865afa158015610a3f573d6000803e3d6000fd5b505050506040513d601f19601f82011682018060405250810190610a639190611c9f565b9050848103610a7d57610a7888888885610c34565b610c2a565b6000888888888887604051602401610a9a96959493929190611d38565b6040516020818303038152906040527fab54b1ba000000000000000000000000000000000000000000000000000000007bffffffffffffffffffffffffffffffffffffffffffffffffffffffff19166020820180517bffffffffffffffffffffffffffffffffffffffffffffffffffffffff8381831617835250505050905060008060009054906101000a900473ffffffffffffffffffffffffffffffffffffffff1673ffffffffffffffffffffffffffffffffffffffff1663168d560d30600062200b2061fa008b886040518763ffffffff1660e01b8152600401610b8596959493929190611a80565b6000604051808303816000875af1158015610ba4573d6000803e3d6000fd5b505050506040513d6000823e3d601f19601f82011682018060405250810190610bcd9190611b8e565b905080604051610bdd9190611c13565b60405180910390207f9e989ccc644aff3dccb44d63c0125cf7c49f64c9631016543486e7dfc72187c78742610c1291906116ae565b604051610c1f91906115b0565b60405180910390a250505b5050505050505050565b60008490508251845114610c7d576040517f08c379a0000000000000000000000000000000000000000000000000000000008152600401610c7490611449565b60405180910390fd5b6000805b8451811015610cc557848181518110610c9d57610c9c611469565b5b602002602001015182610cb091906116ae565b91508080610cbd906115fa565b915050610c81565b508173ffffffffffffffffffffffffffffffffffffffff166323b872dd8430846040518463ffffffff1660e01b8152600401610d03939291906116e2565b6020604051808303816000875af1158015610d22573d6000803e3d6000fd5b505050506040513d601f19601f82011682018060405250810190610d469190611517565b610d85576040517f08c379a0000000000000000000000000000000000000000000000000000000008152600401610d7c90611590565b60405180910390fd5b60005b8551811015610e57578273ffffffffffffffffffffffffffffffffffffffff1663a9059cbb878381518110610dc057610dbf611469565b5b6020026020010151878481518110610ddb57610dda611469565b5b60200260200101516040518363ffffffff1660e01b8152600401610e009291906114b6565b6020604051808303816000875af1158015610e1f573d6000803e3d6000fd5b505050506040513d601f19601f82011682018060405250810190610e439190611517565b508080610e4f906115fa565b915050610d88565b50505050505050565b6000604051905090565b600080fd5b600080fd5b600073ffffffffffffffffffffffffffffffffffffffff82169050919050565b6000610e9f82610e74565b9050919050565b610eaf81610e94565b8114610eba57600080fd5b50565b600081359050610ecc81610ea6565b92915050565b600080fd5b6000601f19601f8301169050919050565b7f4e487b7100000000000000000000000000000000000000000000000000000000600052604160045260246000fd5b610f2082610ed7565b810181811067ffffffffffffffff82111715610f3f57610f3e610ee8565b5b80604052505050565b6000610f52610e60565b9050610f5e8282610f17565b919050565b600067ffffffffffffffff821115610f7e57610f7d610ee8565b5b602082029050602081019050919050565b600080fd5b6000610fa7610fa284610f63565b610f48565b90508083825260208201905060208402830185811115610fca57610fc9610f8f565b5b835b81811015610ff35780610fdf8882610ebd565b845260208401935050602081019050610fcc565b5050509392505050565b600082601f83011261101257611011610ed2565b5b8135611022848260208601610f94565b91505092915050565b600067ffffffffffffffff82111561104657611045610ee8565b5b602082029050602081019050919050565b6000819050919050565b61106a81611057565b811461107557600080fd5b50565b60008135905061108781611061565b92915050565b60006110a061109b8461102b565b610f48565b905080838252602082019050602084028301858111156110c3576110c2610f8f565b5b835b818110156110ec57806110d88882611078565b8452602084019350506020810190506110c5565b5050509392505050565b600082601f83011261110b5761110a610ed2565b5b813561111b84826020860161108d565b91505092915050565b60008060006060848603121561113d5761113c610e6a565b5b600061114b86828701610ebd565b935050602084013567ffffffffffffffff81111561116c5761116b610e6f565b5b61117886828701610ffd565b925050604084013567ffffffffffffffff81111561119957611198610e6f565b5b6111a5868287016110f6565b9150509250925092565b600080600080608085870312156111c9576111c8610e6a565b5b60006111d787828801610ebd565b945050602085013567ffffffffffffffff8111156111f8576111f7610e6f565b5b61120487828801610ffd565b935050604085013567ffffffffffffffff81111561122557611224610e6f565b5b611231878288016110f6565b925050606061124287828801611078565b91505092959194509250565b60008060008060008060c0878903121561126b5761126a610e6a565b5b600061127989828a01610ebd565b965050602087013567ffffffffffffffff81111561129a57611299610e6f565b5b6112a689828a01610ffd565b955050604087013567ffffffffffffffff8111156112c7576112c6610e6f565b5b6112d389828a016110f6565b94505060606112e489828a01611078565b93505060806112f589828a01611078565b92505060a061130689828a01610ebd565b9150509295509295509295565b600080600080600060a0868803121561132f5761132e610e6a565b5b600061133d88828901610ebd565b955050602086013567ffffffffffffffff81111561135e5761135d610e6f565b5b61136a88828901610ffd565b945050604086013567ffffffffffffffff81111561138b5761138a610e6f565b5b611397888289016110f6565b93505060606113a888828901611078565b92505060806113b988828901611078565b9150509295509295909350565b600082825260208201905092915050565b7f4d69736d61746368656420726563697069656e747320616e6420616d6f756e7460008201527f7300000000000000000000000000000000000000000000000000000000000000602082015250565b60006114336021836113c6565b915061143e826113d7565b604082019050919050565b6000602082019050818103600083015261146281611426565b9050919050565b7f4e487b7100000000000000000000000000000000000000000000000000000000600052603260045260246000fd5b6114a181610e94565b82525050565b6114b081611057565b82525050565b60006040820190506114cb6000830185611498565b6114d860208301846114a7565b9392505050565b60008115159050919050565b6114f4816114df565b81146114ff57600080fd5b50565b600081519050611511816114eb565b92915050565b60006020828403121561152d5761152c610e6a565b5b600061153b84828501611502565b91505092915050565b7f546f6b656e207472616e73666572206661696c65640000000000000000000000600082015250565b600061157a6015836113c6565b915061158582611544565b602082019050919050565b600060208201905081810360008301526115a98161156d565b9050919050565b60006020820190506115c560008301846114a7565b92915050565b7f4e487b7100000000000000000000000000000000000000000000000000000000600052601160045260246000fd5b600061160582611057565b91507fffffffffffffffffffffffffffffffffffffffffffffffffffffffffffffffff8203611637576116366115cb565b5b600182019050919050565b7f4769766520696e70757473206163636f7264696e676c79210000000000000000600082015250565b60006116786018836113c6565b915061168382611642565b602082019050919050565b600060208201905081810360008301526116a78161166b565b9050919050565b60006116b982611057565b91506116c483611057565b92508282019050808211156116dc576116db6115cb565b5b92915050565b60006060820190506116f76000830186611498565b6117046020830185611498565b61171160408301846114a7565b949350505050565b7f546f6b656e207472616e73666572206661696c65642100000000000000000000600082015250565b600061174f6016836113c6565b915061175a82611719565b602082019050919050565b6000602082019050818103600083015261177e81611742565b9050919050565b600081519050919050565b600082825260208201905092915050565b6000819050602082019050919050565b6117ba81610e94565b82525050565b60006117cc83836117b1565b60208301905092915050565b6000602082019050919050565b60006117f082611785565b6117fa8185611790565b9350611805836117a1565b8060005b8381101561183657815161181d88826117c0565b9750611828836117d8565b925050600181019050611809565b5085935050505092915050565b600081519050919050565b600082825260208201905092915050565b6000819050602082019050919050565b61187881611057565b82525050565b600061188a838361186f565b60208301905092915050565b6000602082019050919050565b60006118ae82611843565b6118b8818561184e565b93506118c38361185f565b8060005b838110156118f45781516118db888261187e565b97506118e683611896565b9250506001810190506118c7565b5085935050505092915050565b60006060820190506119166000830186611498565b818103602083015261192881856117e5565b9050818103604083015261193c81846118a3565b9050949350505050565b6000819050919050565b6000819050919050565b600061197561197061196b84611946565b611950565b611057565b9050919050565b6119858161195a565b82525050565b6000819050919050565b60006119b06119ab6119a68461198b565b611950565b611057565b9050919050565b6119c081611995565b82525050565b6000819050919050565b60006119eb6119e66119e1846119c6565b611950565b611057565b9050919050565b6119fb816119d0565b82525050565b600081519050919050565b600082825260208201905092915050565b60005b83811015611a3b578082015181840152602081019050611a20565b60008484015250505050565b6000611a5282611a01565b611a5c8185611a0c565b9350611a6c818560208601611a1d565b611a7581610ed7565b840191505092915050565b600060c082019050611a956000830189611498565b611aa2602083018861197c565b611aaf60408301876119b7565b611abc60608301866119f2565b611ac960808301856114a7565b81810360a0830152611adb8184611a47565b9050979650505050505050565b600080fd5b600067ffffffffffffffff821115611b0857611b07610ee8565b5b611b1182610ed7565b9050602081019050919050565b6000611b31611b2c84611aed565b610f48565b905082815260208101848484011115611b4d57611b4c611ae8565b5b611b58848285611a1d565b509392505050565b600082601f830112611b7557611b74610ed2565b5b8151611b85848260208601611b1e565b91505092915050565b600060208284031215611ba457611ba3610e6a565b5b600082015167ffffffffffffffff811115611bc257611bc1610e6f565b5b611bce84828501611b60565b91505092915050565b600081905092915050565b6000611bed82611a01565b611bf78185611bd7565b9350611c07818560208601611a1d565b80840191505092915050565b6000611c1f8284611be2565b915081905092915050565b60006060820190508181036000830152611c4481866117e5565b90508181036020830152611c5881856118a3565b9050611c6760408301846114a7565b949350505050565b6000602082019050611c846000830184611498565b92915050565b600081519050611c9981611061565b92915050565b600060208284031215611cb557611cb4610e6a565b5b6000611cc384828501611c8a565b91505092915050565b7f546f6b656e207472616e7366657246726f6d206661696c656421200000000000600082015250565b6000611d02601b836113c6565b9150611d0d82611ccc565b602082019050919050565b60006020820190508181036000830152611d3181611cf5565b9050919050565b600060c082019050611d4d6000830189611498565b8181036020830152611d5f81886117e5565b90508181036040830152611d7381876118a3565b9050611d8260608301866114a7565b611d8f60808301856114a7565b611d9c60a0830184611498565b97965050505050505056fea2646970667358221220aa0ad0e3f0b58f788c59bc8c976f251a09c283b7cc7fadc9307eb6df749221b464736f6c63430008120033', \n     arguments: [\n     ]\n}).send({\n     from: web3.eth.accounts[0], \n     gas: '4700000'\n   }, function (e, contract){\n    console.log(e, contract);\n    if (typeof contract.address !== 'undefined') {\n         console.log('Contract mined! address: ' + contract.address + ' transactionHash: ' + contract.transactionHash);\n    }\n })",
	"functionHashes": {
		"ab54b1ba": "checkPriceandDisperse(address,address[],uint256[],uint256,uint256,address)",
		"ed44b388": "dispersal(address,address[],uint256[])",
		"46ba5fed": "executeERC20BatchTransfer(address,address[],uint256[])",
		"f2b0244f": "priceTriggeredDispersal(address,address[],uint256[],uint256,uint256)",
		"5b93f507": "scheduled_dispersal(address,address[],uint256[],uint256)"
	},
	"gasEstimates": {
		"Creation": {
			"codeDepositCost": "1529000",
			"executionCost": "50106",
			"totalCost": "1579106"
		},
		"External": {
			"": "173",
			"checkPriceandDisperse(address,address[],uint256[],uint256,uint256,address)": "infinite",
			"dispersal(address,address[],uint256[])": "infinite",
			"executeERC20BatchTransfer(address,address[],uint256[])": "infinite",
			"priceTriggeredDispersal(address,address[],uint256[],uint256,uint256)": "infinite",
			"scheduled_dispersal(address,address[],uint256[],uint256)": "infinite"
		},
		"Internal": {
			"executeBatchTransfer(address,address[] memory,uint256[] memory,address)": "infinite"
		}
	},
	"devdoc": {
		"kind": "dev",
		"methods": {},
		"version": 1
	},
	"userdoc": {
		"kind": "user",
		"methods": {},
		"version": 1
	},
	"Runtime Bytecode": {
		"immutableReferences": {},
		"linkReferences": {},
		"object": "60806040526004361061004e5760003560e01c806346ba5fed146100575780635b93f50714610080578063ab54b1ba1461009c578063ed44b388146100c5578063f2b0244f146100e157610055565b3661005557005b005b34801561006357600080fd5b5061007e60048036038101906100799190611124565b6100fd565b005b61009a600480360381019061009591906111af565b6102e0565b005b3480156100a857600080fd5b506100c360048036038101906100be919061124e565b6105fa565b005b6100df60048036038101906100da9190611124565b6106cf565b005b6100fb60048036038101906100f69190611313565b6109bb565b005b60008390508151835114610146576040517f08c379a000000000000000000000000000000000000000000000000000000000815260040161013d90611449565b60405180910390fd5b60005b83518110156102d9578173ffffffffffffffffffffffffffffffffffffffff1663a9059cbb85838151811061018157610180611469565b5b602002602001015185848151811061019c5761019b611469565b5b60200260200101516040518363ffffffff1660e01b81526004016101c19291906114b6565b6020604051808303816000875af11580156101e0573d6000803e3d6000fd5b505050506040513d601f19601f820116820180604052508101906102049190611517565b610243576040517f08c379a000000000000000000000000000000000000000000000000000000000815260040161023a90611590565b60405180910390fd5b83818151811061025657610255611469565b5b602002602001015173ffffffffffffffffffffffffffffffffffffffff16817fb9471439bd4c23f19d2b486548fa6061ab17e1da9815f325f2a2b29f22e715e38584815181106102a9576102a8611469565b5b60200260200101516040516102be91906115b0565b60405180910390a380806102d1906115fa565b915050610149565b5050505050565b60008490508251845114610329576040517f08c379a00000000000000000000000000000000000000000000000000000000081526004016103209061168e565b60405180910390fd5b6000805b84518110156103715784818151811061034957610348611469565b5b60200260200101518261035c91906116ae565b91508080610369906115fa565b91505061032d565b508173ffffffffffffffffffffffffffffffffffffffff166323b872dd3330846040518463ffffffff1660e01b81526004016103af939291906116e2565b6020604051808303816000875af11580156103ce573d6000803e3d6000fd5b505050506040513d601f19601f820116820180604052508101906103f29190611517565b610431576040517f08c379a000000000000000000000000000000000000000000000000000000000815260040161042890611765565b60405180910390fd5b600086868660405160240161044893929190611901565b6040516020818303038152906040527f46ba5fed000000000000000000000000000000000000000000000000000000007bffffffffffffffffffffffffffffffffffffffffffffffffffffffff19166020820180517bffffffffffffffffffffffffffffffffffffffffffffffffffffffff8381831617835250505050905060008060009054906101000a900473ffffffffffffffffffffffffffffffffffffffff1673ffffffffffffffffffffffffffffffffffffffff1663168d560d30600062200b2061fa008a886040518763ffffffff1660e01b815260040161053396959493929190611a80565b6000604051808303816000875af1158015610552573d6000803e3d6000fd5b505050506040513d6000823e3d601f19601f8201168201806040525081019061057b9190611b8e565b90508773ffffffffffffffffffffffffffffffffffffffff16816040516105a29190611c13565b60405180910390207fc9c9afe41dd5e3a9438dd88814edcb9c8089a9e980f48b14414eda3d6d3d0e9a898989426105d991906116ae565b6040516105e893929190611c2a565b60405180910390a35050505050505050565b60008690506000600160009054906101000a900473ffffffffffffffffffffffffffffffffffffffff1673ffffffffffffffffffffffffffffffffffffffff166341976e09836040518263ffffffff1660e01b815260040161065c9190611c6f565b602060405180830381865afa158015610679573d6000803e3d6000fd5b505050506040513d601f19601f8201168201806040525081019061069d9190611c9f565b90508481036106b7576106b288888886610c34565b6106c5565b6106c488888888886109bb565b5b5050505050505050565b60008390508151835114610718576040517f08c379a000000000000000000000000000000000000000000000000000000000815260040161070f9061168e565b60405180910390fd5b6000805b84518110156107605783818151811061073857610737611469565b5b60200260200101518261074b91906116ae565b91508080610758906115fa565b91505061071c565b508173ffffffffffffffffffffffffffffffffffffffff166323b872dd3330846040518463ffffffff1660e01b815260040161079e939291906116e2565b6020604051808303816000875af11580156107bd573d6000803e3d6000fd5b505050506040513d601f19601f820116820180604052508101906107e19190611517565b610820576040517f08c379a000000000000000000000000000000000000000000000000000000000815260040161081790611d18565b60405180910390fd5b60005b84518110156109b3578273ffffffffffffffffffffffffffffffffffffffff1663a9059cbb86838151811061085b5761085a611469565b5b602002602001015186848151811061087657610875611469565b5b60200260200101516040518363ffffffff1660e01b815260040161089b9291906114b6565b6020604051808303816000875af11580156108ba573d6000803e3d6000fd5b505050506040513d601f19601f820116820180604052508101906108de9190611517565b61091d576040517f08c379a000000000000000000000000000000000000000000000000000000000815260040161091490611590565b60405180910390fd5b8481815181106109305761092f611469565b5b602002602001015173ffffffffffffffffffffffffffffffffffffffff16817fb9471439bd4c23f19d2b486548fa6061ab17e1da9815f325f2a2b29f22e715e386848151811061098357610982611469565b5b602002602001015160405161099891906115b0565b60405180910390a380806109ab906115fa565b915050610823565b505050505050565b600085905060003390506000600160009054906101000a900473ffffffffffffffffffffffffffffffffffffffff1673ffffffffffffffffffffffffffffffffffffffff166341976e09846040518263ffffffff1660e01b8152600401610a229190611c6f565b602060405180830381865afa158015610a3f573d6000803e3d6000fd5b505050506040513d601f19601f82011682018060405250810190610a639190611c9f565b9050848103610a7d57610a7888888885610c34565b610c2a565b6000888888888887604051602401610a9a96959493929190611d38565b6040516020818303038152906040527fab54b1ba000000000000000000000000000000000000000000000000000000007bffffffffffffffffffffffffffffffffffffffffffffffffffffffff19166020820180517bffffffffffffffffffffffffffffffffffffffffffffffffffffffff8381831617835250505050905060008060009054906101000a900473ffffffffffffffffffffffffffffffffffffffff1673ffffffffffffffffffffffffffffffffffffffff1663168d560d30600062200b2061fa008b886040518763ffffffff1660e01b8152600401610b8596959493929190611a80565b6000604051808303816000875af1158015610ba4573d6000803e3d6000fd5b505050506040513d6000823e3d601f19601f82011682018060405250810190610bcd9190611b8e565b905080604051610bdd9190611c13565b60405180910390207f9e989ccc644aff3dccb44d63c0125cf7c49f64c9631016543486e7dfc72187c78742610c1291906116ae565b604051610c1f91906115b0565b60405180910390a250505b5050505050505050565b60008490508251845114610c7d576040517f08c379a0000000000000000000000000000000000000000000000000000000008152600401610c7490611449565b60405180910390fd5b6000805b8451811015610cc557848181518110610c9d57610c9c611469565b5b602002602001015182610cb091906116ae565b91508080610cbd906115fa565b915050610c81565b508173ffffffffffffffffffffffffffffffffffffffff166323b872dd8430846040518463ffffffff1660e01b8152600401610d03939291906116e2565b6020604051808303816000875af1158015610d22573d6000803e3d6000fd5b505050506040513d601f19601f82011682018060405250810190610d469190611517565b610d85576040517f08c379a0000000000000000000000000000000000000000000000000000000008152600401610d7c90611590565b60405180910390fd5b60005b8551811015610e57578273ffffffffffffffffffffffffffffffffffffffff1663a9059cbb878381518110610dc057610dbf611469565b5b6020026020010151878481518110610ddb57610dda611469565b5b60200260200101516040518363ffffffff1660e01b8152600401610e009291906114b6565b6020604051808303816000875af1158015610e1f573d6000803e3d6000fd5b505050506040513d601f19601f82011682018060405250810190610e439190611517565b508080610e4f906115fa565b915050610d88565b50505050505050565b6000604051905090565b600080fd5b600080fd5b600073ffffffffffffffffffffffffffffffffffffffff82169050919050565b6000610e9f82610e74565b9050919050565b610eaf81610e94565b8114610eba57600080fd5b50565b600081359050610ecc81610ea6565b92915050565b600080fd5b6000601f19601f8301169050919050565b7f4e487b7100000000000000000000000000000000000000000000000000000000600052604160045260246000fd5b610f2082610ed7565b810181811067ffffffffffffffff82111715610f3f57610f3e610ee8565b5b80604052505050565b6000610f52610e60565b9050610f5e8282610f17565b919050565b600067ffffffffffffffff821115610f7e57610f7d610ee8565b5b602082029050602081019050919050565b600080fd5b6000610fa7610fa284610f63565b610f48565b90508083825260208201905060208402830185811115610fca57610fc9610f8f565b5b835b81811015610ff35780610fdf8882610ebd565b845260208401935050602081019050610fcc565b5050509392505050565b600082601f83011261101257611011610ed2565b5b8135611022848260208601610f94565b91505092915050565b600067ffffffffffffffff82111561104657611045610ee8565b5b602082029050602081019050919050565b6000819050919050565b61106a81611057565b811461107557600080fd5b50565b60008135905061108781611061565b92915050565b60006110a061109b8461102b565b610f48565b905080838252602082019050602084028301858111156110c3576110c2610f8f565b5b835b818110156110ec57806110d88882611078565b8452602084019350506020810190506110c5565b5050509392505050565b600082601f83011261110b5761110a610ed2565b5b813561111b84826020860161108d565b91505092915050565b60008060006060848603121561113d5761113c610e6a565b5b600061114b86828701610ebd565b935050602084013567ffffffffffffffff81111561116c5761116b610e6f565b5b61117886828701610ffd565b925050604084013567ffffffffffffffff81111561119957611198610e6f565b5b6111a5868287016110f6565b9150509250925092565b600080600080608085870312156111c9576111c8610e6a565b5b60006111d787828801610ebd565b945050602085013567ffffffffffffffff8111156111f8576111f7610e6f565b5b61120487828801610ffd565b935050604085013567ffffffffffffffff81111561122557611224610e6f565b5b611231878288016110f6565b925050606061124287828801611078565b91505092959194509250565b60008060008060008060c0878903121561126b5761126a610e6a565b5b600061127989828a01610ebd565b965050602087013567ffffffffffffffff81111561129a57611299610e6f565b5b6112a689828a01610ffd565b955050604087013567ffffffffffffffff8111156112c7576112c6610e6f565b5b6112d389828a016110f6565b94505060606112e489828a01611078565b93505060806112f589828a01611078565b92505060a061130689828a01610ebd565b9150509295509295509295565b600080600080600060a0868803121561132f5761132e610e6a565b5b600061133d88828901610ebd565b955050602086013567ffffffffffffffff81111561135e5761135d610e6f565b5b61136a88828901610ffd565b945050604086013567ffffffffffffffff81111561138b5761138a610e6f565b5b611397888289016110f6565b93505060606113a888828901611078565b92505060806113b988828901611078565b9150509295509295909350565b600082825260208201905092915050565b7f4d69736d61746368656420726563697069656e747320616e6420616d6f756e7460008201527f7300000000000000000000000000000000000000000000000000000000000000602082015250565b60006114336021836113c6565b915061143e826113d7565b604082019050919050565b6000602082019050818103600083015261146281611426565b9050919050565b7f4e487b7100000000000000000000000000000000000000000000000000000000600052603260045260246000fd5b6114a181610e94565b82525050565b6114b081611057565b82525050565b60006040820190506114cb6000830185611498565b6114d860208301846114a7565b9392505050565b60008115159050919050565b6114f4816114df565b81146114ff57600080fd5b50565b600081519050611511816114eb565b92915050565b60006020828403121561152d5761152c610e6a565b5b600061153b84828501611502565b91505092915050565b7f546f6b656e207472616e73666572206661696c65640000000000000000000000600082015250565b600061157a6015836113c6565b915061158582611544565b602082019050919050565b600060208201905081810360008301526115a98161156d565b9050919050565b60006020820190506115c560008301846114a7565b92915050565b7f4e487b7100000000000000000000000000000000000000000000000000000000600052601160045260246000fd5b600061160582611057565b91507fffffffffffffffffffffffffffffffffffffffffffffffffffffffffffffffff8203611637576116366115cb565b5b600182019050919050565b7f4769766520696e70757473206163636f7264696e676c79210000000000000000600082015250565b60006116786018836113c6565b915061168382611642565b602082019050919050565b600060208201905081810360008301526116a78161166b565b9050919050565b60006116b982611057565b91506116c483611057565b92508282019050808211156116dc576116db6115cb565b5b92915050565b60006060820190506116f76000830186611498565b6117046020830185611498565b61171160408301846114a7565b949350505050565b7f546f6b656e207472616e73666572206661696c65642100000000000000000000600082015250565b600061174f6016836113c6565b915061175a82611719565b602082019050919050565b6000602082019050818103600083015261177e81611742565b9050919050565b600081519050919050565b600082825260208201905092915050565b6000819050602082019050919050565b6117ba81610e94565b82525050565b60006117cc83836117b1565b60208301905092915050565b6000602082019050919050565b60006117f082611785565b6117fa8185611790565b9350611805836117a1565b8060005b8381101561183657815161181d88826117c0565b9750611828836117d8565b925050600181019050611809565b5085935050505092915050565b600081519050919050565b600082825260208201905092915050565b6000819050602082019050919050565b61187881611057565b82525050565b600061188a838361186f565b60208301905092915050565b6000602082019050919050565b60006118ae82611843565b6118b8818561184e565b93506118c38361185f565b8060005b838110156118f45781516118db888261187e565b97506118e683611896565b9250506001810190506118c7565b5085935050505092915050565b60006060820190506119166000830186611498565b818103602083015261192881856117e5565b9050818103604083015261193c81846118a3565b9050949350505050565b6000819050919050565b6000819050919050565b600061197561197061196b84611946565b611950565b611057565b9050919050565b6119858161195a565b82525050565b6000819050919050565b60006119b06119ab6119a68461198b565b611950565b611057565b9050919050565b6119c081611995565b82525050565b6000819050919050565b60006119eb6119e66119e1846119c6565b611950565b611057565b9050919050565b6119fb816119d0565b82525050565b600081519050919050565b600082825260208201905092915050565b60005b83811015611a3b578082015181840152602081019050611a20565b60008484015250505050565b6000611a5282611a01565b611a5c8185611a0c565b9350611a6c818560208601611a1d565b611a7581610ed7565b840191505092915050565b600060c082019050611a956000830189611498565b611aa2602083018861197c565b611aaf60408301876119b7565b611abc60608301866119f2565b611ac960808301856114a7565b81810360a0830152611adb8184611a47565b9050979650505050505050565b600080fd5b600067ffffffffffffffff821115611b0857611b07610ee8565b5b611b1182610ed7565b9050602081019050919050565b6000611b31611b2c84611aed565b610f48565b905082815260208101848484011115611b4d57611b4c611ae8565b5b611b58848285611a1d565b509392505050565b600082601f830112611b7557611b74610ed2565b5b8151611b85848260208601611b1e565b91505092915050565b600060208284031215611ba457611ba3610e6a565b5b600082015167ffffffffffffffff811115611bc257611bc1610e6f565b5b611bce84828501611b60565b91505092915050565b600081905092915050565b6000611bed82611a01565b611bf78185611bd7565b9350611c07818560208601611a1d565b80840191505092915050565b6000611c1f8284611be2565b915081905092915050565b60006060820190508181036000830152611c4481866117e5565b90508181036020830152611c5881856118a3565b9050611c6760408301846114a7565b949350505050565b6000602082019050611c846000830184611498565b92915050565b600081519050611c9981611061565b92915050565b600060208284031215611cb557611cb4610e6a565b5b6000611cc384828501611c8a565b91505092915050565b7f546f6b656e207472616e7366657246726f6d206661696c656421200000000000600082015250565b6000611d02601b836113c6565b9150611d0d82611ccc565b602082019050919050565b60006020820190508181036000830152611d3181611cf5565b9050919050565b600060c082019050611d4d6000830189611498565b8181036020830152611d5f81886117e5565b90508181036040830152611d7381876118a3565b9050611d8260608301866114a7565b611d8f60808301856114a7565b611d9c60a0830184611498565b97965050505050505056fea2646970667358221220aa0ad0e3f0b58f788c59bc8c976f251a09c283b7cc7fadc9307eb6df749221b464736f6c63430008120033",
		"opcodes": "PUSH1 0x80 PUSH1 0x40 MSTORE PUSH1 0x4 CALLDATASIZE LT PUSH2 0x4E JUMPI PUSH1 0x0 CALLDATALOAD PUSH1 0xE0 SHR DUP1 PUSH4 0x46BA5FED EQ PUSH2 0x57 JUMPI DUP1 PUSH4 0x5B93F507 EQ PUSH2 0x80 JUMPI DUP1 PUSH4 0xAB54B1BA EQ PUSH2 0x9C JUMPI DUP1 PUSH4 0xED44B388 EQ PUSH2 0xC5 JUMPI DUP1 PUSH4 0xF2B0244F EQ PUSH2 0xE1 JUMPI PUSH2 0x55 JUMP JUMPDEST CALLDATASIZE PUSH2 0x55 JUMPI STOP JUMPDEST STOP JUMPDEST CALLVALUE DUP1 ISZERO PUSH2 0x63 JUMPI PUSH1 0x0 DUP1 REVERT JUMPDEST POP PUSH2 0x7E PUSH1 0x4 DUP1 CALLDATASIZE SUB DUP2 ADD SWAP1 PUSH2 0x79 SWAP2 SWAP1 PUSH2 0x1124 JUMP JUMPDEST PUSH2 0xFD JUMP JUMPDEST STOP JUMPDEST PUSH2 0x9A PUSH1 0x4 DUP1 CALLDATASIZE SUB DUP2 ADD SWAP1 PUSH2 0x95 SWAP2 SWAP1 PUSH2 0x11AF JUMP JUMPDEST PUSH2 0x2E0 JUMP JUMPDEST STOP JUMPDEST CALLVALUE DUP1 ISZERO PUSH2 0xA8 JUMPI PUSH1 0x0 DUP1 REVERT JUMPDEST POP PUSH2 0xC3 PUSH1 0x4 DUP1 CALLDATASIZE SUB DUP2 ADD SWAP1 PUSH2 0xBE SWAP2 SWAP1 PUSH2 0x124E JUMP JUMPDEST PUSH2 0x5FA JUMP JUMPDEST STOP JUMPDEST PUSH2 0xDF PUSH1 0x4 DUP1 CALLDATASIZE SUB DUP2 ADD SWAP1 PUSH2 0xDA SWAP2 SWAP1 PUSH2 0x1124 JUMP JUMPDEST PUSH2 0x6CF JUMP JUMPDEST STOP JUMPDEST PUSH2 0xFB PUSH1 0x4 DUP1 CALLDATASIZE SUB DUP2 ADD SWAP1 PUSH2 0xF6 SWAP2 SWAP1 PUSH2 0x1313 JUMP JUMPDEST PUSH2 0x9BB JUMP JUMPDEST STOP JUMPDEST PUSH1 0x0 DUP4 SWAP1 POP DUP2 MLOAD DUP4 MLOAD EQ PUSH2 0x146 JUMPI PUSH1 0x40 MLOAD PUSH32 0x8C379A000000000000000000000000000000000000000000000000000000000 DUP2 MSTORE PUSH1 0x4 ADD PUSH2 0x13D SWAP1 PUSH2 0x1449 JUMP JUMPDEST PUSH1 0x40 MLOAD DUP1 SWAP2 SUB SWAP1 REVERT JUMPDEST PUSH1 0x0 JUMPDEST DUP4 MLOAD DUP2 LT ISZERO PUSH2 0x2D9 JUMPI DUP2 PUSH20 0xFFFFFFFFFFFFFFFFFFFFFFFFFFFFFFFFFFFFFFFF AND PUSH4 0xA9059CBB DUP6 DUP4 DUP2 MLOAD DUP2 LT PUSH2 0x181 JUMPI PUSH2 0x180 PUSH2 0x1469 JUMP JUMPDEST JUMPDEST PUSH1 0x20 MUL PUSH1 0x20 ADD ADD MLOAD DUP6 DUP5 DUP2 MLOAD DUP2 LT PUSH2 0x19C JUMPI PUSH2 0x19B PUSH2 0x1469 JUMP JUMPDEST JUMPDEST PUSH1 0x20 MUL PUSH1 0x20 ADD ADD MLOAD PUSH1 0x40 MLOAD DUP4 PUSH4 0xFFFFFFFF AND PUSH1 0xE0 SHL DUP2 MSTORE PUSH1 0x4 ADD PUSH2 0x1C1 SWAP3 SWAP2 SWAP1 PUSH2 0x14B6 JUMP JUMPDEST PUSH1 0x20 PUSH1 0x40 MLOAD DUP1 DUP4 SUB DUP2 PUSH1 0x0 DUP8 GAS CALL ISZERO DUP1 ISZERO PUSH2 0x1E0 JUMPI RETURNDATASIZE PUSH1 0x0 DUP1 RETURNDATACOPY RETURNDATASIZE PUSH1 0x0 REVERT JUMPDEST POP POP POP POP PUSH1 0x40 MLOAD RETURNDATASIZE PUSH1 0x1F NOT PUSH1 0x1F DUP3 ADD AND DUP3 ADD DUP1 PUSH1 0x40 MSTORE POP DUP2 ADD SWAP1 PUSH2 0x204 SWAP2 SWAP1 PUSH2 0x1517 JUMP JUMPDEST PUSH2 0x243 JUMPI PUSH1 0x40 MLOAD PUSH32 0x8C379A000000000000000000000000000000000000000000000000000000000 DUP2 MSTORE PUSH1 0x4 ADD PUSH2 0x23A SWAP1 PUSH2 0x1590 JUMP JUMPDEST PUSH1 0x40 MLOAD DUP1 SWAP2 SUB SWAP1 REVERT JUMPDEST DUP4 DUP2 DUP2 MLOAD DUP2 LT PUSH2 0x256 JUMPI PUSH2 0x255 PUSH2 0x1469 JUMP JUMPDEST JUMPDEST PUSH1 0x20 MUL PUSH1 0x20 ADD ADD MLOAD PUSH20 0xFFFFFFFFFFFFFFFFFFFFFFFFFFFFFFFFFFFFFFFF AND DUP2 PUSH32 0xB9471439BD4C23F19D2B486548FA6061AB17E1DA9815F325F2A2B29F22E715E3 DUP6 DUP5 DUP2 MLOAD DUP2 LT PUSH2 0x2A9 JUMPI PUSH2 0x2A8 PUSH2 0x1469 JUMP JUMPDEST JUMPDEST PUSH1 0x20 MUL PUSH1 0x20 ADD ADD MLOAD PUSH1 0x40 MLOAD PUSH2 0x2BE SWAP2 SWAP1 PUSH2 0x15B0 JUMP JUMPDEST PUSH1 0x40 MLOAD DUP1 SWAP2 SUB SWAP1 LOG3 DUP1 DUP1 PUSH2 0x2D1 SWAP1 PUSH2 0x15FA JUMP JUMPDEST SWAP2 POP POP PUSH2 0x149 JUMP JUMPDEST POP POP POP POP POP JUMP JUMPDEST PUSH1 0x0 DUP5 SWAP1 POP DUP3 MLOAD DUP5 MLOAD EQ PUSH2 0x329 JUMPI PUSH1 0x40 MLOAD PUSH32 0x8C379A000000000000000000000000000000000000000000000000000000000 DUP2 MSTORE PUSH1 0x4 ADD PUSH2 0x320 SWAP1 PUSH2 0x168E JUMP JUMPDEST PUSH1 0x40 MLOAD DUP1 SWAP2 SUB SWAP1 REVERT JUMPDEST PUSH1 0x0 DUP1 JUMPDEST DUP5 MLOAD DUP2 LT ISZERO PUSH2 0x371 JUMPI DUP5 DUP2 DUP2 MLOAD DUP2 LT PUSH2 0x349 JUMPI PUSH2 0x348 PUSH2 0x1469 JUMP JUMPDEST JUMPDEST PUSH1 0x20 MUL PUSH1 0x20 ADD ADD MLOAD DUP3 PUSH2 0x35C SWAP2 SWAP1 PUSH2 0x16AE JUMP JUMPDEST SWAP2 POP DUP1 DUP1 PUSH2 0x369 SWAP1 PUSH2 0x15FA JUMP JUMPDEST SWAP2 POP POP PUSH2 0x32D JUMP JUMPDEST POP DUP2 PUSH20 0xFFFFFFFFFFFFFFFFFFFFFFFFFFFFFFFFFFFFFFFF AND PUSH4 0x23B872DD CALLER ADDRESS DUP5 PUSH1 0x40 MLOAD DUP5 PUSH4 0xFFFFFFFF AND PUSH1 0xE0 SHL DUP2 MSTORE PUSH1 0x4 ADD PUSH2 0x3AF SWAP4 SWAP3 SWAP2 SWAP1 PUSH2 0x16E2 JUMP JUMPDEST PUSH1 0x20 PUSH1 0x40 MLOAD DUP1 DUP4 SUB DUP2 PUSH1 0x0 DUP8 GAS CALL ISZERO DUP1 ISZERO PUSH2 0x3CE JUMPI RETURNDATASIZE PUSH1 0x0 DUP1 RETURNDATACOPY RETURNDATASIZE PUSH1 0x0 REVERT JUMPDEST POP POP POP POP PUSH1 0x40 MLOAD RETURNDATASIZE PUSH1 0x1F NOT PUSH1 0x1F DUP3 ADD AND DUP3 ADD DUP1 PUSH1 0x40 MSTORE POP DUP2 ADD SWAP1 PUSH2 0x3F2 SWAP2 SWAP1 PUSH2 0x1517 JUMP JUMPDEST PUSH2 0x431 JUMPI PUSH1 0x40 MLOAD PUSH32 0x8C379A000000000000000000000000000000000000000000000000000000000 DUP2 MSTORE PUSH1 0x4 ADD PUSH2 0x428 SWAP1 PUSH2 0x1765 JUMP JUMPDEST PUSH1 0x40 MLOAD DUP1 SWAP2 SUB SWAP1 REVERT JUMPDEST PUSH1 0x0 DUP7 DUP7 DUP7 PUSH1 0x40 MLOAD PUSH1 0x24 ADD PUSH2 0x448 SWAP4 SWAP3 SWAP2 SWAP1 PUSH2 0x1901 JUMP JUMPDEST PUSH1 0x40 MLOAD PUSH1 0x20 DUP2 DUP4 SUB SUB DUP2 MSTORE SWAP1 PUSH1 0x40 MSTORE PUSH32 0x46BA5FED00000000000000000000000000000000000000000000000000000000 PUSH28 0xFFFFFFFFFFFFFFFFFFFFFFFFFFFFFFFFFFFFFFFFFFFFFFFFFFFFFFFF NOT AND PUSH1 0x20 DUP3 ADD DUP1 MLOAD PUSH28 0xFFFFFFFFFFFFFFFFFFFFFFFFFFFFFFFFFFFFFFFFFFFFFFFFFFFFFFFF DUP4 DUP2 DUP4 AND OR DUP4 MSTORE POP POP POP POP SWAP1 POP PUSH1 0x0 DUP1 PUSH1 0x0 SWAP1 SLOAD SWAP1 PUSH2 0x100 EXP SWAP1 DIV PUSH20 0xFFFFFFFFFFFFFFFFFFFFFFFFFFFFFFFFFFFFFFFF AND PUSH20 0xFFFFFFFFFFFFFFFFFFFFFFFFFFFFFFFFFFFFFFFF AND PUSH4 0x168D560D ADDRESS PUSH1 0x0 PUSH3 0x200B20 PUSH2 0xFA00 DUP11 DUP9 PUSH1 0x40 MLOAD DUP8 PUSH4 0xFFFFFFFF AND PUSH1 0xE0 SHL DUP2 MSTORE PUSH1 0x4 ADD PUSH2 0x533 SWAP7 SWAP6 SWAP5 SWAP4 SWAP3 SWAP2 SWAP1 PUSH2 0x1A80 JUMP JUMPDEST PUSH1 0x0 PUSH1 0x40 MLOAD DUP1 DUP4 SUB DUP2 PUSH1 0x0 DUP8 GAS CALL ISZERO DUP1 ISZERO PUSH2 0x552 JUMPI RETURNDATASIZE PUSH1 0x0 DUP1 RETURNDATACOPY RETURNDATASIZE PUSH1 0x0 REVERT JUMPDEST POP POP POP POP PUSH1 0x40 MLOAD RETURNDATASIZE PUSH1 0x0 DUP3 RETURNDATACOPY RETURNDATASIZE PUSH1 0x1F NOT PUSH1 0x1F DUP3 ADD AND DUP3 ADD DUP1 PUSH1 0x40 MSTORE POP DUP2 ADD SWAP1 PUSH2 0x57B SWAP2 SWAP1 PUSH2 0x1B8E JUMP JUMPDEST SWAP1 POP DUP8 PUSH20 0xFFFFFFFFFFFFFFFFFFFFFFFFFFFFFFFFFFFFFFFF AND DUP2 PUSH1 0x40 MLOAD PUSH2 0x5A2 SWAP2 SWAP1 PUSH2 0x1C13 JUMP JUMPDEST PUSH1 0x40 MLOAD DUP1 SWAP2 SUB SWAP1 KECCAK256 PUSH32 0xC9C9AFE41DD5E3A9438DD88814EDCB9C8089A9E980F48B14414EDA3D6D3D0E9A DUP10 DUP10 DUP10 TIMESTAMP PUSH2 0x5D9 SWAP2 SWAP1 PUSH2 0x16AE JUMP JUMPDEST PUSH1 0x40 MLOAD PUSH2 0x5E8 SWAP4 SWAP3 SWAP2 SWAP1 PUSH2 0x1C2A JUMP JUMPDEST PUSH1 0x40 MLOAD DUP1 SWAP2 SUB SWAP1 LOG3 POP POP POP POP POP POP POP POP JUMP JUMPDEST PUSH1 0x0 DUP7 SWAP1 POP PUSH1 0x0 PUSH1 0x1 PUSH1 0x0 SWAP1 SLOAD SWAP1 PUSH2 0x100 EXP SWAP1 DIV PUSH20 0xFFFFFFFFFFFFFFFFFFFFFFFFFFFFFFFFFFFFFFFF AND PUSH20 0xFFFFFFFFFFFFFFFFFFFFFFFFFFFFFFFFFFFFFFFF AND PUSH4 0x41976E09 DUP4 PUSH1 0x40 MLOAD DUP3 PUSH4 0xFFFFFFFF AND PUSH1 0xE0 SHL DUP2 MSTORE PUSH1 0x4 ADD PUSH2 0x65C SWAP2 SWAP1 PUSH2 0x1C6F JUMP JUMPDEST PUSH1 0x20 PUSH1 0x40 MLOAD DUP1 DUP4 SUB DUP2 DUP7 GAS STATICCALL ISZERO DUP1 ISZERO PUSH2 0x679 JUMPI RETURNDATASIZE PUSH1 0x0 DUP1 RETURNDATACOPY RETURNDATASIZE PUSH1 0x0 REVERT JUMPDEST POP POP POP POP PUSH1 0x40 MLOAD RETURNDATASIZE PUSH1 0x1F NOT PUSH1 0x1F DUP3 ADD AND DUP3 ADD DUP1 PUSH1 0x40 MSTORE POP DUP2 ADD SWAP1 PUSH2 0x69D SWAP2 SWAP1 PUSH2 0x1C9F JUMP JUMPDEST SWAP1 POP DUP5 DUP2 SUB PUSH2 0x6B7 JUMPI PUSH2 0x6B2 DUP9 DUP9 DUP9 DUP7 PUSH2 0xC34 JUMP JUMPDEST PUSH2 0x6C5 JUMP JUMPDEST PUSH2 0x6C4 DUP9 DUP9 DUP9 DUP9 DUP9 PUSH2 0x9BB JUMP JUMPDEST JUMPDEST POP POP POP POP POP POP POP POP JUMP JUMPDEST PUSH1 0x0 DUP4 SWAP1 POP DUP2 MLOAD DUP4 MLOAD EQ PUSH2 0x718 JUMPI PUSH1 0x40 MLOAD PUSH32 0x8C379A000000000000000000000000000000000000000000000000000000000 DUP2 MSTORE PUSH1 0x4 ADD PUSH2 0x70F SWAP1 PUSH2 0x168E JUMP JUMPDEST PUSH1 0x40 MLOAD DUP1 SWAP2 SUB SWAP1 REVERT JUMPDEST PUSH1 0x0 DUP1 JUMPDEST DUP5 MLOAD DUP2 LT ISZERO PUSH2 0x760 JUMPI DUP4 DUP2 DUP2 MLOAD DUP2 LT PUSH2 0x738 JUMPI PUSH2 0x737 PUSH2 0x1469 JUMP JUMPDEST JUMPDEST PUSH1 0x20 MUL PUSH1 0x20 ADD ADD MLOAD DUP3 PUSH2 0x74B SWAP2 SWAP1 PUSH2 0x16AE JUMP JUMPDEST SWAP2 POP DUP1 DUP1 PUSH2 0x758 SWAP1 PUSH2 0x15FA JUMP JUMPDEST SWAP2 POP POP PUSH2 0x71C JUMP JUMPDEST POP DUP2 PUSH20 0xFFFFFFFFFFFFFFFFFFFFFFFFFFFFFFFFFFFFFFFF AND PUSH4 0x23B872DD CALLER ADDRESS DUP5 PUSH1 0x40 MLOAD DUP5 PUSH4 0xFFFFFFFF AND PUSH1 0xE0 SHL DUP2 MSTORE PUSH1 0x4 ADD PUSH2 0x79E SWAP4 SWAP3 SWAP2 SWAP1 PUSH2 0x16E2 JUMP JUMPDEST PUSH1 0x20 PUSH1 0x40 MLOAD DUP1 DUP4 SUB DUP2 PUSH1 0x0 DUP8 GAS CALL ISZERO DUP1 ISZERO PUSH2 0x7BD JUMPI RETURNDATASIZE PUSH1 0x0 DUP1 RETURNDATACOPY RETURNDATASIZE PUSH1 0x0 REVERT JUMPDEST POP POP POP POP PUSH1 0x40 MLOAD RETURNDATASIZE PUSH1 0x1F NOT PUSH1 0x1F DUP3 ADD AND DUP3 ADD DUP1 PUSH1 0x40 MSTORE POP DUP2 ADD SWAP1 PUSH2 0x7E1 SWAP2 SWAP1 PUSH2 0x1517 JUMP JUMPDEST PUSH2 0x820 JUMPI PUSH1 0x40 MLOAD PUSH32 0x8C379A000000000000000000000000000000000000000000000000000000000 DUP2 MSTORE PUSH1 0x4 ADD PUSH2 0x817 SWAP1 PUSH2 0x1D18 JUMP JUMPDEST PUSH1 0x40 MLOAD DUP1 SWAP2 SUB SWAP1 REVERT JUMPDEST PUSH1 0x0 JUMPDEST DUP5 MLOAD DUP2 LT ISZERO PUSH2 0x9B3 JUMPI DUP3 PUSH20 0xFFFFFFFFFFFFFFFFFFFFFFFFFFFFFFFFFFFFFFFF AND PUSH4 0xA9059CBB DUP7 DUP4 DUP2 MLOAD DUP2 LT PUSH2 0x85B JUMPI PUSH2 0x85A PUSH2 0x1469 JUMP JUMPDEST JUMPDEST PUSH1 0x20 MUL PUSH1 0x20 ADD ADD MLOAD DUP7 DUP5 DUP2 MLOAD DUP2 LT PUSH2 0x876 JUMPI PUSH2 0x875 PUSH2 0x1469 JUMP JUMPDEST JUMPDEST PUSH1 0x20 MUL PUSH1 0x20 ADD ADD MLOAD PUSH1 0x40 MLOAD DUP4 PUSH4 0xFFFFFFFF AND PUSH1 0xE0 SHL DUP2 MSTORE PUSH1 0x4 ADD PUSH2 0x89B SWAP3 SWAP2 SWAP1 PUSH2 0x14B6 JUMP JUMPDEST PUSH1 0x20 PUSH1 0x40 MLOAD DUP1 DUP4 SUB DUP2 PUSH1 0x0 DUP8 GAS CALL ISZERO DUP1 ISZERO PUSH2 0x8BA JUMPI RETURNDATASIZE PUSH1 0x0 DUP1 RETURNDATACOPY RETURNDATASIZE PUSH1 0x0 REVERT JUMPDEST POP POP POP POP PUSH1 0x40 MLOAD RETURNDATASIZE PUSH1 0x1F NOT PUSH1 0x1F DUP3 ADD AND DUP3 ADD DUP1 PUSH1 0x40 MSTORE POP DUP2 ADD SWAP1 PUSH2 0x8DE SWAP2 SWAP1 PUSH2 0x1517 JUMP JUMPDEST PUSH2 0x91D JUMPI PUSH1 0x40 MLOAD PUSH32 0x8C379A000000000000000000000000000000000000000000000000000000000 DUP2 MSTORE PUSH1 0x4 ADD PUSH2 0x914 SWAP1 PUSH2 0x1590 JUMP JUMPDEST PUSH1 0x40 MLOAD DUP1 SWAP2 SUB SWAP1 REVERT JUMPDEST DUP5 DUP2 DUP2 MLOAD DUP2 LT PUSH2 0x930 JUMPI PUSH2 0x92F PUSH2 0x1469 JUMP JUMPDEST JUMPDEST PUSH1 0x20 MUL PUSH1 0x20 ADD ADD MLOAD PUSH20 0xFFFFFFFFFFFFFFFFFFFFFFFFFFFFFFFFFFFFFFFF AND DUP2 PUSH32 0xB9471439BD4C23F19D2B486548FA6061AB17E1DA9815F325F2A2B29F22E715E3 DUP7 DUP5 DUP2 MLOAD DUP2 LT PUSH2 0x983 JUMPI PUSH2 0x982 PUSH2 0x1469 JUMP JUMPDEST JUMPDEST PUSH1 0x20 MUL PUSH1 0x20 ADD ADD MLOAD PUSH1 0x40 MLOAD PUSH2 0x998 SWAP2 SWAP1 PUSH2 0x15B0 JUMP JUMPDEST PUSH1 0x40 MLOAD DUP1 SWAP2 SUB SWAP1 LOG3 DUP1 DUP1 PUSH2 0x9AB SWAP1 PUSH2 0x15FA JUMP JUMPDEST SWAP2 POP POP PUSH2 0x823 JUMP JUMPDEST POP POP POP POP POP POP JUMP JUMPDEST PUSH1 0x0 DUP6 SWAP1 POP PUSH1 0x0 CALLER SWAP1 POP PUSH1 0x0 PUSH1 0x1 PUSH1 0x0 SWAP1 SLOAD SWAP1 PUSH2 0x100 EXP SWAP1 DIV PUSH20 0xFFFFFFFFFFFFFFFFFFFFFFFFFFFFFFFFFFFFFFFF AND PUSH20 0xFFFFFFFFFFFFFFFFFFFFFFFFFFFFFFFFFFFFFFFF AND PUSH4 0x41976E09 DUP5 PUSH1 0x40 MLOAD DUP3 PUSH4 0xFFFFFFFF AND PUSH1 0xE0 SHL DUP2 MSTORE PUSH1 0x4 ADD PUSH2 0xA22 SWAP2 SWAP1 PUSH2 0x1C6F JUMP JUMPDEST PUSH1 0x20 PUSH1 0x40 MLOAD DUP1 DUP4 SUB DUP2 DUP7 GAS STATICCALL ISZERO DUP1 ISZERO PUSH2 0xA3F JUMPI RETURNDATASIZE PUSH1 0x0 DUP1 RETURNDATACOPY RETURNDATASIZE PUSH1 0x0 REVERT JUMPDEST POP POP POP POP PUSH1 0x40 MLOAD RETURNDATASIZE PUSH1 0x1F NOT PUSH1 0x1F DUP3 ADD AND DUP3 ADD DUP1 PUSH1 0x40 MSTORE POP DUP2 ADD SWAP1 PUSH2 0xA63 SWAP2 SWAP1 PUSH2 0x1C9F JUMP JUMPDEST SWAP1 POP DUP5 DUP2 SUB PUSH2 0xA7D JUMPI PUSH2 0xA78 DUP9 DUP9 DUP9 DUP6 PUSH2 0xC34 JUMP JUMPDEST PUSH2 0xC2A JUMP JUMPDEST PUSH1 0x0 DUP9 DUP9 DUP9 DUP9 DUP9 DUP8 PUSH1 0x40 MLOAD PUSH1 0x24 ADD PUSH2 0xA9A SWAP7 SWAP6 SWAP5 SWAP4 SWAP3 SWAP2 SWAP1 PUSH2 0x1D38 JUMP JUMPDEST PUSH1 0x40 MLOAD PUSH1 0x20 DUP2 DUP4 SUB SUB DUP2 MSTORE SWAP1 PUSH1 0x40 MSTORE PUSH32 0xAB54B1BA00000000000000000000000000000000000000000000000000000000 PUSH28 0xFFFFFFFFFFFFFFFFFFFFFFFFFFFFFFFFFFFFFFFFFFFFFFFFFFFFFFFF NOT AND PUSH1 0x20 DUP3 ADD DUP1 MLOAD PUSH28 0xFFFFFFFFFFFFFFFFFFFFFFFFFFFFFFFFFFFFFFFFFFFFFFFFFFFFFFFF DUP4 DUP2 DUP4 AND OR DUP4 MSTORE POP POP POP POP SWAP1 POP PUSH1 0x0 DUP1 PUSH1 0x0 SWAP1 SLOAD SWAP1 PUSH2 0x100 EXP SWAP1 DIV PUSH20 0xFFFFFFFFFFFFFFFFFFFFFFFFFFFFFFFFFFFFFFFF AND PUSH20 0xFFFFFFFFFFFFFFFFFFFFFFFFFFFFFFFFFFFFFFFF AND PUSH4 0x168D560D ADDRESS PUSH1 0x0 PUSH3 0x200B20 PUSH2 0xFA00 DUP12 DUP9 PUSH1 0x40 MLOAD DUP8 PUSH4 0xFFFFFFFF AND PUSH1 0xE0 SHL DUP2 MSTORE PUSH1 0x4 ADD PUSH2 0xB85 SWAP7 SWAP6 SWAP5 SWAP4 SWAP3 SWAP2 SWAP1 PUSH2 0x1A80 JUMP JUMPDEST PUSH1 0x0 PUSH1 0x40 MLOAD DUP1 DUP4 SUB DUP2 PUSH1 0x0 DUP8 GAS CALL ISZERO DUP1 ISZERO PUSH2 0xBA4 JUMPI RETURNDATASIZE PUSH1 0x0 DUP1 RETURNDATACOPY RETURNDATASIZE PUSH1 0x0 REVERT JUMPDEST POP POP POP POP PUSH1 0x40 MLOAD RETURNDATASIZE PUSH1 0x0 DUP3 RETURNDATACOPY RETURNDATASIZE PUSH1 0x1F NOT PUSH1 0x1F DUP3 ADD AND DUP3 ADD DUP1 PUSH1 0x40 MSTORE POP DUP2 ADD SWAP1 PUSH2 0xBCD SWAP2 SWAP1 PUSH2 0x1B8E JUMP JUMPDEST SWAP1 POP DUP1 PUSH1 0x40 MLOAD PUSH2 0xBDD SWAP2 SWAP1 PUSH2 0x1C13 JUMP JUMPDEST PUSH1 0x40 MLOAD DUP1 SWAP2 SUB SWAP1 KECCAK256 PUSH32 0x9E989CCC644AFF3DCCB44D63C0125CF7C49F64C9631016543486E7DFC72187C7 DUP8 TIMESTAMP PUSH2 0xC12 SWAP2 SWAP1 PUSH2 0x16AE JUMP JUMPDEST PUSH1 0x40 MLOAD PUSH2 0xC1F SWAP2 SWAP1 PUSH2 0x15B0 JUMP JUMPDEST PUSH1 0x40 MLOAD DUP1 SWAP2 SUB SWAP1 LOG2 POP POP JUMPDEST POP POP POP POP POP POP POP POP JUMP JUMPDEST PUSH1 0x0 DUP5 SWAP1 POP DUP3 MLOAD DUP5 MLOAD EQ PUSH2 0xC7D JUMPI PUSH1 0x40 MLOAD PUSH32 0x8C379A000000000000000000000000000000000000000000000000000000000 DUP2 MSTORE PUSH1 0x4 ADD PUSH2 0xC74 SWAP1 PUSH2 0x1449 JUMP JUMPDEST PUSH1 0x40 MLOAD DUP1 SWAP2 SUB SWAP1 REVERT JUMPDEST PUSH1 0x0 DUP1 JUMPDEST DUP5 MLOAD DUP2 LT ISZERO PUSH2 0xCC5 JUMPI DUP5 DUP2 DUP2 MLOAD DUP2 LT PUSH2 0xC9D JUMPI PUSH2 0xC9C PUSH2 0x1469 JUMP JUMPDEST JUMPDEST PUSH1 0x20 MUL PUSH1 0x20 ADD ADD MLOAD DUP3 PUSH2 0xCB0 SWAP2 SWAP1 PUSH2 0x16AE JUMP JUMPDEST SWAP2 POP DUP1 DUP1 PUSH2 0xCBD SWAP1 PUSH2 0x15FA JUMP JUMPDEST SWAP2 POP POP PUSH2 0xC81 JUMP JUMPDEST POP DUP2 PUSH20 0xFFFFFFFFFFFFFFFFFFFFFFFFFFFFFFFFFFFFFFFF AND PUSH4 0x23B872DD DUP5 ADDRESS DUP5 PUSH1 0x40 MLOAD DUP5 PUSH4 0xFFFFFFFF AND PUSH1 0xE0 SHL DUP2 MSTORE PUSH1 0x4 ADD PUSH2 0xD03 SWAP4 SWAP3 SWAP2 SWAP1 PUSH2 0x16E2 JUMP JUMPDEST PUSH1 0x20 PUSH1 0x40 MLOAD DUP1 DUP4 SUB DUP2 PUSH1 0x0 DUP8 GAS CALL ISZERO DUP1 ISZERO PUSH2 0xD22 JUMPI RETURNDATASIZE PUSH1 0x0 DUP1 RETURNDATACOPY RETURNDATASIZE PUSH1 0x0 REVERT JUMPDEST POP POP POP POP PUSH1 0x40 MLOAD RETURNDATASIZE PUSH1 0x1F NOT PUSH1 0x1F DUP3 ADD AND DUP3 ADD DUP1 PUSH1 0x40 MSTORE POP DUP2 ADD SWAP1 PUSH2 0xD46 SWAP2 SWAP1 PUSH2 0x1517 JUMP JUMPDEST PUSH2 0xD85 JUMPI PUSH1 0x40 MLOAD PUSH32 0x8C379A000000000000000000000000000000000000000000000000000000000 DUP2 MSTORE PUSH1 0x4 ADD PUSH2 0xD7C SWAP1 PUSH2 0x1590 JUMP JUMPDEST PUSH1 0x40 MLOAD DUP1 SWAP2 SUB SWAP1 REVERT JUMPDEST PUSH1 0x0 JUMPDEST DUP6 MLOAD DUP2 LT ISZERO PUSH2 0xE57 JUMPI DUP3 PUSH20 0xFFFFFFFFFFFFFFFFFFFFFFFFFFFFFFFFFFFFFFFF AND PUSH4 0xA9059CBB DUP8 DUP4 DUP2 MLOAD DUP2 LT PUSH2 0xDC0 JUMPI PUSH2 0xDBF PUSH2 0x1469 JUMP JUMPDEST JUMPDEST PUSH1 0x20 MUL PUSH1 0x20 ADD ADD MLOAD DUP8 DUP5 DUP2 MLOAD DUP2 LT PUSH2 0xDDB JUMPI PUSH2 0xDDA PUSH2 0x1469 JUMP JUMPDEST JUMPDEST PUSH1 0x20 MUL PUSH1 0x20 ADD ADD MLOAD PUSH1 0x40 MLOAD DUP4 PUSH4 0xFFFFFFFF AND PUSH1 0xE0 SHL DUP2 MSTORE PUSH1 0x4 ADD PUSH2 0xE00 SWAP3 SWAP2 SWAP1 PUSH2 0x14B6 JUMP JUMPDEST PUSH1 0x20 PUSH1 0x40 MLOAD DUP1 DUP4 SUB DUP2 PUSH1 0x0 DUP8 GAS CALL ISZERO DUP1 ISZERO PUSH2 0xE1F JUMPI RETURNDATASIZE PUSH1 0x0 DUP1 RETURNDATACOPY RETURNDATASIZE PUSH1 0x0 REVERT JUMPDEST POP POP POP POP PUSH1 0x40 MLOAD RETURNDATASIZE PUSH1 0x1F NOT PUSH1 0x1F DUP3 ADD AND DUP3 ADD DUP1 PUSH1 0x40 MSTORE POP DUP2 ADD SWAP1 PUSH2 0xE43 SWAP2 SWAP1 PUSH2 0x1517 JUMP JUMPDEST POP DUP1 DUP1 PUSH2 0xE4F SWAP1 PUSH2 0x15FA JUMP JUMPDEST SWAP2 POP POP PUSH2 0xD88 JUMP JUMPDEST POP POP POP POP POP POP POP JUMP JUMPDEST PUSH1 0x0 PUSH1 0x40 MLOAD SWAP1 POP SWAP1 JUMP JUMPDEST PUSH1 0x0 DUP1 REVERT JUMPDEST PUSH1 0x0 DUP1 REVERT JUMPDEST PUSH1 0x0 PUSH20 0xFFFFFFFFFFFFFFFFFFFFFFFFFFFFFFFFFFFFFFFF DUP3 AND SWAP1 POP SWAP2 SWAP1 POP JUMP JUMPDEST PUSH1 0x0 PUSH2 0xE9F DUP3 PUSH2 0xE74 JUMP JUMPDEST SWAP1 POP SWAP2 SWAP1 POP JUMP JUMPDEST PUSH2 0xEAF DUP2 PUSH2 0xE94 JUMP JUMPDEST DUP2 EQ PUSH2 0xEBA JUMPI PUSH1 0x0 DUP1 REVERT JUMPDEST POP JUMP JUMPDEST PUSH1 0x0 DUP2 CALLDATALOAD SWAP1 POP PUSH2 0xECC DUP2 PUSH2 0xEA6 JUMP JUMPDEST SWAP3 SWAP2 POP POP JUMP JUMPDEST PUSH1 0x0 DUP1 REVERT JUMPDEST PUSH1 0x0 PUSH1 0x1F NOT PUSH1 0x1F DUP4 ADD AND SWAP1 POP SWAP2 SWAP1 POP JUMP JUMPDEST PUSH32 0x4E487B7100000000000000000000000000000000000000000000000000000000 PUSH1 0x0 MSTORE PUSH1 0x41 PUSH1 0x4 MSTORE PUSH1 0x24 PUSH1 0x0 REVERT JUMPDEST PUSH2 0xF20 DUP3 PUSH2 0xED7 JUMP JUMPDEST DUP2 ADD DUP2 DUP2 LT PUSH8 0xFFFFFFFFFFFFFFFF DUP3 GT OR ISZERO PUSH2 0xF3F JUMPI PUSH2 0xF3E PUSH2 0xEE8 JUMP JUMPDEST JUMPDEST DUP1 PUSH1 0x40 MSTORE POP POP POP JUMP JUMPDEST PUSH1 0x0 PUSH2 0xF52 PUSH2 0xE60 JUMP JUMPDEST SWAP1 POP PUSH2 0xF5E DUP3 DUP3 PUSH2 0xF17 JUMP JUMPDEST SWAP2 SWAP1 POP JUMP JUMPDEST PUSH1 0x0 PUSH8 0xFFFFFFFFFFFFFFFF DUP3 GT ISZERO PUSH2 0xF7E JUMPI PUSH2 0xF7D PUSH2 0xEE8 JUMP JUMPDEST JUMPDEST PUSH1 0x20 DUP3 MUL SWAP1 POP PUSH1 0x20 DUP2 ADD SWAP1 POP SWAP2 SWAP1 POP JUMP JUMPDEST PUSH1 0x0 DUP1 REVERT JUMPDEST PUSH1 0x0 PUSH2 0xFA7 PUSH2 0xFA2 DUP5 PUSH2 0xF63 JUMP JUMPDEST PUSH2 0xF48 JUMP JUMPDEST SWAP1 POP DUP1 DUP4 DUP3 MSTORE PUSH1 0x20 DUP3 ADD SWAP1 POP PUSH1 0x20 DUP5 MUL DUP4 ADD DUP6 DUP2 GT ISZERO PUSH2 0xFCA JUMPI PUSH2 0xFC9 PUSH2 0xF8F JUMP JUMPDEST JUMPDEST DUP4 JUMPDEST DUP2 DUP2 LT ISZERO PUSH2 0xFF3 JUMPI DUP1 PUSH2 0xFDF DUP9 DUP3 PUSH2 0xEBD JUMP JUMPDEST DUP5 MSTORE PUSH1 0x20 DUP5 ADD SWAP4 POP POP PUSH1 0x20 DUP2 ADD SWAP1 POP PUSH2 0xFCC JUMP JUMPDEST POP POP POP SWAP4 SWAP3 POP POP POP JUMP JUMPDEST PUSH1 0x0 DUP3 PUSH1 0x1F DUP4 ADD SLT PUSH2 0x1012 JUMPI PUSH2 0x1011 PUSH2 0xED2 JUMP JUMPDEST JUMPDEST DUP2 CALLDATALOAD PUSH2 0x1022 DUP5 DUP3 PUSH1 0x20 DUP7 ADD PUSH2 0xF94 JUMP JUMPDEST SWAP2 POP POP SWAP3 SWAP2 POP POP JUMP JUMPDEST PUSH1 0x0 PUSH8 0xFFFFFFFFFFFFFFFF DUP3 GT ISZERO PUSH2 0x1046 JUMPI PUSH2 0x1045 PUSH2 0xEE8 JUMP JUMPDEST JUMPDEST PUSH1 0x20 DUP3 MUL SWAP1 POP PUSH1 0x20 DUP2 ADD SWAP1 POP SWAP2 SWAP1 POP JUMP JUMPDEST PUSH1 0x0 DUP2 SWAP1 POP SWAP2 SWAP1 POP JUMP JUMPDEST PUSH2 0x106A DUP2 PUSH2 0x1057 JUMP JUMPDEST DUP2 EQ PUSH2 0x1075 JUMPI PUSH1 0x0 DUP1 REVERT JUMPDEST POP JUMP JUMPDEST PUSH1 0x0 DUP2 CALLDATALOAD SWAP1 POP PUSH2 0x1087 DUP2 PUSH2 0x1061 JUMP JUMPDEST SWAP3 SWAP2 POP POP JUMP JUMPDEST PUSH1 0x0 PUSH2 0x10A0 PUSH2 0x109B DUP5 PUSH2 0x102B JUMP JUMPDEST PUSH2 0xF48 JUMP JUMPDEST SWAP1 POP DUP1 DUP4 DUP3 MSTORE PUSH1 0x20 DUP3 ADD SWAP1 POP PUSH1 0x20 DUP5 MUL DUP4 ADD DUP6 DUP2 GT ISZERO PUSH2 0x10C3 JUMPI PUSH2 0x10C2 PUSH2 0xF8F JUMP JUMPDEST JUMPDEST DUP4 JUMPDEST DUP2 DUP2 LT ISZERO PUSH2 0x10EC JUMPI DUP1 PUSH2 0x10D8 DUP9 DUP3 PUSH2 0x1078 JUMP JUMPDEST DUP5 MSTORE PUSH1 0x20 DUP5 ADD SWAP4 POP POP PUSH1 0x20 DUP2 ADD SWAP1 POP PUSH2 0x10C5 JUMP JUMPDEST POP POP POP SWAP4 SWAP3 POP POP POP JUMP JUMPDEST PUSH1 0x0 DUP3 PUSH1 0x1F DUP4 ADD SLT PUSH2 0x110B JUMPI PUSH2 0x110A PUSH2 0xED2 JUMP JUMPDEST JUMPDEST DUP2 CALLDATALOAD PUSH2 0x111B DUP5 DUP3 PUSH1 0x20 DUP7 ADD PUSH2 0x108D JUMP JUMPDEST SWAP2 POP POP SWAP3 SWAP2 POP POP JUMP JUMPDEST PUSH1 0x0 DUP1 PUSH1 0x0 PUSH1 0x60 DUP5 DUP7 SUB SLT ISZERO PUSH2 0x113D JUMPI PUSH2 0x113C PUSH2 0xE6A JUMP JUMPDEST JUMPDEST PUSH1 0x0 PUSH2 0x114B DUP7 DUP3 DUP8 ADD PUSH2 0xEBD JUMP JUMPDEST SWAP4 POP POP PUSH1 0x20 DUP5 ADD CALLDATALOAD PUSH8 0xFFFFFFFFFFFFFFFF DUP2 GT ISZERO PUSH2 0x116C JUMPI PUSH2 0x116B PUSH2 0xE6F JUMP JUMPDEST JUMPDEST PUSH2 0x1178 DUP7 DUP3 DUP8 ADD PUSH2 0xFFD JUMP JUMPDEST SWAP3 POP POP PUSH1 0x40 DUP5 ADD CALLDATALOAD PUSH8 0xFFFFFFFFFFFFFFFF DUP2 GT ISZERO PUSH2 0x1199 JUMPI PUSH2 0x1198 PUSH2 0xE6F JUMP JUMPDEST JUMPDEST PUSH2 0x11A5 DUP7 DUP3 DUP8 ADD PUSH2 0x10F6 JUMP JUMPDEST SWAP2 POP POP SWAP3 POP SWAP3 POP SWAP3 JUMP JUMPDEST PUSH1 0x0 DUP1 PUSH1 0x0 DUP1 PUSH1 0x80 DUP6 DUP8 SUB SLT ISZERO PUSH2 0x11C9 JUMPI PUSH2 0x11C8 PUSH2 0xE6A JUMP JUMPDEST JUMPDEST PUSH1 0x0 PUSH2 0x11D7 DUP8 DUP3 DUP9 ADD PUSH2 0xEBD JUMP JUMPDEST SWAP5 POP POP PUSH1 0x20 DUP6 ADD CALLDATALOAD PUSH8 0xFFFFFFFFFFFFFFFF DUP2 GT ISZERO PUSH2 0x11F8 JUMPI PUSH2 0x11F7 PUSH2 0xE6F JUMP JUMPDEST JUMPDEST PUSH2 0x1204 DUP8 DUP3 DUP9 ADD PUSH2 0xFFD JUMP JUMPDEST SWAP4 POP POP PUSH1 0x40 DUP6 ADD CALLDATALOAD PUSH8 0xFFFFFFFFFFFFFFFF DUP2 GT ISZERO PUSH2 0x1225 JUMPI PUSH2 0x1224 PUSH2 0xE6F JUMP JUMPDEST JUMPDEST PUSH2 0x1231 DUP8 DUP3 DUP9 ADD PUSH2 0x10F6 JUMP JUMPDEST SWAP3 POP POP PUSH1 0x60 PUSH2 0x1242 DUP8 DUP3 DUP9 ADD PUSH2 0x1078 JUMP JUMPDEST SWAP2 POP POP SWAP3 SWAP6 SWAP2 SWAP5 POP SWAP3 POP JUMP JUMPDEST PUSH1 0x0 DUP1 PUSH1 0x0 DUP1 PUSH1 0x0 DUP1 PUSH1 0xC0 DUP8 DUP10 SUB SLT ISZERO PUSH2 0x126B JUMPI PUSH2 0x126A PUSH2 0xE6A JUMP JUMPDEST JUMPDEST PUSH1 0x0 PUSH2 0x1279 DUP10 DUP3 DUP11 ADD PUSH2 0xEBD JUMP JUMPDEST SWAP7 POP POP PUSH1 0x20 DUP8 ADD CALLDATALOAD PUSH8 0xFFFFFFFFFFFFFFFF DUP2 GT ISZERO PUSH2 0x129A JUMPI PUSH2 0x1299 PUSH2 0xE6F JUMP JUMPDEST JUMPDEST PUSH2 0x12A6 DUP10 DUP3 DUP11 ADD PUSH2 0xFFD JUMP JUMPDEST SWAP6 POP POP PUSH1 0x40 DUP8 ADD CALLDATALOAD PUSH8 0xFFFFFFFFFFFFFFFF DUP2 GT ISZERO PUSH2 0x12C7 JUMPI PUSH2 0x12C6 PUSH2 0xE6F JUMP JUMPDEST JUMPDEST PUSH2 0x12D3 DUP10 DUP3 DUP11 ADD PUSH2 0x10F6 JUMP JUMPDEST SWAP5 POP POP PUSH1 0x60 PUSH2 0x12E4 DUP10 DUP3 DUP11 ADD PUSH2 0x1078 JUMP JUMPDEST SWAP4 POP POP PUSH1 0x80 PUSH2 0x12F5 DUP10 DUP3 DUP11 ADD PUSH2 0x1078 JUMP JUMPDEST SWAP3 POP POP PUSH1 0xA0 PUSH2 0x1306 DUP10 DUP3 DUP11 ADD PUSH2 0xEBD JUMP JUMPDEST SWAP2 POP POP SWAP3 SWAP6 POP SWAP3 SWAP6 POP SWAP3 SWAP6 JUMP JUMPDEST PUSH1 0x0 DUP1 PUSH1 0x0 DUP1 PUSH1 0x0 PUSH1 0xA0 DUP7 DUP9 SUB SLT ISZERO PUSH2 0x132F JUMPI PUSH2 0x132E PUSH2 0xE6A JUMP JUMPDEST JUMPDEST PUSH1 0x0 PUSH2 0x133D DUP9 DUP3 DUP10 ADD PUSH2 0xEBD JUMP JUMPDEST SWAP6 POP POP PUSH1 0x20 DUP7 ADD CALLDATALOAD PUSH8 0xFFFFFFFFFFFFFFFF DUP2 GT ISZERO PUSH2 0x135E JUMPI PUSH2 0x135D PUSH2 0xE6F JUMP JUMPDEST JUMPDEST PUSH2 0x136A DUP9 DUP3 DUP10 ADD PUSH2 0xFFD JUMP JUMPDEST SWAP5 POP POP PUSH1 0x40 DUP7 ADD CALLDATALOAD PUSH8 0xFFFFFFFFFFFFFFFF DUP2 GT ISZERO PUSH2 0x138B JUMPI PUSH2 0x138A PUSH2 0xE6F JUMP JUMPDEST JUMPDEST PUSH2 0x1397 DUP9 DUP3 DUP10 ADD PUSH2 0x10F6 JUMP JUMPDEST SWAP4 POP POP PUSH1 0x60 PUSH2 0x13A8 DUP9 DUP3 DUP10 ADD PUSH2 0x1078 JUMP JUMPDEST SWAP3 POP POP PUSH1 0x80 PUSH2 0x13B9 DUP9 DUP3 DUP10 ADD PUSH2 0x1078 JUMP JUMPDEST SWAP2 POP POP SWAP3 SWAP6 POP SWAP3 SWAP6 SWAP1 SWAP4 POP JUMP JUMPDEST PUSH1 0x0 DUP3 DUP3 MSTORE PUSH1 0x20 DUP3 ADD SWAP1 POP SWAP3 SWAP2 POP POP JUMP JUMPDEST PUSH32 0x4D69736D61746368656420726563697069656E747320616E6420616D6F756E74 PUSH1 0x0 DUP3 ADD MSTORE PUSH32 0x7300000000000000000000000000000000000000000000000000000000000000 PUSH1 0x20 DUP3 ADD MSTORE POP JUMP JUMPDEST PUSH1 0x0 PUSH2 0x1433 PUSH1 0x21 DUP4 PUSH2 0x13C6 JUMP JUMPDEST SWAP2 POP PUSH2 0x143E DUP3 PUSH2 0x13D7 JUMP JUMPDEST PUSH1 0x40 DUP3 ADD SWAP1 POP SWAP2 SWAP1 POP JUMP JUMPDEST PUSH1 0x0 PUSH1 0x20 DUP3 ADD SWAP1 POP DUP2 DUP2 SUB PUSH1 0x0 DUP4 ADD MSTORE PUSH2 0x1462 DUP2 PUSH2 0x1426 JUMP JUMPDEST SWAP1 POP SWAP2 SWAP1 POP JUMP JUMPDEST PUSH32 0x4E487B7100000000000000000000000000000000000000000000000000000000 PUSH1 0x0 MSTORE PUSH1 0x32 PUSH1 0x4 MSTORE PUSH1 0x24 PUSH1 0x0 REVERT JUMPDEST PUSH2 0x14A1 DUP2 PUSH2 0xE94 JUMP JUMPDEST DUP3 MSTORE POP POP JUMP JUMPDEST PUSH2 0x14B0 DUP2 PUSH2 0x1057 JUMP JUMPDEST DUP3 MSTORE POP POP JUMP JUMPDEST PUSH1 0x0 PUSH1 0x40 DUP3 ADD SWAP1 POP PUSH2 0x14CB PUSH1 0x0 DUP4 ADD DUP6 PUSH2 0x1498 JUMP JUMPDEST PUSH2 0x14D8 PUSH1 0x20 DUP4 ADD DUP5 PUSH2 0x14A7 JUMP JUMPDEST SWAP4 SWAP3 POP POP POP JUMP JUMPDEST PUSH1 0x0 DUP2 ISZERO ISZERO SWAP1 POP SWAP2 SWAP1 POP JUMP JUMPDEST PUSH2 0x14F4 DUP2 PUSH2 0x14DF JUMP JUMPDEST DUP2 EQ PUSH2 0x14FF JUMPI PUSH1 0x0 DUP1 REVERT JUMPDEST POP JUMP JUMPDEST PUSH1 0x0 DUP2 MLOAD SWAP1 POP PUSH2 0x1511 DUP2 PUSH2 0x14EB JUMP JUMPDEST SWAP3 SWAP2 POP POP JUMP JUMPDEST PUSH1 0x0 PUSH1 0x20 DUP3 DUP5 SUB SLT ISZERO PUSH2 0x152D JUMPI PUSH2 0x152C PUSH2 0xE6A JUMP JUMPDEST JUMPDEST PUSH1 0x0 PUSH2 0x153B DUP5 DUP3 DUP6 ADD PUSH2 0x1502 JUMP JUMPDEST SWAP2 POP POP SWAP3 SWAP2 POP POP JUMP JUMPDEST PUSH32 0x546F6B656E207472616E73666572206661696C65640000000000000000000000 PUSH1 0x0 DUP3 ADD MSTORE POP JUMP JUMPDEST PUSH1 0x0 PUSH2 0x157A PUSH1 0x15 DUP4 PUSH2 0x13C6 JUMP JUMPDEST SWAP2 POP PUSH2 0x1585 DUP3 PUSH2 0x1544 JUMP JUMPDEST PUSH1 0x20 DUP3 ADD SWAP1 POP SWAP2 SWAP1 POP JUMP JUMPDEST PUSH1 0x0 PUSH1 0x20 DUP3 ADD SWAP1 POP DUP2 DUP2 SUB PUSH1 0x0 DUP4 ADD MSTORE PUSH2 0x15A9 DUP2 PUSH2 0x156D JUMP JUMPDEST SWAP1 POP SWAP2 SWAP1 POP JUMP JUMPDEST PUSH1 0x0 PUSH1 0x20 DUP3 ADD SWAP1 POP PUSH2 0x15C5 PUSH1 0x0 DUP4 ADD DUP5 PUSH2 0x14A7 JUMP JUMPDEST SWAP3 SWAP2 POP POP JUMP JUMPDEST PUSH32 0x4E487B7100000000000000000000000000000000000000000000000000000000 PUSH1 0x0 MSTORE PUSH1 0x11 PUSH1 0x4 MSTORE PUSH1 0x24 PUSH1 0x0 REVERT JUMPDEST PUSH1 0x0 PUSH2 0x1605 DUP3 PUSH2 0x1057 JUMP JUMPDEST SWAP2 POP PUSH32 0xFFFFFFFFFFFFFFFFFFFFFFFFFFFFFFFFFFFFFFFFFFFFFFFFFFFFFFFFFFFFFFFF DUP3 SUB PUSH2 0x1637 JUMPI PUSH2 0x1636 PUSH2 0x15CB JUMP JUMPDEST JUMPDEST PUSH1 0x1 DUP3 ADD SWAP1 POP SWAP2 SWAP1 POP JUMP JUMPDEST PUSH32 0x4769766520696E70757473206163636F7264696E676C79210000000000000000 PUSH1 0x0 DUP3 ADD MSTORE POP JUMP JUMPDEST PUSH1 0x0 PUSH2 0x1678 PUSH1 0x18 DUP4 PUSH2 0x13C6 JUMP JUMPDEST SWAP2 POP PUSH2 0x1683 DUP3 PUSH2 0x1642 JUMP JUMPDEST PUSH1 0x20 DUP3 ADD SWAP1 POP SWAP2 SWAP1 POP JUMP JUMPDEST PUSH1 0x0 PUSH1 0x20 DUP3 ADD SWAP1 POP DUP2 DUP2 SUB PUSH1 0x0 DUP4 ADD MSTORE PUSH2 0x16A7 DUP2 PUSH2 0x166B JUMP JUMPDEST SWAP1 POP SWAP2 SWAP1 POP JUMP JUMPDEST PUSH1 0x0 PUSH2 0x16B9 DUP3 PUSH2 0x1057 JUMP JUMPDEST SWAP2 POP PUSH2 0x16C4 DUP4 PUSH2 0x1057 JUMP JUMPDEST SWAP3 POP DUP3 DUP3 ADD SWAP1 POP DUP1 DUP3 GT ISZERO PUSH2 0x16DC JUMPI PUSH2 0x16DB PUSH2 0x15CB JUMP JUMPDEST JUMPDEST SWAP3 SWAP2 POP POP JUMP JUMPDEST PUSH1 0x0 PUSH1 0x60 DUP3 ADD SWAP1 POP PUSH2 0x16F7 PUSH1 0x0 DUP4 ADD DUP7 PUSH2 0x1498 JUMP JUMPDEST PUSH2 0x1704 PUSH1 0x20 DUP4 ADD DUP6 PUSH2 0x1498 JUMP JUMPDEST PUSH2 0x1711 PUSH1 0x40 DUP4 ADD DUP5 PUSH2 0x14A7 JUMP JUMPDEST SWAP5 SWAP4 POP POP POP POP JUMP JUMPDEST PUSH32 0x546F6B656E207472616E73666572206661696C65642100000000000000000000 PUSH1 0x0 DUP3 ADD MSTORE POP JUMP JUMPDEST PUSH1 0x0 PUSH2 0x174F PUSH1 0x16 DUP4 PUSH2 0x13C6 JUMP JUMPDEST SWAP2 POP PUSH2 0x175A DUP3 PUSH2 0x1719 JUMP JUMPDEST PUSH1 0x20 DUP3 ADD SWAP1 POP SWAP2 SWAP1 POP JUMP JUMPDEST PUSH1 0x0 PUSH1 0x20 DUP3 ADD SWAP1 POP DUP2 DUP2 SUB PUSH1 0x0 DUP4 ADD MSTORE PUSH2 0x177E DUP2 PUSH2 0x1742 JUMP JUMPDEST SWAP1 POP SWAP2 SWAP1 POP JUMP JUMPDEST PUSH1 0x0 DUP2 MLOAD SWAP1 POP SWAP2 SWAP1 POP JUMP JUMPDEST PUSH1 0x0 DUP3 DUP3 MSTORE PUSH1 0x20 DUP3 ADD SWAP1 POP SWAP3 SWAP2 POP POP JUMP JUMPDEST PUSH1 0x0 DUP2 SWAP1 POP PUSH1 0x20 DUP3 ADD SWAP1 POP SWAP2 SWAP1 POP JUMP JUMPDEST PUSH2 0x17BA DUP2 PUSH2 0xE94 JUMP JUMPDEST DUP3 MSTORE POP POP JUMP JUMPDEST PUSH1 0x0 PUSH2 0x17CC DUP4 DUP4 PUSH2 0x17B1 JUMP JUMPDEST PUSH1 0x20 DUP4 ADD SWAP1 POP SWAP3 SWAP2 POP POP JUMP JUMPDEST PUSH1 0x0 PUSH1 0x20 DUP3 ADD SWAP1 POP SWAP2 SWAP1 POP JUMP JUMPDEST PUSH1 0x0 PUSH2 0x17F0 DUP3 PUSH2 0x1785 JUMP JUMPDEST PUSH2 0x17FA DUP2 DUP6 PUSH2 0x1790 JUMP JUMPDEST SWAP4 POP PUSH2 0x1805 DUP4 PUSH2 0x17A1 JUMP JUMPDEST DUP1 PUSH1 0x0 JUMPDEST DUP4 DUP2 LT ISZERO PUSH2 0x1836 JUMPI DUP2 MLOAD PUSH2 0x181D DUP9 DUP3 PUSH2 0x17C0 JUMP JUMPDEST SWAP8 POP PUSH2 0x1828 DUP4 PUSH2 0x17D8 JUMP JUMPDEST SWAP3 POP POP PUSH1 0x1 DUP2 ADD SWAP1 POP PUSH2 0x1809 JUMP JUMPDEST POP DUP6 SWAP4 POP POP POP POP SWAP3 SWAP2 POP POP JUMP JUMPDEST PUSH1 0x0 DUP2 MLOAD SWAP1 POP SWAP2 SWAP1 POP JUMP JUMPDEST PUSH1 0x0 DUP3 DUP3 MSTORE PUSH1 0x20 DUP3 ADD SWAP1 POP SWAP3 SWAP2 POP POP JUMP JUMPDEST PUSH1 0x0 DUP2 SWAP1 POP PUSH1 0x20 DUP3 ADD SWAP1 POP SWAP2 SWAP1 POP JUMP JUMPDEST PUSH2 0x1878 DUP2 PUSH2 0x1057 JUMP JUMPDEST DUP3 MSTORE POP POP JUMP JUMPDEST PUSH1 0x0 PUSH2 0x188A DUP4 DUP4 PUSH2 0x186F JUMP JUMPDEST PUSH1 0x20 DUP4 ADD SWAP1 POP SWAP3 SWAP2 POP POP JUMP JUMPDEST PUSH1 0x0 PUSH1 0x20 DUP3 ADD SWAP1 POP SWAP2 SWAP1 POP JUMP JUMPDEST PUSH1 0x0 PUSH2 0x18AE DUP3 PUSH2 0x1843 JUMP JUMPDEST PUSH2 0x18B8 DUP2 DUP6 PUSH2 0x184E JUMP JUMPDEST SWAP4 POP PUSH2 0x18C3 DUP4 PUSH2 0x185F JUMP JUMPDEST DUP1 PUSH1 0x0 JUMPDEST DUP4 DUP2 LT ISZERO PUSH2 0x18F4 JUMPI DUP2 MLOAD PUSH2 0x18DB DUP9 DUP3 PUSH2 0x187E JUMP JUMPDEST SWAP8 POP PUSH2 0x18E6 DUP4 PUSH2 0x1896 JUMP JUMPDEST SWAP3 POP POP PUSH1 0x1 DUP2 ADD SWAP1 POP PUSH2 0x18C7 JUMP JUMPDEST POP DUP6 SWAP4 POP POP POP POP SWAP3 SWAP2 POP POP JUMP JUMPDEST PUSH1 0x0 PUSH1 0x60 DUP3 ADD SWAP1 POP PUSH2 0x1916 PUSH1 0x0 DUP4 ADD DUP7 PUSH2 0x1498 JUMP JUMPDEST DUP2 DUP2 SUB PUSH1 0x20 DUP4 ADD MSTORE PUSH2 0x1928 DUP2 DUP6 PUSH2 0x17E5 JUMP JUMPDEST SWAP1 POP DUP2 DUP2 SUB PUSH1 0x40 DUP4 ADD MSTORE PUSH2 0x193C DUP2 DUP5 PUSH2 0x18A3 JUMP JUMPDEST SWAP1 POP SWAP5 SWAP4 POP POP POP POP JUMP JUMPDEST PUSH1 0x0 DUP2 SWAP1 POP SWAP2 SWAP1 POP JUMP JUMPDEST PUSH1 0x0 DUP2 SWAP1 POP SWAP2 SWAP1 POP JUMP JUMPDEST PUSH1 0x0 PUSH2 0x1975 PUSH2 0x1970 PUSH2 0x196B DUP5 PUSH2 0x1946 JUMP JUMPDEST PUSH2 0x1950 JUMP JUMPDEST PUSH2 0x1057 JUMP JUMPDEST SWAP1 POP SWAP2 SWAP1 POP JUMP JUMPDEST PUSH2 0x1985 DUP2 PUSH2 0x195A JUMP JUMPDEST DUP3 MSTORE POP POP JUMP JUMPDEST PUSH1 0x0 DUP2 SWAP1 POP SWAP2 SWAP1 POP JUMP JUMPDEST PUSH1 0x0 PUSH2 0x19B0 PUSH2 0x19AB PUSH2 0x19A6 DUP5 PUSH2 0x198B JUMP JUMPDEST PUSH2 0x1950 JUMP JUMPDEST PUSH2 0x1057 JUMP JUMPDEST SWAP1 POP SWAP2 SWAP1 POP JUMP JUMPDEST PUSH2 0x19C0 DUP2 PUSH2 0x1995 JUMP JUMPDEST DUP3 MSTORE POP POP JUMP JUMPDEST PUSH1 0x0 DUP2 SWAP1 POP SWAP2 SWAP1 POP JUMP JUMPDEST PUSH1 0x0 PUSH2 0x19EB PUSH2 0x19E6 PUSH2 0x19E1 DUP5 PUSH2 0x19C6 JUMP JUMPDEST PUSH2 0x1950 JUMP JUMPDEST PUSH2 0x1057 JUMP JUMPDEST SWAP1 POP SWAP2 SWAP1 POP JUMP JUMPDEST PUSH2 0x19FB DUP2 PUSH2 0x19D0 JUMP JUMPDEST DUP3 MSTORE POP POP JUMP JUMPDEST PUSH1 0x0 DUP2 MLOAD SWAP1 POP SWAP2 SWAP1 POP JUMP JUMPDEST PUSH1 0x0 DUP3 DUP3 MSTORE PUSH1 0x20 DUP3 ADD SWAP1 POP SWAP3 SWAP2 POP POP JUMP JUMPDEST PUSH1 0x0 JUMPDEST DUP4 DUP2 LT ISZERO PUSH2 0x1A3B JUMPI DUP1 DUP3 ADD MLOAD DUP2 DUP5 ADD MSTORE PUSH1 0x20 DUP2 ADD SWAP1 POP PUSH2 0x1A20 JUMP JUMPDEST PUSH1 0x0 DUP5 DUP5 ADD MSTORE POP POP POP POP JUMP JUMPDEST PUSH1 0x0 PUSH2 0x1A52 DUP3 PUSH2 0x1A01 JUMP JUMPDEST PUSH2 0x1A5C DUP2 DUP6 PUSH2 0x1A0C JUMP JUMPDEST SWAP4 POP PUSH2 0x1A6C DUP2 DUP6 PUSH1 0x20 DUP7 ADD PUSH2 0x1A1D JUMP JUMPDEST PUSH2 0x1A75 DUP2 PUSH2 0xED7 JUMP JUMPDEST DUP5 ADD SWAP2 POP POP SWAP3 SWAP2 POP POP JUMP JUMPDEST PUSH1 0x0 PUSH1 0xC0 DUP3 ADD SWAP1 POP PUSH2 0x1A95 PUSH1 0x0 DUP4 ADD DUP10 PUSH2 0x1498 JUMP JUMPDEST PUSH2 0x1AA2 PUSH1 0x20 DUP4 ADD DUP9 PUSH2 0x197C JUMP JUMPDEST PUSH2 0x1AAF PUSH1 0x40 DUP4 ADD DUP8 PUSH2 0x19B7 JUMP JUMPDEST PUSH2 0x1ABC PUSH1 0x60 DUP4 ADD DUP7 PUSH2 0x19F2 JUMP JUMPDEST PUSH2 0x1AC9 PUSH1 0x80 DUP4 ADD DUP6 PUSH2 0x14A7 JUMP JUMPDEST DUP2 DUP2 SUB PUSH1 0xA0 DUP4 ADD MSTORE PUSH2 0x1ADB DUP2 DUP5 PUSH2 0x1A47 JUMP JUMPDEST SWAP1 POP SWAP8 SWAP7 POP POP POP POP POP POP POP JUMP JUMPDEST PUSH1 0x0 DUP1 REVERT JUMPDEST PUSH1 0x0 PUSH8 0xFFFFFFFFFFFFFFFF DUP3 GT ISZERO PUSH2 0x1B08 JUMPI PUSH2 0x1B07 PUSH2 0xEE8 JUMP JUMPDEST JUMPDEST PUSH2 0x1B11 DUP3 PUSH2 0xED7 JUMP JUMPDEST SWAP1 POP PUSH1 0x20 DUP2 ADD SWAP1 POP SWAP2 SWAP1 POP JUMP JUMPDEST PUSH1 0x0 PUSH2 0x1B31 PUSH2 0x1B2C DUP5 PUSH2 0x1AED JUMP JUMPDEST PUSH2 0xF48 JUMP JUMPDEST SWAP1 POP DUP3 DUP2 MSTORE PUSH1 0x20 DUP2 ADD DUP5 DUP5 DUP5 ADD GT ISZERO PUSH2 0x1B4D JUMPI PUSH2 0x1B4C PUSH2 0x1AE8 JUMP JUMPDEST JUMPDEST PUSH2 0x1B58 DUP5 DUP3 DUP6 PUSH2 0x1A1D JUMP JUMPDEST POP SWAP4 SWAP3 POP POP POP JUMP JUMPDEST PUSH1 0x0 DUP3 PUSH1 0x1F DUP4 ADD SLT PUSH2 0x1B75 JUMPI PUSH2 0x1B74 PUSH2 0xED2 JUMP JUMPDEST JUMPDEST DUP2 MLOAD PUSH2 0x1B85 DUP5 DUP3 PUSH1 0x20 DUP7 ADD PUSH2 0x1B1E JUMP JUMPDEST SWAP2 POP POP SWAP3 SWAP2 POP POP JUMP JUMPDEST PUSH1 0x0 PUSH1 0x20 DUP3 DUP5 SUB SLT ISZERO PUSH2 0x1BA4 JUMPI PUSH2 0x1BA3 PUSH2 0xE6A JUMP JUMPDEST JUMPDEST PUSH1 0x0 DUP3 ADD MLOAD PUSH8 0xFFFFFFFFFFFFFFFF DUP2 GT ISZERO PUSH2 0x1BC2 JUMPI PUSH2 0x1BC1 PUSH2 0xE6F JUMP JUMPDEST JUMPDEST PUSH2 0x1BCE DUP5 DUP3 DUP6 ADD PUSH2 0x1B60 JUMP JUMPDEST SWAP2 POP POP SWAP3 SWAP2 POP POP JUMP JUMPDEST PUSH1 0x0 DUP2 SWAP1 POP SWAP3 SWAP2 POP POP JUMP JUMPDEST PUSH1 0x0 PUSH2 0x1BED DUP3 PUSH2 0x1A01 JUMP JUMPDEST PUSH2 0x1BF7 DUP2 DUP6 PUSH2 0x1BD7 JUMP JUMPDEST SWAP4 POP PUSH2 0x1C07 DUP2 DUP6 PUSH1 0x20 DUP7 ADD PUSH2 0x1A1D JUMP JUMPDEST DUP1 DUP5 ADD SWAP2 POP POP SWAP3 SWAP2 POP POP JUMP JUMPDEST PUSH1 0x0 PUSH2 0x1C1F DUP3 DUP5 PUSH2 0x1BE2 JUMP JUMPDEST SWAP2 POP DUP2 SWAP1 POP SWAP3 SWAP2 POP POP JUMP JUMPDEST PUSH1 0x0 PUSH1 0x60 DUP3 ADD SWAP1 POP DUP2 DUP2 SUB PUSH1 0x0 DUP4 ADD MSTORE PUSH2 0x1C44 DUP2 DUP7 PUSH2 0x17E5 JUMP JUMPDEST SWAP1 POP DUP2 DUP2 SUB PUSH1 0x20 DUP4 ADD MSTORE PUSH2 0x1C58 DUP2 DUP6 PUSH2 0x18A3 JUMP JUMPDEST SWAP1 POP PUSH2 0x1C67 PUSH1 0x40 DUP4 ADD DUP5 PUSH2 0x14A7 JUMP JUMPDEST SWAP5 SWAP4 POP POP POP POP JUMP JUMPDEST PUSH1 0x0 PUSH1 0x20 DUP3 ADD SWAP1 POP PUSH2 0x1C84 PUSH1 0x0 DUP4 ADD DUP5 PUSH2 0x1498 JUMP JUMPDEST SWAP3 SWAP2 POP POP JUMP JUMPDEST PUSH1 0x0 DUP2 MLOAD SWAP1 POP PUSH2 0x1C99 DUP2 PUSH2 0x1061 JUMP JUMPDEST SWAP3 SWAP2 POP POP JUMP JUMPDEST PUSH1 0x0 PUSH1 0x20 DUP3 DUP5 SUB SLT ISZERO PUSH2 0x1CB5 JUMPI PUSH2 0x1CB4 PUSH2 0xE6A JUMP JUMPDEST JUMPDEST PUSH1 0x0 PUSH2 0x1CC3 DUP5 DUP3 DUP6 ADD PUSH2 0x1C8A JUMP JUMPDEST SWAP2 POP POP SWAP3 SWAP2 POP POP JUMP JUMPDEST PUSH32 0x546F6B656E207472616E7366657246726F6D206661696C656421200000000000 PUSH1 0x0 DUP3 ADD MSTORE POP JUMP JUMPDEST PUSH1 0x0 PUSH2 0x1D02 PUSH1 0x1B DUP4 PUSH2 0x13C6 JUMP JUMPDEST SWAP2 POP PUSH2 0x1D0D DUP3 PUSH2 0x1CCC JUMP JUMPDEST PUSH1 0x20 DUP3 ADD SWAP1 POP SWAP2 SWAP1 POP JUMP JUMPDEST PUSH1 0x0 PUSH1 0x20 DUP3 ADD SWAP1 POP DUP2 DUP2 SUB PUSH1 0x0 DUP4 ADD MSTORE PUSH2 0x1D31 DUP2 PUSH2 0x1CF5 JUMP JUMPDEST SWAP1 POP SWAP2 SWAP1 POP JUMP JUMPDEST PUSH1 0x0 PUSH1 0xC0 DUP3 ADD SWAP1 POP PUSH2 0x1D4D PUSH1 0x0 DUP4 ADD DUP10 PUSH2 0x1498 JUMP JUMPDEST DUP2 DUP2 SUB PUSH1 0x20 DUP4 ADD MSTORE PUSH2 0x1D5F DUP2 DUP9 PUSH2 0x17E5 JUMP JUMPDEST SWAP1 POP DUP2 DUP2 SUB PUSH1 0x40 DUP4 ADD MSTORE PUSH2 0x1D73 DUP2 DUP8 PUSH2 0x18A3 JUMP JUMPDEST SWAP1 POP PUSH2 0x1D82 PUSH1 0x60 DUP4 ADD DUP7 PUSH2 0x14A7 JUMP JUMPDEST PUSH2 0x1D8F PUSH1 0x80 DUP4 ADD DUP6 PUSH2 0x14A7 JUMP JUMPDEST PUSH2 0x1D9C PUSH1 0xA0 DUP4 ADD DUP5 PUSH2 0x1498 JUMP JUMPDEST SWAP8 SWAP7 POP POP POP POP POP POP POP JUMP INVALID LOG2 PUSH5 0x6970667358 0x22 SLT KECCAK256 0xAA EXP 0xD0 0xE3 CREATE 0xB5 DUP16 PUSH25 0x8C59BC8C976F251A09C283B7CC7FADC9307EB6DF749221B464 PUSH20 0x6F6C634300081200330000000000000000000000 "
	},
	"Assembly": ".code\n  PUSH 80\t\t\tcontract DisDrop{\\r\\n\\r\\n    c...\n  PUSH 40\t\t\tcontract DisDrop{\\r\\n\\r\\n    c...\n  MSTORE \t\t\tcontract DisDrop{\\r\\n\\r\\n    c...\n  PUSH 802\t\t\tcts/utils/Predeploy.sol\";\\r\\ni...\n  PUSH 0\t\t\tISchedule  scheduler = ISchedu...\n  DUP1 \t\t\tISchedule  scheduler = ISchedu...\n  PUSH 100\t\t\tISchedule  scheduler = ISchedu...\n  EXP \t\t\tISchedule  scheduler = ISchedu...\n  DUP2 \t\t\tISchedule  scheduler = ISchedu...\n  SLOAD \t\t\tISchedule  scheduler = ISchedu...\n  DUP2 \t\t\tISchedule  scheduler = ISchedu...\n  PUSH FFFFFFFFFFFFFFFFFFFFFFFFFFFFFFFFFFFFFFFF\t\t\tISchedule  scheduler = ISchedu...\n  MUL \t\t\tISchedule  scheduler = ISchedu...\n  NOT \t\t\tISchedule  scheduler = ISchedu...\n  AND \t\t\tISchedule  scheduler = ISchedu...\n  SWAP1 \t\t\tISchedule  scheduler = ISchedu...\n  DUP4 \t\t\tISchedule  scheduler = ISchedu...\n  PUSH FFFFFFFFFFFFFFFFFFFFFFFFFFFFFFFFFFFFFFFF\t\t\tISchedule  scheduler = ISchedu...\n  AND \t\t\tISchedule  scheduler = ISchedu...\n  MUL \t\t\tISchedule  scheduler = ISchedu...\n  OR \t\t\tISchedule  scheduler = ISchedu...\n  SWAP1 \t\t\tISchedule  scheduler = ISchedu...\n  SSTORE \t\t\tISchedule  scheduler = ISchedu...\n  POP \t\t\tISchedule  scheduler = ISchedu...\n  PUSH 801\t\t\tla-network/contracts/oracle/IO...\n  PUSH 1\t\t\tIOracle oracle = IOracle(ORACL...\n  PUSH 0\t\t\tIOracle oracle = IOracle(ORACL...\n  PUSH 100\t\t\tIOracle oracle = IOracle(ORACL...\n  EXP \t\t\tIOracle oracle = IOracle(ORACL...\n  DUP2 \t\t\tIOracle oracle = IOracle(ORACL...\n  SLOAD \t\t\tIOracle oracle = IOracle(ORACL...\n  DUP2 \t\t\tIOracle oracle = IOracle(ORACL...\n  PUSH FFFFFFFFFFFFFFFFFFFFFFFFFFFFFFFFFFFFFFFF\t\t\tIOracle oracle = IOracle(ORACL...\n  MUL \t\t\tIOracle oracle = IOracle(ORACL...\n  NOT \t\t\tIOracle oracle = IOracle(ORACL...\n  AND \t\t\tIOracle oracle = IOracle(ORACL...\n  SWAP1 \t\t\tIOracle oracle = IOracle(ORACL...\n  DUP4 \t\t\tIOracle oracle = IOracle(ORACL...\n  PUSH FFFFFFFFFFFFFFFFFFFFFFFFFFFFFFFFFFFFFFFF\t\t\tIOracle oracle = IOracle(ORACL...\n  AND \t\t\tIOracle oracle = IOracle(ORACL...\n  MUL \t\t\tIOracle oracle = IOracle(ORACL...\n  OR \t\t\tIOracle oracle = IOracle(ORACL...\n  SWAP1 \t\t\tIOracle oracle = IOracle(ORACL...\n  SSTORE \t\t\tIOracle oracle = IOracle(ORACL...\n  POP \t\t\tIOracle oracle = IOracle(ORACL...\n  PUSH #[$] 0000000000000000000000000000000000000000000000000000000000000000\t\t\tcontract DisDrop{\\r\\n\\r\\n    c...\n  DUP1 \t\t\tcontract DisDrop{\\r\\n\\r\\n    c...\n  PUSH [$] 0000000000000000000000000000000000000000000000000000000000000000\t\t\tcontract DisDrop{\\r\\n\\r\\n    c...\n  PUSH 0\t\t\tcontract DisDrop{\\r\\n\\r\\n    c...\n  CODECOPY \t\t\tcontract DisDrop{\\r\\n\\r\\n    c...\n  PUSH 0\t\t\tcontract DisDrop{\\r\\n\\r\\n    c...\n  RETURN \t\t\tcontract DisDrop{\\r\\n\\r\\n    c...\n.data\n  0:\n    .code\n      PUSH 80\t\t\tcontract DisDrop{\\r\\n\\r\\n    c...\n      PUSH 40\t\t\tcontract DisDrop{\\r\\n\\r\\n    c...\n      MSTORE \t\t\tcontract DisDrop{\\r\\n\\r\\n    c...\n      PUSH 4\t\t\tcontract DisDrop{\\r\\n\\r\\n    c...\n      CALLDATASIZE \t\t\tcontract DisDrop{\\r\\n\\r\\n    c...\n      LT \t\t\tcontract DisDrop{\\r\\n\\r\\n    c...\n      PUSH [tag] 1\t\t\tcontract DisDrop{\\r\\n\\r\\n    c...\n      JUMPI \t\t\tcontract DisDrop{\\r\\n\\r\\n    c...\n      PUSH 0\t\t\tcontract DisDrop{\\r\\n\\r\\n    c...\n      CALLDATALOAD \t\t\tcontract DisDrop{\\r\\n\\r\\n    c...\n      PUSH E0\t\t\tcontract DisDrop{\\r\\n\\r\\n    c...\n      SHR \t\t\tcontract DisDrop{\\r\\n\\r\\n    c...\n      DUP1 \t\t\tcontract DisDrop{\\r\\n\\r\\n    c...\n      PUSH 46BA5FED\t\t\tcontract DisDrop{\\r\\n\\r\\n    c...\n      EQ \t\t\tcontract DisDrop{\\r\\n\\r\\n    c...\n      PUSH [tag] 3\t\t\tcontract DisDrop{\\r\\n\\r\\n    c...\n      JUMPI \t\t\tcontract DisDrop{\\r\\n\\r\\n    c...\n      DUP1 \t\t\tcontract DisDrop{\\r\\n\\r\\n    c...\n      PUSH 5B93F507\t\t\tcontract DisDrop{\\r\\n\\r\\n    c...\n      EQ \t\t\tcontract DisDrop{\\r\\n\\r\\n    c...\n      PUSH [tag] 4\t\t\tcontract DisDrop{\\r\\n\\r\\n    c...\n      JUMPI \t\t\tcontract DisDrop{\\r\\n\\r\\n    c...\n      DUP1 \t\t\tcontract DisDrop{\\r\\n\\r\\n    c...\n      PUSH AB54B1BA\t\t\tcontract DisDrop{\\r\\n\\r\\n    c...\n      EQ \t\t\tcontract DisDrop{\\r\\n\\r\\n    c...\n      PUSH [tag] 5\t\t\tcontract DisDrop{\\r\\n\\r\\n    c...\n      JUMPI \t\t\tcontract DisDrop{\\r\\n\\r\\n    c...\n      DUP1 \t\t\tcontract DisDrop{\\r\\n\\r\\n    c...\n      PUSH ED44B388\t\t\tcontract DisDrop{\\r\\n\\r\\n    c...\n      EQ \t\t\tcontract DisDrop{\\r\\n\\r\\n    c...\n      PUSH [tag] 6\t\t\tcontract DisDrop{\\r\\n\\r\\n    c...\n      JUMPI \t\t\tcontract DisDrop{\\r\\n\\r\\n    c...\n      DUP1 \t\t\tcontract DisDrop{\\r\\n\\r\\n    c...\n      PUSH F2B0244F\t\t\tcontract DisDrop{\\r\\n\\r\\n    c...\n      EQ \t\t\tcontract DisDrop{\\r\\n\\r\\n    c...\n      PUSH [tag] 7\t\t\tcontract DisDrop{\\r\\n\\r\\n    c...\n      JUMPI \t\t\tcontract DisDrop{\\r\\n\\r\\n    c...\n      PUSH [tag] 2\t\t\tcontract DisDrop{\\r\\n\\r\\n    c...\n      JUMP \t\t\tcontract DisDrop{\\r\\n\\r\\n    c...\n    tag 1\t\t\tcontract DisDrop{\\r\\n\\r\\n    c...\n      JUMPDEST \t\t\tcontract DisDrop{\\r\\n\\r\\n    c...\n      CALLDATASIZE \t\t\tcontract DisDrop{\\r\\n\\r\\n    c...\n      PUSH [tag] 2\t\t\tcontract DisDrop{\\r\\n\\r\\n    c...\n      JUMPI \t\t\tcontract DisDrop{\\r\\n\\r\\n    c...\n      STOP \t\t\tcontract DisDrop{\\r\\n\\r\\n    c...\n    tag 2\t\t\tcontract DisDrop{\\r\\n\\r\\n    c...\n      JUMPDEST \t\t\tcontract DisDrop{\\r\\n\\r\\n    c...\n      STOP \t\t\tcontract DisDrop{\\r\\n\\r\\n    c...\n    tag 3\t\t\tfunction executeERC20BatchTran...\n      JUMPDEST \t\t\tfunction executeERC20BatchTran...\n      CALLVALUE \t\t\tfunction executeERC20BatchTran...\n      DUP1 \t\t\tfunction executeERC20BatchTran...\n      ISZERO \t\t\tfunction executeERC20BatchTran...\n      PUSH [tag] 12\t\t\tfunction executeERC20BatchTran...\n      JUMPI \t\t\tfunction executeERC20BatchTran...\n      PUSH 0\t\t\tfunction executeERC20BatchTran...\n      DUP1 \t\t\tfunction executeERC20BatchTran...\n      REVERT \t\t\tfunction executeERC20BatchTran...\n    tag 12\t\t\tfunction executeERC20BatchTran...\n      JUMPDEST \t\t\tfunction executeERC20BatchTran...\n      POP \t\t\tfunction executeERC20BatchTran...\n      PUSH [tag] 13\t\t\tfunction executeERC20BatchTran...\n      PUSH 4\t\t\tfunction executeERC20BatchTran...\n      DUP1 \t\t\tfunction executeERC20BatchTran...\n      CALLDATASIZE \t\t\tfunction executeERC20BatchTran...\n      SUB \t\t\tfunction executeERC20BatchTran...\n      DUP2 \t\t\tfunction executeERC20BatchTran...\n      ADD \t\t\tfunction executeERC20BatchTran...\n      SWAP1 \t\t\tfunction executeERC20BatchTran...\n      PUSH [tag] 14\t\t\tfunction executeERC20BatchTran...\n      SWAP2 \t\t\tfunction executeERC20BatchTran...\n      SWAP1 \t\t\tfunction executeERC20BatchTran...\n      PUSH [tag] 15\t\t\tfunction executeERC20BatchTran...\n      JUMP \t\t\tfunction executeERC20BatchTran...\n    tag 14\t\t\tfunction executeERC20BatchTran...\n      JUMPDEST \t\t\tfunction executeERC20BatchTran...\n      PUSH [tag] 16\t\t\tfunction executeERC20BatchTran...\n      JUMP \t\t\tfunction executeERC20BatchTran...\n    tag 13\t\t\tfunction executeERC20BatchTran...\n      JUMPDEST \t\t\tfunction executeERC20BatchTran...\n      STOP \t\t\tfunction executeERC20BatchTran...\n    tag 4\t\t\tfunction scheduled_dispersal(a...\n      JUMPDEST \t\t\tfunction scheduled_dispersal(a...\n      PUSH [tag] 17\t\t\tfunction scheduled_dispersal(a...\n      PUSH 4\t\t\tfunction scheduled_dispersal(a...\n      DUP1 \t\t\tfunction scheduled_dispersal(a...\n      CALLDATASIZE \t\t\tfunction scheduled_dispersal(a...\n      SUB \t\t\tfunction scheduled_dispersal(a...\n      DUP2 \t\t\tfunction scheduled_dispersal(a...\n      ADD \t\t\tfunction scheduled_dispersal(a...\n      SWAP1 \t\t\tfunction scheduled_dispersal(a...\n      PUSH [tag] 18\t\t\tfunction scheduled_dispersal(a...\n      SWAP2 \t\t\tfunction scheduled_dispersal(a...\n      SWAP1 \t\t\tfunction scheduled_dispersal(a...\n      PUSH [tag] 19\t\t\tfunction scheduled_dispersal(a...\n      JUMP \t\t\tfunction scheduled_dispersal(a...\n    tag 18\t\t\tfunction scheduled_dispersal(a...\n      JUMPDEST \t\t\tfunction scheduled_dispersal(a...\n      PUSH [tag] 20\t\t\tfunction scheduled_dispersal(a...\n      JUMP \t\t\tfunction scheduled_dispersal(a...\n    tag 17\t\t\tfunction scheduled_dispersal(a...\n      JUMPDEST \t\t\tfunction scheduled_dispersal(a...\n      STOP \t\t\tfunction scheduled_dispersal(a...\n    tag 5\t\t\tfunction checkPriceandDisperse...\n      JUMPDEST \t\t\tfunction checkPriceandDisperse...\n      CALLVALUE \t\t\tfunction checkPriceandDisperse...\n      DUP1 \t\t\tfunction checkPriceandDisperse...\n      ISZERO \t\t\tfunction checkPriceandDisperse...\n      PUSH [tag] 21\t\t\tfunction checkPriceandDisperse...\n      JUMPI \t\t\tfunction checkPriceandDisperse...\n      PUSH 0\t\t\tfunction checkPriceandDisperse...\n      DUP1 \t\t\tfunction checkPriceandDisperse...\n      REVERT \t\t\tfunction checkPriceandDisperse...\n    tag 21\t\t\tfunction checkPriceandDisperse...\n      JUMPDEST \t\t\tfunction checkPriceandDisperse...\n      POP \t\t\tfunction checkPriceandDisperse...\n      PUSH [tag] 22\t\t\tfunction checkPriceandDisperse...\n      PUSH 4\t\t\tfunction checkPriceandDisperse...\n      DUP1 \t\t\tfunction checkPriceandDisperse...\n      CALLDATASIZE \t\t\tfunction checkPriceandDisperse...\n      SUB \t\t\tfunction checkPriceandDisperse...\n      DUP2 \t\t\tfunction checkPriceandDisperse...\n      ADD \t\t\tfunction checkPriceandDisperse...\n      SWAP1 \t\t\tfunction checkPriceandDisperse...\n      PUSH [tag] 23\t\t\tfunction checkPriceandDisperse...\n      SWAP2 \t\t\tfunction checkPriceandDisperse...\n      SWAP1 \t\t\tfunction checkPriceandDisperse...\n      PUSH [tag] 24\t\t\tfunction checkPriceandDisperse...\n      JUMP \t\t\tfunction checkPriceandDisperse...\n    tag 23\t\t\tfunction checkPriceandDisperse...\n      JUMPDEST \t\t\tfunction checkPriceandDisperse...\n      PUSH [tag] 25\t\t\tfunction checkPriceandDisperse...\n      JUMP \t\t\tfunction checkPriceandDisperse...\n    tag 22\t\t\tfunction checkPriceandDisperse...\n      JUMPDEST \t\t\tfunction checkPriceandDisperse...\n      STOP \t\t\tfunction checkPriceandDisperse...\n    tag 6\t\t\tfunction dispersal(address tok...\n      JUMPDEST \t\t\tfunction dispersal(address tok...\n      PUSH [tag] 26\t\t\tfunction dispersal(address tok...\n      PUSH 4\t\t\tfunction dispersal(address tok...\n      DUP1 \t\t\tfunction dispersal(address tok...\n      CALLDATASIZE \t\t\tfunction dispersal(address tok...\n      SUB \t\t\tfunction dispersal(address tok...\n      DUP2 \t\t\tfunction dispersal(address tok...\n      ADD \t\t\tfunction dispersal(address tok...\n      SWAP1 \t\t\tfunction dispersal(address tok...\n      PUSH [tag] 27\t\t\tfunction dispersal(address tok...\n      SWAP2 \t\t\tfunction dispersal(address tok...\n      SWAP1 \t\t\tfunction dispersal(address tok...\n      PUSH [tag] 15\t\t\tfunction dispersal(address tok...\n      JUMP \t\t\tfunction dispersal(address tok...\n    tag 27\t\t\tfunction dispersal(address tok...\n      JUMPDEST \t\t\tfunction dispersal(address tok...\n      PUSH [tag] 28\t\t\tfunction dispersal(address tok...\n      JUMP \t\t\tfunction dispersal(address tok...\n    tag 26\t\t\tfunction dispersal(address tok...\n      JUMPDEST \t\t\tfunction dispersal(address tok...\n      STOP \t\t\tfunction dispersal(address tok...\n    tag 7\t\t\tfunction priceTriggeredDispers...\n      JUMPDEST \t\t\tfunction priceTriggeredDispers...\n      PUSH [tag] 29\t\t\tfunction priceTriggeredDispers...\n      PUSH 4\t\t\tfunction priceTriggeredDispers...\n      DUP1 \t\t\tfunction priceTriggeredDispers...\n      CALLDATASIZE \t\t\tfunction priceTriggeredDispers...\n      SUB \t\t\tfunction priceTriggeredDispers...\n      DUP2 \t\t\tfunction priceTriggeredDispers...\n      ADD \t\t\tfunction priceTriggeredDispers...\n      SWAP1 \t\t\tfunction priceTriggeredDispers...\n      PUSH [tag] 30\t\t\tfunction priceTriggeredDispers...\n      SWAP2 \t\t\tfunction priceTriggeredDispers...\n      SWAP1 \t\t\tfunction priceTriggeredDispers...\n      PUSH [tag] 31\t\t\tfunction priceTriggeredDispers...\n      JUMP \t\t\tfunction priceTriggeredDispers...\n    tag 30\t\t\tfunction priceTriggeredDispers...\n      JUMPDEST \t\t\tfunction priceTriggeredDispers...\n      PUSH [tag] 32\t\t\tfunction priceTriggeredDispers...\n      JUMP \t\t\tfunction priceTriggeredDispers...\n    tag 29\t\t\tfunction priceTriggeredDispers...\n      JUMPDEST \t\t\tfunction priceTriggeredDispers...\n      STOP \t\t\tfunction priceTriggeredDispers...\n    tag 16\t\t\tfunction executeERC20BatchTran...\n      JUMPDEST \t\t\tfunction executeERC20BatchTran...\n      PUSH 0\t\t\tIERC20 token\n      DUP4 \t\t\ttokenAddress\n      SWAP1 \t\t\tIERC20 token = IERC20(tokenAdd...\n      POP \t\t\tIERC20 token = IERC20(tokenAdd...\n      DUP2 \t\t\tamounts\n      MLOAD \t\t\tamounts.length\n      DUP4 \t\t\trecipients\n      MLOAD \t\t\trecipients.length\n      EQ \t\t\trecipients.length == amounts.l...\n      PUSH [tag] 34\t\t\trequire(recipients.length == a...\n      JUMPI \t\t\trequire(recipients.length == a...\n      PUSH 40\t\t\trequire(recipients.length == a...\n      MLOAD \t\t\trequire(recipients.length == a...\n      PUSH 8C379A000000000000000000000000000000000000000000000000000000000\t\t\trequire(recipients.length == a...\n      DUP2 \t\t\trequire(recipients.length == a...\n      MSTORE \t\t\trequire(recipients.length == a...\n      PUSH 4\t\t\trequire(recipients.length == a...\n      ADD \t\t\trequire(recipients.length == a...\n      PUSH [tag] 35\t\t\trequire(recipients.length == a...\n      SWAP1 \t\t\trequire(recipients.length == a...\n      PUSH [tag] 36\t\t\trequire(recipients.length == a...\n      JUMP \t\t\trequire(recipients.length == a...\n    tag 35\t\t\trequire(recipients.length == a...\n      JUMPDEST \t\t\trequire(recipients.length == a...\n      PUSH 40\t\t\trequire(recipients.length == a...\n      MLOAD \t\t\trequire(recipients.length == a...\n      DUP1 \t\t\trequire(recipients.length == a...\n      SWAP2 \t\t\trequire(recipients.length == a...\n      SUB \t\t\trequire(recipients.length == a...\n      SWAP1 \t\t\trequire(recipients.length == a...\n      REVERT \t\t\trequire(recipients.length == a...\n    tag 34\t\t\trequire(recipients.length == a...\n      JUMPDEST \t\t\trequire(recipients.length == a...\n      PUSH 0\t\t\tuint256 i\n    tag 37\t\t\tfor (uint256 i = 0; i < recipi...\n      JUMPDEST \t\t\tfor (uint256 i = 0; i < recipi...\n      DUP4 \t\t\trecipients\n      MLOAD \t\t\trecipients.length\n      DUP2 \t\t\ti\n      LT \t\t\ti < recipients.length\n      ISZERO \t\t\tfor (uint256 i = 0; i < recipi...\n      PUSH [tag] 38\t\t\tfor (uint256 i = 0; i < recipi...\n      JUMPI \t\t\tfor (uint256 i = 0; i < recipi...\n      DUP2 \t\t\ttoken\n      PUSH FFFFFFFFFFFFFFFFFFFFFFFFFFFFFFFFFFFFFFFF\t\t\ttoken.transfer\n      AND \t\t\ttoken.transfer\n      PUSH A9059CBB\t\t\ttoken.transfer\n      DUP6 \t\t\trecipients\n      DUP4 \t\t\ti\n      DUP2 \t\t\trecipients[i]\n      MLOAD \t\t\trecipients[i]\n      DUP2 \t\t\trecipients[i]\n      LT \t\t\trecipients[i]\n      PUSH [tag] 40\t\t\trecipients[i]\n      JUMPI \t\t\trecipients[i]\n      PUSH [tag] 41\t\t\trecipients[i]\n      PUSH [tag] 42\t\t\trecipients[i]\n      JUMP \t\t\trecipients[i]\n    tag 41\t\t\trecipients[i]\n      JUMPDEST \t\t\trecipients[i]\n    tag 40\t\t\trecipients[i]\n      JUMPDEST \t\t\trecipients[i]\n      PUSH 20\t\t\trecipients[i]\n      MUL \t\t\trecipients[i]\n      PUSH 20\t\t\trecipients[i]\n      ADD \t\t\trecipients[i]\n      ADD \t\t\trecipients[i]\n      MLOAD \t\t\trecipients[i]\n      DUP6 \t\t\tamounts\n      DUP5 \t\t\ti\n      DUP2 \t\t\tamounts[i]\n      MLOAD \t\t\tamounts[i]\n      DUP2 \t\t\tamounts[i]\n      LT \t\t\tamounts[i]\n      PUSH [tag] 43\t\t\tamounts[i]\n      JUMPI \t\t\tamounts[i]\n      PUSH [tag] 44\t\t\tamounts[i]\n      PUSH [tag] 42\t\t\tamounts[i]\n      JUMP \t\t\tamounts[i]\n    tag 44\t\t\tamounts[i]\n      JUMPDEST \t\t\tamounts[i]\n    tag 43\t\t\tamounts[i]\n      JUMPDEST \t\t\tamounts[i]\n      PUSH 20\t\t\tamounts[i]\n      MUL \t\t\tamounts[i]\n      PUSH 20\t\t\tamounts[i]\n      ADD \t\t\tamounts[i]\n      ADD \t\t\tamounts[i]\n      MLOAD \t\t\tamounts[i]\n      PUSH 40\t\t\ttoken.transfer(recipients[i], ...\n      MLOAD \t\t\ttoken.transfer(recipients[i], ...\n      DUP4 \t\t\ttoken.transfer(recipients[i], ...\n      PUSH FFFFFFFF\t\t\ttoken.transfer(recipients[i], ...\n      AND \t\t\ttoken.transfer(recipients[i], ...\n      PUSH E0\t\t\ttoken.transfer(recipients[i], ...\n      SHL \t\t\ttoken.transfer(recipients[i], ...\n      DUP2 \t\t\ttoken.transfer(recipients[i], ...\n      MSTORE \t\t\ttoken.transfer(recipients[i], ...\n      PUSH 4\t\t\ttoken.transfer(recipients[i], ...\n      ADD \t\t\ttoken.transfer(recipients[i], ...\n      PUSH [tag] 45\t\t\ttoken.transfer(recipients[i], ...\n      SWAP3 \t\t\ttoken.transfer(recipients[i], ...\n      SWAP2 \t\t\ttoken.transfer(recipients[i], ...\n      SWAP1 \t\t\ttoken.transfer(recipients[i], ...\n      PUSH [tag] 46\t\t\ttoken.transfer(recipients[i], ...\n      JUMP \t\t\ttoken.transfer(recipients[i], ...\n    tag 45\t\t\ttoken.transfer(recipients[i], ...\n      JUMPDEST \t\t\ttoken.transfer(recipients[i], ...\n      PUSH 20\t\t\ttoken.transfer(recipients[i], ...\n      PUSH 40\t\t\ttoken.transfer(recipients[i], ...\n      MLOAD \t\t\ttoken.transfer(recipients[i], ...\n      DUP1 \t\t\ttoken.transfer(recipients[i], ...\n      DUP4 \t\t\ttoken.transfer(recipients[i], ...\n      SUB \t\t\ttoken.transfer(recipients[i], ...\n      DUP2 \t\t\ttoken.transfer(recipients[i], ...\n      PUSH 0\t\t\ttoken.transfer(recipients[i], ...\n      DUP8 \t\t\ttoken.transfer(recipients[i], ...\n      GAS \t\t\ttoken.transfer(recipients[i], ...\n      CALL \t\t\ttoken.transfer(recipients[i], ...\n      ISZERO \t\t\ttoken.transfer(recipients[i], ...\n      DUP1 \t\t\ttoken.transfer(recipients[i], ...\n      ISZERO \t\t\ttoken.transfer(recipients[i], ...\n      PUSH [tag] 48\t\t\ttoken.transfer(recipients[i], ...\n      JUMPI \t\t\ttoken.transfer(recipients[i], ...\n      RETURNDATASIZE \t\t\ttoken.transfer(recipients[i], ...\n      PUSH 0\t\t\ttoken.transfer(recipients[i], ...\n      DUP1 \t\t\ttoken.transfer(recipients[i], ...\n      RETURNDATACOPY \t\t\ttoken.transfer(recipients[i], ...\n      RETURNDATASIZE \t\t\ttoken.transfer(recipients[i], ...\n      PUSH 0\t\t\ttoken.transfer(recipients[i], ...\n      REVERT \t\t\ttoken.transfer(recipients[i], ...\n    tag 48\t\t\ttoken.transfer(recipients[i], ...\n      JUMPDEST \t\t\ttoken.transfer(recipients[i], ...\n      POP \t\t\ttoken.transfer(recipients[i], ...\n      POP \t\t\ttoken.transfer(recipients[i], ...\n      POP \t\t\ttoken.transfer(recipients[i], ...\n      POP \t\t\ttoken.transfer(recipients[i], ...\n      PUSH 40\t\t\ttoken.transfer(recipients[i], ...\n      MLOAD \t\t\ttoken.transfer(recipients[i], ...\n      RETURNDATASIZE \t\t\ttoken.transfer(recipients[i], ...\n      PUSH 1F\t\t\ttoken.transfer(recipients[i], ...\n      NOT \t\t\ttoken.transfer(recipients[i], ...\n      PUSH 1F\t\t\ttoken.transfer(recipients[i], ...\n      DUP3 \t\t\ttoken.transfer(recipients[i], ...\n      ADD \t\t\ttoken.transfer(recipients[i], ...\n      AND \t\t\ttoken.transfer(recipients[i], ...\n      DUP3 \t\t\ttoken.transfer(recipients[i], ...\n      ADD \t\t\ttoken.transfer(recipients[i], ...\n      DUP1 \t\t\ttoken.transfer(recipients[i], ...\n      PUSH 40\t\t\ttoken.transfer(recipients[i], ...\n      MSTORE \t\t\ttoken.transfer(recipients[i], ...\n      POP \t\t\ttoken.transfer(recipients[i], ...\n      DUP2 \t\t\ttoken.transfer(recipients[i], ...\n      ADD \t\t\ttoken.transfer(recipients[i], ...\n      SWAP1 \t\t\ttoken.transfer(recipients[i], ...\n      PUSH [tag] 49\t\t\ttoken.transfer(recipients[i], ...\n      SWAP2 \t\t\ttoken.transfer(recipients[i], ...\n      SWAP1 \t\t\ttoken.transfer(recipients[i], ...\n      PUSH [tag] 50\t\t\ttoken.transfer(recipients[i], ...\n      JUMP \t\t\ttoken.transfer(recipients[i], ...\n    tag 49\t\t\ttoken.transfer(recipients[i], ...\n      JUMPDEST \t\t\ttoken.transfer(recipients[i], ...\n      PUSH [tag] 51\t\t\trequire(token.transfer(recipie...\n      JUMPI \t\t\trequire(token.transfer(recipie...\n      PUSH 40\t\t\trequire(token.transfer(recipie...\n      MLOAD \t\t\trequire(token.transfer(recipie...\n      PUSH 8C379A000000000000000000000000000000000000000000000000000000000\t\t\trequire(token.transfer(recipie...\n      DUP2 \t\t\trequire(token.transfer(recipie...\n      MSTORE \t\t\trequire(token.transfer(recipie...\n      PUSH 4\t\t\trequire(token.transfer(recipie...\n      ADD \t\t\trequire(token.transfer(recipie...\n      PUSH [tag] 52\t\t\trequire(token.transfer(recipie...\n      SWAP1 \t\t\trequire(token.transfer(recipie...\n      PUSH [tag] 53\t\t\trequire(token.transfer(recipie...\n      JUMP \t\t\trequire(token.transfer(recipie...\n    tag 52\t\t\trequire(token.transfer(recipie...\n      JUMPDEST \t\t\trequire(token.transfer(recipie...\n      PUSH 40\t\t\trequire(token.transfer(recipie...\n      MLOAD \t\t\trequire(token.transfer(recipie...\n      DUP1 \t\t\trequire(token.transfer(recipie...\n      SWAP2 \t\t\trequire(token.transfer(recipie...\n      SUB \t\t\trequire(token.transfer(recipie...\n      SWAP1 \t\t\trequire(token.transfer(recipie...\n      REVERT \t\t\trequire(token.transfer(recipie...\n    tag 51\t\t\trequire(token.transfer(recipie...\n      JUMPDEST \t\t\trequire(token.transfer(recipie...\n      DUP4 \t\t\trecipients\n      DUP2 \t\t\ti\n      DUP2 \t\t\trecipients[i]\n      MLOAD \t\t\trecipients[i]\n      DUP2 \t\t\trecipients[i]\n      LT \t\t\trecipients[i]\n      PUSH [tag] 54\t\t\trecipients[i]\n      JUMPI \t\t\trecipients[i]\n      PUSH [tag] 55\t\t\trecipients[i]\n      PUSH [tag] 42\t\t\trecipients[i]\n      JUMP \t\t\trecipients[i]\n    tag 55\t\t\trecipients[i]\n      JUMPDEST \t\t\trecipients[i]\n    tag 54\t\t\trecipients[i]\n      JUMPDEST \t\t\trecipients[i]\n      PUSH 20\t\t\trecipients[i]\n      MUL \t\t\trecipients[i]\n      PUSH 20\t\t\trecipients[i]\n      ADD \t\t\trecipients[i]\n      ADD \t\t\trecipients[i]\n      MLOAD \t\t\trecipients[i]\n      PUSH FFFFFFFFFFFFFFFFFFFFFFFFFFFFFFFFFFFFFFFF\t\t\tErc20BatchTransfer(i, recipien...\n      AND \t\t\tErc20BatchTransfer(i, recipien...\n      DUP2 \t\t\ti\n      PUSH B9471439BD4C23F19D2B486548FA6061AB17E1DA9815F325F2A2B29F22E715E3\t\t\tErc20BatchTransfer(i, recipien...\n      DUP6 \t\t\tamounts\n      DUP5 \t\t\ti\n      DUP2 \t\t\tamounts[i]\n      MLOAD \t\t\tamounts[i]\n      DUP2 \t\t\tamounts[i]\n      LT \t\t\tamounts[i]\n      PUSH [tag] 56\t\t\tamounts[i]\n      JUMPI \t\t\tamounts[i]\n      PUSH [tag] 57\t\t\tamounts[i]\n      PUSH [tag] 42\t\t\tamounts[i]\n      JUMP \t\t\tamounts[i]\n    tag 57\t\t\tamounts[i]\n      JUMPDEST \t\t\tamounts[i]\n    tag 56\t\t\tamounts[i]\n      JUMPDEST \t\t\tamounts[i]\n      PUSH 20\t\t\tamounts[i]\n      MUL \t\t\tamounts[i]\n      PUSH 20\t\t\tamounts[i]\n      ADD \t\t\tamounts[i]\n      ADD \t\t\tamounts[i]\n      MLOAD \t\t\tamounts[i]\n      PUSH 40\t\t\tErc20BatchTransfer(i, recipien...\n      MLOAD \t\t\tErc20BatchTransfer(i, recipien...\n      PUSH [tag] 58\t\t\tErc20BatchTransfer(i, recipien...\n      SWAP2 \t\t\tErc20BatchTransfer(i, recipien...\n      SWAP1 \t\t\tErc20BatchTransfer(i, recipien...\n      PUSH [tag] 59\t\t\tErc20BatchTransfer(i, recipien...\n      JUMP \t\t\tErc20BatchTransfer(i, recipien...\n    tag 58\t\t\tErc20BatchTransfer(i, recipien...\n      JUMPDEST \t\t\tErc20BatchTransfer(i, recipien...\n      PUSH 40\t\t\tErc20BatchTransfer(i, recipien...\n      MLOAD \t\t\tErc20BatchTransfer(i, recipien...\n      DUP1 \t\t\tErc20BatchTransfer(i, recipien...\n      SWAP2 \t\t\tErc20BatchTransfer(i, recipien...\n      SUB \t\t\tErc20BatchTransfer(i, recipien...\n      SWAP1 \t\t\tErc20BatchTransfer(i, recipien...\n      LOG3 \t\t\tErc20BatchTransfer(i, recipien...\n      DUP1 \t\t\ti++\n      DUP1 \t\t\ti++\n      PUSH [tag] 60\t\t\ti++\n      SWAP1 \t\t\ti++\n      PUSH [tag] 61\t\t\ti++\n      JUMP \t\t\ti++\n    tag 60\t\t\ti++\n      JUMPDEST \t\t\ti++\n      SWAP2 \t\t\ti++\n      POP \t\t\ti++\n      POP \t\t\ti++\n      PUSH [tag] 37\t\t\tfor (uint256 i = 0; i < recipi...\n      JUMP \t\t\tfor (uint256 i = 0; i < recipi...\n    tag 38\t\t\tfor (uint256 i = 0; i < recipi...\n      JUMPDEST \t\t\tfor (uint256 i = 0; i < recipi...\n      POP \t\t\tfor (uint256 i = 0; i < recipi...\n      POP \t\t\t{\\r\\n        IERC20 token = IE...\n      POP \t\t\tfunction executeERC20BatchTran...\n      POP \t\t\tfunction executeERC20BatchTran...\n      POP \t\t\tfunction executeERC20BatchTran...\n      JUMP \t\t\tfunction executeERC20BatchTran...\n    tag 20\t\t\tfunction scheduled_dispersal(a...\n      JUMPDEST \t\t\tfunction scheduled_dispersal(a...\n      PUSH 0\t\t\tIERC20 token\n      DUP5 \t\t\ttokenAddress\n      SWAP1 \t\t\tIERC20 token = IERC20(tokenAdd...\n      POP \t\t\tIERC20 token = IERC20(tokenAdd...\n      DUP3 \t\t\tamounts\n      MLOAD \t\t\tamounts.length\n      DUP5 \t\t\trecipients\n      MLOAD \t\t\trecipients.length\n      EQ \t\t\trecipients.length == amounts.l...\n      PUSH [tag] 63\t\t\trequire(recipients.length == a...\n      JUMPI \t\t\trequire(recipients.length == a...\n      PUSH 40\t\t\trequire(recipients.length == a...\n      MLOAD \t\t\trequire(recipients.length == a...\n      PUSH 8C379A000000000000000000000000000000000000000000000000000000000\t\t\trequire(recipients.length == a...\n      DUP2 \t\t\trequire(recipients.length == a...\n      MSTORE \t\t\trequire(recipients.length == a...\n      PUSH 4\t\t\trequire(recipients.length == a...\n      ADD \t\t\trequire(recipients.length == a...\n      PUSH [tag] 64\t\t\trequire(recipients.length == a...\n      SWAP1 \t\t\trequire(recipients.length == a...\n      PUSH [tag] 65\t\t\trequire(recipients.length == a...\n      JUMP \t\t\trequire(recipients.length == a...\n    tag 64\t\t\trequire(recipients.length == a...\n      JUMPDEST \t\t\trequire(recipients.length == a...\n      PUSH 40\t\t\trequire(recipients.length == a...\n      MLOAD \t\t\trequire(recipients.length == a...\n      DUP1 \t\t\trequire(recipients.length == a...\n      SWAP2 \t\t\trequire(recipients.length == a...\n      SUB \t\t\trequire(recipients.length == a...\n      SWAP1 \t\t\trequire(recipients.length == a...\n      REVERT \t\t\trequire(recipients.length == a...\n    tag 63\t\t\trequire(recipients.length == a...\n      JUMPDEST \t\t\trequire(recipients.length == a...\n      PUSH 0\t\t\tuint256 total\n      DUP1 \t\t\tuint256 i\n    tag 66\t\t\tfor (uint256 i = 0; i < amount...\n      JUMPDEST \t\t\tfor (uint256 i = 0; i < amount...\n      DUP5 \t\t\tamounts\n      MLOAD \t\t\tamounts.length\n      DUP2 \t\t\ti\n      LT \t\t\ti < amounts.length\n      ISZERO \t\t\tfor (uint256 i = 0; i < amount...\n      PUSH [tag] 67\t\t\tfor (uint256 i = 0; i < amount...\n      JUMPI \t\t\tfor (uint256 i = 0; i < amount...\n      DUP5 \t\t\tamounts\n      DUP2 \t\t\ti\n      DUP2 \t\t\tamounts[i]\n      MLOAD \t\t\tamounts[i]\n      DUP2 \t\t\tamounts[i]\n      LT \t\t\tamounts[i]\n      PUSH [tag] 69\t\t\tamounts[i]\n      JUMPI \t\t\tamounts[i]\n      PUSH [tag] 70\t\t\tamounts[i]\n      PUSH [tag] 42\t\t\tamounts[i]\n      JUMP \t\t\tamounts[i]\n    tag 70\t\t\tamounts[i]\n      JUMPDEST \t\t\tamounts[i]\n    tag 69\t\t\tamounts[i]\n      JUMPDEST \t\t\tamounts[i]\n      PUSH 20\t\t\tamounts[i]\n      MUL \t\t\tamounts[i]\n      PUSH 20\t\t\tamounts[i]\n      ADD \t\t\tamounts[i]\n      ADD \t\t\tamounts[i]\n      MLOAD \t\t\tamounts[i]\n      DUP3 \t\t\ttotal\n      PUSH [tag] 71\t\t\ttotal + amounts[i]\n      SWAP2 \t\t\ttotal + amounts[i]\n      SWAP1 \t\t\ttotal + amounts[i]\n      PUSH [tag] 72\t\t\ttotal + amounts[i]\n      JUMP \t\t\ttotal + amounts[i]\n    tag 71\t\t\ttotal + amounts[i]\n      JUMPDEST \t\t\ttotal + amounts[i]\n      SWAP2 \t\t\ttotal = total + amounts[i]\n      POP \t\t\ttotal = total + amounts[i]\n      DUP1 \t\t\ti++\n      DUP1 \t\t\ti++\n      PUSH [tag] 73\t\t\ti++\n      SWAP1 \t\t\ti++\n      PUSH [tag] 61\t\t\ti++\n      JUMP \t\t\ti++\n    tag 73\t\t\ti++\n      JUMPDEST \t\t\ti++\n      SWAP2 \t\t\ti++\n      POP \t\t\ti++\n      POP \t\t\ti++\n      PUSH [tag] 66\t\t\tfor (uint256 i = 0; i < amount...\n      JUMP \t\t\tfor (uint256 i = 0; i < amount...\n    tag 67\t\t\tfor (uint256 i = 0; i < amount...\n      JUMPDEST \t\t\tfor (uint256 i = 0; i < amount...\n      POP \t\t\tfor (uint256 i = 0; i < amount...\n      DUP2 \t\t\ttoken\n      PUSH FFFFFFFFFFFFFFFFFFFFFFFFFFFFFFFFFFFFFFFF\t\t\ttoken.transferFrom\n      AND \t\t\ttoken.transferFrom\n      PUSH 23B872DD\t\t\ttoken.transferFrom\n      CALLER \t\t\tmsg.sender\n      ADDRESS \t\t\tthis\n      DUP5 \t\t\ttotal\n      PUSH 40\t\t\ttoken.transferFrom(msg.sender,...\n      MLOAD \t\t\ttoken.transferFrom(msg.sender,...\n      DUP5 \t\t\ttoken.transferFrom(msg.sender,...\n      PUSH FFFFFFFF\t\t\ttoken.transferFrom(msg.sender,...\n      AND \t\t\ttoken.transferFrom(msg.sender,...\n      PUSH E0\t\t\ttoken.transferFrom(msg.sender,...\n      SHL \t\t\ttoken.transferFrom(msg.sender,...\n      DUP2 \t\t\ttoken.transferFrom(msg.sender,...\n      MSTORE \t\t\ttoken.transferFrom(msg.sender,...\n      PUSH 4\t\t\ttoken.transferFrom(msg.sender,...\n      ADD \t\t\ttoken.transferFrom(msg.sender,...\n      PUSH [tag] 74\t\t\ttoken.transferFrom(msg.sender,...\n      SWAP4 \t\t\ttoken.transferFrom(msg.sender,...\n      SWAP3 \t\t\ttoken.transferFrom(msg.sender,...\n      SWAP2 \t\t\ttoken.transferFrom(msg.sender,...\n      SWAP1 \t\t\ttoken.transferFrom(msg.sender,...\n      PUSH [tag] 75\t\t\ttoken.transferFrom(msg.sender,...\n      JUMP \t\t\ttoken.transferFrom(msg.sender,...\n    tag 74\t\t\ttoken.transferFrom(msg.sender,...\n      JUMPDEST \t\t\ttoken.transferFrom(msg.sender,...\n      PUSH 20\t\t\ttoken.transferFrom(msg.sender,...\n      PUSH 40\t\t\ttoken.transferFrom(msg.sender,...\n      MLOAD \t\t\ttoken.transferFrom(msg.sender,...\n      DUP1 \t\t\ttoken.transferFrom(msg.sender,...\n      DUP4 \t\t\ttoken.transferFrom(msg.sender,...\n      SUB \t\t\ttoken.transferFrom(msg.sender,...\n      DUP2 \t\t\ttoken.transferFrom(msg.sender,...\n      PUSH 0\t\t\ttoken.transferFrom(msg.sender,...\n      DUP8 \t\t\ttoken.transferFrom(msg.sender,...\n      GAS \t\t\ttoken.transferFrom(msg.sender,...\n      CALL \t\t\ttoken.transferFrom(msg.sender,...\n      ISZERO \t\t\ttoken.transferFrom(msg.sender,...\n      DUP1 \t\t\ttoken.transferFrom(msg.sender,...\n      ISZERO \t\t\ttoken.transferFrom(msg.sender,...\n      PUSH [tag] 77\t\t\ttoken.transferFrom(msg.sender,...\n      JUMPI \t\t\ttoken.transferFrom(msg.sender,...\n      RETURNDATASIZE \t\t\ttoken.transferFrom(msg.sender,...\n      PUSH 0\t\t\ttoken.transferFrom(msg.sender,...\n      DUP1 \t\t\ttoken.transferFrom(msg.sender,...\n      RETURNDATACOPY \t\t\ttoken.transferFrom(msg.sender,...\n      RETURNDATASIZE \t\t\ttoken.transferFrom(msg.sender,...\n      PUSH 0\t\t\ttoken.transferFrom(msg.sender,...\n      REVERT \t\t\ttoken.transferFrom(msg.sender,...\n    tag 77\t\t\ttoken.transferFrom(msg.sender,...\n      JUMPDEST \t\t\ttoken.transferFrom(msg.sender,...\n      POP \t\t\ttoken.transferFrom(msg.sender,...\n      POP \t\t\ttoken.transferFrom(msg.sender,...\n      POP \t\t\ttoken.transferFrom(msg.sender,...\n      POP \t\t\ttoken.transferFrom(msg.sender,...\n      PUSH 40\t\t\ttoken.transferFrom(msg.sender,...\n      MLOAD \t\t\ttoken.transferFrom(msg.sender,...\n      RETURNDATASIZE \t\t\ttoken.transferFrom(msg.sender,...\n      PUSH 1F\t\t\ttoken.transferFrom(msg.sender,...\n      NOT \t\t\ttoken.transferFrom(msg.sender,...\n      PUSH 1F\t\t\ttoken.transferFrom(msg.sender,...\n      DUP3 \t\t\ttoken.transferFrom(msg.sender,...\n      ADD \t\t\ttoken.transferFrom(msg.sender,...\n      AND \t\t\ttoken.transferFrom(msg.sender,...\n      DUP3 \t\t\ttoken.transferFrom(msg.sender,...\n      ADD \t\t\ttoken.transferFrom(msg.sender,...\n      DUP1 \t\t\ttoken.transferFrom(msg.sender,...\n      PUSH 40\t\t\ttoken.transferFrom(msg.sender,...\n      MSTORE \t\t\ttoken.transferFrom(msg.sender,...\n      POP \t\t\ttoken.transferFrom(msg.sender,...\n      DUP2 \t\t\ttoken.transferFrom(msg.sender,...\n      ADD \t\t\ttoken.transferFrom(msg.sender,...\n      SWAP1 \t\t\ttoken.transferFrom(msg.sender,...\n      PUSH [tag] 78\t\t\ttoken.transferFrom(msg.sender,...\n      SWAP2 \t\t\ttoken.transferFrom(msg.sender,...\n      SWAP1 \t\t\ttoken.transferFrom(msg.sender,...\n      PUSH [tag] 50\t\t\ttoken.transferFrom(msg.sender,...\n      JUMP \t\t\ttoken.transferFrom(msg.sender,...\n    tag 78\t\t\ttoken.transferFrom(msg.sender,...\n      JUMPDEST \t\t\ttoken.transferFrom(msg.sender,...\n      PUSH [tag] 79\t\t\trequire(token.transferFrom(msg...\n      JUMPI \t\t\trequire(token.transferFrom(msg...\n      PUSH 40\t\t\trequire(token.transferFrom(msg...\n      MLOAD \t\t\trequire(token.transferFrom(msg...\n      PUSH 8C379A000000000000000000000000000000000000000000000000000000000\t\t\trequire(token.transferFrom(msg...\n      DUP2 \t\t\trequire(token.transferFrom(msg...\n      MSTORE \t\t\trequire(token.transferFrom(msg...\n      PUSH 4\t\t\trequire(token.transferFrom(msg...\n      ADD \t\t\trequire(token.transferFrom(msg...\n      PUSH [tag] 80\t\t\trequire(token.transferFrom(msg...\n      SWAP1 \t\t\trequire(token.transferFrom(msg...\n      PUSH [tag] 81\t\t\trequire(token.transferFrom(msg...\n      JUMP \t\t\trequire(token.transferFrom(msg...\n    tag 80\t\t\trequire(token.transferFrom(msg...\n      JUMPDEST \t\t\trequire(token.transferFrom(msg...\n      PUSH 40\t\t\trequire(token.transferFrom(msg...\n      MLOAD \t\t\trequire(token.transferFrom(msg...\n      DUP1 \t\t\trequire(token.transferFrom(msg...\n      SWAP2 \t\t\trequire(token.transferFrom(msg...\n      SUB \t\t\trequire(token.transferFrom(msg...\n      SWAP1 \t\t\trequire(token.transferFrom(msg...\n      REVERT \t\t\trequire(token.transferFrom(msg...\n    tag 79\t\t\trequire(token.transferFrom(msg...\n      JUMPDEST \t\t\trequire(token.transferFrom(msg...\n      PUSH 0\t\t\tbytes memory data\n      DUP7 \t\t\ttokenAddress\n      DUP7 \t\t\trecipients\n      DUP7 \t\t\tamounts\n      PUSH 40\t\t\tabi.encodeWithSignature(\"execu...\n      MLOAD \t\t\tabi.encodeWithSignature(\"execu...\n      PUSH 24\t\t\tabi.encodeWithSignature(\"execu...\n      ADD \t\t\tabi.encodeWithSignature(\"execu...\n      PUSH [tag] 82\t\t\tabi.encodeWithSignature(\"execu...\n      SWAP4 \t\t\tabi.encodeWithSignature(\"execu...\n      SWAP3 \t\t\tabi.encodeWithSignature(\"execu...\n      SWAP2 \t\t\tabi.encodeWithSignature(\"execu...\n      SWAP1 \t\t\tabi.encodeWithSignature(\"execu...\n      PUSH [tag] 83\t\t\tabi.encodeWithSignature(\"execu...\n      JUMP \t\t\tabi.encodeWithSignature(\"execu...\n    tag 82\t\t\tabi.encodeWithSignature(\"execu...\n      JUMPDEST \t\t\tabi.encodeWithSignature(\"execu...\n      PUSH 40\t\t\tabi.encodeWithSignature(\"execu...\n      MLOAD \t\t\tabi.encodeWithSignature(\"execu...\n      PUSH 20\t\t\tabi.encodeWithSignature(\"execu...\n      DUP2 \t\t\tabi.encodeWithSignature(\"execu...\n      DUP4 \t\t\tabi.encodeWithSignature(\"execu...\n      SUB \t\t\tabi.encodeWithSignature(\"execu...\n      SUB \t\t\tabi.encodeWithSignature(\"execu...\n      DUP2 \t\t\tabi.encodeWithSignature(\"execu...\n      MSTORE \t\t\tabi.encodeWithSignature(\"execu...\n      SWAP1 \t\t\tabi.encodeWithSignature(\"execu...\n      PUSH 40\t\t\tabi.encodeWithSignature(\"execu...\n      MSTORE \t\t\tabi.encodeWithSignature(\"execu...\n      PUSH 46BA5FED00000000000000000000000000000000000000000000000000000000\t\t\tabi.encodeWithSignature(\"execu...\n      PUSH FFFFFFFFFFFFFFFFFFFFFFFFFFFFFFFFFFFFFFFFFFFFFFFFFFFFFFFF\t\t\tabi.encodeWithSignature(\"execu...\n      NOT \t\t\tabi.encodeWithSignature(\"execu...\n      AND \t\t\tabi.encodeWithSignature(\"execu...\n      PUSH 20\t\t\tabi.encodeWithSignature(\"execu...\n      DUP3 \t\t\tabi.encodeWithSignature(\"execu...\n      ADD \t\t\tabi.encodeWithSignature(\"execu...\n      DUP1 \t\t\tabi.encodeWithSignature(\"execu...\n      MLOAD \t\t\tabi.encodeWithSignature(\"execu...\n      PUSH FFFFFFFFFFFFFFFFFFFFFFFFFFFFFFFFFFFFFFFFFFFFFFFFFFFFFFFF\t\t\tabi.encodeWithSignature(\"execu...\n      DUP4 \t\t\tabi.encodeWithSignature(\"execu...\n      DUP2 \t\t\tabi.encodeWithSignature(\"execu...\n      DUP4 \t\t\tabi.encodeWithSignature(\"execu...\n      AND \t\t\tabi.encodeWithSignature(\"execu...\n      OR \t\t\tabi.encodeWithSignature(\"execu...\n      DUP4 \t\t\tabi.encodeWithSignature(\"execu...\n      MSTORE \t\t\tabi.encodeWithSignature(\"execu...\n      POP \t\t\tabi.encodeWithSignature(\"execu...\n      POP \t\t\tabi.encodeWithSignature(\"execu...\n      POP \t\t\tabi.encodeWithSignature(\"execu...\n      POP \t\t\tabi.encodeWithSignature(\"execu...\n      SWAP1 \t\t\tbytes memory data = abi.encode...\n      POP \t\t\tbytes memory data = abi.encode...\n      PUSH 0\t\t\tbytes memory scheduleId\n      DUP1 \t\t\tscheduler\n      PUSH 0\t\t\tscheduler\n      SWAP1 \t\t\tscheduler\n      SLOAD \t\t\tscheduler\n      SWAP1 \t\t\tscheduler\n      PUSH 100\t\t\tscheduler\n      EXP \t\t\tscheduler\n      SWAP1 \t\t\tscheduler\n      DIV \t\t\tscheduler\n      PUSH FFFFFFFFFFFFFFFFFFFFFFFFFFFFFFFFFFFFFFFF\t\t\tscheduler\n      AND \t\t\tscheduler\n      PUSH FFFFFFFFFFFFFFFFFFFFFFFFFFFFFFFFFFFFFFFF\t\t\tscheduler.scheduleCall\n      AND \t\t\tscheduler.scheduleCall\n      PUSH 168D560D\t\t\tscheduler.scheduleCall\n      ADDRESS \t\t\tthis\n      PUSH 0\t\t\t0\n      PUSH 200B20\t\t\t2100000\n      PUSH FA00\t\t\t64000\n      DUP11 \t\t\tdelay\n      DUP9 \t\t\tdata\n      PUSH 40\t\t\tscheduler.scheduleCall(address...\n      MLOAD \t\t\tscheduler.scheduleCall(address...\n      DUP8 \t\t\tscheduler.scheduleCall(address...\n      PUSH FFFFFFFF\t\t\tscheduler.scheduleCall(address...\n      AND \t\t\tscheduler.scheduleCall(address...\n      PUSH E0\t\t\tscheduler.scheduleCall(address...\n      SHL \t\t\tscheduler.scheduleCall(address...\n      DUP2 \t\t\tscheduler.scheduleCall(address...\n      MSTORE \t\t\tscheduler.scheduleCall(address...\n      PUSH 4\t\t\tscheduler.scheduleCall(address...\n      ADD \t\t\tscheduler.scheduleCall(address...\n      PUSH [tag] 84\t\t\tscheduler.scheduleCall(address...\n      SWAP7 \t\t\tscheduler.scheduleCall(address...\n      SWAP6 \t\t\tscheduler.scheduleCall(address...\n      SWAP5 \t\t\tscheduler.scheduleCall(address...\n      SWAP4 \t\t\tscheduler.scheduleCall(address...\n      SWAP3 \t\t\tscheduler.scheduleCall(address...\n      SWAP2 \t\t\tscheduler.scheduleCall(address...\n      SWAP1 \t\t\tscheduler.scheduleCall(address...\n      PUSH [tag] 85\t\t\tscheduler.scheduleCall(address...\n      JUMP \t\t\tscheduler.scheduleCall(address...\n    tag 84\t\t\tscheduler.scheduleCall(address...\n      JUMPDEST \t\t\tscheduler.scheduleCall(address...\n      PUSH 0\t\t\tscheduler.scheduleCall(address...\n      PUSH 40\t\t\tscheduler.scheduleCall(address...\n      MLOAD \t\t\tscheduler.scheduleCall(address...\n      DUP1 \t\t\tscheduler.scheduleCall(address...\n      DUP4 \t\t\tscheduler.scheduleCall(address...\n      SUB \t\t\tscheduler.scheduleCall(address...\n      DUP2 \t\t\tscheduler.scheduleCall(address...\n      PUSH 0\t\t\tscheduler.scheduleCall(address...\n      DUP8 \t\t\tscheduler.scheduleCall(address...\n      GAS \t\t\tscheduler.scheduleCall(address...\n      CALL \t\t\tscheduler.scheduleCall(address...\n      ISZERO \t\t\tscheduler.scheduleCall(address...\n      DUP1 \t\t\tscheduler.scheduleCall(address...\n      ISZERO \t\t\tscheduler.scheduleCall(address...\n      PUSH [tag] 87\t\t\tscheduler.scheduleCall(address...\n      JUMPI \t\t\tscheduler.scheduleCall(address...\n      RETURNDATASIZE \t\t\tscheduler.scheduleCall(address...\n      PUSH 0\t\t\tscheduler.scheduleCall(address...\n      DUP1 \t\t\tscheduler.scheduleCall(address...\n      RETURNDATACOPY \t\t\tscheduler.scheduleCall(address...\n      RETURNDATASIZE \t\t\tscheduler.scheduleCall(address...\n      PUSH 0\t\t\tscheduler.scheduleCall(address...\n      REVERT \t\t\tscheduler.scheduleCall(address...\n    tag 87\t\t\tscheduler.scheduleCall(address...\n      JUMPDEST \t\t\tscheduler.scheduleCall(address...\n      POP \t\t\tscheduler.scheduleCall(address...\n      POP \t\t\tscheduler.scheduleCall(address...\n      POP \t\t\tscheduler.scheduleCall(address...\n      POP \t\t\tscheduler.scheduleCall(address...\n      PUSH 40\t\t\tscheduler.scheduleCall(address...\n      MLOAD \t\t\tscheduler.scheduleCall(address...\n      RETURNDATASIZE \t\t\tscheduler.scheduleCall(address...\n      PUSH 0\t\t\tscheduler.scheduleCall(address...\n      DUP3 \t\t\tscheduler.scheduleCall(address...\n      RETURNDATACOPY \t\t\tscheduler.scheduleCall(address...\n      RETURNDATASIZE \t\t\tscheduler.scheduleCall(address...\n      PUSH 1F\t\t\tscheduler.scheduleCall(address...\n      NOT \t\t\tscheduler.scheduleCall(address...\n      PUSH 1F\t\t\tscheduler.scheduleCall(address...\n      DUP3 \t\t\tscheduler.scheduleCall(address...\n      ADD \t\t\tscheduler.scheduleCall(address...\n      AND \t\t\tscheduler.scheduleCall(address...\n      DUP3 \t\t\tscheduler.scheduleCall(address...\n      ADD \t\t\tscheduler.scheduleCall(address...\n      DUP1 \t\t\tscheduler.scheduleCall(address...\n      PUSH 40\t\t\tscheduler.scheduleCall(address...\n      MSTORE \t\t\tscheduler.scheduleCall(address...\n      POP \t\t\tscheduler.scheduleCall(address...\n      DUP2 \t\t\tscheduler.scheduleCall(address...\n      ADD \t\t\tscheduler.scheduleCall(address...\n      SWAP1 \t\t\tscheduler.scheduleCall(address...\n      PUSH [tag] 88\t\t\tscheduler.scheduleCall(address...\n      SWAP2 \t\t\tscheduler.scheduleCall(address...\n      SWAP1 \t\t\tscheduler.scheduleCall(address...\n      PUSH [tag] 89\t\t\tscheduler.scheduleCall(address...\n      JUMP \t\t\tscheduler.scheduleCall(address...\n    tag 88\t\t\tscheduler.scheduleCall(address...\n      JUMPDEST \t\t\tscheduler.scheduleCall(address...\n      SWAP1 \t\t\tbytes memory scheduleId = sche...\n      POP \t\t\tbytes memory scheduleId = sche...\n      DUP8 \t\t\ttokenAddress\n      PUSH FFFFFFFFFFFFFFFFFFFFFFFFFFFFFFFFFFFFFFFF\t\t\tTransferScheduled(scheduleId,t...\n      AND \t\t\tTransferScheduled(scheduleId,t...\n      DUP2 \t\t\tscheduleId\n      PUSH 40\t\t\tTransferScheduled(scheduleId,t...\n      MLOAD \t\t\tTransferScheduled(scheduleId,t...\n      PUSH [tag] 90\t\t\tTransferScheduled(scheduleId,t...\n      SWAP2 \t\t\tTransferScheduled(scheduleId,t...\n      SWAP1 \t\t\tTransferScheduled(scheduleId,t...\n      PUSH [tag] 91\t\t\tTransferScheduled(scheduleId,t...\n      JUMP \t\t\tTransferScheduled(scheduleId,t...\n    tag 90\t\t\tTransferScheduled(scheduleId,t...\n      JUMPDEST \t\t\tTransferScheduled(scheduleId,t...\n      PUSH 40\t\t\tTransferScheduled(scheduleId,t...\n      MLOAD \t\t\tTransferScheduled(scheduleId,t...\n      DUP1 \t\t\tTransferScheduled(scheduleId,t...\n      SWAP2 \t\t\tTransferScheduled(scheduleId,t...\n      SUB \t\t\tTransferScheduled(scheduleId,t...\n      SWAP1 \t\t\tTransferScheduled(scheduleId,t...\n      KECCAK256 \t\t\tTransferScheduled(scheduleId,t...\n      PUSH C9C9AFE41DD5E3A9438DD88814EDCB9C8089A9E980F48B14414EDA3D6D3D0E9A\t\t\tTransferScheduled(scheduleId,t...\n      DUP10 \t\t\trecipients\n      DUP10 \t\t\tamounts\n      DUP10 \t\t\tdelay\n      TIMESTAMP \t\t\tblock.timestamp\n      PUSH [tag] 92\t\t\tblock.timestamp + delay\n      SWAP2 \t\t\tblock.timestamp + delay\n      SWAP1 \t\t\tblock.timestamp + delay\n      PUSH [tag] 72\t\t\tblock.timestamp + delay\n      JUMP \t\t\tblock.timestamp + delay\n    tag 92\t\t\tblock.timestamp + delay\n      JUMPDEST \t\t\tblock.timestamp + delay\n      PUSH 40\t\t\tTransferScheduled(scheduleId,t...\n      MLOAD \t\t\tTransferScheduled(scheduleId,t...\n      PUSH [tag] 93\t\t\tTransferScheduled(scheduleId,t...\n      SWAP4 \t\t\tTransferScheduled(scheduleId,t...\n      SWAP3 \t\t\tTransferScheduled(scheduleId,t...\n      SWAP2 \t\t\tTransferScheduled(scheduleId,t...\n      SWAP1 \t\t\tTransferScheduled(scheduleId,t...\n      PUSH [tag] 94\t\t\tTransferScheduled(scheduleId,t...\n      JUMP \t\t\tTransferScheduled(scheduleId,t...\n    tag 93\t\t\tTransferScheduled(scheduleId,t...\n      JUMPDEST \t\t\tTransferScheduled(scheduleId,t...\n      PUSH 40\t\t\tTransferScheduled(scheduleId,t...\n      MLOAD \t\t\tTransferScheduled(scheduleId,t...\n      DUP1 \t\t\tTransferScheduled(scheduleId,t...\n      SWAP2 \t\t\tTransferScheduled(scheduleId,t...\n      SUB \t\t\tTransferScheduled(scheduleId,t...\n      SWAP1 \t\t\tTransferScheduled(scheduleId,t...\n      LOG3 \t\t\tTransferScheduled(scheduleId,t...\n      POP \t\t\t{\\r\\n        IERC20 token = IE...\n      POP \t\t\t{\\r\\n        IERC20 token = IE...\n      POP \t\t\t{\\r\\n        IERC20 token = IE...\n      POP \t\t\t{\\r\\n        IERC20 token = IE...\n      POP \t\t\tfunction scheduled_dispersal(a...\n      POP \t\t\tfunction scheduled_dispersal(a...\n      POP \t\t\tfunction scheduled_dispersal(a...\n      POP \t\t\tfunction scheduled_dispersal(a...\n      JUMP \t\t\tfunction scheduled_dispersal(a...\n    tag 25\t\t\tfunction checkPriceandDisperse...\n      JUMPDEST \t\t\tfunction checkPriceandDisperse...\n      PUSH 0\t\t\tIERC20 token\n      DUP7 \t\t\ttokenAddress\n      SWAP1 \t\t\tIERC20 token = IERC20(tokenAdd...\n      POP \t\t\tIERC20 token = IERC20(tokenAdd...\n      PUSH 0\t\t\tuint256 currentPrice\n      PUSH 1\t\t\toracle\n      PUSH 0\t\t\toracle\n      SWAP1 \t\t\toracle\n      SLOAD \t\t\toracle\n      SWAP1 \t\t\toracle\n      PUSH 100\t\t\toracle\n      EXP \t\t\toracle\n      SWAP1 \t\t\toracle\n      DIV \t\t\toracle\n      PUSH FFFFFFFFFFFFFFFFFFFFFFFFFFFFFFFFFFFFFFFF\t\t\toracle\n      AND \t\t\toracle\n      PUSH FFFFFFFFFFFFFFFFFFFFFFFFFFFFFFFFFFFFFFFF\t\t\toracle.getPrice\n      AND \t\t\toracle.getPrice\n      PUSH 41976E09\t\t\toracle.getPrice\n      DUP4 \t\t\ttoken\n      PUSH 40\t\t\toracle.getPrice(address(token)...\n      MLOAD \t\t\toracle.getPrice(address(token)...\n      DUP3 \t\t\toracle.getPrice(address(token)...\n      PUSH FFFFFFFF\t\t\toracle.getPrice(address(token)...\n      AND \t\t\toracle.getPrice(address(token)...\n      PUSH E0\t\t\toracle.getPrice(address(token)...\n      SHL \t\t\toracle.getPrice(address(token)...\n      DUP2 \t\t\toracle.getPrice(address(token)...\n      MSTORE \t\t\toracle.getPrice(address(token)...\n      PUSH 4\t\t\toracle.getPrice(address(token)...\n      ADD \t\t\toracle.getPrice(address(token)...\n      PUSH [tag] 96\t\t\toracle.getPrice(address(token)...\n      SWAP2 \t\t\toracle.getPrice(address(token)...\n      SWAP1 \t\t\toracle.getPrice(address(token)...\n      PUSH [tag] 97\t\t\toracle.getPrice(address(token)...\n      JUMP \t\t\toracle.getPrice(address(token)...\n    tag 96\t\t\toracle.getPrice(address(token)...\n      JUMPDEST \t\t\toracle.getPrice(address(token)...\n      PUSH 20\t\t\toracle.getPrice(address(token)...\n      PUSH 40\t\t\toracle.getPrice(address(token)...\n      MLOAD \t\t\toracle.getPrice(address(token)...\n      DUP1 \t\t\toracle.getPrice(address(token)...\n      DUP4 \t\t\toracle.getPrice(address(token)...\n      SUB \t\t\toracle.getPrice(address(token)...\n      DUP2 \t\t\toracle.getPrice(address(token)...\n      DUP7 \t\t\toracle.getPrice(address(token)...\n      GAS \t\t\toracle.getPrice(address(token)...\n      STATICCALL \t\t\toracle.getPrice(address(token)...\n      ISZERO \t\t\toracle.getPrice(address(token)...\n      DUP1 \t\t\toracle.getPrice(address(token)...\n      ISZERO \t\t\toracle.getPrice(address(token)...\n      PUSH [tag] 99\t\t\toracle.getPrice(address(token)...\n      JUMPI \t\t\toracle.getPrice(address(token)...\n      RETURNDATASIZE \t\t\toracle.getPrice(address(token)...\n      PUSH 0\t\t\toracle.getPrice(address(token)...\n      DUP1 \t\t\toracle.getPrice(address(token)...\n      RETURNDATACOPY \t\t\toracle.getPrice(address(token)...\n      RETURNDATASIZE \t\t\toracle.getPrice(address(token)...\n      PUSH 0\t\t\toracle.getPrice(address(token)...\n      REVERT \t\t\toracle.getPrice(address(token)...\n    tag 99\t\t\toracle.getPrice(address(token)...\n      JUMPDEST \t\t\toracle.getPrice(address(token)...\n      POP \t\t\toracle.getPrice(address(token)...\n      POP \t\t\toracle.getPrice(address(token)...\n      POP \t\t\toracle.getPrice(address(token)...\n      POP \t\t\toracle.getPrice(address(token)...\n      PUSH 40\t\t\toracle.getPrice(address(token)...\n      MLOAD \t\t\toracle.getPrice(address(token)...\n      RETURNDATASIZE \t\t\toracle.getPrice(address(token)...\n      PUSH 1F\t\t\toracle.getPrice(address(token)...\n      NOT \t\t\toracle.getPrice(address(token)...\n      PUSH 1F\t\t\toracle.getPrice(address(token)...\n      DUP3 \t\t\toracle.getPrice(address(token)...\n      ADD \t\t\toracle.getPrice(address(token)...\n      AND \t\t\toracle.getPrice(address(token)...\n      DUP3 \t\t\toracle.getPrice(address(token)...\n      ADD \t\t\toracle.getPrice(address(token)...\n      DUP1 \t\t\toracle.getPrice(address(token)...\n      PUSH 40\t\t\toracle.getPrice(address(token)...\n      MSTORE \t\t\toracle.getPrice(address(token)...\n      POP \t\t\toracle.getPrice(address(token)...\n      DUP2 \t\t\toracle.getPrice(address(token)...\n      ADD \t\t\toracle.getPrice(address(token)...\n      SWAP1 \t\t\toracle.getPrice(address(token)...\n      PUSH [tag] 100\t\t\toracle.getPrice(address(token)...\n      SWAP2 \t\t\toracle.getPrice(address(token)...\n      SWAP1 \t\t\toracle.getPrice(address(token)...\n      PUSH [tag] 101\t\t\toracle.getPrice(address(token)...\n      JUMP \t\t\toracle.getPrice(address(token)...\n    tag 100\t\t\toracle.getPrice(address(token)...\n      JUMPDEST \t\t\toracle.getPrice(address(token)...\n      SWAP1 \t\t\tuint256 currentPrice = oracle....\n      POP \t\t\tuint256 currentPrice = oracle....\n      DUP5 \t\t\tdesiredPrice\n      DUP2 \t\t\tcurrentPrice\n      SUB \t\t\tcurrentPrice == desiredPrice\n      PUSH [tag] 102\t\t\tif (currentPrice == desiredPri...\n      JUMPI \t\t\tif (currentPrice == desiredPri...\n      PUSH [tag] 103\t\t\texecuteBatchTransfer(tokenAddr...\n      DUP9 \t\t\ttokenAddress\n      DUP9 \t\t\trecipients\n      DUP9 \t\t\tamounts\n      DUP7 \t\t\tspender\n      PUSH [tag] 104\t\t\texecuteBatchTransfer\n      JUMP \t\t\texecuteBatchTransfer(tokenAddr...\n    tag 103\t\t\texecuteBatchTransfer(tokenAddr...\n      JUMPDEST \t\t\texecuteBatchTransfer(tokenAddr...\n      PUSH [tag] 105\t\t\tif (currentPrice == desiredPri...\n      JUMP \t\t\tif (currentPrice == desiredPri...\n    tag 102\t\t\tif (currentPrice == desiredPri...\n      JUMPDEST \t\t\tif (currentPrice == desiredPri...\n      PUSH [tag] 106\t\t\tpriceTriggeredDispersal(tokenA...\n      DUP9 \t\t\ttokenAddress\n      DUP9 \t\t\trecipients\n      DUP9 \t\t\tamounts\n      DUP9 \t\t\tdesiredPrice\n      DUP9 \t\t\tinterval\n      PUSH [tag] 32\t\t\tpriceTriggeredDispersal\n      JUMP \t\t\tpriceTriggeredDispersal(tokenA...\n    tag 106\t\t\tpriceTriggeredDispersal(tokenA...\n      JUMPDEST \t\t\tpriceTriggeredDispersal(tokenA...\n    tag 105\t\t\tif (currentPrice == desiredPri...\n      JUMPDEST \t\t\tif (currentPrice == desiredPri...\n      POP \t\t\t{\\r\\n        IERC20 token = IE...\n      POP \t\t\t{\\r\\n        IERC20 token = IE...\n      POP \t\t\tfunction checkPriceandDisperse...\n      POP \t\t\tfunction checkPriceandDisperse...\n      POP \t\t\tfunction checkPriceandDisperse...\n      POP \t\t\tfunction checkPriceandDisperse...\n      POP \t\t\tfunction checkPriceandDisperse...\n      POP \t\t\tfunction checkPriceandDisperse...\n      JUMP \t\t\tfunction checkPriceandDisperse...\n    tag 28\t\t\tfunction dispersal(address tok...\n      JUMPDEST \t\t\tfunction dispersal(address tok...\n      PUSH 0\t\t\tIERC20 token\n      DUP4 \t\t\ttokenAddress\n      SWAP1 \t\t\tIERC20 token = IERC20(tokenAdd...\n      POP \t\t\tIERC20 token = IERC20(tokenAdd...\n      DUP2 \t\t\tamount\n      MLOAD \t\t\tamount.length\n      DUP4 \t\t\trecipients\n      MLOAD \t\t\trecipients.length\n      EQ \t\t\trecipients.length == amount.le...\n      PUSH [tag] 108\t\t\trequire(recipients.length == a...\n      JUMPI \t\t\trequire(recipients.length == a...\n      PUSH 40\t\t\trequire(recipients.length == a...\n      MLOAD \t\t\trequire(recipients.length == a...\n      PUSH 8C379A000000000000000000000000000000000000000000000000000000000\t\t\trequire(recipients.length == a...\n      DUP2 \t\t\trequire(recipients.length == a...\n      MSTORE \t\t\trequire(recipients.length == a...\n      PUSH 4\t\t\trequire(recipients.length == a...\n      ADD \t\t\trequire(recipients.length == a...\n      PUSH [tag] 109\t\t\trequire(recipients.length == a...\n      SWAP1 \t\t\trequire(recipients.length == a...\n      PUSH [tag] 65\t\t\trequire(recipients.length == a...\n      JUMP \t\t\trequire(recipients.length == a...\n    tag 109\t\t\trequire(recipients.length == a...\n      JUMPDEST \t\t\trequire(recipients.length == a...\n      PUSH 40\t\t\trequire(recipients.length == a...\n      MLOAD \t\t\trequire(recipients.length == a...\n      DUP1 \t\t\trequire(recipients.length == a...\n      SWAP2 \t\t\trequire(recipients.length == a...\n      SUB \t\t\trequire(recipients.length == a...\n      SWAP1 \t\t\trequire(recipients.length == a...\n      REVERT \t\t\trequire(recipients.length == a...\n    tag 108\t\t\trequire(recipients.length == a...\n      JUMPDEST \t\t\trequire(recipients.length == a...\n      PUSH 0\t\t\tuint256 total\n      DUP1 \t\t\tuint256 i\n    tag 110\t\t\tfor (uint256 i = 0; i < recipi...\n      JUMPDEST \t\t\tfor (uint256 i = 0; i < recipi...\n      DUP5 \t\t\trecipients\n      MLOAD \t\t\trecipients.length\n      DUP2 \t\t\ti\n      LT \t\t\ti < recipients.length\n      ISZERO \t\t\tfor (uint256 i = 0; i < recipi...\n      PUSH [tag] 111\t\t\tfor (uint256 i = 0; i < recipi...\n      JUMPI \t\t\tfor (uint256 i = 0; i < recipi...\n      DUP4 \t\t\tamount\n      DUP2 \t\t\ti\n      DUP2 \t\t\tamount[i]\n      MLOAD \t\t\tamount[i]\n      DUP2 \t\t\tamount[i]\n      LT \t\t\tamount[i]\n      PUSH [tag] 113\t\t\tamount[i]\n      JUMPI \t\t\tamount[i]\n      PUSH [tag] 114\t\t\tamount[i]\n      PUSH [tag] 42\t\t\tamount[i]\n      JUMP \t\t\tamount[i]\n    tag 114\t\t\tamount[i]\n      JUMPDEST \t\t\tamount[i]\n    tag 113\t\t\tamount[i]\n      JUMPDEST \t\t\tamount[i]\n      PUSH 20\t\t\tamount[i]\n      MUL \t\t\tamount[i]\n      PUSH 20\t\t\tamount[i]\n      ADD \t\t\tamount[i]\n      ADD \t\t\tamount[i]\n      MLOAD \t\t\tamount[i]\n      DUP3 \t\t\ttotal\n      PUSH [tag] 115\t\t\ttotal + amount[i]\n      SWAP2 \t\t\ttotal + amount[i]\n      SWAP1 \t\t\ttotal + amount[i]\n      PUSH [tag] 72\t\t\ttotal + amount[i]\n      JUMP \t\t\ttotal + amount[i]\n    tag 115\t\t\ttotal + amount[i]\n      JUMPDEST \t\t\ttotal + amount[i]\n      SWAP2 \t\t\ttotal = total + amount[i]\n      POP \t\t\ttotal = total + amount[i]\n      DUP1 \t\t\ti++\n      DUP1 \t\t\ti++\n      PUSH [tag] 116\t\t\ti++\n      SWAP1 \t\t\ti++\n      PUSH [tag] 61\t\t\ti++\n      JUMP \t\t\ti++\n    tag 116\t\t\ti++\n      JUMPDEST \t\t\ti++\n      SWAP2 \t\t\ti++\n      POP \t\t\ti++\n      POP \t\t\ti++\n      PUSH [tag] 110\t\t\tfor (uint256 i = 0; i < recipi...\n      JUMP \t\t\tfor (uint256 i = 0; i < recipi...\n    tag 111\t\t\tfor (uint256 i = 0; i < recipi...\n      JUMPDEST \t\t\tfor (uint256 i = 0; i < recipi...\n      POP \t\t\tfor (uint256 i = 0; i < recipi...\n      DUP2 \t\t\ttoken\n      PUSH FFFFFFFFFFFFFFFFFFFFFFFFFFFFFFFFFFFFFFFF\t\t\ttoken.transferFrom\n      AND \t\t\ttoken.transferFrom\n      PUSH 23B872DD\t\t\ttoken.transferFrom\n      CALLER \t\t\tmsg.sender\n      ADDRESS \t\t\tthis\n      DUP5 \t\t\ttotal\n      PUSH 40\t\t\ttoken.transferFrom(msg.sender,...\n      MLOAD \t\t\ttoken.transferFrom(msg.sender,...\n      DUP5 \t\t\ttoken.transferFrom(msg.sender,...\n      PUSH FFFFFFFF\t\t\ttoken.transferFrom(msg.sender,...\n      AND \t\t\ttoken.transferFrom(msg.sender,...\n      PUSH E0\t\t\ttoken.transferFrom(msg.sender,...\n      SHL \t\t\ttoken.transferFrom(msg.sender,...\n      DUP2 \t\t\ttoken.transferFrom(msg.sender,...\n      MSTORE \t\t\ttoken.transferFrom(msg.sender,...\n      PUSH 4\t\t\ttoken.transferFrom(msg.sender,...\n      ADD \t\t\ttoken.transferFrom(msg.sender,...\n      PUSH [tag] 117\t\t\ttoken.transferFrom(msg.sender,...\n      SWAP4 \t\t\ttoken.transferFrom(msg.sender,...\n      SWAP3 \t\t\ttoken.transferFrom(msg.sender,...\n      SWAP2 \t\t\ttoken.transferFrom(msg.sender,...\n      SWAP1 \t\t\ttoken.transferFrom(msg.sender,...\n      PUSH [tag] 75\t\t\ttoken.transferFrom(msg.sender,...\n      JUMP \t\t\ttoken.transferFrom(msg.sender,...\n    tag 117\t\t\ttoken.transferFrom(msg.sender,...\n      JUMPDEST \t\t\ttoken.transferFrom(msg.sender,...\n      PUSH 20\t\t\ttoken.transferFrom(msg.sender,...\n      PUSH 40\t\t\ttoken.transferFrom(msg.sender,...\n      MLOAD \t\t\ttoken.transferFrom(msg.sender,...\n      DUP1 \t\t\ttoken.transferFrom(msg.sender,...\n      DUP4 \t\t\ttoken.transferFrom(msg.sender,...\n      SUB \t\t\ttoken.transferFrom(msg.sender,...\n      DUP2 \t\t\ttoken.transferFrom(msg.sender,...\n      PUSH 0\t\t\ttoken.transferFrom(msg.sender,...\n      DUP8 \t\t\ttoken.transferFrom(msg.sender,...\n      GAS \t\t\ttoken.transferFrom(msg.sender,...\n      CALL \t\t\ttoken.transferFrom(msg.sender,...\n      ISZERO \t\t\ttoken.transferFrom(msg.sender,...\n      DUP1 \t\t\ttoken.transferFrom(msg.sender,...\n      ISZERO \t\t\ttoken.transferFrom(msg.sender,...\n      PUSH [tag] 119\t\t\ttoken.transferFrom(msg.sender,...\n      JUMPI \t\t\ttoken.transferFrom(msg.sender,...\n      RETURNDATASIZE \t\t\ttoken.transferFrom(msg.sender,...\n      PUSH 0\t\t\ttoken.transferFrom(msg.sender,...\n      DUP1 \t\t\ttoken.transferFrom(msg.sender,...\n      RETURNDATACOPY \t\t\ttoken.transferFrom(msg.sender,...\n      RETURNDATASIZE \t\t\ttoken.transferFrom(msg.sender,...\n      PUSH 0\t\t\ttoken.transferFrom(msg.sender,...\n      REVERT \t\t\ttoken.transferFrom(msg.sender,...\n    tag 119\t\t\ttoken.transferFrom(msg.sender,...\n      JUMPDEST \t\t\ttoken.transferFrom(msg.sender,...\n      POP \t\t\ttoken.transferFrom(msg.sender,...\n      POP \t\t\ttoken.transferFrom(msg.sender,...\n      POP \t\t\ttoken.transferFrom(msg.sender,...\n      POP \t\t\ttoken.transferFrom(msg.sender,...\n      PUSH 40\t\t\ttoken.transferFrom(msg.sender,...\n      MLOAD \t\t\ttoken.transferFrom(msg.sender,...\n      RETURNDATASIZE \t\t\ttoken.transferFrom(msg.sender,...\n      PUSH 1F\t\t\ttoken.transferFrom(msg.sender,...\n      NOT \t\t\ttoken.transferFrom(msg.sender,...\n      PUSH 1F\t\t\ttoken.transferFrom(msg.sender,...\n      DUP3 \t\t\ttoken.transferFrom(msg.sender,...\n      ADD \t\t\ttoken.transferFrom(msg.sender,...\n      AND \t\t\ttoken.transferFrom(msg.sender,...\n      DUP3 \t\t\ttoken.transferFrom(msg.sender,...\n      ADD \t\t\ttoken.transferFrom(msg.sender,...\n      DUP1 \t\t\ttoken.transferFrom(msg.sender,...\n      PUSH 40\t\t\ttoken.transferFrom(msg.sender,...\n      MSTORE \t\t\ttoken.transferFrom(msg.sender,...\n      POP \t\t\ttoken.transferFrom(msg.sender,...\n      DUP2 \t\t\ttoken.transferFrom(msg.sender,...\n      ADD \t\t\ttoken.transferFrom(msg.sender,...\n      SWAP1 \t\t\ttoken.transferFrom(msg.sender,...\n      PUSH [tag] 120\t\t\ttoken.transferFrom(msg.sender,...\n      SWAP2 \t\t\ttoken.transferFrom(msg.sender,...\n      SWAP1 \t\t\ttoken.transferFrom(msg.sender,...\n      PUSH [tag] 50\t\t\ttoken.transferFrom(msg.sender,...\n      JUMP \t\t\ttoken.transferFrom(msg.sender,...\n    tag 120\t\t\ttoken.transferFrom(msg.sender,...\n      JUMPDEST \t\t\ttoken.transferFrom(msg.sender,...\n      PUSH [tag] 121\t\t\trequire(token.transferFrom(msg...\n      JUMPI \t\t\trequire(token.transferFrom(msg...\n      PUSH 40\t\t\trequire(token.transferFrom(msg...\n      MLOAD \t\t\trequire(token.transferFrom(msg...\n      PUSH 8C379A000000000000000000000000000000000000000000000000000000000\t\t\trequire(token.transferFrom(msg...\n      DUP2 \t\t\trequire(token.transferFrom(msg...\n      MSTORE \t\t\trequire(token.transferFrom(msg...\n      PUSH 4\t\t\trequire(token.transferFrom(msg...\n      ADD \t\t\trequire(token.transferFrom(msg...\n      PUSH [tag] 122\t\t\trequire(token.transferFrom(msg...\n      SWAP1 \t\t\trequire(token.transferFrom(msg...\n      PUSH [tag] 123\t\t\trequire(token.transferFrom(msg...\n      JUMP \t\t\trequire(token.transferFrom(msg...\n    tag 122\t\t\trequire(token.transferFrom(msg...\n      JUMPDEST \t\t\trequire(token.transferFrom(msg...\n      PUSH 40\t\t\trequire(token.transferFrom(msg...\n      MLOAD \t\t\trequire(token.transferFrom(msg...\n      DUP1 \t\t\trequire(token.transferFrom(msg...\n      SWAP2 \t\t\trequire(token.transferFrom(msg...\n      SUB \t\t\trequire(token.transferFrom(msg...\n      SWAP1 \t\t\trequire(token.transferFrom(msg...\n      REVERT \t\t\trequire(token.transferFrom(msg...\n    tag 121\t\t\trequire(token.transferFrom(msg...\n      JUMPDEST \t\t\trequire(token.transferFrom(msg...\n      PUSH 0\t\t\tuint256 i\n    tag 124\t\t\tfor (uint256 i = 0; i < recipi...\n      JUMPDEST \t\t\tfor (uint256 i = 0; i < recipi...\n      DUP5 \t\t\trecipients\n      MLOAD \t\t\trecipients.length\n      DUP2 \t\t\ti\n      LT \t\t\ti < recipients.length\n      ISZERO \t\t\tfor (uint256 i = 0; i < recipi...\n      PUSH [tag] 125\t\t\tfor (uint256 i = 0; i < recipi...\n      JUMPI \t\t\tfor (uint256 i = 0; i < recipi...\n      DUP3 \t\t\ttoken\n      PUSH FFFFFFFFFFFFFFFFFFFFFFFFFFFFFFFFFFFFFFFF\t\t\ttoken.transfer\n      AND \t\t\ttoken.transfer\n      PUSH A9059CBB\t\t\ttoken.transfer\n      DUP7 \t\t\trecipients\n      DUP4 \t\t\ti\n      DUP2 \t\t\trecipients[i]\n      MLOAD \t\t\trecipients[i]\n      DUP2 \t\t\trecipients[i]\n      LT \t\t\trecipients[i]\n      PUSH [tag] 127\t\t\trecipients[i]\n      JUMPI \t\t\trecipients[i]\n      PUSH [tag] 128\t\t\trecipients[i]\n      PUSH [tag] 42\t\t\trecipients[i]\n      JUMP \t\t\trecipients[i]\n    tag 128\t\t\trecipients[i]\n      JUMPDEST \t\t\trecipients[i]\n    tag 127\t\t\trecipients[i]\n      JUMPDEST \t\t\trecipients[i]\n      PUSH 20\t\t\trecipients[i]\n      MUL \t\t\trecipients[i]\n      PUSH 20\t\t\trecipients[i]\n      ADD \t\t\trecipients[i]\n      ADD \t\t\trecipients[i]\n      MLOAD \t\t\trecipients[i]\n      DUP7 \t\t\tamount\n      DUP5 \t\t\ti\n      DUP2 \t\t\tamount[i]\n      MLOAD \t\t\tamount[i]\n      DUP2 \t\t\tamount[i]\n      LT \t\t\tamount[i]\n      PUSH [tag] 129\t\t\tamount[i]\n      JUMPI \t\t\tamount[i]\n      PUSH [tag] 130\t\t\tamount[i]\n      PUSH [tag] 42\t\t\tamount[i]\n      JUMP \t\t\tamount[i]\n    tag 130\t\t\tamount[i]\n      JUMPDEST \t\t\tamount[i]\n    tag 129\t\t\tamount[i]\n      JUMPDEST \t\t\tamount[i]\n      PUSH 20\t\t\tamount[i]\n      MUL \t\t\tamount[i]\n      PUSH 20\t\t\tamount[i]\n      ADD \t\t\tamount[i]\n      ADD \t\t\tamount[i]\n      MLOAD \t\t\tamount[i]\n      PUSH 40\t\t\ttoken.transfer(recipients[i], ...\n      MLOAD \t\t\ttoken.transfer(recipients[i], ...\n      DUP4 \t\t\ttoken.transfer(recipients[i], ...\n      PUSH FFFFFFFF\t\t\ttoken.transfer(recipients[i], ...\n      AND \t\t\ttoken.transfer(recipients[i], ...\n      PUSH E0\t\t\ttoken.transfer(recipients[i], ...\n      SHL \t\t\ttoken.transfer(recipients[i], ...\n      DUP2 \t\t\ttoken.transfer(recipients[i], ...\n      MSTORE \t\t\ttoken.transfer(recipients[i], ...\n      PUSH 4\t\t\ttoken.transfer(recipients[i], ...\n      ADD \t\t\ttoken.transfer(recipients[i], ...\n      PUSH [tag] 131\t\t\ttoken.transfer(recipients[i], ...\n      SWAP3 \t\t\ttoken.transfer(recipients[i], ...\n      SWAP2 \t\t\ttoken.transfer(recipients[i], ...\n      SWAP1 \t\t\ttoken.transfer(recipients[i], ...\n      PUSH [tag] 46\t\t\ttoken.transfer(recipients[i], ...\n      JUMP \t\t\ttoken.transfer(recipients[i], ...\n    tag 131\t\t\ttoken.transfer(recipients[i], ...\n      JUMPDEST \t\t\ttoken.transfer(recipients[i], ...\n      PUSH 20\t\t\ttoken.transfer(recipients[i], ...\n      PUSH 40\t\t\ttoken.transfer(recipients[i], ...\n      MLOAD \t\t\ttoken.transfer(recipients[i], ...\n      DUP1 \t\t\ttoken.transfer(recipients[i], ...\n      DUP4 \t\t\ttoken.transfer(recipients[i], ...\n      SUB \t\t\ttoken.transfer(recipients[i], ...\n      DUP2 \t\t\ttoken.transfer(recipients[i], ...\n      PUSH 0\t\t\ttoken.transfer(recipients[i], ...\n      DUP8 \t\t\ttoken.transfer(recipients[i], ...\n      GAS \t\t\ttoken.transfer(recipients[i], ...\n      CALL \t\t\ttoken.transfer(recipients[i], ...\n      ISZERO \t\t\ttoken.transfer(recipients[i], ...\n      DUP1 \t\t\ttoken.transfer(recipients[i], ...\n      ISZERO \t\t\ttoken.transfer(recipients[i], ...\n      PUSH [tag] 133\t\t\ttoken.transfer(recipients[i], ...\n      JUMPI \t\t\ttoken.transfer(recipients[i], ...\n      RETURNDATASIZE \t\t\ttoken.transfer(recipients[i], ...\n      PUSH 0\t\t\ttoken.transfer(recipients[i], ...\n      DUP1 \t\t\ttoken.transfer(recipients[i], ...\n      RETURNDATACOPY \t\t\ttoken.transfer(recipients[i], ...\n      RETURNDATASIZE \t\t\ttoken.transfer(recipients[i], ...\n      PUSH 0\t\t\ttoken.transfer(recipients[i], ...\n      REVERT \t\t\ttoken.transfer(recipients[i], ...\n    tag 133\t\t\ttoken.transfer(recipients[i], ...\n      JUMPDEST \t\t\ttoken.transfer(recipients[i], ...\n      POP \t\t\ttoken.transfer(recipients[i], ...\n      POP \t\t\ttoken.transfer(recipients[i], ...\n      POP \t\t\ttoken.transfer(recipients[i], ...\n      POP \t\t\ttoken.transfer(recipients[i], ...\n      PUSH 40\t\t\ttoken.transfer(recipients[i], ...\n      MLOAD \t\t\ttoken.transfer(recipients[i], ...\n      RETURNDATASIZE \t\t\ttoken.transfer(recipients[i], ...\n      PUSH 1F\t\t\ttoken.transfer(recipients[i], ...\n      NOT \t\t\ttoken.transfer(recipients[i], ...\n      PUSH 1F\t\t\ttoken.transfer(recipients[i], ...\n      DUP3 \t\t\ttoken.transfer(recipients[i], ...\n      ADD \t\t\ttoken.transfer(recipients[i], ...\n      AND \t\t\ttoken.transfer(recipients[i], ...\n      DUP3 \t\t\ttoken.transfer(recipients[i], ...\n      ADD \t\t\ttoken.transfer(recipients[i], ...\n      DUP1 \t\t\ttoken.transfer(recipients[i], ...\n      PUSH 40\t\t\ttoken.transfer(recipients[i], ...\n      MSTORE \t\t\ttoken.transfer(recipients[i], ...\n      POP \t\t\ttoken.transfer(recipients[i], ...\n      DUP2 \t\t\ttoken.transfer(recipients[i], ...\n      ADD \t\t\ttoken.transfer(recipients[i], ...\n      SWAP1 \t\t\ttoken.transfer(recipients[i], ...\n      PUSH [tag] 134\t\t\ttoken.transfer(recipients[i], ...\n      SWAP2 \t\t\ttoken.transfer(recipients[i], ...\n      SWAP1 \t\t\ttoken.transfer(recipients[i], ...\n      PUSH [tag] 50\t\t\ttoken.transfer(recipients[i], ...\n      JUMP \t\t\ttoken.transfer(recipients[i], ...\n    tag 134\t\t\ttoken.transfer(recipients[i], ...\n      JUMPDEST \t\t\ttoken.transfer(recipients[i], ...\n      PUSH [tag] 135\t\t\trequire(token.transfer(recipie...\n      JUMPI \t\t\trequire(token.transfer(recipie...\n      PUSH 40\t\t\trequire(token.transfer(recipie...\n      MLOAD \t\t\trequire(token.transfer(recipie...\n      PUSH 8C379A000000000000000000000000000000000000000000000000000000000\t\t\trequire(token.transfer(recipie...\n      DUP2 \t\t\trequire(token.transfer(recipie...\n      MSTORE \t\t\trequire(token.transfer(recipie...\n      PUSH 4\t\t\trequire(token.transfer(recipie...\n      ADD \t\t\trequire(token.transfer(recipie...\n      PUSH [tag] 136\t\t\trequire(token.transfer(recipie...\n      SWAP1 \t\t\trequire(token.transfer(recipie...\n      PUSH [tag] 53\t\t\trequire(token.transfer(recipie...\n      JUMP \t\t\trequire(token.transfer(recipie...\n    tag 136\t\t\trequire(token.transfer(recipie...\n      JUMPDEST \t\t\trequire(token.transfer(recipie...\n      PUSH 40\t\t\trequire(token.transfer(recipie...\n      MLOAD \t\t\trequire(token.transfer(recipie...\n      DUP1 \t\t\trequire(token.transfer(recipie...\n      SWAP2 \t\t\trequire(token.transfer(recipie...\n      SUB \t\t\trequire(token.transfer(recipie...\n      SWAP1 \t\t\trequire(token.transfer(recipie...\n      REVERT \t\t\trequire(token.transfer(recipie...\n    tag 135\t\t\trequire(token.transfer(recipie...\n      JUMPDEST \t\t\trequire(token.transfer(recipie...\n      DUP5 \t\t\trecipients\n      DUP2 \t\t\ti\n      DUP2 \t\t\trecipients[i]\n      MLOAD \t\t\trecipients[i]\n      DUP2 \t\t\trecipients[i]\n      LT \t\t\trecipients[i]\n      PUSH [tag] 137\t\t\trecipients[i]\n      JUMPI \t\t\trecipients[i]\n      PUSH [tag] 138\t\t\trecipients[i]\n      PUSH [tag] 42\t\t\trecipients[i]\n      JUMP \t\t\trecipients[i]\n    tag 138\t\t\trecipients[i]\n      JUMPDEST \t\t\trecipients[i]\n    tag 137\t\t\trecipients[i]\n      JUMPDEST \t\t\trecipients[i]\n      PUSH 20\t\t\trecipients[i]\n      MUL \t\t\trecipients[i]\n      PUSH 20\t\t\trecipients[i]\n      ADD \t\t\trecipients[i]\n      ADD \t\t\trecipients[i]\n      MLOAD \t\t\trecipients[i]\n      PUSH FFFFFFFFFFFFFFFFFFFFFFFFFFFFFFFFFFFFFFFF\t\t\tErc20BatchTransfer(i, recipien...\n      AND \t\t\tErc20BatchTransfer(i, recipien...\n      DUP2 \t\t\ti\n      PUSH B9471439BD4C23F19D2B486548FA6061AB17E1DA9815F325F2A2B29F22E715E3\t\t\tErc20BatchTransfer(i, recipien...\n      DUP7 \t\t\tamount\n      DUP5 \t\t\ti\n      DUP2 \t\t\tamount[i]\n      MLOAD \t\t\tamount[i]\n      DUP2 \t\t\tamount[i]\n      LT \t\t\tamount[i]\n      PUSH [tag] 139\t\t\tamount[i]\n      JUMPI \t\t\tamount[i]\n      PUSH [tag] 140\t\t\tamount[i]\n      PUSH [tag] 42\t\t\tamount[i]\n      JUMP \t\t\tamount[i]\n    tag 140\t\t\tamount[i]\n      JUMPDEST \t\t\tamount[i]\n    tag 139\t\t\tamount[i]\n      JUMPDEST \t\t\tamount[i]\n      PUSH 20\t\t\tamount[i]\n      MUL \t\t\tamount[i]\n      PUSH 20\t\t\tamount[i]\n      ADD \t\t\tamount[i]\n      ADD \t\t\tamount[i]\n      MLOAD \t\t\tamount[i]\n      PUSH 40\t\t\tErc20BatchTransfer(i, recipien...\n      MLOAD \t\t\tErc20BatchTransfer(i, recipien...\n      PUSH [tag] 141\t\t\tErc20BatchTransfer(i, recipien...\n      SWAP2 \t\t\tErc20BatchTransfer(i, recipien...\n      SWAP1 \t\t\tErc20BatchTransfer(i, recipien...\n      PUSH [tag] 59\t\t\tErc20BatchTransfer(i, recipien...\n      JUMP \t\t\tErc20BatchTransfer(i, recipien...\n    tag 141\t\t\tErc20BatchTransfer(i, recipien...\n      JUMPDEST \t\t\tErc20BatchTransfer(i, recipien...\n      PUSH 40\t\t\tErc20BatchTransfer(i, recipien...\n      MLOAD \t\t\tErc20BatchTransfer(i, recipien...\n      DUP1 \t\t\tErc20BatchTransfer(i, recipien...\n      SWAP2 \t\t\tErc20BatchTransfer(i, recipien...\n      SUB \t\t\tErc20BatchTransfer(i, recipien...\n      SWAP1 \t\t\tErc20BatchTransfer(i, recipien...\n      LOG3 \t\t\tErc20BatchTransfer(i, recipien...\n      DUP1 \t\t\ti++\n      DUP1 \t\t\ti++\n      PUSH [tag] 142\t\t\ti++\n      SWAP1 \t\t\ti++\n      PUSH [tag] 61\t\t\ti++\n      JUMP \t\t\ti++\n    tag 142\t\t\ti++\n      JUMPDEST \t\t\ti++\n      SWAP2 \t\t\ti++\n      POP \t\t\ti++\n      POP \t\t\ti++\n      PUSH [tag] 124\t\t\tfor (uint256 i = 0; i < recipi...\n      JUMP \t\t\tfor (uint256 i = 0; i < recipi...\n    tag 125\t\t\tfor (uint256 i = 0; i < recipi...\n      JUMPDEST \t\t\tfor (uint256 i = 0; i < recipi...\n      POP \t\t\tfor (uint256 i = 0; i < recipi...\n      POP \t\t\t{\\r\\n        IERC20 token = IE...\n      POP \t\t\t{\\r\\n        IERC20 token = IE...\n      POP \t\t\tfunction dispersal(address tok...\n      POP \t\t\tfunction dispersal(address tok...\n      POP \t\t\tfunction dispersal(address tok...\n      JUMP \t\t\tfunction dispersal(address tok...\n    tag 32\t\t\tfunction priceTriggeredDispers...\n      JUMPDEST \t\t\tfunction priceTriggeredDispers...\n      PUSH 0\t\t\tIERC20 token\n      DUP6 \t\t\ttokenAddress\n      SWAP1 \t\t\tIERC20 token = IERC20(tokenAdd...\n      POP \t\t\tIERC20 token = IERC20(tokenAdd...\n      PUSH 0\t\t\taddress spender\n      CALLER \t\t\tmsg.sender\n      SWAP1 \t\t\taddress spender = msg.sender\n      POP \t\t\taddress spender = msg.sender\n      PUSH 0\t\t\tuint256 currentPrice\n      PUSH 1\t\t\toracle\n      PUSH 0\t\t\toracle\n      SWAP1 \t\t\toracle\n      SLOAD \t\t\toracle\n      SWAP1 \t\t\toracle\n      PUSH 100\t\t\toracle\n      EXP \t\t\toracle\n      SWAP1 \t\t\toracle\n      DIV \t\t\toracle\n      PUSH FFFFFFFFFFFFFFFFFFFFFFFFFFFFFFFFFFFFFFFF\t\t\toracle\n      AND \t\t\toracle\n      PUSH FFFFFFFFFFFFFFFFFFFFFFFFFFFFFFFFFFFFFFFF\t\t\toracle.getPrice\n      AND \t\t\toracle.getPrice\n      PUSH 41976E09\t\t\toracle.getPrice\n      DUP5 \t\t\ttoken\n      PUSH 40\t\t\toracle.getPrice(address(token)...\n      MLOAD \t\t\toracle.getPrice(address(token)...\n      DUP3 \t\t\toracle.getPrice(address(token)...\n      PUSH FFFFFFFF\t\t\toracle.getPrice(address(token)...\n      AND \t\t\toracle.getPrice(address(token)...\n      PUSH E0\t\t\toracle.getPrice(address(token)...\n      SHL \t\t\toracle.getPrice(address(token)...\n      DUP2 \t\t\toracle.getPrice(address(token)...\n      MSTORE \t\t\toracle.getPrice(address(token)...\n      PUSH 4\t\t\toracle.getPrice(address(token)...\n      ADD \t\t\toracle.getPrice(address(token)...\n      PUSH [tag] 144\t\t\toracle.getPrice(address(token)...\n      SWAP2 \t\t\toracle.getPrice(address(token)...\n      SWAP1 \t\t\toracle.getPrice(address(token)...\n      PUSH [tag] 97\t\t\toracle.getPrice(address(token)...\n      JUMP \t\t\toracle.getPrice(address(token)...\n    tag 144\t\t\toracle.getPrice(address(token)...\n      JUMPDEST \t\t\toracle.getPrice(address(token)...\n      PUSH 20\t\t\toracle.getPrice(address(token)...\n      PUSH 40\t\t\toracle.getPrice(address(token)...\n      MLOAD \t\t\toracle.getPrice(address(token)...\n      DUP1 \t\t\toracle.getPrice(address(token)...\n      DUP4 \t\t\toracle.getPrice(address(token)...\n      SUB \t\t\toracle.getPrice(address(token)...\n      DUP2 \t\t\toracle.getPrice(address(token)...\n      DUP7 \t\t\toracle.getPrice(address(token)...\n      GAS \t\t\toracle.getPrice(address(token)...\n      STATICCALL \t\t\toracle.getPrice(address(token)...\n      ISZERO \t\t\toracle.getPrice(address(token)...\n      DUP1 \t\t\toracle.getPrice(address(token)...\n      ISZERO \t\t\toracle.getPrice(address(token)...\n      PUSH [tag] 146\t\t\toracle.getPrice(address(token)...\n      JUMPI \t\t\toracle.getPrice(address(token)...\n      RETURNDATASIZE \t\t\toracle.getPrice(address(token)...\n      PUSH 0\t\t\toracle.getPrice(address(token)...\n      DUP1 \t\t\toracle.getPrice(address(token)...\n      RETURNDATACOPY \t\t\toracle.getPrice(address(token)...\n      RETURNDATASIZE \t\t\toracle.getPrice(address(token)...\n      PUSH 0\t\t\toracle.getPrice(address(token)...\n      REVERT \t\t\toracle.getPrice(address(token)...\n    tag 146\t\t\toracle.getPrice(address(token)...\n      JUMPDEST \t\t\toracle.getPrice(address(token)...\n      POP \t\t\toracle.getPrice(address(token)...\n      POP \t\t\toracle.getPrice(address(token)...\n      POP \t\t\toracle.getPrice(address(token)...\n      POP \t\t\toracle.getPrice(address(token)...\n      PUSH 40\t\t\toracle.getPrice(address(token)...\n      MLOAD \t\t\toracle.getPrice(address(token)...\n      RETURNDATASIZE \t\t\toracle.getPrice(address(token)...\n      PUSH 1F\t\t\toracle.getPrice(address(token)...\n      NOT \t\t\toracle.getPrice(address(token)...\n      PUSH 1F\t\t\toracle.getPrice(address(token)...\n      DUP3 \t\t\toracle.getPrice(address(token)...\n      ADD \t\t\toracle.getPrice(address(token)...\n      AND \t\t\toracle.getPrice(address(token)...\n      DUP3 \t\t\toracle.getPrice(address(token)...\n      ADD \t\t\toracle.getPrice(address(token)...\n      DUP1 \t\t\toracle.getPrice(address(token)...\n      PUSH 40\t\t\toracle.getPrice(address(token)...\n      MSTORE \t\t\toracle.getPrice(address(token)...\n      POP \t\t\toracle.getPrice(address(token)...\n      DUP2 \t\t\toracle.getPrice(address(token)...\n      ADD \t\t\toracle.getPrice(address(token)...\n      SWAP1 \t\t\toracle.getPrice(address(token)...\n      PUSH [tag] 147\t\t\toracle.getPrice(address(token)...\n      SWAP2 \t\t\toracle.getPrice(address(token)...\n      SWAP1 \t\t\toracle.getPrice(address(token)...\n      PUSH [tag] 101\t\t\toracle.getPrice(address(token)...\n      JUMP \t\t\toracle.getPrice(address(token)...\n    tag 147\t\t\toracle.getPrice(address(token)...\n      JUMPDEST \t\t\toracle.getPrice(address(token)...\n      SWAP1 \t\t\tuint256 currentPrice = oracle....\n      POP \t\t\tuint256 currentPrice = oracle....\n      DUP5 \t\t\tdesiredPrice\n      DUP2 \t\t\tcurrentPrice\n      SUB \t\t\tcurrentPrice == desiredPrice\n      PUSH [tag] 148\t\t\tif (currentPrice == desiredPri...\n      JUMPI \t\t\tif (currentPrice == desiredPri...\n      PUSH [tag] 149\t\t\texecuteBatchTransfer(tokenAddr...\n      DUP9 \t\t\ttokenAddress\n      DUP9 \t\t\trecipients\n      DUP9 \t\t\tamounts\n      DUP6 \t\t\tspender\n      PUSH [tag] 104\t\t\texecuteBatchTransfer\n      JUMP \t\t\texecuteBatchTransfer(tokenAddr...\n    tag 149\t\t\texecuteBatchTransfer(tokenAddr...\n      JUMPDEST \t\t\texecuteBatchTransfer(tokenAddr...\n      PUSH [tag] 150\t\t\tif (currentPrice == desiredPri...\n      JUMP \t\t\tif (currentPrice == desiredPri...\n    tag 148\t\t\tif (currentPrice == desiredPri...\n      JUMPDEST \t\t\tif (currentPrice == desiredPri...\n      PUSH 0\t\t\tbytes memory data\n      DUP9 \t\t\ttokenAddress\n      DUP9 \t\t\trecipients\n      DUP9 \t\t\tamounts\n      DUP9 \t\t\tdesiredPrice\n      DUP9 \t\t\tinterval\n      DUP8 \t\t\tspender\n      PUSH 40\t\t\tabi.encodeWithSignature(\\r\\n  ...\n      MLOAD \t\t\tabi.encodeWithSignature(\\r\\n  ...\n      PUSH 24\t\t\tabi.encodeWithSignature(\\r\\n  ...\n      ADD \t\t\tabi.encodeWithSignature(\\r\\n  ...\n      PUSH [tag] 151\t\t\tabi.encodeWithSignature(\\r\\n  ...\n      SWAP7 \t\t\tabi.encodeWithSignature(\\r\\n  ...\n      SWAP6 \t\t\tabi.encodeWithSignature(\\r\\n  ...\n      SWAP5 \t\t\tabi.encodeWithSignature(\\r\\n  ...\n      SWAP4 \t\t\tabi.encodeWithSignature(\\r\\n  ...\n      SWAP3 \t\t\tabi.encodeWithSignature(\\r\\n  ...\n      SWAP2 \t\t\tabi.encodeWithSignature(\\r\\n  ...\n      SWAP1 \t\t\tabi.encodeWithSignature(\\r\\n  ...\n      PUSH [tag] 152\t\t\tabi.encodeWithSignature(\\r\\n  ...\n      JUMP \t\t\tabi.encodeWithSignature(\\r\\n  ...\n    tag 151\t\t\tabi.encodeWithSignature(\\r\\n  ...\n      JUMPDEST \t\t\tabi.encodeWithSignature(\\r\\n  ...\n      PUSH 40\t\t\tabi.encodeWithSignature(\\r\\n  ...\n      MLOAD \t\t\tabi.encodeWithSignature(\\r\\n  ...\n      PUSH 20\t\t\tabi.encodeWithSignature(\\r\\n  ...\n      DUP2 \t\t\tabi.encodeWithSignature(\\r\\n  ...\n      DUP4 \t\t\tabi.encodeWithSignature(\\r\\n  ...\n      SUB \t\t\tabi.encodeWithSignature(\\r\\n  ...\n      SUB \t\t\tabi.encodeWithSignature(\\r\\n  ...\n      DUP2 \t\t\tabi.encodeWithSignature(\\r\\n  ...\n      MSTORE \t\t\tabi.encodeWithSignature(\\r\\n  ...\n      SWAP1 \t\t\tabi.encodeWithSignature(\\r\\n  ...\n      PUSH 40\t\t\tabi.encodeWithSignature(\\r\\n  ...\n      MSTORE \t\t\tabi.encodeWithSignature(\\r\\n  ...\n      PUSH AB54B1BA00000000000000000000000000000000000000000000000000000000\t\t\tabi.encodeWithSignature(\\r\\n  ...\n      PUSH FFFFFFFFFFFFFFFFFFFFFFFFFFFFFFFFFFFFFFFFFFFFFFFFFFFFFFFF\t\t\tabi.encodeWithSignature(\\r\\n  ...\n      NOT \t\t\tabi.encodeWithSignature(\\r\\n  ...\n      AND \t\t\tabi.encodeWithSignature(\\r\\n  ...\n      PUSH 20\t\t\tabi.encodeWithSignature(\\r\\n  ...\n      DUP3 \t\t\tabi.encodeWithSignature(\\r\\n  ...\n      ADD \t\t\tabi.encodeWithSignature(\\r\\n  ...\n      DUP1 \t\t\tabi.encodeWithSignature(\\r\\n  ...\n      MLOAD \t\t\tabi.encodeWithSignature(\\r\\n  ...\n      PUSH FFFFFFFFFFFFFFFFFFFFFFFFFFFFFFFFFFFFFFFFFFFFFFFFFFFFFFFF\t\t\tabi.encodeWithSignature(\\r\\n  ...\n      DUP4 \t\t\tabi.encodeWithSignature(\\r\\n  ...\n      DUP2 \t\t\tabi.encodeWithSignature(\\r\\n  ...\n      DUP4 \t\t\tabi.encodeWithSignature(\\r\\n  ...\n      AND \t\t\tabi.encodeWithSignature(\\r\\n  ...\n      OR \t\t\tabi.encodeWithSignature(\\r\\n  ...\n      DUP4 \t\t\tabi.encodeWithSignature(\\r\\n  ...\n      MSTORE \t\t\tabi.encodeWithSignature(\\r\\n  ...\n      POP \t\t\tabi.encodeWithSignature(\\r\\n  ...\n      POP \t\t\tabi.encodeWithSignature(\\r\\n  ...\n      POP \t\t\tabi.encodeWithSignature(\\r\\n  ...\n      POP \t\t\tabi.encodeWithSignature(\\r\\n  ...\n      SWAP1 \t\t\tbytes memory data = abi.encode...\n      POP \t\t\tbytes memory data = abi.encode...\n      PUSH 0\t\t\tbytes memory scheduleId\n      DUP1 \t\t\tscheduler\n      PUSH 0\t\t\tscheduler\n      SWAP1 \t\t\tscheduler\n      SLOAD \t\t\tscheduler\n      SWAP1 \t\t\tscheduler\n      PUSH 100\t\t\tscheduler\n      EXP \t\t\tscheduler\n      SWAP1 \t\t\tscheduler\n      DIV \t\t\tscheduler\n      PUSH FFFFFFFFFFFFFFFFFFFFFFFFFFFFFFFFFFFFFFFF\t\t\tscheduler\n      AND \t\t\tscheduler\n      PUSH FFFFFFFFFFFFFFFFFFFFFFFFFFFFFFFFFFFFFFFF\t\t\tscheduler.scheduleCall\n      AND \t\t\tscheduler.scheduleCall\n      PUSH 168D560D\t\t\tscheduler.scheduleCall\n      ADDRESS \t\t\tthis\n      PUSH 0\t\t\t0\n      PUSH 200B20\t\t\t2100000\n      PUSH FA00\t\t\t64000\n      DUP12 \t\t\tinterval\n      DUP9 \t\t\tdata\n      PUSH 40\t\t\tscheduler.scheduleCall(address...\n      MLOAD \t\t\tscheduler.scheduleCall(address...\n      DUP8 \t\t\tscheduler.scheduleCall(address...\n      PUSH FFFFFFFF\t\t\tscheduler.scheduleCall(address...\n      AND \t\t\tscheduler.scheduleCall(address...\n      PUSH E0\t\t\tscheduler.scheduleCall(address...\n      SHL \t\t\tscheduler.scheduleCall(address...\n      DUP2 \t\t\tscheduler.scheduleCall(address...\n      MSTORE \t\t\tscheduler.scheduleCall(address...\n      PUSH 4\t\t\tscheduler.scheduleCall(address...\n      ADD \t\t\tscheduler.scheduleCall(address...\n      PUSH [tag] 153\t\t\tscheduler.scheduleCall(address...\n      SWAP7 \t\t\tscheduler.scheduleCall(address...\n      SWAP6 \t\t\tscheduler.scheduleCall(address...\n      SWAP5 \t\t\tscheduler.scheduleCall(address...\n      SWAP4 \t\t\tscheduler.scheduleCall(address...\n      SWAP3 \t\t\tscheduler.scheduleCall(address...\n      SWAP2 \t\t\tscheduler.scheduleCall(address...\n      SWAP1 \t\t\tscheduler.scheduleCall(address...\n      PUSH [tag] 85\t\t\tscheduler.scheduleCall(address...\n      JUMP \t\t\tscheduler.scheduleCall(address...\n    tag 153\t\t\tscheduler.scheduleCall(address...\n      JUMPDEST \t\t\tscheduler.scheduleCall(address...\n      PUSH 0\t\t\tscheduler.scheduleCall(address...\n      PUSH 40\t\t\tscheduler.scheduleCall(address...\n      MLOAD \t\t\tscheduler.scheduleCall(address...\n      DUP1 \t\t\tscheduler.scheduleCall(address...\n      DUP4 \t\t\tscheduler.scheduleCall(address...\n      SUB \t\t\tscheduler.scheduleCall(address...\n      DUP2 \t\t\tscheduler.scheduleCall(address...\n      PUSH 0\t\t\tscheduler.scheduleCall(address...\n      DUP8 \t\t\tscheduler.scheduleCall(address...\n      GAS \t\t\tscheduler.scheduleCall(address...\n      CALL \t\t\tscheduler.scheduleCall(address...\n      ISZERO \t\t\tscheduler.scheduleCall(address...\n      DUP1 \t\t\tscheduler.scheduleCall(address...\n      ISZERO \t\t\tscheduler.scheduleCall(address...\n      PUSH [tag] 155\t\t\tscheduler.scheduleCall(address...\n      JUMPI \t\t\tscheduler.scheduleCall(address...\n      RETURNDATASIZE \t\t\tscheduler.scheduleCall(address...\n      PUSH 0\t\t\tscheduler.scheduleCall(address...\n      DUP1 \t\t\tscheduler.scheduleCall(address...\n      RETURNDATACOPY \t\t\tscheduler.scheduleCall(address...\n      RETURNDATASIZE \t\t\tscheduler.scheduleCall(address...\n      PUSH 0\t\t\tscheduler.scheduleCall(address...\n      REVERT \t\t\tscheduler.scheduleCall(address...\n    tag 155\t\t\tscheduler.scheduleCall(address...\n      JUMPDEST \t\t\tscheduler.scheduleCall(address...\n      POP \t\t\tscheduler.scheduleCall(address...\n      POP \t\t\tscheduler.scheduleCall(address...\n      POP \t\t\tscheduler.scheduleCall(address...\n      POP \t\t\tscheduler.scheduleCall(address...\n      PUSH 40\t\t\tscheduler.scheduleCall(address...\n      MLOAD \t\t\tscheduler.scheduleCall(address...\n      RETURNDATASIZE \t\t\tscheduler.scheduleCall(address...\n      PUSH 0\t\t\tscheduler.scheduleCall(address...\n      DUP3 \t\t\tscheduler.scheduleCall(address...\n      RETURNDATACOPY \t\t\tscheduler.scheduleCall(address...\n      RETURNDATASIZE \t\t\tscheduler.scheduleCall(address...\n      PUSH 1F\t\t\tscheduler.scheduleCall(address...\n      NOT \t\t\tscheduler.scheduleCall(address...\n      PUSH 1F\t\t\tscheduler.scheduleCall(address...\n      DUP3 \t\t\tscheduler.scheduleCall(address...\n      ADD \t\t\tscheduler.scheduleCall(address...\n      AND \t\t\tscheduler.scheduleCall(address...\n      DUP3 \t\t\tscheduler.scheduleCall(address...\n      ADD \t\t\tscheduler.scheduleCall(address...\n      DUP1 \t\t\tscheduler.scheduleCall(address...\n      PUSH 40\t\t\tscheduler.scheduleCall(address...\n      MSTORE \t\t\tscheduler.scheduleCall(address...\n      POP \t\t\tscheduler.scheduleCall(address...\n      DUP2 \t\t\tscheduler.scheduleCall(address...\n      ADD \t\t\tscheduler.scheduleCall(address...\n      SWAP1 \t\t\tscheduler.scheduleCall(address...\n      PUSH [tag] 156\t\t\tscheduler.scheduleCall(address...\n      SWAP2 \t\t\tscheduler.scheduleCall(address...\n      SWAP1 \t\t\tscheduler.scheduleCall(address...\n      PUSH [tag] 89\t\t\tscheduler.scheduleCall(address...\n      JUMP \t\t\tscheduler.scheduleCall(address...\n    tag 156\t\t\tscheduler.scheduleCall(address...\n      JUMPDEST \t\t\tscheduler.scheduleCall(address...\n      SWAP1 \t\t\tbytes memory scheduleId = sche...\n      POP \t\t\tbytes memory scheduleId = sche...\n      DUP1 \t\t\tscheduleId\n      PUSH 40\t\t\tPriceCheckScheduled(scheduleId...\n      MLOAD \t\t\tPriceCheckScheduled(scheduleId...\n      PUSH [tag] 157\t\t\tPriceCheckScheduled(scheduleId...\n      SWAP2 \t\t\tPriceCheckScheduled(scheduleId...\n      SWAP1 \t\t\tPriceCheckScheduled(scheduleId...\n      PUSH [tag] 91\t\t\tPriceCheckScheduled(scheduleId...\n      JUMP \t\t\tPriceCheckScheduled(scheduleId...\n    tag 157\t\t\tPriceCheckScheduled(scheduleId...\n      JUMPDEST \t\t\tPriceCheckScheduled(scheduleId...\n      PUSH 40\t\t\tPriceCheckScheduled(scheduleId...\n      MLOAD \t\t\tPriceCheckScheduled(scheduleId...\n      DUP1 \t\t\tPriceCheckScheduled(scheduleId...\n      SWAP2 \t\t\tPriceCheckScheduled(scheduleId...\n      SUB \t\t\tPriceCheckScheduled(scheduleId...\n      SWAP1 \t\t\tPriceCheckScheduled(scheduleId...\n      KECCAK256 \t\t\tPriceCheckScheduled(scheduleId...\n      PUSH 9E989CCC644AFF3DCCB44D63C0125CF7C49F64C9631016543486E7DFC72187C7\t\t\tPriceCheckScheduled(scheduleId...\n      DUP8 \t\t\tinterval\n      TIMESTAMP \t\t\tblock.timestamp\n      PUSH [tag] 158\t\t\tblock.timestamp + interval\n      SWAP2 \t\t\tblock.timestamp + interval\n      SWAP1 \t\t\tblock.timestamp + interval\n      PUSH [tag] 72\t\t\tblock.timestamp + interval\n      JUMP \t\t\tblock.timestamp + interval\n    tag 158\t\t\tblock.timestamp + interval\n      JUMPDEST \t\t\tblock.timestamp + interval\n      PUSH 40\t\t\tPriceCheckScheduled(scheduleId...\n      MLOAD \t\t\tPriceCheckScheduled(scheduleId...\n      PUSH [tag] 159\t\t\tPriceCheckScheduled(scheduleId...\n      SWAP2 \t\t\tPriceCheckScheduled(scheduleId...\n      SWAP1 \t\t\tPriceCheckScheduled(scheduleId...\n      PUSH [tag] 59\t\t\tPriceCheckScheduled(scheduleId...\n      JUMP \t\t\tPriceCheckScheduled(scheduleId...\n    tag 159\t\t\tPriceCheckScheduled(scheduleId...\n      JUMPDEST \t\t\tPriceCheckScheduled(scheduleId...\n      PUSH 40\t\t\tPriceCheckScheduled(scheduleId...\n      MLOAD \t\t\tPriceCheckScheduled(scheduleId...\n      DUP1 \t\t\tPriceCheckScheduled(scheduleId...\n      SWAP2 \t\t\tPriceCheckScheduled(scheduleId...\n      SUB \t\t\tPriceCheckScheduled(scheduleId...\n      SWAP1 \t\t\tPriceCheckScheduled(scheduleId...\n      LOG2 \t\t\tPriceCheckScheduled(scheduleId...\n      POP \t\t\t{\\r\\n            bytes memory ...\n      POP \t\t\t{\\r\\n            bytes memory ...\n    tag 150\t\t\tif (currentPrice == desiredPri...\n      JUMPDEST \t\t\tif (currentPrice == desiredPri...\n      POP \t\t\t{\\r\\n        IERC20 token = IE...\n      POP \t\t\t{\\r\\n        IERC20 token = IE...\n      POP \t\t\t{\\r\\n        IERC20 token = IE...\n      POP \t\t\tfunction priceTriggeredDispers...\n      POP \t\t\tfunction priceTriggeredDispers...\n      POP \t\t\tfunction priceTriggeredDispers...\n      POP \t\t\tfunction priceTriggeredDispers...\n      POP \t\t\tfunction priceTriggeredDispers...\n      JUMP \t\t\tfunction priceTriggeredDispers...\n    tag 104\t\t\tfunction executeBatchTransfer(...\n      JUMPDEST \t\t\tfunction executeBatchTransfer(...\n      PUSH 0\t\t\tIERC20 token\n      DUP5 \t\t\ttokenAddress\n      SWAP1 \t\t\tIERC20 token = IERC20(tokenAdd...\n      POP \t\t\tIERC20 token = IERC20(tokenAdd...\n      DUP3 \t\t\tamounts\n      MLOAD \t\t\tamounts.length\n      DUP5 \t\t\trecipients\n      MLOAD \t\t\trecipients.length\n      EQ \t\t\trecipients.length == amounts.l...\n      PUSH [tag] 161\t\t\trequire(recipients.length == a...\n      JUMPI \t\t\trequire(recipients.length == a...\n      PUSH 40\t\t\trequire(recipients.length == a...\n      MLOAD \t\t\trequire(recipients.length == a...\n      PUSH 8C379A000000000000000000000000000000000000000000000000000000000\t\t\trequire(recipients.length == a...\n      DUP2 \t\t\trequire(recipients.length == a...\n      MSTORE \t\t\trequire(recipients.length == a...\n      PUSH 4\t\t\trequire(recipients.length == a...\n      ADD \t\t\trequire(recipients.length == a...\n      PUSH [tag] 162\t\t\trequire(recipients.length == a...\n      SWAP1 \t\t\trequire(recipients.length == a...\n      PUSH [tag] 36\t\t\trequire(recipients.length == a...\n      JUMP \t\t\trequire(recipients.length == a...\n    tag 162\t\t\trequire(recipients.length == a...\n      JUMPDEST \t\t\trequire(recipients.length == a...\n      PUSH 40\t\t\trequire(recipients.length == a...\n      MLOAD \t\t\trequire(recipients.length == a...\n      DUP1 \t\t\trequire(recipients.length == a...\n      SWAP2 \t\t\trequire(recipients.length == a...\n      SUB \t\t\trequire(recipients.length == a...\n      SWAP1 \t\t\trequire(recipients.length == a...\n      REVERT \t\t\trequire(recipients.length == a...\n    tag 161\t\t\trequire(recipients.length == a...\n      JUMPDEST \t\t\trequire(recipients.length == a...\n      PUSH 0\t\t\tuint256 totalAmount\n      DUP1 \t\t\tuint256 i\n    tag 163\t\t\tfor (uint256 i = 0; i < amount...\n      JUMPDEST \t\t\tfor (uint256 i = 0; i < amount...\n      DUP5 \t\t\tamounts\n      MLOAD \t\t\tamounts.length\n      DUP2 \t\t\ti\n      LT \t\t\ti < amounts.length\n      ISZERO \t\t\tfor (uint256 i = 0; i < amount...\n      PUSH [tag] 164\t\t\tfor (uint256 i = 0; i < amount...\n      JUMPI \t\t\tfor (uint256 i = 0; i < amount...\n      DUP5 \t\t\tamounts\n      DUP2 \t\t\ti\n      DUP2 \t\t\tamounts[i]\n      MLOAD \t\t\tamounts[i]\n      DUP2 \t\t\tamounts[i]\n      LT \t\t\tamounts[i]\n      PUSH [tag] 166\t\t\tamounts[i]\n      JUMPI \t\t\tamounts[i]\n      PUSH [tag] 167\t\t\tamounts[i]\n      PUSH [tag] 42\t\t\tamounts[i]\n      JUMP \t\t\tamounts[i]\n    tag 167\t\t\tamounts[i]\n      JUMPDEST \t\t\tamounts[i]\n    tag 166\t\t\tamounts[i]\n      JUMPDEST \t\t\tamounts[i]\n      PUSH 20\t\t\tamounts[i]\n      MUL \t\t\tamounts[i]\n      PUSH 20\t\t\tamounts[i]\n      ADD \t\t\tamounts[i]\n      ADD \t\t\tamounts[i]\n      MLOAD \t\t\tamounts[i]\n      DUP3 \t\t\ttotalAmount += amounts[i]\n      PUSH [tag] 168\t\t\ttotalAmount += amounts[i]\n      SWAP2 \t\t\ttotalAmount += amounts[i]\n      SWAP1 \t\t\ttotalAmount += amounts[i]\n      PUSH [tag] 72\t\t\ttotalAmount += amounts[i]\n      JUMP \t\t\ttotalAmount += amounts[i]\n    tag 168\t\t\ttotalAmount += amounts[i]\n      JUMPDEST \t\t\ttotalAmount += amounts[i]\n      SWAP2 \t\t\ttotalAmount += amounts[i]\n      POP \t\t\ttotalAmount += amounts[i]\n      DUP1 \t\t\ti++\n      DUP1 \t\t\ti++\n      PUSH [tag] 169\t\t\ti++\n      SWAP1 \t\t\ti++\n      PUSH [tag] 61\t\t\ti++\n      JUMP \t\t\ti++\n    tag 169\t\t\ti++\n      JUMPDEST \t\t\ti++\n      SWAP2 \t\t\ti++\n      POP \t\t\ti++\n      POP \t\t\ti++\n      PUSH [tag] 163\t\t\tfor (uint256 i = 0; i < amount...\n      JUMP \t\t\tfor (uint256 i = 0; i < amount...\n    tag 164\t\t\tfor (uint256 i = 0; i < amount...\n      JUMPDEST \t\t\tfor (uint256 i = 0; i < amount...\n      POP \t\t\tfor (uint256 i = 0; i < amount...\n      DUP2 \t\t\ttoken\n      PUSH FFFFFFFFFFFFFFFFFFFFFFFFFFFFFFFFFFFFFFFF\t\t\ttoken.transferFrom\n      AND \t\t\ttoken.transferFrom\n      PUSH 23B872DD\t\t\ttoken.transferFrom\n      DUP5 \t\t\tspender\n      ADDRESS \t\t\tthis\n      DUP5 \t\t\ttotalAmount\n      PUSH 40\t\t\ttoken.transferFrom(spender, ad...\n      MLOAD \t\t\ttoken.transferFrom(spender, ad...\n      DUP5 \t\t\ttoken.transferFrom(spender, ad...\n      PUSH FFFFFFFF\t\t\ttoken.transferFrom(spender, ad...\n      AND \t\t\ttoken.transferFrom(spender, ad...\n      PUSH E0\t\t\ttoken.transferFrom(spender, ad...\n      SHL \t\t\ttoken.transferFrom(spender, ad...\n      DUP2 \t\t\ttoken.transferFrom(spender, ad...\n      MSTORE \t\t\ttoken.transferFrom(spender, ad...\n      PUSH 4\t\t\ttoken.transferFrom(spender, ad...\n      ADD \t\t\ttoken.transferFrom(spender, ad...\n      PUSH [tag] 170\t\t\ttoken.transferFrom(spender, ad...\n      SWAP4 \t\t\ttoken.transferFrom(spender, ad...\n      SWAP3 \t\t\ttoken.transferFrom(spender, ad...\n      SWAP2 \t\t\ttoken.transferFrom(spender, ad...\n      SWAP1 \t\t\ttoken.transferFrom(spender, ad...\n      PUSH [tag] 75\t\t\ttoken.transferFrom(spender, ad...\n      JUMP \t\t\ttoken.transferFrom(spender, ad...\n    tag 170\t\t\ttoken.transferFrom(spender, ad...\n      JUMPDEST \t\t\ttoken.transferFrom(spender, ad...\n      PUSH 20\t\t\ttoken.transferFrom(spender, ad...\n      PUSH 40\t\t\ttoken.transferFrom(spender, ad...\n      MLOAD \t\t\ttoken.transferFrom(spender, ad...\n      DUP1 \t\t\ttoken.transferFrom(spender, ad...\n      DUP4 \t\t\ttoken.transferFrom(spender, ad...\n      SUB \t\t\ttoken.transferFrom(spender, ad...\n      DUP2 \t\t\ttoken.transferFrom(spender, ad...\n      PUSH 0\t\t\ttoken.transferFrom(spender, ad...\n      DUP8 \t\t\ttoken.transferFrom(spender, ad...\n      GAS \t\t\ttoken.transferFrom(spender, ad...\n      CALL \t\t\ttoken.transferFrom(spender, ad...\n      ISZERO \t\t\ttoken.transferFrom(spender, ad...\n      DUP1 \t\t\ttoken.transferFrom(spender, ad...\n      ISZERO \t\t\ttoken.transferFrom(spender, ad...\n      PUSH [tag] 172\t\t\ttoken.transferFrom(spender, ad...\n      JUMPI \t\t\ttoken.transferFrom(spender, ad...\n      RETURNDATASIZE \t\t\ttoken.transferFrom(spender, ad...\n      PUSH 0\t\t\ttoken.transferFrom(spender, ad...\n      DUP1 \t\t\ttoken.transferFrom(spender, ad...\n      RETURNDATACOPY \t\t\ttoken.transferFrom(spender, ad...\n      RETURNDATASIZE \t\t\ttoken.transferFrom(spender, ad...\n      PUSH 0\t\t\ttoken.transferFrom(spender, ad...\n      REVERT \t\t\ttoken.transferFrom(spender, ad...\n    tag 172\t\t\ttoken.transferFrom(spender, ad...\n      JUMPDEST \t\t\ttoken.transferFrom(spender, ad...\n      POP \t\t\ttoken.transferFrom(spender, ad...\n      POP \t\t\ttoken.transferFrom(spender, ad...\n      POP \t\t\ttoken.transferFrom(spender, ad...\n      POP \t\t\ttoken.transferFrom(spender, ad...\n      PUSH 40\t\t\ttoken.transferFrom(spender, ad...\n      MLOAD \t\t\ttoken.transferFrom(spender, ad...\n      RETURNDATASIZE \t\t\ttoken.transferFrom(spender, ad...\n      PUSH 1F\t\t\ttoken.transferFrom(spender, ad...\n      NOT \t\t\ttoken.transferFrom(spender, ad...\n      PUSH 1F\t\t\ttoken.transferFrom(spender, ad...\n      DUP3 \t\t\ttoken.transferFrom(spender, ad...\n      ADD \t\t\ttoken.transferFrom(spender, ad...\n      AND \t\t\ttoken.transferFrom(spender, ad...\n      DUP3 \t\t\ttoken.transferFrom(spender, ad...\n      ADD \t\t\ttoken.transferFrom(spender, ad...\n      DUP1 \t\t\ttoken.transferFrom(spender, ad...\n      PUSH 40\t\t\ttoken.transferFrom(spender, ad...\n      MSTORE \t\t\ttoken.transferFrom(spender, ad...\n      POP \t\t\ttoken.transferFrom(spender, ad...\n      DUP2 \t\t\ttoken.transferFrom(spender, ad...\n      ADD \t\t\ttoken.transferFrom(spender, ad...\n      SWAP1 \t\t\ttoken.transferFrom(spender, ad...\n      PUSH [tag] 173\t\t\ttoken.transferFrom(spender, ad...\n      SWAP2 \t\t\ttoken.transferFrom(spender, ad...\n      SWAP1 \t\t\ttoken.transferFrom(spender, ad...\n      PUSH [tag] 50\t\t\ttoken.transferFrom(spender, ad...\n      JUMP \t\t\ttoken.transferFrom(spender, ad...\n    tag 173\t\t\ttoken.transferFrom(spender, ad...\n      JUMPDEST \t\t\ttoken.transferFrom(spender, ad...\n      PUSH [tag] 174\t\t\trequire(token.transferFrom(spe...\n      JUMPI \t\t\trequire(token.transferFrom(spe...\n      PUSH 40\t\t\trequire(token.transferFrom(spe...\n      MLOAD \t\t\trequire(token.transferFrom(spe...\n      PUSH 8C379A000000000000000000000000000000000000000000000000000000000\t\t\trequire(token.transferFrom(spe...\n      DUP2 \t\t\trequire(token.transferFrom(spe...\n      MSTORE \t\t\trequire(token.transferFrom(spe...\n      PUSH 4\t\t\trequire(token.transferFrom(spe...\n      ADD \t\t\trequire(token.transferFrom(spe...\n      PUSH [tag] 175\t\t\trequire(token.transferFrom(spe...\n      SWAP1 \t\t\trequire(token.transferFrom(spe...\n      PUSH [tag] 53\t\t\trequire(token.transferFrom(spe...\n      JUMP \t\t\trequire(token.transferFrom(spe...\n    tag 175\t\t\trequire(token.transferFrom(spe...\n      JUMPDEST \t\t\trequire(token.transferFrom(spe...\n      PUSH 40\t\t\trequire(token.transferFrom(spe...\n      MLOAD \t\t\trequire(token.transferFrom(spe...\n      DUP1 \t\t\trequire(token.transferFrom(spe...\n      SWAP2 \t\t\trequire(token.transferFrom(spe...\n      SUB \t\t\trequire(token.transferFrom(spe...\n      SWAP1 \t\t\trequire(token.transferFrom(spe...\n      REVERT \t\t\trequire(token.transferFrom(spe...\n    tag 174\t\t\trequire(token.transferFrom(spe...\n      JUMPDEST \t\t\trequire(token.transferFrom(spe...\n      PUSH 0\t\t\tuint256 i\n    tag 176\t\t\tfor (uint256 i = 0; i < recipi...\n      JUMPDEST \t\t\tfor (uint256 i = 0; i < recipi...\n      DUP6 \t\t\trecipients\n      MLOAD \t\t\trecipients.length\n      DUP2 \t\t\ti\n      LT \t\t\ti < recipients.length\n      ISZERO \t\t\tfor (uint256 i = 0; i < recipi...\n      PUSH [tag] 177\t\t\tfor (uint256 i = 0; i < recipi...\n      JUMPI \t\t\tfor (uint256 i = 0; i < recipi...\n      DUP3 \t\t\ttoken\n      PUSH FFFFFFFFFFFFFFFFFFFFFFFFFFFFFFFFFFFFFFFF\t\t\ttoken.transfer\n      AND \t\t\ttoken.transfer\n      PUSH A9059CBB\t\t\ttoken.transfer\n      DUP8 \t\t\trecipients\n      DUP4 \t\t\ti\n      DUP2 \t\t\trecipients[i]\n      MLOAD \t\t\trecipients[i]\n      DUP2 \t\t\trecipients[i]\n      LT \t\t\trecipients[i]\n      PUSH [tag] 179\t\t\trecipients[i]\n      JUMPI \t\t\trecipients[i]\n      PUSH [tag] 180\t\t\trecipients[i]\n      PUSH [tag] 42\t\t\trecipients[i]\n      JUMP \t\t\trecipients[i]\n    tag 180\t\t\trecipients[i]\n      JUMPDEST \t\t\trecipients[i]\n    tag 179\t\t\trecipients[i]\n      JUMPDEST \t\t\trecipients[i]\n      PUSH 20\t\t\trecipients[i]\n      MUL \t\t\trecipients[i]\n      PUSH 20\t\t\trecipients[i]\n      ADD \t\t\trecipients[i]\n      ADD \t\t\trecipients[i]\n      MLOAD \t\t\trecipients[i]\n      DUP8 \t\t\tamounts\n      DUP5 \t\t\ti\n      DUP2 \t\t\tamounts[i]\n      MLOAD \t\t\tamounts[i]\n      DUP2 \t\t\tamounts[i]\n      LT \t\t\tamounts[i]\n      PUSH [tag] 181\t\t\tamounts[i]\n      JUMPI \t\t\tamounts[i]\n      PUSH [tag] 182\t\t\tamounts[i]\n      PUSH [tag] 42\t\t\tamounts[i]\n      JUMP \t\t\tamounts[i]\n    tag 182\t\t\tamounts[i]\n      JUMPDEST \t\t\tamounts[i]\n    tag 181\t\t\tamounts[i]\n      JUMPDEST \t\t\tamounts[i]\n      PUSH 20\t\t\tamounts[i]\n      MUL \t\t\tamounts[i]\n      PUSH 20\t\t\tamounts[i]\n      ADD \t\t\tamounts[i]\n      ADD \t\t\tamounts[i]\n      MLOAD \t\t\tamounts[i]\n      PUSH 40\t\t\ttoken.transfer(recipients[i], ...\n      MLOAD \t\t\ttoken.transfer(recipients[i], ...\n      DUP4 \t\t\ttoken.transfer(recipients[i], ...\n      PUSH FFFFFFFF\t\t\ttoken.transfer(recipients[i], ...\n      AND \t\t\ttoken.transfer(recipients[i], ...\n      PUSH E0\t\t\ttoken.transfer(recipients[i], ...\n      SHL \t\t\ttoken.transfer(recipients[i], ...\n      DUP2 \t\t\ttoken.transfer(recipients[i], ...\n      MSTORE \t\t\ttoken.transfer(recipients[i], ...\n      PUSH 4\t\t\ttoken.transfer(recipients[i], ...\n      ADD \t\t\ttoken.transfer(recipients[i], ...\n      PUSH [tag] 183\t\t\ttoken.transfer(recipients[i], ...\n      SWAP3 \t\t\ttoken.transfer(recipients[i], ...\n      SWAP2 \t\t\ttoken.transfer(recipients[i], ...\n      SWAP1 \t\t\ttoken.transfer(recipients[i], ...\n      PUSH [tag] 46\t\t\ttoken.transfer(recipients[i], ...\n      JUMP \t\t\ttoken.transfer(recipients[i], ...\n    tag 183\t\t\ttoken.transfer(recipients[i], ...\n      JUMPDEST \t\t\ttoken.transfer(recipients[i], ...\n      PUSH 20\t\t\ttoken.transfer(recipients[i], ...\n      PUSH 40\t\t\ttoken.transfer(recipients[i], ...\n      MLOAD \t\t\ttoken.transfer(recipients[i], ...\n      DUP1 \t\t\ttoken.transfer(recipients[i], ...\n      DUP4 \t\t\ttoken.transfer(recipients[i], ...\n      SUB \t\t\ttoken.transfer(recipients[i], ...\n      DUP2 \t\t\ttoken.transfer(recipients[i], ...\n      PUSH 0\t\t\ttoken.transfer(recipients[i], ...\n      DUP8 \t\t\ttoken.transfer(recipients[i], ...\n      GAS \t\t\ttoken.transfer(recipients[i], ...\n      CALL \t\t\ttoken.transfer(recipients[i], ...\n      ISZERO \t\t\ttoken.transfer(recipients[i], ...\n      DUP1 \t\t\ttoken.transfer(recipients[i], ...\n      ISZERO \t\t\ttoken.transfer(recipients[i], ...\n      PUSH [tag] 185\t\t\ttoken.transfer(recipients[i], ...\n      JUMPI \t\t\ttoken.transfer(recipients[i], ...\n      RETURNDATASIZE \t\t\ttoken.transfer(recipients[i], ...\n      PUSH 0\t\t\ttoken.transfer(recipients[i], ...\n      DUP1 \t\t\ttoken.transfer(recipients[i], ...\n      RETURNDATACOPY \t\t\ttoken.transfer(recipients[i], ...\n      RETURNDATASIZE \t\t\ttoken.transfer(recipients[i], ...\n      PUSH 0\t\t\ttoken.transfer(recipients[i], ...\n      REVERT \t\t\ttoken.transfer(recipients[i], ...\n    tag 185\t\t\ttoken.transfer(recipients[i], ...\n      JUMPDEST \t\t\ttoken.transfer(recipients[i], ...\n      POP \t\t\ttoken.transfer(recipients[i], ...\n      POP \t\t\ttoken.transfer(recipients[i], ...\n      POP \t\t\ttoken.transfer(recipients[i], ...\n      POP \t\t\ttoken.transfer(recipients[i], ...\n      PUSH 40\t\t\ttoken.transfer(recipients[i], ...\n      MLOAD \t\t\ttoken.transfer(recipients[i], ...\n      RETURNDATASIZE \t\t\ttoken.transfer(recipients[i], ...\n      PUSH 1F\t\t\ttoken.transfer(recipients[i], ...\n      NOT \t\t\ttoken.transfer(recipients[i], ...\n      PUSH 1F\t\t\ttoken.transfer(recipients[i], ...\n      DUP3 \t\t\ttoken.transfer(recipients[i], ...\n      ADD \t\t\ttoken.transfer(recipients[i], ...\n      AND \t\t\ttoken.transfer(recipients[i], ...\n      DUP3 \t\t\ttoken.transfer(recipients[i], ...\n      ADD \t\t\ttoken.transfer(recipients[i], ...\n      DUP1 \t\t\ttoken.transfer(recipients[i], ...\n      PUSH 40\t\t\ttoken.transfer(recipients[i], ...\n      MSTORE \t\t\ttoken.transfer(recipients[i], ...\n      POP \t\t\ttoken.transfer(recipients[i], ...\n      DUP2 \t\t\ttoken.transfer(recipients[i], ...\n      ADD \t\t\ttoken.transfer(recipients[i], ...\n      SWAP1 \t\t\ttoken.transfer(recipients[i], ...\n      PUSH [tag] 186\t\t\ttoken.transfer(recipients[i], ...\n      SWAP2 \t\t\ttoken.transfer(recipients[i], ...\n      SWAP1 \t\t\ttoken.transfer(recipients[i], ...\n      PUSH [tag] 50\t\t\ttoken.transfer(recipients[i], ...\n      JUMP \t\t\ttoken.transfer(recipients[i], ...\n    tag 186\t\t\ttoken.transfer(recipients[i], ...\n      JUMPDEST \t\t\ttoken.transfer(recipients[i], ...\n      POP \t\t\ttoken.transfer(recipients[i], ...\n      DUP1 \t\t\ti++\n      DUP1 \t\t\ti++\n      PUSH [tag] 187\t\t\ti++\n      SWAP1 \t\t\ti++\n      PUSH [tag] 61\t\t\ti++\n      JUMP \t\t\ti++\n    tag 187\t\t\ti++\n      JUMPDEST \t\t\ti++\n      SWAP2 \t\t\ti++\n      POP \t\t\ti++\n      POP \t\t\ti++\n      PUSH [tag] 176\t\t\tfor (uint256 i = 0; i < recipi...\n      JUMP \t\t\tfor (uint256 i = 0; i < recipi...\n    tag 177\t\t\tfor (uint256 i = 0; i < recipi...\n      JUMPDEST \t\t\tfor (uint256 i = 0; i < recipi...\n      POP \t\t\tfor (uint256 i = 0; i < recipi...\n      POP \t\t\t{\\r\\n        IERC20 token = IE...\n      POP \t\t\t{\\r\\n        IERC20 token = IE...\n      POP \t\t\tfunction executeBatchTransfer(...\n      POP \t\t\tfunction executeBatchTransfer(...\n      POP \t\t\tfunction executeBatchTransfer(...\n      POP \t\t\tfunction executeBatchTransfer(...\n      JUMP \t\t\tfunction executeBatchTransfer(...\n    tag 188\t\t\t-License-Identifier: MIT\\r\\n\\r...\n      JUMPDEST \t\t\t-License-Identifier: MIT\\r\\n\\r...\n      PUSH 0\t\t\tt \"@op\n      PUSH 40\t\t\tER\n      MLOAD \t\t\ttoken/ERC\n      SWAP1 \t\t\tcontracts/token/ERC\n      POP \t\t\tcontracts/token/ERC\n      SWAP1 \t\t\t-License-Identifier: MIT\\r\\n\\r...\n      JUMP \t\t\t-License-Identifier: MIT\\r\\n\\r...\n    tag 189\t\t\tl\";\\r\\nimport \"@acala-network/...\n      JUMPDEST \t\t\tl\";\\r\\nimport \"@acala-network/...\n      PUSH 0\t\t\tl\n      DUP1 \t\t\tr\n      REVERT \t\t\tacle/IOracle\n    tag 190\t\t\trt \"@acala-network/contracts/u...\n      JUMPDEST \t\t\trt \"@acala-network/contracts/u...\n      PUSH 0\t\t\t\\n\n      DUP1 \t\t\t\"\n      REVERT \t\t\tens.sol\";\\r\\n\\r\n    tag 191\t\t\tdity ^0.8.0;\\r\\n\\r\\ncontract D...\n      JUMPDEST \t\t\tdity ^0.8.0;\\r\\n\\r\\ncontract D...\n      PUSH 0\t\t\t    con\n      PUSH FFFFFFFFFFFFFFFFFFFFFFFFFFFFFFFFFFFFFFFF\t\t\tdule  scheduler = ISchedule(SC...\n      DUP3 \t\t\t  ISc\n      AND \t\t\t\\r\\n    ISchedule  scheduler =...\n      SWAP1 \t\t\tpayable{}\\r\\n\\r\\n    ISchedule...\n      POP \t\t\tpayable{}\\r\\n\\r\\n    ISchedule...\n      SWAP2 \t\t\tdity ^0.8.0;\\r\\n\\r\\ncontract D...\n      SWAP1 \t\t\tdity ^0.8.0;\\r\\n\\r\\ncontract D...\n      POP \t\t\tdity ^0.8.0;\\r\\n\\r\\ncontract D...\n      JUMP \t\t\tdity ^0.8.0;\\r\\n\\r\\ncontract D...\n    tag 192\t\t\tcle = IOracle(ORACLE);\\r\\n\\r\\n...\n      JUMPDEST \t\t\tcle = IOracle(ORACLE);\\r\\n\\r\\n...\n      PUSH 0\t\t\tk() ext\n      PUSH [tag] 268\t\t\teceive() external payabl\n      DUP3 \t\t\tpayab\n      PUSH [tag] 191\t\t\teceive() external payabl\n      JUMP \t\t\teceive() external payabl\n    tag 268\t\t\teceive() external payabl\n      JUMPDEST \t\t\teceive() external payabl\n      SWAP1 \t\t\tle{}\\r\\n    receive() external...\n      POP \t\t\tle{}\\r\\n    receive() external...\n      SWAP2 \t\t\tcle = IOracle(ORACLE);\\r\\n\\r\\n...\n      SWAP1 \t\t\tcle = IOracle(ORACLE);\\r\\n\\r\\n...\n      POP \t\t\tcle = IOracle(ORACLE);\\r\\n\\r\\n...\n      JUMP \t\t\tcle = IOracle(ORACLE);\\r\\n\\r\\n...\n    tag 193\t\t\tvent Erc20BatchTransfer(uint25...\n      JUMPDEST \t\t\tvent Erc20BatchTransfer(uint25...\n      PUSH [tag] 270\t\t\tecipient, uint256 amount\n      DUP2 \t\t\tamoun\n      PUSH [tag] 192\t\t\tecipient, uint256 amount\n      JUMP \t\t\tecipient, uint256 amount\n    tag 270\t\t\tecipient, uint256 amount\n      JUMPDEST \t\t\tecipient, uint256 amount\n      DUP2 \t\t\tdexed\n      EQ \t\t\t indexed recipient, uint256 am...\n      PUSH [tag] 271\t\t\tx, address indexed recipient, ...\n      JUMPI \t\t\tx, address indexed recipient, ...\n      PUSH 0\t\t\tr\n      DUP1 \t\t\tt\n      REVERT \t\t\t   event Tra\n    tag 271\t\t\tx, address indexed recipient, ...\n      JUMPDEST \t\t\tx, address indexed recipient, ...\n      POP \t\t\tvent Erc20BatchTransfer(uint25...\n      JUMP \t\t\tvent Erc20BatchTransfer(uint25...\n    tag 194\t\t\t(bytes indexed scheduleId, add...\n      JUMPDEST \t\t\t(bytes indexed scheduleId, add...\n      PUSH 0\t\t\ten, a\n      DUP2 \t\t\tounts,\n      CALLDATALOAD \t\t\t uint256[] amounts, \n      SWAP1 \t\t\tcipients, uint256[] amounts, \n      POP \t\t\tcipients, uint256[] amounts, \n      PUSH [tag] 273\t\t\txecutionTime);\\r\\n    event Pr...\n      DUP2 \t\t\triceC\n      PUSH [tag] 193\t\t\txecutionTime);\\r\\n    event Pr...\n      JUMP \t\t\txecutionTime);\\r\\n    event Pr...\n    tag 273\t\t\txecutionTime);\\r\\n    event Pr...\n      JUMPDEST \t\t\txecutionTime);\\r\\n    event Pr...\n      SWAP3 \t\t\t(bytes indexed scheduleId, add...\n      SWAP2 \t\t\t(bytes indexed scheduleId, add...\n      POP \t\t\t(bytes indexed scheduleId, add...\n      POP \t\t\t(bytes indexed scheduleId, add...\n      JUMP \t\t\t(bytes indexed scheduleId, add...\n    tag 195\t\t\t(bytes indexed scheduleId, uin...\n      JUMPDEST \t\t\t(bytes indexed scheduleId, uin...\n      PUSH 0\t\t\tm\n      DUP1 \t\t\t[\n      REVERT \t\t\taddress[] me\n    tag 196\t\t\tnts, uint256[] memory amount) ...\n      JUMPDEST \t\t\tnts, uint256[] memory amount) ...\n      PUSH 0\t\t\tlic{\\r\\n\n      PUSH 1F\t\t\t\\n \n      NOT \t\t\ts);\\r\\n  \n      PUSH 1F\t\t\tdd\n      DUP4 \t\t\t(toke\n      ADD \t\t\tRC20(tokenAddr\n      AND \t\t\t= IERC20(tokenAddress);\\r\\n   \n      SWAP1 \t\t\tC20 token = IERC20(tokenAddres...\n      POP \t\t\tC20 token = IERC20(tokenAddres...\n      SWAP2 \t\t\tnts, uint256[] memory amount) ...\n      SWAP1 \t\t\tnts, uint256[] memory amount) ...\n      POP \t\t\tnts, uint256[] memory amount) ...\n      JUMP \t\t\tnts, uint256[] memory amount) ...\n    tag 197\t\t\t(recipients.length == amount.l...\n      JUMPDEST \t\t\t(recipients.length == amount.l...\n      PUSH 4E487B7100000000000000000000000000000000000000000000000000000000\t\t\tts accordingly!\");\\r\\n        ...\n      PUSH 0\t\t\tn\n      MSTORE \t\t\t\"Give inputs accordingly!\");\\r...\n      PUSH 41\t\t\t; i+\n      PUSH 4\t\t\tg\n      MSTORE \t\t\tnts.length; i++\n      PUSH 24\t\t\ttal \n      PUSH 0\t\t\t \n      REVERT \t\t\t        total =\n    tag 198\t\t\tunt[i];\\r\\n            }\\r\\n  ...\n      JUMPDEST \t\t\tunt[i];\\r\\n            }\\r\\n  ...\n      PUSH [tag] 278\t\t\t), total) , \"Token transfer\n      DUP3 \t\t\tnsfe\n      PUSH [tag] 196\t\t\t), total) , \"Token transfer\n      JUMP \t\t\t), total) , \"Token transfer\n    tag 278\t\t\t), total) , \"Token transfer\n      JUMPDEST \t\t\t), total) , \"Token transfer\n      DUP2 \t\t\tess(th\n      ADD \t\t\taddress(this), total) , \"Token...\n      DUP2 \t\t\ttransf\n      DUP2 \t\t\tquire(toke\n      LT \t\t\t require(token.transfe\n      PUSH FFFFFFFFFFFFFFFF\t\t\t; i++) {\\r\\n        \n      DUP3 \t\t\tients.leng\n      GT \t\t\tcipients.length; i++) {\\r\\n   ...\n      OR \t\t\t recipients.length; i++) {\\r\\n...\n      ISZERO \t\t\ti < recipients.length; i++) {\\...\n      PUSH [tag] 279\t\t\ti < recipients.length; i++) {\\...\n      JUMPI \t\t\ti < recipients.length; i++) {\\...\n      PUSH [tag] 280\t\t\tcipients[i], amoun\n      PUSH [tag] 197\t\t\tcipients[i], amoun\n      JUMP \t\t\tcipients[i], amoun\n    tag 280\t\t\tcipients[i], amoun\n      JUMPDEST \t\t\tcipients[i], amoun\n    tag 279\t\t\ti < recipients.length; i++) {\\...\n      JUMPDEST \t\t\ti < recipients.length; i++) {\\...\n      DUP1 \t\t\t failed\");\n      PUSH 40\t\t\tsf\n      MSTORE \t\t\ten transfer failed\");\\r\n      POP \t\t\ten.transferFrom(msg.sender, ad...\n      POP \t\t\tunt[i];\\r\\n            }\\r\\n  ...\n      POP \t\t\tunt[i];\\r\\n            }\\r\\n  ...\n      JUMP \t\t\tunt[i];\\r\\n            }\\r\\n  ...\n    tag 199\t\t\t emit Erc20BatchTransfer(i, re...\n      JUMPDEST \t\t\t emit Erc20BatchTransfer(i, re...\n      PUSH 0\t\t\tents[i\n      PUSH [tag] 282\t\t\t       }\\r\\n    }\\r\\n\\r\\n \n      PUSH [tag] 188\t\t\t       }\\r\\n    }\\r\\n\\r\\n \n      JUMP \t\t\t       }\\r\\n    }\\r\\n\\r\\n \n    tag 282\t\t\t       }\\r\\n    }\\r\\n\\r\\n \n      JUMPDEST \t\t\t       }\\r\\n    }\\r\\n\\r\\n \n      SWAP1 \t\t\t]);\\r\\n            }\\r\\n    }\\...\n      POP \t\t\t]);\\r\\n            }\\r\\n    }\\...\n      PUSH [tag] 283\t\t\ton scheduled_dispersal(address...\n      DUP3 \t\t\tss t\n      DUP3 \t\t\tal(add\n      PUSH [tag] 198\t\t\ton scheduled_dispersal(address...\n      JUMP \t\t\ton scheduled_dispersal(address...\n    tag 283\t\t\ton scheduled_dispersal(address...\n      JUMPDEST \t\t\ton scheduled_dispersal(address...\n      SWAP2 \t\t\t emit Erc20BatchTransfer(i, re...\n      SWAP1 \t\t\t emit Erc20BatchTransfer(i, re...\n      POP \t\t\t emit Erc20BatchTransfer(i, re...\n      JUMP \t\t\t emit Erc20BatchTransfer(i, re...\n    tag 200\t\t\taddress[] memory recipients, u...\n      JUMPDEST \t\t\taddress[] memory recipients, u...\n      PUSH 0\t\t\t pub\n      PUSH FFFFFFFFFFFFFFFF\t\t\t== amounts.length,\n      DUP3 \t\t\t.lengt\n      GT \t\t\tnts.length == amounts.length, \n      ISZERO \t\t\tpients.length == amounts.lengt...\n      PUSH [tag] 285\t\t\tpients.length == amounts.lengt...\n      JUMPI \t\t\tpients.length == amounts.lengt...\n      PUSH [tag] 286\t\t\tve inputs accordin\n      PUSH [tag] 197\t\t\tve inputs accordin\n      JUMP \t\t\tve inputs accordin\n    tag 286\t\t\tve inputs accordin\n      JUMPDEST \t\t\tve inputs accordin\n    tag 285\t\t\tpients.length == amounts.lengt...\n      JUMPDEST \t\t\tpients.length == amounts.lengt...\n      PUSH 20\t\t\t 0;\\r\n      DUP3 \t\t\t total\n      MUL \t\t\tt256 total = 0;\\r\\n\n      SWAP1 \t\t\t     uint256 total = 0;\\r\\n\n      POP \t\t\t     uint256 total = 0;\\r\\n\n      PUSH 20\t\t\t\\n   \n      DUP2 \t\t\t++) \n      ADD \t\t\th; i++) {\\r\\n    \n      SWAP1 \t\t\tts.length; i++) {\\r\\n    \n      POP \t\t\tts.length; i++) {\\r\\n    \n      SWAP2 \t\t\taddress[] memory recipients, u...\n      SWAP1 \t\t\taddress[] memory recipients, u...\n      POP \t\t\taddress[] memory recipients, u...\n      JUMP \t\t\taddress[] memory recipients, u...\n    tag 201\t\t\t = total + amounts[i];\\r\\n    ...\n      JUMPDEST \t\t\t = total + amounts[i];\\r\\n    ...\n      PUSH 0\t\t\te\n      DUP1 \t\t\tT\n      REVERT \t\t\ttal), \"Token\n    tag 202\t\t\t bytes memory data = abi.encod...\n      JUMPDEST \t\t\t bytes memory data = abi.encod...\n      PUSH 0\t\t\t6[])\"\n      PUSH [tag] 289\t\t\tients, amounts);\\r\\n        by...\n      PUSH [tag] 290\t\t\t\\r\\n        bytes memory sched...\n      DUP5 \t\t\tl(addr\n      PUSH [tag] 200\t\t\t\\r\\n        bytes memory sched...\n      JUMP \t\t\t\\r\\n        bytes memory sched...\n    tag 290\t\t\t\\r\\n        bytes memory sched...\n      JUMPDEST \t\t\t\\r\\n        bytes memory sched...\n      PUSH [tag] 199\t\t\tients, amounts);\\r\\n        by...\n      JUMP \t\t\tients, amounts);\\r\\n        by...\n    tag 289\t\t\tients, amounts);\\r\\n        by...\n      JUMPDEST \t\t\tients, amounts);\\r\\n        by...\n      SWAP1 \t\t\tss, recipients, amounts);\\r\\n ...\n      POP \t\t\tss, recipients, amounts);\\r\\n ...\n      DUP1 \t\t\t 6400\n      DUP4 \t\t\t  emit\n      DUP3 \t\t\t\\n    \n      MSTORE \t\t\tdata);\\r\\n        emit \n      PUSH 20\t\t\td,to\n      DUP3 \t\t\thedul\n      ADD \t\t\td(scheduleId,tok\n      SWAP1 \t\t\tcheduled(scheduleId,tok\n      POP \t\t\tcheduled(scheduleId,tok\n      PUSH 20\t\t\t+ de\n      DUP5 \t\t\tmestam\n      MUL \t\t\tk.timestamp + del\n      DUP4 \t\t\tts, bl\n      ADD \t\t\tmounts, block.timestamp + dela\n      DUP6 \t\t\tion\n      DUP2 \t\t\t   fun\n      GT \t\t\t\\r\\n    function \n      ISZERO \t\t\t}\\r\\n\\r\\n    function executeE...\n      PUSH [tag] 291\t\t\t}\\r\\n\\r\\n    function executeE...\n      JUMPI \t\t\t}\\r\\n\\r\\n    function executeE...\n      PUSH [tag] 292\t\t\tchTransfer(address tokenAddres...\n      PUSH [tag] 201\t\t\tchTransfer(address tokenAddres...\n      JUMP \t\t\tchTransfer(address tokenAddres...\n    tag 292\t\t\tchTransfer(address tokenAddres...\n      JUMPDEST \t\t\tchTransfer(address tokenAddres...\n    tag 291\t\t\t}\\r\\n\\r\\n    function executeE...\n      JUMPDEST \t\t\t}\\r\\n\\r\\n    function executeE...\n      DUP4 \t\t\tken = \n    tag 293\t\t\t        IERC20 token = IERC20(...\n      JUMPDEST \t\t\t        IERC20 token = IERC20(...\n      DUP2 \t\t\tnAddre\n      DUP2 \t\t\t(to\n      LT \t\t\tC20(tokenAddres\n      ISZERO \t\t\t        IERC20 token = IERC20(...\n      PUSH [tag] 295\t\t\t        IERC20 token = IERC20(...\n      JUMPI \t\t\t        IERC20 token = IERC20(...\n      DUP1 \t\t\td r\n      PUSH [tag] 296\t\t\t        for (uint256 i = 0; i ...\n      DUP9 \t\t\teci\n      DUP3 \t\t\ti = 0; i <\n      PUSH [tag] 194\t\t\t        for (uint256 i = 0; i ...\n      JUMP \t\t\t        for (uint256 i = 0; i ...\n    tag 296\t\t\t        for (uint256 i = 0; i ...\n      JUMPDEST \t\t\t        for (uint256 i = 0; i ...\n      DUP5 \t\t\t\");\n      MSTORE \t\t\tamounts\");\\r\\n        for (uin...\n      PUSH 20\t\t\t    \n      DUP5 \t\t\t   \n      ADD \t\t\t\\n            r\n      SWAP4 \t\t\ti++) {\\r\\n            r\n      POP \t\t\ti++) {\\r\\n            r\n      POP \t\t\tgth == amounts.length, \"Mismat...\n      PUSH 20\t\t\te(re\n      DUP2 \t\t\tequ\n      ADD \t\t\t   require(rec\n      SWAP1 \t\t\t\\r\\n        require(rec\n      POP \t\t\t\\r\\n        require(rec\n      PUSH [tag] 293\t\t\t        IERC20 token = IERC20(...\n      JUMP \t\t\t        IERC20 token = IERC20(...\n    tag 295\t\t\t        IERC20 token = IERC20(...\n      JUMPDEST \t\t\t        IERC20 token = IERC20(...\n      POP \t\t\t    IERC20 token = IE\n      POP \t\t\ttokenAddress, recipients, amou...\n      POP \t\t\ttokenAddress, recipients, amou...\n      SWAP4 \t\t\t bytes memory data = abi.encod...\n      SWAP3 \t\t\t bytes memory data = abi.encod...\n      POP \t\t\t bytes memory data = abi.encod...\n      POP \t\t\t bytes memory data = abi.encod...\n      POP \t\t\t bytes memory data = abi.encod...\n      JUMP \t\t\t bytes memory data = abi.encod...\n    tag 203\t\t\tounts[i]), \"Token transfer fai...\n      JUMPDEST \t\t\tounts[i]), \"Token transfer fai...\n      PUSH 0\t\t\ter(i,\n      DUP3 \t\t\t }\\r\n      PUSH 1F\t\t\t }\\r\\n\n      DUP4 \t\t\t\\n     \n      ADD \t\t\t]);\\r\\n        }\\r\\n \n      SLT \t\t\tts[i]);\\r\\n        }\\r\\n    }\\...\n      PUSH [tag] 298\t\t\t[i], amounts[i]);\\r\\n        }...\n      JUMPI \t\t\t[i], amounts[i]);\\r\\n        }...\n      PUSH [tag] 299\t\t\t  function priceTriggeredDispe...\n      PUSH [tag] 195\t\t\t  function priceTriggeredDispe...\n      JUMP \t\t\t  function priceTriggeredDispe...\n    tag 299\t\t\t  function priceTriggeredDispe...\n      JUMPDEST \t\t\t  function priceTriggeredDispe...\n    tag 298\t\t\t[i], amounts[i]);\\r\\n        }...\n      JUMPDEST \t\t\t[i], amounts[i]);\\r\\n        }...\n      DUP2 \t\t\tt256[]\n      CALLDATALOAD \t\t\t\\r\\n        uint256[] \n      PUSH [tag] 300\t\t\t       uint256 desiredPrice,\\r...\n      DUP5 \t\t\tC20\n      DUP3 \t\t\t     I\n      PUSH 20\t\t\tc{\\r\\n\n      DUP7 \t\t\tle pub\n      ADD \t\t\tayable public{\\r\\n \n      PUSH [tag] 202\t\t\t       uint256 desiredPrice,\\r...\n      JUMP \t\t\t       uint256 desiredPrice,\\r...\n    tag 300\t\t\t       uint256 desiredPrice,\\r...\n      JUMPDEST \t\t\t       uint256 desiredPrice,\\r...\n      SWAP2 \t\t\tounts,\\r\\n        uint256 desi...\n      POP \t\t\tounts,\\r\\n        uint256 desi...\n      POP \t\t\trecipients[i], amounts[i]);\\r\\...\n      SWAP3 \t\t\tounts[i]), \"Token transfer fai...\n      SWAP2 \t\t\tounts[i]), \"Token transfer fai...\n      POP \t\t\tounts[i]), \"Token transfer fai...\n      POP \t\t\tounts[i]), \"Token transfer fai...\n      JUMP \t\t\tounts[i]), \"Token transfer fai...\n    tag 204\t\t\t20(tokenAddress);\\r\\n        a...\n      JUMPDEST \t\t\t20(tokenAddress);\\r\\n        a...\n      PUSH 0\t\t\trent\n      PUSH FFFFFFFFFFFFFFFF\t\t\t\\n            execu\n      DUP3 \t\t\trice) \n      GT \t\t\tedPrice) {\\r\\n            exec...\n      ISZERO \t\t\tsiredPrice) {\\r\\n            e...\n      PUSH [tag] 302\t\t\tsiredPrice) {\\r\\n            e...\n      JUMPI \t\t\tsiredPrice) {\\r\\n            e...\n      PUSH [tag] 303\t\t\ttchTransfer(tokenA\n      PUSH [tag] 197\t\t\ttchTransfer(tokenA\n      JUMP \t\t\ttchTransfer(tokenA\n    tag 303\t\t\ttchTransfer(tokenA\n      JUMPDEST \t\t\ttchTransfer(tokenA\n    tag 302\t\t\tsiredPrice) {\\r\\n            e...\n      JUMPDEST \t\t\tsiredPrice) {\\r\\n            e...\n      PUSH 20\t\t\tnder\n      DUP3 \t\t\tnts, s\n      MUL \t\t\tamounts, spender)\n      SWAP1 \t\t\tpients, amounts, spender)\n      POP \t\t\tpients, amounts, spender)\n      PUSH 20\t\t\ti.en\n      DUP2 \t\t\ta = \n      ADD \t\t\t data = abi.enc\n      SWAP1 \t\t\ts memory data = abi.enc\n      POP \t\t\ts memory data = abi.enc\n      SWAP2 \t\t\t20(tokenAddress);\\r\\n        a...\n      SWAP1 \t\t\t20(tokenAddress);\\r\\n        a...\n      POP \t\t\t20(tokenAddress);\\r\\n        a...\n      JUMP \t\t\t20(tokenAddress);\\r\\n        a...\n    tag 205\t\t\ture(\\r\\n                \"check...\n      JUMPDEST \t\t\ture(\\r\\n                \"check...\n      PUSH 0\t\t\tisperse\n      DUP2 \t\t\tt256[\n      SWAP1 \t\t\tdress[],uint256[\n      POP \t\t\tdress[],uint256[\n      SWAP2 \t\t\ture(\\r\\n                \"check...\n      SWAP1 \t\t\ture(\\r\\n                \"check...\n      POP \t\t\ture(\\r\\n                \"check...\n      JUMP \t\t\ture(\\r\\n                \"check...\n    tag 206\t\t\tnt256,address)\",\\r\\n          ...\n      JUMPDEST \t\t\tnt256,address)\",\\r\\n          ...\n      PUSH [tag] 306\t\t\tts,\\r\\n                amo\n      DUP2 \t\t\t   am\n      PUSH [tag] 205\t\t\tts,\\r\\n                amo\n      JUMP \t\t\tts,\\r\\n                amo\n    tag 306\t\t\tts,\\r\\n                amo\n      JUMPDEST \t\t\tts,\\r\\n                amo\n      DUP2 \t\t\tecipi\n      EQ \t\t\t  recipients,\\r\\n             ...\n      PUSH [tag] 307\t\t\t            recipients,\\r\\n   ...\n      JUMPI \t\t\t            recipients,\\r\\n   ...\n      PUSH 0\t\t\t \n      DUP1 \t\t\t \n      REVERT \t\t\t\\r\\n          \n    tag 307\t\t\t            recipients,\\r\\n   ...\n      JUMPDEST \t\t\t            recipients,\\r\\n   ...\n      POP \t\t\tnt256,address)\",\\r\\n          ...\n      JUMP \t\t\tnt256,address)\",\\r\\n          ...\n    tag 207\t\t\trice,\\r\\n                inter...\n      JUMPDEST \t\t\trice,\\r\\n                inter...\n      PUSH 0\t\t\t    s\n      DUP2 \t\t\t   byt\n      CALLDATALOAD \t\t\t);\\r\\n            byte\n      SWAP1 \t\t\t         );\\r\\n            byt...\n      POP \t\t\t         );\\r\\n            byt...\n      PUSH [tag] 309\t\t\tscheduleId = scheduler.schedul...\n      DUP2 \t\t\tduleC\n      PUSH [tag] 206\t\t\tscheduleId = scheduler.schedul...\n      JUMP \t\t\tscheduleId = scheduler.schedul...\n    tag 309\t\t\tscheduleId = scheduler.schedul...\n      JUMPDEST \t\t\tscheduleId = scheduler.schedul...\n      SWAP3 \t\t\trice,\\r\\n                inter...\n      SWAP2 \t\t\trice,\\r\\n                inter...\n      POP \t\t\trice,\\r\\n                inter...\n      POP \t\t\trice,\\r\\n                inter...\n      JUMP \t\t\trice,\\r\\n                inter...\n    tag 208\t\t\t 64000, interval, data);\\r\\n  ...\n      JUMPDEST \t\t\t 64000, interval, data);\\r\\n  ...\n      PUSH 0\t\t\terval\n      PUSH [tag] 311\t\t\t\\r\\n\\r\\n    function checkPric...\n      PUSH [tag] 312\t\t\t checkPriceandDisperse(\\r\\n   ...\n      DUP5 \t\t\t      \n      PUSH [tag] 204\t\t\t checkPriceandDisperse(\\r\\n   ...\n      JUMP \t\t\t checkPriceandDisperse(\\r\\n   ...\n    tag 312\t\t\t checkPriceandDisperse(\\r\\n   ...\n      JUMPDEST \t\t\t checkPriceandDisperse(\\r\\n   ...\n      PUSH [tag] 199\t\t\t\\r\\n\\r\\n    function checkPric...\n      JUMP \t\t\t\\r\\n\\r\\n    function checkPric...\n    tag 311\t\t\t\\r\\n\\r\\n    function checkPric...\n      JUMPDEST \t\t\t\\r\\n\\r\\n    function checkPric...\n      SWAP1 \t\t\t }\\r\\n    }\\r\\n\\r\\n    functio...\n      POP \t\t\t }\\r\\n    }\\r\\n\\r\\n    functio...\n      DUP1 \t\t\tpient\n      DUP4 \t\t\tmory a\n      DUP3 \t\t\t56[] \n      MSTORE \t\t\t  uint256[] memory am\n      PUSH 20\t\t\tired\n      DUP3 \t\t\t256 d\n      ADD \t\t\tuint256 desiredP\n      SWAP1 \t\t\t       uint256 desiredP\n      POP \t\t\t       uint256 desiredP\n      PUSH 20\t\t\ts sp\n      DUP5 \t\t\t  addr\n      MUL \t\t\t      address spe\n      DUP4 \t\t\tval,\\r\\n\n      ADD \t\t\tnterval,\\r\\n        address sp...\n      DUP6 \t\t\t   \n      DUP2 \t\t\tic {\\r\\n\n      GT \t\t\tublic {\\r\\n      \n      ISZERO \t\t\t) public {\\r\\n        IERC20 t...\n      PUSH [tag] 313\t\t\t) public {\\r\\n        IERC20 t...\n      JUMPI \t\t\t) public {\\r\\n        IERC20 t...\n      PUSH [tag] 314\t\t\t= IERC20(tokenAddress);\\r\\n   ...\n      PUSH [tag] 201\t\t\t= IERC20(tokenAddress);\\r\\n   ...\n      JUMP \t\t\t= IERC20(tokenAddress);\\r\\n   ...\n    tag 314\t\t\t= IERC20(tokenAddress);\\r\\n   ...\n      JUMPDEST \t\t\t= IERC20(tokenAddress);\\r\\n   ...\n    tag 313\t\t\t) public {\\r\\n        IERC20 t...\n      JUMPDEST \t\t\t) public {\\r\\n        IERC20 t...\n      DUP4 \t\t\t== des\n    tag 315\t\t\tif (currentPrice == desiredPri...\n      JUMPDEST \t\t\tif (currentPrice == desiredPri...\n      DUP2 \t\t\t{\\r\\n   \n      DUP2 \t\t\tice\n      LT \t\t\tdPrice) {\\r\\n    \n      ISZERO \t\t\tif (currentPrice == desiredPri...\n      PUSH [tag] 317\t\t\tif (currentPrice == desiredPri...\n      JUMPI \t\t\tif (currentPrice == desiredPri...\n      DUP1 \t\t\ter)\n      PUSH [tag] 318\t\t\t       priceTriggeredDispersal...\n      DUP9 \t\t\tken\n      DUP3 \t\t\tDispersal(\n      PUSH [tag] 207\t\t\t       priceTriggeredDispersal...\n      JUMP \t\t\t       priceTriggeredDispersal...\n    tag 318\t\t\t       priceTriggeredDispersal...\n      JUMPDEST \t\t\t       priceTriggeredDispersal...\n      DUP5 \t\t\t   \n      MSTORE \t\t\tlse {\\r\\n            priceTrig...\n      PUSH 20\t\t\tesir\n      DUP5 \t\t\tts,\n      ADD \t\t\tmounts, desire\n      SWAP4 \t\t\tents, amounts, desire\n      POP \t\t\tents, amounts, desire\n      POP \t\t\tddress, recipients, amounts,sp...\n      PUSH 20\t\t\thTra\n      DUP2 \t\t\teBa\n      ADD \t\t\tecuteBatchTran\n      SWAP1 \t\t\t     executeBatchTran\n      POP \t\t\t     executeBatchTran\n      PUSH [tag] 315\t\t\tif (currentPrice == desiredPri...\n      JUMP \t\t\tif (currentPrice == desiredPri...\n    tag 317\t\t\tif (currentPrice == desiredPri...\n      JUMPDEST \t\t\tif (currentPrice == desiredPri...\n      POP \t\t\tcurrentPrice == desir\n      POP \t\t\t;\\r\\n        }\\r\\n    }\\r\\n\\r\\...\n      POP \t\t\t;\\r\\n        }\\r\\n    }\\r\\n\\r\\...\n      SWAP4 \t\t\t 64000, interval, data);\\r\\n  ...\n      SWAP3 \t\t\t 64000, interval, data);\\r\\n  ...\n      POP \t\t\t 64000, interval, data);\\r\\n  ...\n      POP \t\t\t 64000, interval, data);\\r\\n  ...\n      POP \t\t\t 64000, interval, data);\\r\\n  ...\n      JUMP \t\t\t 64000, interval, data);\\r\\n  ...\n    tag 209\t\t\t\\n    function executeBatchTra...\n      JUMPDEST \t\t\t\\n    function executeBatchTra...\n      PUSH 0\t\t\t     \n      DUP3 \t\t\t6[]\n      PUSH 1F\t\t\t uin\n      DUP4 \t\t\t\\n     \n      ADD \t\t\tts,\\r\\n        uint\n      SLT \t\t\tpients,\\r\\n        uint256[] \n      PUSH [tag] 320\t\t\temory recipients,\\r\\n        u...\n      JUMPI \t\t\temory recipients,\\r\\n        u...\n      PUSH [tag] 321\t\t\try amounts,\\r\\n        address...\n      PUSH [tag] 195\t\t\try amounts,\\r\\n        address...\n      JUMP \t\t\try amounts,\\r\\n        address...\n    tag 321\t\t\try amounts,\\r\\n        address...\n      JUMPDEST \t\t\try amounts,\\r\\n        address...\n    tag 320\t\t\temory recipients,\\r\\n        u...\n      JUMPDEST \t\t\temory recipients,\\r\\n        u...\n      DUP2 \t\t\tcipien\n      CALLDATALOAD \t\t\t   require(recipient\n      PUSH [tag] 322\t\t\ts.length, \"Mismatched recipien...\n      DUP5 \t\t\t fo\n      DUP3 \t\t\t\\n     \n      PUSH 20\t\t\tt = \n      DUP7 \t\t\ttalAmo\n      ADD \t\t\t6 totalAmount = 0\n      PUSH [tag] 208\t\t\ts.length, \"Mismatched recipien...\n      JUMP \t\t\ts.length, \"Mismatched recipien...\n    tag 322\t\t\ts.length, \"Mismatched recipien...\n      JUMPDEST \t\t\ts.length, \"Mismatched recipien...\n      SWAP2 \t\t\t== amounts.length, \"Mismatched...\n      POP \t\t\t== amounts.length, \"Mismatched...\n      POP \t\t\tddress[] memory recipients,\\r\\...\n      SWAP3 \t\t\t\\n    function executeBatchTra...\n      SWAP2 \t\t\t\\n    function executeBatchTra...\n      POP \t\t\t\\n    function executeBatchTra...\n      POP \t\t\t\\n    function executeBatchTra...\n      JUMP \t\t\t\\n    function executeBatchTra...\n    tag 15\t\t\t= 0; i < amounts.length; i++) ...\n      JUMPDEST \t\t\t= 0; i < amounts.length; i++) ...\n      PUSH 0\t\t\t addre\n      DUP1 \t\t\t(this)\n      PUSH 0\t\t\ttotalA\n      PUSH 60\t\t\tfo\n      DUP5 \t\t\t);\\r\\n     \n      DUP7 \t\t\tr faile\n      SUB \t\t\tnsfer failed\");\\r\\n      \n      SLT \t\t\t transfer failed\");\\r\\n       ...\n      ISZERO \t\t\tken transfer failed\");\\r\\n    ...\n      PUSH [tag] 324\t\t\tken transfer failed\");\\r\\n    ...\n      JUMPI \t\t\tken transfer failed\");\\r\\n    ...\n      PUSH [tag] 325\t\t\tint256 i = 0; i < recipients.l...\n      PUSH [tag] 189\t\t\tint256 i = 0; i < recipients.l...\n      JUMP \t\t\tint256 i = 0; i < recipients.l...\n    tag 325\t\t\tint256 i = 0; i < recipients.l...\n      JUMPDEST \t\t\tint256 i = 0; i < recipients.l...\n    tag 324\t\t\tken transfer failed\");\\r\\n    ...\n      JUMPDEST \t\t\tken transfer failed\");\\r\\n    ...\n      PUSH 0\t\t\t\n      PUSH [tag] 326\t\t\t\n      DUP7 \t\t\t\n      DUP3 \t\t\t\n      DUP8 \t\t\t\n      ADD \t\t\t\n      PUSH [tag] 194\t\t\t\n      JUMP \t\t\t\n    tag 326\t\t\t\n      JUMPDEST \t\t\t\n      SWAP4 \t\t\t\n      POP \t\t\t\n      POP \t\t\tnts[i]);\\r\\n        }\\r\\n    }...\n      PUSH 20\t\t\t\n      DUP5 \t\t\t\n      ADD \t\t\t\n      CALLDATALOAD \t\t\t\n      PUSH FFFFFFFFFFFFFFFF\t\t\t\n      DUP2 \t\t\t\n      GT \t\t\t\n      ISZERO \t\t\t\n      PUSH [tag] 327\t\t\t\n      JUMPI \t\t\t\n      PUSH [tag] 328\t\t\t\n      PUSH [tag] 190\t\t\t\n      JUMP \t\t\t\n    tag 328\t\t\t\n      JUMPDEST \t\t\t\n    tag 327\t\t\t\n      JUMPDEST \t\t\t\n      PUSH [tag] 329\t\t\t\n      DUP7 \t\t\t\n      DUP3 \t\t\t\n      DUP8 \t\t\t\n      ADD \t\t\t\n      PUSH [tag] 203\t\t\t\n      JUMP \t\t\t\n    tag 329\t\t\t\n      JUMPDEST \t\t\t\n      SWAP3 \t\t\t\n      POP \t\t\t\n      POP \t\t\t\n      PUSH 40\t\t\t\n      DUP5 \t\t\t\n      ADD \t\t\t\n      CALLDATALOAD \t\t\t\n      PUSH FFFFFFFFFFFFFFFF\t\t\t\n      DUP2 \t\t\t\n      GT \t\t\t\n      ISZERO \t\t\t\n      PUSH [tag] 330\t\t\t\n      JUMPI \t\t\t\n      PUSH [tag] 331\t\t\t\n      PUSH [tag] 190\t\t\t\n      JUMP \t\t\t\n    tag 331\t\t\t\n      JUMPDEST \t\t\t\n    tag 330\t\t\t\n      JUMPDEST \t\t\t\n      PUSH [tag] 332\t\t\t\n      DUP7 \t\t\t\n      DUP3 \t\t\t\n      DUP8 \t\t\t\n      ADD \t\t\t\n      PUSH [tag] 209\t\t\t\n      JUMP \t\t\t\n    tag 332\t\t\t\n      JUMPDEST \t\t\t\n      SWAP2 \t\t\t\n      POP \t\t\t\n      POP \t\t\t\n      SWAP3 \t\t\t= 0; i < amounts.length; i++) ...\n      POP \t\t\t= 0; i < amounts.length; i++) ...\n      SWAP3 \t\t\t= 0; i < amounts.length; i++) ...\n      POP \t\t\t= 0; i < amounts.length; i++) ...\n      SWAP3 \t\t\t= 0; i < amounts.length; i++) ...\n      JUMP \t\t\t= 0; i < amounts.length; i++) ...\n    tag 19\t\t\t\n      JUMPDEST \t\t\t\n      PUSH 0\t\t\t\n      DUP1 \t\t\t\n      PUSH 0\t\t\t\n      DUP1 \t\t\t\n      PUSH 80\t\t\t\n      DUP6 \t\t\t\n      DUP8 \t\t\t\n      SUB \t\t\t\n      SLT \t\t\t\n      ISZERO \t\t\t\n      PUSH [tag] 334\t\t\t\n      JUMPI \t\t\t\n      PUSH [tag] 335\t\t\t\n      PUSH [tag] 189\t\t\t\n      JUMP \t\t\t\n    tag 335\t\t\t\n      JUMPDEST \t\t\t\n    tag 334\t\t\t\n      JUMPDEST \t\t\t\n      PUSH 0\t\t\t\n      PUSH [tag] 336\t\t\t\n      DUP8 \t\t\t\n      DUP3 \t\t\t\n      DUP9 \t\t\t\n      ADD \t\t\t\n      PUSH [tag] 194\t\t\t\n      JUMP \t\t\t\n    tag 336\t\t\t\n      JUMPDEST \t\t\t\n      SWAP5 \t\t\t\n      POP \t\t\t\n      POP \t\t\t\n      PUSH 20\t\t\t\n      DUP6 \t\t\t\n      ADD \t\t\t\n      CALLDATALOAD \t\t\t\n      PUSH FFFFFFFFFFFFFFFF\t\t\t\n      DUP2 \t\t\t\n      GT \t\t\t\n      ISZERO \t\t\t\n      PUSH [tag] 337\t\t\t\n      JUMPI \t\t\t\n      PUSH [tag] 338\t\t\t\n      PUSH [tag] 190\t\t\t\n      JUMP \t\t\t\n    tag 338\t\t\t\n      JUMPDEST \t\t\t\n    tag 337\t\t\t\n      JUMPDEST \t\t\t\n      PUSH [tag] 339\t\t\t\n      DUP8 \t\t\t\n      DUP3 \t\t\t\n      DUP9 \t\t\t\n      ADD \t\t\t\n      PUSH [tag] 203\t\t\t\n      JUMP \t\t\t\n    tag 339\t\t\t\n      JUMPDEST \t\t\t\n      SWAP4 \t\t\t\n      POP \t\t\t\n      POP \t\t\t\n      PUSH 40\t\t\t\n      DUP6 \t\t\t\n      ADD \t\t\t\n      CALLDATALOAD \t\t\t\n      PUSH FFFFFFFFFFFFFFFF\t\t\t\n      DUP2 \t\t\t\n      GT \t\t\t\n      ISZERO \t\t\t\n      PUSH [tag] 340\t\t\t\n      JUMPI \t\t\t\n      PUSH [tag] 341\t\t\t\n      PUSH [tag] 190\t\t\t\n      JUMP \t\t\t\n    tag 341\t\t\t\n      JUMPDEST \t\t\t\n    tag 340\t\t\t\n      JUMPDEST \t\t\t\n      PUSH [tag] 342\t\t\t\n      DUP8 \t\t\t\n      DUP3 \t\t\t\n      DUP9 \t\t\t\n      ADD \t\t\t\n      PUSH [tag] 209\t\t\t\n      JUMP \t\t\t\n    tag 342\t\t\t\n      JUMPDEST \t\t\t\n      SWAP3 \t\t\t\n      POP \t\t\t\n      POP \t\t\t\n      PUSH 60\t\t\t\n      PUSH [tag] 343\t\t\t\n      DUP8 \t\t\t\n      DUP3 \t\t\t\n      DUP9 \t\t\t\n      ADD \t\t\t\n      PUSH [tag] 207\t\t\t\n      JUMP \t\t\t\n    tag 343\t\t\t\n      JUMPDEST \t\t\t\n      SWAP2 \t\t\t\n      POP \t\t\t\n      POP \t\t\t\n      SWAP3 \t\t\t\n      SWAP6 \t\t\t\n      SWAP2 \t\t\t\n      SWAP5 \t\t\t\n      POP \t\t\t\n      SWAP3 \t\t\t\n      POP \t\t\t\n      JUMP \t\t\t\n    tag 24\t\t\t\n      JUMPDEST \t\t\t\n      PUSH 0\t\t\t\n      DUP1 \t\t\t\n      PUSH 0\t\t\t\n      DUP1 \t\t\t\n      PUSH 0\t\t\t\n      DUP1 \t\t\t\n      PUSH C0\t\t\t\n      DUP8 \t\t\t\n      DUP10 \t\t\t\n      SUB \t\t\t\n      SLT \t\t\t\n      ISZERO \t\t\t\n      PUSH [tag] 345\t\t\t\n      JUMPI \t\t\t\n      PUSH [tag] 346\t\t\t\n      PUSH [tag] 189\t\t\t\n      JUMP \t\t\t\n    tag 346\t\t\t\n      JUMPDEST \t\t\t\n    tag 345\t\t\t\n      JUMPDEST \t\t\t\n      PUSH 0\t\t\t\n      PUSH [tag] 347\t\t\t\n      DUP10 \t\t\t\n      DUP3 \t\t\t\n      DUP11 \t\t\t\n      ADD \t\t\t\n      PUSH [tag] 194\t\t\t\n      JUMP \t\t\t\n    tag 347\t\t\t\n      JUMPDEST \t\t\t\n      SWAP7 \t\t\t\n      POP \t\t\t\n      POP \t\t\t\n      PUSH 20\t\t\t\n      DUP8 \t\t\t\n      ADD \t\t\t\n      CALLDATALOAD \t\t\t\n      PUSH FFFFFFFFFFFFFFFF\t\t\t\n      DUP2 \t\t\t\n      GT \t\t\t\n      ISZERO \t\t\t\n      PUSH [tag] 348\t\t\t\n      JUMPI \t\t\t\n      PUSH [tag] 349\t\t\t\n      PUSH [tag] 190\t\t\t\n      JUMP \t\t\t\n    tag 349\t\t\t\n      JUMPDEST \t\t\t\n    tag 348\t\t\t\n      JUMPDEST \t\t\t\n      PUSH [tag] 350\t\t\t\n      DUP10 \t\t\t\n      DUP3 \t\t\t\n      DUP11 \t\t\t\n      ADD \t\t\t\n      PUSH [tag] 203\t\t\t\n      JUMP \t\t\t\n    tag 350\t\t\t\n      JUMPDEST \t\t\t\n      SWAP6 \t\t\t\n      POP \t\t\t\n      POP \t\t\t\n      PUSH 40\t\t\t\n      DUP8 \t\t\t\n      ADD \t\t\t\n      CALLDATALOAD \t\t\t\n      PUSH FFFFFFFFFFFFFFFF\t\t\t\n      DUP2 \t\t\t\n      GT \t\t\t\n      ISZERO \t\t\t\n      PUSH [tag] 351\t\t\t\n      JUMPI \t\t\t\n      PUSH [tag] 352\t\t\t\n      PUSH [tag] 190\t\t\t\n      JUMP \t\t\t\n    tag 352\t\t\t\n      JUMPDEST \t\t\t\n    tag 351\t\t\t\n      JUMPDEST \t\t\t\n      PUSH [tag] 353\t\t\t\n      DUP10 \t\t\t\n      DUP3 \t\t\t\n      DUP11 \t\t\t\n      ADD \t\t\t\n      PUSH [tag] 209\t\t\t\n      JUMP \t\t\t\n    tag 353\t\t\t\n      JUMPDEST \t\t\t\n      SWAP5 \t\t\t\n      POP \t\t\t\n      POP \t\t\t\n      PUSH 60\t\t\t\n      PUSH [tag] 354\t\t\t\n      DUP10 \t\t\t\n      DUP3 \t\t\t\n      DUP11 \t\t\t\n      ADD \t\t\t\n      PUSH [tag] 207\t\t\t\n      JUMP \t\t\t\n    tag 354\t\t\t\n      JUMPDEST \t\t\t\n      SWAP4 \t\t\t\n      POP \t\t\t\n      POP \t\t\t\n      PUSH 80\t\t\t\n      PUSH [tag] 355\t\t\t\n      DUP10 \t\t\t\n      DUP3 \t\t\t\n      DUP11 \t\t\t\n      ADD \t\t\t\n      PUSH [tag] 207\t\t\t\n      JUMP \t\t\t\n    tag 355\t\t\t\n      JUMPDEST \t\t\t\n      SWAP3 \t\t\t\n      POP \t\t\t\n      POP \t\t\t\n      PUSH A0\t\t\t\n      PUSH [tag] 356\t\t\t\n      DUP10 \t\t\t\n      DUP3 \t\t\t\n      DUP11 \t\t\t\n      ADD \t\t\t\n      PUSH [tag] 194\t\t\t\n      JUMP \t\t\t\n    tag 356\t\t\t\n      JUMPDEST \t\t\t\n      SWAP2 \t\t\t\n      POP \t\t\t\n      POP \t\t\t\n      SWAP3 \t\t\t\n      SWAP6 \t\t\t\n      POP \t\t\t\n      SWAP3 \t\t\t\n      SWAP6 \t\t\t\n      POP \t\t\t\n      SWAP3 \t\t\t\n      SWAP6 \t\t\t\n      JUMP \t\t\t\n    tag 31\t\t\t\n      JUMPDEST \t\t\t\n      PUSH 0\t\t\t\n      DUP1 \t\t\t\n      PUSH 0\t\t\t\n      DUP1 \t\t\t\n      PUSH 0\t\t\t\n      PUSH A0\t\t\t\n      DUP7 \t\t\t\n      DUP9 \t\t\t\n      SUB \t\t\t\n      SLT \t\t\t\n      ISZERO \t\t\t\n      PUSH [tag] 358\t\t\t\n      JUMPI \t\t\t\n      PUSH [tag] 359\t\t\t\n      PUSH [tag] 189\t\t\t\n      JUMP \t\t\t\n    tag 359\t\t\t\n      JUMPDEST \t\t\t\n    tag 358\t\t\t\n      JUMPDEST \t\t\t\n      PUSH 0\t\t\t\n      PUSH [tag] 360\t\t\t\n      DUP9 \t\t\t\n      DUP3 \t\t\t\n      DUP10 \t\t\t\n      ADD \t\t\t\n      PUSH [tag] 194\t\t\t\n      JUMP \t\t\t\n    tag 360\t\t\t\n      JUMPDEST \t\t\t\n      SWAP6 \t\t\t\n      POP \t\t\t\n      POP \t\t\t\n      PUSH 20\t\t\t\n      DUP7 \t\t\t\n      ADD \t\t\t\n      CALLDATALOAD \t\t\t\n      PUSH FFFFFFFFFFFFFFFF\t\t\t\n      DUP2 \t\t\t\n      GT \t\t\t\n      ISZERO \t\t\t\n      PUSH [tag] 361\t\t\t\n      JUMPI \t\t\t\n      PUSH [tag] 362\t\t\t\n      PUSH [tag] 190\t\t\t\n      JUMP \t\t\t\n    tag 362\t\t\t\n      JUMPDEST \t\t\t\n    tag 361\t\t\t\n      JUMPDEST \t\t\t\n      PUSH [tag] 363\t\t\t\n      DUP9 \t\t\t\n      DUP3 \t\t\t\n      DUP10 \t\t\t\n      ADD \t\t\t\n      PUSH [tag] 203\t\t\t\n      JUMP \t\t\t\n    tag 363\t\t\t\n      JUMPDEST \t\t\t\n      SWAP5 \t\t\t\n      POP \t\t\t\n      POP \t\t\t\n      PUSH 40\t\t\t\n      DUP7 \t\t\t\n      ADD \t\t\t\n      CALLDATALOAD \t\t\t\n      PUSH FFFFFFFFFFFFFFFF\t\t\t\n      DUP2 \t\t\t\n      GT \t\t\t\n      ISZERO \t\t\t\n      PUSH [tag] 364\t\t\t\n      JUMPI \t\t\t\n      PUSH [tag] 365\t\t\t\n      PUSH [tag] 190\t\t\t\n      JUMP \t\t\t\n    tag 365\t\t\t\n      JUMPDEST \t\t\t\n    tag 364\t\t\t\n      JUMPDEST \t\t\t\n      PUSH [tag] 366\t\t\t\n      DUP9 \t\t\t\n      DUP3 \t\t\t\n      DUP10 \t\t\t\n      ADD \t\t\t\n      PUSH [tag] 209\t\t\t\n      JUMP \t\t\t\n    tag 366\t\t\t\n      JUMPDEST \t\t\t\n      SWAP4 \t\t\t\n      POP \t\t\t\n      POP \t\t\t\n      PUSH 60\t\t\t\n      PUSH [tag] 367\t\t\t\n      DUP9 \t\t\t\n      DUP3 \t\t\t\n      DUP10 \t\t\t\n      ADD \t\t\t\n      PUSH [tag] 207\t\t\t\n      JUMP \t\t\t\n    tag 367\t\t\t\n      JUMPDEST \t\t\t\n      SWAP3 \t\t\t\n      POP \t\t\t\n      POP \t\t\t\n      PUSH 80\t\t\t\n      PUSH [tag] 368\t\t\t\n      DUP9 \t\t\t\n      DUP3 \t\t\t\n      DUP10 \t\t\t\n      ADD \t\t\t\n      PUSH [tag] 207\t\t\t\n      JUMP \t\t\t\n    tag 368\t\t\t\n      JUMPDEST \t\t\t\n      SWAP2 \t\t\t\n      POP \t\t\t\n      POP \t\t\t\n      SWAP3 \t\t\t\n      SWAP6 \t\t\t\n      POP \t\t\t\n      SWAP3 \t\t\t\n      SWAP6 \t\t\t\n      SWAP1 \t\t\t\n      SWAP4 \t\t\t\n      POP \t\t\t\n      JUMP \t\t\t\n    tag 210\t\t\t\n      JUMPDEST \t\t\t\n      PUSH 0\t\t\t\n      DUP3 \t\t\t\n      DUP3 \t\t\t\n      MSTORE \t\t\t\n      PUSH 20\t\t\t\n      DUP3 \t\t\t\n      ADD \t\t\t\n      SWAP1 \t\t\t\n      POP \t\t\t\n      SWAP3 \t\t\t\n      SWAP2 \t\t\t\n      POP \t\t\t\n      POP \t\t\t\n      JUMP \t\t\t\n    tag 211\t\t\t\n      JUMPDEST \t\t\t\n      PUSH 4D69736D61746368656420726563697069656E747320616E6420616D6F756E74\t\t\t\n      PUSH 0\t\t\t\n      DUP3 \t\t\t\n      ADD \t\t\t\n      MSTORE \t\t\t\n      PUSH 7300000000000000000000000000000000000000000000000000000000000000\t\t\t\n      PUSH 20\t\t\t\n      DUP3 \t\t\t\n      ADD \t\t\t\n      MSTORE \t\t\t\n      POP \t\t\t\n      JUMP \t\t\t\n    tag 212\t\t\t\n      JUMPDEST \t\t\t\n      PUSH 0\t\t\t\n      PUSH [tag] 372\t\t\t\n      PUSH 21\t\t\t\n      DUP4 \t\t\t\n      PUSH [tag] 210\t\t\t\n      JUMP \t\t\t\n    tag 372\t\t\t\n      JUMPDEST \t\t\t\n      SWAP2 \t\t\t\n      POP \t\t\t\n      PUSH [tag] 373\t\t\t\n      DUP3 \t\t\t\n      PUSH [tag] 211\t\t\t\n      JUMP \t\t\t\n    tag 373\t\t\t\n      JUMPDEST \t\t\t\n      PUSH 40\t\t\t\n      DUP3 \t\t\t\n      ADD \t\t\t\n      SWAP1 \t\t\t\n      POP \t\t\t\n      SWAP2 \t\t\t\n      SWAP1 \t\t\t\n      POP \t\t\t\n      JUMP \t\t\t\n    tag 36\t\t\t\n      JUMPDEST \t\t\t\n      PUSH 0\t\t\t\n      PUSH 20\t\t\t\n      DUP3 \t\t\t\n      ADD \t\t\t\n      SWAP1 \t\t\t\n      POP \t\t\t\n      DUP2 \t\t\t\n      DUP2 \t\t\t\n      SUB \t\t\t\n      PUSH 0\t\t\t\n      DUP4 \t\t\t\n      ADD \t\t\t\n      MSTORE \t\t\t\n      PUSH [tag] 375\t\t\t\n      DUP2 \t\t\t\n      PUSH [tag] 212\t\t\t\n      JUMP \t\t\t\n    tag 375\t\t\t\n      JUMPDEST \t\t\t\n      SWAP1 \t\t\t\n      POP \t\t\t\n      SWAP2 \t\t\t\n      SWAP1 \t\t\t\n      POP \t\t\t\n      JUMP \t\t\t\n    tag 42\t\t\t\n      JUMPDEST \t\t\t\n      PUSH 4E487B7100000000000000000000000000000000000000000000000000000000\t\t\t\n      PUSH 0\t\t\t\n      MSTORE \t\t\t\n      PUSH 32\t\t\t\n      PUSH 4\t\t\t\n      MSTORE \t\t\t\n      PUSH 24\t\t\t\n      PUSH 0\t\t\t\n      REVERT \t\t\t\n    tag 213\t\t\t\n      JUMPDEST \t\t\t\n      PUSH [tag] 378\t\t\t\n      DUP2 \t\t\t\n      PUSH [tag] 192\t\t\t\n      JUMP \t\t\t\n    tag 378\t\t\t\n      JUMPDEST \t\t\t\n      DUP3 \t\t\t\n      MSTORE \t\t\t\n      POP \t\t\t\n      POP \t\t\t\n      JUMP \t\t\t\n    tag 214\t\t\t\n      JUMPDEST \t\t\t\n      PUSH [tag] 380\t\t\t\n      DUP2 \t\t\t\n      PUSH [tag] 205\t\t\t\n      JUMP \t\t\t\n    tag 380\t\t\t\n      JUMPDEST \t\t\t\n      DUP3 \t\t\t\n      MSTORE \t\t\t\n      POP \t\t\t\n      POP \t\t\t\n      JUMP \t\t\t\n    tag 46\t\t\t\n      JUMPDEST \t\t\t\n      PUSH 0\t\t\t\n      PUSH 40\t\t\t\n      DUP3 \t\t\t\n      ADD \t\t\t\n      SWAP1 \t\t\t\n      POP \t\t\t\n      PUSH [tag] 382\t\t\t\n      PUSH 0\t\t\t\n      DUP4 \t\t\t\n      ADD \t\t\t\n      DUP6 \t\t\t\n      PUSH [tag] 213\t\t\t\n      JUMP \t\t\t\n    tag 382\t\t\t\n      JUMPDEST \t\t\t\n      PUSH [tag] 383\t\t\t\n      PUSH 20\t\t\t\n      DUP4 \t\t\t\n      ADD \t\t\t\n      DUP5 \t\t\t\n      PUSH [tag] 214\t\t\t\n      JUMP \t\t\t\n    tag 383\t\t\t\n      JUMPDEST \t\t\t\n      SWAP4 \t\t\t\n      SWAP3 \t\t\t\n      POP \t\t\t\n      POP \t\t\t\n      POP \t\t\t\n      JUMP \t\t\t\n    tag 215\t\t\t\n      JUMPDEST \t\t\t\n      PUSH 0\t\t\t\n      DUP2 \t\t\t\n      ISZERO \t\t\t\n      ISZERO \t\t\t\n      SWAP1 \t\t\t\n      POP \t\t\t\n      SWAP2 \t\t\t\n      SWAP1 \t\t\t\n      POP \t\t\t\n      JUMP \t\t\t\n    tag 216\t\t\t\n      JUMPDEST \t\t\t\n      PUSH [tag] 386\t\t\t\n      DUP2 \t\t\t\n      PUSH [tag] 215\t\t\t\n      JUMP \t\t\t\n    tag 386\t\t\t\n      JUMPDEST \t\t\t\n      DUP2 \t\t\t\n      EQ \t\t\t\n      PUSH [tag] 387\t\t\t\n      JUMPI \t\t\t\n      PUSH 0\t\t\t\n      DUP1 \t\t\t\n      REVERT \t\t\t\n    tag 387\t\t\t\n      JUMPDEST \t\t\t\n      POP \t\t\t\n      JUMP \t\t\t\n    tag 217\t\t\t\n      JUMPDEST \t\t\t\n      PUSH 0\t\t\t\n      DUP2 \t\t\t\n      MLOAD \t\t\t\n      SWAP1 \t\t\t\n      POP \t\t\t\n      PUSH [tag] 389\t\t\t\n      DUP2 \t\t\t\n      PUSH [tag] 216\t\t\t\n      JUMP \t\t\t\n    tag 389\t\t\t\n      JUMPDEST \t\t\t\n      SWAP3 \t\t\t\n      SWAP2 \t\t\t\n      POP \t\t\t\n      POP \t\t\t\n      JUMP \t\t\t\n    tag 50\t\t\t\n      JUMPDEST \t\t\t\n      PUSH 0\t\t\t\n      PUSH 20\t\t\t\n      DUP3 \t\t\t\n      DUP5 \t\t\t\n      SUB \t\t\t\n      SLT \t\t\t\n      ISZERO \t\t\t\n      PUSH [tag] 391\t\t\t\n      JUMPI \t\t\t\n      PUSH [tag] 392\t\t\t\n      PUSH [tag] 189\t\t\t\n      JUMP \t\t\t\n    tag 392\t\t\t\n      JUMPDEST \t\t\t\n    tag 391\t\t\t\n      JUMPDEST \t\t\t\n      PUSH 0\t\t\t\n      PUSH [tag] 393\t\t\t\n      DUP5 \t\t\t\n      DUP3 \t\t\t\n      DUP6 \t\t\t\n      ADD \t\t\t\n      PUSH [tag] 217\t\t\t\n      JUMP \t\t\t\n    tag 393\t\t\t\n      JUMPDEST \t\t\t\n      SWAP2 \t\t\t\n      POP \t\t\t\n      POP \t\t\t\n      SWAP3 \t\t\t\n      SWAP2 \t\t\t\n      POP \t\t\t\n      POP \t\t\t\n      JUMP \t\t\t\n    tag 218\t\t\t\n      JUMPDEST \t\t\t\n      PUSH 546F6B656E207472616E73666572206661696C65640000000000000000000000\t\t\t\n      PUSH 0\t\t\t\n      DUP3 \t\t\t\n      ADD \t\t\t\n      MSTORE \t\t\t\n      POP \t\t\t\n      JUMP \t\t\t\n    tag 219\t\t\t\n      JUMPDEST \t\t\t\n      PUSH 0\t\t\t\n      PUSH [tag] 396\t\t\t\n      PUSH 15\t\t\t\n      DUP4 \t\t\t\n      PUSH [tag] 210\t\t\t\n      JUMP \t\t\t\n    tag 396\t\t\t\n      JUMPDEST \t\t\t\n      SWAP2 \t\t\t\n      POP \t\t\t\n      PUSH [tag] 397\t\t\t\n      DUP3 \t\t\t\n      PUSH [tag] 218\t\t\t\n      JUMP \t\t\t\n    tag 397\t\t\t\n      JUMPDEST \t\t\t\n      PUSH 20\t\t\t\n      DUP3 \t\t\t\n      ADD \t\t\t\n      SWAP1 \t\t\t\n      POP \t\t\t\n      SWAP2 \t\t\t\n      SWAP1 \t\t\t\n      POP \t\t\t\n      JUMP \t\t\t\n    tag 53\t\t\t\n      JUMPDEST \t\t\t\n      PUSH 0\t\t\t\n      PUSH 20\t\t\t\n      DUP3 \t\t\t\n      ADD \t\t\t\n      SWAP1 \t\t\t\n      POP \t\t\t\n      DUP2 \t\t\t\n      DUP2 \t\t\t\n      SUB \t\t\t\n      PUSH 0\t\t\t\n      DUP4 \t\t\t\n      ADD \t\t\t\n      MSTORE \t\t\t\n      PUSH [tag] 399\t\t\t\n      DUP2 \t\t\t\n      PUSH [tag] 219\t\t\t\n      JUMP \t\t\t\n    tag 399\t\t\t\n      JUMPDEST \t\t\t\n      SWAP1 \t\t\t\n      POP \t\t\t\n      SWAP2 \t\t\t\n      SWAP1 \t\t\t\n      POP \t\t\t\n      JUMP \t\t\t\n    tag 59\t\t\t\n      JUMPDEST \t\t\t\n      PUSH 0\t\t\t\n      PUSH 20\t\t\t\n      DUP3 \t\t\t\n      ADD \t\t\t\n      SWAP1 \t\t\t\n      POP \t\t\t\n      PUSH [tag] 401\t\t\t\n      PUSH 0\t\t\t\n      DUP4 \t\t\t\n      ADD \t\t\t\n      DUP5 \t\t\t\n      PUSH [tag] 214\t\t\t\n      JUMP \t\t\t\n    tag 401\t\t\t\n      JUMPDEST \t\t\t\n      SWAP3 \t\t\t\n      SWAP2 \t\t\t\n      POP \t\t\t\n      POP \t\t\t\n      JUMP \t\t\t\n    tag 220\t\t\t\n      JUMPDEST \t\t\t\n      PUSH 4E487B7100000000000000000000000000000000000000000000000000000000\t\t\t\n      PUSH 0\t\t\t\n      MSTORE \t\t\t\n      PUSH 11\t\t\t\n      PUSH 4\t\t\t\n      MSTORE \t\t\t\n      PUSH 24\t\t\t\n      PUSH 0\t\t\t\n      REVERT \t\t\t\n    tag 61\t\t\t\n      JUMPDEST \t\t\t\n      PUSH 0\t\t\t\n      PUSH [tag] 404\t\t\t\n      DUP3 \t\t\t\n      PUSH [tag] 205\t\t\t\n      JUMP \t\t\t\n    tag 404\t\t\t\n      JUMPDEST \t\t\t\n      SWAP2 \t\t\t\n      POP \t\t\t\n      PUSH FFFFFFFFFFFFFFFFFFFFFFFFFFFFFFFFFFFFFFFFFFFFFFFFFFFFFFFFFFFFFFFF\t\t\t\n      DUP3 \t\t\t\n      SUB \t\t\t\n      PUSH [tag] 405\t\t\t\n      JUMPI \t\t\t\n      PUSH [tag] 406\t\t\t\n      PUSH [tag] 220\t\t\t\n      JUMP \t\t\t\n    tag 406\t\t\t\n      JUMPDEST \t\t\t\n    tag 405\t\t\t\n      JUMPDEST \t\t\t\n      PUSH 1\t\t\t\n      DUP3 \t\t\t\n      ADD \t\t\t\n      SWAP1 \t\t\t\n      POP \t\t\t\n      SWAP2 \t\t\t\n      SWAP1 \t\t\t\n      POP \t\t\t\n      JUMP \t\t\t\n    tag 221\t\t\t\n      JUMPDEST \t\t\t\n      PUSH 4769766520696E70757473206163636F7264696E676C79210000000000000000\t\t\t\n      PUSH 0\t\t\t\n      DUP3 \t\t\t\n      ADD \t\t\t\n      MSTORE \t\t\t\n      POP \t\t\t\n      JUMP \t\t\t\n    tag 222\t\t\t\n      JUMPDEST \t\t\t\n      PUSH 0\t\t\t\n      PUSH [tag] 409\t\t\t\n      PUSH 18\t\t\t\n      DUP4 \t\t\t\n      PUSH [tag] 210\t\t\t\n      JUMP \t\t\t\n    tag 409\t\t\t\n      JUMPDEST \t\t\t\n      SWAP2 \t\t\t\n      POP \t\t\t\n      PUSH [tag] 410\t\t\t\n      DUP3 \t\t\t\n      PUSH [tag] 221\t\t\t\n      JUMP \t\t\t\n    tag 410\t\t\t\n      JUMPDEST \t\t\t\n      PUSH 20\t\t\t\n      DUP3 \t\t\t\n      ADD \t\t\t\n      SWAP1 \t\t\t\n      POP \t\t\t\n      SWAP2 \t\t\t\n      SWAP1 \t\t\t\n      POP \t\t\t\n      JUMP \t\t\t\n    tag 65\t\t\t\n      JUMPDEST \t\t\t\n      PUSH 0\t\t\t\n      PUSH 20\t\t\t\n      DUP3 \t\t\t\n      ADD \t\t\t\n      SWAP1 \t\t\t\n      POP \t\t\t\n      DUP2 \t\t\t\n      DUP2 \t\t\t\n      SUB \t\t\t\n      PUSH 0\t\t\t\n      DUP4 \t\t\t\n      ADD \t\t\t\n      MSTORE \t\t\t\n      PUSH [tag] 412\t\t\t\n      DUP2 \t\t\t\n      PUSH [tag] 222\t\t\t\n      JUMP \t\t\t\n    tag 412\t\t\t\n      JUMPDEST \t\t\t\n      SWAP1 \t\t\t\n      POP \t\t\t\n      SWAP2 \t\t\t\n      SWAP1 \t\t\t\n      POP \t\t\t\n      JUMP \t\t\t\n    tag 72\t\t\t\n      JUMPDEST \t\t\t\n      PUSH 0\t\t\t\n      PUSH [tag] 414\t\t\t\n      DUP3 \t\t\t\n      PUSH [tag] 205\t\t\t\n      JUMP \t\t\t\n    tag 414\t\t\t\n      JUMPDEST \t\t\t\n      SWAP2 \t\t\t\n      POP \t\t\t\n      PUSH [tag] 415\t\t\t\n      DUP4 \t\t\t\n      PUSH [tag] 205\t\t\t\n      JUMP \t\t\t\n    tag 415\t\t\t\n      JUMPDEST \t\t\t\n      SWAP3 \t\t\t\n      POP \t\t\t\n      DUP3 \t\t\t\n      DUP3 \t\t\t\n      ADD \t\t\t\n      SWAP1 \t\t\t\n      POP \t\t\t\n      DUP1 \t\t\t\n      DUP3 \t\t\t\n      GT \t\t\t\n      ISZERO \t\t\t\n      PUSH [tag] 416\t\t\t\n      JUMPI \t\t\t\n      PUSH [tag] 417\t\t\t\n      PUSH [tag] 220\t\t\t\n      JUMP \t\t\t\n    tag 417\t\t\t\n      JUMPDEST \t\t\t\n    tag 416\t\t\t\n      JUMPDEST \t\t\t\n      SWAP3 \t\t\t\n      SWAP2 \t\t\t\n      POP \t\t\t\n      POP \t\t\t\n      JUMP \t\t\t\n    tag 75\t\t\t\n      JUMPDEST \t\t\t\n      PUSH 0\t\t\t\n      PUSH 60\t\t\t\n      DUP3 \t\t\t\n      ADD \t\t\t\n      SWAP1 \t\t\t\n      POP \t\t\t\n      PUSH [tag] 419\t\t\t\n      PUSH 0\t\t\t\n      DUP4 \t\t\t\n      ADD \t\t\t\n      DUP7 \t\t\t\n      PUSH [tag] 213\t\t\t\n      JUMP \t\t\t\n    tag 419\t\t\t\n      JUMPDEST \t\t\t\n      PUSH [tag] 420\t\t\t\n      PUSH 20\t\t\t\n      DUP4 \t\t\t\n      ADD \t\t\t\n      DUP6 \t\t\t\n      PUSH [tag] 213\t\t\t\n      JUMP \t\t\t\n    tag 420\t\t\t\n      JUMPDEST \t\t\t\n      PUSH [tag] 421\t\t\t\n      PUSH 40\t\t\t\n      DUP4 \t\t\t\n      ADD \t\t\t\n      DUP5 \t\t\t\n      PUSH [tag] 214\t\t\t\n      JUMP \t\t\t\n    tag 421\t\t\t\n      JUMPDEST \t\t\t\n      SWAP5 \t\t\t\n      SWAP4 \t\t\t\n      POP \t\t\t\n      POP \t\t\t\n      POP \t\t\t\n      POP \t\t\t\n      JUMP \t\t\t\n    tag 223\t\t\t\n      JUMPDEST \t\t\t\n      PUSH 546F6B656E207472616E73666572206661696C65642100000000000000000000\t\t\t\n      PUSH 0\t\t\t\n      DUP3 \t\t\t\n      ADD \t\t\t\n      MSTORE \t\t\t\n      POP \t\t\t\n      JUMP \t\t\t\n    tag 224\t\t\t\n      JUMPDEST \t\t\t\n      PUSH 0\t\t\t\n      PUSH [tag] 424\t\t\t\n      PUSH 16\t\t\t\n      DUP4 \t\t\t\n      PUSH [tag] 210\t\t\t\n      JUMP \t\t\t\n    tag 424\t\t\t\n      JUMPDEST \t\t\t\n      SWAP2 \t\t\t\n      POP \t\t\t\n      PUSH [tag] 425\t\t\t\n      DUP3 \t\t\t\n      PUSH [tag] 223\t\t\t\n      JUMP \t\t\t\n    tag 425\t\t\t\n      JUMPDEST \t\t\t\n      PUSH 20\t\t\t\n      DUP3 \t\t\t\n      ADD \t\t\t\n      SWAP1 \t\t\t\n      POP \t\t\t\n      SWAP2 \t\t\t\n      SWAP1 \t\t\t\n      POP \t\t\t\n      JUMP \t\t\t\n    tag 81\t\t\t\n      JUMPDEST \t\t\t\n      PUSH 0\t\t\t\n      PUSH 20\t\t\t\n      DUP3 \t\t\t\n      ADD \t\t\t\n      SWAP1 \t\t\t\n      POP \t\t\t\n      DUP2 \t\t\t\n      DUP2 \t\t\t\n      SUB \t\t\t\n      PUSH 0\t\t\t\n      DUP4 \t\t\t\n      ADD \t\t\t\n      MSTORE \t\t\t\n      PUSH [tag] 427\t\t\t\n      DUP2 \t\t\t\n      PUSH [tag] 224\t\t\t\n      JUMP \t\t\t\n    tag 427\t\t\t\n      JUMPDEST \t\t\t\n      SWAP1 \t\t\t\n      POP \t\t\t\n      SWAP2 \t\t\t\n      SWAP1 \t\t\t\n      POP \t\t\t\n      JUMP \t\t\t\n    tag 225\t\t\t\n      JUMPDEST \t\t\t\n      PUSH 0\t\t\t\n      DUP2 \t\t\t\n      MLOAD \t\t\t\n      SWAP1 \t\t\t\n      POP \t\t\t\n      SWAP2 \t\t\t\n      SWAP1 \t\t\t\n      POP \t\t\t\n      JUMP \t\t\t\n    tag 226\t\t\t\n      JUMPDEST \t\t\t\n      PUSH 0\t\t\t\n      DUP3 \t\t\t\n      DUP3 \t\t\t\n      MSTORE \t\t\t\n      PUSH 20\t\t\t\n      DUP3 \t\t\t\n      ADD \t\t\t\n      SWAP1 \t\t\t\n      POP \t\t\t\n      SWAP3 \t\t\t\n      SWAP2 \t\t\t\n      POP \t\t\t\n      POP \t\t\t\n      JUMP \t\t\t\n    tag 227\t\t\t\n      JUMPDEST \t\t\t\n      PUSH 0\t\t\t\n      DUP2 \t\t\t\n      SWAP1 \t\t\t\n      POP \t\t\t\n      PUSH 20\t\t\t\n      DUP3 \t\t\t\n      ADD \t\t\t\n      SWAP1 \t\t\t\n      POP \t\t\t\n      SWAP2 \t\t\t\n      SWAP1 \t\t\t\n      POP \t\t\t\n      JUMP \t\t\t\n    tag 228\t\t\t\n      JUMPDEST \t\t\t\n      PUSH [tag] 432\t\t\t\n      DUP2 \t\t\t\n      PUSH [tag] 192\t\t\t\n      JUMP \t\t\t\n    tag 432\t\t\t\n      JUMPDEST \t\t\t\n      DUP3 \t\t\t\n      MSTORE \t\t\t\n      POP \t\t\t\n      POP \t\t\t\n      JUMP \t\t\t\n    tag 229\t\t\t\n      JUMPDEST \t\t\t\n      PUSH 0\t\t\t\n      PUSH [tag] 434\t\t\t\n      DUP4 \t\t\t\n      DUP4 \t\t\t\n      PUSH [tag] 228\t\t\t\n      JUMP \t\t\t\n    tag 434\t\t\t\n      JUMPDEST \t\t\t\n      PUSH 20\t\t\t\n      DUP4 \t\t\t\n      ADD \t\t\t\n      SWAP1 \t\t\t\n      POP \t\t\t\n      SWAP3 \t\t\t\n      SWAP2 \t\t\t\n      POP \t\t\t\n      POP \t\t\t\n      JUMP \t\t\t\n    tag 230\t\t\t\n      JUMPDEST \t\t\t\n      PUSH 0\t\t\t\n      PUSH 20\t\t\t\n      DUP3 \t\t\t\n      ADD \t\t\t\n      SWAP1 \t\t\t\n      POP \t\t\t\n      SWAP2 \t\t\t\n      SWAP1 \t\t\t\n      POP \t\t\t\n      JUMP \t\t\t\n    tag 231\t\t\t\n      JUMPDEST \t\t\t\n      PUSH 0\t\t\t\n      PUSH [tag] 437\t\t\t\n      DUP3 \t\t\t\n      PUSH [tag] 225\t\t\t\n      JUMP \t\t\t\n    tag 437\t\t\t\n      JUMPDEST \t\t\t\n      PUSH [tag] 438\t\t\t\n      DUP2 \t\t\t\n      DUP6 \t\t\t\n      PUSH [tag] 226\t\t\t\n      JUMP \t\t\t\n    tag 438\t\t\t\n      JUMPDEST \t\t\t\n      SWAP4 \t\t\t\n      POP \t\t\t\n      PUSH [tag] 439\t\t\t\n      DUP4 \t\t\t\n      PUSH [tag] 227\t\t\t\n      JUMP \t\t\t\n    tag 439\t\t\t\n      JUMPDEST \t\t\t\n      DUP1 \t\t\t\n      PUSH 0\t\t\t\n    tag 440\t\t\t\n      JUMPDEST \t\t\t\n      DUP4 \t\t\t\n      DUP2 \t\t\t\n      LT \t\t\t\n      ISZERO \t\t\t\n      PUSH [tag] 442\t\t\t\n      JUMPI \t\t\t\n      DUP2 \t\t\t\n      MLOAD \t\t\t\n      PUSH [tag] 443\t\t\t\n      DUP9 \t\t\t\n      DUP3 \t\t\t\n      PUSH [tag] 229\t\t\t\n      JUMP \t\t\t\n    tag 443\t\t\t\n      JUMPDEST \t\t\t\n      SWAP8 \t\t\t\n      POP \t\t\t\n      PUSH [tag] 444\t\t\t\n      DUP4 \t\t\t\n      PUSH [tag] 230\t\t\t\n      JUMP \t\t\t\n    tag 444\t\t\t\n      JUMPDEST \t\t\t\n      SWAP3 \t\t\t\n      POP \t\t\t\n      POP \t\t\t\n      PUSH 1\t\t\t\n      DUP2 \t\t\t\n      ADD \t\t\t\n      SWAP1 \t\t\t\n      POP \t\t\t\n      PUSH [tag] 440\t\t\t\n      JUMP \t\t\t\n    tag 442\t\t\t\n      JUMPDEST \t\t\t\n      POP \t\t\t\n      DUP6 \t\t\t\n      SWAP4 \t\t\t\n      POP \t\t\t\n      POP \t\t\t\n      POP \t\t\t\n      POP \t\t\t\n      SWAP3 \t\t\t\n      SWAP2 \t\t\t\n      POP \t\t\t\n      POP \t\t\t\n      JUMP \t\t\t\n    tag 232\t\t\t\n      JUMPDEST \t\t\t\n      PUSH 0\t\t\t\n      DUP2 \t\t\t\n      MLOAD \t\t\t\n      SWAP1 \t\t\t\n      POP \t\t\t\n      SWAP2 \t\t\t\n      SWAP1 \t\t\t\n      POP \t\t\t\n      JUMP \t\t\t\n    tag 233\t\t\t\n      JUMPDEST \t\t\t\n      PUSH 0\t\t\t\n      DUP3 \t\t\t\n      DUP3 \t\t\t\n      MSTORE \t\t\t\n      PUSH 20\t\t\t\n      DUP3 \t\t\t\n      ADD \t\t\t\n      SWAP1 \t\t\t\n      POP \t\t\t\n      SWAP3 \t\t\t\n      SWAP2 \t\t\t\n      POP \t\t\t\n      POP \t\t\t\n      JUMP \t\t\t\n    tag 234\t\t\t\n      JUMPDEST \t\t\t\n      PUSH 0\t\t\t\n      DUP2 \t\t\t\n      SWAP1 \t\t\t\n      POP \t\t\t\n      PUSH 20\t\t\t\n      DUP3 \t\t\t\n      ADD \t\t\t\n      SWAP1 \t\t\t\n      POP \t\t\t\n      SWAP2 \t\t\t\n      SWAP1 \t\t\t\n      POP \t\t\t\n      JUMP \t\t\t\n    tag 235\t\t\t\n      JUMPDEST \t\t\t\n      PUSH [tag] 449\t\t\t\n      DUP2 \t\t\t\n      PUSH [tag] 205\t\t\t\n      JUMP \t\t\t\n    tag 449\t\t\t\n      JUMPDEST \t\t\t\n      DUP3 \t\t\t\n      MSTORE \t\t\t\n      POP \t\t\t\n      POP \t\t\t\n      JUMP \t\t\t\n    tag 236\t\t\t\n      JUMPDEST \t\t\t\n      PUSH 0\t\t\t\n      PUSH [tag] 451\t\t\t\n      DUP4 \t\t\t\n      DUP4 \t\t\t\n      PUSH [tag] 235\t\t\t\n      JUMP \t\t\t\n    tag 451\t\t\t\n      JUMPDEST \t\t\t\n      PUSH 20\t\t\t\n      DUP4 \t\t\t\n      ADD \t\t\t\n      SWAP1 \t\t\t\n      POP \t\t\t\n      SWAP3 \t\t\t\n      SWAP2 \t\t\t\n      POP \t\t\t\n      POP \t\t\t\n      JUMP \t\t\t\n    tag 237\t\t\t\n      JUMPDEST \t\t\t\n      PUSH 0\t\t\t\n      PUSH 20\t\t\t\n      DUP3 \t\t\t\n      ADD \t\t\t\n      SWAP1 \t\t\t\n      POP \t\t\t\n      SWAP2 \t\t\t\n      SWAP1 \t\t\t\n      POP \t\t\t\n      JUMP \t\t\t\n    tag 238\t\t\t\n      JUMPDEST \t\t\t\n      PUSH 0\t\t\t\n      PUSH [tag] 454\t\t\t\n      DUP3 \t\t\t\n      PUSH [tag] 232\t\t\t\n      JUMP \t\t\t\n    tag 454\t\t\t\n      JUMPDEST \t\t\t\n      PUSH [tag] 455\t\t\t\n      DUP2 \t\t\t\n      DUP6 \t\t\t\n      PUSH [tag] 233\t\t\t\n      JUMP \t\t\t\n    tag 455\t\t\t\n      JUMPDEST \t\t\t\n      SWAP4 \t\t\t\n      POP \t\t\t\n      PUSH [tag] 456\t\t\t\n      DUP4 \t\t\t\n      PUSH [tag] 234\t\t\t\n      JUMP \t\t\t\n    tag 456\t\t\t\n      JUMPDEST \t\t\t\n      DUP1 \t\t\t\n      PUSH 0\t\t\t\n    tag 457\t\t\t\n      JUMPDEST \t\t\t\n      DUP4 \t\t\t\n      DUP2 \t\t\t\n      LT \t\t\t\n      ISZERO \t\t\t\n      PUSH [tag] 459\t\t\t\n      JUMPI \t\t\t\n      DUP2 \t\t\t\n      MLOAD \t\t\t\n      PUSH [tag] 460\t\t\t\n      DUP9 \t\t\t\n      DUP3 \t\t\t\n      PUSH [tag] 236\t\t\t\n      JUMP \t\t\t\n    tag 460\t\t\t\n      JUMPDEST \t\t\t\n      SWAP8 \t\t\t\n      POP \t\t\t\n      PUSH [tag] 461\t\t\t\n      DUP4 \t\t\t\n      PUSH [tag] 237\t\t\t\n      JUMP \t\t\t\n    tag 461\t\t\t\n      JUMPDEST \t\t\t\n      SWAP3 \t\t\t\n      POP \t\t\t\n      POP \t\t\t\n      PUSH 1\t\t\t\n      DUP2 \t\t\t\n      ADD \t\t\t\n      SWAP1 \t\t\t\n      POP \t\t\t\n      PUSH [tag] 457\t\t\t\n      JUMP \t\t\t\n    tag 459\t\t\t\n      JUMPDEST \t\t\t\n      POP \t\t\t\n      DUP6 \t\t\t\n      SWAP4 \t\t\t\n      POP \t\t\t\n      POP \t\t\t\n      POP \t\t\t\n      POP \t\t\t\n      SWAP3 \t\t\t\n      SWAP2 \t\t\t\n      POP \t\t\t\n      POP \t\t\t\n      JUMP \t\t\t\n    tag 83\t\t\t\n      JUMPDEST \t\t\t\n      PUSH 0\t\t\t\n      PUSH 60\t\t\t\n      DUP3 \t\t\t\n      ADD \t\t\t\n      SWAP1 \t\t\t\n      POP \t\t\t\n      PUSH [tag] 463\t\t\t\n      PUSH 0\t\t\t\n      DUP4 \t\t\t\n      ADD \t\t\t\n      DUP7 \t\t\t\n      PUSH [tag] 213\t\t\t\n      JUMP \t\t\t\n    tag 463\t\t\t\n      JUMPDEST \t\t\t\n      DUP2 \t\t\t\n      DUP2 \t\t\t\n      SUB \t\t\t\n      PUSH 20\t\t\t\n      DUP4 \t\t\t\n      ADD \t\t\t\n      MSTORE \t\t\t\n      PUSH [tag] 464\t\t\t\n      DUP2 \t\t\t\n      DUP6 \t\t\t\n      PUSH [tag] 231\t\t\t\n      JUMP \t\t\t\n    tag 464\t\t\t\n      JUMPDEST \t\t\t\n      SWAP1 \t\t\t\n      POP \t\t\t\n      DUP2 \t\t\t\n      DUP2 \t\t\t\n      SUB \t\t\t\n      PUSH 40\t\t\t\n      DUP4 \t\t\t\n      ADD \t\t\t\n      MSTORE \t\t\t\n      PUSH [tag] 465\t\t\t\n      DUP2 \t\t\t\n      DUP5 \t\t\t\n      PUSH [tag] 238\t\t\t\n      JUMP \t\t\t\n    tag 465\t\t\t\n      JUMPDEST \t\t\t\n      SWAP1 \t\t\t\n      POP \t\t\t\n      SWAP5 \t\t\t\n      SWAP4 \t\t\t\n      POP \t\t\t\n      POP \t\t\t\n      POP \t\t\t\n      POP \t\t\t\n      JUMP \t\t\t\n    tag 239\t\t\t\n      JUMPDEST \t\t\t\n      PUSH 0\t\t\t\n      DUP2 \t\t\t\n      SWAP1 \t\t\t\n      POP \t\t\t\n      SWAP2 \t\t\t\n      SWAP1 \t\t\t\n      POP \t\t\t\n      JUMP \t\t\t\n    tag 240\t\t\t\n      JUMPDEST \t\t\t\n      PUSH 0\t\t\t\n      DUP2 \t\t\t\n      SWAP1 \t\t\t\n      POP \t\t\t\n      SWAP2 \t\t\t\n      SWAP1 \t\t\t\n      POP \t\t\t\n      JUMP \t\t\t\n    tag 241\t\t\t\n      JUMPDEST \t\t\t\n      PUSH 0\t\t\t\n      PUSH [tag] 469\t\t\t\n      PUSH [tag] 470\t\t\t\n      PUSH [tag] 471\t\t\t\n      DUP5 \t\t\t\n      PUSH [tag] 239\t\t\t\n      JUMP \t\t\t\n    tag 471\t\t\t\n      JUMPDEST \t\t\t\n      PUSH [tag] 240\t\t\t\n      JUMP \t\t\t\n    tag 470\t\t\t\n      JUMPDEST \t\t\t\n      PUSH [tag] 205\t\t\t\n      JUMP \t\t\t\n    tag 469\t\t\t\n      JUMPDEST \t\t\t\n      SWAP1 \t\t\t\n      POP \t\t\t\n      SWAP2 \t\t\t\n      SWAP1 \t\t\t\n      POP \t\t\t\n      JUMP \t\t\t\n    tag 242\t\t\t\n      JUMPDEST \t\t\t\n      PUSH [tag] 473\t\t\t\n      DUP2 \t\t\t\n      PUSH [tag] 241\t\t\t\n      JUMP \t\t\t\n    tag 473\t\t\t\n      JUMPDEST \t\t\t\n      DUP3 \t\t\t\n      MSTORE \t\t\t\n      POP \t\t\t\n      POP \t\t\t\n      JUMP \t\t\t\n    tag 243\t\t\t\n      JUMPDEST \t\t\t\n      PUSH 0\t\t\t\n      DUP2 \t\t\t\n      SWAP1 \t\t\t\n      POP \t\t\t\n      SWAP2 \t\t\t\n      SWAP1 \t\t\t\n      POP \t\t\t\n      JUMP \t\t\t\n    tag 244\t\t\t\n      JUMPDEST \t\t\t\n      PUSH 0\t\t\t\n      PUSH [tag] 476\t\t\t\n      PUSH [tag] 477\t\t\t\n      PUSH [tag] 478\t\t\t\n      DUP5 \t\t\t\n      PUSH [tag] 243\t\t\t\n      JUMP \t\t\t\n    tag 478\t\t\t\n      JUMPDEST \t\t\t\n      PUSH [tag] 240\t\t\t\n      JUMP \t\t\t\n    tag 477\t\t\t\n      JUMPDEST \t\t\t\n      PUSH [tag] 205\t\t\t\n      JUMP \t\t\t\n    tag 476\t\t\t\n      JUMPDEST \t\t\t\n      SWAP1 \t\t\t\n      POP \t\t\t\n      SWAP2 \t\t\t\n      SWAP1 \t\t\t\n      POP \t\t\t\n      JUMP \t\t\t\n    tag 245\t\t\t\n      JUMPDEST \t\t\t\n      PUSH [tag] 480\t\t\t\n      DUP2 \t\t\t\n      PUSH [tag] 244\t\t\t\n      JUMP \t\t\t\n    tag 480\t\t\t\n      JUMPDEST \t\t\t\n      DUP3 \t\t\t\n      MSTORE \t\t\t\n      POP \t\t\t\n      POP \t\t\t\n      JUMP \t\t\t\n    tag 246\t\t\t\n      JUMPDEST \t\t\t\n      PUSH 0\t\t\t\n      DUP2 \t\t\t\n      SWAP1 \t\t\t\n      POP \t\t\t\n      SWAP2 \t\t\t\n      SWAP1 \t\t\t\n      POP \t\t\t\n      JUMP \t\t\t\n    tag 247\t\t\t\n      JUMPDEST \t\t\t\n      PUSH 0\t\t\t\n      PUSH [tag] 483\t\t\t\n      PUSH [tag] 484\t\t\t\n      PUSH [tag] 485\t\t\t\n      DUP5 \t\t\t\n      PUSH [tag] 246\t\t\t\n      JUMP \t\t\t\n    tag 485\t\t\t\n      JUMPDEST \t\t\t\n      PUSH [tag] 240\t\t\t\n      JUMP \t\t\t\n    tag 484\t\t\t\n      JUMPDEST \t\t\t\n      PUSH [tag] 205\t\t\t\n      JUMP \t\t\t\n    tag 483\t\t\t\n      JUMPDEST \t\t\t\n      SWAP1 \t\t\t\n      POP \t\t\t\n      SWAP2 \t\t\t\n      SWAP1 \t\t\t\n      POP \t\t\t\n      JUMP \t\t\t\n    tag 248\t\t\t\n      JUMPDEST \t\t\t\n      PUSH [tag] 487\t\t\t\n      DUP2 \t\t\t\n      PUSH [tag] 247\t\t\t\n      JUMP \t\t\t\n    tag 487\t\t\t\n      JUMPDEST \t\t\t\n      DUP3 \t\t\t\n      MSTORE \t\t\t\n      POP \t\t\t\n      POP \t\t\t\n      JUMP \t\t\t\n    tag 249\t\t\t\n      JUMPDEST \t\t\t\n      PUSH 0\t\t\t\n      DUP2 \t\t\t\n      MLOAD \t\t\t\n      SWAP1 \t\t\t\n      POP \t\t\t\n      SWAP2 \t\t\t\n      SWAP1 \t\t\t\n      POP \t\t\t\n      JUMP \t\t\t\n    tag 250\t\t\t\n      JUMPDEST \t\t\t\n      PUSH 0\t\t\t\n      DUP3 \t\t\t\n      DUP3 \t\t\t\n      MSTORE \t\t\t\n      PUSH 20\t\t\t\n      DUP3 \t\t\t\n      ADD \t\t\t\n      SWAP1 \t\t\t\n      POP \t\t\t\n      SWAP3 \t\t\t\n      SWAP2 \t\t\t\n      POP \t\t\t\n      POP \t\t\t\n      JUMP \t\t\t\n    tag 251\t\t\t\n      JUMPDEST \t\t\t\n      PUSH 0\t\t\t\n    tag 491\t\t\t\n      JUMPDEST \t\t\t\n      DUP4 \t\t\t\n      DUP2 \t\t\t\n      LT \t\t\t\n      ISZERO \t\t\t\n      PUSH [tag] 493\t\t\t\n      JUMPI \t\t\t\n      DUP1 \t\t\t\n      DUP3 \t\t\t\n      ADD \t\t\t\n      MLOAD \t\t\t\n      DUP2 \t\t\t\n      DUP5 \t\t\t\n      ADD \t\t\t\n      MSTORE \t\t\t\n      PUSH 20\t\t\t\n      DUP2 \t\t\t\n      ADD \t\t\t\n      SWAP1 \t\t\t\n      POP \t\t\t\n      PUSH [tag] 491\t\t\t\n      JUMP \t\t\t\n    tag 493\t\t\t\n      JUMPDEST \t\t\t\n      PUSH 0\t\t\t\n      DUP5 \t\t\t\n      DUP5 \t\t\t\n      ADD \t\t\t\n      MSTORE \t\t\t\n      POP \t\t\t\n      POP \t\t\t\n      POP \t\t\t\n      POP \t\t\t\n      JUMP \t\t\t\n    tag 252\t\t\t\n      JUMPDEST \t\t\t\n      PUSH 0\t\t\t\n      PUSH [tag] 495\t\t\t\n      DUP3 \t\t\t\n      PUSH [tag] 249\t\t\t\n      JUMP \t\t\t\n    tag 495\t\t\t\n      JUMPDEST \t\t\t\n      PUSH [tag] 496\t\t\t\n      DUP2 \t\t\t\n      DUP6 \t\t\t\n      PUSH [tag] 250\t\t\t\n      JUMP \t\t\t\n    tag 496\t\t\t\n      JUMPDEST \t\t\t\n      SWAP4 \t\t\t\n      POP \t\t\t\n      PUSH [tag] 497\t\t\t\n      DUP2 \t\t\t\n      DUP6 \t\t\t\n      PUSH 20\t\t\t\n      DUP7 \t\t\t\n      ADD \t\t\t\n      PUSH [tag] 251\t\t\t\n      JUMP \t\t\t\n    tag 497\t\t\t\n      JUMPDEST \t\t\t\n      PUSH [tag] 498\t\t\t\n      DUP2 \t\t\t\n      PUSH [tag] 196\t\t\t\n      JUMP \t\t\t\n    tag 498\t\t\t\n      JUMPDEST \t\t\t\n      DUP5 \t\t\t\n      ADD \t\t\t\n      SWAP2 \t\t\t\n      POP \t\t\t\n      POP \t\t\t\n      SWAP3 \t\t\t\n      SWAP2 \t\t\t\n      POP \t\t\t\n      POP \t\t\t\n      JUMP \t\t\t\n    tag 85\t\t\t\n      JUMPDEST \t\t\t\n      PUSH 0\t\t\t\n      PUSH C0\t\t\t\n      DUP3 \t\t\t\n      ADD \t\t\t\n      SWAP1 \t\t\t\n      POP \t\t\t\n      PUSH [tag] 500\t\t\t\n      PUSH 0\t\t\t\n      DUP4 \t\t\t\n      ADD \t\t\t\n      DUP10 \t\t\t\n      PUSH [tag] 213\t\t\t\n      JUMP \t\t\t\n    tag 500\t\t\t\n      JUMPDEST \t\t\t\n      PUSH [tag] 501\t\t\t\n      PUSH 20\t\t\t\n      DUP4 \t\t\t\n      ADD \t\t\t\n      DUP9 \t\t\t\n      PUSH [tag] 242\t\t\t\n      JUMP \t\t\t\n    tag 501\t\t\t\n      JUMPDEST \t\t\t\n      PUSH [tag] 502\t\t\t\n      PUSH 40\t\t\t\n      DUP4 \t\t\t\n      ADD \t\t\t\n      DUP8 \t\t\t\n      PUSH [tag] 245\t\t\t\n      JUMP \t\t\t\n    tag 502\t\t\t\n      JUMPDEST \t\t\t\n      PUSH [tag] 503\t\t\t\n      PUSH 60\t\t\t\n      DUP4 \t\t\t\n      ADD \t\t\t\n      DUP7 \t\t\t\n      PUSH [tag] 248\t\t\t\n      JUMP \t\t\t\n    tag 503\t\t\t\n      JUMPDEST \t\t\t\n      PUSH [tag] 504\t\t\t\n      PUSH 80\t\t\t\n      DUP4 \t\t\t\n      ADD \t\t\t\n      DUP6 \t\t\t\n      PUSH [tag] 214\t\t\t\n      JUMP \t\t\t\n    tag 504\t\t\t\n      JUMPDEST \t\t\t\n      DUP2 \t\t\t\n      DUP2 \t\t\t\n      SUB \t\t\t\n      PUSH A0\t\t\t\n      DUP4 \t\t\t\n      ADD \t\t\t\n      MSTORE \t\t\t\n      PUSH [tag] 505\t\t\t\n      DUP2 \t\t\t\n      DUP5 \t\t\t\n      PUSH [tag] 252\t\t\t\n      JUMP \t\t\t\n    tag 505\t\t\t\n      JUMPDEST \t\t\t\n      SWAP1 \t\t\t\n      POP \t\t\t\n      SWAP8 \t\t\t\n      SWAP7 \t\t\t\n      POP \t\t\t\n      POP \t\t\t\n      POP \t\t\t\n      POP \t\t\t\n      POP \t\t\t\n      POP \t\t\t\n      POP \t\t\t\n      JUMP \t\t\t\n    tag 253\t\t\t\n      JUMPDEST \t\t\t\n      PUSH 0\t\t\t\n      DUP1 \t\t\t\n      REVERT \t\t\t\n    tag 254\t\t\t\n      JUMPDEST \t\t\t\n      PUSH 0\t\t\t\n      PUSH FFFFFFFFFFFFFFFF\t\t\t\n      DUP3 \t\t\t\n      GT \t\t\t\n      ISZERO \t\t\t\n      PUSH [tag] 508\t\t\t\n      JUMPI \t\t\t\n      PUSH [tag] 509\t\t\t\n      PUSH [tag] 197\t\t\t\n      JUMP \t\t\t\n    tag 509\t\t\t\n      JUMPDEST \t\t\t\n    tag 508\t\t\t\n      JUMPDEST \t\t\t\n      PUSH [tag] 510\t\t\t\n      DUP3 \t\t\t\n      PUSH [tag] 196\t\t\t\n      JUMP \t\t\t\n    tag 510\t\t\t\n      JUMPDEST \t\t\t\n      SWAP1 \t\t\t\n      POP \t\t\t\n      PUSH 20\t\t\t\n      DUP2 \t\t\t\n      ADD \t\t\t\n      SWAP1 \t\t\t\n      POP \t\t\t\n      SWAP2 \t\t\t\n      SWAP1 \t\t\t\n      POP \t\t\t\n      JUMP \t\t\t\n    tag 255\t\t\t\n      JUMPDEST \t\t\t\n      PUSH 0\t\t\t\n      PUSH [tag] 512\t\t\t\n      PUSH [tag] 513\t\t\t\n      DUP5 \t\t\t\n      PUSH [tag] 254\t\t\t\n      JUMP \t\t\t\n    tag 513\t\t\t\n      JUMPDEST \t\t\t\n      PUSH [tag] 199\t\t\t\n      JUMP \t\t\t\n    tag 512\t\t\t\n      JUMPDEST \t\t\t\n      SWAP1 \t\t\t\n      POP \t\t\t\n      DUP3 \t\t\t\n      DUP2 \t\t\t\n      MSTORE \t\t\t\n      PUSH 20\t\t\t\n      DUP2 \t\t\t\n      ADD \t\t\t\n      DUP5 \t\t\t\n      DUP5 \t\t\t\n      DUP5 \t\t\t\n      ADD \t\t\t\n      GT \t\t\t\n      ISZERO \t\t\t\n      PUSH [tag] 514\t\t\t\n      JUMPI \t\t\t\n      PUSH [tag] 515\t\t\t\n      PUSH [tag] 253\t\t\t\n      JUMP \t\t\t\n    tag 515\t\t\t\n      JUMPDEST \t\t\t\n    tag 514\t\t\t\n      JUMPDEST \t\t\t\n      PUSH [tag] 516\t\t\t\n      DUP5 \t\t\t\n      DUP3 \t\t\t\n      DUP6 \t\t\t\n      PUSH [tag] 251\t\t\t\n      JUMP \t\t\t\n    tag 516\t\t\t\n      JUMPDEST \t\t\t\n      POP \t\t\t\n      SWAP4 \t\t\t\n      SWAP3 \t\t\t\n      POP \t\t\t\n      POP \t\t\t\n      POP \t\t\t\n      JUMP \t\t\t\n    tag 256\t\t\t\n      JUMPDEST \t\t\t\n      PUSH 0\t\t\t\n      DUP3 \t\t\t\n      PUSH 1F\t\t\t\n      DUP4 \t\t\t\n      ADD \t\t\t\n      SLT \t\t\t\n      PUSH [tag] 518\t\t\t\n      JUMPI \t\t\t\n      PUSH [tag] 519\t\t\t\n      PUSH [tag] 195\t\t\t\n      JUMP \t\t\t\n    tag 519\t\t\t\n      JUMPDEST \t\t\t\n    tag 518\t\t\t\n      JUMPDEST \t\t\t\n      DUP2 \t\t\t\n      MLOAD \t\t\t\n      PUSH [tag] 520\t\t\t\n      DUP5 \t\t\t\n      DUP3 \t\t\t\n      PUSH 20\t\t\t\n      DUP7 \t\t\t\n      ADD \t\t\t\n      PUSH [tag] 255\t\t\t\n      JUMP \t\t\t\n    tag 520\t\t\t\n      JUMPDEST \t\t\t\n      SWAP2 \t\t\t\n      POP \t\t\t\n      POP \t\t\t\n      SWAP3 \t\t\t\n      SWAP2 \t\t\t\n      POP \t\t\t\n      POP \t\t\t\n      JUMP \t\t\t\n    tag 89\t\t\t\n      JUMPDEST \t\t\t\n      PUSH 0\t\t\t\n      PUSH 20\t\t\t\n      DUP3 \t\t\t\n      DUP5 \t\t\t\n      SUB \t\t\t\n      SLT \t\t\t\n      ISZERO \t\t\t\n      PUSH [tag] 522\t\t\t\n      JUMPI \t\t\t\n      PUSH [tag] 523\t\t\t\n      PUSH [tag] 189\t\t\t\n      JUMP \t\t\t\n    tag 523\t\t\t\n      JUMPDEST \t\t\t\n    tag 522\t\t\t\n      JUMPDEST \t\t\t\n      PUSH 0\t\t\t\n      DUP3 \t\t\t\n      ADD \t\t\t\n      MLOAD \t\t\t\n      PUSH FFFFFFFFFFFFFFFF\t\t\t\n      DUP2 \t\t\t\n      GT \t\t\t\n      ISZERO \t\t\t\n      PUSH [tag] 524\t\t\t\n      JUMPI \t\t\t\n      PUSH [tag] 525\t\t\t\n      PUSH [tag] 190\t\t\t\n      JUMP \t\t\t\n    tag 525\t\t\t\n      JUMPDEST \t\t\t\n    tag 524\t\t\t\n      JUMPDEST \t\t\t\n      PUSH [tag] 526\t\t\t\n      DUP5 \t\t\t\n      DUP3 \t\t\t\n      DUP6 \t\t\t\n      ADD \t\t\t\n      PUSH [tag] 256\t\t\t\n      JUMP \t\t\t\n    tag 526\t\t\t\n      JUMPDEST \t\t\t\n      SWAP2 \t\t\t\n      POP \t\t\t\n      POP \t\t\t\n      SWAP3 \t\t\t\n      SWAP2 \t\t\t\n      POP \t\t\t\n      POP \t\t\t\n      JUMP \t\t\t\n    tag 257\t\t\t\n      JUMPDEST \t\t\t\n      PUSH 0\t\t\t\n      DUP2 \t\t\t\n      SWAP1 \t\t\t\n      POP \t\t\t\n      SWAP3 \t\t\t\n      SWAP2 \t\t\t\n      POP \t\t\t\n      POP \t\t\t\n      JUMP \t\t\t\n    tag 258\t\t\t\n      JUMPDEST \t\t\t\n      PUSH 0\t\t\t\n      PUSH [tag] 529\t\t\t\n      DUP3 \t\t\t\n      PUSH [tag] 249\t\t\t\n      JUMP \t\t\t\n    tag 529\t\t\t\n      JUMPDEST \t\t\t\n      PUSH [tag] 530\t\t\t\n      DUP2 \t\t\t\n      DUP6 \t\t\t\n      PUSH [tag] 257\t\t\t\n      JUMP \t\t\t\n    tag 530\t\t\t\n      JUMPDEST \t\t\t\n      SWAP4 \t\t\t\n      POP \t\t\t\n      PUSH [tag] 531\t\t\t\n      DUP2 \t\t\t\n      DUP6 \t\t\t\n      PUSH 20\t\t\t\n      DUP7 \t\t\t\n      ADD \t\t\t\n      PUSH [tag] 251\t\t\t\n      JUMP \t\t\t\n    tag 531\t\t\t\n      JUMPDEST \t\t\t\n      DUP1 \t\t\t\n      DUP5 \t\t\t\n      ADD \t\t\t\n      SWAP2 \t\t\t\n      POP \t\t\t\n      POP \t\t\t\n      SWAP3 \t\t\t\n      SWAP2 \t\t\t\n      POP \t\t\t\n      POP \t\t\t\n      JUMP \t\t\t\n    tag 91\t\t\t\n      JUMPDEST \t\t\t\n      PUSH 0\t\t\t\n      PUSH [tag] 533\t\t\t\n      DUP3 \t\t\t\n      DUP5 \t\t\t\n      PUSH [tag] 258\t\t\t\n      JUMP \t\t\t\n    tag 533\t\t\t\n      JUMPDEST \t\t\t\n      SWAP2 \t\t\t\n      POP \t\t\t\n      DUP2 \t\t\t\n      SWAP1 \t\t\t\n      POP \t\t\t\n      SWAP3 \t\t\t\n      SWAP2 \t\t\t\n      POP \t\t\t\n      POP \t\t\t\n      JUMP \t\t\t\n    tag 94\t\t\t\n      JUMPDEST \t\t\t\n      PUSH 0\t\t\t\n      PUSH 60\t\t\t\n      DUP3 \t\t\t\n      ADD \t\t\t\n      SWAP1 \t\t\t\n      POP \t\t\t\n      DUP2 \t\t\t\n      DUP2 \t\t\t\n      SUB \t\t\t\n      PUSH 0\t\t\t\n      DUP4 \t\t\t\n      ADD \t\t\t\n      MSTORE \t\t\t\n      PUSH [tag] 535\t\t\t\n      DUP2 \t\t\t\n      DUP7 \t\t\t\n      PUSH [tag] 231\t\t\t\n      JUMP \t\t\t\n    tag 535\t\t\t\n      JUMPDEST \t\t\t\n      SWAP1 \t\t\t\n      POP \t\t\t\n      DUP2 \t\t\t\n      DUP2 \t\t\t\n      SUB \t\t\t\n      PUSH 20\t\t\t\n      DUP4 \t\t\t\n      ADD \t\t\t\n      MSTORE \t\t\t\n      PUSH [tag] 536\t\t\t\n      DUP2 \t\t\t\n      DUP6 \t\t\t\n      PUSH [tag] 238\t\t\t\n      JUMP \t\t\t\n    tag 536\t\t\t\n      JUMPDEST \t\t\t\n      SWAP1 \t\t\t\n      POP \t\t\t\n      PUSH [tag] 537\t\t\t\n      PUSH 40\t\t\t\n      DUP4 \t\t\t\n      ADD \t\t\t\n      DUP5 \t\t\t\n      PUSH [tag] 214\t\t\t\n      JUMP \t\t\t\n    tag 537\t\t\t\n      JUMPDEST \t\t\t\n      SWAP5 \t\t\t\n      SWAP4 \t\t\t\n      POP \t\t\t\n      POP \t\t\t\n      POP \t\t\t\n      POP \t\t\t\n      JUMP \t\t\t\n    tag 97\t\t\t\n      JUMPDEST \t\t\t\n      PUSH 0\t\t\t\n      PUSH 20\t\t\t\n      DUP3 \t\t\t\n      ADD \t\t\t\n      SWAP1 \t\t\t\n      POP \t\t\t\n      PUSH [tag] 539\t\t\t\n      PUSH 0\t\t\t\n      DUP4 \t\t\t\n      ADD \t\t\t\n      DUP5 \t\t\t\n      PUSH [tag] 213\t\t\t\n      JUMP \t\t\t\n    tag 539\t\t\t\n      JUMPDEST \t\t\t\n      SWAP3 \t\t\t\n      SWAP2 \t\t\t\n      POP \t\t\t\n      POP \t\t\t\n      JUMP \t\t\t\n    tag 259\t\t\t\n      JUMPDEST \t\t\t\n      PUSH 0\t\t\t\n      DUP2 \t\t\t\n      MLOAD \t\t\t\n      SWAP1 \t\t\t\n      POP \t\t\t\n      PUSH [tag] 541\t\t\t\n      DUP2 \t\t\t\n      PUSH [tag] 206\t\t\t\n      JUMP \t\t\t\n    tag 541\t\t\t\n      JUMPDEST \t\t\t\n      SWAP3 \t\t\t\n      SWAP2 \t\t\t\n      POP \t\t\t\n      POP \t\t\t\n      JUMP \t\t\t\n    tag 101\t\t\t\n      JUMPDEST \t\t\t\n      PUSH 0\t\t\t\n      PUSH 20\t\t\t\n      DUP3 \t\t\t\n      DUP5 \t\t\t\n      SUB \t\t\t\n      SLT \t\t\t\n      ISZERO \t\t\t\n      PUSH [tag] 543\t\t\t\n      JUMPI \t\t\t\n      PUSH [tag] 544\t\t\t\n      PUSH [tag] 189\t\t\t\n      JUMP \t\t\t\n    tag 544\t\t\t\n      JUMPDEST \t\t\t\n    tag 543\t\t\t\n      JUMPDEST \t\t\t\n      PUSH 0\t\t\t\n      PUSH [tag] 545\t\t\t\n      DUP5 \t\t\t\n      DUP3 \t\t\t\n      DUP6 \t\t\t\n      ADD \t\t\t\n      PUSH [tag] 259\t\t\t\n      JUMP \t\t\t\n    tag 545\t\t\t\n      JUMPDEST \t\t\t\n      SWAP2 \t\t\t\n      POP \t\t\t\n      POP \t\t\t\n      SWAP3 \t\t\t\n      SWAP2 \t\t\t\n      POP \t\t\t\n      POP \t\t\t\n      JUMP \t\t\t\n    tag 260\t\t\t\n      JUMPDEST \t\t\t\n      PUSH 546F6B656E207472616E7366657246726F6D206661696C656421200000000000\t\t\t\n      PUSH 0\t\t\t\n      DUP3 \t\t\t\n      ADD \t\t\t\n      MSTORE \t\t\t\n      POP \t\t\t\n      JUMP \t\t\t\n    tag 261\t\t\t\n      JUMPDEST \t\t\t\n      PUSH 0\t\t\t\n      PUSH [tag] 548\t\t\t\n      PUSH 1B\t\t\t\n      DUP4 \t\t\t\n      PUSH [tag] 210\t\t\t\n      JUMP \t\t\t\n    tag 548\t\t\t\n      JUMPDEST \t\t\t\n      SWAP2 \t\t\t\n      POP \t\t\t\n      PUSH [tag] 549\t\t\t\n      DUP3 \t\t\t\n      PUSH [tag] 260\t\t\t\n      JUMP \t\t\t\n    tag 549\t\t\t\n      JUMPDEST \t\t\t\n      PUSH 20\t\t\t\n      DUP3 \t\t\t\n      ADD \t\t\t\n      SWAP1 \t\t\t\n      POP \t\t\t\n      SWAP2 \t\t\t\n      SWAP1 \t\t\t\n      POP \t\t\t\n      JUMP \t\t\t\n    tag 123\t\t\t\n      JUMPDEST \t\t\t\n      PUSH 0\t\t\t\n      PUSH 20\t\t\t\n      DUP3 \t\t\t\n      ADD \t\t\t\n      SWAP1 \t\t\t\n      POP \t\t\t\n      DUP2 \t\t\t\n      DUP2 \t\t\t\n      SUB \t\t\t\n      PUSH 0\t\t\t\n      DUP4 \t\t\t\n      ADD \t\t\t\n      MSTORE \t\t\t\n      PUSH [tag] 551\t\t\t\n      DUP2 \t\t\t\n      PUSH [tag] 261\t\t\t\n      JUMP \t\t\t\n    tag 551\t\t\t\n      JUMPDEST \t\t\t\n      SWAP1 \t\t\t\n      POP \t\t\t\n      SWAP2 \t\t\t\n      SWAP1 \t\t\t\n      POP \t\t\t\n      JUMP \t\t\t\n    tag 152\t\t\t\n      JUMPDEST \t\t\t\n      PUSH 0\t\t\t\n      PUSH C0\t\t\t\n      DUP3 \t\t\t\n      ADD \t\t\t\n      SWAP1 \t\t\t\n      POP \t\t\t\n      PUSH [tag] 553\t\t\t\n      PUSH 0\t\t\t\n      DUP4 \t\t\t\n      ADD \t\t\t\n      DUP10 \t\t\t\n      PUSH [tag] 213\t\t\t\n      JUMP \t\t\t\n    tag 553\t\t\t\n      JUMPDEST \t\t\t\n      DUP2 \t\t\t\n      DUP2 \t\t\t\n      SUB \t\t\t\n      PUSH 20\t\t\t\n      DUP4 \t\t\t\n      ADD \t\t\t\n      MSTORE \t\t\t\n      PUSH [tag] 554\t\t\t\n      DUP2 \t\t\t\n      DUP9 \t\t\t\n      PUSH [tag] 231\t\t\t\n      JUMP \t\t\t\n    tag 554\t\t\t\n      JUMPDEST \t\t\t\n      SWAP1 \t\t\t\n      POP \t\t\t\n      DUP2 \t\t\t\n      DUP2 \t\t\t\n      SUB \t\t\t\n      PUSH 40\t\t\t\n      DUP4 \t\t\t\n      ADD \t\t\t\n      MSTORE \t\t\t\n      PUSH [tag] 555\t\t\t\n      DUP2 \t\t\t\n      DUP8 \t\t\t\n      PUSH [tag] 238\t\t\t\n      JUMP \t\t\t\n    tag 555\t\t\t\n      JUMPDEST \t\t\t\n      SWAP1 \t\t\t\n      POP \t\t\t\n      PUSH [tag] 556\t\t\t\n      PUSH 60\t\t\t\n      DUP4 \t\t\t\n      ADD \t\t\t\n      DUP7 \t\t\t\n      PUSH [tag] 214\t\t\t\n      JUMP \t\t\t\n    tag 556\t\t\t\n      JUMPDEST \t\t\t\n      PUSH [tag] 557\t\t\t\n      PUSH 80\t\t\t\n      DUP4 \t\t\t\n      ADD \t\t\t\n      DUP6 \t\t\t\n      PUSH [tag] 214\t\t\t\n      JUMP \t\t\t\n    tag 557\t\t\t\n      JUMPDEST \t\t\t\n      PUSH [tag] 558\t\t\t\n      PUSH A0\t\t\t\n      DUP4 \t\t\t\n      ADD \t\t\t\n      DUP5 \t\t\t\n      PUSH [tag] 213\t\t\t\n      JUMP \t\t\t\n    tag 558\t\t\t\n      JUMPDEST \t\t\t\n      SWAP8 \t\t\t\n      SWAP7 \t\t\t\n      POP \t\t\t\n      POP \t\t\t\n      POP \t\t\t\n      POP \t\t\t\n      POP \t\t\t\n      POP \t\t\t\n      POP \t\t\t\n      JUMP \t\t\t\n    .data\n"
}