{
	"compilerInput": "{\"language\":\"Solidity\",\"sources\":{\"DisDrop.sol\":{\"content\":\"// SPDX-License-Identifier: MIT\\r\\n\\r\\nimport \\\"@openzeppelin/contracts/token/ERC20/IERC20.sol\\\";\\r\\nimport \\\"@acala-network/contracts/schedule/ISchedule.sol\\\";\\r\\nimport \\\"@acala-network/contracts/oracle/IOracle.sol\\\";\\r\\nimport \\\"@acala-network/contracts/utils/Predeploy.sol\\\";\\r\\nimport \\\"@acala-network/contracts/utils/AcalaTokens.sol\\\";\\r\\n\\r\\npragma solidity ^0.8.0;\\r\\n\\r\\ncontract DisDrop{\\r\\n\\r\\n    constructor() payable{}\\r\\n\\r\\n    ISchedule  scheduler = ISchedule(SCHEDULE);\\r\\n    IOracle oracle = IOracle(ORACLE);\\r\\n\\r\\n    fallback() external payable{}\\r\\n    receive() external payable{}\\r\\n\\r\\n    event ETHbatchTransfer(uint256 indexed recipientIndex, address indexed recipient, uint256 amount);\\r\\n    event Erc20BatchTransfer(uint256 indexed recipientIndex, address indexed recipient, uint256 amount);\\r\\n    event TransferScheduled(bytes indexed scheduleId, address indexed token, address[] recipients, uint256[] amounts, uint256 executionTime);\\r\\n    event PriceCheckScheduled(bytes indexed scheduleId, uint256 nextCheckTime);\\r\\n\\r\\n    function simpleETHBatchTransfer(address payable[] memory recipients, uint256[] memory amount) payable public{\\r\\n        require(recipients.length == amount.length , \\\"Give inputs accordingly!\\\");\\r\\n        require(msg.value > 0 , \\\"You need to send some ETH please\\\");\\r\\n        for (uint256 i = 0; i < recipients.length; i++) {\\r\\n            recipients[i].transfer(amount[i]);\\r\\n            emit ETHbatchTransfer(i, recipients[i], amount[i]);\\r\\n        }\\r\\n        uint256 balance = address(this).balance;\\r\\n        if (balance > 0) {\\r\\n            payable(msg.sender).transfer(balance);\\r\\n        }\\r\\n    }\\r\\n\\r\\n    function simpleERC20BatchTransfer(address tokenAddress, address[] memory recipients, uint256[] memory amount) payable public{\\r\\n        IERC20 token = IERC20(tokenAddress);\\r\\n        require(recipients.length == amount.length , \\\"Give inputs accordingly!\\\");\\r\\n        uint256 total = 0;\\r\\n        for (uint256 i = 0; i < recipients.length; i++) {\\r\\n            total = total + amount[i];\\r\\n            }\\r\\n        require(token.transferFrom(msg.sender, address(this), total) , \\\"Token transferFrom failed! \\\");\\r\\n        for (uint256 i = 0; i < recipients.length; i++) {\\r\\n            require(token.transfer(recipients[i], amount[i]), \\\"Token transfer failed\\\");\\r\\n            emit Erc20BatchTransfer(i, recipients[i], amount[i]);\\r\\n            }\\r\\n    }\\r\\n\\r\\n    function scheduleERC20BatchTransfer(address tokenAddress, address[] memory recipients, uint256[] memory amounts, uint256 delay) payable public{\\r\\n        IERC20 token = IERC20(tokenAddress);\\r\\n        require(recipients.length == amounts.length, \\\"Give inputs accordingly!\\\");\\r\\n        uint256 total = 0;\\r\\n        for (uint256 i = 0; i < amounts.length; i++) {\\r\\n            total = total + amounts[i];\\r\\n        }\\r\\n        require(token.transferFrom(msg.sender, address(this), total), \\\"Token transfer failed!\\\");\\r\\n        bytes memory data = abi.encodeWithSignature(\\\"executeERC20BatchTransfer(address,address[],uint256[])\\\",tokenAddress, recipients, amounts);\\r\\n        bytes memory scheduleId = scheduler.scheduleCall(address(this), 0, 2100000, 64000, delay, data);\\r\\n        emit TransferScheduled(scheduleId,tokenAddress, recipients, amounts, block.timestamp + delay);\\r\\n    }\\r\\n\\r\\n    function executeERC20BatchTransfer(address tokenAddress, address[] memory recipients, uint256[] memory amounts) private{\\r\\n        IERC20 token = IERC20(tokenAddress);\\r\\n        require(recipients.length == amounts.length, \\\"Mismatched recipients and amounts\\\");\\r\\n        for (uint256 i = 0; i < recipients.length; i++) {\\r\\n            require(token.transfer(recipients[i], amounts[i]), \\\"Token transfer failed\\\");\\r\\n            emit Erc20BatchTransfer(i, recipients[i], amounts[i]);\\r\\n        }\\r\\n    }\\r\\n\\r\\n    function getPrice(address token) public view returns (uint256){\\r\\n        uint256 price = oracle.getPrice(token);\\r\\n        return price;\\r\\n    }\\r\\n\\r\\n    function scheduleConditionalBatchTransfer(\\r\\n        address tokenAddress,\\r\\n        address[] memory recipients,\\r\\n        uint256[] memory amounts,\\r\\n        uint256 desiredPrice,\\r\\n        uint256 interval\\r\\n    ) payable public{\\r\\n        IERC20 token = IERC20(tokenAddress);\\r\\n        address spender = msg.sender;\\r\\n        uint256 currentPrice = oracle.getPrice(address(token));\\r\\n        if (currentPrice == desiredPrice) {\\r\\n            executeBatchTransfer(tokenAddress, recipients, amounts, spender);\\r\\n        } else {\\r\\n            bytes memory data = abi.encodeWithSignature(\\r\\n                \\\"checkPriceAndTransfer(address,address[],uint256[],uint256,uint256,address)\\\",\\r\\n                tokenAddress,\\r\\n                recipients,\\r\\n                amounts,\\r\\n                desiredPrice,\\r\\n                interval,\\r\\n                spender\\r\\n            );\\r\\n            bytes memory scheduleId = scheduler.scheduleCall(address(this), 0, 2100000, 64000, interval, data);\\r\\n            emit PriceCheckScheduled(scheduleId, block.timestamp + interval);\\r\\n        }\\r\\n    }\\r\\n\\r\\n    function checkPriceAndTransfer(\\r\\n        address tokenAddress,\\r\\n        address[] memory recipients,\\r\\n        uint256[] memory amounts,\\r\\n        uint256 desiredPrice,\\r\\n        uint256 interval,\\r\\n        address spender\\r\\n    ) payable public{\\r\\n        IERC20 token = IERC20(tokenAddress);\\r\\n        uint256 currentPrice = oracle.getPrice(address(token));\\r\\n        if (currentPrice == desiredPrice) {\\r\\n            executeBatchTransfer(tokenAddress, recipients, amounts,spender);\\r\\n        } else {\\r\\n            scheduleConditionalBatchTransfer(tokenAddress, recipients, amounts, desiredPrice, interval);\\r\\n        }\\r\\n    }\\r\\n\\r\\n    function executeBatchTransfer(\\r\\n        address tokenAddress,\\r\\n        address[] memory recipients,\\r\\n        uint256[] memory amounts,\\r\\n        address spender\\r\\n    ) private{\\r\\n        IERC20 token = IERC20(tokenAddress);\\r\\n        require(recipients.length == amounts.length, \\\"Mismatched recipients and amounts\\\");\\r\\n        uint256 totalAmount = 0;\\r\\n        for (uint256 i = 0; i < amounts.length; i++) {\\r\\n            totalAmount += amounts[i];\\r\\n        }\\r\\n        require(token.transferFrom(spender, address(this), totalAmount), \\\"Token transfer failed\\\");\\r\\n        for (uint256 i = 0; i < recipients.length; i++) {\\r\\n            token.transfer(recipients[i], amounts[i]);\\r\\n        }\\r\\n    }\\r\\n}\"},\"@acala-network/contracts/utils/AcalaTokens.sol\":{\"content\":\"// SPDX-License-Identifier: GPL-3.0-or-later\\n\\npragma solidity ^0.8.0;\\n\\naddress constant ACA = 0x0000000000000000000100000000000000000000;\\naddress constant AUSD = 0x0000000000000000000100000000000000000001;\\naddress constant DOT = 0x0000000000000000000100000000000000000002;\\naddress constant LDOT = 0x0000000000000000000100000000000000000003;\\naddress constant TAP = 0x0000000000000000000100000000000000000004;\\naddress constant LP_ACA_AUSD = 0x0000000000000000000200000000000000000001;\\naddress constant LP_LDOT_AUSD = 0x0000000000000000000200000000010000000003;\\naddress constant LP_LCDOT_AUSD = 0x000000000000000000020000000001020000000D;\\naddress constant LP_LCDOT_DOT = 0x000000000000000000020000000002020000000d;\\naddress constant SA_DOT = 0x0000000000000000000300000000000000000000;\\naddress constant LCDOT_13 = 0x000000000000000000040000000000000000000d;\\naddress constant FA_GLMR = 0x0000000000000000000500000000000000000000;\\naddress constant FA_PARA = 0x0000000000000000000500000000000000000001;\\naddress constant FA_ASTR = 0x0000000000000000000500000000000000000002;\\naddress constant FA_IBTC = 0x0000000000000000000500000000000000000003;\\naddress constant FA_INTR = 0x0000000000000000000500000000000000000004;\\naddress constant FA_WBTC = 0x0000000000000000000500000000000000000005;\\naddress constant FA_WETH = 0x0000000000000000000500000000000000000006;\\naddress constant FA_EQ = 0x0000000000000000000500000000000000000007;\\naddress constant FA_EQD = 0x0000000000000000000500000000000000000008;\\n\"},\"@acala-network/contracts/utils/Predeploy.sol\":{\"content\":\"// SPDX-License-Identifier: GPL-3.0-or-later\\n\\npragma solidity ^0.8.0;\\n\\naddress constant EVM = 0x0000000000000000000000000000000000000800;\\naddress constant ORACLE = 0x0000000000000000000000000000000000000801;\\naddress constant SCHEDULE = 0x0000000000000000000000000000000000000802;\\naddress constant DEX = 0x0000000000000000000000000000000000000803;\\naddress constant STABLE_ASSET = 0x0000000000000000000000000000000000000804;\\naddress constant HOMA = 0x0000000000000000000000000000000000000805;\\naddress constant EVM_ACCOUNTS = 0x0000000000000000000000000000000000000806;\\naddress constant HONZON = 0x0000000000000000000000000000000000000807;\\naddress constant INCENTIVES = 0x0000000000000000000000000000000000000808;\\naddress constant XTOKENS = 0x0000000000000000000000000000000000000809;\\n\"},\"@acala-network/contracts/oracle/IOracle.sol\":{\"content\":\"// SPDX-License-Identifier: GPL-3.0-or-later\\n\\npragma solidity ^0.8.0;\\n\\n/// @title Oracle Predeploy Contract Interface\\n/// @author Acala Developers\\n/// @notice You can use this predeploy contract to call oracle pallet\\n/// @dev The interface through which solidity contracts will interact with oracle pallet\\ninterface IOracle {\\n    /// @notice Get the price of the currency_id.\\n    /// @param token The ERC20 address of currency_id.\\n    /// @return Returns the (price, timestamp).\\n    function getPrice(address token) external view returns (uint256);\\n}\\n\"},\"@acala-network/contracts/schedule/ISchedule.sol\":{\"content\":\"// SPDX-License-Identifier: GPL-3.0-or-later\\n\\npragma solidity ^0.8.0;\\n\\n/// @title Schedule Predeploy Contract Interface\\n/// @author Acala Developers\\n/// @notice You can use this predeploy contract to call idle-schedule pallet\\n/// @dev The interface through which solidity contracts will interact with idle-schedule pallet\\ninterface ISchedule {\\n    /// @notice The scheduled call event.\\n    /// @param sender The sender of the transaction.\\n    /// @param contractAddress The scheduled contract address.\\n    /// @param taskId The scheduled task id.\\n    event ScheduledCall(\\n        address indexed sender,\\n        address indexed contractAddress,\\n        bytes taskId\\n    );\\n\\n    /// @notice The canceled call event.\\n    /// @param sender The sender of the transaction.\\n    /// @param taskId The scheduled task id.\\n    event CanceledCall(address indexed sender, bytes taskId);\\n\\n    /// @notice The rescheduled call event.\\n    /// @param sender The sender of the transaction.\\n    /// @param taskId The scheduled task id.\\n    event RescheduledCall(address indexed sender, bytes taskId);\\n\\n    /// @notice Schedule call the contract.\\n    /// @dev It'll emit an {ScheduledCall} event.\\n    /// @param contractAddress The contract address to be called in future.\\n    /// @param value How much native token to send alone with the call.\\n    /// @param gasLimit The gas limit for the call. Corresponding fee will be reserved upfront and refunded after call.\\n    /// @param storageLimit The storage limit for the call.\\n    /// Corresponding fee will be reserved upfront and refunded after call.\\n    /// @param minDelay Minimum number of blocks before the scheduled call will be called.\\n    /// @param inputData The input data to the call.\\n    /// @return Returns a bytes value equal to the taskId of the task created.\\n    function scheduleCall(\\n        address contractAddress,\\n        uint256 value,\\n        uint256 gasLimit,\\n        uint256 storageLimit,\\n        uint256 minDelay,\\n        bytes calldata inputData\\n    ) external returns (bytes memory);\\n\\n    /// @notice Cancel schedule call the contract.\\n    /// @dev It'll emit an {CanceledCall} event.\\n    /// @param taskId The task id of the scheduler. Get it from the `ScheduledCall` event.\\n    /// @return Returns a boolean value indicating whether the operation succeeded.\\n    function cancelCall(bytes calldata taskId) external returns (bool);\\n\\n    /// @notice Reschedule call the contract.\\n    /// @dev It'll emit an {RescheduledCall} event.\\n    /// @param minDelay The Minimum number of blocks before the scheduled call will be called.\\n    /// @param taskId The task id of the scheduler. Get it from the `ScheduledCall` event.\\n    /// @return Returns a boolean value indicating whether the operation succeeded.\\n    function rescheduleCall(\\n        uint256 minDelay,\\n        bytes calldata taskId\\n    ) external returns (bool);\\n}\\n\"},\"@openzeppelin/contracts/token/ERC20/IERC20.sol\":{\"content\":\"// SPDX-License-Identifier: MIT\\n// OpenZeppelin Contracts (last updated v4.6.0) (token/ERC20/IERC20.sol)\\n\\npragma solidity ^0.8.0;\\n\\n/**\\n * @dev Interface of the ERC20 standard as defined in the EIP.\\n */\\ninterface IERC20 {\\n    /**\\n     * @dev Emitted when `value` tokens are moved from one account (`from`) to\\n     * another (`to`).\\n     *\\n     * Note that `value` may be zero.\\n     */\\n    event Transfer(address indexed from, address indexed to, uint256 value);\\n\\n    /**\\n     * @dev Emitted when the allowance of a `spender` for an `owner` is set by\\n     * a call to {approve}. `value` is the new allowance.\\n     */\\n    event Approval(address indexed owner, address indexed spender, uint256 value);\\n\\n    /**\\n     * @dev Returns the amount of tokens in existence.\\n     */\\n    function totalSupply() external view returns (uint256);\\n\\n    /**\\n     * @dev Returns the amount of tokens owned by `account`.\\n     */\\n    function balanceOf(address account) external view returns (uint256);\\n\\n    /**\\n     * @dev Moves `amount` tokens from the caller's account to `to`.\\n     *\\n     * Returns a boolean value indicating whether the operation succeeded.\\n     *\\n     * Emits a {Transfer} event.\\n     */\\n    function transfer(address to, uint256 amount) external returns (bool);\\n\\n    /**\\n     * @dev Returns the remaining number of tokens that `spender` will be\\n     * allowed to spend on behalf of `owner` through {transferFrom}. This is\\n     * zero by default.\\n     *\\n     * This value changes when {approve} or {transferFrom} are called.\\n     */\\n    function allowance(address owner, address spender) external view returns (uint256);\\n\\n    /**\\n     * @dev Sets `amount` as the allowance of `spender` over the caller's tokens.\\n     *\\n     * Returns a boolean value indicating whether the operation succeeded.\\n     *\\n     * IMPORTANT: Beware that changing an allowance with this method brings the risk\\n     * that someone may use both the old and the new allowance by unfortunate\\n     * transaction ordering. One possible solution to mitigate this race\\n     * condition is to first reduce the spender's allowance to 0 and set the\\n     * desired value afterwards:\\n     * https://github.com/ethereum/EIPs/issues/20#issuecomment-263524729\\n     *\\n     * Emits an {Approval} event.\\n     */\\n    function approve(address spender, uint256 amount) external returns (bool);\\n\\n    /**\\n     * @dev Moves `amount` tokens from `from` to `to` using the\\n     * allowance mechanism. `amount` is then deducted from the caller's\\n     * allowance.\\n     *\\n     * Returns a boolean value indicating whether the operation succeeded.\\n     *\\n     * Emits a {Transfer} event.\\n     */\\n    function transferFrom(\\n        address from,\\n        address to,\\n        uint256 amount\\n    ) external returns (bool);\\n}\\n\"}},\"settings\":{\"optimizer\":{\"enabled\":false,\"runs\":200},\"outputSelection\":{\"*\":{\"\":[\"ast\"],\"*\":[\"abi\",\"metadata\",\"devdoc\",\"userdoc\",\"storageLayout\",\"evm.legacyAssembly\",\"evm.bytecode\",\"evm.deployedBytecode\",\"evm.methodIdentifiers\",\"evm.gasEstimates\",\"evm.assembly\"]}}}}",
	"name": "DisDrop",
	"bytecode": {
		"linkReferences": {},
		"object": "60806040526108026000806101000a81548173ffffffffffffffffffffffffffffffffffffffff021916908373ffffffffffffffffffffffffffffffffffffffff160217905550610801600160006101000a81548173ffffffffffffffffffffffffffffffffffffffff021916908373ffffffffffffffffffffffffffffffffffffffff1602179055506120e4806100986000396000f3fe6080604052600436106100595760003560e01c8063167d63261461006257806341976e091461007e5780638a10d8e2146100bb5780639805bb85146100d7578063d9a79aec146100f3578063eea705831461010f57610060565b3661006057005b005b61007c60048036038101906100779190611219565b61012b565b005b34801561008a57600080fd5b506100a560048036038101906100a091906112cf565b61032b565b6040516100b2919061130b565b60405180910390f35b6100d560048036038101906100d091906113e9565b6103d5565b005b6100f160048036038101906100ec919061149c565b61064e565b005b61010d60048036038101906101089190611527565b61093a565b005b610129600480360381019061012491906115c6565b610c54565b005b805182511461016f576040517f08c379a0000000000000000000000000000000000000000000000000000000008152600401610166906116e8565b60405180910390fd5b600034116101b2576040517f08c379a00000000000000000000000000000000000000000000000000000000081526004016101a990611754565b60405180910390fd5b60005b82518110156102cf578281815181106101d1576101d0611774565b5b602002602001015173ffffffffffffffffffffffffffffffffffffffff166108fc83838151811061020557610204611774565b5b60200260200101519081150290604051600060405180830381858888f19350505050158015610238573d6000803e3d6000fd5b5082818151811061024c5761024b611774565b5b602002602001015173ffffffffffffffffffffffffffffffffffffffff16817f6ac089feed810bffd2334c5a1c6c8f0f3509a73716a2c54433b8a51967eeb50b84848151811061029f5761029e611774565b5b60200260200101516040516102b4919061130b565b60405180910390a380806102c7906117d2565b9150506101b5565b5060004790506000811115610326573373ffffffffffffffffffffffffffffffffffffffff166108fc829081150290604051600060405180830381858888f19350505050158015610324573d6000803e3d6000fd5b505b505050565b600080600160009054906101000a900473ffffffffffffffffffffffffffffffffffffffff1673ffffffffffffffffffffffffffffffffffffffff166341976e09846040518263ffffffff1660e01b81526004016103899190611829565b602060405180830381865afa1580156103a6573d6000803e3d6000fd5b505050506040513d601f19601f820116820180604052508101906103ca9190611859565b905080915050919050565b600085905060003390506000600160009054906101000a900473ffffffffffffffffffffffffffffffffffffffff1673ffffffffffffffffffffffffffffffffffffffff166341976e09846040518263ffffffff1660e01b815260040161043c9190611829565b602060405180830381865afa158015610459573d6000803e3d6000fd5b505050506040513d601f19601f8201168201806040525081019061047d9190611859565b90508481036104975761049288888885610d29565b610644565b60008888888888876040516024016104b496959493929190611a02565b6040516020818303038152906040527feea70583000000000000000000000000000000000000000000000000000000007bffffffffffffffffffffffffffffffffffffffffffffffffffffffff19166020820180517bffffffffffffffffffffffffffffffffffffffffffffffffffffffff8381831617835250505050905060008060009054906101000a900473ffffffffffffffffffffffffffffffffffffffff1673ffffffffffffffffffffffffffffffffffffffff1663168d560d30600062200b2061fa008b886040518763ffffffff1660e01b815260040161059f96959493929190611bab565b6000604051808303816000875af11580156105be573d6000803e3d6000fd5b505050506040513d6000823e3d601f19601f820116820180604052508101906105e79190611cb9565b9050806040516105f79190611d3e565b60405180910390207f9e989ccc644aff3dccb44d63c0125cf7c49f64c9631016543486e7dfc72187c7874261062c9190611d55565b604051610639919061130b565b60405180910390a250505b5050505050505050565b60008390508151835114610697576040517f08c379a000000000000000000000000000000000000000000000000000000000815260040161068e906116e8565b60405180910390fd5b6000805b84518110156106df578381815181106106b7576106b6611774565b5b6020026020010151826106ca9190611d55565b915080806106d7906117d2565b91505061069b565b508173ffffffffffffffffffffffffffffffffffffffff166323b872dd3330846040518463ffffffff1660e01b815260040161071d93929190611d89565b6020604051808303816000875af115801561073c573d6000803e3d6000fd5b505050506040513d601f19601f820116820180604052508101906107609190611df8565b61079f576040517f08c379a000000000000000000000000000000000000000000000000000000000815260040161079690611e71565b60405180910390fd5b60005b8451811015610932578273ffffffffffffffffffffffffffffffffffffffff1663a9059cbb8683815181106107da576107d9611774565b5b60200260200101518684815181106107f5576107f4611774565b5b60200260200101516040518363ffffffff1660e01b815260040161081a929190611e91565b6020604051808303816000875af1158015610839573d6000803e3d6000fd5b505050506040513d601f19601f8201168201806040525081019061085d9190611df8565b61089c576040517f08c379a000000000000000000000000000000000000000000000000000000000815260040161089390611f06565b60405180910390fd5b8481815181106108af576108ae611774565b5b602002602001015173ffffffffffffffffffffffffffffffffffffffff16817fb9471439bd4c23f19d2b486548fa6061ab17e1da9815f325f2a2b29f22e715e386848151811061090257610901611774565b5b6020026020010151604051610917919061130b565b60405180910390a3808061092a906117d2565b9150506107a2565b505050505050565b60008490508251845114610983576040517f08c379a000000000000000000000000000000000000000000000000000000000815260040161097a906116e8565b60405180910390fd5b6000805b84518110156109cb578481815181106109a3576109a2611774565b5b6020026020010151826109b69190611d55565b915080806109c3906117d2565b915050610987565b508173ffffffffffffffffffffffffffffffffffffffff166323b872dd3330846040518463ffffffff1660e01b8152600401610a0993929190611d89565b6020604051808303816000875af1158015610a28573d6000803e3d6000fd5b505050506040513d601f19601f82011682018060405250810190610a4c9190611df8565b610a8b576040517f08c379a0000000000000000000000000000000000000000000000000000000008152600401610a8290611f72565b60405180910390fd5b6000868686604051602401610aa293929190611f92565b6040516020818303038152906040527f46ba5fed000000000000000000000000000000000000000000000000000000007bffffffffffffffffffffffffffffffffffffffffffffffffffffffff19166020820180517bffffffffffffffffffffffffffffffffffffffffffffffffffffffff8381831617835250505050905060008060009054906101000a900473ffffffffffffffffffffffffffffffffffffffff1673ffffffffffffffffffffffffffffffffffffffff1663168d560d30600062200b2061fa008a886040518763ffffffff1660e01b8152600401610b8d96959493929190611bab565b6000604051808303816000875af1158015610bac573d6000803e3d6000fd5b505050506040513d6000823e3d601f19601f82011682018060405250810190610bd59190611cb9565b90508773ffffffffffffffffffffffffffffffffffffffff1681604051610bfc9190611d3e565b60405180910390207fc9c9afe41dd5e3a9438dd88814edcb9c8089a9e980f48b14414eda3d6d3d0e9a89898942610c339190611d55565b604051610c4293929190611fd7565b60405180910390a35050505050505050565b60008690506000600160009054906101000a900473ffffffffffffffffffffffffffffffffffffffff1673ffffffffffffffffffffffffffffffffffffffff166341976e09836040518263ffffffff1660e01b8152600401610cb69190611829565b602060405180830381865afa158015610cd3573d6000803e3d6000fd5b505050506040513d601f19601f82011682018060405250810190610cf79190611859565b9050848103610d1157610d0c88888886610d29565b610d1f565b610d1e88888888886103d5565b5b5050505050505050565b60008490508251845114610d72576040517f08c379a0000000000000000000000000000000000000000000000000000000008152600401610d699061208e565b60405180910390fd5b6000805b8451811015610dba57848181518110610d9257610d91611774565b5b602002602001015182610da59190611d55565b91508080610db2906117d2565b915050610d76565b508173ffffffffffffffffffffffffffffffffffffffff166323b872dd8430846040518463ffffffff1660e01b8152600401610df893929190611d89565b6020604051808303816000875af1158015610e17573d6000803e3d6000fd5b505050506040513d601f19601f82011682018060405250810190610e3b9190611df8565b610e7a576040517f08c379a0000000000000000000000000000000000000000000000000000000008152600401610e7190611f06565b60405180910390fd5b60005b8551811015610f4c578273ffffffffffffffffffffffffffffffffffffffff1663a9059cbb878381518110610eb557610eb4611774565b5b6020026020010151878481518110610ed057610ecf611774565b5b60200260200101516040518363ffffffff1660e01b8152600401610ef5929190611e91565b6020604051808303816000875af1158015610f14573d6000803e3d6000fd5b505050506040513d601f19601f82011682018060405250810190610f389190611df8565b508080610f44906117d2565b915050610e7d565b50505050505050565b6000604051905090565b600080fd5b600080fd5b600080fd5b6000601f19601f8301169050919050565b7f4e487b7100000000000000000000000000000000000000000000000000000000600052604160045260246000fd5b610fb782610f6e565b810181811067ffffffffffffffff82111715610fd657610fd5610f7f565b5b80604052505050565b6000610fe9610f55565b9050610ff58282610fae565b919050565b600067ffffffffffffffff82111561101557611014610f7f565b5b602082029050602081019050919050565b600080fd5b600073ffffffffffffffffffffffffffffffffffffffff82169050919050565b60006110568261102b565b9050919050565b6110668161104b565b811461107157600080fd5b50565b6000813590506110838161105d565b92915050565b600061109c61109784610ffa565b610fdf565b905080838252602082019050602084028301858111156110bf576110be611026565b5b835b818110156110e857806110d48882611074565b8452602084019350506020810190506110c1565b5050509392505050565b600082601f83011261110757611106610f69565b5b8135611117848260208601611089565b91505092915050565b600067ffffffffffffffff82111561113b5761113a610f7f565b5b602082029050602081019050919050565b6000819050919050565b61115f8161114c565b811461116a57600080fd5b50565b60008135905061117c81611156565b92915050565b600061119561119084611120565b610fdf565b905080838252602082019050602084028301858111156111b8576111b7611026565b5b835b818110156111e157806111cd888261116d565b8452602084019350506020810190506111ba565b5050509392505050565b600082601f830112611200576111ff610f69565b5b8135611210848260208601611182565b91505092915050565b600080604083850312156112305761122f610f5f565b5b600083013567ffffffffffffffff81111561124e5761124d610f64565b5b61125a858286016110f2565b925050602083013567ffffffffffffffff81111561127b5761127a610f64565b5b611287858286016111eb565b9150509250929050565b600061129c8261102b565b9050919050565b6112ac81611291565b81146112b757600080fd5b50565b6000813590506112c9816112a3565b92915050565b6000602082840312156112e5576112e4610f5f565b5b60006112f3848285016112ba565b91505092915050565b6113058161114c565b82525050565b600060208201905061132060008301846112fc565b92915050565b600067ffffffffffffffff82111561134157611340610f7f565b5b602082029050602081019050919050565b600061136561136084611326565b610fdf565b9050808382526020820190506020840283018581111561138857611387611026565b5b835b818110156113b1578061139d88826112ba565b84526020840193505060208101905061138a565b5050509392505050565b600082601f8301126113d0576113cf610f69565b5b81356113e0848260208601611352565b91505092915050565b600080600080600060a0868803121561140557611404610f5f565b5b6000611413888289016112ba565b955050602086013567ffffffffffffffff81111561143457611433610f64565b5b611440888289016113bb565b945050604086013567ffffffffffffffff81111561146157611460610f64565b5b61146d888289016111eb565b935050606061147e8882890161116d565b925050608061148f8882890161116d565b9150509295509295909350565b6000806000606084860312156114b5576114b4610f5f565b5b60006114c3868287016112ba565b935050602084013567ffffffffffffffff8111156114e4576114e3610f64565b5b6114f0868287016113bb565b925050604084013567ffffffffffffffff81111561151157611510610f64565b5b61151d868287016111eb565b9150509250925092565b6000806000806080858703121561154157611540610f5f565b5b600061154f878288016112ba565b945050602085013567ffffffffffffffff8111156115705761156f610f64565b5b61157c878288016113bb565b935050604085013567ffffffffffffffff81111561159d5761159c610f64565b5b6115a9878288016111eb565b92505060606115ba8782880161116d565b91505092959194509250565b60008060008060008060c087890312156115e3576115e2610f5f565b5b60006115f189828a016112ba565b965050602087013567ffffffffffffffff81111561161257611611610f64565b5b61161e89828a016113bb565b955050604087013567ffffffffffffffff81111561163f5761163e610f64565b5b61164b89828a016111eb565b945050606061165c89828a0161116d565b935050608061166d89828a0161116d565b92505060a061167e89828a016112ba565b9150509295509295509295565b600082825260208201905092915050565b7f4769766520696e70757473206163636f7264696e676c79210000000000000000600082015250565b60006116d260188361168b565b91506116dd8261169c565b602082019050919050565b60006020820190508181036000830152611701816116c5565b9050919050565b7f596f75206e65656420746f2073656e6420736f6d652045544820706c65617365600082015250565b600061173e60208361168b565b915061174982611708565b602082019050919050565b6000602082019050818103600083015261176d81611731565b9050919050565b7f4e487b7100000000000000000000000000000000000000000000000000000000600052603260045260246000fd5b7f4e487b7100000000000000000000000000000000000000000000000000000000600052601160045260246000fd5b60006117dd8261114c565b91507fffffffffffffffffffffffffffffffffffffffffffffffffffffffffffffffff820361180f5761180e6117a3565b5b600182019050919050565b61182381611291565b82525050565b600060208201905061183e600083018461181a565b92915050565b60008151905061185381611156565b92915050565b60006020828403121561186f5761186e610f5f565b5b600061187d84828501611844565b91505092915050565b600081519050919050565b600082825260208201905092915050565b6000819050602082019050919050565b6118bb81611291565b82525050565b60006118cd83836118b2565b60208301905092915050565b6000602082019050919050565b60006118f182611886565b6118fb8185611891565b9350611906836118a2565b8060005b8381101561193757815161191e88826118c1565b9750611929836118d9565b92505060018101905061190a565b5085935050505092915050565b600081519050919050565b600082825260208201905092915050565b6000819050602082019050919050565b6119798161114c565b82525050565b600061198b8383611970565b60208301905092915050565b6000602082019050919050565b60006119af82611944565b6119b9818561194f565b93506119c483611960565b8060005b838110156119f55781516119dc888261197f565b97506119e783611997565b9250506001810190506119c8565b5085935050505092915050565b600060c082019050611a17600083018961181a565b8181036020830152611a2981886118e6565b90508181036040830152611a3d81876119a4565b9050611a4c60608301866112fc565b611a5960808301856112fc565b611a6660a083018461181a565b979650505050505050565b6000819050919050565b6000819050919050565b6000611aa0611a9b611a9684611a71565b611a7b565b61114c565b9050919050565b611ab081611a85565b82525050565b6000819050919050565b6000611adb611ad6611ad184611ab6565b611a7b565b61114c565b9050919050565b611aeb81611ac0565b82525050565b6000819050919050565b6000611b16611b11611b0c84611af1565b611a7b565b61114c565b9050919050565b611b2681611afb565b82525050565b600081519050919050565b600082825260208201905092915050565b60005b83811015611b66578082015181840152602081019050611b4b565b60008484015250505050565b6000611b7d82611b2c565b611b878185611b37565b9350611b97818560208601611b48565b611ba081610f6e565b840191505092915050565b600060c082019050611bc0600083018961181a565b611bcd6020830188611aa7565b611bda6040830187611ae2565b611be76060830186611b1d565b611bf460808301856112fc565b81810360a0830152611c068184611b72565b9050979650505050505050565b600080fd5b600067ffffffffffffffff821115611c3357611c32610f7f565b5b611c3c82610f6e565b9050602081019050919050565b6000611c5c611c5784611c18565b610fdf565b905082815260208101848484011115611c7857611c77611c13565b5b611c83848285611b48565b509392505050565b600082601f830112611ca057611c9f610f69565b5b8151611cb0848260208601611c49565b91505092915050565b600060208284031215611ccf57611cce610f5f565b5b600082015167ffffffffffffffff811115611ced57611cec610f64565b5b611cf984828501611c8b565b91505092915050565b600081905092915050565b6000611d1882611b2c565b611d228185611d02565b9350611d32818560208601611b48565b80840191505092915050565b6000611d4a8284611d0d565b915081905092915050565b6000611d608261114c565b9150611d6b8361114c565b9250828201905080821115611d8357611d826117a3565b5b92915050565b6000606082019050611d9e600083018661181a565b611dab602083018561181a565b611db860408301846112fc565b949350505050565b60008115159050919050565b611dd581611dc0565b8114611de057600080fd5b50565b600081519050611df281611dcc565b92915050565b600060208284031215611e0e57611e0d610f5f565b5b6000611e1c84828501611de3565b91505092915050565b7f546f6b656e207472616e7366657246726f6d206661696c656421200000000000600082015250565b6000611e5b601b8361168b565b9150611e6682611e25565b602082019050919050565b60006020820190508181036000830152611e8a81611e4e565b9050919050565b6000604082019050611ea6600083018561181a565b611eb360208301846112fc565b9392505050565b7f546f6b656e207472616e73666572206661696c65640000000000000000000000600082015250565b6000611ef060158361168b565b9150611efb82611eba565b602082019050919050565b60006020820190508181036000830152611f1f81611ee3565b9050919050565b7f546f6b656e207472616e73666572206661696c65642100000000000000000000600082015250565b6000611f5c60168361168b565b9150611f6782611f26565b602082019050919050565b60006020820190508181036000830152611f8b81611f4f565b9050919050565b6000606082019050611fa7600083018661181a565b8181036020830152611fb981856118e6565b90508181036040830152611fcd81846119a4565b9050949350505050565b60006060820190508181036000830152611ff181866118e6565b9050818103602083015261200581856119a4565b905061201460408301846112fc565b949350505050565b7f4d69736d61746368656420726563697069656e747320616e6420616d6f756e7460008201527f7300000000000000000000000000000000000000000000000000000000000000602082015250565b600061207860218361168b565b91506120838261201c565b604082019050919050565b600060208201905081810360008301526120a78161206b565b905091905056fea26469706673582212208f0088278a4fcd6a3094068d1f010e79feb8dd5ed4a5531d8ac21d7b249c1cfc64736f6c63430008120033",
		"opcodes": "PUSH1 0x80 PUSH1 0x40 MSTORE PUSH2 0x802 PUSH1 0x0 DUP1 PUSH2 0x100 EXP DUP2 SLOAD DUP2 PUSH20 0xFFFFFFFFFFFFFFFFFFFFFFFFFFFFFFFFFFFFFFFF MUL NOT AND SWAP1 DUP4 PUSH20 0xFFFFFFFFFFFFFFFFFFFFFFFFFFFFFFFFFFFFFFFF AND MUL OR SWAP1 SSTORE POP PUSH2 0x801 PUSH1 0x1 PUSH1 0x0 PUSH2 0x100 EXP DUP2 SLOAD DUP2 PUSH20 0xFFFFFFFFFFFFFFFFFFFFFFFFFFFFFFFFFFFFFFFF MUL NOT AND SWAP1 DUP4 PUSH20 0xFFFFFFFFFFFFFFFFFFFFFFFFFFFFFFFFFFFFFFFF AND MUL OR SWAP1 SSTORE POP PUSH2 0x20E4 DUP1 PUSH2 0x98 PUSH1 0x0 CODECOPY PUSH1 0x0 RETURN INVALID PUSH1 0x80 PUSH1 0x40 MSTORE PUSH1 0x4 CALLDATASIZE LT PUSH2 0x59 JUMPI PUSH1 0x0 CALLDATALOAD PUSH1 0xE0 SHR DUP1 PUSH4 0x167D6326 EQ PUSH2 0x62 JUMPI DUP1 PUSH4 0x41976E09 EQ PUSH2 0x7E JUMPI DUP1 PUSH4 0x8A10D8E2 EQ PUSH2 0xBB JUMPI DUP1 PUSH4 0x9805BB85 EQ PUSH2 0xD7 JUMPI DUP1 PUSH4 0xD9A79AEC EQ PUSH2 0xF3 JUMPI DUP1 PUSH4 0xEEA70583 EQ PUSH2 0x10F JUMPI PUSH2 0x60 JUMP JUMPDEST CALLDATASIZE PUSH2 0x60 JUMPI STOP JUMPDEST STOP JUMPDEST PUSH2 0x7C PUSH1 0x4 DUP1 CALLDATASIZE SUB DUP2 ADD SWAP1 PUSH2 0x77 SWAP2 SWAP1 PUSH2 0x1219 JUMP JUMPDEST PUSH2 0x12B JUMP JUMPDEST STOP JUMPDEST CALLVALUE DUP1 ISZERO PUSH2 0x8A JUMPI PUSH1 0x0 DUP1 REVERT JUMPDEST POP PUSH2 0xA5 PUSH1 0x4 DUP1 CALLDATASIZE SUB DUP2 ADD SWAP1 PUSH2 0xA0 SWAP2 SWAP1 PUSH2 0x12CF JUMP JUMPDEST PUSH2 0x32B JUMP JUMPDEST PUSH1 0x40 MLOAD PUSH2 0xB2 SWAP2 SWAP1 PUSH2 0x130B JUMP JUMPDEST PUSH1 0x40 MLOAD DUP1 SWAP2 SUB SWAP1 RETURN JUMPDEST PUSH2 0xD5 PUSH1 0x4 DUP1 CALLDATASIZE SUB DUP2 ADD SWAP1 PUSH2 0xD0 SWAP2 SWAP1 PUSH2 0x13E9 JUMP JUMPDEST PUSH2 0x3D5 JUMP JUMPDEST STOP JUMPDEST PUSH2 0xF1 PUSH1 0x4 DUP1 CALLDATASIZE SUB DUP2 ADD SWAP1 PUSH2 0xEC SWAP2 SWAP1 PUSH2 0x149C JUMP JUMPDEST PUSH2 0x64E JUMP JUMPDEST STOP JUMPDEST PUSH2 0x10D PUSH1 0x4 DUP1 CALLDATASIZE SUB DUP2 ADD SWAP1 PUSH2 0x108 SWAP2 SWAP1 PUSH2 0x1527 JUMP JUMPDEST PUSH2 0x93A JUMP JUMPDEST STOP JUMPDEST PUSH2 0x129 PUSH1 0x4 DUP1 CALLDATASIZE SUB DUP2 ADD SWAP1 PUSH2 0x124 SWAP2 SWAP1 PUSH2 0x15C6 JUMP JUMPDEST PUSH2 0xC54 JUMP JUMPDEST STOP JUMPDEST DUP1 MLOAD DUP3 MLOAD EQ PUSH2 0x16F JUMPI PUSH1 0x40 MLOAD PUSH32 0x8C379A000000000000000000000000000000000000000000000000000000000 DUP2 MSTORE PUSH1 0x4 ADD PUSH2 0x166 SWAP1 PUSH2 0x16E8 JUMP JUMPDEST PUSH1 0x40 MLOAD DUP1 SWAP2 SUB SWAP1 REVERT JUMPDEST PUSH1 0x0 CALLVALUE GT PUSH2 0x1B2 JUMPI PUSH1 0x40 MLOAD PUSH32 0x8C379A000000000000000000000000000000000000000000000000000000000 DUP2 MSTORE PUSH1 0x4 ADD PUSH2 0x1A9 SWAP1 PUSH2 0x1754 JUMP JUMPDEST PUSH1 0x40 MLOAD DUP1 SWAP2 SUB SWAP1 REVERT JUMPDEST PUSH1 0x0 JUMPDEST DUP3 MLOAD DUP2 LT ISZERO PUSH2 0x2CF JUMPI DUP3 DUP2 DUP2 MLOAD DUP2 LT PUSH2 0x1D1 JUMPI PUSH2 0x1D0 PUSH2 0x1774 JUMP JUMPDEST JUMPDEST PUSH1 0x20 MUL PUSH1 0x20 ADD ADD MLOAD PUSH20 0xFFFFFFFFFFFFFFFFFFFFFFFFFFFFFFFFFFFFFFFF AND PUSH2 0x8FC DUP4 DUP4 DUP2 MLOAD DUP2 LT PUSH2 0x205 JUMPI PUSH2 0x204 PUSH2 0x1774 JUMP JUMPDEST JUMPDEST PUSH1 0x20 MUL PUSH1 0x20 ADD ADD MLOAD SWAP1 DUP2 ISZERO MUL SWAP1 PUSH1 0x40 MLOAD PUSH1 0x0 PUSH1 0x40 MLOAD DUP1 DUP4 SUB DUP2 DUP6 DUP9 DUP9 CALL SWAP4 POP POP POP POP ISZERO DUP1 ISZERO PUSH2 0x238 JUMPI RETURNDATASIZE PUSH1 0x0 DUP1 RETURNDATACOPY RETURNDATASIZE PUSH1 0x0 REVERT JUMPDEST POP DUP3 DUP2 DUP2 MLOAD DUP2 LT PUSH2 0x24C JUMPI PUSH2 0x24B PUSH2 0x1774 JUMP JUMPDEST JUMPDEST PUSH1 0x20 MUL PUSH1 0x20 ADD ADD MLOAD PUSH20 0xFFFFFFFFFFFFFFFFFFFFFFFFFFFFFFFFFFFFFFFF AND DUP2 PUSH32 0x6AC089FEED810BFFD2334C5A1C6C8F0F3509A73716A2C54433B8A51967EEB50B DUP5 DUP5 DUP2 MLOAD DUP2 LT PUSH2 0x29F JUMPI PUSH2 0x29E PUSH2 0x1774 JUMP JUMPDEST JUMPDEST PUSH1 0x20 MUL PUSH1 0x20 ADD ADD MLOAD PUSH1 0x40 MLOAD PUSH2 0x2B4 SWAP2 SWAP1 PUSH2 0x130B JUMP JUMPDEST PUSH1 0x40 MLOAD DUP1 SWAP2 SUB SWAP1 LOG3 DUP1 DUP1 PUSH2 0x2C7 SWAP1 PUSH2 0x17D2 JUMP JUMPDEST SWAP2 POP POP PUSH2 0x1B5 JUMP JUMPDEST POP PUSH1 0x0 SELFBALANCE SWAP1 POP PUSH1 0x0 DUP2 GT ISZERO PUSH2 0x326 JUMPI CALLER PUSH20 0xFFFFFFFFFFFFFFFFFFFFFFFFFFFFFFFFFFFFFFFF AND PUSH2 0x8FC DUP3 SWAP1 DUP2 ISZERO MUL SWAP1 PUSH1 0x40 MLOAD PUSH1 0x0 PUSH1 0x40 MLOAD DUP1 DUP4 SUB DUP2 DUP6 DUP9 DUP9 CALL SWAP4 POP POP POP POP ISZERO DUP1 ISZERO PUSH2 0x324 JUMPI RETURNDATASIZE PUSH1 0x0 DUP1 RETURNDATACOPY RETURNDATASIZE PUSH1 0x0 REVERT JUMPDEST POP JUMPDEST POP POP POP JUMP JUMPDEST PUSH1 0x0 DUP1 PUSH1 0x1 PUSH1 0x0 SWAP1 SLOAD SWAP1 PUSH2 0x100 EXP SWAP1 DIV PUSH20 0xFFFFFFFFFFFFFFFFFFFFFFFFFFFFFFFFFFFFFFFF AND PUSH20 0xFFFFFFFFFFFFFFFFFFFFFFFFFFFFFFFFFFFFFFFF AND PUSH4 0x41976E09 DUP5 PUSH1 0x40 MLOAD DUP3 PUSH4 0xFFFFFFFF AND PUSH1 0xE0 SHL DUP2 MSTORE PUSH1 0x4 ADD PUSH2 0x389 SWAP2 SWAP1 PUSH2 0x1829 JUMP JUMPDEST PUSH1 0x20 PUSH1 0x40 MLOAD DUP1 DUP4 SUB DUP2 DUP7 GAS STATICCALL ISZERO DUP1 ISZERO PUSH2 0x3A6 JUMPI RETURNDATASIZE PUSH1 0x0 DUP1 RETURNDATACOPY RETURNDATASIZE PUSH1 0x0 REVERT JUMPDEST POP POP POP POP PUSH1 0x40 MLOAD RETURNDATASIZE PUSH1 0x1F NOT PUSH1 0x1F DUP3 ADD AND DUP3 ADD DUP1 PUSH1 0x40 MSTORE POP DUP2 ADD SWAP1 PUSH2 0x3CA SWAP2 SWAP1 PUSH2 0x1859 JUMP JUMPDEST SWAP1 POP DUP1 SWAP2 POP POP SWAP2 SWAP1 POP JUMP JUMPDEST PUSH1 0x0 DUP6 SWAP1 POP PUSH1 0x0 CALLER SWAP1 POP PUSH1 0x0 PUSH1 0x1 PUSH1 0x0 SWAP1 SLOAD SWAP1 PUSH2 0x100 EXP SWAP1 DIV PUSH20 0xFFFFFFFFFFFFFFFFFFFFFFFFFFFFFFFFFFFFFFFF AND PUSH20 0xFFFFFFFFFFFFFFFFFFFFFFFFFFFFFFFFFFFFFFFF AND PUSH4 0x41976E09 DUP5 PUSH1 0x40 MLOAD DUP3 PUSH4 0xFFFFFFFF AND PUSH1 0xE0 SHL DUP2 MSTORE PUSH1 0x4 ADD PUSH2 0x43C SWAP2 SWAP1 PUSH2 0x1829 JUMP JUMPDEST PUSH1 0x20 PUSH1 0x40 MLOAD DUP1 DUP4 SUB DUP2 DUP7 GAS STATICCALL ISZERO DUP1 ISZERO PUSH2 0x459 JUMPI RETURNDATASIZE PUSH1 0x0 DUP1 RETURNDATACOPY RETURNDATASIZE PUSH1 0x0 REVERT JUMPDEST POP POP POP POP PUSH1 0x40 MLOAD RETURNDATASIZE PUSH1 0x1F NOT PUSH1 0x1F DUP3 ADD AND DUP3 ADD DUP1 PUSH1 0x40 MSTORE POP DUP2 ADD SWAP1 PUSH2 0x47D SWAP2 SWAP1 PUSH2 0x1859 JUMP JUMPDEST SWAP1 POP DUP5 DUP2 SUB PUSH2 0x497 JUMPI PUSH2 0x492 DUP9 DUP9 DUP9 DUP6 PUSH2 0xD29 JUMP JUMPDEST PUSH2 0x644 JUMP JUMPDEST PUSH1 0x0 DUP9 DUP9 DUP9 DUP9 DUP9 DUP8 PUSH1 0x40 MLOAD PUSH1 0x24 ADD PUSH2 0x4B4 SWAP7 SWAP6 SWAP5 SWAP4 SWAP3 SWAP2 SWAP1 PUSH2 0x1A02 JUMP JUMPDEST PUSH1 0x40 MLOAD PUSH1 0x20 DUP2 DUP4 SUB SUB DUP2 MSTORE SWAP1 PUSH1 0x40 MSTORE PUSH32 0xEEA7058300000000000000000000000000000000000000000000000000000000 PUSH28 0xFFFFFFFFFFFFFFFFFFFFFFFFFFFFFFFFFFFFFFFFFFFFFFFFFFFFFFFF NOT AND PUSH1 0x20 DUP3 ADD DUP1 MLOAD PUSH28 0xFFFFFFFFFFFFFFFFFFFFFFFFFFFFFFFFFFFFFFFFFFFFFFFFFFFFFFFF DUP4 DUP2 DUP4 AND OR DUP4 MSTORE POP POP POP POP SWAP1 POP PUSH1 0x0 DUP1 PUSH1 0x0 SWAP1 SLOAD SWAP1 PUSH2 0x100 EXP SWAP1 DIV PUSH20 0xFFFFFFFFFFFFFFFFFFFFFFFFFFFFFFFFFFFFFFFF AND PUSH20 0xFFFFFFFFFFFFFFFFFFFFFFFFFFFFFFFFFFFFFFFF AND PUSH4 0x168D560D ADDRESS PUSH1 0x0 PUSH3 0x200B20 PUSH2 0xFA00 DUP12 DUP9 PUSH1 0x40 MLOAD DUP8 PUSH4 0xFFFFFFFF AND PUSH1 0xE0 SHL DUP2 MSTORE PUSH1 0x4 ADD PUSH2 0x59F SWAP7 SWAP6 SWAP5 SWAP4 SWAP3 SWAP2 SWAP1 PUSH2 0x1BAB JUMP JUMPDEST PUSH1 0x0 PUSH1 0x40 MLOAD DUP1 DUP4 SUB DUP2 PUSH1 0x0 DUP8 GAS CALL ISZERO DUP1 ISZERO PUSH2 0x5BE JUMPI RETURNDATASIZE PUSH1 0x0 DUP1 RETURNDATACOPY RETURNDATASIZE PUSH1 0x0 REVERT JUMPDEST POP POP POP POP PUSH1 0x40 MLOAD RETURNDATASIZE PUSH1 0x0 DUP3 RETURNDATACOPY RETURNDATASIZE PUSH1 0x1F NOT PUSH1 0x1F DUP3 ADD AND DUP3 ADD DUP1 PUSH1 0x40 MSTORE POP DUP2 ADD SWAP1 PUSH2 0x5E7 SWAP2 SWAP1 PUSH2 0x1CB9 JUMP JUMPDEST SWAP1 POP DUP1 PUSH1 0x40 MLOAD PUSH2 0x5F7 SWAP2 SWAP1 PUSH2 0x1D3E JUMP JUMPDEST PUSH1 0x40 MLOAD DUP1 SWAP2 SUB SWAP1 KECCAK256 PUSH32 0x9E989CCC644AFF3DCCB44D63C0125CF7C49F64C9631016543486E7DFC72187C7 DUP8 TIMESTAMP PUSH2 0x62C SWAP2 SWAP1 PUSH2 0x1D55 JUMP JUMPDEST PUSH1 0x40 MLOAD PUSH2 0x639 SWAP2 SWAP1 PUSH2 0x130B JUMP JUMPDEST PUSH1 0x40 MLOAD DUP1 SWAP2 SUB SWAP1 LOG2 POP POP JUMPDEST POP POP POP POP POP POP POP POP JUMP JUMPDEST PUSH1 0x0 DUP4 SWAP1 POP DUP2 MLOAD DUP4 MLOAD EQ PUSH2 0x697 JUMPI PUSH1 0x40 MLOAD PUSH32 0x8C379A000000000000000000000000000000000000000000000000000000000 DUP2 MSTORE PUSH1 0x4 ADD PUSH2 0x68E SWAP1 PUSH2 0x16E8 JUMP JUMPDEST PUSH1 0x40 MLOAD DUP1 SWAP2 SUB SWAP1 REVERT JUMPDEST PUSH1 0x0 DUP1 JUMPDEST DUP5 MLOAD DUP2 LT ISZERO PUSH2 0x6DF JUMPI DUP4 DUP2 DUP2 MLOAD DUP2 LT PUSH2 0x6B7 JUMPI PUSH2 0x6B6 PUSH2 0x1774 JUMP JUMPDEST JUMPDEST PUSH1 0x20 MUL PUSH1 0x20 ADD ADD MLOAD DUP3 PUSH2 0x6CA SWAP2 SWAP1 PUSH2 0x1D55 JUMP JUMPDEST SWAP2 POP DUP1 DUP1 PUSH2 0x6D7 SWAP1 PUSH2 0x17D2 JUMP JUMPDEST SWAP2 POP POP PUSH2 0x69B JUMP JUMPDEST POP DUP2 PUSH20 0xFFFFFFFFFFFFFFFFFFFFFFFFFFFFFFFFFFFFFFFF AND PUSH4 0x23B872DD CALLER ADDRESS DUP5 PUSH1 0x40 MLOAD DUP5 PUSH4 0xFFFFFFFF AND PUSH1 0xE0 SHL DUP2 MSTORE PUSH1 0x4 ADD PUSH2 0x71D SWAP4 SWAP3 SWAP2 SWAP1 PUSH2 0x1D89 JUMP JUMPDEST PUSH1 0x20 PUSH1 0x40 MLOAD DUP1 DUP4 SUB DUP2 PUSH1 0x0 DUP8 GAS CALL ISZERO DUP1 ISZERO PUSH2 0x73C JUMPI RETURNDATASIZE PUSH1 0x0 DUP1 RETURNDATACOPY RETURNDATASIZE PUSH1 0x0 REVERT JUMPDEST POP POP POP POP PUSH1 0x40 MLOAD RETURNDATASIZE PUSH1 0x1F NOT PUSH1 0x1F DUP3 ADD AND DUP3 ADD DUP1 PUSH1 0x40 MSTORE POP DUP2 ADD SWAP1 PUSH2 0x760 SWAP2 SWAP1 PUSH2 0x1DF8 JUMP JUMPDEST PUSH2 0x79F JUMPI PUSH1 0x40 MLOAD PUSH32 0x8C379A000000000000000000000000000000000000000000000000000000000 DUP2 MSTORE PUSH1 0x4 ADD PUSH2 0x796 SWAP1 PUSH2 0x1E71 JUMP JUMPDEST PUSH1 0x40 MLOAD DUP1 SWAP2 SUB SWAP1 REVERT JUMPDEST PUSH1 0x0 JUMPDEST DUP5 MLOAD DUP2 LT ISZERO PUSH2 0x932 JUMPI DUP3 PUSH20 0xFFFFFFFFFFFFFFFFFFFFFFFFFFFFFFFFFFFFFFFF AND PUSH4 0xA9059CBB DUP7 DUP4 DUP2 MLOAD DUP2 LT PUSH2 0x7DA JUMPI PUSH2 0x7D9 PUSH2 0x1774 JUMP JUMPDEST JUMPDEST PUSH1 0x20 MUL PUSH1 0x20 ADD ADD MLOAD DUP7 DUP5 DUP2 MLOAD DUP2 LT PUSH2 0x7F5 JUMPI PUSH2 0x7F4 PUSH2 0x1774 JUMP JUMPDEST JUMPDEST PUSH1 0x20 MUL PUSH1 0x20 ADD ADD MLOAD PUSH1 0x40 MLOAD DUP4 PUSH4 0xFFFFFFFF AND PUSH1 0xE0 SHL DUP2 MSTORE PUSH1 0x4 ADD PUSH2 0x81A SWAP3 SWAP2 SWAP1 PUSH2 0x1E91 JUMP JUMPDEST PUSH1 0x20 PUSH1 0x40 MLOAD DUP1 DUP4 SUB DUP2 PUSH1 0x0 DUP8 GAS CALL ISZERO DUP1 ISZERO PUSH2 0x839 JUMPI RETURNDATASIZE PUSH1 0x0 DUP1 RETURNDATACOPY RETURNDATASIZE PUSH1 0x0 REVERT JUMPDEST POP POP POP POP PUSH1 0x40 MLOAD RETURNDATASIZE PUSH1 0x1F NOT PUSH1 0x1F DUP3 ADD AND DUP3 ADD DUP1 PUSH1 0x40 MSTORE POP DUP2 ADD SWAP1 PUSH2 0x85D SWAP2 SWAP1 PUSH2 0x1DF8 JUMP JUMPDEST PUSH2 0x89C JUMPI PUSH1 0x40 MLOAD PUSH32 0x8C379A000000000000000000000000000000000000000000000000000000000 DUP2 MSTORE PUSH1 0x4 ADD PUSH2 0x893 SWAP1 PUSH2 0x1F06 JUMP JUMPDEST PUSH1 0x40 MLOAD DUP1 SWAP2 SUB SWAP1 REVERT JUMPDEST DUP5 DUP2 DUP2 MLOAD DUP2 LT PUSH2 0x8AF JUMPI PUSH2 0x8AE PUSH2 0x1774 JUMP JUMPDEST JUMPDEST PUSH1 0x20 MUL PUSH1 0x20 ADD ADD MLOAD PUSH20 0xFFFFFFFFFFFFFFFFFFFFFFFFFFFFFFFFFFFFFFFF AND DUP2 PUSH32 0xB9471439BD4C23F19D2B486548FA6061AB17E1DA9815F325F2A2B29F22E715E3 DUP7 DUP5 DUP2 MLOAD DUP2 LT PUSH2 0x902 JUMPI PUSH2 0x901 PUSH2 0x1774 JUMP JUMPDEST JUMPDEST PUSH1 0x20 MUL PUSH1 0x20 ADD ADD MLOAD PUSH1 0x40 MLOAD PUSH2 0x917 SWAP2 SWAP1 PUSH2 0x130B JUMP JUMPDEST PUSH1 0x40 MLOAD DUP1 SWAP2 SUB SWAP1 LOG3 DUP1 DUP1 PUSH2 0x92A SWAP1 PUSH2 0x17D2 JUMP JUMPDEST SWAP2 POP POP PUSH2 0x7A2 JUMP JUMPDEST POP POP POP POP POP POP JUMP JUMPDEST PUSH1 0x0 DUP5 SWAP1 POP DUP3 MLOAD DUP5 MLOAD EQ PUSH2 0x983 JUMPI PUSH1 0x40 MLOAD PUSH32 0x8C379A000000000000000000000000000000000000000000000000000000000 DUP2 MSTORE PUSH1 0x4 ADD PUSH2 0x97A SWAP1 PUSH2 0x16E8 JUMP JUMPDEST PUSH1 0x40 MLOAD DUP1 SWAP2 SUB SWAP1 REVERT JUMPDEST PUSH1 0x0 DUP1 JUMPDEST DUP5 MLOAD DUP2 LT ISZERO PUSH2 0x9CB JUMPI DUP5 DUP2 DUP2 MLOAD DUP2 LT PUSH2 0x9A3 JUMPI PUSH2 0x9A2 PUSH2 0x1774 JUMP JUMPDEST JUMPDEST PUSH1 0x20 MUL PUSH1 0x20 ADD ADD MLOAD DUP3 PUSH2 0x9B6 SWAP2 SWAP1 PUSH2 0x1D55 JUMP JUMPDEST SWAP2 POP DUP1 DUP1 PUSH2 0x9C3 SWAP1 PUSH2 0x17D2 JUMP JUMPDEST SWAP2 POP POP PUSH2 0x987 JUMP JUMPDEST POP DUP2 PUSH20 0xFFFFFFFFFFFFFFFFFFFFFFFFFFFFFFFFFFFFFFFF AND PUSH4 0x23B872DD CALLER ADDRESS DUP5 PUSH1 0x40 MLOAD DUP5 PUSH4 0xFFFFFFFF AND PUSH1 0xE0 SHL DUP2 MSTORE PUSH1 0x4 ADD PUSH2 0xA09 SWAP4 SWAP3 SWAP2 SWAP1 PUSH2 0x1D89 JUMP JUMPDEST PUSH1 0x20 PUSH1 0x40 MLOAD DUP1 DUP4 SUB DUP2 PUSH1 0x0 DUP8 GAS CALL ISZERO DUP1 ISZERO PUSH2 0xA28 JUMPI RETURNDATASIZE PUSH1 0x0 DUP1 RETURNDATACOPY RETURNDATASIZE PUSH1 0x0 REVERT JUMPDEST POP POP POP POP PUSH1 0x40 MLOAD RETURNDATASIZE PUSH1 0x1F NOT PUSH1 0x1F DUP3 ADD AND DUP3 ADD DUP1 PUSH1 0x40 MSTORE POP DUP2 ADD SWAP1 PUSH2 0xA4C SWAP2 SWAP1 PUSH2 0x1DF8 JUMP JUMPDEST PUSH2 0xA8B JUMPI PUSH1 0x40 MLOAD PUSH32 0x8C379A000000000000000000000000000000000000000000000000000000000 DUP2 MSTORE PUSH1 0x4 ADD PUSH2 0xA82 SWAP1 PUSH2 0x1F72 JUMP JUMPDEST PUSH1 0x40 MLOAD DUP1 SWAP2 SUB SWAP1 REVERT JUMPDEST PUSH1 0x0 DUP7 DUP7 DUP7 PUSH1 0x40 MLOAD PUSH1 0x24 ADD PUSH2 0xAA2 SWAP4 SWAP3 SWAP2 SWAP1 PUSH2 0x1F92 JUMP JUMPDEST PUSH1 0x40 MLOAD PUSH1 0x20 DUP2 DUP4 SUB SUB DUP2 MSTORE SWAP1 PUSH1 0x40 MSTORE PUSH32 0x46BA5FED00000000000000000000000000000000000000000000000000000000 PUSH28 0xFFFFFFFFFFFFFFFFFFFFFFFFFFFFFFFFFFFFFFFFFFFFFFFFFFFFFFFF NOT AND PUSH1 0x20 DUP3 ADD DUP1 MLOAD PUSH28 0xFFFFFFFFFFFFFFFFFFFFFFFFFFFFFFFFFFFFFFFFFFFFFFFFFFFFFFFF DUP4 DUP2 DUP4 AND OR DUP4 MSTORE POP POP POP POP SWAP1 POP PUSH1 0x0 DUP1 PUSH1 0x0 SWAP1 SLOAD SWAP1 PUSH2 0x100 EXP SWAP1 DIV PUSH20 0xFFFFFFFFFFFFFFFFFFFFFFFFFFFFFFFFFFFFFFFF AND PUSH20 0xFFFFFFFFFFFFFFFFFFFFFFFFFFFFFFFFFFFFFFFF AND PUSH4 0x168D560D ADDRESS PUSH1 0x0 PUSH3 0x200B20 PUSH2 0xFA00 DUP11 DUP9 PUSH1 0x40 MLOAD DUP8 PUSH4 0xFFFFFFFF AND PUSH1 0xE0 SHL DUP2 MSTORE PUSH1 0x4 ADD PUSH2 0xB8D SWAP7 SWAP6 SWAP5 SWAP4 SWAP3 SWAP2 SWAP1 PUSH2 0x1BAB JUMP JUMPDEST PUSH1 0x0 PUSH1 0x40 MLOAD DUP1 DUP4 SUB DUP2 PUSH1 0x0 DUP8 GAS CALL ISZERO DUP1 ISZERO PUSH2 0xBAC JUMPI RETURNDATASIZE PUSH1 0x0 DUP1 RETURNDATACOPY RETURNDATASIZE PUSH1 0x0 REVERT JUMPDEST POP POP POP POP PUSH1 0x40 MLOAD RETURNDATASIZE PUSH1 0x0 DUP3 RETURNDATACOPY RETURNDATASIZE PUSH1 0x1F NOT PUSH1 0x1F DUP3 ADD AND DUP3 ADD DUP1 PUSH1 0x40 MSTORE POP DUP2 ADD SWAP1 PUSH2 0xBD5 SWAP2 SWAP1 PUSH2 0x1CB9 JUMP JUMPDEST SWAP1 POP DUP8 PUSH20 0xFFFFFFFFFFFFFFFFFFFFFFFFFFFFFFFFFFFFFFFF AND DUP2 PUSH1 0x40 MLOAD PUSH2 0xBFC SWAP2 SWAP1 PUSH2 0x1D3E JUMP JUMPDEST PUSH1 0x40 MLOAD DUP1 SWAP2 SUB SWAP1 KECCAK256 PUSH32 0xC9C9AFE41DD5E3A9438DD88814EDCB9C8089A9E980F48B14414EDA3D6D3D0E9A DUP10 DUP10 DUP10 TIMESTAMP PUSH2 0xC33 SWAP2 SWAP1 PUSH2 0x1D55 JUMP JUMPDEST PUSH1 0x40 MLOAD PUSH2 0xC42 SWAP4 SWAP3 SWAP2 SWAP1 PUSH2 0x1FD7 JUMP JUMPDEST PUSH1 0x40 MLOAD DUP1 SWAP2 SUB SWAP1 LOG3 POP POP POP POP POP POP POP POP JUMP JUMPDEST PUSH1 0x0 DUP7 SWAP1 POP PUSH1 0x0 PUSH1 0x1 PUSH1 0x0 SWAP1 SLOAD SWAP1 PUSH2 0x100 EXP SWAP1 DIV PUSH20 0xFFFFFFFFFFFFFFFFFFFFFFFFFFFFFFFFFFFFFFFF AND PUSH20 0xFFFFFFFFFFFFFFFFFFFFFFFFFFFFFFFFFFFFFFFF AND PUSH4 0x41976E09 DUP4 PUSH1 0x40 MLOAD DUP3 PUSH4 0xFFFFFFFF AND PUSH1 0xE0 SHL DUP2 MSTORE PUSH1 0x4 ADD PUSH2 0xCB6 SWAP2 SWAP1 PUSH2 0x1829 JUMP JUMPDEST PUSH1 0x20 PUSH1 0x40 MLOAD DUP1 DUP4 SUB DUP2 DUP7 GAS STATICCALL ISZERO DUP1 ISZERO PUSH2 0xCD3 JUMPI RETURNDATASIZE PUSH1 0x0 DUP1 RETURNDATACOPY RETURNDATASIZE PUSH1 0x0 REVERT JUMPDEST POP POP POP POP PUSH1 0x40 MLOAD RETURNDATASIZE PUSH1 0x1F NOT PUSH1 0x1F DUP3 ADD AND DUP3 ADD DUP1 PUSH1 0x40 MSTORE POP DUP2 ADD SWAP1 PUSH2 0xCF7 SWAP2 SWAP1 PUSH2 0x1859 JUMP JUMPDEST SWAP1 POP DUP5 DUP2 SUB PUSH2 0xD11 JUMPI PUSH2 0xD0C DUP9 DUP9 DUP9 DUP7 PUSH2 0xD29 JUMP JUMPDEST PUSH2 0xD1F JUMP JUMPDEST PUSH2 0xD1E DUP9 DUP9 DUP9 DUP9 DUP9 PUSH2 0x3D5 JUMP JUMPDEST JUMPDEST POP POP POP POP POP POP POP POP JUMP JUMPDEST PUSH1 0x0 DUP5 SWAP1 POP DUP3 MLOAD DUP5 MLOAD EQ PUSH2 0xD72 JUMPI PUSH1 0x40 MLOAD PUSH32 0x8C379A000000000000000000000000000000000000000000000000000000000 DUP2 MSTORE PUSH1 0x4 ADD PUSH2 0xD69 SWAP1 PUSH2 0x208E JUMP JUMPDEST PUSH1 0x40 MLOAD DUP1 SWAP2 SUB SWAP1 REVERT JUMPDEST PUSH1 0x0 DUP1 JUMPDEST DUP5 MLOAD DUP2 LT ISZERO PUSH2 0xDBA JUMPI DUP5 DUP2 DUP2 MLOAD DUP2 LT PUSH2 0xD92 JUMPI PUSH2 0xD91 PUSH2 0x1774 JUMP JUMPDEST JUMPDEST PUSH1 0x20 MUL PUSH1 0x20 ADD ADD MLOAD DUP3 PUSH2 0xDA5 SWAP2 SWAP1 PUSH2 0x1D55 JUMP JUMPDEST SWAP2 POP DUP1 DUP1 PUSH2 0xDB2 SWAP1 PUSH2 0x17D2 JUMP JUMPDEST SWAP2 POP POP PUSH2 0xD76 JUMP JUMPDEST POP DUP2 PUSH20 0xFFFFFFFFFFFFFFFFFFFFFFFFFFFFFFFFFFFFFFFF AND PUSH4 0x23B872DD DUP5 ADDRESS DUP5 PUSH1 0x40 MLOAD DUP5 PUSH4 0xFFFFFFFF AND PUSH1 0xE0 SHL DUP2 MSTORE PUSH1 0x4 ADD PUSH2 0xDF8 SWAP4 SWAP3 SWAP2 SWAP1 PUSH2 0x1D89 JUMP JUMPDEST PUSH1 0x20 PUSH1 0x40 MLOAD DUP1 DUP4 SUB DUP2 PUSH1 0x0 DUP8 GAS CALL ISZERO DUP1 ISZERO PUSH2 0xE17 JUMPI RETURNDATASIZE PUSH1 0x0 DUP1 RETURNDATACOPY RETURNDATASIZE PUSH1 0x0 REVERT JUMPDEST POP POP POP POP PUSH1 0x40 MLOAD RETURNDATASIZE PUSH1 0x1F NOT PUSH1 0x1F DUP3 ADD AND DUP3 ADD DUP1 PUSH1 0x40 MSTORE POP DUP2 ADD SWAP1 PUSH2 0xE3B SWAP2 SWAP1 PUSH2 0x1DF8 JUMP JUMPDEST PUSH2 0xE7A JUMPI PUSH1 0x40 MLOAD PUSH32 0x8C379A000000000000000000000000000000000000000000000000000000000 DUP2 MSTORE PUSH1 0x4 ADD PUSH2 0xE71 SWAP1 PUSH2 0x1F06 JUMP JUMPDEST PUSH1 0x40 MLOAD DUP1 SWAP2 SUB SWAP1 REVERT JUMPDEST PUSH1 0x0 JUMPDEST DUP6 MLOAD DUP2 LT ISZERO PUSH2 0xF4C JUMPI DUP3 PUSH20 0xFFFFFFFFFFFFFFFFFFFFFFFFFFFFFFFFFFFFFFFF AND PUSH4 0xA9059CBB DUP8 DUP4 DUP2 MLOAD DUP2 LT PUSH2 0xEB5 JUMPI PUSH2 0xEB4 PUSH2 0x1774 JUMP JUMPDEST JUMPDEST PUSH1 0x20 MUL PUSH1 0x20 ADD ADD MLOAD DUP8 DUP5 DUP2 MLOAD DUP2 LT PUSH2 0xED0 JUMPI PUSH2 0xECF PUSH2 0x1774 JUMP JUMPDEST JUMPDEST PUSH1 0x20 MUL PUSH1 0x20 ADD ADD MLOAD PUSH1 0x40 MLOAD DUP4 PUSH4 0xFFFFFFFF AND PUSH1 0xE0 SHL DUP2 MSTORE PUSH1 0x4 ADD PUSH2 0xEF5 SWAP3 SWAP2 SWAP1 PUSH2 0x1E91 JUMP JUMPDEST PUSH1 0x20 PUSH1 0x40 MLOAD DUP1 DUP4 SUB DUP2 PUSH1 0x0 DUP8 GAS CALL ISZERO DUP1 ISZERO PUSH2 0xF14 JUMPI RETURNDATASIZE PUSH1 0x0 DUP1 RETURNDATACOPY RETURNDATASIZE PUSH1 0x0 REVERT JUMPDEST POP POP POP POP PUSH1 0x40 MLOAD RETURNDATASIZE PUSH1 0x1F NOT PUSH1 0x1F DUP3 ADD AND DUP3 ADD DUP1 PUSH1 0x40 MSTORE POP DUP2 ADD SWAP1 PUSH2 0xF38 SWAP2 SWAP1 PUSH2 0x1DF8 JUMP JUMPDEST POP DUP1 DUP1 PUSH2 0xF44 SWAP1 PUSH2 0x17D2 JUMP JUMPDEST SWAP2 POP POP PUSH2 0xE7D JUMP JUMPDEST POP POP POP POP POP POP POP JUMP JUMPDEST PUSH1 0x0 PUSH1 0x40 MLOAD SWAP1 POP SWAP1 JUMP JUMPDEST PUSH1 0x0 DUP1 REVERT JUMPDEST PUSH1 0x0 DUP1 REVERT JUMPDEST PUSH1 0x0 DUP1 REVERT JUMPDEST PUSH1 0x0 PUSH1 0x1F NOT PUSH1 0x1F DUP4 ADD AND SWAP1 POP SWAP2 SWAP1 POP JUMP JUMPDEST PUSH32 0x4E487B7100000000000000000000000000000000000000000000000000000000 PUSH1 0x0 MSTORE PUSH1 0x41 PUSH1 0x4 MSTORE PUSH1 0x24 PUSH1 0x0 REVERT JUMPDEST PUSH2 0xFB7 DUP3 PUSH2 0xF6E JUMP JUMPDEST DUP2 ADD DUP2 DUP2 LT PUSH8 0xFFFFFFFFFFFFFFFF DUP3 GT OR ISZERO PUSH2 0xFD6 JUMPI PUSH2 0xFD5 PUSH2 0xF7F JUMP JUMPDEST JUMPDEST DUP1 PUSH1 0x40 MSTORE POP POP POP JUMP JUMPDEST PUSH1 0x0 PUSH2 0xFE9 PUSH2 0xF55 JUMP JUMPDEST SWAP1 POP PUSH2 0xFF5 DUP3 DUP3 PUSH2 0xFAE JUMP JUMPDEST SWAP2 SWAP1 POP JUMP JUMPDEST PUSH1 0x0 PUSH8 0xFFFFFFFFFFFFFFFF DUP3 GT ISZERO PUSH2 0x1015 JUMPI PUSH2 0x1014 PUSH2 0xF7F JUMP JUMPDEST JUMPDEST PUSH1 0x20 DUP3 MUL SWAP1 POP PUSH1 0x20 DUP2 ADD SWAP1 POP SWAP2 SWAP1 POP JUMP JUMPDEST PUSH1 0x0 DUP1 REVERT JUMPDEST PUSH1 0x0 PUSH20 0xFFFFFFFFFFFFFFFFFFFFFFFFFFFFFFFFFFFFFFFF DUP3 AND SWAP1 POP SWAP2 SWAP1 POP JUMP JUMPDEST PUSH1 0x0 PUSH2 0x1056 DUP3 PUSH2 0x102B JUMP JUMPDEST SWAP1 POP SWAP2 SWAP1 POP JUMP JUMPDEST PUSH2 0x1066 DUP2 PUSH2 0x104B JUMP JUMPDEST DUP2 EQ PUSH2 0x1071 JUMPI PUSH1 0x0 DUP1 REVERT JUMPDEST POP JUMP JUMPDEST PUSH1 0x0 DUP2 CALLDATALOAD SWAP1 POP PUSH2 0x1083 DUP2 PUSH2 0x105D JUMP JUMPDEST SWAP3 SWAP2 POP POP JUMP JUMPDEST PUSH1 0x0 PUSH2 0x109C PUSH2 0x1097 DUP5 PUSH2 0xFFA JUMP JUMPDEST PUSH2 0xFDF JUMP JUMPDEST SWAP1 POP DUP1 DUP4 DUP3 MSTORE PUSH1 0x20 DUP3 ADD SWAP1 POP PUSH1 0x20 DUP5 MUL DUP4 ADD DUP6 DUP2 GT ISZERO PUSH2 0x10BF JUMPI PUSH2 0x10BE PUSH2 0x1026 JUMP JUMPDEST JUMPDEST DUP4 JUMPDEST DUP2 DUP2 LT ISZERO PUSH2 0x10E8 JUMPI DUP1 PUSH2 0x10D4 DUP9 DUP3 PUSH2 0x1074 JUMP JUMPDEST DUP5 MSTORE PUSH1 0x20 DUP5 ADD SWAP4 POP POP PUSH1 0x20 DUP2 ADD SWAP1 POP PUSH2 0x10C1 JUMP JUMPDEST POP POP POP SWAP4 SWAP3 POP POP POP JUMP JUMPDEST PUSH1 0x0 DUP3 PUSH1 0x1F DUP4 ADD SLT PUSH2 0x1107 JUMPI PUSH2 0x1106 PUSH2 0xF69 JUMP JUMPDEST JUMPDEST DUP2 CALLDATALOAD PUSH2 0x1117 DUP5 DUP3 PUSH1 0x20 DUP7 ADD PUSH2 0x1089 JUMP JUMPDEST SWAP2 POP POP SWAP3 SWAP2 POP POP JUMP JUMPDEST PUSH1 0x0 PUSH8 0xFFFFFFFFFFFFFFFF DUP3 GT ISZERO PUSH2 0x113B JUMPI PUSH2 0x113A PUSH2 0xF7F JUMP JUMPDEST JUMPDEST PUSH1 0x20 DUP3 MUL SWAP1 POP PUSH1 0x20 DUP2 ADD SWAP1 POP SWAP2 SWAP1 POP JUMP JUMPDEST PUSH1 0x0 DUP2 SWAP1 POP SWAP2 SWAP1 POP JUMP JUMPDEST PUSH2 0x115F DUP2 PUSH2 0x114C JUMP JUMPDEST DUP2 EQ PUSH2 0x116A JUMPI PUSH1 0x0 DUP1 REVERT JUMPDEST POP JUMP JUMPDEST PUSH1 0x0 DUP2 CALLDATALOAD SWAP1 POP PUSH2 0x117C DUP2 PUSH2 0x1156 JUMP JUMPDEST SWAP3 SWAP2 POP POP JUMP JUMPDEST PUSH1 0x0 PUSH2 0x1195 PUSH2 0x1190 DUP5 PUSH2 0x1120 JUMP JUMPDEST PUSH2 0xFDF JUMP JUMPDEST SWAP1 POP DUP1 DUP4 DUP3 MSTORE PUSH1 0x20 DUP3 ADD SWAP1 POP PUSH1 0x20 DUP5 MUL DUP4 ADD DUP6 DUP2 GT ISZERO PUSH2 0x11B8 JUMPI PUSH2 0x11B7 PUSH2 0x1026 JUMP JUMPDEST JUMPDEST DUP4 JUMPDEST DUP2 DUP2 LT ISZERO PUSH2 0x11E1 JUMPI DUP1 PUSH2 0x11CD DUP9 DUP3 PUSH2 0x116D JUMP JUMPDEST DUP5 MSTORE PUSH1 0x20 DUP5 ADD SWAP4 POP POP PUSH1 0x20 DUP2 ADD SWAP1 POP PUSH2 0x11BA JUMP JUMPDEST POP POP POP SWAP4 SWAP3 POP POP POP JUMP JUMPDEST PUSH1 0x0 DUP3 PUSH1 0x1F DUP4 ADD SLT PUSH2 0x1200 JUMPI PUSH2 0x11FF PUSH2 0xF69 JUMP JUMPDEST JUMPDEST DUP2 CALLDATALOAD PUSH2 0x1210 DUP5 DUP3 PUSH1 0x20 DUP7 ADD PUSH2 0x1182 JUMP JUMPDEST SWAP2 POP POP SWAP3 SWAP2 POP POP JUMP JUMPDEST PUSH1 0x0 DUP1 PUSH1 0x40 DUP4 DUP6 SUB SLT ISZERO PUSH2 0x1230 JUMPI PUSH2 0x122F PUSH2 0xF5F JUMP JUMPDEST JUMPDEST PUSH1 0x0 DUP4 ADD CALLDATALOAD PUSH8 0xFFFFFFFFFFFFFFFF DUP2 GT ISZERO PUSH2 0x124E JUMPI PUSH2 0x124D PUSH2 0xF64 JUMP JUMPDEST JUMPDEST PUSH2 0x125A DUP6 DUP3 DUP7 ADD PUSH2 0x10F2 JUMP JUMPDEST SWAP3 POP POP PUSH1 0x20 DUP4 ADD CALLDATALOAD PUSH8 0xFFFFFFFFFFFFFFFF DUP2 GT ISZERO PUSH2 0x127B JUMPI PUSH2 0x127A PUSH2 0xF64 JUMP JUMPDEST JUMPDEST PUSH2 0x1287 DUP6 DUP3 DUP7 ADD PUSH2 0x11EB JUMP JUMPDEST SWAP2 POP POP SWAP3 POP SWAP3 SWAP1 POP JUMP JUMPDEST PUSH1 0x0 PUSH2 0x129C DUP3 PUSH2 0x102B JUMP JUMPDEST SWAP1 POP SWAP2 SWAP1 POP JUMP JUMPDEST PUSH2 0x12AC DUP2 PUSH2 0x1291 JUMP JUMPDEST DUP2 EQ PUSH2 0x12B7 JUMPI PUSH1 0x0 DUP1 REVERT JUMPDEST POP JUMP JUMPDEST PUSH1 0x0 DUP2 CALLDATALOAD SWAP1 POP PUSH2 0x12C9 DUP2 PUSH2 0x12A3 JUMP JUMPDEST SWAP3 SWAP2 POP POP JUMP JUMPDEST PUSH1 0x0 PUSH1 0x20 DUP3 DUP5 SUB SLT ISZERO PUSH2 0x12E5 JUMPI PUSH2 0x12E4 PUSH2 0xF5F JUMP JUMPDEST JUMPDEST PUSH1 0x0 PUSH2 0x12F3 DUP5 DUP3 DUP6 ADD PUSH2 0x12BA JUMP JUMPDEST SWAP2 POP POP SWAP3 SWAP2 POP POP JUMP JUMPDEST PUSH2 0x1305 DUP2 PUSH2 0x114C JUMP JUMPDEST DUP3 MSTORE POP POP JUMP JUMPDEST PUSH1 0x0 PUSH1 0x20 DUP3 ADD SWAP1 POP PUSH2 0x1320 PUSH1 0x0 DUP4 ADD DUP5 PUSH2 0x12FC JUMP JUMPDEST SWAP3 SWAP2 POP POP JUMP JUMPDEST PUSH1 0x0 PUSH8 0xFFFFFFFFFFFFFFFF DUP3 GT ISZERO PUSH2 0x1341 JUMPI PUSH2 0x1340 PUSH2 0xF7F JUMP JUMPDEST JUMPDEST PUSH1 0x20 DUP3 MUL SWAP1 POP PUSH1 0x20 DUP2 ADD SWAP1 POP SWAP2 SWAP1 POP JUMP JUMPDEST PUSH1 0x0 PUSH2 0x1365 PUSH2 0x1360 DUP5 PUSH2 0x1326 JUMP JUMPDEST PUSH2 0xFDF JUMP JUMPDEST SWAP1 POP DUP1 DUP4 DUP3 MSTORE PUSH1 0x20 DUP3 ADD SWAP1 POP PUSH1 0x20 DUP5 MUL DUP4 ADD DUP6 DUP2 GT ISZERO PUSH2 0x1388 JUMPI PUSH2 0x1387 PUSH2 0x1026 JUMP JUMPDEST JUMPDEST DUP4 JUMPDEST DUP2 DUP2 LT ISZERO PUSH2 0x13B1 JUMPI DUP1 PUSH2 0x139D DUP9 DUP3 PUSH2 0x12BA JUMP JUMPDEST DUP5 MSTORE PUSH1 0x20 DUP5 ADD SWAP4 POP POP PUSH1 0x20 DUP2 ADD SWAP1 POP PUSH2 0x138A JUMP JUMPDEST POP POP POP SWAP4 SWAP3 POP POP POP JUMP JUMPDEST PUSH1 0x0 DUP3 PUSH1 0x1F DUP4 ADD SLT PUSH2 0x13D0 JUMPI PUSH2 0x13CF PUSH2 0xF69 JUMP JUMPDEST JUMPDEST DUP2 CALLDATALOAD PUSH2 0x13E0 DUP5 DUP3 PUSH1 0x20 DUP7 ADD PUSH2 0x1352 JUMP JUMPDEST SWAP2 POP POP SWAP3 SWAP2 POP POP JUMP JUMPDEST PUSH1 0x0 DUP1 PUSH1 0x0 DUP1 PUSH1 0x0 PUSH1 0xA0 DUP7 DUP9 SUB SLT ISZERO PUSH2 0x1405 JUMPI PUSH2 0x1404 PUSH2 0xF5F JUMP JUMPDEST JUMPDEST PUSH1 0x0 PUSH2 0x1413 DUP9 DUP3 DUP10 ADD PUSH2 0x12BA JUMP JUMPDEST SWAP6 POP POP PUSH1 0x20 DUP7 ADD CALLDATALOAD PUSH8 0xFFFFFFFFFFFFFFFF DUP2 GT ISZERO PUSH2 0x1434 JUMPI PUSH2 0x1433 PUSH2 0xF64 JUMP JUMPDEST JUMPDEST PUSH2 0x1440 DUP9 DUP3 DUP10 ADD PUSH2 0x13BB JUMP JUMPDEST SWAP5 POP POP PUSH1 0x40 DUP7 ADD CALLDATALOAD PUSH8 0xFFFFFFFFFFFFFFFF DUP2 GT ISZERO PUSH2 0x1461 JUMPI PUSH2 0x1460 PUSH2 0xF64 JUMP JUMPDEST JUMPDEST PUSH2 0x146D DUP9 DUP3 DUP10 ADD PUSH2 0x11EB JUMP JUMPDEST SWAP4 POP POP PUSH1 0x60 PUSH2 0x147E DUP9 DUP3 DUP10 ADD PUSH2 0x116D JUMP JUMPDEST SWAP3 POP POP PUSH1 0x80 PUSH2 0x148F DUP9 DUP3 DUP10 ADD PUSH2 0x116D JUMP JUMPDEST SWAP2 POP POP SWAP3 SWAP6 POP SWAP3 SWAP6 SWAP1 SWAP4 POP JUMP JUMPDEST PUSH1 0x0 DUP1 PUSH1 0x0 PUSH1 0x60 DUP5 DUP7 SUB SLT ISZERO PUSH2 0x14B5 JUMPI PUSH2 0x14B4 PUSH2 0xF5F JUMP JUMPDEST JUMPDEST PUSH1 0x0 PUSH2 0x14C3 DUP7 DUP3 DUP8 ADD PUSH2 0x12BA JUMP JUMPDEST SWAP4 POP POP PUSH1 0x20 DUP5 ADD CALLDATALOAD PUSH8 0xFFFFFFFFFFFFFFFF DUP2 GT ISZERO PUSH2 0x14E4 JUMPI PUSH2 0x14E3 PUSH2 0xF64 JUMP JUMPDEST JUMPDEST PUSH2 0x14F0 DUP7 DUP3 DUP8 ADD PUSH2 0x13BB JUMP JUMPDEST SWAP3 POP POP PUSH1 0x40 DUP5 ADD CALLDATALOAD PUSH8 0xFFFFFFFFFFFFFFFF DUP2 GT ISZERO PUSH2 0x1511 JUMPI PUSH2 0x1510 PUSH2 0xF64 JUMP JUMPDEST JUMPDEST PUSH2 0x151D DUP7 DUP3 DUP8 ADD PUSH2 0x11EB JUMP JUMPDEST SWAP2 POP POP SWAP3 POP SWAP3 POP SWAP3 JUMP JUMPDEST PUSH1 0x0 DUP1 PUSH1 0x0 DUP1 PUSH1 0x80 DUP6 DUP8 SUB SLT ISZERO PUSH2 0x1541 JUMPI PUSH2 0x1540 PUSH2 0xF5F JUMP JUMPDEST JUMPDEST PUSH1 0x0 PUSH2 0x154F DUP8 DUP3 DUP9 ADD PUSH2 0x12BA JUMP JUMPDEST SWAP5 POP POP PUSH1 0x20 DUP6 ADD CALLDATALOAD PUSH8 0xFFFFFFFFFFFFFFFF DUP2 GT ISZERO PUSH2 0x1570 JUMPI PUSH2 0x156F PUSH2 0xF64 JUMP JUMPDEST JUMPDEST PUSH2 0x157C DUP8 DUP3 DUP9 ADD PUSH2 0x13BB JUMP JUMPDEST SWAP4 POP POP PUSH1 0x40 DUP6 ADD CALLDATALOAD PUSH8 0xFFFFFFFFFFFFFFFF DUP2 GT ISZERO PUSH2 0x159D JUMPI PUSH2 0x159C PUSH2 0xF64 JUMP JUMPDEST JUMPDEST PUSH2 0x15A9 DUP8 DUP3 DUP9 ADD PUSH2 0x11EB JUMP JUMPDEST SWAP3 POP POP PUSH1 0x60 PUSH2 0x15BA DUP8 DUP3 DUP9 ADD PUSH2 0x116D JUMP JUMPDEST SWAP2 POP POP SWAP3 SWAP6 SWAP2 SWAP5 POP SWAP3 POP JUMP JUMPDEST PUSH1 0x0 DUP1 PUSH1 0x0 DUP1 PUSH1 0x0 DUP1 PUSH1 0xC0 DUP8 DUP10 SUB SLT ISZERO PUSH2 0x15E3 JUMPI PUSH2 0x15E2 PUSH2 0xF5F JUMP JUMPDEST JUMPDEST PUSH1 0x0 PUSH2 0x15F1 DUP10 DUP3 DUP11 ADD PUSH2 0x12BA JUMP JUMPDEST SWAP7 POP POP PUSH1 0x20 DUP8 ADD CALLDATALOAD PUSH8 0xFFFFFFFFFFFFFFFF DUP2 GT ISZERO PUSH2 0x1612 JUMPI PUSH2 0x1611 PUSH2 0xF64 JUMP JUMPDEST JUMPDEST PUSH2 0x161E DUP10 DUP3 DUP11 ADD PUSH2 0x13BB JUMP JUMPDEST SWAP6 POP POP PUSH1 0x40 DUP8 ADD CALLDATALOAD PUSH8 0xFFFFFFFFFFFFFFFF DUP2 GT ISZERO PUSH2 0x163F JUMPI PUSH2 0x163E PUSH2 0xF64 JUMP JUMPDEST JUMPDEST PUSH2 0x164B DUP10 DUP3 DUP11 ADD PUSH2 0x11EB JUMP JUMPDEST SWAP5 POP POP PUSH1 0x60 PUSH2 0x165C DUP10 DUP3 DUP11 ADD PUSH2 0x116D JUMP JUMPDEST SWAP4 POP POP PUSH1 0x80 PUSH2 0x166D DUP10 DUP3 DUP11 ADD PUSH2 0x116D JUMP JUMPDEST SWAP3 POP POP PUSH1 0xA0 PUSH2 0x167E DUP10 DUP3 DUP11 ADD PUSH2 0x12BA JUMP JUMPDEST SWAP2 POP POP SWAP3 SWAP6 POP SWAP3 SWAP6 POP SWAP3 SWAP6 JUMP JUMPDEST PUSH1 0x0 DUP3 DUP3 MSTORE PUSH1 0x20 DUP3 ADD SWAP1 POP SWAP3 SWAP2 POP POP JUMP JUMPDEST PUSH32 0x4769766520696E70757473206163636F7264696E676C79210000000000000000 PUSH1 0x0 DUP3 ADD MSTORE POP JUMP JUMPDEST PUSH1 0x0 PUSH2 0x16D2 PUSH1 0x18 DUP4 PUSH2 0x168B JUMP JUMPDEST SWAP2 POP PUSH2 0x16DD DUP3 PUSH2 0x169C JUMP JUMPDEST PUSH1 0x20 DUP3 ADD SWAP1 POP SWAP2 SWAP1 POP JUMP JUMPDEST PUSH1 0x0 PUSH1 0x20 DUP3 ADD SWAP1 POP DUP2 DUP2 SUB PUSH1 0x0 DUP4 ADD MSTORE PUSH2 0x1701 DUP2 PUSH2 0x16C5 JUMP JUMPDEST SWAP1 POP SWAP2 SWAP1 POP JUMP JUMPDEST PUSH32 0x596F75206E65656420746F2073656E6420736F6D652045544820706C65617365 PUSH1 0x0 DUP3 ADD MSTORE POP JUMP JUMPDEST PUSH1 0x0 PUSH2 0x173E PUSH1 0x20 DUP4 PUSH2 0x168B JUMP JUMPDEST SWAP2 POP PUSH2 0x1749 DUP3 PUSH2 0x1708 JUMP JUMPDEST PUSH1 0x20 DUP3 ADD SWAP1 POP SWAP2 SWAP1 POP JUMP JUMPDEST PUSH1 0x0 PUSH1 0x20 DUP3 ADD SWAP1 POP DUP2 DUP2 SUB PUSH1 0x0 DUP4 ADD MSTORE PUSH2 0x176D DUP2 PUSH2 0x1731 JUMP JUMPDEST SWAP1 POP SWAP2 SWAP1 POP JUMP JUMPDEST PUSH32 0x4E487B7100000000000000000000000000000000000000000000000000000000 PUSH1 0x0 MSTORE PUSH1 0x32 PUSH1 0x4 MSTORE PUSH1 0x24 PUSH1 0x0 REVERT JUMPDEST PUSH32 0x4E487B7100000000000000000000000000000000000000000000000000000000 PUSH1 0x0 MSTORE PUSH1 0x11 PUSH1 0x4 MSTORE PUSH1 0x24 PUSH1 0x0 REVERT JUMPDEST PUSH1 0x0 PUSH2 0x17DD DUP3 PUSH2 0x114C JUMP JUMPDEST SWAP2 POP PUSH32 0xFFFFFFFFFFFFFFFFFFFFFFFFFFFFFFFFFFFFFFFFFFFFFFFFFFFFFFFFFFFFFFFF DUP3 SUB PUSH2 0x180F JUMPI PUSH2 0x180E PUSH2 0x17A3 JUMP JUMPDEST JUMPDEST PUSH1 0x1 DUP3 ADD SWAP1 POP SWAP2 SWAP1 POP JUMP JUMPDEST PUSH2 0x1823 DUP2 PUSH2 0x1291 JUMP JUMPDEST DUP3 MSTORE POP POP JUMP JUMPDEST PUSH1 0x0 PUSH1 0x20 DUP3 ADD SWAP1 POP PUSH2 0x183E PUSH1 0x0 DUP4 ADD DUP5 PUSH2 0x181A JUMP JUMPDEST SWAP3 SWAP2 POP POP JUMP JUMPDEST PUSH1 0x0 DUP2 MLOAD SWAP1 POP PUSH2 0x1853 DUP2 PUSH2 0x1156 JUMP JUMPDEST SWAP3 SWAP2 POP POP JUMP JUMPDEST PUSH1 0x0 PUSH1 0x20 DUP3 DUP5 SUB SLT ISZERO PUSH2 0x186F JUMPI PUSH2 0x186E PUSH2 0xF5F JUMP JUMPDEST JUMPDEST PUSH1 0x0 PUSH2 0x187D DUP5 DUP3 DUP6 ADD PUSH2 0x1844 JUMP JUMPDEST SWAP2 POP POP SWAP3 SWAP2 POP POP JUMP JUMPDEST PUSH1 0x0 DUP2 MLOAD SWAP1 POP SWAP2 SWAP1 POP JUMP JUMPDEST PUSH1 0x0 DUP3 DUP3 MSTORE PUSH1 0x20 DUP3 ADD SWAP1 POP SWAP3 SWAP2 POP POP JUMP JUMPDEST PUSH1 0x0 DUP2 SWAP1 POP PUSH1 0x20 DUP3 ADD SWAP1 POP SWAP2 SWAP1 POP JUMP JUMPDEST PUSH2 0x18BB DUP2 PUSH2 0x1291 JUMP JUMPDEST DUP3 MSTORE POP POP JUMP JUMPDEST PUSH1 0x0 PUSH2 0x18CD DUP4 DUP4 PUSH2 0x18B2 JUMP JUMPDEST PUSH1 0x20 DUP4 ADD SWAP1 POP SWAP3 SWAP2 POP POP JUMP JUMPDEST PUSH1 0x0 PUSH1 0x20 DUP3 ADD SWAP1 POP SWAP2 SWAP1 POP JUMP JUMPDEST PUSH1 0x0 PUSH2 0x18F1 DUP3 PUSH2 0x1886 JUMP JUMPDEST PUSH2 0x18FB DUP2 DUP6 PUSH2 0x1891 JUMP JUMPDEST SWAP4 POP PUSH2 0x1906 DUP4 PUSH2 0x18A2 JUMP JUMPDEST DUP1 PUSH1 0x0 JUMPDEST DUP4 DUP2 LT ISZERO PUSH2 0x1937 JUMPI DUP2 MLOAD PUSH2 0x191E DUP9 DUP3 PUSH2 0x18C1 JUMP JUMPDEST SWAP8 POP PUSH2 0x1929 DUP4 PUSH2 0x18D9 JUMP JUMPDEST SWAP3 POP POP PUSH1 0x1 DUP2 ADD SWAP1 POP PUSH2 0x190A JUMP JUMPDEST POP DUP6 SWAP4 POP POP POP POP SWAP3 SWAP2 POP POP JUMP JUMPDEST PUSH1 0x0 DUP2 MLOAD SWAP1 POP SWAP2 SWAP1 POP JUMP JUMPDEST PUSH1 0x0 DUP3 DUP3 MSTORE PUSH1 0x20 DUP3 ADD SWAP1 POP SWAP3 SWAP2 POP POP JUMP JUMPDEST PUSH1 0x0 DUP2 SWAP1 POP PUSH1 0x20 DUP3 ADD SWAP1 POP SWAP2 SWAP1 POP JUMP JUMPDEST PUSH2 0x1979 DUP2 PUSH2 0x114C JUMP JUMPDEST DUP3 MSTORE POP POP JUMP JUMPDEST PUSH1 0x0 PUSH2 0x198B DUP4 DUP4 PUSH2 0x1970 JUMP JUMPDEST PUSH1 0x20 DUP4 ADD SWAP1 POP SWAP3 SWAP2 POP POP JUMP JUMPDEST PUSH1 0x0 PUSH1 0x20 DUP3 ADD SWAP1 POP SWAP2 SWAP1 POP JUMP JUMPDEST PUSH1 0x0 PUSH2 0x19AF DUP3 PUSH2 0x1944 JUMP JUMPDEST PUSH2 0x19B9 DUP2 DUP6 PUSH2 0x194F JUMP JUMPDEST SWAP4 POP PUSH2 0x19C4 DUP4 PUSH2 0x1960 JUMP JUMPDEST DUP1 PUSH1 0x0 JUMPDEST DUP4 DUP2 LT ISZERO PUSH2 0x19F5 JUMPI DUP2 MLOAD PUSH2 0x19DC DUP9 DUP3 PUSH2 0x197F JUMP JUMPDEST SWAP8 POP PUSH2 0x19E7 DUP4 PUSH2 0x1997 JUMP JUMPDEST SWAP3 POP POP PUSH1 0x1 DUP2 ADD SWAP1 POP PUSH2 0x19C8 JUMP JUMPDEST POP DUP6 SWAP4 POP POP POP POP SWAP3 SWAP2 POP POP JUMP JUMPDEST PUSH1 0x0 PUSH1 0xC0 DUP3 ADD SWAP1 POP PUSH2 0x1A17 PUSH1 0x0 DUP4 ADD DUP10 PUSH2 0x181A JUMP JUMPDEST DUP2 DUP2 SUB PUSH1 0x20 DUP4 ADD MSTORE PUSH2 0x1A29 DUP2 DUP9 PUSH2 0x18E6 JUMP JUMPDEST SWAP1 POP DUP2 DUP2 SUB PUSH1 0x40 DUP4 ADD MSTORE PUSH2 0x1A3D DUP2 DUP8 PUSH2 0x19A4 JUMP JUMPDEST SWAP1 POP PUSH2 0x1A4C PUSH1 0x60 DUP4 ADD DUP7 PUSH2 0x12FC JUMP JUMPDEST PUSH2 0x1A59 PUSH1 0x80 DUP4 ADD DUP6 PUSH2 0x12FC JUMP JUMPDEST PUSH2 0x1A66 PUSH1 0xA0 DUP4 ADD DUP5 PUSH2 0x181A JUMP JUMPDEST SWAP8 SWAP7 POP POP POP POP POP POP POP JUMP JUMPDEST PUSH1 0x0 DUP2 SWAP1 POP SWAP2 SWAP1 POP JUMP JUMPDEST PUSH1 0x0 DUP2 SWAP1 POP SWAP2 SWAP1 POP JUMP JUMPDEST PUSH1 0x0 PUSH2 0x1AA0 PUSH2 0x1A9B PUSH2 0x1A96 DUP5 PUSH2 0x1A71 JUMP JUMPDEST PUSH2 0x1A7B JUMP JUMPDEST PUSH2 0x114C JUMP JUMPDEST SWAP1 POP SWAP2 SWAP1 POP JUMP JUMPDEST PUSH2 0x1AB0 DUP2 PUSH2 0x1A85 JUMP JUMPDEST DUP3 MSTORE POP POP JUMP JUMPDEST PUSH1 0x0 DUP2 SWAP1 POP SWAP2 SWAP1 POP JUMP JUMPDEST PUSH1 0x0 PUSH2 0x1ADB PUSH2 0x1AD6 PUSH2 0x1AD1 DUP5 PUSH2 0x1AB6 JUMP JUMPDEST PUSH2 0x1A7B JUMP JUMPDEST PUSH2 0x114C JUMP JUMPDEST SWAP1 POP SWAP2 SWAP1 POP JUMP JUMPDEST PUSH2 0x1AEB DUP2 PUSH2 0x1AC0 JUMP JUMPDEST DUP3 MSTORE POP POP JUMP JUMPDEST PUSH1 0x0 DUP2 SWAP1 POP SWAP2 SWAP1 POP JUMP JUMPDEST PUSH1 0x0 PUSH2 0x1B16 PUSH2 0x1B11 PUSH2 0x1B0C DUP5 PUSH2 0x1AF1 JUMP JUMPDEST PUSH2 0x1A7B JUMP JUMPDEST PUSH2 0x114C JUMP JUMPDEST SWAP1 POP SWAP2 SWAP1 POP JUMP JUMPDEST PUSH2 0x1B26 DUP2 PUSH2 0x1AFB JUMP JUMPDEST DUP3 MSTORE POP POP JUMP JUMPDEST PUSH1 0x0 DUP2 MLOAD SWAP1 POP SWAP2 SWAP1 POP JUMP JUMPDEST PUSH1 0x0 DUP3 DUP3 MSTORE PUSH1 0x20 DUP3 ADD SWAP1 POP SWAP3 SWAP2 POP POP JUMP JUMPDEST PUSH1 0x0 JUMPDEST DUP4 DUP2 LT ISZERO PUSH2 0x1B66 JUMPI DUP1 DUP3 ADD MLOAD DUP2 DUP5 ADD MSTORE PUSH1 0x20 DUP2 ADD SWAP1 POP PUSH2 0x1B4B JUMP JUMPDEST PUSH1 0x0 DUP5 DUP5 ADD MSTORE POP POP POP POP JUMP JUMPDEST PUSH1 0x0 PUSH2 0x1B7D DUP3 PUSH2 0x1B2C JUMP JUMPDEST PUSH2 0x1B87 DUP2 DUP6 PUSH2 0x1B37 JUMP JUMPDEST SWAP4 POP PUSH2 0x1B97 DUP2 DUP6 PUSH1 0x20 DUP7 ADD PUSH2 0x1B48 JUMP JUMPDEST PUSH2 0x1BA0 DUP2 PUSH2 0xF6E JUMP JUMPDEST DUP5 ADD SWAP2 POP POP SWAP3 SWAP2 POP POP JUMP JUMPDEST PUSH1 0x0 PUSH1 0xC0 DUP3 ADD SWAP1 POP PUSH2 0x1BC0 PUSH1 0x0 DUP4 ADD DUP10 PUSH2 0x181A JUMP JUMPDEST PUSH2 0x1BCD PUSH1 0x20 DUP4 ADD DUP9 PUSH2 0x1AA7 JUMP JUMPDEST PUSH2 0x1BDA PUSH1 0x40 DUP4 ADD DUP8 PUSH2 0x1AE2 JUMP JUMPDEST PUSH2 0x1BE7 PUSH1 0x60 DUP4 ADD DUP7 PUSH2 0x1B1D JUMP JUMPDEST PUSH2 0x1BF4 PUSH1 0x80 DUP4 ADD DUP6 PUSH2 0x12FC JUMP JUMPDEST DUP2 DUP2 SUB PUSH1 0xA0 DUP4 ADD MSTORE PUSH2 0x1C06 DUP2 DUP5 PUSH2 0x1B72 JUMP JUMPDEST SWAP1 POP SWAP8 SWAP7 POP POP POP POP POP POP POP JUMP JUMPDEST PUSH1 0x0 DUP1 REVERT JUMPDEST PUSH1 0x0 PUSH8 0xFFFFFFFFFFFFFFFF DUP3 GT ISZERO PUSH2 0x1C33 JUMPI PUSH2 0x1C32 PUSH2 0xF7F JUMP JUMPDEST JUMPDEST PUSH2 0x1C3C DUP3 PUSH2 0xF6E JUMP JUMPDEST SWAP1 POP PUSH1 0x20 DUP2 ADD SWAP1 POP SWAP2 SWAP1 POP JUMP JUMPDEST PUSH1 0x0 PUSH2 0x1C5C PUSH2 0x1C57 DUP5 PUSH2 0x1C18 JUMP JUMPDEST PUSH2 0xFDF JUMP JUMPDEST SWAP1 POP DUP3 DUP2 MSTORE PUSH1 0x20 DUP2 ADD DUP5 DUP5 DUP5 ADD GT ISZERO PUSH2 0x1C78 JUMPI PUSH2 0x1C77 PUSH2 0x1C13 JUMP JUMPDEST JUMPDEST PUSH2 0x1C83 DUP5 DUP3 DUP6 PUSH2 0x1B48 JUMP JUMPDEST POP SWAP4 SWAP3 POP POP POP JUMP JUMPDEST PUSH1 0x0 DUP3 PUSH1 0x1F DUP4 ADD SLT PUSH2 0x1CA0 JUMPI PUSH2 0x1C9F PUSH2 0xF69 JUMP JUMPDEST JUMPDEST DUP2 MLOAD PUSH2 0x1CB0 DUP5 DUP3 PUSH1 0x20 DUP7 ADD PUSH2 0x1C49 JUMP JUMPDEST SWAP2 POP POP SWAP3 SWAP2 POP POP JUMP JUMPDEST PUSH1 0x0 PUSH1 0x20 DUP3 DUP5 SUB SLT ISZERO PUSH2 0x1CCF JUMPI PUSH2 0x1CCE PUSH2 0xF5F JUMP JUMPDEST JUMPDEST PUSH1 0x0 DUP3 ADD MLOAD PUSH8 0xFFFFFFFFFFFFFFFF DUP2 GT ISZERO PUSH2 0x1CED JUMPI PUSH2 0x1CEC PUSH2 0xF64 JUMP JUMPDEST JUMPDEST PUSH2 0x1CF9 DUP5 DUP3 DUP6 ADD PUSH2 0x1C8B JUMP JUMPDEST SWAP2 POP POP SWAP3 SWAP2 POP POP JUMP JUMPDEST PUSH1 0x0 DUP2 SWAP1 POP SWAP3 SWAP2 POP POP JUMP JUMPDEST PUSH1 0x0 PUSH2 0x1D18 DUP3 PUSH2 0x1B2C JUMP JUMPDEST PUSH2 0x1D22 DUP2 DUP6 PUSH2 0x1D02 JUMP JUMPDEST SWAP4 POP PUSH2 0x1D32 DUP2 DUP6 PUSH1 0x20 DUP7 ADD PUSH2 0x1B48 JUMP JUMPDEST DUP1 DUP5 ADD SWAP2 POP POP SWAP3 SWAP2 POP POP JUMP JUMPDEST PUSH1 0x0 PUSH2 0x1D4A DUP3 DUP5 PUSH2 0x1D0D JUMP JUMPDEST SWAP2 POP DUP2 SWAP1 POP SWAP3 SWAP2 POP POP JUMP JUMPDEST PUSH1 0x0 PUSH2 0x1D60 DUP3 PUSH2 0x114C JUMP JUMPDEST SWAP2 POP PUSH2 0x1D6B DUP4 PUSH2 0x114C JUMP JUMPDEST SWAP3 POP DUP3 DUP3 ADD SWAP1 POP DUP1 DUP3 GT ISZERO PUSH2 0x1D83 JUMPI PUSH2 0x1D82 PUSH2 0x17A3 JUMP JUMPDEST JUMPDEST SWAP3 SWAP2 POP POP JUMP JUMPDEST PUSH1 0x0 PUSH1 0x60 DUP3 ADD SWAP1 POP PUSH2 0x1D9E PUSH1 0x0 DUP4 ADD DUP7 PUSH2 0x181A JUMP JUMPDEST PUSH2 0x1DAB PUSH1 0x20 DUP4 ADD DUP6 PUSH2 0x181A JUMP JUMPDEST PUSH2 0x1DB8 PUSH1 0x40 DUP4 ADD DUP5 PUSH2 0x12FC JUMP JUMPDEST SWAP5 SWAP4 POP POP POP POP JUMP JUMPDEST PUSH1 0x0 DUP2 ISZERO ISZERO SWAP1 POP SWAP2 SWAP1 POP JUMP JUMPDEST PUSH2 0x1DD5 DUP2 PUSH2 0x1DC0 JUMP JUMPDEST DUP2 EQ PUSH2 0x1DE0 JUMPI PUSH1 0x0 DUP1 REVERT JUMPDEST POP JUMP JUMPDEST PUSH1 0x0 DUP2 MLOAD SWAP1 POP PUSH2 0x1DF2 DUP2 PUSH2 0x1DCC JUMP JUMPDEST SWAP3 SWAP2 POP POP JUMP JUMPDEST PUSH1 0x0 PUSH1 0x20 DUP3 DUP5 SUB SLT ISZERO PUSH2 0x1E0E JUMPI PUSH2 0x1E0D PUSH2 0xF5F JUMP JUMPDEST JUMPDEST PUSH1 0x0 PUSH2 0x1E1C DUP5 DUP3 DUP6 ADD PUSH2 0x1DE3 JUMP JUMPDEST SWAP2 POP POP SWAP3 SWAP2 POP POP JUMP JUMPDEST PUSH32 0x546F6B656E207472616E7366657246726F6D206661696C656421200000000000 PUSH1 0x0 DUP3 ADD MSTORE POP JUMP JUMPDEST PUSH1 0x0 PUSH2 0x1E5B PUSH1 0x1B DUP4 PUSH2 0x168B JUMP JUMPDEST SWAP2 POP PUSH2 0x1E66 DUP3 PUSH2 0x1E25 JUMP JUMPDEST PUSH1 0x20 DUP3 ADD SWAP1 POP SWAP2 SWAP1 POP JUMP JUMPDEST PUSH1 0x0 PUSH1 0x20 DUP3 ADD SWAP1 POP DUP2 DUP2 SUB PUSH1 0x0 DUP4 ADD MSTORE PUSH2 0x1E8A DUP2 PUSH2 0x1E4E JUMP JUMPDEST SWAP1 POP SWAP2 SWAP1 POP JUMP JUMPDEST PUSH1 0x0 PUSH1 0x40 DUP3 ADD SWAP1 POP PUSH2 0x1EA6 PUSH1 0x0 DUP4 ADD DUP6 PUSH2 0x181A JUMP JUMPDEST PUSH2 0x1EB3 PUSH1 0x20 DUP4 ADD DUP5 PUSH2 0x12FC JUMP JUMPDEST SWAP4 SWAP3 POP POP POP JUMP JUMPDEST PUSH32 0x546F6B656E207472616E73666572206661696C65640000000000000000000000 PUSH1 0x0 DUP3 ADD MSTORE POP JUMP JUMPDEST PUSH1 0x0 PUSH2 0x1EF0 PUSH1 0x15 DUP4 PUSH2 0x168B JUMP JUMPDEST SWAP2 POP PUSH2 0x1EFB DUP3 PUSH2 0x1EBA JUMP JUMPDEST PUSH1 0x20 DUP3 ADD SWAP1 POP SWAP2 SWAP1 POP JUMP JUMPDEST PUSH1 0x0 PUSH1 0x20 DUP3 ADD SWAP1 POP DUP2 DUP2 SUB PUSH1 0x0 DUP4 ADD MSTORE PUSH2 0x1F1F DUP2 PUSH2 0x1EE3 JUMP JUMPDEST SWAP1 POP SWAP2 SWAP1 POP JUMP JUMPDEST PUSH32 0x546F6B656E207472616E73666572206661696C65642100000000000000000000 PUSH1 0x0 DUP3 ADD MSTORE POP JUMP JUMPDEST PUSH1 0x0 PUSH2 0x1F5C PUSH1 0x16 DUP4 PUSH2 0x168B JUMP JUMPDEST SWAP2 POP PUSH2 0x1F67 DUP3 PUSH2 0x1F26 JUMP JUMPDEST PUSH1 0x20 DUP3 ADD SWAP1 POP SWAP2 SWAP1 POP JUMP JUMPDEST PUSH1 0x0 PUSH1 0x20 DUP3 ADD SWAP1 POP DUP2 DUP2 SUB PUSH1 0x0 DUP4 ADD MSTORE PUSH2 0x1F8B DUP2 PUSH2 0x1F4F JUMP JUMPDEST SWAP1 POP SWAP2 SWAP1 POP JUMP JUMPDEST PUSH1 0x0 PUSH1 0x60 DUP3 ADD SWAP1 POP PUSH2 0x1FA7 PUSH1 0x0 DUP4 ADD DUP7 PUSH2 0x181A JUMP JUMPDEST DUP2 DUP2 SUB PUSH1 0x20 DUP4 ADD MSTORE PUSH2 0x1FB9 DUP2 DUP6 PUSH2 0x18E6 JUMP JUMPDEST SWAP1 POP DUP2 DUP2 SUB PUSH1 0x40 DUP4 ADD MSTORE PUSH2 0x1FCD DUP2 DUP5 PUSH2 0x19A4 JUMP JUMPDEST SWAP1 POP SWAP5 SWAP4 POP POP POP POP JUMP JUMPDEST PUSH1 0x0 PUSH1 0x60 DUP3 ADD SWAP1 POP DUP2 DUP2 SUB PUSH1 0x0 DUP4 ADD MSTORE PUSH2 0x1FF1 DUP2 DUP7 PUSH2 0x18E6 JUMP JUMPDEST SWAP1 POP DUP2 DUP2 SUB PUSH1 0x20 DUP4 ADD MSTORE PUSH2 0x2005 DUP2 DUP6 PUSH2 0x19A4 JUMP JUMPDEST SWAP1 POP PUSH2 0x2014 PUSH1 0x40 DUP4 ADD DUP5 PUSH2 0x12FC JUMP JUMPDEST SWAP5 SWAP4 POP POP POP POP JUMP JUMPDEST PUSH32 0x4D69736D61746368656420726563697069656E747320616E6420616D6F756E74 PUSH1 0x0 DUP3 ADD MSTORE PUSH32 0x7300000000000000000000000000000000000000000000000000000000000000 PUSH1 0x20 DUP3 ADD MSTORE POP JUMP JUMPDEST PUSH1 0x0 PUSH2 0x2078 PUSH1 0x21 DUP4 PUSH2 0x168B JUMP JUMPDEST SWAP2 POP PUSH2 0x2083 DUP3 PUSH2 0x201C JUMP JUMPDEST PUSH1 0x40 DUP3 ADD SWAP1 POP SWAP2 SWAP1 POP JUMP JUMPDEST PUSH1 0x0 PUSH1 0x20 DUP3 ADD SWAP1 POP DUP2 DUP2 SUB PUSH1 0x0 DUP4 ADD MSTORE PUSH2 0x20A7 DUP2 PUSH2 0x206B JUMP JUMPDEST SWAP1 POP SWAP2 SWAP1 POP JUMP INVALID LOG2 PUSH5 0x6970667358 0x22 SLT KECCAK256 DUP16 STOP DUP9 0x27 DUP11 0x4F 0xCD PUSH11 0x3094068D1F010E79FEB8DD 0x5E 0xD4 0xA5 MSTORE8 SAR DUP11 0xC2 SAR PUSH28 0x249C1CFC64736F6C6343000812003300000000000000000000000000 "
	},
	"abi": [
		{
			"inputs": [],
			"stateMutability": "payable",
			"type": "constructor"
		},
		{
			"anonymous": false,
			"inputs": [
				{
					"indexed": true,
					"internalType": "uint256",
					"name": "recipientIndex",
					"type": "uint256"
				},
				{
					"indexed": true,
					"internalType": "address",
					"name": "recipient",
					"type": "address"
				},
				{
					"indexed": false,
					"internalType": "uint256",
					"name": "amount",
					"type": "uint256"
				}
			],
			"name": "ETHbatchTransfer",
			"type": "event"
		},
		{
			"anonymous": false,
			"inputs": [
				{
					"indexed": true,
					"internalType": "uint256",
					"name": "recipientIndex",
					"type": "uint256"
				},
				{
					"indexed": true,
					"internalType": "address",
					"name": "recipient",
					"type": "address"
				},
				{
					"indexed": false,
					"internalType": "uint256",
					"name": "amount",
					"type": "uint256"
				}
			],
			"name": "Erc20BatchTransfer",
			"type": "event"
		},
		{
			"anonymous": false,
			"inputs": [
				{
					"indexed": true,
					"internalType": "bytes",
					"name": "scheduleId",
					"type": "bytes"
				},
				{
					"indexed": false,
					"internalType": "uint256",
					"name": "nextCheckTime",
					"type": "uint256"
				}
			],
			"name": "PriceCheckScheduled",
			"type": "event"
		},
		{
			"anonymous": false,
			"inputs": [
				{
					"indexed": true,
					"internalType": "bytes",
					"name": "scheduleId",
					"type": "bytes"
				},
				{
					"indexed": true,
					"internalType": "address",
					"name": "token",
					"type": "address"
				},
				{
					"indexed": false,
					"internalType": "address[]",
					"name": "recipients",
					"type": "address[]"
				},
				{
					"indexed": false,
					"internalType": "uint256[]",
					"name": "amounts",
					"type": "uint256[]"
				},
				{
					"indexed": false,
					"internalType": "uint256",
					"name": "executionTime",
					"type": "uint256"
				}
			],
			"name": "TransferScheduled",
			"type": "event"
		},
		{
			"stateMutability": "payable",
			"type": "fallback"
		},
		{
			"inputs": [
				{
					"internalType": "address",
					"name": "tokenAddress",
					"type": "address"
				},
				{
					"internalType": "address[]",
					"name": "recipients",
					"type": "address[]"
				},
				{
					"internalType": "uint256[]",
					"name": "amounts",
					"type": "uint256[]"
				},
				{
					"internalType": "uint256",
					"name": "desiredPrice",
					"type": "uint256"
				},
				{
					"internalType": "uint256",
					"name": "interval",
					"type": "uint256"
				},
				{
					"internalType": "address",
					"name": "spender",
					"type": "address"
				}
			],
			"name": "checkPriceAndTransfer",
			"outputs": [],
			"stateMutability": "payable",
			"type": "function"
		},
		{
			"inputs": [
				{
					"internalType": "address",
					"name": "token",
					"type": "address"
				}
			],
			"name": "getPrice",
			"outputs": [
				{
					"internalType": "uint256",
					"name": "",
					"type": "uint256"
				}
			],
			"stateMutability": "view",
			"type": "function"
		},
		{
			"inputs": [
				{
					"internalType": "address",
					"name": "tokenAddress",
					"type": "address"
				},
				{
					"internalType": "address[]",
					"name": "recipients",
					"type": "address[]"
				},
				{
					"internalType": "uint256[]",
					"name": "amounts",
					"type": "uint256[]"
				},
				{
					"internalType": "uint256",
					"name": "desiredPrice",
					"type": "uint256"
				},
				{
					"internalType": "uint256",
					"name": "interval",
					"type": "uint256"
				}
			],
			"name": "scheduleConditionalBatchTransfer",
			"outputs": [],
			"stateMutability": "payable",
			"type": "function"
		},
		{
			"inputs": [
				{
					"internalType": "address",
					"name": "tokenAddress",
					"type": "address"
				},
				{
					"internalType": "address[]",
					"name": "recipients",
					"type": "address[]"
				},
				{
					"internalType": "uint256[]",
					"name": "amounts",
					"type": "uint256[]"
				},
				{
					"internalType": "uint256",
					"name": "delay",
					"type": "uint256"
				}
			],
			"name": "scheduleERC20BatchTransfer",
			"outputs": [],
			"stateMutability": "payable",
			"type": "function"
		},
		{
			"inputs": [
				{
					"internalType": "address",
					"name": "tokenAddress",
					"type": "address"
				},
				{
					"internalType": "address[]",
					"name": "recipients",
					"type": "address[]"
				},
				{
					"internalType": "uint256[]",
					"name": "amount",
					"type": "uint256[]"
				}
			],
			"name": "simpleERC20BatchTransfer",
			"outputs": [],
			"stateMutability": "payable",
			"type": "function"
		},
		{
			"inputs": [
				{
					"internalType": "address payable[]",
					"name": "recipients",
					"type": "address[]"
				},
				{
					"internalType": "uint256[]",
					"name": "amount",
					"type": "uint256[]"
				}
			],
			"name": "simpleETHBatchTransfer",
			"outputs": [],
			"stateMutability": "payable",
			"type": "function"
		},
		{
			"stateMutability": "payable",
			"type": "receive"
		}
	],
	"storageLayout": {
		"storage": [
			{
				"astId": 263,
				"contract": "DisDrop.sol:DisDrop",
				"label": "scheduler",
				"offset": 0,
				"slot": "0",
				"type": "t_contract(ISchedule)74"
			},
			{
				"astId": 269,
				"contract": "DisDrop.sol:DisDrop",
				"label": "oracle",
				"offset": 0,
				"slot": "1",
				"type": "t_contract(IOracle)11"
			}
		],
		"types": {
			"t_contract(IOracle)11": {
				"encoding": "inplace",
				"label": "contract IOracle",
				"numberOfBytes": "20"
			},
			"t_contract(ISchedule)74": {
				"encoding": "inplace",
				"label": "contract ISchedule",
				"numberOfBytes": "20"
			}
		}
	},
	"web3Deploy": "var disdropContract = new web3.eth.Contract([{\"inputs\":[],\"stateMutability\":\"payable\",\"type\":\"constructor\"},{\"anonymous\":false,\"inputs\":[{\"indexed\":true,\"internalType\":\"uint256\",\"name\":\"recipientIndex\",\"type\":\"uint256\"},{\"indexed\":true,\"internalType\":\"address\",\"name\":\"recipient\",\"type\":\"address\"},{\"indexed\":false,\"internalType\":\"uint256\",\"name\":\"amount\",\"type\":\"uint256\"}],\"name\":\"ETHbatchTransfer\",\"type\":\"event\"},{\"anonymous\":false,\"inputs\":[{\"indexed\":true,\"internalType\":\"uint256\",\"name\":\"recipientIndex\",\"type\":\"uint256\"},{\"indexed\":true,\"internalType\":\"address\",\"name\":\"recipient\",\"type\":\"address\"},{\"indexed\":false,\"internalType\":\"uint256\",\"name\":\"amount\",\"type\":\"uint256\"}],\"name\":\"Erc20BatchTransfer\",\"type\":\"event\"},{\"anonymous\":false,\"inputs\":[{\"indexed\":true,\"internalType\":\"bytes\",\"name\":\"scheduleId\",\"type\":\"bytes\"},{\"indexed\":false,\"internalType\":\"uint256\",\"name\":\"nextCheckTime\",\"type\":\"uint256\"}],\"name\":\"PriceCheckScheduled\",\"type\":\"event\"},{\"anonymous\":false,\"inputs\":[{\"indexed\":true,\"internalType\":\"bytes\",\"name\":\"scheduleId\",\"type\":\"bytes\"},{\"indexed\":true,\"internalType\":\"address\",\"name\":\"token\",\"type\":\"address\"},{\"indexed\":false,\"internalType\":\"address[]\",\"name\":\"recipients\",\"type\":\"address[]\"},{\"indexed\":false,\"internalType\":\"uint256[]\",\"name\":\"amounts\",\"type\":\"uint256[]\"},{\"indexed\":false,\"internalType\":\"uint256\",\"name\":\"executionTime\",\"type\":\"uint256\"}],\"name\":\"TransferScheduled\",\"type\":\"event\"},{\"stateMutability\":\"payable\",\"type\":\"fallback\"},{\"inputs\":[{\"internalType\":\"address\",\"name\":\"tokenAddress\",\"type\":\"address\"},{\"internalType\":\"address[]\",\"name\":\"recipients\",\"type\":\"address[]\"},{\"internalType\":\"uint256[]\",\"name\":\"amounts\",\"type\":\"uint256[]\"},{\"internalType\":\"uint256\",\"name\":\"desiredPrice\",\"type\":\"uint256\"},{\"internalType\":\"uint256\",\"name\":\"interval\",\"type\":\"uint256\"},{\"internalType\":\"address\",\"name\":\"spender\",\"type\":\"address\"}],\"name\":\"checkPriceAndTransfer\",\"outputs\":[],\"stateMutability\":\"payable\",\"type\":\"function\"},{\"inputs\":[{\"internalType\":\"address\",\"name\":\"token\",\"type\":\"address\"}],\"name\":\"getPrice\",\"outputs\":[{\"internalType\":\"uint256\",\"name\":\"\",\"type\":\"uint256\"}],\"stateMutability\":\"view\",\"type\":\"function\"},{\"inputs\":[{\"internalType\":\"address\",\"name\":\"tokenAddress\",\"type\":\"address\"},{\"internalType\":\"address[]\",\"name\":\"recipients\",\"type\":\"address[]\"},{\"internalType\":\"uint256[]\",\"name\":\"amounts\",\"type\":\"uint256[]\"},{\"internalType\":\"uint256\",\"name\":\"desiredPrice\",\"type\":\"uint256\"},{\"internalType\":\"uint256\",\"name\":\"interval\",\"type\":\"uint256\"}],\"name\":\"scheduleConditionalBatchTransfer\",\"outputs\":[],\"stateMutability\":\"payable\",\"type\":\"function\"},{\"inputs\":[{\"internalType\":\"address\",\"name\":\"tokenAddress\",\"type\":\"address\"},{\"internalType\":\"address[]\",\"name\":\"recipients\",\"type\":\"address[]\"},{\"internalType\":\"uint256[]\",\"name\":\"amounts\",\"type\":\"uint256[]\"},{\"internalType\":\"uint256\",\"name\":\"delay\",\"type\":\"uint256\"}],\"name\":\"scheduleERC20BatchTransfer\",\"outputs\":[],\"stateMutability\":\"payable\",\"type\":\"function\"},{\"inputs\":[{\"internalType\":\"address\",\"name\":\"tokenAddress\",\"type\":\"address\"},{\"internalType\":\"address[]\",\"name\":\"recipients\",\"type\":\"address[]\"},{\"internalType\":\"uint256[]\",\"name\":\"amount\",\"type\":\"uint256[]\"}],\"name\":\"simpleERC20BatchTransfer\",\"outputs\":[],\"stateMutability\":\"payable\",\"type\":\"function\"},{\"inputs\":[{\"internalType\":\"address payable[]\",\"name\":\"recipients\",\"type\":\"address[]\"},{\"internalType\":\"uint256[]\",\"name\":\"amount\",\"type\":\"uint256[]\"}],\"name\":\"simpleETHBatchTransfer\",\"outputs\":[],\"stateMutability\":\"payable\",\"type\":\"function\"},{\"stateMutability\":\"payable\",\"type\":\"receive\"}]);\nvar disdrop = disdropContract.deploy({\n     data: '0x60806040526108026000806101000a81548173ffffffffffffffffffffffffffffffffffffffff021916908373ffffffffffffffffffffffffffffffffffffffff160217905550610801600160006101000a81548173ffffffffffffffffffffffffffffffffffffffff021916908373ffffffffffffffffffffffffffffffffffffffff1602179055506120e4806100986000396000f3fe6080604052600436106100595760003560e01c8063167d63261461006257806341976e091461007e5780638a10d8e2146100bb5780639805bb85146100d7578063d9a79aec146100f3578063eea705831461010f57610060565b3661006057005b005b61007c60048036038101906100779190611219565b61012b565b005b34801561008a57600080fd5b506100a560048036038101906100a091906112cf565b61032b565b6040516100b2919061130b565b60405180910390f35b6100d560048036038101906100d091906113e9565b6103d5565b005b6100f160048036038101906100ec919061149c565b61064e565b005b61010d60048036038101906101089190611527565b61093a565b005b610129600480360381019061012491906115c6565b610c54565b005b805182511461016f576040517f08c379a0000000000000000000000000000000000000000000000000000000008152600401610166906116e8565b60405180910390fd5b600034116101b2576040517f08c379a00000000000000000000000000000000000000000000000000000000081526004016101a990611754565b60405180910390fd5b60005b82518110156102cf578281815181106101d1576101d0611774565b5b602002602001015173ffffffffffffffffffffffffffffffffffffffff166108fc83838151811061020557610204611774565b5b60200260200101519081150290604051600060405180830381858888f19350505050158015610238573d6000803e3d6000fd5b5082818151811061024c5761024b611774565b5b602002602001015173ffffffffffffffffffffffffffffffffffffffff16817f6ac089feed810bffd2334c5a1c6c8f0f3509a73716a2c54433b8a51967eeb50b84848151811061029f5761029e611774565b5b60200260200101516040516102b4919061130b565b60405180910390a380806102c7906117d2565b9150506101b5565b5060004790506000811115610326573373ffffffffffffffffffffffffffffffffffffffff166108fc829081150290604051600060405180830381858888f19350505050158015610324573d6000803e3d6000fd5b505b505050565b600080600160009054906101000a900473ffffffffffffffffffffffffffffffffffffffff1673ffffffffffffffffffffffffffffffffffffffff166341976e09846040518263ffffffff1660e01b81526004016103899190611829565b602060405180830381865afa1580156103a6573d6000803e3d6000fd5b505050506040513d601f19601f820116820180604052508101906103ca9190611859565b905080915050919050565b600085905060003390506000600160009054906101000a900473ffffffffffffffffffffffffffffffffffffffff1673ffffffffffffffffffffffffffffffffffffffff166341976e09846040518263ffffffff1660e01b815260040161043c9190611829565b602060405180830381865afa158015610459573d6000803e3d6000fd5b505050506040513d601f19601f8201168201806040525081019061047d9190611859565b90508481036104975761049288888885610d29565b610644565b60008888888888876040516024016104b496959493929190611a02565b6040516020818303038152906040527feea70583000000000000000000000000000000000000000000000000000000007bffffffffffffffffffffffffffffffffffffffffffffffffffffffff19166020820180517bffffffffffffffffffffffffffffffffffffffffffffffffffffffff8381831617835250505050905060008060009054906101000a900473ffffffffffffffffffffffffffffffffffffffff1673ffffffffffffffffffffffffffffffffffffffff1663168d560d30600062200b2061fa008b886040518763ffffffff1660e01b815260040161059f96959493929190611bab565b6000604051808303816000875af11580156105be573d6000803e3d6000fd5b505050506040513d6000823e3d601f19601f820116820180604052508101906105e79190611cb9565b9050806040516105f79190611d3e565b60405180910390207f9e989ccc644aff3dccb44d63c0125cf7c49f64c9631016543486e7dfc72187c7874261062c9190611d55565b604051610639919061130b565b60405180910390a250505b5050505050505050565b60008390508151835114610697576040517f08c379a000000000000000000000000000000000000000000000000000000000815260040161068e906116e8565b60405180910390fd5b6000805b84518110156106df578381815181106106b7576106b6611774565b5b6020026020010151826106ca9190611d55565b915080806106d7906117d2565b91505061069b565b508173ffffffffffffffffffffffffffffffffffffffff166323b872dd3330846040518463ffffffff1660e01b815260040161071d93929190611d89565b6020604051808303816000875af115801561073c573d6000803e3d6000fd5b505050506040513d601f19601f820116820180604052508101906107609190611df8565b61079f576040517f08c379a000000000000000000000000000000000000000000000000000000000815260040161079690611e71565b60405180910390fd5b60005b8451811015610932578273ffffffffffffffffffffffffffffffffffffffff1663a9059cbb8683815181106107da576107d9611774565b5b60200260200101518684815181106107f5576107f4611774565b5b60200260200101516040518363ffffffff1660e01b815260040161081a929190611e91565b6020604051808303816000875af1158015610839573d6000803e3d6000fd5b505050506040513d601f19601f8201168201806040525081019061085d9190611df8565b61089c576040517f08c379a000000000000000000000000000000000000000000000000000000000815260040161089390611f06565b60405180910390fd5b8481815181106108af576108ae611774565b5b602002602001015173ffffffffffffffffffffffffffffffffffffffff16817fb9471439bd4c23f19d2b486548fa6061ab17e1da9815f325f2a2b29f22e715e386848151811061090257610901611774565b5b6020026020010151604051610917919061130b565b60405180910390a3808061092a906117d2565b9150506107a2565b505050505050565b60008490508251845114610983576040517f08c379a000000000000000000000000000000000000000000000000000000000815260040161097a906116e8565b60405180910390fd5b6000805b84518110156109cb578481815181106109a3576109a2611774565b5b6020026020010151826109b69190611d55565b915080806109c3906117d2565b915050610987565b508173ffffffffffffffffffffffffffffffffffffffff166323b872dd3330846040518463ffffffff1660e01b8152600401610a0993929190611d89565b6020604051808303816000875af1158015610a28573d6000803e3d6000fd5b505050506040513d601f19601f82011682018060405250810190610a4c9190611df8565b610a8b576040517f08c379a0000000000000000000000000000000000000000000000000000000008152600401610a8290611f72565b60405180910390fd5b6000868686604051602401610aa293929190611f92565b6040516020818303038152906040527f46ba5fed000000000000000000000000000000000000000000000000000000007bffffffffffffffffffffffffffffffffffffffffffffffffffffffff19166020820180517bffffffffffffffffffffffffffffffffffffffffffffffffffffffff8381831617835250505050905060008060009054906101000a900473ffffffffffffffffffffffffffffffffffffffff1673ffffffffffffffffffffffffffffffffffffffff1663168d560d30600062200b2061fa008a886040518763ffffffff1660e01b8152600401610b8d96959493929190611bab565b6000604051808303816000875af1158015610bac573d6000803e3d6000fd5b505050506040513d6000823e3d601f19601f82011682018060405250810190610bd59190611cb9565b90508773ffffffffffffffffffffffffffffffffffffffff1681604051610bfc9190611d3e565b60405180910390207fc9c9afe41dd5e3a9438dd88814edcb9c8089a9e980f48b14414eda3d6d3d0e9a89898942610c339190611d55565b604051610c4293929190611fd7565b60405180910390a35050505050505050565b60008690506000600160009054906101000a900473ffffffffffffffffffffffffffffffffffffffff1673ffffffffffffffffffffffffffffffffffffffff166341976e09836040518263ffffffff1660e01b8152600401610cb69190611829565b602060405180830381865afa158015610cd3573d6000803e3d6000fd5b505050506040513d601f19601f82011682018060405250810190610cf79190611859565b9050848103610d1157610d0c88888886610d29565b610d1f565b610d1e88888888886103d5565b5b5050505050505050565b60008490508251845114610d72576040517f08c379a0000000000000000000000000000000000000000000000000000000008152600401610d699061208e565b60405180910390fd5b6000805b8451811015610dba57848181518110610d9257610d91611774565b5b602002602001015182610da59190611d55565b91508080610db2906117d2565b915050610d76565b508173ffffffffffffffffffffffffffffffffffffffff166323b872dd8430846040518463ffffffff1660e01b8152600401610df893929190611d89565b6020604051808303816000875af1158015610e17573d6000803e3d6000fd5b505050506040513d601f19601f82011682018060405250810190610e3b9190611df8565b610e7a576040517f08c379a0000000000000000000000000000000000000000000000000000000008152600401610e7190611f06565b60405180910390fd5b60005b8551811015610f4c578273ffffffffffffffffffffffffffffffffffffffff1663a9059cbb878381518110610eb557610eb4611774565b5b6020026020010151878481518110610ed057610ecf611774565b5b60200260200101516040518363ffffffff1660e01b8152600401610ef5929190611e91565b6020604051808303816000875af1158015610f14573d6000803e3d6000fd5b505050506040513d601f19601f82011682018060405250810190610f389190611df8565b508080610f44906117d2565b915050610e7d565b50505050505050565b6000604051905090565b600080fd5b600080fd5b600080fd5b6000601f19601f8301169050919050565b7f4e487b7100000000000000000000000000000000000000000000000000000000600052604160045260246000fd5b610fb782610f6e565b810181811067ffffffffffffffff82111715610fd657610fd5610f7f565b5b80604052505050565b6000610fe9610f55565b9050610ff58282610fae565b919050565b600067ffffffffffffffff82111561101557611014610f7f565b5b602082029050602081019050919050565b600080fd5b600073ffffffffffffffffffffffffffffffffffffffff82169050919050565b60006110568261102b565b9050919050565b6110668161104b565b811461107157600080fd5b50565b6000813590506110838161105d565b92915050565b600061109c61109784610ffa565b610fdf565b905080838252602082019050602084028301858111156110bf576110be611026565b5b835b818110156110e857806110d48882611074565b8452602084019350506020810190506110c1565b5050509392505050565b600082601f83011261110757611106610f69565b5b8135611117848260208601611089565b91505092915050565b600067ffffffffffffffff82111561113b5761113a610f7f565b5b602082029050602081019050919050565b6000819050919050565b61115f8161114c565b811461116a57600080fd5b50565b60008135905061117c81611156565b92915050565b600061119561119084611120565b610fdf565b905080838252602082019050602084028301858111156111b8576111b7611026565b5b835b818110156111e157806111cd888261116d565b8452602084019350506020810190506111ba565b5050509392505050565b600082601f830112611200576111ff610f69565b5b8135611210848260208601611182565b91505092915050565b600080604083850312156112305761122f610f5f565b5b600083013567ffffffffffffffff81111561124e5761124d610f64565b5b61125a858286016110f2565b925050602083013567ffffffffffffffff81111561127b5761127a610f64565b5b611287858286016111eb565b9150509250929050565b600061129c8261102b565b9050919050565b6112ac81611291565b81146112b757600080fd5b50565b6000813590506112c9816112a3565b92915050565b6000602082840312156112e5576112e4610f5f565b5b60006112f3848285016112ba565b91505092915050565b6113058161114c565b82525050565b600060208201905061132060008301846112fc565b92915050565b600067ffffffffffffffff82111561134157611340610f7f565b5b602082029050602081019050919050565b600061136561136084611326565b610fdf565b9050808382526020820190506020840283018581111561138857611387611026565b5b835b818110156113b1578061139d88826112ba565b84526020840193505060208101905061138a565b5050509392505050565b600082601f8301126113d0576113cf610f69565b5b81356113e0848260208601611352565b91505092915050565b600080600080600060a0868803121561140557611404610f5f565b5b6000611413888289016112ba565b955050602086013567ffffffffffffffff81111561143457611433610f64565b5b611440888289016113bb565b945050604086013567ffffffffffffffff81111561146157611460610f64565b5b61146d888289016111eb565b935050606061147e8882890161116d565b925050608061148f8882890161116d565b9150509295509295909350565b6000806000606084860312156114b5576114b4610f5f565b5b60006114c3868287016112ba565b935050602084013567ffffffffffffffff8111156114e4576114e3610f64565b5b6114f0868287016113bb565b925050604084013567ffffffffffffffff81111561151157611510610f64565b5b61151d868287016111eb565b9150509250925092565b6000806000806080858703121561154157611540610f5f565b5b600061154f878288016112ba565b945050602085013567ffffffffffffffff8111156115705761156f610f64565b5b61157c878288016113bb565b935050604085013567ffffffffffffffff81111561159d5761159c610f64565b5b6115a9878288016111eb565b92505060606115ba8782880161116d565b91505092959194509250565b60008060008060008060c087890312156115e3576115e2610f5f565b5b60006115f189828a016112ba565b965050602087013567ffffffffffffffff81111561161257611611610f64565b5b61161e89828a016113bb565b955050604087013567ffffffffffffffff81111561163f5761163e610f64565b5b61164b89828a016111eb565b945050606061165c89828a0161116d565b935050608061166d89828a0161116d565b92505060a061167e89828a016112ba565b9150509295509295509295565b600082825260208201905092915050565b7f4769766520696e70757473206163636f7264696e676c79210000000000000000600082015250565b60006116d260188361168b565b91506116dd8261169c565b602082019050919050565b60006020820190508181036000830152611701816116c5565b9050919050565b7f596f75206e65656420746f2073656e6420736f6d652045544820706c65617365600082015250565b600061173e60208361168b565b915061174982611708565b602082019050919050565b6000602082019050818103600083015261176d81611731565b9050919050565b7f4e487b7100000000000000000000000000000000000000000000000000000000600052603260045260246000fd5b7f4e487b7100000000000000000000000000000000000000000000000000000000600052601160045260246000fd5b60006117dd8261114c565b91507fffffffffffffffffffffffffffffffffffffffffffffffffffffffffffffffff820361180f5761180e6117a3565b5b600182019050919050565b61182381611291565b82525050565b600060208201905061183e600083018461181a565b92915050565b60008151905061185381611156565b92915050565b60006020828403121561186f5761186e610f5f565b5b600061187d84828501611844565b91505092915050565b600081519050919050565b600082825260208201905092915050565b6000819050602082019050919050565b6118bb81611291565b82525050565b60006118cd83836118b2565b60208301905092915050565b6000602082019050919050565b60006118f182611886565b6118fb8185611891565b9350611906836118a2565b8060005b8381101561193757815161191e88826118c1565b9750611929836118d9565b92505060018101905061190a565b5085935050505092915050565b600081519050919050565b600082825260208201905092915050565b6000819050602082019050919050565b6119798161114c565b82525050565b600061198b8383611970565b60208301905092915050565b6000602082019050919050565b60006119af82611944565b6119b9818561194f565b93506119c483611960565b8060005b838110156119f55781516119dc888261197f565b97506119e783611997565b9250506001810190506119c8565b5085935050505092915050565b600060c082019050611a17600083018961181a565b8181036020830152611a2981886118e6565b90508181036040830152611a3d81876119a4565b9050611a4c60608301866112fc565b611a5960808301856112fc565b611a6660a083018461181a565b979650505050505050565b6000819050919050565b6000819050919050565b6000611aa0611a9b611a9684611a71565b611a7b565b61114c565b9050919050565b611ab081611a85565b82525050565b6000819050919050565b6000611adb611ad6611ad184611ab6565b611a7b565b61114c565b9050919050565b611aeb81611ac0565b82525050565b6000819050919050565b6000611b16611b11611b0c84611af1565b611a7b565b61114c565b9050919050565b611b2681611afb565b82525050565b600081519050919050565b600082825260208201905092915050565b60005b83811015611b66578082015181840152602081019050611b4b565b60008484015250505050565b6000611b7d82611b2c565b611b878185611b37565b9350611b97818560208601611b48565b611ba081610f6e565b840191505092915050565b600060c082019050611bc0600083018961181a565b611bcd6020830188611aa7565b611bda6040830187611ae2565b611be76060830186611b1d565b611bf460808301856112fc565b81810360a0830152611c068184611b72565b9050979650505050505050565b600080fd5b600067ffffffffffffffff821115611c3357611c32610f7f565b5b611c3c82610f6e565b9050602081019050919050565b6000611c5c611c5784611c18565b610fdf565b905082815260208101848484011115611c7857611c77611c13565b5b611c83848285611b48565b509392505050565b600082601f830112611ca057611c9f610f69565b5b8151611cb0848260208601611c49565b91505092915050565b600060208284031215611ccf57611cce610f5f565b5b600082015167ffffffffffffffff811115611ced57611cec610f64565b5b611cf984828501611c8b565b91505092915050565b600081905092915050565b6000611d1882611b2c565b611d228185611d02565b9350611d32818560208601611b48565b80840191505092915050565b6000611d4a8284611d0d565b915081905092915050565b6000611d608261114c565b9150611d6b8361114c565b9250828201905080821115611d8357611d826117a3565b5b92915050565b6000606082019050611d9e600083018661181a565b611dab602083018561181a565b611db860408301846112fc565b949350505050565b60008115159050919050565b611dd581611dc0565b8114611de057600080fd5b50565b600081519050611df281611dcc565b92915050565b600060208284031215611e0e57611e0d610f5f565b5b6000611e1c84828501611de3565b91505092915050565b7f546f6b656e207472616e7366657246726f6d206661696c656421200000000000600082015250565b6000611e5b601b8361168b565b9150611e6682611e25565b602082019050919050565b60006020820190508181036000830152611e8a81611e4e565b9050919050565b6000604082019050611ea6600083018561181a565b611eb360208301846112fc565b9392505050565b7f546f6b656e207472616e73666572206661696c65640000000000000000000000600082015250565b6000611ef060158361168b565b9150611efb82611eba565b602082019050919050565b60006020820190508181036000830152611f1f81611ee3565b9050919050565b7f546f6b656e207472616e73666572206661696c65642100000000000000000000600082015250565b6000611f5c60168361168b565b9150611f6782611f26565b602082019050919050565b60006020820190508181036000830152611f8b81611f4f565b9050919050565b6000606082019050611fa7600083018661181a565b8181036020830152611fb981856118e6565b90508181036040830152611fcd81846119a4565b9050949350505050565b60006060820190508181036000830152611ff181866118e6565b9050818103602083015261200581856119a4565b905061201460408301846112fc565b949350505050565b7f4d69736d61746368656420726563697069656e747320616e6420616d6f756e7460008201527f7300000000000000000000000000000000000000000000000000000000000000602082015250565b600061207860218361168b565b91506120838261201c565b604082019050919050565b600060208201905081810360008301526120a78161206b565b905091905056fea26469706673582212208f0088278a4fcd6a3094068d1f010e79feb8dd5ed4a5531d8ac21d7b249c1cfc64736f6c63430008120033', \n     arguments: [\n     ]\n}).send({\n     from: web3.eth.accounts[0], \n     gas: '4700000'\n   }, function (e, contract){\n    console.log(e, contract);\n    if (typeof contract.address !== 'undefined') {\n         console.log('Contract mined! address: ' + contract.address + ' transactionHash: ' + contract.transactionHash);\n    }\n })",
	"functionHashes": {
		"eea70583": "checkPriceAndTransfer(address,address[],uint256[],uint256,uint256,address)",
		"41976e09": "getPrice(address)",
		"8a10d8e2": "scheduleConditionalBatchTransfer(address,address[],uint256[],uint256,uint256)",
		"d9a79aec": "scheduleERC20BatchTransfer(address,address[],uint256[],uint256)",
		"9805bb85": "simpleERC20BatchTransfer(address,address[],uint256[])",
		"167d6326": "simpleETHBatchTransfer(address[],uint256[])"
	},
	"gasEstimates": {
		"Creation": {
			"codeDepositCost": "1684000",
			"executionCost": "50281",
			"totalCost": "1734281"
		},
		"External": {
			"": "195",
			"checkPriceAndTransfer(address,address[],uint256[],uint256,uint256,address)": "infinite",
			"getPrice(address)": "infinite",
			"scheduleConditionalBatchTransfer(address,address[],uint256[],uint256,uint256)": "infinite",
			"scheduleERC20BatchTransfer(address,address[],uint256[],uint256)": "infinite",
			"simpleERC20BatchTransfer(address,address[],uint256[])": "infinite",
			"simpleETHBatchTransfer(address[],uint256[])": "infinite"
		},
		"Internal": {
			"executeBatchTransfer(address,address[] memory,uint256[] memory,address)": "infinite",
			"executeERC20BatchTransfer(address,address[] memory,uint256[] memory)": "infinite"
		}
	},
	"devdoc": {
		"kind": "dev",
		"methods": {},
		"version": 1
	},
	"userdoc": {
		"kind": "user",
		"methods": {},
		"version": 1
	},
	"Runtime Bytecode": {
		"immutableReferences": {},
		"linkReferences": {},
		"object": "6080604052600436106100595760003560e01c8063167d63261461006257806341976e091461007e5780638a10d8e2146100bb5780639805bb85146100d7578063d9a79aec146100f3578063eea705831461010f57610060565b3661006057005b005b61007c60048036038101906100779190611219565b61012b565b005b34801561008a57600080fd5b506100a560048036038101906100a091906112cf565b61032b565b6040516100b2919061130b565b60405180910390f35b6100d560048036038101906100d091906113e9565b6103d5565b005b6100f160048036038101906100ec919061149c565b61064e565b005b61010d60048036038101906101089190611527565b61093a565b005b610129600480360381019061012491906115c6565b610c54565b005b805182511461016f576040517f08c379a0000000000000000000000000000000000000000000000000000000008152600401610166906116e8565b60405180910390fd5b600034116101b2576040517f08c379a00000000000000000000000000000000000000000000000000000000081526004016101a990611754565b60405180910390fd5b60005b82518110156102cf578281815181106101d1576101d0611774565b5b602002602001015173ffffffffffffffffffffffffffffffffffffffff166108fc83838151811061020557610204611774565b5b60200260200101519081150290604051600060405180830381858888f19350505050158015610238573d6000803e3d6000fd5b5082818151811061024c5761024b611774565b5b602002602001015173ffffffffffffffffffffffffffffffffffffffff16817f6ac089feed810bffd2334c5a1c6c8f0f3509a73716a2c54433b8a51967eeb50b84848151811061029f5761029e611774565b5b60200260200101516040516102b4919061130b565b60405180910390a380806102c7906117d2565b9150506101b5565b5060004790506000811115610326573373ffffffffffffffffffffffffffffffffffffffff166108fc829081150290604051600060405180830381858888f19350505050158015610324573d6000803e3d6000fd5b505b505050565b600080600160009054906101000a900473ffffffffffffffffffffffffffffffffffffffff1673ffffffffffffffffffffffffffffffffffffffff166341976e09846040518263ffffffff1660e01b81526004016103899190611829565b602060405180830381865afa1580156103a6573d6000803e3d6000fd5b505050506040513d601f19601f820116820180604052508101906103ca9190611859565b905080915050919050565b600085905060003390506000600160009054906101000a900473ffffffffffffffffffffffffffffffffffffffff1673ffffffffffffffffffffffffffffffffffffffff166341976e09846040518263ffffffff1660e01b815260040161043c9190611829565b602060405180830381865afa158015610459573d6000803e3d6000fd5b505050506040513d601f19601f8201168201806040525081019061047d9190611859565b90508481036104975761049288888885610d29565b610644565b60008888888888876040516024016104b496959493929190611a02565b6040516020818303038152906040527feea70583000000000000000000000000000000000000000000000000000000007bffffffffffffffffffffffffffffffffffffffffffffffffffffffff19166020820180517bffffffffffffffffffffffffffffffffffffffffffffffffffffffff8381831617835250505050905060008060009054906101000a900473ffffffffffffffffffffffffffffffffffffffff1673ffffffffffffffffffffffffffffffffffffffff1663168d560d30600062200b2061fa008b886040518763ffffffff1660e01b815260040161059f96959493929190611bab565b6000604051808303816000875af11580156105be573d6000803e3d6000fd5b505050506040513d6000823e3d601f19601f820116820180604052508101906105e79190611cb9565b9050806040516105f79190611d3e565b60405180910390207f9e989ccc644aff3dccb44d63c0125cf7c49f64c9631016543486e7dfc72187c7874261062c9190611d55565b604051610639919061130b565b60405180910390a250505b5050505050505050565b60008390508151835114610697576040517f08c379a000000000000000000000000000000000000000000000000000000000815260040161068e906116e8565b60405180910390fd5b6000805b84518110156106df578381815181106106b7576106b6611774565b5b6020026020010151826106ca9190611d55565b915080806106d7906117d2565b91505061069b565b508173ffffffffffffffffffffffffffffffffffffffff166323b872dd3330846040518463ffffffff1660e01b815260040161071d93929190611d89565b6020604051808303816000875af115801561073c573d6000803e3d6000fd5b505050506040513d601f19601f820116820180604052508101906107609190611df8565b61079f576040517f08c379a000000000000000000000000000000000000000000000000000000000815260040161079690611e71565b60405180910390fd5b60005b8451811015610932578273ffffffffffffffffffffffffffffffffffffffff1663a9059cbb8683815181106107da576107d9611774565b5b60200260200101518684815181106107f5576107f4611774565b5b60200260200101516040518363ffffffff1660e01b815260040161081a929190611e91565b6020604051808303816000875af1158015610839573d6000803e3d6000fd5b505050506040513d601f19601f8201168201806040525081019061085d9190611df8565b61089c576040517f08c379a000000000000000000000000000000000000000000000000000000000815260040161089390611f06565b60405180910390fd5b8481815181106108af576108ae611774565b5b602002602001015173ffffffffffffffffffffffffffffffffffffffff16817fb9471439bd4c23f19d2b486548fa6061ab17e1da9815f325f2a2b29f22e715e386848151811061090257610901611774565b5b6020026020010151604051610917919061130b565b60405180910390a3808061092a906117d2565b9150506107a2565b505050505050565b60008490508251845114610983576040517f08c379a000000000000000000000000000000000000000000000000000000000815260040161097a906116e8565b60405180910390fd5b6000805b84518110156109cb578481815181106109a3576109a2611774565b5b6020026020010151826109b69190611d55565b915080806109c3906117d2565b915050610987565b508173ffffffffffffffffffffffffffffffffffffffff166323b872dd3330846040518463ffffffff1660e01b8152600401610a0993929190611d89565b6020604051808303816000875af1158015610a28573d6000803e3d6000fd5b505050506040513d601f19601f82011682018060405250810190610a4c9190611df8565b610a8b576040517f08c379a0000000000000000000000000000000000000000000000000000000008152600401610a8290611f72565b60405180910390fd5b6000868686604051602401610aa293929190611f92565b6040516020818303038152906040527f46ba5fed000000000000000000000000000000000000000000000000000000007bffffffffffffffffffffffffffffffffffffffffffffffffffffffff19166020820180517bffffffffffffffffffffffffffffffffffffffffffffffffffffffff8381831617835250505050905060008060009054906101000a900473ffffffffffffffffffffffffffffffffffffffff1673ffffffffffffffffffffffffffffffffffffffff1663168d560d30600062200b2061fa008a886040518763ffffffff1660e01b8152600401610b8d96959493929190611bab565b6000604051808303816000875af1158015610bac573d6000803e3d6000fd5b505050506040513d6000823e3d601f19601f82011682018060405250810190610bd59190611cb9565b90508773ffffffffffffffffffffffffffffffffffffffff1681604051610bfc9190611d3e565b60405180910390207fc9c9afe41dd5e3a9438dd88814edcb9c8089a9e980f48b14414eda3d6d3d0e9a89898942610c339190611d55565b604051610c4293929190611fd7565b60405180910390a35050505050505050565b60008690506000600160009054906101000a900473ffffffffffffffffffffffffffffffffffffffff1673ffffffffffffffffffffffffffffffffffffffff166341976e09836040518263ffffffff1660e01b8152600401610cb69190611829565b602060405180830381865afa158015610cd3573d6000803e3d6000fd5b505050506040513d601f19601f82011682018060405250810190610cf79190611859565b9050848103610d1157610d0c88888886610d29565b610d1f565b610d1e88888888886103d5565b5b5050505050505050565b60008490508251845114610d72576040517f08c379a0000000000000000000000000000000000000000000000000000000008152600401610d699061208e565b60405180910390fd5b6000805b8451811015610dba57848181518110610d9257610d91611774565b5b602002602001015182610da59190611d55565b91508080610db2906117d2565b915050610d76565b508173ffffffffffffffffffffffffffffffffffffffff166323b872dd8430846040518463ffffffff1660e01b8152600401610df893929190611d89565b6020604051808303816000875af1158015610e17573d6000803e3d6000fd5b505050506040513d601f19601f82011682018060405250810190610e3b9190611df8565b610e7a576040517f08c379a0000000000000000000000000000000000000000000000000000000008152600401610e7190611f06565b60405180910390fd5b60005b8551811015610f4c578273ffffffffffffffffffffffffffffffffffffffff1663a9059cbb878381518110610eb557610eb4611774565b5b6020026020010151878481518110610ed057610ecf611774565b5b60200260200101516040518363ffffffff1660e01b8152600401610ef5929190611e91565b6020604051808303816000875af1158015610f14573d6000803e3d6000fd5b505050506040513d601f19601f82011682018060405250810190610f389190611df8565b508080610f44906117d2565b915050610e7d565b50505050505050565b6000604051905090565b600080fd5b600080fd5b600080fd5b6000601f19601f8301169050919050565b7f4e487b7100000000000000000000000000000000000000000000000000000000600052604160045260246000fd5b610fb782610f6e565b810181811067ffffffffffffffff82111715610fd657610fd5610f7f565b5b80604052505050565b6000610fe9610f55565b9050610ff58282610fae565b919050565b600067ffffffffffffffff82111561101557611014610f7f565b5b602082029050602081019050919050565b600080fd5b600073ffffffffffffffffffffffffffffffffffffffff82169050919050565b60006110568261102b565b9050919050565b6110668161104b565b811461107157600080fd5b50565b6000813590506110838161105d565b92915050565b600061109c61109784610ffa565b610fdf565b905080838252602082019050602084028301858111156110bf576110be611026565b5b835b818110156110e857806110d48882611074565b8452602084019350506020810190506110c1565b5050509392505050565b600082601f83011261110757611106610f69565b5b8135611117848260208601611089565b91505092915050565b600067ffffffffffffffff82111561113b5761113a610f7f565b5b602082029050602081019050919050565b6000819050919050565b61115f8161114c565b811461116a57600080fd5b50565b60008135905061117c81611156565b92915050565b600061119561119084611120565b610fdf565b905080838252602082019050602084028301858111156111b8576111b7611026565b5b835b818110156111e157806111cd888261116d565b8452602084019350506020810190506111ba565b5050509392505050565b600082601f830112611200576111ff610f69565b5b8135611210848260208601611182565b91505092915050565b600080604083850312156112305761122f610f5f565b5b600083013567ffffffffffffffff81111561124e5761124d610f64565b5b61125a858286016110f2565b925050602083013567ffffffffffffffff81111561127b5761127a610f64565b5b611287858286016111eb565b9150509250929050565b600061129c8261102b565b9050919050565b6112ac81611291565b81146112b757600080fd5b50565b6000813590506112c9816112a3565b92915050565b6000602082840312156112e5576112e4610f5f565b5b60006112f3848285016112ba565b91505092915050565b6113058161114c565b82525050565b600060208201905061132060008301846112fc565b92915050565b600067ffffffffffffffff82111561134157611340610f7f565b5b602082029050602081019050919050565b600061136561136084611326565b610fdf565b9050808382526020820190506020840283018581111561138857611387611026565b5b835b818110156113b1578061139d88826112ba565b84526020840193505060208101905061138a565b5050509392505050565b600082601f8301126113d0576113cf610f69565b5b81356113e0848260208601611352565b91505092915050565b600080600080600060a0868803121561140557611404610f5f565b5b6000611413888289016112ba565b955050602086013567ffffffffffffffff81111561143457611433610f64565b5b611440888289016113bb565b945050604086013567ffffffffffffffff81111561146157611460610f64565b5b61146d888289016111eb565b935050606061147e8882890161116d565b925050608061148f8882890161116d565b9150509295509295909350565b6000806000606084860312156114b5576114b4610f5f565b5b60006114c3868287016112ba565b935050602084013567ffffffffffffffff8111156114e4576114e3610f64565b5b6114f0868287016113bb565b925050604084013567ffffffffffffffff81111561151157611510610f64565b5b61151d868287016111eb565b9150509250925092565b6000806000806080858703121561154157611540610f5f565b5b600061154f878288016112ba565b945050602085013567ffffffffffffffff8111156115705761156f610f64565b5b61157c878288016113bb565b935050604085013567ffffffffffffffff81111561159d5761159c610f64565b5b6115a9878288016111eb565b92505060606115ba8782880161116d565b91505092959194509250565b60008060008060008060c087890312156115e3576115e2610f5f565b5b60006115f189828a016112ba565b965050602087013567ffffffffffffffff81111561161257611611610f64565b5b61161e89828a016113bb565b955050604087013567ffffffffffffffff81111561163f5761163e610f64565b5b61164b89828a016111eb565b945050606061165c89828a0161116d565b935050608061166d89828a0161116d565b92505060a061167e89828a016112ba565b9150509295509295509295565b600082825260208201905092915050565b7f4769766520696e70757473206163636f7264696e676c79210000000000000000600082015250565b60006116d260188361168b565b91506116dd8261169c565b602082019050919050565b60006020820190508181036000830152611701816116c5565b9050919050565b7f596f75206e65656420746f2073656e6420736f6d652045544820706c65617365600082015250565b600061173e60208361168b565b915061174982611708565b602082019050919050565b6000602082019050818103600083015261176d81611731565b9050919050565b7f4e487b7100000000000000000000000000000000000000000000000000000000600052603260045260246000fd5b7f4e487b7100000000000000000000000000000000000000000000000000000000600052601160045260246000fd5b60006117dd8261114c565b91507fffffffffffffffffffffffffffffffffffffffffffffffffffffffffffffffff820361180f5761180e6117a3565b5b600182019050919050565b61182381611291565b82525050565b600060208201905061183e600083018461181a565b92915050565b60008151905061185381611156565b92915050565b60006020828403121561186f5761186e610f5f565b5b600061187d84828501611844565b91505092915050565b600081519050919050565b600082825260208201905092915050565b6000819050602082019050919050565b6118bb81611291565b82525050565b60006118cd83836118b2565b60208301905092915050565b6000602082019050919050565b60006118f182611886565b6118fb8185611891565b9350611906836118a2565b8060005b8381101561193757815161191e88826118c1565b9750611929836118d9565b92505060018101905061190a565b5085935050505092915050565b600081519050919050565b600082825260208201905092915050565b6000819050602082019050919050565b6119798161114c565b82525050565b600061198b8383611970565b60208301905092915050565b6000602082019050919050565b60006119af82611944565b6119b9818561194f565b93506119c483611960565b8060005b838110156119f55781516119dc888261197f565b97506119e783611997565b9250506001810190506119c8565b5085935050505092915050565b600060c082019050611a17600083018961181a565b8181036020830152611a2981886118e6565b90508181036040830152611a3d81876119a4565b9050611a4c60608301866112fc565b611a5960808301856112fc565b611a6660a083018461181a565b979650505050505050565b6000819050919050565b6000819050919050565b6000611aa0611a9b611a9684611a71565b611a7b565b61114c565b9050919050565b611ab081611a85565b82525050565b6000819050919050565b6000611adb611ad6611ad184611ab6565b611a7b565b61114c565b9050919050565b611aeb81611ac0565b82525050565b6000819050919050565b6000611b16611b11611b0c84611af1565b611a7b565b61114c565b9050919050565b611b2681611afb565b82525050565b600081519050919050565b600082825260208201905092915050565b60005b83811015611b66578082015181840152602081019050611b4b565b60008484015250505050565b6000611b7d82611b2c565b611b878185611b37565b9350611b97818560208601611b48565b611ba081610f6e565b840191505092915050565b600060c082019050611bc0600083018961181a565b611bcd6020830188611aa7565b611bda6040830187611ae2565b611be76060830186611b1d565b611bf460808301856112fc565b81810360a0830152611c068184611b72565b9050979650505050505050565b600080fd5b600067ffffffffffffffff821115611c3357611c32610f7f565b5b611c3c82610f6e565b9050602081019050919050565b6000611c5c611c5784611c18565b610fdf565b905082815260208101848484011115611c7857611c77611c13565b5b611c83848285611b48565b509392505050565b600082601f830112611ca057611c9f610f69565b5b8151611cb0848260208601611c49565b91505092915050565b600060208284031215611ccf57611cce610f5f565b5b600082015167ffffffffffffffff811115611ced57611cec610f64565b5b611cf984828501611c8b565b91505092915050565b600081905092915050565b6000611d1882611b2c565b611d228185611d02565b9350611d32818560208601611b48565b80840191505092915050565b6000611d4a8284611d0d565b915081905092915050565b6000611d608261114c565b9150611d6b8361114c565b9250828201905080821115611d8357611d826117a3565b5b92915050565b6000606082019050611d9e600083018661181a565b611dab602083018561181a565b611db860408301846112fc565b949350505050565b60008115159050919050565b611dd581611dc0565b8114611de057600080fd5b50565b600081519050611df281611dcc565b92915050565b600060208284031215611e0e57611e0d610f5f565b5b6000611e1c84828501611de3565b91505092915050565b7f546f6b656e207472616e7366657246726f6d206661696c656421200000000000600082015250565b6000611e5b601b8361168b565b9150611e6682611e25565b602082019050919050565b60006020820190508181036000830152611e8a81611e4e565b9050919050565b6000604082019050611ea6600083018561181a565b611eb360208301846112fc565b9392505050565b7f546f6b656e207472616e73666572206661696c65640000000000000000000000600082015250565b6000611ef060158361168b565b9150611efb82611eba565b602082019050919050565b60006020820190508181036000830152611f1f81611ee3565b9050919050565b7f546f6b656e207472616e73666572206661696c65642100000000000000000000600082015250565b6000611f5c60168361168b565b9150611f6782611f26565b602082019050919050565b60006020820190508181036000830152611f8b81611f4f565b9050919050565b6000606082019050611fa7600083018661181a565b8181036020830152611fb981856118e6565b90508181036040830152611fcd81846119a4565b9050949350505050565b60006060820190508181036000830152611ff181866118e6565b9050818103602083015261200581856119a4565b905061201460408301846112fc565b949350505050565b7f4d69736d61746368656420726563697069656e747320616e6420616d6f756e7460008201527f7300000000000000000000000000000000000000000000000000000000000000602082015250565b600061207860218361168b565b91506120838261201c565b604082019050919050565b600060208201905081810360008301526120a78161206b565b905091905056fea26469706673582212208f0088278a4fcd6a3094068d1f010e79feb8dd5ed4a5531d8ac21d7b249c1cfc64736f6c63430008120033",
		"opcodes": "PUSH1 0x80 PUSH1 0x40 MSTORE PUSH1 0x4 CALLDATASIZE LT PUSH2 0x59 JUMPI PUSH1 0x0 CALLDATALOAD PUSH1 0xE0 SHR DUP1 PUSH4 0x167D6326 EQ PUSH2 0x62 JUMPI DUP1 PUSH4 0x41976E09 EQ PUSH2 0x7E JUMPI DUP1 PUSH4 0x8A10D8E2 EQ PUSH2 0xBB JUMPI DUP1 PUSH4 0x9805BB85 EQ PUSH2 0xD7 JUMPI DUP1 PUSH4 0xD9A79AEC EQ PUSH2 0xF3 JUMPI DUP1 PUSH4 0xEEA70583 EQ PUSH2 0x10F JUMPI PUSH2 0x60 JUMP JUMPDEST CALLDATASIZE PUSH2 0x60 JUMPI STOP JUMPDEST STOP JUMPDEST PUSH2 0x7C PUSH1 0x4 DUP1 CALLDATASIZE SUB DUP2 ADD SWAP1 PUSH2 0x77 SWAP2 SWAP1 PUSH2 0x1219 JUMP JUMPDEST PUSH2 0x12B JUMP JUMPDEST STOP JUMPDEST CALLVALUE DUP1 ISZERO PUSH2 0x8A JUMPI PUSH1 0x0 DUP1 REVERT JUMPDEST POP PUSH2 0xA5 PUSH1 0x4 DUP1 CALLDATASIZE SUB DUP2 ADD SWAP1 PUSH2 0xA0 SWAP2 SWAP1 PUSH2 0x12CF JUMP JUMPDEST PUSH2 0x32B JUMP JUMPDEST PUSH1 0x40 MLOAD PUSH2 0xB2 SWAP2 SWAP1 PUSH2 0x130B JUMP JUMPDEST PUSH1 0x40 MLOAD DUP1 SWAP2 SUB SWAP1 RETURN JUMPDEST PUSH2 0xD5 PUSH1 0x4 DUP1 CALLDATASIZE SUB DUP2 ADD SWAP1 PUSH2 0xD0 SWAP2 SWAP1 PUSH2 0x13E9 JUMP JUMPDEST PUSH2 0x3D5 JUMP JUMPDEST STOP JUMPDEST PUSH2 0xF1 PUSH1 0x4 DUP1 CALLDATASIZE SUB DUP2 ADD SWAP1 PUSH2 0xEC SWAP2 SWAP1 PUSH2 0x149C JUMP JUMPDEST PUSH2 0x64E JUMP JUMPDEST STOP JUMPDEST PUSH2 0x10D PUSH1 0x4 DUP1 CALLDATASIZE SUB DUP2 ADD SWAP1 PUSH2 0x108 SWAP2 SWAP1 PUSH2 0x1527 JUMP JUMPDEST PUSH2 0x93A JUMP JUMPDEST STOP JUMPDEST PUSH2 0x129 PUSH1 0x4 DUP1 CALLDATASIZE SUB DUP2 ADD SWAP1 PUSH2 0x124 SWAP2 SWAP1 PUSH2 0x15C6 JUMP JUMPDEST PUSH2 0xC54 JUMP JUMPDEST STOP JUMPDEST DUP1 MLOAD DUP3 MLOAD EQ PUSH2 0x16F JUMPI PUSH1 0x40 MLOAD PUSH32 0x8C379A000000000000000000000000000000000000000000000000000000000 DUP2 MSTORE PUSH1 0x4 ADD PUSH2 0x166 SWAP1 PUSH2 0x16E8 JUMP JUMPDEST PUSH1 0x40 MLOAD DUP1 SWAP2 SUB SWAP1 REVERT JUMPDEST PUSH1 0x0 CALLVALUE GT PUSH2 0x1B2 JUMPI PUSH1 0x40 MLOAD PUSH32 0x8C379A000000000000000000000000000000000000000000000000000000000 DUP2 MSTORE PUSH1 0x4 ADD PUSH2 0x1A9 SWAP1 PUSH2 0x1754 JUMP JUMPDEST PUSH1 0x40 MLOAD DUP1 SWAP2 SUB SWAP1 REVERT JUMPDEST PUSH1 0x0 JUMPDEST DUP3 MLOAD DUP2 LT ISZERO PUSH2 0x2CF JUMPI DUP3 DUP2 DUP2 MLOAD DUP2 LT PUSH2 0x1D1 JUMPI PUSH2 0x1D0 PUSH2 0x1774 JUMP JUMPDEST JUMPDEST PUSH1 0x20 MUL PUSH1 0x20 ADD ADD MLOAD PUSH20 0xFFFFFFFFFFFFFFFFFFFFFFFFFFFFFFFFFFFFFFFF AND PUSH2 0x8FC DUP4 DUP4 DUP2 MLOAD DUP2 LT PUSH2 0x205 JUMPI PUSH2 0x204 PUSH2 0x1774 JUMP JUMPDEST JUMPDEST PUSH1 0x20 MUL PUSH1 0x20 ADD ADD MLOAD SWAP1 DUP2 ISZERO MUL SWAP1 PUSH1 0x40 MLOAD PUSH1 0x0 PUSH1 0x40 MLOAD DUP1 DUP4 SUB DUP2 DUP6 DUP9 DUP9 CALL SWAP4 POP POP POP POP ISZERO DUP1 ISZERO PUSH2 0x238 JUMPI RETURNDATASIZE PUSH1 0x0 DUP1 RETURNDATACOPY RETURNDATASIZE PUSH1 0x0 REVERT JUMPDEST POP DUP3 DUP2 DUP2 MLOAD DUP2 LT PUSH2 0x24C JUMPI PUSH2 0x24B PUSH2 0x1774 JUMP JUMPDEST JUMPDEST PUSH1 0x20 MUL PUSH1 0x20 ADD ADD MLOAD PUSH20 0xFFFFFFFFFFFFFFFFFFFFFFFFFFFFFFFFFFFFFFFF AND DUP2 PUSH32 0x6AC089FEED810BFFD2334C5A1C6C8F0F3509A73716A2C54433B8A51967EEB50B DUP5 DUP5 DUP2 MLOAD DUP2 LT PUSH2 0x29F JUMPI PUSH2 0x29E PUSH2 0x1774 JUMP JUMPDEST JUMPDEST PUSH1 0x20 MUL PUSH1 0x20 ADD ADD MLOAD PUSH1 0x40 MLOAD PUSH2 0x2B4 SWAP2 SWAP1 PUSH2 0x130B JUMP JUMPDEST PUSH1 0x40 MLOAD DUP1 SWAP2 SUB SWAP1 LOG3 DUP1 DUP1 PUSH2 0x2C7 SWAP1 PUSH2 0x17D2 JUMP JUMPDEST SWAP2 POP POP PUSH2 0x1B5 JUMP JUMPDEST POP PUSH1 0x0 SELFBALANCE SWAP1 POP PUSH1 0x0 DUP2 GT ISZERO PUSH2 0x326 JUMPI CALLER PUSH20 0xFFFFFFFFFFFFFFFFFFFFFFFFFFFFFFFFFFFFFFFF AND PUSH2 0x8FC DUP3 SWAP1 DUP2 ISZERO MUL SWAP1 PUSH1 0x40 MLOAD PUSH1 0x0 PUSH1 0x40 MLOAD DUP1 DUP4 SUB DUP2 DUP6 DUP9 DUP9 CALL SWAP4 POP POP POP POP ISZERO DUP1 ISZERO PUSH2 0x324 JUMPI RETURNDATASIZE PUSH1 0x0 DUP1 RETURNDATACOPY RETURNDATASIZE PUSH1 0x0 REVERT JUMPDEST POP JUMPDEST POP POP POP JUMP JUMPDEST PUSH1 0x0 DUP1 PUSH1 0x1 PUSH1 0x0 SWAP1 SLOAD SWAP1 PUSH2 0x100 EXP SWAP1 DIV PUSH20 0xFFFFFFFFFFFFFFFFFFFFFFFFFFFFFFFFFFFFFFFF AND PUSH20 0xFFFFFFFFFFFFFFFFFFFFFFFFFFFFFFFFFFFFFFFF AND PUSH4 0x41976E09 DUP5 PUSH1 0x40 MLOAD DUP3 PUSH4 0xFFFFFFFF AND PUSH1 0xE0 SHL DUP2 MSTORE PUSH1 0x4 ADD PUSH2 0x389 SWAP2 SWAP1 PUSH2 0x1829 JUMP JUMPDEST PUSH1 0x20 PUSH1 0x40 MLOAD DUP1 DUP4 SUB DUP2 DUP7 GAS STATICCALL ISZERO DUP1 ISZERO PUSH2 0x3A6 JUMPI RETURNDATASIZE PUSH1 0x0 DUP1 RETURNDATACOPY RETURNDATASIZE PUSH1 0x0 REVERT JUMPDEST POP POP POP POP PUSH1 0x40 MLOAD RETURNDATASIZE PUSH1 0x1F NOT PUSH1 0x1F DUP3 ADD AND DUP3 ADD DUP1 PUSH1 0x40 MSTORE POP DUP2 ADD SWAP1 PUSH2 0x3CA SWAP2 SWAP1 PUSH2 0x1859 JUMP JUMPDEST SWAP1 POP DUP1 SWAP2 POP POP SWAP2 SWAP1 POP JUMP JUMPDEST PUSH1 0x0 DUP6 SWAP1 POP PUSH1 0x0 CALLER SWAP1 POP PUSH1 0x0 PUSH1 0x1 PUSH1 0x0 SWAP1 SLOAD SWAP1 PUSH2 0x100 EXP SWAP1 DIV PUSH20 0xFFFFFFFFFFFFFFFFFFFFFFFFFFFFFFFFFFFFFFFF AND PUSH20 0xFFFFFFFFFFFFFFFFFFFFFFFFFFFFFFFFFFFFFFFF AND PUSH4 0x41976E09 DUP5 PUSH1 0x40 MLOAD DUP3 PUSH4 0xFFFFFFFF AND PUSH1 0xE0 SHL DUP2 MSTORE PUSH1 0x4 ADD PUSH2 0x43C SWAP2 SWAP1 PUSH2 0x1829 JUMP JUMPDEST PUSH1 0x20 PUSH1 0x40 MLOAD DUP1 DUP4 SUB DUP2 DUP7 GAS STATICCALL ISZERO DUP1 ISZERO PUSH2 0x459 JUMPI RETURNDATASIZE PUSH1 0x0 DUP1 RETURNDATACOPY RETURNDATASIZE PUSH1 0x0 REVERT JUMPDEST POP POP POP POP PUSH1 0x40 MLOAD RETURNDATASIZE PUSH1 0x1F NOT PUSH1 0x1F DUP3 ADD AND DUP3 ADD DUP1 PUSH1 0x40 MSTORE POP DUP2 ADD SWAP1 PUSH2 0x47D SWAP2 SWAP1 PUSH2 0x1859 JUMP JUMPDEST SWAP1 POP DUP5 DUP2 SUB PUSH2 0x497 JUMPI PUSH2 0x492 DUP9 DUP9 DUP9 DUP6 PUSH2 0xD29 JUMP JUMPDEST PUSH2 0x644 JUMP JUMPDEST PUSH1 0x0 DUP9 DUP9 DUP9 DUP9 DUP9 DUP8 PUSH1 0x40 MLOAD PUSH1 0x24 ADD PUSH2 0x4B4 SWAP7 SWAP6 SWAP5 SWAP4 SWAP3 SWAP2 SWAP1 PUSH2 0x1A02 JUMP JUMPDEST PUSH1 0x40 MLOAD PUSH1 0x20 DUP2 DUP4 SUB SUB DUP2 MSTORE SWAP1 PUSH1 0x40 MSTORE PUSH32 0xEEA7058300000000000000000000000000000000000000000000000000000000 PUSH28 0xFFFFFFFFFFFFFFFFFFFFFFFFFFFFFFFFFFFFFFFFFFFFFFFFFFFFFFFF NOT AND PUSH1 0x20 DUP3 ADD DUP1 MLOAD PUSH28 0xFFFFFFFFFFFFFFFFFFFFFFFFFFFFFFFFFFFFFFFFFFFFFFFFFFFFFFFF DUP4 DUP2 DUP4 AND OR DUP4 MSTORE POP POP POP POP SWAP1 POP PUSH1 0x0 DUP1 PUSH1 0x0 SWAP1 SLOAD SWAP1 PUSH2 0x100 EXP SWAP1 DIV PUSH20 0xFFFFFFFFFFFFFFFFFFFFFFFFFFFFFFFFFFFFFFFF AND PUSH20 0xFFFFFFFFFFFFFFFFFFFFFFFFFFFFFFFFFFFFFFFF AND PUSH4 0x168D560D ADDRESS PUSH1 0x0 PUSH3 0x200B20 PUSH2 0xFA00 DUP12 DUP9 PUSH1 0x40 MLOAD DUP8 PUSH4 0xFFFFFFFF AND PUSH1 0xE0 SHL DUP2 MSTORE PUSH1 0x4 ADD PUSH2 0x59F SWAP7 SWAP6 SWAP5 SWAP4 SWAP3 SWAP2 SWAP1 PUSH2 0x1BAB JUMP JUMPDEST PUSH1 0x0 PUSH1 0x40 MLOAD DUP1 DUP4 SUB DUP2 PUSH1 0x0 DUP8 GAS CALL ISZERO DUP1 ISZERO PUSH2 0x5BE JUMPI RETURNDATASIZE PUSH1 0x0 DUP1 RETURNDATACOPY RETURNDATASIZE PUSH1 0x0 REVERT JUMPDEST POP POP POP POP PUSH1 0x40 MLOAD RETURNDATASIZE PUSH1 0x0 DUP3 RETURNDATACOPY RETURNDATASIZE PUSH1 0x1F NOT PUSH1 0x1F DUP3 ADD AND DUP3 ADD DUP1 PUSH1 0x40 MSTORE POP DUP2 ADD SWAP1 PUSH2 0x5E7 SWAP2 SWAP1 PUSH2 0x1CB9 JUMP JUMPDEST SWAP1 POP DUP1 PUSH1 0x40 MLOAD PUSH2 0x5F7 SWAP2 SWAP1 PUSH2 0x1D3E JUMP JUMPDEST PUSH1 0x40 MLOAD DUP1 SWAP2 SUB SWAP1 KECCAK256 PUSH32 0x9E989CCC644AFF3DCCB44D63C0125CF7C49F64C9631016543486E7DFC72187C7 DUP8 TIMESTAMP PUSH2 0x62C SWAP2 SWAP1 PUSH2 0x1D55 JUMP JUMPDEST PUSH1 0x40 MLOAD PUSH2 0x639 SWAP2 SWAP1 PUSH2 0x130B JUMP JUMPDEST PUSH1 0x40 MLOAD DUP1 SWAP2 SUB SWAP1 LOG2 POP POP JUMPDEST POP POP POP POP POP POP POP POP JUMP JUMPDEST PUSH1 0x0 DUP4 SWAP1 POP DUP2 MLOAD DUP4 MLOAD EQ PUSH2 0x697 JUMPI PUSH1 0x40 MLOAD PUSH32 0x8C379A000000000000000000000000000000000000000000000000000000000 DUP2 MSTORE PUSH1 0x4 ADD PUSH2 0x68E SWAP1 PUSH2 0x16E8 JUMP JUMPDEST PUSH1 0x40 MLOAD DUP1 SWAP2 SUB SWAP1 REVERT JUMPDEST PUSH1 0x0 DUP1 JUMPDEST DUP5 MLOAD DUP2 LT ISZERO PUSH2 0x6DF JUMPI DUP4 DUP2 DUP2 MLOAD DUP2 LT PUSH2 0x6B7 JUMPI PUSH2 0x6B6 PUSH2 0x1774 JUMP JUMPDEST JUMPDEST PUSH1 0x20 MUL PUSH1 0x20 ADD ADD MLOAD DUP3 PUSH2 0x6CA SWAP2 SWAP1 PUSH2 0x1D55 JUMP JUMPDEST SWAP2 POP DUP1 DUP1 PUSH2 0x6D7 SWAP1 PUSH2 0x17D2 JUMP JUMPDEST SWAP2 POP POP PUSH2 0x69B JUMP JUMPDEST POP DUP2 PUSH20 0xFFFFFFFFFFFFFFFFFFFFFFFFFFFFFFFFFFFFFFFF AND PUSH4 0x23B872DD CALLER ADDRESS DUP5 PUSH1 0x40 MLOAD DUP5 PUSH4 0xFFFFFFFF AND PUSH1 0xE0 SHL DUP2 MSTORE PUSH1 0x4 ADD PUSH2 0x71D SWAP4 SWAP3 SWAP2 SWAP1 PUSH2 0x1D89 JUMP JUMPDEST PUSH1 0x20 PUSH1 0x40 MLOAD DUP1 DUP4 SUB DUP2 PUSH1 0x0 DUP8 GAS CALL ISZERO DUP1 ISZERO PUSH2 0x73C JUMPI RETURNDATASIZE PUSH1 0x0 DUP1 RETURNDATACOPY RETURNDATASIZE PUSH1 0x0 REVERT JUMPDEST POP POP POP POP PUSH1 0x40 MLOAD RETURNDATASIZE PUSH1 0x1F NOT PUSH1 0x1F DUP3 ADD AND DUP3 ADD DUP1 PUSH1 0x40 MSTORE POP DUP2 ADD SWAP1 PUSH2 0x760 SWAP2 SWAP1 PUSH2 0x1DF8 JUMP JUMPDEST PUSH2 0x79F JUMPI PUSH1 0x40 MLOAD PUSH32 0x8C379A000000000000000000000000000000000000000000000000000000000 DUP2 MSTORE PUSH1 0x4 ADD PUSH2 0x796 SWAP1 PUSH2 0x1E71 JUMP JUMPDEST PUSH1 0x40 MLOAD DUP1 SWAP2 SUB SWAP1 REVERT JUMPDEST PUSH1 0x0 JUMPDEST DUP5 MLOAD DUP2 LT ISZERO PUSH2 0x932 JUMPI DUP3 PUSH20 0xFFFFFFFFFFFFFFFFFFFFFFFFFFFFFFFFFFFFFFFF AND PUSH4 0xA9059CBB DUP7 DUP4 DUP2 MLOAD DUP2 LT PUSH2 0x7DA JUMPI PUSH2 0x7D9 PUSH2 0x1774 JUMP JUMPDEST JUMPDEST PUSH1 0x20 MUL PUSH1 0x20 ADD ADD MLOAD DUP7 DUP5 DUP2 MLOAD DUP2 LT PUSH2 0x7F5 JUMPI PUSH2 0x7F4 PUSH2 0x1774 JUMP JUMPDEST JUMPDEST PUSH1 0x20 MUL PUSH1 0x20 ADD ADD MLOAD PUSH1 0x40 MLOAD DUP4 PUSH4 0xFFFFFFFF AND PUSH1 0xE0 SHL DUP2 MSTORE PUSH1 0x4 ADD PUSH2 0x81A SWAP3 SWAP2 SWAP1 PUSH2 0x1E91 JUMP JUMPDEST PUSH1 0x20 PUSH1 0x40 MLOAD DUP1 DUP4 SUB DUP2 PUSH1 0x0 DUP8 GAS CALL ISZERO DUP1 ISZERO PUSH2 0x839 JUMPI RETURNDATASIZE PUSH1 0x0 DUP1 RETURNDATACOPY RETURNDATASIZE PUSH1 0x0 REVERT JUMPDEST POP POP POP POP PUSH1 0x40 MLOAD RETURNDATASIZE PUSH1 0x1F NOT PUSH1 0x1F DUP3 ADD AND DUP3 ADD DUP1 PUSH1 0x40 MSTORE POP DUP2 ADD SWAP1 PUSH2 0x85D SWAP2 SWAP1 PUSH2 0x1DF8 JUMP JUMPDEST PUSH2 0x89C JUMPI PUSH1 0x40 MLOAD PUSH32 0x8C379A000000000000000000000000000000000000000000000000000000000 DUP2 MSTORE PUSH1 0x4 ADD PUSH2 0x893 SWAP1 PUSH2 0x1F06 JUMP JUMPDEST PUSH1 0x40 MLOAD DUP1 SWAP2 SUB SWAP1 REVERT JUMPDEST DUP5 DUP2 DUP2 MLOAD DUP2 LT PUSH2 0x8AF JUMPI PUSH2 0x8AE PUSH2 0x1774 JUMP JUMPDEST JUMPDEST PUSH1 0x20 MUL PUSH1 0x20 ADD ADD MLOAD PUSH20 0xFFFFFFFFFFFFFFFFFFFFFFFFFFFFFFFFFFFFFFFF AND DUP2 PUSH32 0xB9471439BD4C23F19D2B486548FA6061AB17E1DA9815F325F2A2B29F22E715E3 DUP7 DUP5 DUP2 MLOAD DUP2 LT PUSH2 0x902 JUMPI PUSH2 0x901 PUSH2 0x1774 JUMP JUMPDEST JUMPDEST PUSH1 0x20 MUL PUSH1 0x20 ADD ADD MLOAD PUSH1 0x40 MLOAD PUSH2 0x917 SWAP2 SWAP1 PUSH2 0x130B JUMP JUMPDEST PUSH1 0x40 MLOAD DUP1 SWAP2 SUB SWAP1 LOG3 DUP1 DUP1 PUSH2 0x92A SWAP1 PUSH2 0x17D2 JUMP JUMPDEST SWAP2 POP POP PUSH2 0x7A2 JUMP JUMPDEST POP POP POP POP POP POP JUMP JUMPDEST PUSH1 0x0 DUP5 SWAP1 POP DUP3 MLOAD DUP5 MLOAD EQ PUSH2 0x983 JUMPI PUSH1 0x40 MLOAD PUSH32 0x8C379A000000000000000000000000000000000000000000000000000000000 DUP2 MSTORE PUSH1 0x4 ADD PUSH2 0x97A SWAP1 PUSH2 0x16E8 JUMP JUMPDEST PUSH1 0x40 MLOAD DUP1 SWAP2 SUB SWAP1 REVERT JUMPDEST PUSH1 0x0 DUP1 JUMPDEST DUP5 MLOAD DUP2 LT ISZERO PUSH2 0x9CB JUMPI DUP5 DUP2 DUP2 MLOAD DUP2 LT PUSH2 0x9A3 JUMPI PUSH2 0x9A2 PUSH2 0x1774 JUMP JUMPDEST JUMPDEST PUSH1 0x20 MUL PUSH1 0x20 ADD ADD MLOAD DUP3 PUSH2 0x9B6 SWAP2 SWAP1 PUSH2 0x1D55 JUMP JUMPDEST SWAP2 POP DUP1 DUP1 PUSH2 0x9C3 SWAP1 PUSH2 0x17D2 JUMP JUMPDEST SWAP2 POP POP PUSH2 0x987 JUMP JUMPDEST POP DUP2 PUSH20 0xFFFFFFFFFFFFFFFFFFFFFFFFFFFFFFFFFFFFFFFF AND PUSH4 0x23B872DD CALLER ADDRESS DUP5 PUSH1 0x40 MLOAD DUP5 PUSH4 0xFFFFFFFF AND PUSH1 0xE0 SHL DUP2 MSTORE PUSH1 0x4 ADD PUSH2 0xA09 SWAP4 SWAP3 SWAP2 SWAP1 PUSH2 0x1D89 JUMP JUMPDEST PUSH1 0x20 PUSH1 0x40 MLOAD DUP1 DUP4 SUB DUP2 PUSH1 0x0 DUP8 GAS CALL ISZERO DUP1 ISZERO PUSH2 0xA28 JUMPI RETURNDATASIZE PUSH1 0x0 DUP1 RETURNDATACOPY RETURNDATASIZE PUSH1 0x0 REVERT JUMPDEST POP POP POP POP PUSH1 0x40 MLOAD RETURNDATASIZE PUSH1 0x1F NOT PUSH1 0x1F DUP3 ADD AND DUP3 ADD DUP1 PUSH1 0x40 MSTORE POP DUP2 ADD SWAP1 PUSH2 0xA4C SWAP2 SWAP1 PUSH2 0x1DF8 JUMP JUMPDEST PUSH2 0xA8B JUMPI PUSH1 0x40 MLOAD PUSH32 0x8C379A000000000000000000000000000000000000000000000000000000000 DUP2 MSTORE PUSH1 0x4 ADD PUSH2 0xA82 SWAP1 PUSH2 0x1F72 JUMP JUMPDEST PUSH1 0x40 MLOAD DUP1 SWAP2 SUB SWAP1 REVERT JUMPDEST PUSH1 0x0 DUP7 DUP7 DUP7 PUSH1 0x40 MLOAD PUSH1 0x24 ADD PUSH2 0xAA2 SWAP4 SWAP3 SWAP2 SWAP1 PUSH2 0x1F92 JUMP JUMPDEST PUSH1 0x40 MLOAD PUSH1 0x20 DUP2 DUP4 SUB SUB DUP2 MSTORE SWAP1 PUSH1 0x40 MSTORE PUSH32 0x46BA5FED00000000000000000000000000000000000000000000000000000000 PUSH28 0xFFFFFFFFFFFFFFFFFFFFFFFFFFFFFFFFFFFFFFFFFFFFFFFFFFFFFFFF NOT AND PUSH1 0x20 DUP3 ADD DUP1 MLOAD PUSH28 0xFFFFFFFFFFFFFFFFFFFFFFFFFFFFFFFFFFFFFFFFFFFFFFFFFFFFFFFF DUP4 DUP2 DUP4 AND OR DUP4 MSTORE POP POP POP POP SWAP1 POP PUSH1 0x0 DUP1 PUSH1 0x0 SWAP1 SLOAD SWAP1 PUSH2 0x100 EXP SWAP1 DIV PUSH20 0xFFFFFFFFFFFFFFFFFFFFFFFFFFFFFFFFFFFFFFFF AND PUSH20 0xFFFFFFFFFFFFFFFFFFFFFFFFFFFFFFFFFFFFFFFF AND PUSH4 0x168D560D ADDRESS PUSH1 0x0 PUSH3 0x200B20 PUSH2 0xFA00 DUP11 DUP9 PUSH1 0x40 MLOAD DUP8 PUSH4 0xFFFFFFFF AND PUSH1 0xE0 SHL DUP2 MSTORE PUSH1 0x4 ADD PUSH2 0xB8D SWAP7 SWAP6 SWAP5 SWAP4 SWAP3 SWAP2 SWAP1 PUSH2 0x1BAB JUMP JUMPDEST PUSH1 0x0 PUSH1 0x40 MLOAD DUP1 DUP4 SUB DUP2 PUSH1 0x0 DUP8 GAS CALL ISZERO DUP1 ISZERO PUSH2 0xBAC JUMPI RETURNDATASIZE PUSH1 0x0 DUP1 RETURNDATACOPY RETURNDATASIZE PUSH1 0x0 REVERT JUMPDEST POP POP POP POP PUSH1 0x40 MLOAD RETURNDATASIZE PUSH1 0x0 DUP3 RETURNDATACOPY RETURNDATASIZE PUSH1 0x1F NOT PUSH1 0x1F DUP3 ADD AND DUP3 ADD DUP1 PUSH1 0x40 MSTORE POP DUP2 ADD SWAP1 PUSH2 0xBD5 SWAP2 SWAP1 PUSH2 0x1CB9 JUMP JUMPDEST SWAP1 POP DUP8 PUSH20 0xFFFFFFFFFFFFFFFFFFFFFFFFFFFFFFFFFFFFFFFF AND DUP2 PUSH1 0x40 MLOAD PUSH2 0xBFC SWAP2 SWAP1 PUSH2 0x1D3E JUMP JUMPDEST PUSH1 0x40 MLOAD DUP1 SWAP2 SUB SWAP1 KECCAK256 PUSH32 0xC9C9AFE41DD5E3A9438DD88814EDCB9C8089A9E980F48B14414EDA3D6D3D0E9A DUP10 DUP10 DUP10 TIMESTAMP PUSH2 0xC33 SWAP2 SWAP1 PUSH2 0x1D55 JUMP JUMPDEST PUSH1 0x40 MLOAD PUSH2 0xC42 SWAP4 SWAP3 SWAP2 SWAP1 PUSH2 0x1FD7 JUMP JUMPDEST PUSH1 0x40 MLOAD DUP1 SWAP2 SUB SWAP1 LOG3 POP POP POP POP POP POP POP POP JUMP JUMPDEST PUSH1 0x0 DUP7 SWAP1 POP PUSH1 0x0 PUSH1 0x1 PUSH1 0x0 SWAP1 SLOAD SWAP1 PUSH2 0x100 EXP SWAP1 DIV PUSH20 0xFFFFFFFFFFFFFFFFFFFFFFFFFFFFFFFFFFFFFFFF AND PUSH20 0xFFFFFFFFFFFFFFFFFFFFFFFFFFFFFFFFFFFFFFFF AND PUSH4 0x41976E09 DUP4 PUSH1 0x40 MLOAD DUP3 PUSH4 0xFFFFFFFF AND PUSH1 0xE0 SHL DUP2 MSTORE PUSH1 0x4 ADD PUSH2 0xCB6 SWAP2 SWAP1 PUSH2 0x1829 JUMP JUMPDEST PUSH1 0x20 PUSH1 0x40 MLOAD DUP1 DUP4 SUB DUP2 DUP7 GAS STATICCALL ISZERO DUP1 ISZERO PUSH2 0xCD3 JUMPI RETURNDATASIZE PUSH1 0x0 DUP1 RETURNDATACOPY RETURNDATASIZE PUSH1 0x0 REVERT JUMPDEST POP POP POP POP PUSH1 0x40 MLOAD RETURNDATASIZE PUSH1 0x1F NOT PUSH1 0x1F DUP3 ADD AND DUP3 ADD DUP1 PUSH1 0x40 MSTORE POP DUP2 ADD SWAP1 PUSH2 0xCF7 SWAP2 SWAP1 PUSH2 0x1859 JUMP JUMPDEST SWAP1 POP DUP5 DUP2 SUB PUSH2 0xD11 JUMPI PUSH2 0xD0C DUP9 DUP9 DUP9 DUP7 PUSH2 0xD29 JUMP JUMPDEST PUSH2 0xD1F JUMP JUMPDEST PUSH2 0xD1E DUP9 DUP9 DUP9 DUP9 DUP9 PUSH2 0x3D5 JUMP JUMPDEST JUMPDEST POP POP POP POP POP POP POP POP JUMP JUMPDEST PUSH1 0x0 DUP5 SWAP1 POP DUP3 MLOAD DUP5 MLOAD EQ PUSH2 0xD72 JUMPI PUSH1 0x40 MLOAD PUSH32 0x8C379A000000000000000000000000000000000000000000000000000000000 DUP2 MSTORE PUSH1 0x4 ADD PUSH2 0xD69 SWAP1 PUSH2 0x208E JUMP JUMPDEST PUSH1 0x40 MLOAD DUP1 SWAP2 SUB SWAP1 REVERT JUMPDEST PUSH1 0x0 DUP1 JUMPDEST DUP5 MLOAD DUP2 LT ISZERO PUSH2 0xDBA JUMPI DUP5 DUP2 DUP2 MLOAD DUP2 LT PUSH2 0xD92 JUMPI PUSH2 0xD91 PUSH2 0x1774 JUMP JUMPDEST JUMPDEST PUSH1 0x20 MUL PUSH1 0x20 ADD ADD MLOAD DUP3 PUSH2 0xDA5 SWAP2 SWAP1 PUSH2 0x1D55 JUMP JUMPDEST SWAP2 POP DUP1 DUP1 PUSH2 0xDB2 SWAP1 PUSH2 0x17D2 JUMP JUMPDEST SWAP2 POP POP PUSH2 0xD76 JUMP JUMPDEST POP DUP2 PUSH20 0xFFFFFFFFFFFFFFFFFFFFFFFFFFFFFFFFFFFFFFFF AND PUSH4 0x23B872DD DUP5 ADDRESS DUP5 PUSH1 0x40 MLOAD DUP5 PUSH4 0xFFFFFFFF AND PUSH1 0xE0 SHL DUP2 MSTORE PUSH1 0x4 ADD PUSH2 0xDF8 SWAP4 SWAP3 SWAP2 SWAP1 PUSH2 0x1D89 JUMP JUMPDEST PUSH1 0x20 PUSH1 0x40 MLOAD DUP1 DUP4 SUB DUP2 PUSH1 0x0 DUP8 GAS CALL ISZERO DUP1 ISZERO PUSH2 0xE17 JUMPI RETURNDATASIZE PUSH1 0x0 DUP1 RETURNDATACOPY RETURNDATASIZE PUSH1 0x0 REVERT JUMPDEST POP POP POP POP PUSH1 0x40 MLOAD RETURNDATASIZE PUSH1 0x1F NOT PUSH1 0x1F DUP3 ADD AND DUP3 ADD DUP1 PUSH1 0x40 MSTORE POP DUP2 ADD SWAP1 PUSH2 0xE3B SWAP2 SWAP1 PUSH2 0x1DF8 JUMP JUMPDEST PUSH2 0xE7A JUMPI PUSH1 0x40 MLOAD PUSH32 0x8C379A000000000000000000000000000000000000000000000000000000000 DUP2 MSTORE PUSH1 0x4 ADD PUSH2 0xE71 SWAP1 PUSH2 0x1F06 JUMP JUMPDEST PUSH1 0x40 MLOAD DUP1 SWAP2 SUB SWAP1 REVERT JUMPDEST PUSH1 0x0 JUMPDEST DUP6 MLOAD DUP2 LT ISZERO PUSH2 0xF4C JUMPI DUP3 PUSH20 0xFFFFFFFFFFFFFFFFFFFFFFFFFFFFFFFFFFFFFFFF AND PUSH4 0xA9059CBB DUP8 DUP4 DUP2 MLOAD DUP2 LT PUSH2 0xEB5 JUMPI PUSH2 0xEB4 PUSH2 0x1774 JUMP JUMPDEST JUMPDEST PUSH1 0x20 MUL PUSH1 0x20 ADD ADD MLOAD DUP8 DUP5 DUP2 MLOAD DUP2 LT PUSH2 0xED0 JUMPI PUSH2 0xECF PUSH2 0x1774 JUMP JUMPDEST JUMPDEST PUSH1 0x20 MUL PUSH1 0x20 ADD ADD MLOAD PUSH1 0x40 MLOAD DUP4 PUSH4 0xFFFFFFFF AND PUSH1 0xE0 SHL DUP2 MSTORE PUSH1 0x4 ADD PUSH2 0xEF5 SWAP3 SWAP2 SWAP1 PUSH2 0x1E91 JUMP JUMPDEST PUSH1 0x20 PUSH1 0x40 MLOAD DUP1 DUP4 SUB DUP2 PUSH1 0x0 DUP8 GAS CALL ISZERO DUP1 ISZERO PUSH2 0xF14 JUMPI RETURNDATASIZE PUSH1 0x0 DUP1 RETURNDATACOPY RETURNDATASIZE PUSH1 0x0 REVERT JUMPDEST POP POP POP POP PUSH1 0x40 MLOAD RETURNDATASIZE PUSH1 0x1F NOT PUSH1 0x1F DUP3 ADD AND DUP3 ADD DUP1 PUSH1 0x40 MSTORE POP DUP2 ADD SWAP1 PUSH2 0xF38 SWAP2 SWAP1 PUSH2 0x1DF8 JUMP JUMPDEST POP DUP1 DUP1 PUSH2 0xF44 SWAP1 PUSH2 0x17D2 JUMP JUMPDEST SWAP2 POP POP PUSH2 0xE7D JUMP JUMPDEST POP POP POP POP POP POP POP JUMP JUMPDEST PUSH1 0x0 PUSH1 0x40 MLOAD SWAP1 POP SWAP1 JUMP JUMPDEST PUSH1 0x0 DUP1 REVERT JUMPDEST PUSH1 0x0 DUP1 REVERT JUMPDEST PUSH1 0x0 DUP1 REVERT JUMPDEST PUSH1 0x0 PUSH1 0x1F NOT PUSH1 0x1F DUP4 ADD AND SWAP1 POP SWAP2 SWAP1 POP JUMP JUMPDEST PUSH32 0x4E487B7100000000000000000000000000000000000000000000000000000000 PUSH1 0x0 MSTORE PUSH1 0x41 PUSH1 0x4 MSTORE PUSH1 0x24 PUSH1 0x0 REVERT JUMPDEST PUSH2 0xFB7 DUP3 PUSH2 0xF6E JUMP JUMPDEST DUP2 ADD DUP2 DUP2 LT PUSH8 0xFFFFFFFFFFFFFFFF DUP3 GT OR ISZERO PUSH2 0xFD6 JUMPI PUSH2 0xFD5 PUSH2 0xF7F JUMP JUMPDEST JUMPDEST DUP1 PUSH1 0x40 MSTORE POP POP POP JUMP JUMPDEST PUSH1 0x0 PUSH2 0xFE9 PUSH2 0xF55 JUMP JUMPDEST SWAP1 POP PUSH2 0xFF5 DUP3 DUP3 PUSH2 0xFAE JUMP JUMPDEST SWAP2 SWAP1 POP JUMP JUMPDEST PUSH1 0x0 PUSH8 0xFFFFFFFFFFFFFFFF DUP3 GT ISZERO PUSH2 0x1015 JUMPI PUSH2 0x1014 PUSH2 0xF7F JUMP JUMPDEST JUMPDEST PUSH1 0x20 DUP3 MUL SWAP1 POP PUSH1 0x20 DUP2 ADD SWAP1 POP SWAP2 SWAP1 POP JUMP JUMPDEST PUSH1 0x0 DUP1 REVERT JUMPDEST PUSH1 0x0 PUSH20 0xFFFFFFFFFFFFFFFFFFFFFFFFFFFFFFFFFFFFFFFF DUP3 AND SWAP1 POP SWAP2 SWAP1 POP JUMP JUMPDEST PUSH1 0x0 PUSH2 0x1056 DUP3 PUSH2 0x102B JUMP JUMPDEST SWAP1 POP SWAP2 SWAP1 POP JUMP JUMPDEST PUSH2 0x1066 DUP2 PUSH2 0x104B JUMP JUMPDEST DUP2 EQ PUSH2 0x1071 JUMPI PUSH1 0x0 DUP1 REVERT JUMPDEST POP JUMP JUMPDEST PUSH1 0x0 DUP2 CALLDATALOAD SWAP1 POP PUSH2 0x1083 DUP2 PUSH2 0x105D JUMP JUMPDEST SWAP3 SWAP2 POP POP JUMP JUMPDEST PUSH1 0x0 PUSH2 0x109C PUSH2 0x1097 DUP5 PUSH2 0xFFA JUMP JUMPDEST PUSH2 0xFDF JUMP JUMPDEST SWAP1 POP DUP1 DUP4 DUP3 MSTORE PUSH1 0x20 DUP3 ADD SWAP1 POP PUSH1 0x20 DUP5 MUL DUP4 ADD DUP6 DUP2 GT ISZERO PUSH2 0x10BF JUMPI PUSH2 0x10BE PUSH2 0x1026 JUMP JUMPDEST JUMPDEST DUP4 JUMPDEST DUP2 DUP2 LT ISZERO PUSH2 0x10E8 JUMPI DUP1 PUSH2 0x10D4 DUP9 DUP3 PUSH2 0x1074 JUMP JUMPDEST DUP5 MSTORE PUSH1 0x20 DUP5 ADD SWAP4 POP POP PUSH1 0x20 DUP2 ADD SWAP1 POP PUSH2 0x10C1 JUMP JUMPDEST POP POP POP SWAP4 SWAP3 POP POP POP JUMP JUMPDEST PUSH1 0x0 DUP3 PUSH1 0x1F DUP4 ADD SLT PUSH2 0x1107 JUMPI PUSH2 0x1106 PUSH2 0xF69 JUMP JUMPDEST JUMPDEST DUP2 CALLDATALOAD PUSH2 0x1117 DUP5 DUP3 PUSH1 0x20 DUP7 ADD PUSH2 0x1089 JUMP JUMPDEST SWAP2 POP POP SWAP3 SWAP2 POP POP JUMP JUMPDEST PUSH1 0x0 PUSH8 0xFFFFFFFFFFFFFFFF DUP3 GT ISZERO PUSH2 0x113B JUMPI PUSH2 0x113A PUSH2 0xF7F JUMP JUMPDEST JUMPDEST PUSH1 0x20 DUP3 MUL SWAP1 POP PUSH1 0x20 DUP2 ADD SWAP1 POP SWAP2 SWAP1 POP JUMP JUMPDEST PUSH1 0x0 DUP2 SWAP1 POP SWAP2 SWAP1 POP JUMP JUMPDEST PUSH2 0x115F DUP2 PUSH2 0x114C JUMP JUMPDEST DUP2 EQ PUSH2 0x116A JUMPI PUSH1 0x0 DUP1 REVERT JUMPDEST POP JUMP JUMPDEST PUSH1 0x0 DUP2 CALLDATALOAD SWAP1 POP PUSH2 0x117C DUP2 PUSH2 0x1156 JUMP JUMPDEST SWAP3 SWAP2 POP POP JUMP JUMPDEST PUSH1 0x0 PUSH2 0x1195 PUSH2 0x1190 DUP5 PUSH2 0x1120 JUMP JUMPDEST PUSH2 0xFDF JUMP JUMPDEST SWAP1 POP DUP1 DUP4 DUP3 MSTORE PUSH1 0x20 DUP3 ADD SWAP1 POP PUSH1 0x20 DUP5 MUL DUP4 ADD DUP6 DUP2 GT ISZERO PUSH2 0x11B8 JUMPI PUSH2 0x11B7 PUSH2 0x1026 JUMP JUMPDEST JUMPDEST DUP4 JUMPDEST DUP2 DUP2 LT ISZERO PUSH2 0x11E1 JUMPI DUP1 PUSH2 0x11CD DUP9 DUP3 PUSH2 0x116D JUMP JUMPDEST DUP5 MSTORE PUSH1 0x20 DUP5 ADD SWAP4 POP POP PUSH1 0x20 DUP2 ADD SWAP1 POP PUSH2 0x11BA JUMP JUMPDEST POP POP POP SWAP4 SWAP3 POP POP POP JUMP JUMPDEST PUSH1 0x0 DUP3 PUSH1 0x1F DUP4 ADD SLT PUSH2 0x1200 JUMPI PUSH2 0x11FF PUSH2 0xF69 JUMP JUMPDEST JUMPDEST DUP2 CALLDATALOAD PUSH2 0x1210 DUP5 DUP3 PUSH1 0x20 DUP7 ADD PUSH2 0x1182 JUMP JUMPDEST SWAP2 POP POP SWAP3 SWAP2 POP POP JUMP JUMPDEST PUSH1 0x0 DUP1 PUSH1 0x40 DUP4 DUP6 SUB SLT ISZERO PUSH2 0x1230 JUMPI PUSH2 0x122F PUSH2 0xF5F JUMP JUMPDEST JUMPDEST PUSH1 0x0 DUP4 ADD CALLDATALOAD PUSH8 0xFFFFFFFFFFFFFFFF DUP2 GT ISZERO PUSH2 0x124E JUMPI PUSH2 0x124D PUSH2 0xF64 JUMP JUMPDEST JUMPDEST PUSH2 0x125A DUP6 DUP3 DUP7 ADD PUSH2 0x10F2 JUMP JUMPDEST SWAP3 POP POP PUSH1 0x20 DUP4 ADD CALLDATALOAD PUSH8 0xFFFFFFFFFFFFFFFF DUP2 GT ISZERO PUSH2 0x127B JUMPI PUSH2 0x127A PUSH2 0xF64 JUMP JUMPDEST JUMPDEST PUSH2 0x1287 DUP6 DUP3 DUP7 ADD PUSH2 0x11EB JUMP JUMPDEST SWAP2 POP POP SWAP3 POP SWAP3 SWAP1 POP JUMP JUMPDEST PUSH1 0x0 PUSH2 0x129C DUP3 PUSH2 0x102B JUMP JUMPDEST SWAP1 POP SWAP2 SWAP1 POP JUMP JUMPDEST PUSH2 0x12AC DUP2 PUSH2 0x1291 JUMP JUMPDEST DUP2 EQ PUSH2 0x12B7 JUMPI PUSH1 0x0 DUP1 REVERT JUMPDEST POP JUMP JUMPDEST PUSH1 0x0 DUP2 CALLDATALOAD SWAP1 POP PUSH2 0x12C9 DUP2 PUSH2 0x12A3 JUMP JUMPDEST SWAP3 SWAP2 POP POP JUMP JUMPDEST PUSH1 0x0 PUSH1 0x20 DUP3 DUP5 SUB SLT ISZERO PUSH2 0x12E5 JUMPI PUSH2 0x12E4 PUSH2 0xF5F JUMP JUMPDEST JUMPDEST PUSH1 0x0 PUSH2 0x12F3 DUP5 DUP3 DUP6 ADD PUSH2 0x12BA JUMP JUMPDEST SWAP2 POP POP SWAP3 SWAP2 POP POP JUMP JUMPDEST PUSH2 0x1305 DUP2 PUSH2 0x114C JUMP JUMPDEST DUP3 MSTORE POP POP JUMP JUMPDEST PUSH1 0x0 PUSH1 0x20 DUP3 ADD SWAP1 POP PUSH2 0x1320 PUSH1 0x0 DUP4 ADD DUP5 PUSH2 0x12FC JUMP JUMPDEST SWAP3 SWAP2 POP POP JUMP JUMPDEST PUSH1 0x0 PUSH8 0xFFFFFFFFFFFFFFFF DUP3 GT ISZERO PUSH2 0x1341 JUMPI PUSH2 0x1340 PUSH2 0xF7F JUMP JUMPDEST JUMPDEST PUSH1 0x20 DUP3 MUL SWAP1 POP PUSH1 0x20 DUP2 ADD SWAP1 POP SWAP2 SWAP1 POP JUMP JUMPDEST PUSH1 0x0 PUSH2 0x1365 PUSH2 0x1360 DUP5 PUSH2 0x1326 JUMP JUMPDEST PUSH2 0xFDF JUMP JUMPDEST SWAP1 POP DUP1 DUP4 DUP3 MSTORE PUSH1 0x20 DUP3 ADD SWAP1 POP PUSH1 0x20 DUP5 MUL DUP4 ADD DUP6 DUP2 GT ISZERO PUSH2 0x1388 JUMPI PUSH2 0x1387 PUSH2 0x1026 JUMP JUMPDEST JUMPDEST DUP4 JUMPDEST DUP2 DUP2 LT ISZERO PUSH2 0x13B1 JUMPI DUP1 PUSH2 0x139D DUP9 DUP3 PUSH2 0x12BA JUMP JUMPDEST DUP5 MSTORE PUSH1 0x20 DUP5 ADD SWAP4 POP POP PUSH1 0x20 DUP2 ADD SWAP1 POP PUSH2 0x138A JUMP JUMPDEST POP POP POP SWAP4 SWAP3 POP POP POP JUMP JUMPDEST PUSH1 0x0 DUP3 PUSH1 0x1F DUP4 ADD SLT PUSH2 0x13D0 JUMPI PUSH2 0x13CF PUSH2 0xF69 JUMP JUMPDEST JUMPDEST DUP2 CALLDATALOAD PUSH2 0x13E0 DUP5 DUP3 PUSH1 0x20 DUP7 ADD PUSH2 0x1352 JUMP JUMPDEST SWAP2 POP POP SWAP3 SWAP2 POP POP JUMP JUMPDEST PUSH1 0x0 DUP1 PUSH1 0x0 DUP1 PUSH1 0x0 PUSH1 0xA0 DUP7 DUP9 SUB SLT ISZERO PUSH2 0x1405 JUMPI PUSH2 0x1404 PUSH2 0xF5F JUMP JUMPDEST JUMPDEST PUSH1 0x0 PUSH2 0x1413 DUP9 DUP3 DUP10 ADD PUSH2 0x12BA JUMP JUMPDEST SWAP6 POP POP PUSH1 0x20 DUP7 ADD CALLDATALOAD PUSH8 0xFFFFFFFFFFFFFFFF DUP2 GT ISZERO PUSH2 0x1434 JUMPI PUSH2 0x1433 PUSH2 0xF64 JUMP JUMPDEST JUMPDEST PUSH2 0x1440 DUP9 DUP3 DUP10 ADD PUSH2 0x13BB JUMP JUMPDEST SWAP5 POP POP PUSH1 0x40 DUP7 ADD CALLDATALOAD PUSH8 0xFFFFFFFFFFFFFFFF DUP2 GT ISZERO PUSH2 0x1461 JUMPI PUSH2 0x1460 PUSH2 0xF64 JUMP JUMPDEST JUMPDEST PUSH2 0x146D DUP9 DUP3 DUP10 ADD PUSH2 0x11EB JUMP JUMPDEST SWAP4 POP POP PUSH1 0x60 PUSH2 0x147E DUP9 DUP3 DUP10 ADD PUSH2 0x116D JUMP JUMPDEST SWAP3 POP POP PUSH1 0x80 PUSH2 0x148F DUP9 DUP3 DUP10 ADD PUSH2 0x116D JUMP JUMPDEST SWAP2 POP POP SWAP3 SWAP6 POP SWAP3 SWAP6 SWAP1 SWAP4 POP JUMP JUMPDEST PUSH1 0x0 DUP1 PUSH1 0x0 PUSH1 0x60 DUP5 DUP7 SUB SLT ISZERO PUSH2 0x14B5 JUMPI PUSH2 0x14B4 PUSH2 0xF5F JUMP JUMPDEST JUMPDEST PUSH1 0x0 PUSH2 0x14C3 DUP7 DUP3 DUP8 ADD PUSH2 0x12BA JUMP JUMPDEST SWAP4 POP POP PUSH1 0x20 DUP5 ADD CALLDATALOAD PUSH8 0xFFFFFFFFFFFFFFFF DUP2 GT ISZERO PUSH2 0x14E4 JUMPI PUSH2 0x14E3 PUSH2 0xF64 JUMP JUMPDEST JUMPDEST PUSH2 0x14F0 DUP7 DUP3 DUP8 ADD PUSH2 0x13BB JUMP JUMPDEST SWAP3 POP POP PUSH1 0x40 DUP5 ADD CALLDATALOAD PUSH8 0xFFFFFFFFFFFFFFFF DUP2 GT ISZERO PUSH2 0x1511 JUMPI PUSH2 0x1510 PUSH2 0xF64 JUMP JUMPDEST JUMPDEST PUSH2 0x151D DUP7 DUP3 DUP8 ADD PUSH2 0x11EB JUMP JUMPDEST SWAP2 POP POP SWAP3 POP SWAP3 POP SWAP3 JUMP JUMPDEST PUSH1 0x0 DUP1 PUSH1 0x0 DUP1 PUSH1 0x80 DUP6 DUP8 SUB SLT ISZERO PUSH2 0x1541 JUMPI PUSH2 0x1540 PUSH2 0xF5F JUMP JUMPDEST JUMPDEST PUSH1 0x0 PUSH2 0x154F DUP8 DUP3 DUP9 ADD PUSH2 0x12BA JUMP JUMPDEST SWAP5 POP POP PUSH1 0x20 DUP6 ADD CALLDATALOAD PUSH8 0xFFFFFFFFFFFFFFFF DUP2 GT ISZERO PUSH2 0x1570 JUMPI PUSH2 0x156F PUSH2 0xF64 JUMP JUMPDEST JUMPDEST PUSH2 0x157C DUP8 DUP3 DUP9 ADD PUSH2 0x13BB JUMP JUMPDEST SWAP4 POP POP PUSH1 0x40 DUP6 ADD CALLDATALOAD PUSH8 0xFFFFFFFFFFFFFFFF DUP2 GT ISZERO PUSH2 0x159D JUMPI PUSH2 0x159C PUSH2 0xF64 JUMP JUMPDEST JUMPDEST PUSH2 0x15A9 DUP8 DUP3 DUP9 ADD PUSH2 0x11EB JUMP JUMPDEST SWAP3 POP POP PUSH1 0x60 PUSH2 0x15BA DUP8 DUP3 DUP9 ADD PUSH2 0x116D JUMP JUMPDEST SWAP2 POP POP SWAP3 SWAP6 SWAP2 SWAP5 POP SWAP3 POP JUMP JUMPDEST PUSH1 0x0 DUP1 PUSH1 0x0 DUP1 PUSH1 0x0 DUP1 PUSH1 0xC0 DUP8 DUP10 SUB SLT ISZERO PUSH2 0x15E3 JUMPI PUSH2 0x15E2 PUSH2 0xF5F JUMP JUMPDEST JUMPDEST PUSH1 0x0 PUSH2 0x15F1 DUP10 DUP3 DUP11 ADD PUSH2 0x12BA JUMP JUMPDEST SWAP7 POP POP PUSH1 0x20 DUP8 ADD CALLDATALOAD PUSH8 0xFFFFFFFFFFFFFFFF DUP2 GT ISZERO PUSH2 0x1612 JUMPI PUSH2 0x1611 PUSH2 0xF64 JUMP JUMPDEST JUMPDEST PUSH2 0x161E DUP10 DUP3 DUP11 ADD PUSH2 0x13BB JUMP JUMPDEST SWAP6 POP POP PUSH1 0x40 DUP8 ADD CALLDATALOAD PUSH8 0xFFFFFFFFFFFFFFFF DUP2 GT ISZERO PUSH2 0x163F JUMPI PUSH2 0x163E PUSH2 0xF64 JUMP JUMPDEST JUMPDEST PUSH2 0x164B DUP10 DUP3 DUP11 ADD PUSH2 0x11EB JUMP JUMPDEST SWAP5 POP POP PUSH1 0x60 PUSH2 0x165C DUP10 DUP3 DUP11 ADD PUSH2 0x116D JUMP JUMPDEST SWAP4 POP POP PUSH1 0x80 PUSH2 0x166D DUP10 DUP3 DUP11 ADD PUSH2 0x116D JUMP JUMPDEST SWAP3 POP POP PUSH1 0xA0 PUSH2 0x167E DUP10 DUP3 DUP11 ADD PUSH2 0x12BA JUMP JUMPDEST SWAP2 POP POP SWAP3 SWAP6 POP SWAP3 SWAP6 POP SWAP3 SWAP6 JUMP JUMPDEST PUSH1 0x0 DUP3 DUP3 MSTORE PUSH1 0x20 DUP3 ADD SWAP1 POP SWAP3 SWAP2 POP POP JUMP JUMPDEST PUSH32 0x4769766520696E70757473206163636F7264696E676C79210000000000000000 PUSH1 0x0 DUP3 ADD MSTORE POP JUMP JUMPDEST PUSH1 0x0 PUSH2 0x16D2 PUSH1 0x18 DUP4 PUSH2 0x168B JUMP JUMPDEST SWAP2 POP PUSH2 0x16DD DUP3 PUSH2 0x169C JUMP JUMPDEST PUSH1 0x20 DUP3 ADD SWAP1 POP SWAP2 SWAP1 POP JUMP JUMPDEST PUSH1 0x0 PUSH1 0x20 DUP3 ADD SWAP1 POP DUP2 DUP2 SUB PUSH1 0x0 DUP4 ADD MSTORE PUSH2 0x1701 DUP2 PUSH2 0x16C5 JUMP JUMPDEST SWAP1 POP SWAP2 SWAP1 POP JUMP JUMPDEST PUSH32 0x596F75206E65656420746F2073656E6420736F6D652045544820706C65617365 PUSH1 0x0 DUP3 ADD MSTORE POP JUMP JUMPDEST PUSH1 0x0 PUSH2 0x173E PUSH1 0x20 DUP4 PUSH2 0x168B JUMP JUMPDEST SWAP2 POP PUSH2 0x1749 DUP3 PUSH2 0x1708 JUMP JUMPDEST PUSH1 0x20 DUP3 ADD SWAP1 POP SWAP2 SWAP1 POP JUMP JUMPDEST PUSH1 0x0 PUSH1 0x20 DUP3 ADD SWAP1 POP DUP2 DUP2 SUB PUSH1 0x0 DUP4 ADD MSTORE PUSH2 0x176D DUP2 PUSH2 0x1731 JUMP JUMPDEST SWAP1 POP SWAP2 SWAP1 POP JUMP JUMPDEST PUSH32 0x4E487B7100000000000000000000000000000000000000000000000000000000 PUSH1 0x0 MSTORE PUSH1 0x32 PUSH1 0x4 MSTORE PUSH1 0x24 PUSH1 0x0 REVERT JUMPDEST PUSH32 0x4E487B7100000000000000000000000000000000000000000000000000000000 PUSH1 0x0 MSTORE PUSH1 0x11 PUSH1 0x4 MSTORE PUSH1 0x24 PUSH1 0x0 REVERT JUMPDEST PUSH1 0x0 PUSH2 0x17DD DUP3 PUSH2 0x114C JUMP JUMPDEST SWAP2 POP PUSH32 0xFFFFFFFFFFFFFFFFFFFFFFFFFFFFFFFFFFFFFFFFFFFFFFFFFFFFFFFFFFFFFFFF DUP3 SUB PUSH2 0x180F JUMPI PUSH2 0x180E PUSH2 0x17A3 JUMP JUMPDEST JUMPDEST PUSH1 0x1 DUP3 ADD SWAP1 POP SWAP2 SWAP1 POP JUMP JUMPDEST PUSH2 0x1823 DUP2 PUSH2 0x1291 JUMP JUMPDEST DUP3 MSTORE POP POP JUMP JUMPDEST PUSH1 0x0 PUSH1 0x20 DUP3 ADD SWAP1 POP PUSH2 0x183E PUSH1 0x0 DUP4 ADD DUP5 PUSH2 0x181A JUMP JUMPDEST SWAP3 SWAP2 POP POP JUMP JUMPDEST PUSH1 0x0 DUP2 MLOAD SWAP1 POP PUSH2 0x1853 DUP2 PUSH2 0x1156 JUMP JUMPDEST SWAP3 SWAP2 POP POP JUMP JUMPDEST PUSH1 0x0 PUSH1 0x20 DUP3 DUP5 SUB SLT ISZERO PUSH2 0x186F JUMPI PUSH2 0x186E PUSH2 0xF5F JUMP JUMPDEST JUMPDEST PUSH1 0x0 PUSH2 0x187D DUP5 DUP3 DUP6 ADD PUSH2 0x1844 JUMP JUMPDEST SWAP2 POP POP SWAP3 SWAP2 POP POP JUMP JUMPDEST PUSH1 0x0 DUP2 MLOAD SWAP1 POP SWAP2 SWAP1 POP JUMP JUMPDEST PUSH1 0x0 DUP3 DUP3 MSTORE PUSH1 0x20 DUP3 ADD SWAP1 POP SWAP3 SWAP2 POP POP JUMP JUMPDEST PUSH1 0x0 DUP2 SWAP1 POP PUSH1 0x20 DUP3 ADD SWAP1 POP SWAP2 SWAP1 POP JUMP JUMPDEST PUSH2 0x18BB DUP2 PUSH2 0x1291 JUMP JUMPDEST DUP3 MSTORE POP POP JUMP JUMPDEST PUSH1 0x0 PUSH2 0x18CD DUP4 DUP4 PUSH2 0x18B2 JUMP JUMPDEST PUSH1 0x20 DUP4 ADD SWAP1 POP SWAP3 SWAP2 POP POP JUMP JUMPDEST PUSH1 0x0 PUSH1 0x20 DUP3 ADD SWAP1 POP SWAP2 SWAP1 POP JUMP JUMPDEST PUSH1 0x0 PUSH2 0x18F1 DUP3 PUSH2 0x1886 JUMP JUMPDEST PUSH2 0x18FB DUP2 DUP6 PUSH2 0x1891 JUMP JUMPDEST SWAP4 POP PUSH2 0x1906 DUP4 PUSH2 0x18A2 JUMP JUMPDEST DUP1 PUSH1 0x0 JUMPDEST DUP4 DUP2 LT ISZERO PUSH2 0x1937 JUMPI DUP2 MLOAD PUSH2 0x191E DUP9 DUP3 PUSH2 0x18C1 JUMP JUMPDEST SWAP8 POP PUSH2 0x1929 DUP4 PUSH2 0x18D9 JUMP JUMPDEST SWAP3 POP POP PUSH1 0x1 DUP2 ADD SWAP1 POP PUSH2 0x190A JUMP JUMPDEST POP DUP6 SWAP4 POP POP POP POP SWAP3 SWAP2 POP POP JUMP JUMPDEST PUSH1 0x0 DUP2 MLOAD SWAP1 POP SWAP2 SWAP1 POP JUMP JUMPDEST PUSH1 0x0 DUP3 DUP3 MSTORE PUSH1 0x20 DUP3 ADD SWAP1 POP SWAP3 SWAP2 POP POP JUMP JUMPDEST PUSH1 0x0 DUP2 SWAP1 POP PUSH1 0x20 DUP3 ADD SWAP1 POP SWAP2 SWAP1 POP JUMP JUMPDEST PUSH2 0x1979 DUP2 PUSH2 0x114C JUMP JUMPDEST DUP3 MSTORE POP POP JUMP JUMPDEST PUSH1 0x0 PUSH2 0x198B DUP4 DUP4 PUSH2 0x1970 JUMP JUMPDEST PUSH1 0x20 DUP4 ADD SWAP1 POP SWAP3 SWAP2 POP POP JUMP JUMPDEST PUSH1 0x0 PUSH1 0x20 DUP3 ADD SWAP1 POP SWAP2 SWAP1 POP JUMP JUMPDEST PUSH1 0x0 PUSH2 0x19AF DUP3 PUSH2 0x1944 JUMP JUMPDEST PUSH2 0x19B9 DUP2 DUP6 PUSH2 0x194F JUMP JUMPDEST SWAP4 POP PUSH2 0x19C4 DUP4 PUSH2 0x1960 JUMP JUMPDEST DUP1 PUSH1 0x0 JUMPDEST DUP4 DUP2 LT ISZERO PUSH2 0x19F5 JUMPI DUP2 MLOAD PUSH2 0x19DC DUP9 DUP3 PUSH2 0x197F JUMP JUMPDEST SWAP8 POP PUSH2 0x19E7 DUP4 PUSH2 0x1997 JUMP JUMPDEST SWAP3 POP POP PUSH1 0x1 DUP2 ADD SWAP1 POP PUSH2 0x19C8 JUMP JUMPDEST POP DUP6 SWAP4 POP POP POP POP SWAP3 SWAP2 POP POP JUMP JUMPDEST PUSH1 0x0 PUSH1 0xC0 DUP3 ADD SWAP1 POP PUSH2 0x1A17 PUSH1 0x0 DUP4 ADD DUP10 PUSH2 0x181A JUMP JUMPDEST DUP2 DUP2 SUB PUSH1 0x20 DUP4 ADD MSTORE PUSH2 0x1A29 DUP2 DUP9 PUSH2 0x18E6 JUMP JUMPDEST SWAP1 POP DUP2 DUP2 SUB PUSH1 0x40 DUP4 ADD MSTORE PUSH2 0x1A3D DUP2 DUP8 PUSH2 0x19A4 JUMP JUMPDEST SWAP1 POP PUSH2 0x1A4C PUSH1 0x60 DUP4 ADD DUP7 PUSH2 0x12FC JUMP JUMPDEST PUSH2 0x1A59 PUSH1 0x80 DUP4 ADD DUP6 PUSH2 0x12FC JUMP JUMPDEST PUSH2 0x1A66 PUSH1 0xA0 DUP4 ADD DUP5 PUSH2 0x181A JUMP JUMPDEST SWAP8 SWAP7 POP POP POP POP POP POP POP JUMP JUMPDEST PUSH1 0x0 DUP2 SWAP1 POP SWAP2 SWAP1 POP JUMP JUMPDEST PUSH1 0x0 DUP2 SWAP1 POP SWAP2 SWAP1 POP JUMP JUMPDEST PUSH1 0x0 PUSH2 0x1AA0 PUSH2 0x1A9B PUSH2 0x1A96 DUP5 PUSH2 0x1A71 JUMP JUMPDEST PUSH2 0x1A7B JUMP JUMPDEST PUSH2 0x114C JUMP JUMPDEST SWAP1 POP SWAP2 SWAP1 POP JUMP JUMPDEST PUSH2 0x1AB0 DUP2 PUSH2 0x1A85 JUMP JUMPDEST DUP3 MSTORE POP POP JUMP JUMPDEST PUSH1 0x0 DUP2 SWAP1 POP SWAP2 SWAP1 POP JUMP JUMPDEST PUSH1 0x0 PUSH2 0x1ADB PUSH2 0x1AD6 PUSH2 0x1AD1 DUP5 PUSH2 0x1AB6 JUMP JUMPDEST PUSH2 0x1A7B JUMP JUMPDEST PUSH2 0x114C JUMP JUMPDEST SWAP1 POP SWAP2 SWAP1 POP JUMP JUMPDEST PUSH2 0x1AEB DUP2 PUSH2 0x1AC0 JUMP JUMPDEST DUP3 MSTORE POP POP JUMP JUMPDEST PUSH1 0x0 DUP2 SWAP1 POP SWAP2 SWAP1 POP JUMP JUMPDEST PUSH1 0x0 PUSH2 0x1B16 PUSH2 0x1B11 PUSH2 0x1B0C DUP5 PUSH2 0x1AF1 JUMP JUMPDEST PUSH2 0x1A7B JUMP JUMPDEST PUSH2 0x114C JUMP JUMPDEST SWAP1 POP SWAP2 SWAP1 POP JUMP JUMPDEST PUSH2 0x1B26 DUP2 PUSH2 0x1AFB JUMP JUMPDEST DUP3 MSTORE POP POP JUMP JUMPDEST PUSH1 0x0 DUP2 MLOAD SWAP1 POP SWAP2 SWAP1 POP JUMP JUMPDEST PUSH1 0x0 DUP3 DUP3 MSTORE PUSH1 0x20 DUP3 ADD SWAP1 POP SWAP3 SWAP2 POP POP JUMP JUMPDEST PUSH1 0x0 JUMPDEST DUP4 DUP2 LT ISZERO PUSH2 0x1B66 JUMPI DUP1 DUP3 ADD MLOAD DUP2 DUP5 ADD MSTORE PUSH1 0x20 DUP2 ADD SWAP1 POP PUSH2 0x1B4B JUMP JUMPDEST PUSH1 0x0 DUP5 DUP5 ADD MSTORE POP POP POP POP JUMP JUMPDEST PUSH1 0x0 PUSH2 0x1B7D DUP3 PUSH2 0x1B2C JUMP JUMPDEST PUSH2 0x1B87 DUP2 DUP6 PUSH2 0x1B37 JUMP JUMPDEST SWAP4 POP PUSH2 0x1B97 DUP2 DUP6 PUSH1 0x20 DUP7 ADD PUSH2 0x1B48 JUMP JUMPDEST PUSH2 0x1BA0 DUP2 PUSH2 0xF6E JUMP JUMPDEST DUP5 ADD SWAP2 POP POP SWAP3 SWAP2 POP POP JUMP JUMPDEST PUSH1 0x0 PUSH1 0xC0 DUP3 ADD SWAP1 POP PUSH2 0x1BC0 PUSH1 0x0 DUP4 ADD DUP10 PUSH2 0x181A JUMP JUMPDEST PUSH2 0x1BCD PUSH1 0x20 DUP4 ADD DUP9 PUSH2 0x1AA7 JUMP JUMPDEST PUSH2 0x1BDA PUSH1 0x40 DUP4 ADD DUP8 PUSH2 0x1AE2 JUMP JUMPDEST PUSH2 0x1BE7 PUSH1 0x60 DUP4 ADD DUP7 PUSH2 0x1B1D JUMP JUMPDEST PUSH2 0x1BF4 PUSH1 0x80 DUP4 ADD DUP6 PUSH2 0x12FC JUMP JUMPDEST DUP2 DUP2 SUB PUSH1 0xA0 DUP4 ADD MSTORE PUSH2 0x1C06 DUP2 DUP5 PUSH2 0x1B72 JUMP JUMPDEST SWAP1 POP SWAP8 SWAP7 POP POP POP POP POP POP POP JUMP JUMPDEST PUSH1 0x0 DUP1 REVERT JUMPDEST PUSH1 0x0 PUSH8 0xFFFFFFFFFFFFFFFF DUP3 GT ISZERO PUSH2 0x1C33 JUMPI PUSH2 0x1C32 PUSH2 0xF7F JUMP JUMPDEST JUMPDEST PUSH2 0x1C3C DUP3 PUSH2 0xF6E JUMP JUMPDEST SWAP1 POP PUSH1 0x20 DUP2 ADD SWAP1 POP SWAP2 SWAP1 POP JUMP JUMPDEST PUSH1 0x0 PUSH2 0x1C5C PUSH2 0x1C57 DUP5 PUSH2 0x1C18 JUMP JUMPDEST PUSH2 0xFDF JUMP JUMPDEST SWAP1 POP DUP3 DUP2 MSTORE PUSH1 0x20 DUP2 ADD DUP5 DUP5 DUP5 ADD GT ISZERO PUSH2 0x1C78 JUMPI PUSH2 0x1C77 PUSH2 0x1C13 JUMP JUMPDEST JUMPDEST PUSH2 0x1C83 DUP5 DUP3 DUP6 PUSH2 0x1B48 JUMP JUMPDEST POP SWAP4 SWAP3 POP POP POP JUMP JUMPDEST PUSH1 0x0 DUP3 PUSH1 0x1F DUP4 ADD SLT PUSH2 0x1CA0 JUMPI PUSH2 0x1C9F PUSH2 0xF69 JUMP JUMPDEST JUMPDEST DUP2 MLOAD PUSH2 0x1CB0 DUP5 DUP3 PUSH1 0x20 DUP7 ADD PUSH2 0x1C49 JUMP JUMPDEST SWAP2 POP POP SWAP3 SWAP2 POP POP JUMP JUMPDEST PUSH1 0x0 PUSH1 0x20 DUP3 DUP5 SUB SLT ISZERO PUSH2 0x1CCF JUMPI PUSH2 0x1CCE PUSH2 0xF5F JUMP JUMPDEST JUMPDEST PUSH1 0x0 DUP3 ADD MLOAD PUSH8 0xFFFFFFFFFFFFFFFF DUP2 GT ISZERO PUSH2 0x1CED JUMPI PUSH2 0x1CEC PUSH2 0xF64 JUMP JUMPDEST JUMPDEST PUSH2 0x1CF9 DUP5 DUP3 DUP6 ADD PUSH2 0x1C8B JUMP JUMPDEST SWAP2 POP POP SWAP3 SWAP2 POP POP JUMP JUMPDEST PUSH1 0x0 DUP2 SWAP1 POP SWAP3 SWAP2 POP POP JUMP JUMPDEST PUSH1 0x0 PUSH2 0x1D18 DUP3 PUSH2 0x1B2C JUMP JUMPDEST PUSH2 0x1D22 DUP2 DUP6 PUSH2 0x1D02 JUMP JUMPDEST SWAP4 POP PUSH2 0x1D32 DUP2 DUP6 PUSH1 0x20 DUP7 ADD PUSH2 0x1B48 JUMP JUMPDEST DUP1 DUP5 ADD SWAP2 POP POP SWAP3 SWAP2 POP POP JUMP JUMPDEST PUSH1 0x0 PUSH2 0x1D4A DUP3 DUP5 PUSH2 0x1D0D JUMP JUMPDEST SWAP2 POP DUP2 SWAP1 POP SWAP3 SWAP2 POP POP JUMP JUMPDEST PUSH1 0x0 PUSH2 0x1D60 DUP3 PUSH2 0x114C JUMP JUMPDEST SWAP2 POP PUSH2 0x1D6B DUP4 PUSH2 0x114C JUMP JUMPDEST SWAP3 POP DUP3 DUP3 ADD SWAP1 POP DUP1 DUP3 GT ISZERO PUSH2 0x1D83 JUMPI PUSH2 0x1D82 PUSH2 0x17A3 JUMP JUMPDEST JUMPDEST SWAP3 SWAP2 POP POP JUMP JUMPDEST PUSH1 0x0 PUSH1 0x60 DUP3 ADD SWAP1 POP PUSH2 0x1D9E PUSH1 0x0 DUP4 ADD DUP7 PUSH2 0x181A JUMP JUMPDEST PUSH2 0x1DAB PUSH1 0x20 DUP4 ADD DUP6 PUSH2 0x181A JUMP JUMPDEST PUSH2 0x1DB8 PUSH1 0x40 DUP4 ADD DUP5 PUSH2 0x12FC JUMP JUMPDEST SWAP5 SWAP4 POP POP POP POP JUMP JUMPDEST PUSH1 0x0 DUP2 ISZERO ISZERO SWAP1 POP SWAP2 SWAP1 POP JUMP JUMPDEST PUSH2 0x1DD5 DUP2 PUSH2 0x1DC0 JUMP JUMPDEST DUP2 EQ PUSH2 0x1DE0 JUMPI PUSH1 0x0 DUP1 REVERT JUMPDEST POP JUMP JUMPDEST PUSH1 0x0 DUP2 MLOAD SWAP1 POP PUSH2 0x1DF2 DUP2 PUSH2 0x1DCC JUMP JUMPDEST SWAP3 SWAP2 POP POP JUMP JUMPDEST PUSH1 0x0 PUSH1 0x20 DUP3 DUP5 SUB SLT ISZERO PUSH2 0x1E0E JUMPI PUSH2 0x1E0D PUSH2 0xF5F JUMP JUMPDEST JUMPDEST PUSH1 0x0 PUSH2 0x1E1C DUP5 DUP3 DUP6 ADD PUSH2 0x1DE3 JUMP JUMPDEST SWAP2 POP POP SWAP3 SWAP2 POP POP JUMP JUMPDEST PUSH32 0x546F6B656E207472616E7366657246726F6D206661696C656421200000000000 PUSH1 0x0 DUP3 ADD MSTORE POP JUMP JUMPDEST PUSH1 0x0 PUSH2 0x1E5B PUSH1 0x1B DUP4 PUSH2 0x168B JUMP JUMPDEST SWAP2 POP PUSH2 0x1E66 DUP3 PUSH2 0x1E25 JUMP JUMPDEST PUSH1 0x20 DUP3 ADD SWAP1 POP SWAP2 SWAP1 POP JUMP JUMPDEST PUSH1 0x0 PUSH1 0x20 DUP3 ADD SWAP1 POP DUP2 DUP2 SUB PUSH1 0x0 DUP4 ADD MSTORE PUSH2 0x1E8A DUP2 PUSH2 0x1E4E JUMP JUMPDEST SWAP1 POP SWAP2 SWAP1 POP JUMP JUMPDEST PUSH1 0x0 PUSH1 0x40 DUP3 ADD SWAP1 POP PUSH2 0x1EA6 PUSH1 0x0 DUP4 ADD DUP6 PUSH2 0x181A JUMP JUMPDEST PUSH2 0x1EB3 PUSH1 0x20 DUP4 ADD DUP5 PUSH2 0x12FC JUMP JUMPDEST SWAP4 SWAP3 POP POP POP JUMP JUMPDEST PUSH32 0x546F6B656E207472616E73666572206661696C65640000000000000000000000 PUSH1 0x0 DUP3 ADD MSTORE POP JUMP JUMPDEST PUSH1 0x0 PUSH2 0x1EF0 PUSH1 0x15 DUP4 PUSH2 0x168B JUMP JUMPDEST SWAP2 POP PUSH2 0x1EFB DUP3 PUSH2 0x1EBA JUMP JUMPDEST PUSH1 0x20 DUP3 ADD SWAP1 POP SWAP2 SWAP1 POP JUMP JUMPDEST PUSH1 0x0 PUSH1 0x20 DUP3 ADD SWAP1 POP DUP2 DUP2 SUB PUSH1 0x0 DUP4 ADD MSTORE PUSH2 0x1F1F DUP2 PUSH2 0x1EE3 JUMP JUMPDEST SWAP1 POP SWAP2 SWAP1 POP JUMP JUMPDEST PUSH32 0x546F6B656E207472616E73666572206661696C65642100000000000000000000 PUSH1 0x0 DUP3 ADD MSTORE POP JUMP JUMPDEST PUSH1 0x0 PUSH2 0x1F5C PUSH1 0x16 DUP4 PUSH2 0x168B JUMP JUMPDEST SWAP2 POP PUSH2 0x1F67 DUP3 PUSH2 0x1F26 JUMP JUMPDEST PUSH1 0x20 DUP3 ADD SWAP1 POP SWAP2 SWAP1 POP JUMP JUMPDEST PUSH1 0x0 PUSH1 0x20 DUP3 ADD SWAP1 POP DUP2 DUP2 SUB PUSH1 0x0 DUP4 ADD MSTORE PUSH2 0x1F8B DUP2 PUSH2 0x1F4F JUMP JUMPDEST SWAP1 POP SWAP2 SWAP1 POP JUMP JUMPDEST PUSH1 0x0 PUSH1 0x60 DUP3 ADD SWAP1 POP PUSH2 0x1FA7 PUSH1 0x0 DUP4 ADD DUP7 PUSH2 0x181A JUMP JUMPDEST DUP2 DUP2 SUB PUSH1 0x20 DUP4 ADD MSTORE PUSH2 0x1FB9 DUP2 DUP6 PUSH2 0x18E6 JUMP JUMPDEST SWAP1 POP DUP2 DUP2 SUB PUSH1 0x40 DUP4 ADD MSTORE PUSH2 0x1FCD DUP2 DUP5 PUSH2 0x19A4 JUMP JUMPDEST SWAP1 POP SWAP5 SWAP4 POP POP POP POP JUMP JUMPDEST PUSH1 0x0 PUSH1 0x60 DUP3 ADD SWAP1 POP DUP2 DUP2 SUB PUSH1 0x0 DUP4 ADD MSTORE PUSH2 0x1FF1 DUP2 DUP7 PUSH2 0x18E6 JUMP JUMPDEST SWAP1 POP DUP2 DUP2 SUB PUSH1 0x20 DUP4 ADD MSTORE PUSH2 0x2005 DUP2 DUP6 PUSH2 0x19A4 JUMP JUMPDEST SWAP1 POP PUSH2 0x2014 PUSH1 0x40 DUP4 ADD DUP5 PUSH2 0x12FC JUMP JUMPDEST SWAP5 SWAP4 POP POP POP POP JUMP JUMPDEST PUSH32 0x4D69736D61746368656420726563697069656E747320616E6420616D6F756E74 PUSH1 0x0 DUP3 ADD MSTORE PUSH32 0x7300000000000000000000000000000000000000000000000000000000000000 PUSH1 0x20 DUP3 ADD MSTORE POP JUMP JUMPDEST PUSH1 0x0 PUSH2 0x2078 PUSH1 0x21 DUP4 PUSH2 0x168B JUMP JUMPDEST SWAP2 POP PUSH2 0x2083 DUP3 PUSH2 0x201C JUMP JUMPDEST PUSH1 0x40 DUP3 ADD SWAP1 POP SWAP2 SWAP1 POP JUMP JUMPDEST PUSH1 0x0 PUSH1 0x20 DUP3 ADD SWAP1 POP DUP2 DUP2 SUB PUSH1 0x0 DUP4 ADD MSTORE PUSH2 0x20A7 DUP2 PUSH2 0x206B JUMP JUMPDEST SWAP1 POP SWAP2 SWAP1 POP JUMP INVALID LOG2 PUSH5 0x6970667358 0x22 SLT KECCAK256 DUP16 STOP DUP9 0x27 DUP11 0x4F 0xCD PUSH11 0x3094068D1F010E79FEB8DD 0x5E 0xD4 0xA5 MSTORE8 SAR DUP11 0xC2 SAR PUSH28 0x249C1CFC64736F6C6343000812003300000000000000000000000000 "
	},
	"Assembly": ".code\n  PUSH 80\t\t\tcontract DisDrop{\\r\\n\\r\\n    c...\n  PUSH 40\t\t\tcontract DisDrop{\\r\\n\\r\\n    c...\n  MSTORE \t\t\tcontract DisDrop{\\r\\n\\r\\n    c...\n  PUSH 802\t\t\tcts/utils/Predeploy.sol\";\\r\\ni...\n  PUSH 0\t\t\tISchedule  scheduler = ISchedu...\n  DUP1 \t\t\tISchedule  scheduler = ISchedu...\n  PUSH 100\t\t\tISchedule  scheduler = ISchedu...\n  EXP \t\t\tISchedule  scheduler = ISchedu...\n  DUP2 \t\t\tISchedule  scheduler = ISchedu...\n  SLOAD \t\t\tISchedule  scheduler = ISchedu...\n  DUP2 \t\t\tISchedule  scheduler = ISchedu...\n  PUSH FFFFFFFFFFFFFFFFFFFFFFFFFFFFFFFFFFFFFFFF\t\t\tISchedule  scheduler = ISchedu...\n  MUL \t\t\tISchedule  scheduler = ISchedu...\n  NOT \t\t\tISchedule  scheduler = ISchedu...\n  AND \t\t\tISchedule  scheduler = ISchedu...\n  SWAP1 \t\t\tISchedule  scheduler = ISchedu...\n  DUP4 \t\t\tISchedule  scheduler = ISchedu...\n  PUSH FFFFFFFFFFFFFFFFFFFFFFFFFFFFFFFFFFFFFFFF\t\t\tISchedule  scheduler = ISchedu...\n  AND \t\t\tISchedule  scheduler = ISchedu...\n  MUL \t\t\tISchedule  scheduler = ISchedu...\n  OR \t\t\tISchedule  scheduler = ISchedu...\n  SWAP1 \t\t\tISchedule  scheduler = ISchedu...\n  SSTORE \t\t\tISchedule  scheduler = ISchedu...\n  POP \t\t\tISchedule  scheduler = ISchedu...\n  PUSH 801\t\t\tla-network/contracts/oracle/IO...\n  PUSH 1\t\t\tIOracle oracle = IOracle(ORACL...\n  PUSH 0\t\t\tIOracle oracle = IOracle(ORACL...\n  PUSH 100\t\t\tIOracle oracle = IOracle(ORACL...\n  EXP \t\t\tIOracle oracle = IOracle(ORACL...\n  DUP2 \t\t\tIOracle oracle = IOracle(ORACL...\n  SLOAD \t\t\tIOracle oracle = IOracle(ORACL...\n  DUP2 \t\t\tIOracle oracle = IOracle(ORACL...\n  PUSH FFFFFFFFFFFFFFFFFFFFFFFFFFFFFFFFFFFFFFFF\t\t\tIOracle oracle = IOracle(ORACL...\n  MUL \t\t\tIOracle oracle = IOracle(ORACL...\n  NOT \t\t\tIOracle oracle = IOracle(ORACL...\n  AND \t\t\tIOracle oracle = IOracle(ORACL...\n  SWAP1 \t\t\tIOracle oracle = IOracle(ORACL...\n  DUP4 \t\t\tIOracle oracle = IOracle(ORACL...\n  PUSH FFFFFFFFFFFFFFFFFFFFFFFFFFFFFFFFFFFFFFFF\t\t\tIOracle oracle = IOracle(ORACL...\n  AND \t\t\tIOracle oracle = IOracle(ORACL...\n  MUL \t\t\tIOracle oracle = IOracle(ORACL...\n  OR \t\t\tIOracle oracle = IOracle(ORACL...\n  SWAP1 \t\t\tIOracle oracle = IOracle(ORACL...\n  SSTORE \t\t\tIOracle oracle = IOracle(ORACL...\n  POP \t\t\tIOracle oracle = IOracle(ORACL...\n  PUSH #[$] 0000000000000000000000000000000000000000000000000000000000000000\t\t\tcontract DisDrop{\\r\\n\\r\\n    c...\n  DUP1 \t\t\tcontract DisDrop{\\r\\n\\r\\n    c...\n  PUSH [$] 0000000000000000000000000000000000000000000000000000000000000000\t\t\tcontract DisDrop{\\r\\n\\r\\n    c...\n  PUSH 0\t\t\tcontract DisDrop{\\r\\n\\r\\n    c...\n  CODECOPY \t\t\tcontract DisDrop{\\r\\n\\r\\n    c...\n  PUSH 0\t\t\tcontract DisDrop{\\r\\n\\r\\n    c...\n  RETURN \t\t\tcontract DisDrop{\\r\\n\\r\\n    c...\n.data\n  0:\n    .code\n      PUSH 80\t\t\tcontract DisDrop{\\r\\n\\r\\n    c...\n      PUSH 40\t\t\tcontract DisDrop{\\r\\n\\r\\n    c...\n      MSTORE \t\t\tcontract DisDrop{\\r\\n\\r\\n    c...\n      PUSH 4\t\t\tcontract DisDrop{\\r\\n\\r\\n    c...\n      CALLDATASIZE \t\t\tcontract DisDrop{\\r\\n\\r\\n    c...\n      LT \t\t\tcontract DisDrop{\\r\\n\\r\\n    c...\n      PUSH [tag] 1\t\t\tcontract DisDrop{\\r\\n\\r\\n    c...\n      JUMPI \t\t\tcontract DisDrop{\\r\\n\\r\\n    c...\n      PUSH 0\t\t\tcontract DisDrop{\\r\\n\\r\\n    c...\n      CALLDATALOAD \t\t\tcontract DisDrop{\\r\\n\\r\\n    c...\n      PUSH E0\t\t\tcontract DisDrop{\\r\\n\\r\\n    c...\n      SHR \t\t\tcontract DisDrop{\\r\\n\\r\\n    c...\n      DUP1 \t\t\tcontract DisDrop{\\r\\n\\r\\n    c...\n      PUSH 167D6326\t\t\tcontract DisDrop{\\r\\n\\r\\n    c...\n      EQ \t\t\tcontract DisDrop{\\r\\n\\r\\n    c...\n      PUSH [tag] 3\t\t\tcontract DisDrop{\\r\\n\\r\\n    c...\n      JUMPI \t\t\tcontract DisDrop{\\r\\n\\r\\n    c...\n      DUP1 \t\t\tcontract DisDrop{\\r\\n\\r\\n    c...\n      PUSH 41976E09\t\t\tcontract DisDrop{\\r\\n\\r\\n    c...\n      EQ \t\t\tcontract DisDrop{\\r\\n\\r\\n    c...\n      PUSH [tag] 4\t\t\tcontract DisDrop{\\r\\n\\r\\n    c...\n      JUMPI \t\t\tcontract DisDrop{\\r\\n\\r\\n    c...\n      DUP1 \t\t\tcontract DisDrop{\\r\\n\\r\\n    c...\n      PUSH 8A10D8E2\t\t\tcontract DisDrop{\\r\\n\\r\\n    c...\n      EQ \t\t\tcontract DisDrop{\\r\\n\\r\\n    c...\n      PUSH [tag] 5\t\t\tcontract DisDrop{\\r\\n\\r\\n    c...\n      JUMPI \t\t\tcontract DisDrop{\\r\\n\\r\\n    c...\n      DUP1 \t\t\tcontract DisDrop{\\r\\n\\r\\n    c...\n      PUSH 9805BB85\t\t\tcontract DisDrop{\\r\\n\\r\\n    c...\n      EQ \t\t\tcontract DisDrop{\\r\\n\\r\\n    c...\n      PUSH [tag] 6\t\t\tcontract DisDrop{\\r\\n\\r\\n    c...\n      JUMPI \t\t\tcontract DisDrop{\\r\\n\\r\\n    c...\n      DUP1 \t\t\tcontract DisDrop{\\r\\n\\r\\n    c...\n      PUSH D9A79AEC\t\t\tcontract DisDrop{\\r\\n\\r\\n    c...\n      EQ \t\t\tcontract DisDrop{\\r\\n\\r\\n    c...\n      PUSH [tag] 7\t\t\tcontract DisDrop{\\r\\n\\r\\n    c...\n      JUMPI \t\t\tcontract DisDrop{\\r\\n\\r\\n    c...\n      DUP1 \t\t\tcontract DisDrop{\\r\\n\\r\\n    c...\n      PUSH EEA70583\t\t\tcontract DisDrop{\\r\\n\\r\\n    c...\n      EQ \t\t\tcontract DisDrop{\\r\\n\\r\\n    c...\n      PUSH [tag] 8\t\t\tcontract DisDrop{\\r\\n\\r\\n    c...\n      JUMPI \t\t\tcontract DisDrop{\\r\\n\\r\\n    c...\n      PUSH [tag] 2\t\t\tcontract DisDrop{\\r\\n\\r\\n    c...\n      JUMP \t\t\tcontract DisDrop{\\r\\n\\r\\n    c...\n    tag 1\t\t\tcontract DisDrop{\\r\\n\\r\\n    c...\n      JUMPDEST \t\t\tcontract DisDrop{\\r\\n\\r\\n    c...\n      CALLDATASIZE \t\t\tcontract DisDrop{\\r\\n\\r\\n    c...\n      PUSH [tag] 2\t\t\tcontract DisDrop{\\r\\n\\r\\n    c...\n      JUMPI \t\t\tcontract DisDrop{\\r\\n\\r\\n    c...\n      STOP \t\t\tcontract DisDrop{\\r\\n\\r\\n    c...\n    tag 2\t\t\tcontract DisDrop{\\r\\n\\r\\n    c...\n      JUMPDEST \t\t\tcontract DisDrop{\\r\\n\\r\\n    c...\n      STOP \t\t\tcontract DisDrop{\\r\\n\\r\\n    c...\n    tag 3\t\t\tfunction simpleETHBatchTransfe...\n      JUMPDEST \t\t\tfunction simpleETHBatchTransfe...\n      PUSH [tag] 13\t\t\tfunction simpleETHBatchTransfe...\n      PUSH 4\t\t\tfunction simpleETHBatchTransfe...\n      DUP1 \t\t\tfunction simpleETHBatchTransfe...\n      CALLDATASIZE \t\t\tfunction simpleETHBatchTransfe...\n      SUB \t\t\tfunction simpleETHBatchTransfe...\n      DUP2 \t\t\tfunction simpleETHBatchTransfe...\n      ADD \t\t\tfunction simpleETHBatchTransfe...\n      SWAP1 \t\t\tfunction simpleETHBatchTransfe...\n      PUSH [tag] 14\t\t\tfunction simpleETHBatchTransfe...\n      SWAP2 \t\t\tfunction simpleETHBatchTransfe...\n      SWAP1 \t\t\tfunction simpleETHBatchTransfe...\n      PUSH [tag] 15\t\t\tfunction simpleETHBatchTransfe...\n      JUMP \t\t\tfunction simpleETHBatchTransfe...\n    tag 14\t\t\tfunction simpleETHBatchTransfe...\n      JUMPDEST \t\t\tfunction simpleETHBatchTransfe...\n      PUSH [tag] 16\t\t\tfunction simpleETHBatchTransfe...\n      JUMP \t\t\tfunction simpleETHBatchTransfe...\n    tag 13\t\t\tfunction simpleETHBatchTransfe...\n      JUMPDEST \t\t\tfunction simpleETHBatchTransfe...\n      STOP \t\t\tfunction simpleETHBatchTransfe...\n    tag 4\t\t\tfunction getPrice(address toke...\n      JUMPDEST \t\t\tfunction getPrice(address toke...\n      CALLVALUE \t\t\tfunction getPrice(address toke...\n      DUP1 \t\t\tfunction getPrice(address toke...\n      ISZERO \t\t\tfunction getPrice(address toke...\n      PUSH [tag] 17\t\t\tfunction getPrice(address toke...\n      JUMPI \t\t\tfunction getPrice(address toke...\n      PUSH 0\t\t\tfunction getPrice(address toke...\n      DUP1 \t\t\tfunction getPrice(address toke...\n      REVERT \t\t\tfunction getPrice(address toke...\n    tag 17\t\t\tfunction getPrice(address toke...\n      JUMPDEST \t\t\tfunction getPrice(address toke...\n      POP \t\t\tfunction getPrice(address toke...\n      PUSH [tag] 18\t\t\tfunction getPrice(address toke...\n      PUSH 4\t\t\tfunction getPrice(address toke...\n      DUP1 \t\t\tfunction getPrice(address toke...\n      CALLDATASIZE \t\t\tfunction getPrice(address toke...\n      SUB \t\t\tfunction getPrice(address toke...\n      DUP2 \t\t\tfunction getPrice(address toke...\n      ADD \t\t\tfunction getPrice(address toke...\n      SWAP1 \t\t\tfunction getPrice(address toke...\n      PUSH [tag] 19\t\t\tfunction getPrice(address toke...\n      SWAP2 \t\t\tfunction getPrice(address toke...\n      SWAP1 \t\t\tfunction getPrice(address toke...\n      PUSH [tag] 20\t\t\tfunction getPrice(address toke...\n      JUMP \t\t\tfunction getPrice(address toke...\n    tag 19\t\t\tfunction getPrice(address toke...\n      JUMPDEST \t\t\tfunction getPrice(address toke...\n      PUSH [tag] 21\t\t\tfunction getPrice(address toke...\n      JUMP \t\t\tfunction getPrice(address toke...\n    tag 18\t\t\tfunction getPrice(address toke...\n      JUMPDEST \t\t\tfunction getPrice(address toke...\n      PUSH 40\t\t\tfunction getPrice(address toke...\n      MLOAD \t\t\tfunction getPrice(address toke...\n      PUSH [tag] 22\t\t\tfunction getPrice(address toke...\n      SWAP2 \t\t\tfunction getPrice(address toke...\n      SWAP1 \t\t\tfunction getPrice(address toke...\n      PUSH [tag] 23\t\t\tfunction getPrice(address toke...\n      JUMP \t\t\tfunction getPrice(address toke...\n    tag 22\t\t\tfunction getPrice(address toke...\n      JUMPDEST \t\t\tfunction getPrice(address toke...\n      PUSH 40\t\t\tfunction getPrice(address toke...\n      MLOAD \t\t\tfunction getPrice(address toke...\n      DUP1 \t\t\tfunction getPrice(address toke...\n      SWAP2 \t\t\tfunction getPrice(address toke...\n      SUB \t\t\tfunction getPrice(address toke...\n      SWAP1 \t\t\tfunction getPrice(address toke...\n      RETURN \t\t\tfunction getPrice(address toke...\n    tag 5\t\t\tfunction scheduleConditionalBa...\n      JUMPDEST \t\t\tfunction scheduleConditionalBa...\n      PUSH [tag] 24\t\t\tfunction scheduleConditionalBa...\n      PUSH 4\t\t\tfunction scheduleConditionalBa...\n      DUP1 \t\t\tfunction scheduleConditionalBa...\n      CALLDATASIZE \t\t\tfunction scheduleConditionalBa...\n      SUB \t\t\tfunction scheduleConditionalBa...\n      DUP2 \t\t\tfunction scheduleConditionalBa...\n      ADD \t\t\tfunction scheduleConditionalBa...\n      SWAP1 \t\t\tfunction scheduleConditionalBa...\n      PUSH [tag] 25\t\t\tfunction scheduleConditionalBa...\n      SWAP2 \t\t\tfunction scheduleConditionalBa...\n      SWAP1 \t\t\tfunction scheduleConditionalBa...\n      PUSH [tag] 26\t\t\tfunction scheduleConditionalBa...\n      JUMP \t\t\tfunction scheduleConditionalBa...\n    tag 25\t\t\tfunction scheduleConditionalBa...\n      JUMPDEST \t\t\tfunction scheduleConditionalBa...\n      PUSH [tag] 27\t\t\tfunction scheduleConditionalBa...\n      JUMP \t\t\tfunction scheduleConditionalBa...\n    tag 24\t\t\tfunction scheduleConditionalBa...\n      JUMPDEST \t\t\tfunction scheduleConditionalBa...\n      STOP \t\t\tfunction scheduleConditionalBa...\n    tag 6\t\t\tfunction simpleERC20BatchTrans...\n      JUMPDEST \t\t\tfunction simpleERC20BatchTrans...\n      PUSH [tag] 28\t\t\tfunction simpleERC20BatchTrans...\n      PUSH 4\t\t\tfunction simpleERC20BatchTrans...\n      DUP1 \t\t\tfunction simpleERC20BatchTrans...\n      CALLDATASIZE \t\t\tfunction simpleERC20BatchTrans...\n      SUB \t\t\tfunction simpleERC20BatchTrans...\n      DUP2 \t\t\tfunction simpleERC20BatchTrans...\n      ADD \t\t\tfunction simpleERC20BatchTrans...\n      SWAP1 \t\t\tfunction simpleERC20BatchTrans...\n      PUSH [tag] 29\t\t\tfunction simpleERC20BatchTrans...\n      SWAP2 \t\t\tfunction simpleERC20BatchTrans...\n      SWAP1 \t\t\tfunction simpleERC20BatchTrans...\n      PUSH [tag] 30\t\t\tfunction simpleERC20BatchTrans...\n      JUMP \t\t\tfunction simpleERC20BatchTrans...\n    tag 29\t\t\tfunction simpleERC20BatchTrans...\n      JUMPDEST \t\t\tfunction simpleERC20BatchTrans...\n      PUSH [tag] 31\t\t\tfunction simpleERC20BatchTrans...\n      JUMP \t\t\tfunction simpleERC20BatchTrans...\n    tag 28\t\t\tfunction simpleERC20BatchTrans...\n      JUMPDEST \t\t\tfunction simpleERC20BatchTrans...\n      STOP \t\t\tfunction simpleERC20BatchTrans...\n    tag 7\t\t\tfunction scheduleERC20BatchTra...\n      JUMPDEST \t\t\tfunction scheduleERC20BatchTra...\n      PUSH [tag] 32\t\t\tfunction scheduleERC20BatchTra...\n      PUSH 4\t\t\tfunction scheduleERC20BatchTra...\n      DUP1 \t\t\tfunction scheduleERC20BatchTra...\n      CALLDATASIZE \t\t\tfunction scheduleERC20BatchTra...\n      SUB \t\t\tfunction scheduleERC20BatchTra...\n      DUP2 \t\t\tfunction scheduleERC20BatchTra...\n      ADD \t\t\tfunction scheduleERC20BatchTra...\n      SWAP1 \t\t\tfunction scheduleERC20BatchTra...\n      PUSH [tag] 33\t\t\tfunction scheduleERC20BatchTra...\n      SWAP2 \t\t\tfunction scheduleERC20BatchTra...\n      SWAP1 \t\t\tfunction scheduleERC20BatchTra...\n      PUSH [tag] 34\t\t\tfunction scheduleERC20BatchTra...\n      JUMP \t\t\tfunction scheduleERC20BatchTra...\n    tag 33\t\t\tfunction scheduleERC20BatchTra...\n      JUMPDEST \t\t\tfunction scheduleERC20BatchTra...\n      PUSH [tag] 35\t\t\tfunction scheduleERC20BatchTra...\n      JUMP \t\t\tfunction scheduleERC20BatchTra...\n    tag 32\t\t\tfunction scheduleERC20BatchTra...\n      JUMPDEST \t\t\tfunction scheduleERC20BatchTra...\n      STOP \t\t\tfunction scheduleERC20BatchTra...\n    tag 8\t\t\tfunction checkPriceAndTransfer...\n      JUMPDEST \t\t\tfunction checkPriceAndTransfer...\n      PUSH [tag] 36\t\t\tfunction checkPriceAndTransfer...\n      PUSH 4\t\t\tfunction checkPriceAndTransfer...\n      DUP1 \t\t\tfunction checkPriceAndTransfer...\n      CALLDATASIZE \t\t\tfunction checkPriceAndTransfer...\n      SUB \t\t\tfunction checkPriceAndTransfer...\n      DUP2 \t\t\tfunction checkPriceAndTransfer...\n      ADD \t\t\tfunction checkPriceAndTransfer...\n      SWAP1 \t\t\tfunction checkPriceAndTransfer...\n      PUSH [tag] 37\t\t\tfunction checkPriceAndTransfer...\n      SWAP2 \t\t\tfunction checkPriceAndTransfer...\n      SWAP1 \t\t\tfunction checkPriceAndTransfer...\n      PUSH [tag] 38\t\t\tfunction checkPriceAndTransfer...\n      JUMP \t\t\tfunction checkPriceAndTransfer...\n    tag 37\t\t\tfunction checkPriceAndTransfer...\n      JUMPDEST \t\t\tfunction checkPriceAndTransfer...\n      PUSH [tag] 39\t\t\tfunction checkPriceAndTransfer...\n      JUMP \t\t\tfunction checkPriceAndTransfer...\n    tag 36\t\t\tfunction checkPriceAndTransfer...\n      JUMPDEST \t\t\tfunction checkPriceAndTransfer...\n      STOP \t\t\tfunction checkPriceAndTransfer...\n    tag 16\t\t\tfunction simpleETHBatchTransfe...\n      JUMPDEST \t\t\tfunction simpleETHBatchTransfe...\n      DUP1 \t\t\tamount\n      MLOAD \t\t\tamount.length\n      DUP3 \t\t\trecipients\n      MLOAD \t\t\trecipients.length\n      EQ \t\t\trecipients.length == amount.le...\n      PUSH [tag] 41\t\t\trequire(recipients.length == a...\n      JUMPI \t\t\trequire(recipients.length == a...\n      PUSH 40\t\t\trequire(recipients.length == a...\n      MLOAD \t\t\trequire(recipients.length == a...\n      PUSH 8C379A000000000000000000000000000000000000000000000000000000000\t\t\trequire(recipients.length == a...\n      DUP2 \t\t\trequire(recipients.length == a...\n      MSTORE \t\t\trequire(recipients.length == a...\n      PUSH 4\t\t\trequire(recipients.length == a...\n      ADD \t\t\trequire(recipients.length == a...\n      PUSH [tag] 42\t\t\trequire(recipients.length == a...\n      SWAP1 \t\t\trequire(recipients.length == a...\n      PUSH [tag] 43\t\t\trequire(recipients.length == a...\n      JUMP \t\t\trequire(recipients.length == a...\n    tag 42\t\t\trequire(recipients.length == a...\n      JUMPDEST \t\t\trequire(recipients.length == a...\n      PUSH 40\t\t\trequire(recipients.length == a...\n      MLOAD \t\t\trequire(recipients.length == a...\n      DUP1 \t\t\trequire(recipients.length == a...\n      SWAP2 \t\t\trequire(recipients.length == a...\n      SUB \t\t\trequire(recipients.length == a...\n      SWAP1 \t\t\trequire(recipients.length == a...\n      REVERT \t\t\trequire(recipients.length == a...\n    tag 41\t\t\trequire(recipients.length == a...\n      JUMPDEST \t\t\trequire(recipients.length == a...\n      PUSH 0\t\t\t0\n      CALLVALUE \t\t\tmsg.value\n      GT \t\t\tmsg.value > 0\n      PUSH [tag] 44\t\t\trequire(msg.value > 0 , \"You n...\n      JUMPI \t\t\trequire(msg.value > 0 , \"You n...\n      PUSH 40\t\t\trequire(msg.value > 0 , \"You n...\n      MLOAD \t\t\trequire(msg.value > 0 , \"You n...\n      PUSH 8C379A000000000000000000000000000000000000000000000000000000000\t\t\trequire(msg.value > 0 , \"You n...\n      DUP2 \t\t\trequire(msg.value > 0 , \"You n...\n      MSTORE \t\t\trequire(msg.value > 0 , \"You n...\n      PUSH 4\t\t\trequire(msg.value > 0 , \"You n...\n      ADD \t\t\trequire(msg.value > 0 , \"You n...\n      PUSH [tag] 45\t\t\trequire(msg.value > 0 , \"You n...\n      SWAP1 \t\t\trequire(msg.value > 0 , \"You n...\n      PUSH [tag] 46\t\t\trequire(msg.value > 0 , \"You n...\n      JUMP \t\t\trequire(msg.value > 0 , \"You n...\n    tag 45\t\t\trequire(msg.value > 0 , \"You n...\n      JUMPDEST \t\t\trequire(msg.value > 0 , \"You n...\n      PUSH 40\t\t\trequire(msg.value > 0 , \"You n...\n      MLOAD \t\t\trequire(msg.value > 0 , \"You n...\n      DUP1 \t\t\trequire(msg.value > 0 , \"You n...\n      SWAP2 \t\t\trequire(msg.value > 0 , \"You n...\n      SUB \t\t\trequire(msg.value > 0 , \"You n...\n      SWAP1 \t\t\trequire(msg.value > 0 , \"You n...\n      REVERT \t\t\trequire(msg.value > 0 , \"You n...\n    tag 44\t\t\trequire(msg.value > 0 , \"You n...\n      JUMPDEST \t\t\trequire(msg.value > 0 , \"You n...\n      PUSH 0\t\t\tuint256 i\n    tag 47\t\t\tfor (uint256 i = 0; i < recipi...\n      JUMPDEST \t\t\tfor (uint256 i = 0; i < recipi...\n      DUP3 \t\t\trecipients\n      MLOAD \t\t\trecipients.length\n      DUP2 \t\t\ti\n      LT \t\t\ti < recipients.length\n      ISZERO \t\t\tfor (uint256 i = 0; i < recipi...\n      PUSH [tag] 48\t\t\tfor (uint256 i = 0; i < recipi...\n      JUMPI \t\t\tfor (uint256 i = 0; i < recipi...\n      DUP3 \t\t\trecipients\n      DUP2 \t\t\ti\n      DUP2 \t\t\trecipients[i]\n      MLOAD \t\t\trecipients[i]\n      DUP2 \t\t\trecipients[i]\n      LT \t\t\trecipients[i]\n      PUSH [tag] 50\t\t\trecipients[i]\n      JUMPI \t\t\trecipients[i]\n      PUSH [tag] 51\t\t\trecipients[i]\n      PUSH [tag] 52\t\t\trecipients[i]\n      JUMP \t\t\trecipients[i]\n    tag 51\t\t\trecipients[i]\n      JUMPDEST \t\t\trecipients[i]\n    tag 50\t\t\trecipients[i]\n      JUMPDEST \t\t\trecipients[i]\n      PUSH 20\t\t\trecipients[i]\n      MUL \t\t\trecipients[i]\n      PUSH 20\t\t\trecipients[i]\n      ADD \t\t\trecipients[i]\n      ADD \t\t\trecipients[i]\n      MLOAD \t\t\trecipients[i]\n      PUSH FFFFFFFFFFFFFFFFFFFFFFFFFFFFFFFFFFFFFFFF\t\t\trecipients[i].transfer\n      AND \t\t\trecipients[i].transfer\n      PUSH 8FC\t\t\trecipients[i].transfer(amount[...\n      DUP4 \t\t\tamount\n      DUP4 \t\t\ti\n      DUP2 \t\t\tamount[i]\n      MLOAD \t\t\tamount[i]\n      DUP2 \t\t\tamount[i]\n      LT \t\t\tamount[i]\n      PUSH [tag] 53\t\t\tamount[i]\n      JUMPI \t\t\tamount[i]\n      PUSH [tag] 54\t\t\tamount[i]\n      PUSH [tag] 52\t\t\tamount[i]\n      JUMP \t\t\tamount[i]\n    tag 54\t\t\tamount[i]\n      JUMPDEST \t\t\tamount[i]\n    tag 53\t\t\tamount[i]\n      JUMPDEST \t\t\tamount[i]\n      PUSH 20\t\t\tamount[i]\n      MUL \t\t\tamount[i]\n      PUSH 20\t\t\tamount[i]\n      ADD \t\t\tamount[i]\n      ADD \t\t\tamount[i]\n      MLOAD \t\t\tamount[i]\n      SWAP1 \t\t\trecipients[i].transfer(amount[...\n      DUP2 \t\t\trecipients[i].transfer(amount[...\n      ISZERO \t\t\trecipients[i].transfer(amount[...\n      MUL \t\t\trecipients[i].transfer(amount[...\n      SWAP1 \t\t\trecipients[i].transfer(amount[...\n      PUSH 40\t\t\trecipients[i].transfer(amount[...\n      MLOAD \t\t\trecipients[i].transfer(amount[...\n      PUSH 0\t\t\trecipients[i].transfer(amount[...\n      PUSH 40\t\t\trecipients[i].transfer(amount[...\n      MLOAD \t\t\trecipients[i].transfer(amount[...\n      DUP1 \t\t\trecipients[i].transfer(amount[...\n      DUP4 \t\t\trecipients[i].transfer(amount[...\n      SUB \t\t\trecipients[i].transfer(amount[...\n      DUP2 \t\t\trecipients[i].transfer(amount[...\n      DUP6 \t\t\trecipients[i].transfer(amount[...\n      DUP9 \t\t\trecipients[i].transfer(amount[...\n      DUP9 \t\t\trecipients[i].transfer(amount[...\n      CALL \t\t\trecipients[i].transfer(amount[...\n      SWAP4 \t\t\trecipients[i].transfer(amount[...\n      POP \t\t\trecipients[i].transfer(amount[...\n      POP \t\t\trecipients[i].transfer(amount[...\n      POP \t\t\trecipients[i].transfer(amount[...\n      POP \t\t\trecipients[i].transfer(amount[...\n      ISZERO \t\t\trecipients[i].transfer(amount[...\n      DUP1 \t\t\trecipients[i].transfer(amount[...\n      ISZERO \t\t\trecipients[i].transfer(amount[...\n      PUSH [tag] 56\t\t\trecipients[i].transfer(amount[...\n      JUMPI \t\t\trecipients[i].transfer(amount[...\n      RETURNDATASIZE \t\t\trecipients[i].transfer(amount[...\n      PUSH 0\t\t\trecipients[i].transfer(amount[...\n      DUP1 \t\t\trecipients[i].transfer(amount[...\n      RETURNDATACOPY \t\t\trecipients[i].transfer(amount[...\n      RETURNDATASIZE \t\t\trecipients[i].transfer(amount[...\n      PUSH 0\t\t\trecipients[i].transfer(amount[...\n      REVERT \t\t\trecipients[i].transfer(amount[...\n    tag 56\t\t\trecipients[i].transfer(amount[...\n      JUMPDEST \t\t\trecipients[i].transfer(amount[...\n      POP \t\t\trecipients[i].transfer(amount[...\n      DUP3 \t\t\trecipients\n      DUP2 \t\t\ti\n      DUP2 \t\t\trecipients[i]\n      MLOAD \t\t\trecipients[i]\n      DUP2 \t\t\trecipients[i]\n      LT \t\t\trecipients[i]\n      PUSH [tag] 57\t\t\trecipients[i]\n      JUMPI \t\t\trecipients[i]\n      PUSH [tag] 58\t\t\trecipients[i]\n      PUSH [tag] 52\t\t\trecipients[i]\n      JUMP \t\t\trecipients[i]\n    tag 58\t\t\trecipients[i]\n      JUMPDEST \t\t\trecipients[i]\n    tag 57\t\t\trecipients[i]\n      JUMPDEST \t\t\trecipients[i]\n      PUSH 20\t\t\trecipients[i]\n      MUL \t\t\trecipients[i]\n      PUSH 20\t\t\trecipients[i]\n      ADD \t\t\trecipients[i]\n      ADD \t\t\trecipients[i]\n      MLOAD \t\t\trecipients[i]\n      PUSH FFFFFFFFFFFFFFFFFFFFFFFFFFFFFFFFFFFFFFFF\t\t\tETHbatchTransfer(i, recipients...\n      AND \t\t\tETHbatchTransfer(i, recipients...\n      DUP2 \t\t\ti\n      PUSH 6AC089FEED810BFFD2334C5A1C6C8F0F3509A73716A2C54433B8A51967EEB50B\t\t\tETHbatchTransfer(i, recipients...\n      DUP5 \t\t\tamount\n      DUP5 \t\t\ti\n      DUP2 \t\t\tamount[i]\n      MLOAD \t\t\tamount[i]\n      DUP2 \t\t\tamount[i]\n      LT \t\t\tamount[i]\n      PUSH [tag] 59\t\t\tamount[i]\n      JUMPI \t\t\tamount[i]\n      PUSH [tag] 60\t\t\tamount[i]\n      PUSH [tag] 52\t\t\tamount[i]\n      JUMP \t\t\tamount[i]\n    tag 60\t\t\tamount[i]\n      JUMPDEST \t\t\tamount[i]\n    tag 59\t\t\tamount[i]\n      JUMPDEST \t\t\tamount[i]\n      PUSH 20\t\t\tamount[i]\n      MUL \t\t\tamount[i]\n      PUSH 20\t\t\tamount[i]\n      ADD \t\t\tamount[i]\n      ADD \t\t\tamount[i]\n      MLOAD \t\t\tamount[i]\n      PUSH 40\t\t\tETHbatchTransfer(i, recipients...\n      MLOAD \t\t\tETHbatchTransfer(i, recipients...\n      PUSH [tag] 61\t\t\tETHbatchTransfer(i, recipients...\n      SWAP2 \t\t\tETHbatchTransfer(i, recipients...\n      SWAP1 \t\t\tETHbatchTransfer(i, recipients...\n      PUSH [tag] 23\t\t\tETHbatchTransfer(i, recipients...\n      JUMP \t\t\tETHbatchTransfer(i, recipients...\n    tag 61\t\t\tETHbatchTransfer(i, recipients...\n      JUMPDEST \t\t\tETHbatchTransfer(i, recipients...\n      PUSH 40\t\t\tETHbatchTransfer(i, recipients...\n      MLOAD \t\t\tETHbatchTransfer(i, recipients...\n      DUP1 \t\t\tETHbatchTransfer(i, recipients...\n      SWAP2 \t\t\tETHbatchTransfer(i, recipients...\n      SUB \t\t\tETHbatchTransfer(i, recipients...\n      SWAP1 \t\t\tETHbatchTransfer(i, recipients...\n      LOG3 \t\t\tETHbatchTransfer(i, recipients...\n      DUP1 \t\t\ti++\n      DUP1 \t\t\ti++\n      PUSH [tag] 62\t\t\ti++\n      SWAP1 \t\t\ti++\n      PUSH [tag] 63\t\t\ti++\n      JUMP \t\t\ti++\n    tag 62\t\t\ti++\n      JUMPDEST \t\t\ti++\n      SWAP2 \t\t\ti++\n      POP \t\t\ti++\n      POP \t\t\ti++\n      PUSH [tag] 47\t\t\tfor (uint256 i = 0; i < recipi...\n      JUMP \t\t\tfor (uint256 i = 0; i < recipi...\n    tag 48\t\t\tfor (uint256 i = 0; i < recipi...\n      JUMPDEST \t\t\tfor (uint256 i = 0; i < recipi...\n      POP \t\t\tfor (uint256 i = 0; i < recipi...\n      PUSH 0\t\t\tuint256 balance\n      SELFBALANCE \t\t\taddress(this).balance\n      SWAP1 \t\t\tuint256 balance = address(this...\n      POP \t\t\tuint256 balance = address(this...\n      PUSH 0\t\t\t0\n      DUP2 \t\t\tbalance\n      GT \t\t\tbalance > 0\n      ISZERO \t\t\tif (balance > 0) {\\r\\n        ...\n      PUSH [tag] 64\t\t\tif (balance > 0) {\\r\\n        ...\n      JUMPI \t\t\tif (balance > 0) {\\r\\n        ...\n      CALLER \t\t\tmsg.sender\n      PUSH FFFFFFFFFFFFFFFFFFFFFFFFFFFFFFFFFFFFFFFF\t\t\tpayable(msg.sender).transfer\n      AND \t\t\tpayable(msg.sender).transfer\n      PUSH 8FC\t\t\tpayable(msg.sender).transfer(b...\n      DUP3 \t\t\tbalance\n      SWAP1 \t\t\tpayable(msg.sender).transfer(b...\n      DUP2 \t\t\tpayable(msg.sender).transfer(b...\n      ISZERO \t\t\tpayable(msg.sender).transfer(b...\n      MUL \t\t\tpayable(msg.sender).transfer(b...\n      SWAP1 \t\t\tpayable(msg.sender).transfer(b...\n      PUSH 40\t\t\tpayable(msg.sender).transfer(b...\n      MLOAD \t\t\tpayable(msg.sender).transfer(b...\n      PUSH 0\t\t\tpayable(msg.sender).transfer(b...\n      PUSH 40\t\t\tpayable(msg.sender).transfer(b...\n      MLOAD \t\t\tpayable(msg.sender).transfer(b...\n      DUP1 \t\t\tpayable(msg.sender).transfer(b...\n      DUP4 \t\t\tpayable(msg.sender).transfer(b...\n      SUB \t\t\tpayable(msg.sender).transfer(b...\n      DUP2 \t\t\tpayable(msg.sender).transfer(b...\n      DUP6 \t\t\tpayable(msg.sender).transfer(b...\n      DUP9 \t\t\tpayable(msg.sender).transfer(b...\n      DUP9 \t\t\tpayable(msg.sender).transfer(b...\n      CALL \t\t\tpayable(msg.sender).transfer(b...\n      SWAP4 \t\t\tpayable(msg.sender).transfer(b...\n      POP \t\t\tpayable(msg.sender).transfer(b...\n      POP \t\t\tpayable(msg.sender).transfer(b...\n      POP \t\t\tpayable(msg.sender).transfer(b...\n      POP \t\t\tpayable(msg.sender).transfer(b...\n      ISZERO \t\t\tpayable(msg.sender).transfer(b...\n      DUP1 \t\t\tpayable(msg.sender).transfer(b...\n      ISZERO \t\t\tpayable(msg.sender).transfer(b...\n      PUSH [tag] 66\t\t\tpayable(msg.sender).transfer(b...\n      JUMPI \t\t\tpayable(msg.sender).transfer(b...\n      RETURNDATASIZE \t\t\tpayable(msg.sender).transfer(b...\n      PUSH 0\t\t\tpayable(msg.sender).transfer(b...\n      DUP1 \t\t\tpayable(msg.sender).transfer(b...\n      RETURNDATACOPY \t\t\tpayable(msg.sender).transfer(b...\n      RETURNDATASIZE \t\t\tpayable(msg.sender).transfer(b...\n      PUSH 0\t\t\tpayable(msg.sender).transfer(b...\n      REVERT \t\t\tpayable(msg.sender).transfer(b...\n    tag 66\t\t\tpayable(msg.sender).transfer(b...\n      JUMPDEST \t\t\tpayable(msg.sender).transfer(b...\n      POP \t\t\tpayable(msg.sender).transfer(b...\n    tag 64\t\t\tif (balance > 0) {\\r\\n        ...\n      JUMPDEST \t\t\tif (balance > 0) {\\r\\n        ...\n      POP \t\t\t{\\r\\n        require(recipient...\n      POP \t\t\tfunction simpleETHBatchTransfe...\n      POP \t\t\tfunction simpleETHBatchTransfe...\n      JUMP \t\t\tfunction simpleETHBatchTransfe...\n    tag 21\t\t\tfunction getPrice(address toke...\n      JUMPDEST \t\t\tfunction getPrice(address toke...\n      PUSH 0\t\t\tuint256\n      DUP1 \t\t\tuint256 price\n      PUSH 1\t\t\toracle\n      PUSH 0\t\t\toracle\n      SWAP1 \t\t\toracle\n      SLOAD \t\t\toracle\n      SWAP1 \t\t\toracle\n      PUSH 100\t\t\toracle\n      EXP \t\t\toracle\n      SWAP1 \t\t\toracle\n      DIV \t\t\toracle\n      PUSH FFFFFFFFFFFFFFFFFFFFFFFFFFFFFFFFFFFFFFFF\t\t\toracle\n      AND \t\t\toracle\n      PUSH FFFFFFFFFFFFFFFFFFFFFFFFFFFFFFFFFFFFFFFF\t\t\toracle.getPrice\n      AND \t\t\toracle.getPrice\n      PUSH 41976E09\t\t\toracle.getPrice\n      DUP5 \t\t\ttoken\n      PUSH 40\t\t\toracle.getPrice(token)\n      MLOAD \t\t\toracle.getPrice(token)\n      DUP3 \t\t\toracle.getPrice(token)\n      PUSH FFFFFFFF\t\t\toracle.getPrice(token)\n      AND \t\t\toracle.getPrice(token)\n      PUSH E0\t\t\toracle.getPrice(token)\n      SHL \t\t\toracle.getPrice(token)\n      DUP2 \t\t\toracle.getPrice(token)\n      MSTORE \t\t\toracle.getPrice(token)\n      PUSH 4\t\t\toracle.getPrice(token)\n      ADD \t\t\toracle.getPrice(token)\n      PUSH [tag] 68\t\t\toracle.getPrice(token)\n      SWAP2 \t\t\toracle.getPrice(token)\n      SWAP1 \t\t\toracle.getPrice(token)\n      PUSH [tag] 69\t\t\toracle.getPrice(token)\n      JUMP \t\t\toracle.getPrice(token)\n    tag 68\t\t\toracle.getPrice(token)\n      JUMPDEST \t\t\toracle.getPrice(token)\n      PUSH 20\t\t\toracle.getPrice(token)\n      PUSH 40\t\t\toracle.getPrice(token)\n      MLOAD \t\t\toracle.getPrice(token)\n      DUP1 \t\t\toracle.getPrice(token)\n      DUP4 \t\t\toracle.getPrice(token)\n      SUB \t\t\toracle.getPrice(token)\n      DUP2 \t\t\toracle.getPrice(token)\n      DUP7 \t\t\toracle.getPrice(token)\n      GAS \t\t\toracle.getPrice(token)\n      STATICCALL \t\t\toracle.getPrice(token)\n      ISZERO \t\t\toracle.getPrice(token)\n      DUP1 \t\t\toracle.getPrice(token)\n      ISZERO \t\t\toracle.getPrice(token)\n      PUSH [tag] 71\t\t\toracle.getPrice(token)\n      JUMPI \t\t\toracle.getPrice(token)\n      RETURNDATASIZE \t\t\toracle.getPrice(token)\n      PUSH 0\t\t\toracle.getPrice(token)\n      DUP1 \t\t\toracle.getPrice(token)\n      RETURNDATACOPY \t\t\toracle.getPrice(token)\n      RETURNDATASIZE \t\t\toracle.getPrice(token)\n      PUSH 0\t\t\toracle.getPrice(token)\n      REVERT \t\t\toracle.getPrice(token)\n    tag 71\t\t\toracle.getPrice(token)\n      JUMPDEST \t\t\toracle.getPrice(token)\n      POP \t\t\toracle.getPrice(token)\n      POP \t\t\toracle.getPrice(token)\n      POP \t\t\toracle.getPrice(token)\n      POP \t\t\toracle.getPrice(token)\n      PUSH 40\t\t\toracle.getPrice(token)\n      MLOAD \t\t\toracle.getPrice(token)\n      RETURNDATASIZE \t\t\toracle.getPrice(token)\n      PUSH 1F\t\t\toracle.getPrice(token)\n      NOT \t\t\toracle.getPrice(token)\n      PUSH 1F\t\t\toracle.getPrice(token)\n      DUP3 \t\t\toracle.getPrice(token)\n      ADD \t\t\toracle.getPrice(token)\n      AND \t\t\toracle.getPrice(token)\n      DUP3 \t\t\toracle.getPrice(token)\n      ADD \t\t\toracle.getPrice(token)\n      DUP1 \t\t\toracle.getPrice(token)\n      PUSH 40\t\t\toracle.getPrice(token)\n      MSTORE \t\t\toracle.getPrice(token)\n      POP \t\t\toracle.getPrice(token)\n      DUP2 \t\t\toracle.getPrice(token)\n      ADD \t\t\toracle.getPrice(token)\n      SWAP1 \t\t\toracle.getPrice(token)\n      PUSH [tag] 72\t\t\toracle.getPrice(token)\n      SWAP2 \t\t\toracle.getPrice(token)\n      SWAP1 \t\t\toracle.getPrice(token)\n      PUSH [tag] 73\t\t\toracle.getPrice(token)\n      JUMP \t\t\toracle.getPrice(token)\n    tag 72\t\t\toracle.getPrice(token)\n      JUMPDEST \t\t\toracle.getPrice(token)\n      SWAP1 \t\t\tuint256 price = oracle.getPric...\n      POP \t\t\tuint256 price = oracle.getPric...\n      DUP1 \t\t\tprice\n      SWAP2 \t\t\treturn price\n      POP \t\t\treturn price\n      POP \t\t\treturn price\n      SWAP2 \t\t\tfunction getPrice(address toke...\n      SWAP1 \t\t\tfunction getPrice(address toke...\n      POP \t\t\tfunction getPrice(address toke...\n      JUMP \t\t\tfunction getPrice(address toke...\n    tag 27\t\t\tfunction scheduleConditionalBa...\n      JUMPDEST \t\t\tfunction scheduleConditionalBa...\n      PUSH 0\t\t\tIERC20 token\n      DUP6 \t\t\ttokenAddress\n      SWAP1 \t\t\tIERC20 token = IERC20(tokenAdd...\n      POP \t\t\tIERC20 token = IERC20(tokenAdd...\n      PUSH 0\t\t\taddress spender\n      CALLER \t\t\tmsg.sender\n      SWAP1 \t\t\taddress spender = msg.sender\n      POP \t\t\taddress spender = msg.sender\n      PUSH 0\t\t\tuint256 currentPrice\n      PUSH 1\t\t\toracle\n      PUSH 0\t\t\toracle\n      SWAP1 \t\t\toracle\n      SLOAD \t\t\toracle\n      SWAP1 \t\t\toracle\n      PUSH 100\t\t\toracle\n      EXP \t\t\toracle\n      SWAP1 \t\t\toracle\n      DIV \t\t\toracle\n      PUSH FFFFFFFFFFFFFFFFFFFFFFFFFFFFFFFFFFFFFFFF\t\t\toracle\n      AND \t\t\toracle\n      PUSH FFFFFFFFFFFFFFFFFFFFFFFFFFFFFFFFFFFFFFFF\t\t\toracle.getPrice\n      AND \t\t\toracle.getPrice\n      PUSH 41976E09\t\t\toracle.getPrice\n      DUP5 \t\t\ttoken\n      PUSH 40\t\t\toracle.getPrice(address(token)...\n      MLOAD \t\t\toracle.getPrice(address(token)...\n      DUP3 \t\t\toracle.getPrice(address(token)...\n      PUSH FFFFFFFF\t\t\toracle.getPrice(address(token)...\n      AND \t\t\toracle.getPrice(address(token)...\n      PUSH E0\t\t\toracle.getPrice(address(token)...\n      SHL \t\t\toracle.getPrice(address(token)...\n      DUP2 \t\t\toracle.getPrice(address(token)...\n      MSTORE \t\t\toracle.getPrice(address(token)...\n      PUSH 4\t\t\toracle.getPrice(address(token)...\n      ADD \t\t\toracle.getPrice(address(token)...\n      PUSH [tag] 75\t\t\toracle.getPrice(address(token)...\n      SWAP2 \t\t\toracle.getPrice(address(token)...\n      SWAP1 \t\t\toracle.getPrice(address(token)...\n      PUSH [tag] 69\t\t\toracle.getPrice(address(token)...\n      JUMP \t\t\toracle.getPrice(address(token)...\n    tag 75\t\t\toracle.getPrice(address(token)...\n      JUMPDEST \t\t\toracle.getPrice(address(token)...\n      PUSH 20\t\t\toracle.getPrice(address(token)...\n      PUSH 40\t\t\toracle.getPrice(address(token)...\n      MLOAD \t\t\toracle.getPrice(address(token)...\n      DUP1 \t\t\toracle.getPrice(address(token)...\n      DUP4 \t\t\toracle.getPrice(address(token)...\n      SUB \t\t\toracle.getPrice(address(token)...\n      DUP2 \t\t\toracle.getPrice(address(token)...\n      DUP7 \t\t\toracle.getPrice(address(token)...\n      GAS \t\t\toracle.getPrice(address(token)...\n      STATICCALL \t\t\toracle.getPrice(address(token)...\n      ISZERO \t\t\toracle.getPrice(address(token)...\n      DUP1 \t\t\toracle.getPrice(address(token)...\n      ISZERO \t\t\toracle.getPrice(address(token)...\n      PUSH [tag] 77\t\t\toracle.getPrice(address(token)...\n      JUMPI \t\t\toracle.getPrice(address(token)...\n      RETURNDATASIZE \t\t\toracle.getPrice(address(token)...\n      PUSH 0\t\t\toracle.getPrice(address(token)...\n      DUP1 \t\t\toracle.getPrice(address(token)...\n      RETURNDATACOPY \t\t\toracle.getPrice(address(token)...\n      RETURNDATASIZE \t\t\toracle.getPrice(address(token)...\n      PUSH 0\t\t\toracle.getPrice(address(token)...\n      REVERT \t\t\toracle.getPrice(address(token)...\n    tag 77\t\t\toracle.getPrice(address(token)...\n      JUMPDEST \t\t\toracle.getPrice(address(token)...\n      POP \t\t\toracle.getPrice(address(token)...\n      POP \t\t\toracle.getPrice(address(token)...\n      POP \t\t\toracle.getPrice(address(token)...\n      POP \t\t\toracle.getPrice(address(token)...\n      PUSH 40\t\t\toracle.getPrice(address(token)...\n      MLOAD \t\t\toracle.getPrice(address(token)...\n      RETURNDATASIZE \t\t\toracle.getPrice(address(token)...\n      PUSH 1F\t\t\toracle.getPrice(address(token)...\n      NOT \t\t\toracle.getPrice(address(token)...\n      PUSH 1F\t\t\toracle.getPrice(address(token)...\n      DUP3 \t\t\toracle.getPrice(address(token)...\n      ADD \t\t\toracle.getPrice(address(token)...\n      AND \t\t\toracle.getPrice(address(token)...\n      DUP3 \t\t\toracle.getPrice(address(token)...\n      ADD \t\t\toracle.getPrice(address(token)...\n      DUP1 \t\t\toracle.getPrice(address(token)...\n      PUSH 40\t\t\toracle.getPrice(address(token)...\n      MSTORE \t\t\toracle.getPrice(address(token)...\n      POP \t\t\toracle.getPrice(address(token)...\n      DUP2 \t\t\toracle.getPrice(address(token)...\n      ADD \t\t\toracle.getPrice(address(token)...\n      SWAP1 \t\t\toracle.getPrice(address(token)...\n      PUSH [tag] 78\t\t\toracle.getPrice(address(token)...\n      SWAP2 \t\t\toracle.getPrice(address(token)...\n      SWAP1 \t\t\toracle.getPrice(address(token)...\n      PUSH [tag] 73\t\t\toracle.getPrice(address(token)...\n      JUMP \t\t\toracle.getPrice(address(token)...\n    tag 78\t\t\toracle.getPrice(address(token)...\n      JUMPDEST \t\t\toracle.getPrice(address(token)...\n      SWAP1 \t\t\tuint256 currentPrice = oracle....\n      POP \t\t\tuint256 currentPrice = oracle....\n      DUP5 \t\t\tdesiredPrice\n      DUP2 \t\t\tcurrentPrice\n      SUB \t\t\tcurrentPrice == desiredPrice\n      PUSH [tag] 79\t\t\tif (currentPrice == desiredPri...\n      JUMPI \t\t\tif (currentPrice == desiredPri...\n      PUSH [tag] 80\t\t\texecuteBatchTransfer(tokenAddr...\n      DUP9 \t\t\ttokenAddress\n      DUP9 \t\t\trecipients\n      DUP9 \t\t\tamounts\n      DUP6 \t\t\tspender\n      PUSH [tag] 81\t\t\texecuteBatchTransfer\n      JUMP \t\t\texecuteBatchTransfer(tokenAddr...\n    tag 80\t\t\texecuteBatchTransfer(tokenAddr...\n      JUMPDEST \t\t\texecuteBatchTransfer(tokenAddr...\n      PUSH [tag] 82\t\t\tif (currentPrice == desiredPri...\n      JUMP \t\t\tif (currentPrice == desiredPri...\n    tag 79\t\t\tif (currentPrice == desiredPri...\n      JUMPDEST \t\t\tif (currentPrice == desiredPri...\n      PUSH 0\t\t\tbytes memory data\n      DUP9 \t\t\ttokenAddress\n      DUP9 \t\t\trecipients\n      DUP9 \t\t\tamounts\n      DUP9 \t\t\tdesiredPrice\n      DUP9 \t\t\tinterval\n      DUP8 \t\t\tspender\n      PUSH 40\t\t\tabi.encodeWithSignature(\\r\\n  ...\n      MLOAD \t\t\tabi.encodeWithSignature(\\r\\n  ...\n      PUSH 24\t\t\tabi.encodeWithSignature(\\r\\n  ...\n      ADD \t\t\tabi.encodeWithSignature(\\r\\n  ...\n      PUSH [tag] 83\t\t\tabi.encodeWithSignature(\\r\\n  ...\n      SWAP7 \t\t\tabi.encodeWithSignature(\\r\\n  ...\n      SWAP6 \t\t\tabi.encodeWithSignature(\\r\\n  ...\n      SWAP5 \t\t\tabi.encodeWithSignature(\\r\\n  ...\n      SWAP4 \t\t\tabi.encodeWithSignature(\\r\\n  ...\n      SWAP3 \t\t\tabi.encodeWithSignature(\\r\\n  ...\n      SWAP2 \t\t\tabi.encodeWithSignature(\\r\\n  ...\n      SWAP1 \t\t\tabi.encodeWithSignature(\\r\\n  ...\n      PUSH [tag] 84\t\t\tabi.encodeWithSignature(\\r\\n  ...\n      JUMP \t\t\tabi.encodeWithSignature(\\r\\n  ...\n    tag 83\t\t\tabi.encodeWithSignature(\\r\\n  ...\n      JUMPDEST \t\t\tabi.encodeWithSignature(\\r\\n  ...\n      PUSH 40\t\t\tabi.encodeWithSignature(\\r\\n  ...\n      MLOAD \t\t\tabi.encodeWithSignature(\\r\\n  ...\n      PUSH 20\t\t\tabi.encodeWithSignature(\\r\\n  ...\n      DUP2 \t\t\tabi.encodeWithSignature(\\r\\n  ...\n      DUP4 \t\t\tabi.encodeWithSignature(\\r\\n  ...\n      SUB \t\t\tabi.encodeWithSignature(\\r\\n  ...\n      SUB \t\t\tabi.encodeWithSignature(\\r\\n  ...\n      DUP2 \t\t\tabi.encodeWithSignature(\\r\\n  ...\n      MSTORE \t\t\tabi.encodeWithSignature(\\r\\n  ...\n      SWAP1 \t\t\tabi.encodeWithSignature(\\r\\n  ...\n      PUSH 40\t\t\tabi.encodeWithSignature(\\r\\n  ...\n      MSTORE \t\t\tabi.encodeWithSignature(\\r\\n  ...\n      PUSH EEA7058300000000000000000000000000000000000000000000000000000000\t\t\tabi.encodeWithSignature(\\r\\n  ...\n      PUSH FFFFFFFFFFFFFFFFFFFFFFFFFFFFFFFFFFFFFFFFFFFFFFFFFFFFFFFF\t\t\tabi.encodeWithSignature(\\r\\n  ...\n      NOT \t\t\tabi.encodeWithSignature(\\r\\n  ...\n      AND \t\t\tabi.encodeWithSignature(\\r\\n  ...\n      PUSH 20\t\t\tabi.encodeWithSignature(\\r\\n  ...\n      DUP3 \t\t\tabi.encodeWithSignature(\\r\\n  ...\n      ADD \t\t\tabi.encodeWithSignature(\\r\\n  ...\n      DUP1 \t\t\tabi.encodeWithSignature(\\r\\n  ...\n      MLOAD \t\t\tabi.encodeWithSignature(\\r\\n  ...\n      PUSH FFFFFFFFFFFFFFFFFFFFFFFFFFFFFFFFFFFFFFFFFFFFFFFFFFFFFFFF\t\t\tabi.encodeWithSignature(\\r\\n  ...\n      DUP4 \t\t\tabi.encodeWithSignature(\\r\\n  ...\n      DUP2 \t\t\tabi.encodeWithSignature(\\r\\n  ...\n      DUP4 \t\t\tabi.encodeWithSignature(\\r\\n  ...\n      AND \t\t\tabi.encodeWithSignature(\\r\\n  ...\n      OR \t\t\tabi.encodeWithSignature(\\r\\n  ...\n      DUP4 \t\t\tabi.encodeWithSignature(\\r\\n  ...\n      MSTORE \t\t\tabi.encodeWithSignature(\\r\\n  ...\n      POP \t\t\tabi.encodeWithSignature(\\r\\n  ...\n      POP \t\t\tabi.encodeWithSignature(\\r\\n  ...\n      POP \t\t\tabi.encodeWithSignature(\\r\\n  ...\n      POP \t\t\tabi.encodeWithSignature(\\r\\n  ...\n      SWAP1 \t\t\tbytes memory data = abi.encode...\n      POP \t\t\tbytes memory data = abi.encode...\n      PUSH 0\t\t\tbytes memory scheduleId\n      DUP1 \t\t\tscheduler\n      PUSH 0\t\t\tscheduler\n      SWAP1 \t\t\tscheduler\n      SLOAD \t\t\tscheduler\n      SWAP1 \t\t\tscheduler\n      PUSH 100\t\t\tscheduler\n      EXP \t\t\tscheduler\n      SWAP1 \t\t\tscheduler\n      DIV \t\t\tscheduler\n      PUSH FFFFFFFFFFFFFFFFFFFFFFFFFFFFFFFFFFFFFFFF\t\t\tscheduler\n      AND \t\t\tscheduler\n      PUSH FFFFFFFFFFFFFFFFFFFFFFFFFFFFFFFFFFFFFFFF\t\t\tscheduler.scheduleCall\n      AND \t\t\tscheduler.scheduleCall\n      PUSH 168D560D\t\t\tscheduler.scheduleCall\n      ADDRESS \t\t\tthis\n      PUSH 0\t\t\t0\n      PUSH 200B20\t\t\t2100000\n      PUSH FA00\t\t\t64000\n      DUP12 \t\t\tinterval\n      DUP9 \t\t\tdata\n      PUSH 40\t\t\tscheduler.scheduleCall(address...\n      MLOAD \t\t\tscheduler.scheduleCall(address...\n      DUP8 \t\t\tscheduler.scheduleCall(address...\n      PUSH FFFFFFFF\t\t\tscheduler.scheduleCall(address...\n      AND \t\t\tscheduler.scheduleCall(address...\n      PUSH E0\t\t\tscheduler.scheduleCall(address...\n      SHL \t\t\tscheduler.scheduleCall(address...\n      DUP2 \t\t\tscheduler.scheduleCall(address...\n      MSTORE \t\t\tscheduler.scheduleCall(address...\n      PUSH 4\t\t\tscheduler.scheduleCall(address...\n      ADD \t\t\tscheduler.scheduleCall(address...\n      PUSH [tag] 85\t\t\tscheduler.scheduleCall(address...\n      SWAP7 \t\t\tscheduler.scheduleCall(address...\n      SWAP6 \t\t\tscheduler.scheduleCall(address...\n      SWAP5 \t\t\tscheduler.scheduleCall(address...\n      SWAP4 \t\t\tscheduler.scheduleCall(address...\n      SWAP3 \t\t\tscheduler.scheduleCall(address...\n      SWAP2 \t\t\tscheduler.scheduleCall(address...\n      SWAP1 \t\t\tscheduler.scheduleCall(address...\n      PUSH [tag] 86\t\t\tscheduler.scheduleCall(address...\n      JUMP \t\t\tscheduler.scheduleCall(address...\n    tag 85\t\t\tscheduler.scheduleCall(address...\n      JUMPDEST \t\t\tscheduler.scheduleCall(address...\n      PUSH 0\t\t\tscheduler.scheduleCall(address...\n      PUSH 40\t\t\tscheduler.scheduleCall(address...\n      MLOAD \t\t\tscheduler.scheduleCall(address...\n      DUP1 \t\t\tscheduler.scheduleCall(address...\n      DUP4 \t\t\tscheduler.scheduleCall(address...\n      SUB \t\t\tscheduler.scheduleCall(address...\n      DUP2 \t\t\tscheduler.scheduleCall(address...\n      PUSH 0\t\t\tscheduler.scheduleCall(address...\n      DUP8 \t\t\tscheduler.scheduleCall(address...\n      GAS \t\t\tscheduler.scheduleCall(address...\n      CALL \t\t\tscheduler.scheduleCall(address...\n      ISZERO \t\t\tscheduler.scheduleCall(address...\n      DUP1 \t\t\tscheduler.scheduleCall(address...\n      ISZERO \t\t\tscheduler.scheduleCall(address...\n      PUSH [tag] 88\t\t\tscheduler.scheduleCall(address...\n      JUMPI \t\t\tscheduler.scheduleCall(address...\n      RETURNDATASIZE \t\t\tscheduler.scheduleCall(address...\n      PUSH 0\t\t\tscheduler.scheduleCall(address...\n      DUP1 \t\t\tscheduler.scheduleCall(address...\n      RETURNDATACOPY \t\t\tscheduler.scheduleCall(address...\n      RETURNDATASIZE \t\t\tscheduler.scheduleCall(address...\n      PUSH 0\t\t\tscheduler.scheduleCall(address...\n      REVERT \t\t\tscheduler.scheduleCall(address...\n    tag 88\t\t\tscheduler.scheduleCall(address...\n      JUMPDEST \t\t\tscheduler.scheduleCall(address...\n      POP \t\t\tscheduler.scheduleCall(address...\n      POP \t\t\tscheduler.scheduleCall(address...\n      POP \t\t\tscheduler.scheduleCall(address...\n      POP \t\t\tscheduler.scheduleCall(address...\n      PUSH 40\t\t\tscheduler.scheduleCall(address...\n      MLOAD \t\t\tscheduler.scheduleCall(address...\n      RETURNDATASIZE \t\t\tscheduler.scheduleCall(address...\n      PUSH 0\t\t\tscheduler.scheduleCall(address...\n      DUP3 \t\t\tscheduler.scheduleCall(address...\n      RETURNDATACOPY \t\t\tscheduler.scheduleCall(address...\n      RETURNDATASIZE \t\t\tscheduler.scheduleCall(address...\n      PUSH 1F\t\t\tscheduler.scheduleCall(address...\n      NOT \t\t\tscheduler.scheduleCall(address...\n      PUSH 1F\t\t\tscheduler.scheduleCall(address...\n      DUP3 \t\t\tscheduler.scheduleCall(address...\n      ADD \t\t\tscheduler.scheduleCall(address...\n      AND \t\t\tscheduler.scheduleCall(address...\n      DUP3 \t\t\tscheduler.scheduleCall(address...\n      ADD \t\t\tscheduler.scheduleCall(address...\n      DUP1 \t\t\tscheduler.scheduleCall(address...\n      PUSH 40\t\t\tscheduler.scheduleCall(address...\n      MSTORE \t\t\tscheduler.scheduleCall(address...\n      POP \t\t\tscheduler.scheduleCall(address...\n      DUP2 \t\t\tscheduler.scheduleCall(address...\n      ADD \t\t\tscheduler.scheduleCall(address...\n      SWAP1 \t\t\tscheduler.scheduleCall(address...\n      PUSH [tag] 89\t\t\tscheduler.scheduleCall(address...\n      SWAP2 \t\t\tscheduler.scheduleCall(address...\n      SWAP1 \t\t\tscheduler.scheduleCall(address...\n      PUSH [tag] 90\t\t\tscheduler.scheduleCall(address...\n      JUMP \t\t\tscheduler.scheduleCall(address...\n    tag 89\t\t\tscheduler.scheduleCall(address...\n      JUMPDEST \t\t\tscheduler.scheduleCall(address...\n      SWAP1 \t\t\tbytes memory scheduleId = sche...\n      POP \t\t\tbytes memory scheduleId = sche...\n      DUP1 \t\t\tscheduleId\n      PUSH 40\t\t\tPriceCheckScheduled(scheduleId...\n      MLOAD \t\t\tPriceCheckScheduled(scheduleId...\n      PUSH [tag] 91\t\t\tPriceCheckScheduled(scheduleId...\n      SWAP2 \t\t\tPriceCheckScheduled(scheduleId...\n      SWAP1 \t\t\tPriceCheckScheduled(scheduleId...\n      PUSH [tag] 92\t\t\tPriceCheckScheduled(scheduleId...\n      JUMP \t\t\tPriceCheckScheduled(scheduleId...\n    tag 91\t\t\tPriceCheckScheduled(scheduleId...\n      JUMPDEST \t\t\tPriceCheckScheduled(scheduleId...\n      PUSH 40\t\t\tPriceCheckScheduled(scheduleId...\n      MLOAD \t\t\tPriceCheckScheduled(scheduleId...\n      DUP1 \t\t\tPriceCheckScheduled(scheduleId...\n      SWAP2 \t\t\tPriceCheckScheduled(scheduleId...\n      SUB \t\t\tPriceCheckScheduled(scheduleId...\n      SWAP1 \t\t\tPriceCheckScheduled(scheduleId...\n      KECCAK256 \t\t\tPriceCheckScheduled(scheduleId...\n      PUSH 9E989CCC644AFF3DCCB44D63C0125CF7C49F64C9631016543486E7DFC72187C7\t\t\tPriceCheckScheduled(scheduleId...\n      DUP8 \t\t\tinterval\n      TIMESTAMP \t\t\tblock.timestamp\n      PUSH [tag] 93\t\t\tblock.timestamp + interval\n      SWAP2 \t\t\tblock.timestamp + interval\n      SWAP1 \t\t\tblock.timestamp + interval\n      PUSH [tag] 94\t\t\tblock.timestamp + interval\n      JUMP \t\t\tblock.timestamp + interval\n    tag 93\t\t\tblock.timestamp + interval\n      JUMPDEST \t\t\tblock.timestamp + interval\n      PUSH 40\t\t\tPriceCheckScheduled(scheduleId...\n      MLOAD \t\t\tPriceCheckScheduled(scheduleId...\n      PUSH [tag] 95\t\t\tPriceCheckScheduled(scheduleId...\n      SWAP2 \t\t\tPriceCheckScheduled(scheduleId...\n      SWAP1 \t\t\tPriceCheckScheduled(scheduleId...\n      PUSH [tag] 23\t\t\tPriceCheckScheduled(scheduleId...\n      JUMP \t\t\tPriceCheckScheduled(scheduleId...\n    tag 95\t\t\tPriceCheckScheduled(scheduleId...\n      JUMPDEST \t\t\tPriceCheckScheduled(scheduleId...\n      PUSH 40\t\t\tPriceCheckScheduled(scheduleId...\n      MLOAD \t\t\tPriceCheckScheduled(scheduleId...\n      DUP1 \t\t\tPriceCheckScheduled(scheduleId...\n      SWAP2 \t\t\tPriceCheckScheduled(scheduleId...\n      SUB \t\t\tPriceCheckScheduled(scheduleId...\n      SWAP1 \t\t\tPriceCheckScheduled(scheduleId...\n      LOG2 \t\t\tPriceCheckScheduled(scheduleId...\n      POP \t\t\t{\\r\\n            bytes memory ...\n      POP \t\t\t{\\r\\n            bytes memory ...\n    tag 82\t\t\tif (currentPrice == desiredPri...\n      JUMPDEST \t\t\tif (currentPrice == desiredPri...\n      POP \t\t\t{\\r\\n        IERC20 token = IE...\n      POP \t\t\t{\\r\\n        IERC20 token = IE...\n      POP \t\t\t{\\r\\n        IERC20 token = IE...\n      POP \t\t\tfunction scheduleConditionalBa...\n      POP \t\t\tfunction scheduleConditionalBa...\n      POP \t\t\tfunction scheduleConditionalBa...\n      POP \t\t\tfunction scheduleConditionalBa...\n      POP \t\t\tfunction scheduleConditionalBa...\n      JUMP \t\t\tfunction scheduleConditionalBa...\n    tag 31\t\t\tfunction simpleERC20BatchTrans...\n      JUMPDEST \t\t\tfunction simpleERC20BatchTrans...\n      PUSH 0\t\t\tIERC20 token\n      DUP4 \t\t\ttokenAddress\n      SWAP1 \t\t\tIERC20 token = IERC20(tokenAdd...\n      POP \t\t\tIERC20 token = IERC20(tokenAdd...\n      DUP2 \t\t\tamount\n      MLOAD \t\t\tamount.length\n      DUP4 \t\t\trecipients\n      MLOAD \t\t\trecipients.length\n      EQ \t\t\trecipients.length == amount.le...\n      PUSH [tag] 97\t\t\trequire(recipients.length == a...\n      JUMPI \t\t\trequire(recipients.length == a...\n      PUSH 40\t\t\trequire(recipients.length == a...\n      MLOAD \t\t\trequire(recipients.length == a...\n      PUSH 8C379A000000000000000000000000000000000000000000000000000000000\t\t\trequire(recipients.length == a...\n      DUP2 \t\t\trequire(recipients.length == a...\n      MSTORE \t\t\trequire(recipients.length == a...\n      PUSH 4\t\t\trequire(recipients.length == a...\n      ADD \t\t\trequire(recipients.length == a...\n      PUSH [tag] 98\t\t\trequire(recipients.length == a...\n      SWAP1 \t\t\trequire(recipients.length == a...\n      PUSH [tag] 43\t\t\trequire(recipients.length == a...\n      JUMP \t\t\trequire(recipients.length == a...\n    tag 98\t\t\trequire(recipients.length == a...\n      JUMPDEST \t\t\trequire(recipients.length == a...\n      PUSH 40\t\t\trequire(recipients.length == a...\n      MLOAD \t\t\trequire(recipients.length == a...\n      DUP1 \t\t\trequire(recipients.length == a...\n      SWAP2 \t\t\trequire(recipients.length == a...\n      SUB \t\t\trequire(recipients.length == a...\n      SWAP1 \t\t\trequire(recipients.length == a...\n      REVERT \t\t\trequire(recipients.length == a...\n    tag 97\t\t\trequire(recipients.length == a...\n      JUMPDEST \t\t\trequire(recipients.length == a...\n      PUSH 0\t\t\tuint256 total\n      DUP1 \t\t\tuint256 i\n    tag 99\t\t\tfor (uint256 i = 0; i < recipi...\n      JUMPDEST \t\t\tfor (uint256 i = 0; i < recipi...\n      DUP5 \t\t\trecipients\n      MLOAD \t\t\trecipients.length\n      DUP2 \t\t\ti\n      LT \t\t\ti < recipients.length\n      ISZERO \t\t\tfor (uint256 i = 0; i < recipi...\n      PUSH [tag] 100\t\t\tfor (uint256 i = 0; i < recipi...\n      JUMPI \t\t\tfor (uint256 i = 0; i < recipi...\n      DUP4 \t\t\tamount\n      DUP2 \t\t\ti\n      DUP2 \t\t\tamount[i]\n      MLOAD \t\t\tamount[i]\n      DUP2 \t\t\tamount[i]\n      LT \t\t\tamount[i]\n      PUSH [tag] 102\t\t\tamount[i]\n      JUMPI \t\t\tamount[i]\n      PUSH [tag] 103\t\t\tamount[i]\n      PUSH [tag] 52\t\t\tamount[i]\n      JUMP \t\t\tamount[i]\n    tag 103\t\t\tamount[i]\n      JUMPDEST \t\t\tamount[i]\n    tag 102\t\t\tamount[i]\n      JUMPDEST \t\t\tamount[i]\n      PUSH 20\t\t\tamount[i]\n      MUL \t\t\tamount[i]\n      PUSH 20\t\t\tamount[i]\n      ADD \t\t\tamount[i]\n      ADD \t\t\tamount[i]\n      MLOAD \t\t\tamount[i]\n      DUP3 \t\t\ttotal\n      PUSH [tag] 104\t\t\ttotal + amount[i]\n      SWAP2 \t\t\ttotal + amount[i]\n      SWAP1 \t\t\ttotal + amount[i]\n      PUSH [tag] 94\t\t\ttotal + amount[i]\n      JUMP \t\t\ttotal + amount[i]\n    tag 104\t\t\ttotal + amount[i]\n      JUMPDEST \t\t\ttotal + amount[i]\n      SWAP2 \t\t\ttotal = total + amount[i]\n      POP \t\t\ttotal = total + amount[i]\n      DUP1 \t\t\ti++\n      DUP1 \t\t\ti++\n      PUSH [tag] 105\t\t\ti++\n      SWAP1 \t\t\ti++\n      PUSH [tag] 63\t\t\ti++\n      JUMP \t\t\ti++\n    tag 105\t\t\ti++\n      JUMPDEST \t\t\ti++\n      SWAP2 \t\t\ti++\n      POP \t\t\ti++\n      POP \t\t\ti++\n      PUSH [tag] 99\t\t\tfor (uint256 i = 0; i < recipi...\n      JUMP \t\t\tfor (uint256 i = 0; i < recipi...\n    tag 100\t\t\tfor (uint256 i = 0; i < recipi...\n      JUMPDEST \t\t\tfor (uint256 i = 0; i < recipi...\n      POP \t\t\tfor (uint256 i = 0; i < recipi...\n      DUP2 \t\t\ttoken\n      PUSH FFFFFFFFFFFFFFFFFFFFFFFFFFFFFFFFFFFFFFFF\t\t\ttoken.transferFrom\n      AND \t\t\ttoken.transferFrom\n      PUSH 23B872DD\t\t\ttoken.transferFrom\n      CALLER \t\t\tmsg.sender\n      ADDRESS \t\t\tthis\n      DUP5 \t\t\ttotal\n      PUSH 40\t\t\ttoken.transferFrom(msg.sender,...\n      MLOAD \t\t\ttoken.transferFrom(msg.sender,...\n      DUP5 \t\t\ttoken.transferFrom(msg.sender,...\n      PUSH FFFFFFFF\t\t\ttoken.transferFrom(msg.sender,...\n      AND \t\t\ttoken.transferFrom(msg.sender,...\n      PUSH E0\t\t\ttoken.transferFrom(msg.sender,...\n      SHL \t\t\ttoken.transferFrom(msg.sender,...\n      DUP2 \t\t\ttoken.transferFrom(msg.sender,...\n      MSTORE \t\t\ttoken.transferFrom(msg.sender,...\n      PUSH 4\t\t\ttoken.transferFrom(msg.sender,...\n      ADD \t\t\ttoken.transferFrom(msg.sender,...\n      PUSH [tag] 106\t\t\ttoken.transferFrom(msg.sender,...\n      SWAP4 \t\t\ttoken.transferFrom(msg.sender,...\n      SWAP3 \t\t\ttoken.transferFrom(msg.sender,...\n      SWAP2 \t\t\ttoken.transferFrom(msg.sender,...\n      SWAP1 \t\t\ttoken.transferFrom(msg.sender,...\n      PUSH [tag] 107\t\t\ttoken.transferFrom(msg.sender,...\n      JUMP \t\t\ttoken.transferFrom(msg.sender,...\n    tag 106\t\t\ttoken.transferFrom(msg.sender,...\n      JUMPDEST \t\t\ttoken.transferFrom(msg.sender,...\n      PUSH 20\t\t\ttoken.transferFrom(msg.sender,...\n      PUSH 40\t\t\ttoken.transferFrom(msg.sender,...\n      MLOAD \t\t\ttoken.transferFrom(msg.sender,...\n      DUP1 \t\t\ttoken.transferFrom(msg.sender,...\n      DUP4 \t\t\ttoken.transferFrom(msg.sender,...\n      SUB \t\t\ttoken.transferFrom(msg.sender,...\n      DUP2 \t\t\ttoken.transferFrom(msg.sender,...\n      PUSH 0\t\t\ttoken.transferFrom(msg.sender,...\n      DUP8 \t\t\ttoken.transferFrom(msg.sender,...\n      GAS \t\t\ttoken.transferFrom(msg.sender,...\n      CALL \t\t\ttoken.transferFrom(msg.sender,...\n      ISZERO \t\t\ttoken.transferFrom(msg.sender,...\n      DUP1 \t\t\ttoken.transferFrom(msg.sender,...\n      ISZERO \t\t\ttoken.transferFrom(msg.sender,...\n      PUSH [tag] 109\t\t\ttoken.transferFrom(msg.sender,...\n      JUMPI \t\t\ttoken.transferFrom(msg.sender,...\n      RETURNDATASIZE \t\t\ttoken.transferFrom(msg.sender,...\n      PUSH 0\t\t\ttoken.transferFrom(msg.sender,...\n      DUP1 \t\t\ttoken.transferFrom(msg.sender,...\n      RETURNDATACOPY \t\t\ttoken.transferFrom(msg.sender,...\n      RETURNDATASIZE \t\t\ttoken.transferFrom(msg.sender,...\n      PUSH 0\t\t\ttoken.transferFrom(msg.sender,...\n      REVERT \t\t\ttoken.transferFrom(msg.sender,...\n    tag 109\t\t\ttoken.transferFrom(msg.sender,...\n      JUMPDEST \t\t\ttoken.transferFrom(msg.sender,...\n      POP \t\t\ttoken.transferFrom(msg.sender,...\n      POP \t\t\ttoken.transferFrom(msg.sender,...\n      POP \t\t\ttoken.transferFrom(msg.sender,...\n      POP \t\t\ttoken.transferFrom(msg.sender,...\n      PUSH 40\t\t\ttoken.transferFrom(msg.sender,...\n      MLOAD \t\t\ttoken.transferFrom(msg.sender,...\n      RETURNDATASIZE \t\t\ttoken.transferFrom(msg.sender,...\n      PUSH 1F\t\t\ttoken.transferFrom(msg.sender,...\n      NOT \t\t\ttoken.transferFrom(msg.sender,...\n      PUSH 1F\t\t\ttoken.transferFrom(msg.sender,...\n      DUP3 \t\t\ttoken.transferFrom(msg.sender,...\n      ADD \t\t\ttoken.transferFrom(msg.sender,...\n      AND \t\t\ttoken.transferFrom(msg.sender,...\n      DUP3 \t\t\ttoken.transferFrom(msg.sender,...\n      ADD \t\t\ttoken.transferFrom(msg.sender,...\n      DUP1 \t\t\ttoken.transferFrom(msg.sender,...\n      PUSH 40\t\t\ttoken.transferFrom(msg.sender,...\n      MSTORE \t\t\ttoken.transferFrom(msg.sender,...\n      POP \t\t\ttoken.transferFrom(msg.sender,...\n      DUP2 \t\t\ttoken.transferFrom(msg.sender,...\n      ADD \t\t\ttoken.transferFrom(msg.sender,...\n      SWAP1 \t\t\ttoken.transferFrom(msg.sender,...\n      PUSH [tag] 110\t\t\ttoken.transferFrom(msg.sender,...\n      SWAP2 \t\t\ttoken.transferFrom(msg.sender,...\n      SWAP1 \t\t\ttoken.transferFrom(msg.sender,...\n      PUSH [tag] 111\t\t\ttoken.transferFrom(msg.sender,...\n      JUMP \t\t\ttoken.transferFrom(msg.sender,...\n    tag 110\t\t\ttoken.transferFrom(msg.sender,...\n      JUMPDEST \t\t\ttoken.transferFrom(msg.sender,...\n      PUSH [tag] 112\t\t\trequire(token.transferFrom(msg...\n      JUMPI \t\t\trequire(token.transferFrom(msg...\n      PUSH 40\t\t\trequire(token.transferFrom(msg...\n      MLOAD \t\t\trequire(token.transferFrom(msg...\n      PUSH 8C379A000000000000000000000000000000000000000000000000000000000\t\t\trequire(token.transferFrom(msg...\n      DUP2 \t\t\trequire(token.transferFrom(msg...\n      MSTORE \t\t\trequire(token.transferFrom(msg...\n      PUSH 4\t\t\trequire(token.transferFrom(msg...\n      ADD \t\t\trequire(token.transferFrom(msg...\n      PUSH [tag] 113\t\t\trequire(token.transferFrom(msg...\n      SWAP1 \t\t\trequire(token.transferFrom(msg...\n      PUSH [tag] 114\t\t\trequire(token.transferFrom(msg...\n      JUMP \t\t\trequire(token.transferFrom(msg...\n    tag 113\t\t\trequire(token.transferFrom(msg...\n      JUMPDEST \t\t\trequire(token.transferFrom(msg...\n      PUSH 40\t\t\trequire(token.transferFrom(msg...\n      MLOAD \t\t\trequire(token.transferFrom(msg...\n      DUP1 \t\t\trequire(token.transferFrom(msg...\n      SWAP2 \t\t\trequire(token.transferFrom(msg...\n      SUB \t\t\trequire(token.transferFrom(msg...\n      SWAP1 \t\t\trequire(token.transferFrom(msg...\n      REVERT \t\t\trequire(token.transferFrom(msg...\n    tag 112\t\t\trequire(token.transferFrom(msg...\n      JUMPDEST \t\t\trequire(token.transferFrom(msg...\n      PUSH 0\t\t\tuint256 i\n    tag 115\t\t\tfor (uint256 i = 0; i < recipi...\n      JUMPDEST \t\t\tfor (uint256 i = 0; i < recipi...\n      DUP5 \t\t\trecipients\n      MLOAD \t\t\trecipients.length\n      DUP2 \t\t\ti\n      LT \t\t\ti < recipients.length\n      ISZERO \t\t\tfor (uint256 i = 0; i < recipi...\n      PUSH [tag] 116\t\t\tfor (uint256 i = 0; i < recipi...\n      JUMPI \t\t\tfor (uint256 i = 0; i < recipi...\n      DUP3 \t\t\ttoken\n      PUSH FFFFFFFFFFFFFFFFFFFFFFFFFFFFFFFFFFFFFFFF\t\t\ttoken.transfer\n      AND \t\t\ttoken.transfer\n      PUSH A9059CBB\t\t\ttoken.transfer\n      DUP7 \t\t\trecipients\n      DUP4 \t\t\ti\n      DUP2 \t\t\trecipients[i]\n      MLOAD \t\t\trecipients[i]\n      DUP2 \t\t\trecipients[i]\n      LT \t\t\trecipients[i]\n      PUSH [tag] 118\t\t\trecipients[i]\n      JUMPI \t\t\trecipients[i]\n      PUSH [tag] 119\t\t\trecipients[i]\n      PUSH [tag] 52\t\t\trecipients[i]\n      JUMP \t\t\trecipients[i]\n    tag 119\t\t\trecipients[i]\n      JUMPDEST \t\t\trecipients[i]\n    tag 118\t\t\trecipients[i]\n      JUMPDEST \t\t\trecipients[i]\n      PUSH 20\t\t\trecipients[i]\n      MUL \t\t\trecipients[i]\n      PUSH 20\t\t\trecipients[i]\n      ADD \t\t\trecipients[i]\n      ADD \t\t\trecipients[i]\n      MLOAD \t\t\trecipients[i]\n      DUP7 \t\t\tamount\n      DUP5 \t\t\ti\n      DUP2 \t\t\tamount[i]\n      MLOAD \t\t\tamount[i]\n      DUP2 \t\t\tamount[i]\n      LT \t\t\tamount[i]\n      PUSH [tag] 120\t\t\tamount[i]\n      JUMPI \t\t\tamount[i]\n      PUSH [tag] 121\t\t\tamount[i]\n      PUSH [tag] 52\t\t\tamount[i]\n      JUMP \t\t\tamount[i]\n    tag 121\t\t\tamount[i]\n      JUMPDEST \t\t\tamount[i]\n    tag 120\t\t\tamount[i]\n      JUMPDEST \t\t\tamount[i]\n      PUSH 20\t\t\tamount[i]\n      MUL \t\t\tamount[i]\n      PUSH 20\t\t\tamount[i]\n      ADD \t\t\tamount[i]\n      ADD \t\t\tamount[i]\n      MLOAD \t\t\tamount[i]\n      PUSH 40\t\t\ttoken.transfer(recipients[i], ...\n      MLOAD \t\t\ttoken.transfer(recipients[i], ...\n      DUP4 \t\t\ttoken.transfer(recipients[i], ...\n      PUSH FFFFFFFF\t\t\ttoken.transfer(recipients[i], ...\n      AND \t\t\ttoken.transfer(recipients[i], ...\n      PUSH E0\t\t\ttoken.transfer(recipients[i], ...\n      SHL \t\t\ttoken.transfer(recipients[i], ...\n      DUP2 \t\t\ttoken.transfer(recipients[i], ...\n      MSTORE \t\t\ttoken.transfer(recipients[i], ...\n      PUSH 4\t\t\ttoken.transfer(recipients[i], ...\n      ADD \t\t\ttoken.transfer(recipients[i], ...\n      PUSH [tag] 122\t\t\ttoken.transfer(recipients[i], ...\n      SWAP3 \t\t\ttoken.transfer(recipients[i], ...\n      SWAP2 \t\t\ttoken.transfer(recipients[i], ...\n      SWAP1 \t\t\ttoken.transfer(recipients[i], ...\n      PUSH [tag] 123\t\t\ttoken.transfer(recipients[i], ...\n      JUMP \t\t\ttoken.transfer(recipients[i], ...\n    tag 122\t\t\ttoken.transfer(recipients[i], ...\n      JUMPDEST \t\t\ttoken.transfer(recipients[i], ...\n      PUSH 20\t\t\ttoken.transfer(recipients[i], ...\n      PUSH 40\t\t\ttoken.transfer(recipients[i], ...\n      MLOAD \t\t\ttoken.transfer(recipients[i], ...\n      DUP1 \t\t\ttoken.transfer(recipients[i], ...\n      DUP4 \t\t\ttoken.transfer(recipients[i], ...\n      SUB \t\t\ttoken.transfer(recipients[i], ...\n      DUP2 \t\t\ttoken.transfer(recipients[i], ...\n      PUSH 0\t\t\ttoken.transfer(recipients[i], ...\n      DUP8 \t\t\ttoken.transfer(recipients[i], ...\n      GAS \t\t\ttoken.transfer(recipients[i], ...\n      CALL \t\t\ttoken.transfer(recipients[i], ...\n      ISZERO \t\t\ttoken.transfer(recipients[i], ...\n      DUP1 \t\t\ttoken.transfer(recipients[i], ...\n      ISZERO \t\t\ttoken.transfer(recipients[i], ...\n      PUSH [tag] 125\t\t\ttoken.transfer(recipients[i], ...\n      JUMPI \t\t\ttoken.transfer(recipients[i], ...\n      RETURNDATASIZE \t\t\ttoken.transfer(recipients[i], ...\n      PUSH 0\t\t\ttoken.transfer(recipients[i], ...\n      DUP1 \t\t\ttoken.transfer(recipients[i], ...\n      RETURNDATACOPY \t\t\ttoken.transfer(recipients[i], ...\n      RETURNDATASIZE \t\t\ttoken.transfer(recipients[i], ...\n      PUSH 0\t\t\ttoken.transfer(recipients[i], ...\n      REVERT \t\t\ttoken.transfer(recipients[i], ...\n    tag 125\t\t\ttoken.transfer(recipients[i], ...\n      JUMPDEST \t\t\ttoken.transfer(recipients[i], ...\n      POP \t\t\ttoken.transfer(recipients[i], ...\n      POP \t\t\ttoken.transfer(recipients[i], ...\n      POP \t\t\ttoken.transfer(recipients[i], ...\n      POP \t\t\ttoken.transfer(recipients[i], ...\n      PUSH 40\t\t\ttoken.transfer(recipients[i], ...\n      MLOAD \t\t\ttoken.transfer(recipients[i], ...\n      RETURNDATASIZE \t\t\ttoken.transfer(recipients[i], ...\n      PUSH 1F\t\t\ttoken.transfer(recipients[i], ...\n      NOT \t\t\ttoken.transfer(recipients[i], ...\n      PUSH 1F\t\t\ttoken.transfer(recipients[i], ...\n      DUP3 \t\t\ttoken.transfer(recipients[i], ...\n      ADD \t\t\ttoken.transfer(recipients[i], ...\n      AND \t\t\ttoken.transfer(recipients[i], ...\n      DUP3 \t\t\ttoken.transfer(recipients[i], ...\n      ADD \t\t\ttoken.transfer(recipients[i], ...\n      DUP1 \t\t\ttoken.transfer(recipients[i], ...\n      PUSH 40\t\t\ttoken.transfer(recipients[i], ...\n      MSTORE \t\t\ttoken.transfer(recipients[i], ...\n      POP \t\t\ttoken.transfer(recipients[i], ...\n      DUP2 \t\t\ttoken.transfer(recipients[i], ...\n      ADD \t\t\ttoken.transfer(recipients[i], ...\n      SWAP1 \t\t\ttoken.transfer(recipients[i], ...\n      PUSH [tag] 126\t\t\ttoken.transfer(recipients[i], ...\n      SWAP2 \t\t\ttoken.transfer(recipients[i], ...\n      SWAP1 \t\t\ttoken.transfer(recipients[i], ...\n      PUSH [tag] 111\t\t\ttoken.transfer(recipients[i], ...\n      JUMP \t\t\ttoken.transfer(recipients[i], ...\n    tag 126\t\t\ttoken.transfer(recipients[i], ...\n      JUMPDEST \t\t\ttoken.transfer(recipients[i], ...\n      PUSH [tag] 127\t\t\trequire(token.transfer(recipie...\n      JUMPI \t\t\trequire(token.transfer(recipie...\n      PUSH 40\t\t\trequire(token.transfer(recipie...\n      MLOAD \t\t\trequire(token.transfer(recipie...\n      PUSH 8C379A000000000000000000000000000000000000000000000000000000000\t\t\trequire(token.transfer(recipie...\n      DUP2 \t\t\trequire(token.transfer(recipie...\n      MSTORE \t\t\trequire(token.transfer(recipie...\n      PUSH 4\t\t\trequire(token.transfer(recipie...\n      ADD \t\t\trequire(token.transfer(recipie...\n      PUSH [tag] 128\t\t\trequire(token.transfer(recipie...\n      SWAP1 \t\t\trequire(token.transfer(recipie...\n      PUSH [tag] 129\t\t\trequire(token.transfer(recipie...\n      JUMP \t\t\trequire(token.transfer(recipie...\n    tag 128\t\t\trequire(token.transfer(recipie...\n      JUMPDEST \t\t\trequire(token.transfer(recipie...\n      PUSH 40\t\t\trequire(token.transfer(recipie...\n      MLOAD \t\t\trequire(token.transfer(recipie...\n      DUP1 \t\t\trequire(token.transfer(recipie...\n      SWAP2 \t\t\trequire(token.transfer(recipie...\n      SUB \t\t\trequire(token.transfer(recipie...\n      SWAP1 \t\t\trequire(token.transfer(recipie...\n      REVERT \t\t\trequire(token.transfer(recipie...\n    tag 127\t\t\trequire(token.transfer(recipie...\n      JUMPDEST \t\t\trequire(token.transfer(recipie...\n      DUP5 \t\t\trecipients\n      DUP2 \t\t\ti\n      DUP2 \t\t\trecipients[i]\n      MLOAD \t\t\trecipients[i]\n      DUP2 \t\t\trecipients[i]\n      LT \t\t\trecipients[i]\n      PUSH [tag] 130\t\t\trecipients[i]\n      JUMPI \t\t\trecipients[i]\n      PUSH [tag] 131\t\t\trecipients[i]\n      PUSH [tag] 52\t\t\trecipients[i]\n      JUMP \t\t\trecipients[i]\n    tag 131\t\t\trecipients[i]\n      JUMPDEST \t\t\trecipients[i]\n    tag 130\t\t\trecipients[i]\n      JUMPDEST \t\t\trecipients[i]\n      PUSH 20\t\t\trecipients[i]\n      MUL \t\t\trecipients[i]\n      PUSH 20\t\t\trecipients[i]\n      ADD \t\t\trecipients[i]\n      ADD \t\t\trecipients[i]\n      MLOAD \t\t\trecipients[i]\n      PUSH FFFFFFFFFFFFFFFFFFFFFFFFFFFFFFFFFFFFFFFF\t\t\tErc20BatchTransfer(i, recipien...\n      AND \t\t\tErc20BatchTransfer(i, recipien...\n      DUP2 \t\t\ti\n      PUSH B9471439BD4C23F19D2B486548FA6061AB17E1DA9815F325F2A2B29F22E715E3\t\t\tErc20BatchTransfer(i, recipien...\n      DUP7 \t\t\tamount\n      DUP5 \t\t\ti\n      DUP2 \t\t\tamount[i]\n      MLOAD \t\t\tamount[i]\n      DUP2 \t\t\tamount[i]\n      LT \t\t\tamount[i]\n      PUSH [tag] 132\t\t\tamount[i]\n      JUMPI \t\t\tamount[i]\n      PUSH [tag] 133\t\t\tamount[i]\n      PUSH [tag] 52\t\t\tamount[i]\n      JUMP \t\t\tamount[i]\n    tag 133\t\t\tamount[i]\n      JUMPDEST \t\t\tamount[i]\n    tag 132\t\t\tamount[i]\n      JUMPDEST \t\t\tamount[i]\n      PUSH 20\t\t\tamount[i]\n      MUL \t\t\tamount[i]\n      PUSH 20\t\t\tamount[i]\n      ADD \t\t\tamount[i]\n      ADD \t\t\tamount[i]\n      MLOAD \t\t\tamount[i]\n      PUSH 40\t\t\tErc20BatchTransfer(i, recipien...\n      MLOAD \t\t\tErc20BatchTransfer(i, recipien...\n      PUSH [tag] 134\t\t\tErc20BatchTransfer(i, recipien...\n      SWAP2 \t\t\tErc20BatchTransfer(i, recipien...\n      SWAP1 \t\t\tErc20BatchTransfer(i, recipien...\n      PUSH [tag] 23\t\t\tErc20BatchTransfer(i, recipien...\n      JUMP \t\t\tErc20BatchTransfer(i, recipien...\n    tag 134\t\t\tErc20BatchTransfer(i, recipien...\n      JUMPDEST \t\t\tErc20BatchTransfer(i, recipien...\n      PUSH 40\t\t\tErc20BatchTransfer(i, recipien...\n      MLOAD \t\t\tErc20BatchTransfer(i, recipien...\n      DUP1 \t\t\tErc20BatchTransfer(i, recipien...\n      SWAP2 \t\t\tErc20BatchTransfer(i, recipien...\n      SUB \t\t\tErc20BatchTransfer(i, recipien...\n      SWAP1 \t\t\tErc20BatchTransfer(i, recipien...\n      LOG3 \t\t\tErc20BatchTransfer(i, recipien...\n      DUP1 \t\t\ti++\n      DUP1 \t\t\ti++\n      PUSH [tag] 135\t\t\ti++\n      SWAP1 \t\t\ti++\n      PUSH [tag] 63\t\t\ti++\n      JUMP \t\t\ti++\n    tag 135\t\t\ti++\n      JUMPDEST \t\t\ti++\n      SWAP2 \t\t\ti++\n      POP \t\t\ti++\n      POP \t\t\ti++\n      PUSH [tag] 115\t\t\tfor (uint256 i = 0; i < recipi...\n      JUMP \t\t\tfor (uint256 i = 0; i < recipi...\n    tag 116\t\t\tfor (uint256 i = 0; i < recipi...\n      JUMPDEST \t\t\tfor (uint256 i = 0; i < recipi...\n      POP \t\t\tfor (uint256 i = 0; i < recipi...\n      POP \t\t\t{\\r\\n        IERC20 token = IE...\n      POP \t\t\t{\\r\\n        IERC20 token = IE...\n      POP \t\t\tfunction simpleERC20BatchTrans...\n      POP \t\t\tfunction simpleERC20BatchTrans...\n      POP \t\t\tfunction simpleERC20BatchTrans...\n      JUMP \t\t\tfunction simpleERC20BatchTrans...\n    tag 35\t\t\tfunction scheduleERC20BatchTra...\n      JUMPDEST \t\t\tfunction scheduleERC20BatchTra...\n      PUSH 0\t\t\tIERC20 token\n      DUP5 \t\t\ttokenAddress\n      SWAP1 \t\t\tIERC20 token = IERC20(tokenAdd...\n      POP \t\t\tIERC20 token = IERC20(tokenAdd...\n      DUP3 \t\t\tamounts\n      MLOAD \t\t\tamounts.length\n      DUP5 \t\t\trecipients\n      MLOAD \t\t\trecipients.length\n      EQ \t\t\trecipients.length == amounts.l...\n      PUSH [tag] 137\t\t\trequire(recipients.length == a...\n      JUMPI \t\t\trequire(recipients.length == a...\n      PUSH 40\t\t\trequire(recipients.length == a...\n      MLOAD \t\t\trequire(recipients.length == a...\n      PUSH 8C379A000000000000000000000000000000000000000000000000000000000\t\t\trequire(recipients.length == a...\n      DUP2 \t\t\trequire(recipients.length == a...\n      MSTORE \t\t\trequire(recipients.length == a...\n      PUSH 4\t\t\trequire(recipients.length == a...\n      ADD \t\t\trequire(recipients.length == a...\n      PUSH [tag] 138\t\t\trequire(recipients.length == a...\n      SWAP1 \t\t\trequire(recipients.length == a...\n      PUSH [tag] 43\t\t\trequire(recipients.length == a...\n      JUMP \t\t\trequire(recipients.length == a...\n    tag 138\t\t\trequire(recipients.length == a...\n      JUMPDEST \t\t\trequire(recipients.length == a...\n      PUSH 40\t\t\trequire(recipients.length == a...\n      MLOAD \t\t\trequire(recipients.length == a...\n      DUP1 \t\t\trequire(recipients.length == a...\n      SWAP2 \t\t\trequire(recipients.length == a...\n      SUB \t\t\trequire(recipients.length == a...\n      SWAP1 \t\t\trequire(recipients.length == a...\n      REVERT \t\t\trequire(recipients.length == a...\n    tag 137\t\t\trequire(recipients.length == a...\n      JUMPDEST \t\t\trequire(recipients.length == a...\n      PUSH 0\t\t\tuint256 total\n      DUP1 \t\t\tuint256 i\n    tag 139\t\t\tfor (uint256 i = 0; i < amount...\n      JUMPDEST \t\t\tfor (uint256 i = 0; i < amount...\n      DUP5 \t\t\tamounts\n      MLOAD \t\t\tamounts.length\n      DUP2 \t\t\ti\n      LT \t\t\ti < amounts.length\n      ISZERO \t\t\tfor (uint256 i = 0; i < amount...\n      PUSH [tag] 140\t\t\tfor (uint256 i = 0; i < amount...\n      JUMPI \t\t\tfor (uint256 i = 0; i < amount...\n      DUP5 \t\t\tamounts\n      DUP2 \t\t\ti\n      DUP2 \t\t\tamounts[i]\n      MLOAD \t\t\tamounts[i]\n      DUP2 \t\t\tamounts[i]\n      LT \t\t\tamounts[i]\n      PUSH [tag] 142\t\t\tamounts[i]\n      JUMPI \t\t\tamounts[i]\n      PUSH [tag] 143\t\t\tamounts[i]\n      PUSH [tag] 52\t\t\tamounts[i]\n      JUMP \t\t\tamounts[i]\n    tag 143\t\t\tamounts[i]\n      JUMPDEST \t\t\tamounts[i]\n    tag 142\t\t\tamounts[i]\n      JUMPDEST \t\t\tamounts[i]\n      PUSH 20\t\t\tamounts[i]\n      MUL \t\t\tamounts[i]\n      PUSH 20\t\t\tamounts[i]\n      ADD \t\t\tamounts[i]\n      ADD \t\t\tamounts[i]\n      MLOAD \t\t\tamounts[i]\n      DUP3 \t\t\ttotal\n      PUSH [tag] 144\t\t\ttotal + amounts[i]\n      SWAP2 \t\t\ttotal + amounts[i]\n      SWAP1 \t\t\ttotal + amounts[i]\n      PUSH [tag] 94\t\t\ttotal + amounts[i]\n      JUMP \t\t\ttotal + amounts[i]\n    tag 144\t\t\ttotal + amounts[i]\n      JUMPDEST \t\t\ttotal + amounts[i]\n      SWAP2 \t\t\ttotal = total + amounts[i]\n      POP \t\t\ttotal = total + amounts[i]\n      DUP1 \t\t\ti++\n      DUP1 \t\t\ti++\n      PUSH [tag] 145\t\t\ti++\n      SWAP1 \t\t\ti++\n      PUSH [tag] 63\t\t\ti++\n      JUMP \t\t\ti++\n    tag 145\t\t\ti++\n      JUMPDEST \t\t\ti++\n      SWAP2 \t\t\ti++\n      POP \t\t\ti++\n      POP \t\t\ti++\n      PUSH [tag] 139\t\t\tfor (uint256 i = 0; i < amount...\n      JUMP \t\t\tfor (uint256 i = 0; i < amount...\n    tag 140\t\t\tfor (uint256 i = 0; i < amount...\n      JUMPDEST \t\t\tfor (uint256 i = 0; i < amount...\n      POP \t\t\tfor (uint256 i = 0; i < amount...\n      DUP2 \t\t\ttoken\n      PUSH FFFFFFFFFFFFFFFFFFFFFFFFFFFFFFFFFFFFFFFF\t\t\ttoken.transferFrom\n      AND \t\t\ttoken.transferFrom\n      PUSH 23B872DD\t\t\ttoken.transferFrom\n      CALLER \t\t\tmsg.sender\n      ADDRESS \t\t\tthis\n      DUP5 \t\t\ttotal\n      PUSH 40\t\t\ttoken.transferFrom(msg.sender,...\n      MLOAD \t\t\ttoken.transferFrom(msg.sender,...\n      DUP5 \t\t\ttoken.transferFrom(msg.sender,...\n      PUSH FFFFFFFF\t\t\ttoken.transferFrom(msg.sender,...\n      AND \t\t\ttoken.transferFrom(msg.sender,...\n      PUSH E0\t\t\ttoken.transferFrom(msg.sender,...\n      SHL \t\t\ttoken.transferFrom(msg.sender,...\n      DUP2 \t\t\ttoken.transferFrom(msg.sender,...\n      MSTORE \t\t\ttoken.transferFrom(msg.sender,...\n      PUSH 4\t\t\ttoken.transferFrom(msg.sender,...\n      ADD \t\t\ttoken.transferFrom(msg.sender,...\n      PUSH [tag] 146\t\t\ttoken.transferFrom(msg.sender,...\n      SWAP4 \t\t\ttoken.transferFrom(msg.sender,...\n      SWAP3 \t\t\ttoken.transferFrom(msg.sender,...\n      SWAP2 \t\t\ttoken.transferFrom(msg.sender,...\n      SWAP1 \t\t\ttoken.transferFrom(msg.sender,...\n      PUSH [tag] 107\t\t\ttoken.transferFrom(msg.sender,...\n      JUMP \t\t\ttoken.transferFrom(msg.sender,...\n    tag 146\t\t\ttoken.transferFrom(msg.sender,...\n      JUMPDEST \t\t\ttoken.transferFrom(msg.sender,...\n      PUSH 20\t\t\ttoken.transferFrom(msg.sender,...\n      PUSH 40\t\t\ttoken.transferFrom(msg.sender,...\n      MLOAD \t\t\ttoken.transferFrom(msg.sender,...\n      DUP1 \t\t\ttoken.transferFrom(msg.sender,...\n      DUP4 \t\t\ttoken.transferFrom(msg.sender,...\n      SUB \t\t\ttoken.transferFrom(msg.sender,...\n      DUP2 \t\t\ttoken.transferFrom(msg.sender,...\n      PUSH 0\t\t\ttoken.transferFrom(msg.sender,...\n      DUP8 \t\t\ttoken.transferFrom(msg.sender,...\n      GAS \t\t\ttoken.transferFrom(msg.sender,...\n      CALL \t\t\ttoken.transferFrom(msg.sender,...\n      ISZERO \t\t\ttoken.transferFrom(msg.sender,...\n      DUP1 \t\t\ttoken.transferFrom(msg.sender,...\n      ISZERO \t\t\ttoken.transferFrom(msg.sender,...\n      PUSH [tag] 148\t\t\ttoken.transferFrom(msg.sender,...\n      JUMPI \t\t\ttoken.transferFrom(msg.sender,...\n      RETURNDATASIZE \t\t\ttoken.transferFrom(msg.sender,...\n      PUSH 0\t\t\ttoken.transferFrom(msg.sender,...\n      DUP1 \t\t\ttoken.transferFrom(msg.sender,...\n      RETURNDATACOPY \t\t\ttoken.transferFrom(msg.sender,...\n      RETURNDATASIZE \t\t\ttoken.transferFrom(msg.sender,...\n      PUSH 0\t\t\ttoken.transferFrom(msg.sender,...\n      REVERT \t\t\ttoken.transferFrom(msg.sender,...\n    tag 148\t\t\ttoken.transferFrom(msg.sender,...\n      JUMPDEST \t\t\ttoken.transferFrom(msg.sender,...\n      POP \t\t\ttoken.transferFrom(msg.sender,...\n      POP \t\t\ttoken.transferFrom(msg.sender,...\n      POP \t\t\ttoken.transferFrom(msg.sender,...\n      POP \t\t\ttoken.transferFrom(msg.sender,...\n      PUSH 40\t\t\ttoken.transferFrom(msg.sender,...\n      MLOAD \t\t\ttoken.transferFrom(msg.sender,...\n      RETURNDATASIZE \t\t\ttoken.transferFrom(msg.sender,...\n      PUSH 1F\t\t\ttoken.transferFrom(msg.sender,...\n      NOT \t\t\ttoken.transferFrom(msg.sender,...\n      PUSH 1F\t\t\ttoken.transferFrom(msg.sender,...\n      DUP3 \t\t\ttoken.transferFrom(msg.sender,...\n      ADD \t\t\ttoken.transferFrom(msg.sender,...\n      AND \t\t\ttoken.transferFrom(msg.sender,...\n      DUP3 \t\t\ttoken.transferFrom(msg.sender,...\n      ADD \t\t\ttoken.transferFrom(msg.sender,...\n      DUP1 \t\t\ttoken.transferFrom(msg.sender,...\n      PUSH 40\t\t\ttoken.transferFrom(msg.sender,...\n      MSTORE \t\t\ttoken.transferFrom(msg.sender,...\n      POP \t\t\ttoken.transferFrom(msg.sender,...\n      DUP2 \t\t\ttoken.transferFrom(msg.sender,...\n      ADD \t\t\ttoken.transferFrom(msg.sender,...\n      SWAP1 \t\t\ttoken.transferFrom(msg.sender,...\n      PUSH [tag] 149\t\t\ttoken.transferFrom(msg.sender,...\n      SWAP2 \t\t\ttoken.transferFrom(msg.sender,...\n      SWAP1 \t\t\ttoken.transferFrom(msg.sender,...\n      PUSH [tag] 111\t\t\ttoken.transferFrom(msg.sender,...\n      JUMP \t\t\ttoken.transferFrom(msg.sender,...\n    tag 149\t\t\ttoken.transferFrom(msg.sender,...\n      JUMPDEST \t\t\ttoken.transferFrom(msg.sender,...\n      PUSH [tag] 150\t\t\trequire(token.transferFrom(msg...\n      JUMPI \t\t\trequire(token.transferFrom(msg...\n      PUSH 40\t\t\trequire(token.transferFrom(msg...\n      MLOAD \t\t\trequire(token.transferFrom(msg...\n      PUSH 8C379A000000000000000000000000000000000000000000000000000000000\t\t\trequire(token.transferFrom(msg...\n      DUP2 \t\t\trequire(token.transferFrom(msg...\n      MSTORE \t\t\trequire(token.transferFrom(msg...\n      PUSH 4\t\t\trequire(token.transferFrom(msg...\n      ADD \t\t\trequire(token.transferFrom(msg...\n      PUSH [tag] 151\t\t\trequire(token.transferFrom(msg...\n      SWAP1 \t\t\trequire(token.transferFrom(msg...\n      PUSH [tag] 152\t\t\trequire(token.transferFrom(msg...\n      JUMP \t\t\trequire(token.transferFrom(msg...\n    tag 151\t\t\trequire(token.transferFrom(msg...\n      JUMPDEST \t\t\trequire(token.transferFrom(msg...\n      PUSH 40\t\t\trequire(token.transferFrom(msg...\n      MLOAD \t\t\trequire(token.transferFrom(msg...\n      DUP1 \t\t\trequire(token.transferFrom(msg...\n      SWAP2 \t\t\trequire(token.transferFrom(msg...\n      SUB \t\t\trequire(token.transferFrom(msg...\n      SWAP1 \t\t\trequire(token.transferFrom(msg...\n      REVERT \t\t\trequire(token.transferFrom(msg...\n    tag 150\t\t\trequire(token.transferFrom(msg...\n      JUMPDEST \t\t\trequire(token.transferFrom(msg...\n      PUSH 0\t\t\tbytes memory data\n      DUP7 \t\t\ttokenAddress\n      DUP7 \t\t\trecipients\n      DUP7 \t\t\tamounts\n      PUSH 40\t\t\tabi.encodeWithSignature(\"execu...\n      MLOAD \t\t\tabi.encodeWithSignature(\"execu...\n      PUSH 24\t\t\tabi.encodeWithSignature(\"execu...\n      ADD \t\t\tabi.encodeWithSignature(\"execu...\n      PUSH [tag] 153\t\t\tabi.encodeWithSignature(\"execu...\n      SWAP4 \t\t\tabi.encodeWithSignature(\"execu...\n      SWAP3 \t\t\tabi.encodeWithSignature(\"execu...\n      SWAP2 \t\t\tabi.encodeWithSignature(\"execu...\n      SWAP1 \t\t\tabi.encodeWithSignature(\"execu...\n      PUSH [tag] 154\t\t\tabi.encodeWithSignature(\"execu...\n      JUMP \t\t\tabi.encodeWithSignature(\"execu...\n    tag 153\t\t\tabi.encodeWithSignature(\"execu...\n      JUMPDEST \t\t\tabi.encodeWithSignature(\"execu...\n      PUSH 40\t\t\tabi.encodeWithSignature(\"execu...\n      MLOAD \t\t\tabi.encodeWithSignature(\"execu...\n      PUSH 20\t\t\tabi.encodeWithSignature(\"execu...\n      DUP2 \t\t\tabi.encodeWithSignature(\"execu...\n      DUP4 \t\t\tabi.encodeWithSignature(\"execu...\n      SUB \t\t\tabi.encodeWithSignature(\"execu...\n      SUB \t\t\tabi.encodeWithSignature(\"execu...\n      DUP2 \t\t\tabi.encodeWithSignature(\"execu...\n      MSTORE \t\t\tabi.encodeWithSignature(\"execu...\n      SWAP1 \t\t\tabi.encodeWithSignature(\"execu...\n      PUSH 40\t\t\tabi.encodeWithSignature(\"execu...\n      MSTORE \t\t\tabi.encodeWithSignature(\"execu...\n      PUSH 46BA5FED00000000000000000000000000000000000000000000000000000000\t\t\tabi.encodeWithSignature(\"execu...\n      PUSH FFFFFFFFFFFFFFFFFFFFFFFFFFFFFFFFFFFFFFFFFFFFFFFFFFFFFFFF\t\t\tabi.encodeWithSignature(\"execu...\n      NOT \t\t\tabi.encodeWithSignature(\"execu...\n      AND \t\t\tabi.encodeWithSignature(\"execu...\n      PUSH 20\t\t\tabi.encodeWithSignature(\"execu...\n      DUP3 \t\t\tabi.encodeWithSignature(\"execu...\n      ADD \t\t\tabi.encodeWithSignature(\"execu...\n      DUP1 \t\t\tabi.encodeWithSignature(\"execu...\n      MLOAD \t\t\tabi.encodeWithSignature(\"execu...\n      PUSH FFFFFFFFFFFFFFFFFFFFFFFFFFFFFFFFFFFFFFFFFFFFFFFFFFFFFFFF\t\t\tabi.encodeWithSignature(\"execu...\n      DUP4 \t\t\tabi.encodeWithSignature(\"execu...\n      DUP2 \t\t\tabi.encodeWithSignature(\"execu...\n      DUP4 \t\t\tabi.encodeWithSignature(\"execu...\n      AND \t\t\tabi.encodeWithSignature(\"execu...\n      OR \t\t\tabi.encodeWithSignature(\"execu...\n      DUP4 \t\t\tabi.encodeWithSignature(\"execu...\n      MSTORE \t\t\tabi.encodeWithSignature(\"execu...\n      POP \t\t\tabi.encodeWithSignature(\"execu...\n      POP \t\t\tabi.encodeWithSignature(\"execu...\n      POP \t\t\tabi.encodeWithSignature(\"execu...\n      POP \t\t\tabi.encodeWithSignature(\"execu...\n      SWAP1 \t\t\tbytes memory data = abi.encode...\n      POP \t\t\tbytes memory data = abi.encode...\n      PUSH 0\t\t\tbytes memory scheduleId\n      DUP1 \t\t\tscheduler\n      PUSH 0\t\t\tscheduler\n      SWAP1 \t\t\tscheduler\n      SLOAD \t\t\tscheduler\n      SWAP1 \t\t\tscheduler\n      PUSH 100\t\t\tscheduler\n      EXP \t\t\tscheduler\n      SWAP1 \t\t\tscheduler\n      DIV \t\t\tscheduler\n      PUSH FFFFFFFFFFFFFFFFFFFFFFFFFFFFFFFFFFFFFFFF\t\t\tscheduler\n      AND \t\t\tscheduler\n      PUSH FFFFFFFFFFFFFFFFFFFFFFFFFFFFFFFFFFFFFFFF\t\t\tscheduler.scheduleCall\n      AND \t\t\tscheduler.scheduleCall\n      PUSH 168D560D\t\t\tscheduler.scheduleCall\n      ADDRESS \t\t\tthis\n      PUSH 0\t\t\t0\n      PUSH 200B20\t\t\t2100000\n      PUSH FA00\t\t\t64000\n      DUP11 \t\t\tdelay\n      DUP9 \t\t\tdata\n      PUSH 40\t\t\tscheduler.scheduleCall(address...\n      MLOAD \t\t\tscheduler.scheduleCall(address...\n      DUP8 \t\t\tscheduler.scheduleCall(address...\n      PUSH FFFFFFFF\t\t\tscheduler.scheduleCall(address...\n      AND \t\t\tscheduler.scheduleCall(address...\n      PUSH E0\t\t\tscheduler.scheduleCall(address...\n      SHL \t\t\tscheduler.scheduleCall(address...\n      DUP2 \t\t\tscheduler.scheduleCall(address...\n      MSTORE \t\t\tscheduler.scheduleCall(address...\n      PUSH 4\t\t\tscheduler.scheduleCall(address...\n      ADD \t\t\tscheduler.scheduleCall(address...\n      PUSH [tag] 155\t\t\tscheduler.scheduleCall(address...\n      SWAP7 \t\t\tscheduler.scheduleCall(address...\n      SWAP6 \t\t\tscheduler.scheduleCall(address...\n      SWAP5 \t\t\tscheduler.scheduleCall(address...\n      SWAP4 \t\t\tscheduler.scheduleCall(address...\n      SWAP3 \t\t\tscheduler.scheduleCall(address...\n      SWAP2 \t\t\tscheduler.scheduleCall(address...\n      SWAP1 \t\t\tscheduler.scheduleCall(address...\n      PUSH [tag] 86\t\t\tscheduler.scheduleCall(address...\n      JUMP \t\t\tscheduler.scheduleCall(address...\n    tag 155\t\t\tscheduler.scheduleCall(address...\n      JUMPDEST \t\t\tscheduler.scheduleCall(address...\n      PUSH 0\t\t\tscheduler.scheduleCall(address...\n      PUSH 40\t\t\tscheduler.scheduleCall(address...\n      MLOAD \t\t\tscheduler.scheduleCall(address...\n      DUP1 \t\t\tscheduler.scheduleCall(address...\n      DUP4 \t\t\tscheduler.scheduleCall(address...\n      SUB \t\t\tscheduler.scheduleCall(address...\n      DUP2 \t\t\tscheduler.scheduleCall(address...\n      PUSH 0\t\t\tscheduler.scheduleCall(address...\n      DUP8 \t\t\tscheduler.scheduleCall(address...\n      GAS \t\t\tscheduler.scheduleCall(address...\n      CALL \t\t\tscheduler.scheduleCall(address...\n      ISZERO \t\t\tscheduler.scheduleCall(address...\n      DUP1 \t\t\tscheduler.scheduleCall(address...\n      ISZERO \t\t\tscheduler.scheduleCall(address...\n      PUSH [tag] 157\t\t\tscheduler.scheduleCall(address...\n      JUMPI \t\t\tscheduler.scheduleCall(address...\n      RETURNDATASIZE \t\t\tscheduler.scheduleCall(address...\n      PUSH 0\t\t\tscheduler.scheduleCall(address...\n      DUP1 \t\t\tscheduler.scheduleCall(address...\n      RETURNDATACOPY \t\t\tscheduler.scheduleCall(address...\n      RETURNDATASIZE \t\t\tscheduler.scheduleCall(address...\n      PUSH 0\t\t\tscheduler.scheduleCall(address...\n      REVERT \t\t\tscheduler.scheduleCall(address...\n    tag 157\t\t\tscheduler.scheduleCall(address...\n      JUMPDEST \t\t\tscheduler.scheduleCall(address...\n      POP \t\t\tscheduler.scheduleCall(address...\n      POP \t\t\tscheduler.scheduleCall(address...\n      POP \t\t\tscheduler.scheduleCall(address...\n      POP \t\t\tscheduler.scheduleCall(address...\n      PUSH 40\t\t\tscheduler.scheduleCall(address...\n      MLOAD \t\t\tscheduler.scheduleCall(address...\n      RETURNDATASIZE \t\t\tscheduler.scheduleCall(address...\n      PUSH 0\t\t\tscheduler.scheduleCall(address...\n      DUP3 \t\t\tscheduler.scheduleCall(address...\n      RETURNDATACOPY \t\t\tscheduler.scheduleCall(address...\n      RETURNDATASIZE \t\t\tscheduler.scheduleCall(address...\n      PUSH 1F\t\t\tscheduler.scheduleCall(address...\n      NOT \t\t\tscheduler.scheduleCall(address...\n      PUSH 1F\t\t\tscheduler.scheduleCall(address...\n      DUP3 \t\t\tscheduler.scheduleCall(address...\n      ADD \t\t\tscheduler.scheduleCall(address...\n      AND \t\t\tscheduler.scheduleCall(address...\n      DUP3 \t\t\tscheduler.scheduleCall(address...\n      ADD \t\t\tscheduler.scheduleCall(address...\n      DUP1 \t\t\tscheduler.scheduleCall(address...\n      PUSH 40\t\t\tscheduler.scheduleCall(address...\n      MSTORE \t\t\tscheduler.scheduleCall(address...\n      POP \t\t\tscheduler.scheduleCall(address...\n      DUP2 \t\t\tscheduler.scheduleCall(address...\n      ADD \t\t\tscheduler.scheduleCall(address...\n      SWAP1 \t\t\tscheduler.scheduleCall(address...\n      PUSH [tag] 158\t\t\tscheduler.scheduleCall(address...\n      SWAP2 \t\t\tscheduler.scheduleCall(address...\n      SWAP1 \t\t\tscheduler.scheduleCall(address...\n      PUSH [tag] 90\t\t\tscheduler.scheduleCall(address...\n      JUMP \t\t\tscheduler.scheduleCall(address...\n    tag 158\t\t\tscheduler.scheduleCall(address...\n      JUMPDEST \t\t\tscheduler.scheduleCall(address...\n      SWAP1 \t\t\tbytes memory scheduleId = sche...\n      POP \t\t\tbytes memory scheduleId = sche...\n      DUP8 \t\t\ttokenAddress\n      PUSH FFFFFFFFFFFFFFFFFFFFFFFFFFFFFFFFFFFFFFFF\t\t\tTransferScheduled(scheduleId,t...\n      AND \t\t\tTransferScheduled(scheduleId,t...\n      DUP2 \t\t\tscheduleId\n      PUSH 40\t\t\tTransferScheduled(scheduleId,t...\n      MLOAD \t\t\tTransferScheduled(scheduleId,t...\n      PUSH [tag] 159\t\t\tTransferScheduled(scheduleId,t...\n      SWAP2 \t\t\tTransferScheduled(scheduleId,t...\n      SWAP1 \t\t\tTransferScheduled(scheduleId,t...\n      PUSH [tag] 92\t\t\tTransferScheduled(scheduleId,t...\n      JUMP \t\t\tTransferScheduled(scheduleId,t...\n    tag 159\t\t\tTransferScheduled(scheduleId,t...\n      JUMPDEST \t\t\tTransferScheduled(scheduleId,t...\n      PUSH 40\t\t\tTransferScheduled(scheduleId,t...\n      MLOAD \t\t\tTransferScheduled(scheduleId,t...\n      DUP1 \t\t\tTransferScheduled(scheduleId,t...\n      SWAP2 \t\t\tTransferScheduled(scheduleId,t...\n      SUB \t\t\tTransferScheduled(scheduleId,t...\n      SWAP1 \t\t\tTransferScheduled(scheduleId,t...\n      KECCAK256 \t\t\tTransferScheduled(scheduleId,t...\n      PUSH C9C9AFE41DD5E3A9438DD88814EDCB9C8089A9E980F48B14414EDA3D6D3D0E9A\t\t\tTransferScheduled(scheduleId,t...\n      DUP10 \t\t\trecipients\n      DUP10 \t\t\tamounts\n      DUP10 \t\t\tdelay\n      TIMESTAMP \t\t\tblock.timestamp\n      PUSH [tag] 160\t\t\tblock.timestamp + delay\n      SWAP2 \t\t\tblock.timestamp + delay\n      SWAP1 \t\t\tblock.timestamp + delay\n      PUSH [tag] 94\t\t\tblock.timestamp + delay\n      JUMP \t\t\tblock.timestamp + delay\n    tag 160\t\t\tblock.timestamp + delay\n      JUMPDEST \t\t\tblock.timestamp + delay\n      PUSH 40\t\t\tTransferScheduled(scheduleId,t...\n      MLOAD \t\t\tTransferScheduled(scheduleId,t...\n      PUSH [tag] 161\t\t\tTransferScheduled(scheduleId,t...\n      SWAP4 \t\t\tTransferScheduled(scheduleId,t...\n      SWAP3 \t\t\tTransferScheduled(scheduleId,t...\n      SWAP2 \t\t\tTransferScheduled(scheduleId,t...\n      SWAP1 \t\t\tTransferScheduled(scheduleId,t...\n      PUSH [tag] 162\t\t\tTransferScheduled(scheduleId,t...\n      JUMP \t\t\tTransferScheduled(scheduleId,t...\n    tag 161\t\t\tTransferScheduled(scheduleId,t...\n      JUMPDEST \t\t\tTransferScheduled(scheduleId,t...\n      PUSH 40\t\t\tTransferScheduled(scheduleId,t...\n      MLOAD \t\t\tTransferScheduled(scheduleId,t...\n      DUP1 \t\t\tTransferScheduled(scheduleId,t...\n      SWAP2 \t\t\tTransferScheduled(scheduleId,t...\n      SUB \t\t\tTransferScheduled(scheduleId,t...\n      SWAP1 \t\t\tTransferScheduled(scheduleId,t...\n      LOG3 \t\t\tTransferScheduled(scheduleId,t...\n      POP \t\t\t{\\r\\n        IERC20 token = IE...\n      POP \t\t\t{\\r\\n        IERC20 token = IE...\n      POP \t\t\t{\\r\\n        IERC20 token = IE...\n      POP \t\t\t{\\r\\n        IERC20 token = IE...\n      POP \t\t\tfunction scheduleERC20BatchTra...\n      POP \t\t\tfunction scheduleERC20BatchTra...\n      POP \t\t\tfunction scheduleERC20BatchTra...\n      POP \t\t\tfunction scheduleERC20BatchTra...\n      JUMP \t\t\tfunction scheduleERC20BatchTra...\n    tag 39\t\t\tfunction checkPriceAndTransfer...\n      JUMPDEST \t\t\tfunction checkPriceAndTransfer...\n      PUSH 0\t\t\tIERC20 token\n      DUP7 \t\t\ttokenAddress\n      SWAP1 \t\t\tIERC20 token = IERC20(tokenAdd...\n      POP \t\t\tIERC20 token = IERC20(tokenAdd...\n      PUSH 0\t\t\tuint256 currentPrice\n      PUSH 1\t\t\toracle\n      PUSH 0\t\t\toracle\n      SWAP1 \t\t\toracle\n      SLOAD \t\t\toracle\n      SWAP1 \t\t\toracle\n      PUSH 100\t\t\toracle\n      EXP \t\t\toracle\n      SWAP1 \t\t\toracle\n      DIV \t\t\toracle\n      PUSH FFFFFFFFFFFFFFFFFFFFFFFFFFFFFFFFFFFFFFFF\t\t\toracle\n      AND \t\t\toracle\n      PUSH FFFFFFFFFFFFFFFFFFFFFFFFFFFFFFFFFFFFFFFF\t\t\toracle.getPrice\n      AND \t\t\toracle.getPrice\n      PUSH 41976E09\t\t\toracle.getPrice\n      DUP4 \t\t\ttoken\n      PUSH 40\t\t\toracle.getPrice(address(token)...\n      MLOAD \t\t\toracle.getPrice(address(token)...\n      DUP3 \t\t\toracle.getPrice(address(token)...\n      PUSH FFFFFFFF\t\t\toracle.getPrice(address(token)...\n      AND \t\t\toracle.getPrice(address(token)...\n      PUSH E0\t\t\toracle.getPrice(address(token)...\n      SHL \t\t\toracle.getPrice(address(token)...\n      DUP2 \t\t\toracle.getPrice(address(token)...\n      MSTORE \t\t\toracle.getPrice(address(token)...\n      PUSH 4\t\t\toracle.getPrice(address(token)...\n      ADD \t\t\toracle.getPrice(address(token)...\n      PUSH [tag] 164\t\t\toracle.getPrice(address(token)...\n      SWAP2 \t\t\toracle.getPrice(address(token)...\n      SWAP1 \t\t\toracle.getPrice(address(token)...\n      PUSH [tag] 69\t\t\toracle.getPrice(address(token)...\n      JUMP \t\t\toracle.getPrice(address(token)...\n    tag 164\t\t\toracle.getPrice(address(token)...\n      JUMPDEST \t\t\toracle.getPrice(address(token)...\n      PUSH 20\t\t\toracle.getPrice(address(token)...\n      PUSH 40\t\t\toracle.getPrice(address(token)...\n      MLOAD \t\t\toracle.getPrice(address(token)...\n      DUP1 \t\t\toracle.getPrice(address(token)...\n      DUP4 \t\t\toracle.getPrice(address(token)...\n      SUB \t\t\toracle.getPrice(address(token)...\n      DUP2 \t\t\toracle.getPrice(address(token)...\n      DUP7 \t\t\toracle.getPrice(address(token)...\n      GAS \t\t\toracle.getPrice(address(token)...\n      STATICCALL \t\t\toracle.getPrice(address(token)...\n      ISZERO \t\t\toracle.getPrice(address(token)...\n      DUP1 \t\t\toracle.getPrice(address(token)...\n      ISZERO \t\t\toracle.getPrice(address(token)...\n      PUSH [tag] 166\t\t\toracle.getPrice(address(token)...\n      JUMPI \t\t\toracle.getPrice(address(token)...\n      RETURNDATASIZE \t\t\toracle.getPrice(address(token)...\n      PUSH 0\t\t\toracle.getPrice(address(token)...\n      DUP1 \t\t\toracle.getPrice(address(token)...\n      RETURNDATACOPY \t\t\toracle.getPrice(address(token)...\n      RETURNDATASIZE \t\t\toracle.getPrice(address(token)...\n      PUSH 0\t\t\toracle.getPrice(address(token)...\n      REVERT \t\t\toracle.getPrice(address(token)...\n    tag 166\t\t\toracle.getPrice(address(token)...\n      JUMPDEST \t\t\toracle.getPrice(address(token)...\n      POP \t\t\toracle.getPrice(address(token)...\n      POP \t\t\toracle.getPrice(address(token)...\n      POP \t\t\toracle.getPrice(address(token)...\n      POP \t\t\toracle.getPrice(address(token)...\n      PUSH 40\t\t\toracle.getPrice(address(token)...\n      MLOAD \t\t\toracle.getPrice(address(token)...\n      RETURNDATASIZE \t\t\toracle.getPrice(address(token)...\n      PUSH 1F\t\t\toracle.getPrice(address(token)...\n      NOT \t\t\toracle.getPrice(address(token)...\n      PUSH 1F\t\t\toracle.getPrice(address(token)...\n      DUP3 \t\t\toracle.getPrice(address(token)...\n      ADD \t\t\toracle.getPrice(address(token)...\n      AND \t\t\toracle.getPrice(address(token)...\n      DUP3 \t\t\toracle.getPrice(address(token)...\n      ADD \t\t\toracle.getPrice(address(token)...\n      DUP1 \t\t\toracle.getPrice(address(token)...\n      PUSH 40\t\t\toracle.getPrice(address(token)...\n      MSTORE \t\t\toracle.getPrice(address(token)...\n      POP \t\t\toracle.getPrice(address(token)...\n      DUP2 \t\t\toracle.getPrice(address(token)...\n      ADD \t\t\toracle.getPrice(address(token)...\n      SWAP1 \t\t\toracle.getPrice(address(token)...\n      PUSH [tag] 167\t\t\toracle.getPrice(address(token)...\n      SWAP2 \t\t\toracle.getPrice(address(token)...\n      SWAP1 \t\t\toracle.getPrice(address(token)...\n      PUSH [tag] 73\t\t\toracle.getPrice(address(token)...\n      JUMP \t\t\toracle.getPrice(address(token)...\n    tag 167\t\t\toracle.getPrice(address(token)...\n      JUMPDEST \t\t\toracle.getPrice(address(token)...\n      SWAP1 \t\t\tuint256 currentPrice = oracle....\n      POP \t\t\tuint256 currentPrice = oracle....\n      DUP5 \t\t\tdesiredPrice\n      DUP2 \t\t\tcurrentPrice\n      SUB \t\t\tcurrentPrice == desiredPrice\n      PUSH [tag] 168\t\t\tif (currentPrice == desiredPri...\n      JUMPI \t\t\tif (currentPrice == desiredPri...\n      PUSH [tag] 169\t\t\texecuteBatchTransfer(tokenAddr...\n      DUP9 \t\t\ttokenAddress\n      DUP9 \t\t\trecipients\n      DUP9 \t\t\tamounts\n      DUP7 \t\t\tspender\n      PUSH [tag] 81\t\t\texecuteBatchTransfer\n      JUMP \t\t\texecuteBatchTransfer(tokenAddr...\n    tag 169\t\t\texecuteBatchTransfer(tokenAddr...\n      JUMPDEST \t\t\texecuteBatchTransfer(tokenAddr...\n      PUSH [tag] 170\t\t\tif (currentPrice == desiredPri...\n      JUMP \t\t\tif (currentPrice == desiredPri...\n    tag 168\t\t\tif (currentPrice == desiredPri...\n      JUMPDEST \t\t\tif (currentPrice == desiredPri...\n      PUSH [tag] 171\t\t\tscheduleConditionalBatchTransf...\n      DUP9 \t\t\ttokenAddress\n      DUP9 \t\t\trecipients\n      DUP9 \t\t\tamounts\n      DUP9 \t\t\tdesiredPrice\n      DUP9 \t\t\tinterval\n      PUSH [tag] 27\t\t\tscheduleConditionalBatchTransf...\n      JUMP \t\t\tscheduleConditionalBatchTransf...\n    tag 171\t\t\tscheduleConditionalBatchTransf...\n      JUMPDEST \t\t\tscheduleConditionalBatchTransf...\n    tag 170\t\t\tif (currentPrice == desiredPri...\n      JUMPDEST \t\t\tif (currentPrice == desiredPri...\n      POP \t\t\t{\\r\\n        IERC20 token = IE...\n      POP \t\t\t{\\r\\n        IERC20 token = IE...\n      POP \t\t\tfunction checkPriceAndTransfer...\n      POP \t\t\tfunction checkPriceAndTransfer...\n      POP \t\t\tfunction checkPriceAndTransfer...\n      POP \t\t\tfunction checkPriceAndTransfer...\n      POP \t\t\tfunction checkPriceAndTransfer...\n      POP \t\t\tfunction checkPriceAndTransfer...\n      JUMP \t\t\tfunction checkPriceAndTransfer...\n    tag 81\t\t\tfunction executeBatchTransfer(...\n      JUMPDEST \t\t\tfunction executeBatchTransfer(...\n      PUSH 0\t\t\tIERC20 token\n      DUP5 \t\t\ttokenAddress\n      SWAP1 \t\t\tIERC20 token = IERC20(tokenAdd...\n      POP \t\t\tIERC20 token = IERC20(tokenAdd...\n      DUP3 \t\t\tamounts\n      MLOAD \t\t\tamounts.length\n      DUP5 \t\t\trecipients\n      MLOAD \t\t\trecipients.length\n      EQ \t\t\trecipients.length == amounts.l...\n      PUSH [tag] 173\t\t\trequire(recipients.length == a...\n      JUMPI \t\t\trequire(recipients.length == a...\n      PUSH 40\t\t\trequire(recipients.length == a...\n      MLOAD \t\t\trequire(recipients.length == a...\n      PUSH 8C379A000000000000000000000000000000000000000000000000000000000\t\t\trequire(recipients.length == a...\n      DUP2 \t\t\trequire(recipients.length == a...\n      MSTORE \t\t\trequire(recipients.length == a...\n      PUSH 4\t\t\trequire(recipients.length == a...\n      ADD \t\t\trequire(recipients.length == a...\n      PUSH [tag] 174\t\t\trequire(recipients.length == a...\n      SWAP1 \t\t\trequire(recipients.length == a...\n      PUSH [tag] 175\t\t\trequire(recipients.length == a...\n      JUMP \t\t\trequire(recipients.length == a...\n    tag 174\t\t\trequire(recipients.length == a...\n      JUMPDEST \t\t\trequire(recipients.length == a...\n      PUSH 40\t\t\trequire(recipients.length == a...\n      MLOAD \t\t\trequire(recipients.length == a...\n      DUP1 \t\t\trequire(recipients.length == a...\n      SWAP2 \t\t\trequire(recipients.length == a...\n      SUB \t\t\trequire(recipients.length == a...\n      SWAP1 \t\t\trequire(recipients.length == a...\n      REVERT \t\t\trequire(recipients.length == a...\n    tag 173\t\t\trequire(recipients.length == a...\n      JUMPDEST \t\t\trequire(recipients.length == a...\n      PUSH 0\t\t\tuint256 totalAmount\n      DUP1 \t\t\tuint256 i\n    tag 176\t\t\tfor (uint256 i = 0; i < amount...\n      JUMPDEST \t\t\tfor (uint256 i = 0; i < amount...\n      DUP5 \t\t\tamounts\n      MLOAD \t\t\tamounts.length\n      DUP2 \t\t\ti\n      LT \t\t\ti < amounts.length\n      ISZERO \t\t\tfor (uint256 i = 0; i < amount...\n      PUSH [tag] 177\t\t\tfor (uint256 i = 0; i < amount...\n      JUMPI \t\t\tfor (uint256 i = 0; i < amount...\n      DUP5 \t\t\tamounts\n      DUP2 \t\t\ti\n      DUP2 \t\t\tamounts[i]\n      MLOAD \t\t\tamounts[i]\n      DUP2 \t\t\tamounts[i]\n      LT \t\t\tamounts[i]\n      PUSH [tag] 179\t\t\tamounts[i]\n      JUMPI \t\t\tamounts[i]\n      PUSH [tag] 180\t\t\tamounts[i]\n      PUSH [tag] 52\t\t\tamounts[i]\n      JUMP \t\t\tamounts[i]\n    tag 180\t\t\tamounts[i]\n      JUMPDEST \t\t\tamounts[i]\n    tag 179\t\t\tamounts[i]\n      JUMPDEST \t\t\tamounts[i]\n      PUSH 20\t\t\tamounts[i]\n      MUL \t\t\tamounts[i]\n      PUSH 20\t\t\tamounts[i]\n      ADD \t\t\tamounts[i]\n      ADD \t\t\tamounts[i]\n      MLOAD \t\t\tamounts[i]\n      DUP3 \t\t\ttotalAmount += amounts[i]\n      PUSH [tag] 181\t\t\ttotalAmount += amounts[i]\n      SWAP2 \t\t\ttotalAmount += amounts[i]\n      SWAP1 \t\t\ttotalAmount += amounts[i]\n      PUSH [tag] 94\t\t\ttotalAmount += amounts[i]\n      JUMP \t\t\ttotalAmount += amounts[i]\n    tag 181\t\t\ttotalAmount += amounts[i]\n      JUMPDEST \t\t\ttotalAmount += amounts[i]\n      SWAP2 \t\t\ttotalAmount += amounts[i]\n      POP \t\t\ttotalAmount += amounts[i]\n      DUP1 \t\t\ti++\n      DUP1 \t\t\ti++\n      PUSH [tag] 182\t\t\ti++\n      SWAP1 \t\t\ti++\n      PUSH [tag] 63\t\t\ti++\n      JUMP \t\t\ti++\n    tag 182\t\t\ti++\n      JUMPDEST \t\t\ti++\n      SWAP2 \t\t\ti++\n      POP \t\t\ti++\n      POP \t\t\ti++\n      PUSH [tag] 176\t\t\tfor (uint256 i = 0; i < amount...\n      JUMP \t\t\tfor (uint256 i = 0; i < amount...\n    tag 177\t\t\tfor (uint256 i = 0; i < amount...\n      JUMPDEST \t\t\tfor (uint256 i = 0; i < amount...\n      POP \t\t\tfor (uint256 i = 0; i < amount...\n      DUP2 \t\t\ttoken\n      PUSH FFFFFFFFFFFFFFFFFFFFFFFFFFFFFFFFFFFFFFFF\t\t\ttoken.transferFrom\n      AND \t\t\ttoken.transferFrom\n      PUSH 23B872DD\t\t\ttoken.transferFrom\n      DUP5 \t\t\tspender\n      ADDRESS \t\t\tthis\n      DUP5 \t\t\ttotalAmount\n      PUSH 40\t\t\ttoken.transferFrom(spender, ad...\n      MLOAD \t\t\ttoken.transferFrom(spender, ad...\n      DUP5 \t\t\ttoken.transferFrom(spender, ad...\n      PUSH FFFFFFFF\t\t\ttoken.transferFrom(spender, ad...\n      AND \t\t\ttoken.transferFrom(spender, ad...\n      PUSH E0\t\t\ttoken.transferFrom(spender, ad...\n      SHL \t\t\ttoken.transferFrom(spender, ad...\n      DUP2 \t\t\ttoken.transferFrom(spender, ad...\n      MSTORE \t\t\ttoken.transferFrom(spender, ad...\n      PUSH 4\t\t\ttoken.transferFrom(spender, ad...\n      ADD \t\t\ttoken.transferFrom(spender, ad...\n      PUSH [tag] 183\t\t\ttoken.transferFrom(spender, ad...\n      SWAP4 \t\t\ttoken.transferFrom(spender, ad...\n      SWAP3 \t\t\ttoken.transferFrom(spender, ad...\n      SWAP2 \t\t\ttoken.transferFrom(spender, ad...\n      SWAP1 \t\t\ttoken.transferFrom(spender, ad...\n      PUSH [tag] 107\t\t\ttoken.transferFrom(spender, ad...\n      JUMP \t\t\ttoken.transferFrom(spender, ad...\n    tag 183\t\t\ttoken.transferFrom(spender, ad...\n      JUMPDEST \t\t\ttoken.transferFrom(spender, ad...\n      PUSH 20\t\t\ttoken.transferFrom(spender, ad...\n      PUSH 40\t\t\ttoken.transferFrom(spender, ad...\n      MLOAD \t\t\ttoken.transferFrom(spender, ad...\n      DUP1 \t\t\ttoken.transferFrom(spender, ad...\n      DUP4 \t\t\ttoken.transferFrom(spender, ad...\n      SUB \t\t\ttoken.transferFrom(spender, ad...\n      DUP2 \t\t\ttoken.transferFrom(spender, ad...\n      PUSH 0\t\t\ttoken.transferFrom(spender, ad...\n      DUP8 \t\t\ttoken.transferFrom(spender, ad...\n      GAS \t\t\ttoken.transferFrom(spender, ad...\n      CALL \t\t\ttoken.transferFrom(spender, ad...\n      ISZERO \t\t\ttoken.transferFrom(spender, ad...\n      DUP1 \t\t\ttoken.transferFrom(spender, ad...\n      ISZERO \t\t\ttoken.transferFrom(spender, ad...\n      PUSH [tag] 185\t\t\ttoken.transferFrom(spender, ad...\n      JUMPI \t\t\ttoken.transferFrom(spender, ad...\n      RETURNDATASIZE \t\t\ttoken.transferFrom(spender, ad...\n      PUSH 0\t\t\ttoken.transferFrom(spender, ad...\n      DUP1 \t\t\ttoken.transferFrom(spender, ad...\n      RETURNDATACOPY \t\t\ttoken.transferFrom(spender, ad...\n      RETURNDATASIZE \t\t\ttoken.transferFrom(spender, ad...\n      PUSH 0\t\t\ttoken.transferFrom(spender, ad...\n      REVERT \t\t\ttoken.transferFrom(spender, ad...\n    tag 185\t\t\ttoken.transferFrom(spender, ad...\n      JUMPDEST \t\t\ttoken.transferFrom(spender, ad...\n      POP \t\t\ttoken.transferFrom(spender, ad...\n      POP \t\t\ttoken.transferFrom(spender, ad...\n      POP \t\t\ttoken.transferFrom(spender, ad...\n      POP \t\t\ttoken.transferFrom(spender, ad...\n      PUSH 40\t\t\ttoken.transferFrom(spender, ad...\n      MLOAD \t\t\ttoken.transferFrom(spender, ad...\n      RETURNDATASIZE \t\t\ttoken.transferFrom(spender, ad...\n      PUSH 1F\t\t\ttoken.transferFrom(spender, ad...\n      NOT \t\t\ttoken.transferFrom(spender, ad...\n      PUSH 1F\t\t\ttoken.transferFrom(spender, ad...\n      DUP3 \t\t\ttoken.transferFrom(spender, ad...\n      ADD \t\t\ttoken.transferFrom(spender, ad...\n      AND \t\t\ttoken.transferFrom(spender, ad...\n      DUP3 \t\t\ttoken.transferFrom(spender, ad...\n      ADD \t\t\ttoken.transferFrom(spender, ad...\n      DUP1 \t\t\ttoken.transferFrom(spender, ad...\n      PUSH 40\t\t\ttoken.transferFrom(spender, ad...\n      MSTORE \t\t\ttoken.transferFrom(spender, ad...\n      POP \t\t\ttoken.transferFrom(spender, ad...\n      DUP2 \t\t\ttoken.transferFrom(spender, ad...\n      ADD \t\t\ttoken.transferFrom(spender, ad...\n      SWAP1 \t\t\ttoken.transferFrom(spender, ad...\n      PUSH [tag] 186\t\t\ttoken.transferFrom(spender, ad...\n      SWAP2 \t\t\ttoken.transferFrom(spender, ad...\n      SWAP1 \t\t\ttoken.transferFrom(spender, ad...\n      PUSH [tag] 111\t\t\ttoken.transferFrom(spender, ad...\n      JUMP \t\t\ttoken.transferFrom(spender, ad...\n    tag 186\t\t\ttoken.transferFrom(spender, ad...\n      JUMPDEST \t\t\ttoken.transferFrom(spender, ad...\n      PUSH [tag] 187\t\t\trequire(token.transferFrom(spe...\n      JUMPI \t\t\trequire(token.transferFrom(spe...\n      PUSH 40\t\t\trequire(token.transferFrom(spe...\n      MLOAD \t\t\trequire(token.transferFrom(spe...\n      PUSH 8C379A000000000000000000000000000000000000000000000000000000000\t\t\trequire(token.transferFrom(spe...\n      DUP2 \t\t\trequire(token.transferFrom(spe...\n      MSTORE \t\t\trequire(token.transferFrom(spe...\n      PUSH 4\t\t\trequire(token.transferFrom(spe...\n      ADD \t\t\trequire(token.transferFrom(spe...\n      PUSH [tag] 188\t\t\trequire(token.transferFrom(spe...\n      SWAP1 \t\t\trequire(token.transferFrom(spe...\n      PUSH [tag] 129\t\t\trequire(token.transferFrom(spe...\n      JUMP \t\t\trequire(token.transferFrom(spe...\n    tag 188\t\t\trequire(token.transferFrom(spe...\n      JUMPDEST \t\t\trequire(token.transferFrom(spe...\n      PUSH 40\t\t\trequire(token.transferFrom(spe...\n      MLOAD \t\t\trequire(token.transferFrom(spe...\n      DUP1 \t\t\trequire(token.transferFrom(spe...\n      SWAP2 \t\t\trequire(token.transferFrom(spe...\n      SUB \t\t\trequire(token.transferFrom(spe...\n      SWAP1 \t\t\trequire(token.transferFrom(spe...\n      REVERT \t\t\trequire(token.transferFrom(spe...\n    tag 187\t\t\trequire(token.transferFrom(spe...\n      JUMPDEST \t\t\trequire(token.transferFrom(spe...\n      PUSH 0\t\t\tuint256 i\n    tag 189\t\t\tfor (uint256 i = 0; i < recipi...\n      JUMPDEST \t\t\tfor (uint256 i = 0; i < recipi...\n      DUP6 \t\t\trecipients\n      MLOAD \t\t\trecipients.length\n      DUP2 \t\t\ti\n      LT \t\t\ti < recipients.length\n      ISZERO \t\t\tfor (uint256 i = 0; i < recipi...\n      PUSH [tag] 190\t\t\tfor (uint256 i = 0; i < recipi...\n      JUMPI \t\t\tfor (uint256 i = 0; i < recipi...\n      DUP3 \t\t\ttoken\n      PUSH FFFFFFFFFFFFFFFFFFFFFFFFFFFFFFFFFFFFFFFF\t\t\ttoken.transfer\n      AND \t\t\ttoken.transfer\n      PUSH A9059CBB\t\t\ttoken.transfer\n      DUP8 \t\t\trecipients\n      DUP4 \t\t\ti\n      DUP2 \t\t\trecipients[i]\n      MLOAD \t\t\trecipients[i]\n      DUP2 \t\t\trecipients[i]\n      LT \t\t\trecipients[i]\n      PUSH [tag] 192\t\t\trecipients[i]\n      JUMPI \t\t\trecipients[i]\n      PUSH [tag] 193\t\t\trecipients[i]\n      PUSH [tag] 52\t\t\trecipients[i]\n      JUMP \t\t\trecipients[i]\n    tag 193\t\t\trecipients[i]\n      JUMPDEST \t\t\trecipients[i]\n    tag 192\t\t\trecipients[i]\n      JUMPDEST \t\t\trecipients[i]\n      PUSH 20\t\t\trecipients[i]\n      MUL \t\t\trecipients[i]\n      PUSH 20\t\t\trecipients[i]\n      ADD \t\t\trecipients[i]\n      ADD \t\t\trecipients[i]\n      MLOAD \t\t\trecipients[i]\n      DUP8 \t\t\tamounts\n      DUP5 \t\t\ti\n      DUP2 \t\t\tamounts[i]\n      MLOAD \t\t\tamounts[i]\n      DUP2 \t\t\tamounts[i]\n      LT \t\t\tamounts[i]\n      PUSH [tag] 194\t\t\tamounts[i]\n      JUMPI \t\t\tamounts[i]\n      PUSH [tag] 195\t\t\tamounts[i]\n      PUSH [tag] 52\t\t\tamounts[i]\n      JUMP \t\t\tamounts[i]\n    tag 195\t\t\tamounts[i]\n      JUMPDEST \t\t\tamounts[i]\n    tag 194\t\t\tamounts[i]\n      JUMPDEST \t\t\tamounts[i]\n      PUSH 20\t\t\tamounts[i]\n      MUL \t\t\tamounts[i]\n      PUSH 20\t\t\tamounts[i]\n      ADD \t\t\tamounts[i]\n      ADD \t\t\tamounts[i]\n      MLOAD \t\t\tamounts[i]\n      PUSH 40\t\t\ttoken.transfer(recipients[i], ...\n      MLOAD \t\t\ttoken.transfer(recipients[i], ...\n      DUP4 \t\t\ttoken.transfer(recipients[i], ...\n      PUSH FFFFFFFF\t\t\ttoken.transfer(recipients[i], ...\n      AND \t\t\ttoken.transfer(recipients[i], ...\n      PUSH E0\t\t\ttoken.transfer(recipients[i], ...\n      SHL \t\t\ttoken.transfer(recipients[i], ...\n      DUP2 \t\t\ttoken.transfer(recipients[i], ...\n      MSTORE \t\t\ttoken.transfer(recipients[i], ...\n      PUSH 4\t\t\ttoken.transfer(recipients[i], ...\n      ADD \t\t\ttoken.transfer(recipients[i], ...\n      PUSH [tag] 196\t\t\ttoken.transfer(recipients[i], ...\n      SWAP3 \t\t\ttoken.transfer(recipients[i], ...\n      SWAP2 \t\t\ttoken.transfer(recipients[i], ...\n      SWAP1 \t\t\ttoken.transfer(recipients[i], ...\n      PUSH [tag] 123\t\t\ttoken.transfer(recipients[i], ...\n      JUMP \t\t\ttoken.transfer(recipients[i], ...\n    tag 196\t\t\ttoken.transfer(recipients[i], ...\n      JUMPDEST \t\t\ttoken.transfer(recipients[i], ...\n      PUSH 20\t\t\ttoken.transfer(recipients[i], ...\n      PUSH 40\t\t\ttoken.transfer(recipients[i], ...\n      MLOAD \t\t\ttoken.transfer(recipients[i], ...\n      DUP1 \t\t\ttoken.transfer(recipients[i], ...\n      DUP4 \t\t\ttoken.transfer(recipients[i], ...\n      SUB \t\t\ttoken.transfer(recipients[i], ...\n      DUP2 \t\t\ttoken.transfer(recipients[i], ...\n      PUSH 0\t\t\ttoken.transfer(recipients[i], ...\n      DUP8 \t\t\ttoken.transfer(recipients[i], ...\n      GAS \t\t\ttoken.transfer(recipients[i], ...\n      CALL \t\t\ttoken.transfer(recipients[i], ...\n      ISZERO \t\t\ttoken.transfer(recipients[i], ...\n      DUP1 \t\t\ttoken.transfer(recipients[i], ...\n      ISZERO \t\t\ttoken.transfer(recipients[i], ...\n      PUSH [tag] 198\t\t\ttoken.transfer(recipients[i], ...\n      JUMPI \t\t\ttoken.transfer(recipients[i], ...\n      RETURNDATASIZE \t\t\ttoken.transfer(recipients[i], ...\n      PUSH 0\t\t\ttoken.transfer(recipients[i], ...\n      DUP1 \t\t\ttoken.transfer(recipients[i], ...\n      RETURNDATACOPY \t\t\ttoken.transfer(recipients[i], ...\n      RETURNDATASIZE \t\t\ttoken.transfer(recipients[i], ...\n      PUSH 0\t\t\ttoken.transfer(recipients[i], ...\n      REVERT \t\t\ttoken.transfer(recipients[i], ...\n    tag 198\t\t\ttoken.transfer(recipients[i], ...\n      JUMPDEST \t\t\ttoken.transfer(recipients[i], ...\n      POP \t\t\ttoken.transfer(recipients[i], ...\n      POP \t\t\ttoken.transfer(recipients[i], ...\n      POP \t\t\ttoken.transfer(recipients[i], ...\n      POP \t\t\ttoken.transfer(recipients[i], ...\n      PUSH 40\t\t\ttoken.transfer(recipients[i], ...\n      MLOAD \t\t\ttoken.transfer(recipients[i], ...\n      RETURNDATASIZE \t\t\ttoken.transfer(recipients[i], ...\n      PUSH 1F\t\t\ttoken.transfer(recipients[i], ...\n      NOT \t\t\ttoken.transfer(recipients[i], ...\n      PUSH 1F\t\t\ttoken.transfer(recipients[i], ...\n      DUP3 \t\t\ttoken.transfer(recipients[i], ...\n      ADD \t\t\ttoken.transfer(recipients[i], ...\n      AND \t\t\ttoken.transfer(recipients[i], ...\n      DUP3 \t\t\ttoken.transfer(recipients[i], ...\n      ADD \t\t\ttoken.transfer(recipients[i], ...\n      DUP1 \t\t\ttoken.transfer(recipients[i], ...\n      PUSH 40\t\t\ttoken.transfer(recipients[i], ...\n      MSTORE \t\t\ttoken.transfer(recipients[i], ...\n      POP \t\t\ttoken.transfer(recipients[i], ...\n      DUP2 \t\t\ttoken.transfer(recipients[i], ...\n      ADD \t\t\ttoken.transfer(recipients[i], ...\n      SWAP1 \t\t\ttoken.transfer(recipients[i], ...\n      PUSH [tag] 199\t\t\ttoken.transfer(recipients[i], ...\n      SWAP2 \t\t\ttoken.transfer(recipients[i], ...\n      SWAP1 \t\t\ttoken.transfer(recipients[i], ...\n      PUSH [tag] 111\t\t\ttoken.transfer(recipients[i], ...\n      JUMP \t\t\ttoken.transfer(recipients[i], ...\n    tag 199\t\t\ttoken.transfer(recipients[i], ...\n      JUMPDEST \t\t\ttoken.transfer(recipients[i], ...\n      POP \t\t\ttoken.transfer(recipients[i], ...\n      DUP1 \t\t\ti++\n      DUP1 \t\t\ti++\n      PUSH [tag] 200\t\t\ti++\n      SWAP1 \t\t\ti++\n      PUSH [tag] 63\t\t\ti++\n      JUMP \t\t\ti++\n    tag 200\t\t\ti++\n      JUMPDEST \t\t\ti++\n      SWAP2 \t\t\ti++\n      POP \t\t\ti++\n      POP \t\t\ti++\n      PUSH [tag] 189\t\t\tfor (uint256 i = 0; i < recipi...\n      JUMP \t\t\tfor (uint256 i = 0; i < recipi...\n    tag 190\t\t\tfor (uint256 i = 0; i < recipi...\n      JUMPDEST \t\t\tfor (uint256 i = 0; i < recipi...\n      POP \t\t\tfor (uint256 i = 0; i < recipi...\n      POP \t\t\t{\\r\\n        IERC20 token = IE...\n      POP \t\t\t{\\r\\n        IERC20 token = IE...\n      POP \t\t\tfunction executeBatchTransfer(...\n      POP \t\t\tfunction executeBatchTransfer(...\n      POP \t\t\tfunction executeBatchTransfer(...\n      POP \t\t\tfunction executeBatchTransfer(...\n      JUMP \t\t\tfunction executeBatchTransfer(...\n    tag 201\t\t\t-License-Identifier: MIT\\r\\n\\r...\n      JUMPDEST \t\t\t-License-Identifier: MIT\\r\\n\\r...\n      PUSH 0\t\t\tt \"@op\n      PUSH 40\t\t\tER\n      MLOAD \t\t\ttoken/ERC\n      SWAP1 \t\t\tcontracts/token/ERC\n      POP \t\t\tcontracts/token/ERC\n      SWAP1 \t\t\t-License-Identifier: MIT\\r\\n\\r...\n      JUMP \t\t\t-License-Identifier: MIT\\r\\n\\r...\n    tag 202\t\t\tl\";\\r\\nimport \"@acala-network/...\n      JUMPDEST \t\t\tl\";\\r\\nimport \"@acala-network/...\n      PUSH 0\t\t\tl\n      DUP1 \t\t\tr\n      REVERT \t\t\tacle/IOracle\n    tag 203\t\t\trt \"@acala-network/contracts/u...\n      JUMPDEST \t\t\trt \"@acala-network/contracts/u...\n      PUSH 0\t\t\t\\n\n      DUP1 \t\t\t\"\n      REVERT \t\t\tens.sol\";\\r\\n\\r\n    tag 204\t\t\tdity ^0.8.0;\\r\\n\\r\\ncontract D...\n      JUMPDEST \t\t\tdity ^0.8.0;\\r\\n\\r\\ncontract D...\n      PUSH 0\t\t\tD\n      DUP1 \t\t\tC\n      REVERT \t\t\tedule(SCHEDU\n    tag 205\t\t\tracle oracle = IOracle(ORACLE)...\n      JUMPDEST \t\t\tracle oracle = IOracle(ORACLE)...\n      PUSH 0\t\t\tllback\n      PUSH 1F\t\t\t p\n      NOT \t\t\trnal pa\n      PUSH 1F\t\t\t e\n      DUP4 \t\t\tceive\n      ADD \t\t\t  receive() ex\n      AND \t\t\t\\r\\n    receive() external pay\n      SWAP1 \t\t\t payable{}\\r\\n    receive() ex...\n      POP \t\t\t payable{}\\r\\n    receive() ex...\n      SWAP2 \t\t\tracle oracle = IOracle(ORACLE)...\n      SWAP1 \t\t\tracle oracle = IOracle(ORACLE)...\n      POP \t\t\tracle oracle = IOracle(ORACLE)...\n      JUMP \t\t\tracle oracle = IOracle(ORACLE)...\n    tag 206\t\t\t  event ETHbatchTransfer(uint2...\n      JUMPDEST \t\t\t  event ETHbatchTransfer(uint2...\n      PUSH 4E487B7100000000000000000000000000000000000000000000000000000000\t\t\tntIndex, address indexed recip...\n      PUSH 0\t\t\tp\n      MSTORE \t\t\ted recipientIndex, address ind...\n      PUSH 41\t\t\td re\n      PUSH 4\t\t\te\n      MSTORE \t\t\t256 indexed rec\n      PUSH 24\t\t\ts in\n      PUSH 0\t\t\tr\n      REVERT \t\t\tex, address ind\n    tag 207\t\t\tnt, uint256 amount);\\r\\n    ev...\n      JUMPDEST \t\t\tnt, uint256 amount);\\r\\n    ev...\n      PUSH [tag] 291\t\t\t indexed token, address[] r\n      DUP3 \t\t\ts[] \n      PUSH [tag] 205\t\t\t indexed token, address[] r\n      JUMP \t\t\t indexed token, address[] r\n    tag 291\t\t\t indexed token, address[] r\n      JUMPDEST \t\t\t indexed token, address[] r\n      DUP2 \t\t\t addre\n      ADD \t\t\teId, address indexed token, ad...\n      DUP2 \t\t\tduleId\n      DUP2 \t\t\tindexed sc\n      LT \t\t\tes indexed scheduleId,\n      PUSH FFFFFFFFFFFFFFFF\t\t\ticeCheckScheduled(\n      DUP3 \t\t\t    event \n      GT \t\t\t;\\r\\n    event PriceCheckSched...\n      OR \t\t\tme);\\r\\n    event PriceCheckSc...\n      ISZERO \t\t\tnTime);\\r\\n    event PriceChec...\n      PUSH [tag] 292\t\t\tnTime);\\r\\n    event PriceChec...\n      JUMPI \t\t\tnTime);\\r\\n    event PriceChec...\n      PUSH [tag] 293\t\t\tt256 nextCheckTime\n      PUSH [tag] 206\t\t\tt256 nextCheckTime\n      JUMP \t\t\tt256 nextCheckTime\n    tag 293\t\t\tt256 nextCheckTime\n      JUMPDEST \t\t\tt256 nextCheckTime\n    tag 292\t\t\tnTime);\\r\\n    event PriceChec...\n      JUMPDEST \t\t\tnTime);\\r\\n    event PriceChec...\n      DUP1 \t\t\tpleETHBatc\n      PUSH 40\t\t\t s\n      MSTORE \t\t\tunction simpleETHBatch\n      POP \t\t\teduled(bytes indexed scheduleI...\n      POP \t\t\tnt, uint256 amount);\\r\\n    ev...\n      POP \t\t\tnt, uint256 amount);\\r\\n    ev...\n      JUMP \t\t\tnt, uint256 amount);\\r\\n    ev...\n    tag 208\t\t\tress payable[] memory recipien...\n      JUMPDEST \t\t\tress payable[] memory recipien...\n      PUSH 0\t\t\tuint25\n      PUSH [tag] 295\t\t\tyable public{\\r\\n     \n      PUSH [tag] 201\t\t\tyable public{\\r\\n     \n      JUMP \t\t\tyable public{\\r\\n     \n    tag 295\t\t\tyable public{\\r\\n     \n      JUMPDEST \t\t\tyable public{\\r\\n     \n      SWAP1 \t\t\tamount) payable public{\\r\\n   ...\n      POP \t\t\tamount) payable public{\\r\\n   ...\n      PUSH [tag] 296\t\t\te(recipients.length == amount....\n      DUP3 \t\t\tt.le\n      DUP3 \t\t\t== amo\n      PUSH [tag] 207\t\t\te(recipients.length == amount....\n      JUMP \t\t\te(recipients.length == amount....\n    tag 296\t\t\te(recipients.length == amount....\n      JUMPDEST \t\t\te(recipients.length == amount....\n      SWAP2 \t\t\tress payable[] memory recipien...\n      SWAP1 \t\t\tress payable[] memory recipien...\n      POP \t\t\tress payable[] memory recipien...\n      JUMP \t\t\tress payable[] memory recipien...\n    tag 209\t\t\tinputs accordingly!\");\\r\\n    ...\n      JUMPDEST \t\t\tinputs accordingly!\");\\r\\n    ...\n      PUSH 0\t\t\tease\n      PUSH FFFFFFFFFFFFFFFF\t\t\t[i].transfer(amoun\n      DUP3 \t\t\tcipien\n      GT \t\t\t recipients[i].transfer(amount\n      ISZERO \t\t\t    recipients[i].transfer(amo...\n      PUSH [tag] 298\t\t\t    recipients[i].transfer(amo...\n      JUMPI \t\t\t    recipients[i].transfer(amo...\n      PUSH [tag] 299\t\t\t);\\r\\n            em\n      PUSH [tag] 206\t\t\t);\\r\\n            em\n      JUMP \t\t\t);\\r\\n            em\n    tag 299\t\t\t);\\r\\n            em\n      JUMPDEST \t\t\t);\\r\\n            em\n    tag 298\t\t\t    recipients[i].transfer(amo...\n      JUMPDEST \t\t\t    recipients[i].transfer(amo...\n      PUSH 20\t\t\ts[i]\n      DUP3 \t\t\tecipie\n      MUL \t\t\ti, recipients[i],\n      SWAP1 \t\t\transfer(i, recipients[i],\n      POP \t\t\transfer(i, recipients[i],\n      PUSH 20\t\t\tess(\n      DUP2 \t\t\t= ad\n      ADD \t\t\tnce = address(t\n      SWAP1 \t\t\t256 balance = address(t\n      POP \t\t\t256 balance = address(t\n      SWAP2 \t\t\tinputs accordingly!\");\\r\\n    ...\n      SWAP1 \t\t\tinputs accordingly!\");\\r\\n    ...\n      POP \t\t\tinputs accordingly!\");\\r\\n    ...\n      JUMP \t\t\tinputs accordingly!\");\\r\\n    ...\n    tag 210\t\t\t\\r\\n        if (balance > 0) {...\n      JUMPDEST \t\t\t\\r\\n        if (balance > 0) {...\n      PUSH 0\t\t\tc\n      DUP1 \t\t\tf\n      REVERT \t\t\t\\n\\r\\n    funct\n    tag 211\t\t\tC20BatchTransfer(address token...\n      JUMPDEST \t\t\tC20BatchTransfer(address token...\n      PUSH 0\t\t\t, addre\n      PUSH FFFFFFFFFFFFFFFFFFFFFFFFFFFFFFFFFFFFFFFF\t\t\t memory amount) payable public...\n      DUP3 \t\t\tnt256\n      AND \t\t\t, uint256[] memory amount) pay...\n      SWAP1 \t\t\t recipients, uint256[] memory ...\n      POP \t\t\t recipients, uint256[] memory ...\n      SWAP2 \t\t\tC20BatchTransfer(address token...\n      SWAP1 \t\t\tC20BatchTransfer(address token...\n      POP \t\t\tC20BatchTransfer(address token...\n      JUMP \t\t\tC20BatchTransfer(address token...\n    tag 212\t\t\t IERC20(tokenAddress);\\r\\n    ...\n      JUMPDEST \t\t\t IERC20(tokenAddress);\\r\\n    ...\n      PUSH 0\t\t\tients.l\n      PUSH [tag] 303\t\t\t , \"Give inputs accordin\n      DUP3 \t\t\tcordi\n      PUSH [tag] 211\t\t\t , \"Give inputs accordin\n      JUMP \t\t\t , \"Give inputs accordin\n    tag 303\t\t\t , \"Give inputs accordin\n      JUMPDEST \t\t\t , \"Give inputs accordin\n      SWAP1 \t\t\tount.length , \"Give inputs acc...\n      POP \t\t\tount.length , \"Give inputs acc...\n      SWAP2 \t\t\t IERC20(tokenAddress);\\r\\n    ...\n      SWAP1 \t\t\t IERC20(tokenAddress);\\r\\n    ...\n      POP \t\t\t IERC20(tokenAddress);\\r\\n    ...\n      JUMP \t\t\t IERC20(tokenAddress);\\r\\n    ...\n    tag 213\t\t\t     uint256 total = 0;\\r\\n   ...\n      JUMPDEST \t\t\t     uint256 total = 0;\\r\\n   ...\n      PUSH [tag] 305\t\t\t{\\r\\n            total = total...\n      DUP2 \t\t\tal + \n      PUSH [tag] 212\t\t\t{\\r\\n            total = total...\n      JUMP \t\t\t{\\r\\n            total = total...\n    tag 305\t\t\t{\\r\\n            total = total...\n      JUMPDEST \t\t\t{\\r\\n            total = total...\n      DUP2 \t\t\t; i++\n      EQ \t\t\tgth; i++) {\\r\\n            tot...\n      PUSH [tag] 306\t\t\tpients.length; i++) {\\r\\n     ...\n      JUMPI \t\t\tpients.length; i++) {\\r\\n     ...\n      PUSH 0\t\t\t \n      DUP1 \t\t\t \n      REVERT \t\t\t[i];\\r\\n      \n    tag 306\t\t\tpients.length; i++) {\\r\\n     ...\n      JUMPDEST \t\t\tpients.length; i++) {\\r\\n     ...\n      POP \t\t\t     uint256 total = 0;\\r\\n   ...\n      JUMP \t\t\t     uint256 total = 0;\\r\\n   ...\n    tag 214\t\t\t   require(token.transferFrom(...\n      JUMPDEST \t\t\t   require(token.transferFrom(...\n      PUSH 0\t\t\t), to\n      DUP2 \t\t\t! \");\\r\n      CALLDATALOAD \t\t\terFrom failed! \");\\r\\n\n      SWAP1 \t\t\ten transferFrom failed! \");\\r\\...\n      POP \t\t\ten transferFrom failed! \");\\r\\...\n      PUSH [tag] 308\t\t\tor (uint256 i = 0; i < recipie...\n      DUP2 \t\t\tength\n      PUSH [tag] 213\t\t\tor (uint256 i = 0; i < recipie...\n      JUMP \t\t\tor (uint256 i = 0; i < recipie...\n    tag 308\t\t\tor (uint256 i = 0; i < recipie...\n      JUMPDEST \t\t\tor (uint256 i = 0; i < recipie...\n      SWAP3 \t\t\t   require(token.transferFrom(...\n      SWAP2 \t\t\t   require(token.transferFrom(...\n      POP \t\t\t   require(token.transferFrom(...\n      POP \t\t\t   require(token.transferFrom(...\n      JUMP \t\t\t   require(token.transferFrom(...\n    tag 215\t\t\tansfer(recipients[i], amount[i...\n      JUMPDEST \t\t\tansfer(recipients[i], amount[i...\n      PUSH 0\t\t\tpient\n      PUSH [tag] 310\t\t\t           }\\r\\n    }\\r\\n\\r\\n ...\n      PUSH [tag] 311\t\t\t  }\\r\\n\\r\\n    function schedu...\n      DUP5 \t\t\tss, ad\n      PUSH [tag] 209\t\t\t  }\\r\\n\\r\\n    function schedu...\n      JUMP \t\t\t  }\\r\\n\\r\\n    function schedu...\n    tag 311\t\t\t  }\\r\\n\\r\\n    function schedu...\n      JUMPDEST \t\t\t  }\\r\\n\\r\\n    function schedu...\n      PUSH [tag] 208\t\t\t           }\\r\\n    }\\r\\n\\r\\n ...\n      JUMP \t\t\t           }\\r\\n    }\\r\\n\\r\\n ...\n    tag 310\t\t\t           }\\r\\n    }\\r\\n\\r\\n ...\n      JUMPDEST \t\t\t           }\\r\\n    }\\r\\n\\r\\n ...\n      SWAP1 \t\t\tt[i]);\\r\\n            }\\r\\n   ...\n      POP \t\t\tt[i]);\\r\\n            }\\r\\n   ...\n      DUP1 \t\t\tnts, \n      DUP4 \t\t\t, uint\n      DUP3 \t\t\tamoun\n      MSTORE \t\t\tmemory amounts, uint2\n      PUSH 20\t\t\t    \n      DUP3 \t\t\tblic{\n      ADD \t\t\te public{\\r\\n     \n      SWAP1 \t\t\t payable public{\\r\\n     \n      POP \t\t\t payable public{\\r\\n     \n      PUSH 20\t\t\t req\n      DUP5 \t\t\t\\n     \n      MUL \t\t\ts);\\r\\n        requ\n      DUP4 \t\t\tenAddr\n      ADD \t\t\t(tokenAddress);\\r\\n        req...\n      DUP6 \t\t\t am\n      DUP2 \t\t\tength \n      GT \t\t\ts.length == amo\n      ISZERO \t\t\tents.length == amounts.length,...\n      PUSH [tag] 312\t\t\tents.length == amounts.length,...\n      JUMPI \t\t\tents.length == amounts.length,...\n      PUSH [tag] 313\t\t\tive inputs accordingly!\");\\r\\n...\n      PUSH [tag] 210\t\t\tive inputs accordingly!\");\\r\\n...\n      JUMP \t\t\tive inputs accordingly!\");\\r\\n...\n    tag 313\t\t\tive inputs accordingly!\");\\r\\n...\n      JUMPDEST \t\t\tive inputs accordingly!\");\\r\\n...\n    tag 312\t\t\tents.length == amounts.length,...\n      JUMPDEST \t\t\tents.length == amounts.length,...\n      DUP4 \t\t\t      \n    tag 314\t\t\tngth; i++) {\\r\\n            to...\n      JUMPDEST \t\t\tngth; i++) {\\r\\n            to...\n      DUP2 \t\t\ttotal \n      DUP2 \t\t\tal \n      LT \t\t\ttotal = total +\n      ISZERO \t\t\tngth; i++) {\\r\\n            to...\n      PUSH [tag] 316\t\t\tngth; i++) {\\r\\n            to...\n      JUMPI \t\t\tngth; i++) {\\r\\n            to...\n      DUP1 \t\t\ter,\n      PUSH [tag] 317\t\t\token transfer failed!\");\\r\\n  ...\n      DUP9 \t\t\temo\n      DUP3 \t\t\t     bytes\n      PUSH [tag] 214\t\t\token transfer failed!\");\\r\\n  ...\n      JUMP \t\t\token transfer failed!\");\\r\\n  ...\n    tag 317\t\t\token transfer failed!\");\\r\\n  ...\n      JUMPDEST \t\t\token transfer failed!\");\\r\\n  ...\n      DUP5 \t\t\t), \n      MSTORE \t\t\t, total), \"Token transfer fail...\n      PUSH 20\t\t\tre(\"\n      DUP5 \t\t\tgna\n      ADD \t\t\tthSignature(\"e\n      SWAP4 \t\t\tncodeWithSignature(\"e\n      POP \t\t\tncodeWithSignature(\"e\n      POP \t\t\tquire(token.transferFrom(msg.s...\n      PUSH 20\t\t\t   }\n      DUP2 \t\t\t   \n      ADD \t\t\t];\\r\\n        }\\r\n      SWAP1 \t\t\tounts[i];\\r\\n        }\\r\n      POP \t\t\tounts[i];\\r\\n        }\\r\n      PUSH [tag] 314\t\t\tngth; i++) {\\r\\n            to...\n      JUMP \t\t\tngth; i++) {\\r\\n            to...\n    tag 316\t\t\tngth; i++) {\\r\\n            to...\n      JUMPDEST \t\t\tngth; i++) {\\r\\n            to...\n      POP \t\t\t; i++) {\\r\\n           \n      POP \t\t\t[i], amount[i]);\\r\\n          ...\n      POP \t\t\t[i], amount[i]);\\r\\n          ...\n      SWAP4 \t\t\tansfer(recipients[i], amount[i...\n      SWAP3 \t\t\tansfer(recipients[i], amount[i...\n      POP \t\t\tansfer(recipients[i], amount[i...\n      POP \t\t\tansfer(recipients[i], amount[i...\n      POP \t\t\tansfer(recipients[i], amount[i...\n      JUMP \t\t\tansfer(recipients[i], amount[i...\n    tag 216\t\t\t256[])\",tokenAddress, recipien...\n      JUMPDEST \t\t\t256[])\",tokenAddress, recipien...\n      PUSH 0\t\t\tsched\n      DUP3 \t\t\t 64\n      PUSH 1F\t\t\t1000\n      DUP4 \t\t\ts), 0,\n      ADD \t\t\t(this), 0, 210000\n      SLT \t\t\tress(this), 0, 2100000, 640\n      PUSH [tag] 319\t\t\tleCall(address(this), 0, 21000...\n      JUMPI \t\t\tleCall(address(this), 0, 21000...\n      PUSH [tag] 320\t\t\tdelay, data);\\r\\n        emit ...\n      PUSH [tag] 204\t\t\tdelay, data);\\r\\n        emit ...\n      JUMP \t\t\tdelay, data);\\r\\n        emit ...\n    tag 320\t\t\tdelay, data);\\r\\n        emit ...\n      JUMPDEST \t\t\tdelay, data);\\r\\n        emit ...\n    tag 319\t\t\tleCall(address(this), 0, 21000...\n      JUMPDEST \t\t\tleCall(address(this), 0, 21000...\n      DUP2 \t\t\t\\r\\n    \n      CALLDATALOAD \t\t\tamp + delay);\\r\\n    }\n      PUSH [tag] 321\t\t\txecuteERC20BatchTransfer(addre...\n      DUP5 \t\t\tts)\n      DUP3 \t\t\try amo\n      PUSH 20\t\t\t[] m\n      DUP7 \t\t\t uint2\n      ADD \t\t\tnts, uint256[] me\n      PUSH [tag] 215\t\t\txecuteERC20BatchTransfer(addre...\n      JUMP \t\t\txecuteERC20BatchTransfer(addre...\n    tag 321\t\t\txecuteERC20BatchTransfer(addre...\n      JUMPDEST \t\t\txecuteERC20BatchTransfer(addre...\n      SWAP2 \t\t\tunction executeERC20BatchTrans...\n      POP \t\t\tunction executeERC20BatchTrans...\n      POP \t\t\tler.scheduleCall(address(this)...\n      SWAP3 \t\t\t256[])\",tokenAddress, recipien...\n      SWAP2 \t\t\t256[])\",tokenAddress, recipien...\n      POP \t\t\t256[])\",tokenAddress, recipien...\n      POP \t\t\t256[])\",tokenAddress, recipien...\n      JUMP \t\t\t256[])\",tokenAddress, recipien...\n    tag 217\t\t\t      IERC20 token = IERC20(to...\n      JUMPDEST \t\t\t      IERC20 token = IERC20(to...\n      PUSH 0\t\t\t == \n      PUSH FFFFFFFFFFFFFFFF\t\t\t recipients.length\n      DUP3 \t\t\t= 0; i\n      GT \t\t\t i = 0; i < recipients.length;\n      ISZERO \t\t\t256 i = 0; i < recipients.leng...\n      PUSH [tag] 323\t\t\t256 i = 0; i < recipients.leng...\n      JUMPI \t\t\t256 i = 0; i < recipients.leng...\n      PUSH [tag] 324\t\t\t+) {\\r\\n            \n      PUSH [tag] 206\t\t\t+) {\\r\\n            \n      JUMP \t\t\t+) {\\r\\n            \n    tag 324\t\t\t+) {\\r\\n            \n      JUMPDEST \t\t\t+) {\\r\\n            \n    tag 323\t\t\t256 i = 0; i < recipients.leng...\n      JUMPDEST \t\t\t256 i = 0; i < recipients.leng...\n      PUSH 20\t\t\ts[i]\n      DUP3 \t\t\tecipie\n      MUL \t\t\ter(recipients[i],\n      SWAP1 \t\t\tn.transfer(recipients[i],\n      POP \t\t\tn.transfer(recipients[i],\n      PUSH 20\t\t\tit E\n      DUP2 \t\t\t    \n      ADD \t\t\t        emit Er\n      SWAP1 \t\t\t);\\r\\n            emit Er\n      POP \t\t\t);\\r\\n            emit Er\n      SWAP2 \t\t\t      IERC20 token = IERC20(to...\n      SWAP1 \t\t\t      IERC20 token = IERC20(to...\n      POP \t\t\t      IERC20 token = IERC20(to...\n      JUMP \t\t\t      IERC20 token = IERC20(to...\n    tag 218\t\t\tfer(i, recipients[i], amounts[...\n      JUMPDEST \t\t\tfer(i, recipients[i], amounts[...\n      PUSH 0\t\t\t       \n      DUP2 \t\t\ton ge\n      SWAP1 \t\t\t\\n    function ge\n      POP \t\t\t\\n    function ge\n      SWAP2 \t\t\tfer(i, recipients[i], amounts[...\n      SWAP1 \t\t\tfer(i, recipients[i], amounts[...\n      POP \t\t\tfer(i, recipients[i], amounts[...\n      JUMP \t\t\tfer(i, recipients[i], amounts[...\n    tag 219\t\t\tss token) public view returns ...\n      JUMPDEST \t\t\tss token) public view returns ...\n      PUSH [tag] 327\t\t\tgetPrice(token);\\r\\n      \n      DUP2 \t\t\t     \n      PUSH [tag] 218\t\t\tgetPrice(token);\\r\\n      \n      JUMP \t\t\tgetPrice(token);\\r\\n      \n    tag 327\t\t\tgetPrice(token);\\r\\n      \n      JUMPDEST \t\t\tgetPrice(token);\\r\\n      \n      DUP2 \t\t\toracl\n      EQ \t\t\t = oracle.getPrice(token);\\r\\n...\n      PUSH [tag] 328\t\t\tt256 price = oracle.getPrice(t...\n      JUMPI \t\t\tt256 price = oracle.getPrice(t...\n      PUSH 0\t\t\t\\r\n      DUP1 \t\t\tc\n      REVERT \t\t\turn price;\\r\\n\n    tag 328\t\t\tt256 price = oracle.getPrice(t...\n      JUMPDEST \t\t\tt256 price = oracle.getPrice(t...\n      POP \t\t\tss token) public view returns ...\n      JUMP \t\t\tss token) public view returns ...\n    tag 220\t\t\tunction scheduleConditionalBat...\n      JUMPDEST \t\t\tunction scheduleConditionalBat...\n      PUSH 0\t\t\t     \n      DUP2 \t\t\tdress[\n      CALLDATALOAD \t\t\t,\\r\\n        address[]\n      SWAP1 \t\t\tenAddress,\\r\\n        address[...\n      POP \t\t\tenAddress,\\r\\n        address[...\n      PUSH [tag] 330\t\t\tecipients,\\r\\n        uint256[...\n      DUP2 \t\t\t[] me\n      PUSH [tag] 219\t\t\tecipients,\\r\\n        uint256[...\n      JUMP \t\t\tecipients,\\r\\n        uint256[...\n    tag 330\t\t\tecipients,\\r\\n        uint256[...\n      JUMPDEST \t\t\tecipients,\\r\\n        uint256[...\n      SWAP3 \t\t\tunction scheduleConditionalBat...\n      SWAP2 \t\t\tunction scheduleConditionalBat...\n      POP \t\t\tunction scheduleConditionalBat...\n      POP \t\t\tunction scheduleConditionalBat...\n      JUMP \t\t\tunction scheduleConditionalBat...\n    tag 221\t\t\t desiredPrice,\\r\\n        uint...\n      JUMPDEST \t\t\t desiredPrice,\\r\\n        uint...\n      PUSH 0\t\t\tokenA\n      PUSH [tag] 332\t\t\tdress spender = msg.sender;\\r\\...\n      PUSH [tag] 333\t\t\tmsg.sender;\\r\\n        uint256...\n      DUP5 \t\t\tce(add\n      PUSH [tag] 217\t\t\tmsg.sender;\\r\\n        uint256...\n      JUMP \t\t\tmsg.sender;\\r\\n        uint256...\n    tag 333\t\t\tmsg.sender;\\r\\n        uint256...\n      JUMPDEST \t\t\tmsg.sender;\\r\\n        uint256...\n      PUSH [tag] 208\t\t\tdress spender = msg.sender;\\r\\...\n      JUMP \t\t\tdress spender = msg.sender;\\r\\...\n    tag 332\t\t\tdress spender = msg.sender;\\r\\...\n      JUMPDEST \t\t\tdress spender = msg.sender;\\r\\...\n      SWAP1 \t\t\t       address spender = msg.s...\n      POP \t\t\t       address spender = msg.s...\n      DUP1 \t\t\t if (\n      DUP4 \t\t\trice) \n      DUP3 \t\t\tesire\n      MSTORE \t\t\tce == desiredPrice) {\n      PUSH 20\t\t\trans\n      DUP3 \t\t\teBatc\n      ADD \t\t\tecuteBatchTransf\n      SWAP1 \t\t\t     executeBatchTransf\n      POP \t\t\t     executeBatchTransf\n      PUSH 20\t\t\t\\n   \n      DUP5 \t\t\tender)\n      MUL \t\t\t, spender);\\r\\n    \n      DUP4 \t\t\t amoun\n      ADD \t\t\tnts, amounts, spender);\\r\\n   ...\n      DUP6 \t\t\t  b\n      DUP2 \t\t\t      \n      GT \t\t\t\\n            by\n      ISZERO \t\t\t {\\r\\n            bytes memory...\n      PUSH [tag] 334\t\t\t {\\r\\n            bytes memory...\n      JUMPI \t\t\t {\\r\\n            bytes memory...\n      PUSH [tag] 335\t\t\t = abi.encodeWithSignature(\\r\\...\n      PUSH [tag] 210\t\t\t = abi.encodeWithSignature(\\r\\...\n      JUMP \t\t\t = abi.encodeWithSignature(\\r\\...\n    tag 335\t\t\t = abi.encodeWithSignature(\\r\\...\n      JUMPDEST \t\t\t = abi.encodeWithSignature(\\r\\...\n    tag 334\t\t\t {\\r\\n            bytes memory...\n      JUMPDEST \t\t\t {\\r\\n            bytes memory...\n      DUP4 \t\t\tress)\"\n    tag 336\t\t\tnt256,uint256,address)\",\\r\\n  ...\n      JUMPDEST \t\t\tnt256,uint256,address)\",\\r\\n  ...\n      DUP2 \t\t\t      \n      DUP2 \t\t\t   \n      LT \t\t\t               \n      ISZERO \t\t\tnt256,uint256,address)\",\\r\\n  ...\n      PUSH [tag] 338\t\t\tnt256,uint256,address)\",\\r\\n  ...\n      JUMPI \t\t\tnt256,uint256,address)\",\\r\\n  ...\n      DUP1 \t\t\t,\\r\\n\n      PUSH [tag] 339\t\t\tce,\\r\\n                interva...\n      DUP9 \t\t\t   \n      DUP3 \t\t\tinterval,\\r\n      PUSH [tag] 220\t\t\tce,\\r\\n                interva...\n      JUMP \t\t\tce,\\r\\n                interva...\n    tag 339\t\t\tce,\\r\\n                interva...\n      JUMPDEST \t\t\tce,\\r\\n                interva...\n      DUP5 \t\t\tedP\n      MSTORE \t\t\t  desiredPrice,\\r\\n           ...\n      PUSH 20\t\t\t  );\n      DUP5 \t\t\t   \n      ADD \t\t\t           );\\r\n      SWAP4 \t\t\tnder\\r\\n            );\\r\n      POP \t\t\tnder\\r\\n            );\\r\n      POP \t\t\tipients,\\r\\n                am...\n      PUSH 20\t\t\t    \n      DUP2 \t\t\t\\r\\n \n      ADD \t\t\tess,\\r\\n        \n      SWAP1 \t\t\tkenAddress,\\r\\n        \n      POP \t\t\tkenAddress,\\r\\n        \n      PUSH [tag] 336\t\t\tnt256,uint256,address)\",\\r\\n  ...\n      JUMP \t\t\tnt256,uint256,address)\",\\r\\n  ...\n    tag 338\t\t\tnt256,uint256,address)\",\\r\\n  ...\n      JUMPDEST \t\t\tnt256,uint256,address)\",\\r\\n  ...\n      POP \t\t\t6,uint256,address)\",\\r\n      POP \t\t\tdress);\\r\\n        address spe...\n      POP \t\t\tdress);\\r\\n        address spe...\n      SWAP4 \t\t\t desiredPrice,\\r\\n        uint...\n      SWAP3 \t\t\t desiredPrice,\\r\\n        uint...\n      POP \t\t\t desiredPrice,\\r\\n        uint...\n      POP \t\t\t desiredPrice,\\r\\n        uint...\n      POP \t\t\t desiredPrice,\\r\\n        uint...\n      JUMP \t\t\t desiredPrice,\\r\\n        uint...\n    tag 222\t\t\tscheduler.scheduleCall(address...\n      JUMPDEST \t\t\tscheduler.scheduleCall(address...\n      PUSH 0\t\t\t);\\r\\n \n      DUP3 \t\t\tId,\n      PUSH 1F\t\t\tched\n      DUP4 \t\t\teduled\n      ADD \t\t\tkScheduled(schedu\n      SLT \t\t\tCheckScheduled(scheduleId, \n      PUSH [tag] 341\t\t\temit PriceCheckScheduled(sched...\n      JUMPI \t\t\temit PriceCheckScheduled(sched...\n      PUSH [tag] 342\t\t\tk.timestamp + interval);\\r\\n  ...\n      PUSH [tag] 204\t\t\tk.timestamp + interval);\\r\\n  ...\n      JUMP \t\t\tk.timestamp + interval);\\r\\n  ...\n    tag 342\t\t\tk.timestamp + interval);\\r\\n  ...\n      JUMPDEST \t\t\tk.timestamp + interval);\\r\\n  ...\n    tag 341\t\t\temit PriceCheckScheduled(sched...\n      JUMPDEST \t\t\temit PriceCheckScheduled(sched...\n      DUP2 \t\t\t     a\n      CALLDATALOAD \t\t\tAddress,\\r\\n        ad\n      PUSH [tag] 343\t\t\tipients,\\r\\n        uint256[] ...\n      DUP5 \t\t\t6 i\n      DUP3 \t\t\t  uint\n      PUSH 20\t\t\t\\n   \n      DUP7 \t\t\tdPrice\n      ADD \t\t\tsiredPrice,\\r\\n    \n      PUSH [tag] 221\t\t\tipients,\\r\\n        uint256[] ...\n      JUMP \t\t\tipients,\\r\\n        uint256[] ...\n    tag 343\t\t\tipients,\\r\\n        uint256[] ...\n      JUMPDEST \t\t\tipients,\\r\\n        uint256[] ...\n      SWAP2 \t\t\temory recipients,\\r\\n        u...\n      POP \t\t\temory recipients,\\r\\n        u...\n      POP \t\t\t          emit PriceCheckSched...\n      SWAP3 \t\t\tscheduler.scheduleCall(address...\n      SWAP2 \t\t\tscheduler.scheduleCall(address...\n      POP \t\t\tscheduler.scheduleCall(address...\n      POP \t\t\tscheduler.scheduleCall(address...\n      JUMP \t\t\tscheduler.scheduleCall(address...\n    tag 15\t\t\t     address spender\\r\\n    ) ...\n      JUMPDEST \t\t\t     address spender\\r\\n    ) ...\n      PUSH 0\t\t\tle.get\n      DUP1 \t\t\tice(ad\n      PUSH 40\t\t\t d\n      DUP4 \t\t\trentPrice\n      DUP6 \t\t\t  if (c\n      SUB \t\t\t      if (currentPrice \n      SLT \t\t\t\\r\\n        if (currentPrice =...\n      ISZERO \t\t\t));\\r\\n        if (currentPric...\n      PUSH [tag] 345\t\t\t));\\r\\n        if (currentPric...\n      JUMPI \t\t\t));\\r\\n        if (currentPric...\n      PUSH [tag] 346\t\t\tedPrice) {\\r\\n            exec...\n      PUSH [tag] 202\t\t\tedPrice) {\\r\\n            exec...\n      JUMP \t\t\tedPrice) {\\r\\n            exec...\n    tag 346\t\t\tedPrice) {\\r\\n            exec...\n      JUMPDEST \t\t\tedPrice) {\\r\\n            exec...\n    tag 345\t\t\t));\\r\\n        if (currentPric...\n      JUMPDEST \t\t\t));\\r\\n        if (currentPric...\n      PUSH 0\t\t\ts\n      DUP4 \t\t\talBatchTr\n      ADD \t\t\ttionalBatchTransf\n      CALLDATALOAD \t\t\tscheduleConditionalBatchTransf...\n      PUSH FFFFFFFFFFFFFFFF\t\t\t amounts, desiredP\n      DUP2 \t\t\tipient\n      GT \t\t\trecipients, amounts, desiredPr\n      ISZERO \t\t\ts, recipients, amounts, desire...\n      PUSH [tag] 347\t\t\ts, recipients, amounts, desire...\n      JUMPI \t\t\ts, recipients, amounts, desire...\n      PUSH [tag] 348\t\t\t, interval);\\r\\n        }\\r\\n ...\n      PUSH [tag] 203\t\t\t, interval);\\r\\n        }\\r\\n ...\n      JUMP \t\t\t, interval);\\r\\n        }\\r\\n ...\n    tag 348\t\t\t, interval);\\r\\n        }\\r\\n ...\n      JUMPDEST \t\t\t, interval);\\r\\n        }\\r\\n ...\n    tag 347\t\t\ts, recipients, amounts, desire...\n      JUMPDEST \t\t\ts, recipients, amounts, desire...\n      PUSH [tag] 349\t\t\t    address[] memory recipient...\n      DUP6 \t\t\tddress \n      DUP3 \t\t\t      \n      DUP7 \t\t\t amounts,\n      ADD \t\t\tmory amounts,\\r\\n       \n      PUSH [tag] 216\t\t\t    address[] memory recipient...\n      JUMP \t\t\t    address[] memory recipient...\n    tag 349\t\t\t    address[] memory recipient...\n      JUMPDEST \t\t\t    address[] memory recipient...\n      SWAP3 \t\t\tess,\\r\\n        address[] memo...\n      POP \t\t\tess,\\r\\n        address[] memo...\n      POP \t\t\t       } else {\\r\\n           ...\n      PUSH 20\t\t\t r\n      DUP4 \t\t\t);\\r\\n     \n      ADD \t\t\tress);\\r\\n        re\n      CALLDATALOAD \t\t\tRC20(tokenAddress);\\r\\n       ...\n      PUSH FFFFFFFFFFFFFFFF\t\t\tmounts.length, \"Mi\n      DUP2 \t\t\tgth ==\n      GT \t\t\tlength == amounts.length, \"Mis\n      ISZERO \t\t\tts.length == amounts.length, \"...\n      PUSH [tag] 350\t\t\tts.length == amounts.length, \"...\n      JUMPI \t\t\tts.length == amounts.length, \"...\n      PUSH [tag] 351\t\t\tched recipients and amounts\");...\n      PUSH [tag] 203\t\t\tched recipients and amounts\");...\n      JUMP \t\t\tched recipients and amounts\");...\n    tag 351\t\t\tched recipients and amounts\");...\n      JUMPDEST \t\t\tched recipients and amounts\");...\n    tag 350\t\t\tts.length == amounts.length, \"...\n      JUMPDEST \t\t\tts.length == amounts.length, \"...\n      PUSH [tag] 352\t\t\t.length; i++) {\\r\\n           ...\n      DUP6 \t\t\t      r\n      DUP3 \t\t\t    }\\r\n      DUP7 \t\t\ts[i];\\r\\n  \n      ADD \t\t\tounts[i];\\r\\n        }\\r\\n\n      PUSH [tag] 222\t\t\t.length; i++) {\\r\\n           ...\n      JUMP \t\t\t.length; i++) {\\r\\n           ...\n    tag 352\t\t\t.length; i++) {\\r\\n           ...\n      JUMPDEST \t\t\t.length; i++) {\\r\\n           ...\n      SWAP2 \t\t\t < amounts.length; i++) {\\r\\n ...\n      POP \t\t\t < amounts.length; i++) {\\r\\n ...\n      POP \t\t\te{\\r\\n        IERC20 token = I...\n      SWAP3 \t\t\t     address spender\\r\\n    ) ...\n      POP \t\t\t     address spender\\r\\n    ) ...\n      SWAP3 \t\t\t     address spender\\r\\n    ) ...\n      SWAP1 \t\t\t     address spender\\r\\n    ) ...\n      POP \t\t\t     address spender\\r\\n    ) ...\n      JUMP \t\t\t     address spender\\r\\n    ) ...\n    tag 223\t\t\tm(spender, address(this), tota...\n      JUMPDEST \t\t\tm(spender, address(this), tota...\n      PUSH 0\t\t\t), \"Tok\n      PUSH [tag] 354\t\t\t\\n        for (uint256 i \n      DUP3 \t\t\t256 i\n      PUSH [tag] 211\t\t\t\\n        for (uint256 i \n      JUMP \t\t\t\\n        for (uint256 i \n    tag 354\t\t\t\\n        for (uint256 i \n      JUMPDEST \t\t\t\\n        for (uint256 i \n      SWAP1 \t\t\t failed\");\\r\\n        for (uin...\n      POP \t\t\t failed\");\\r\\n        for (uin...\n      SWAP2 \t\t\tm(spender, address(this), tota...\n      SWAP1 \t\t\tm(spender, address(this), tota...\n      POP \t\t\tm(spender, address(this), tota...\n      JUMP \t\t\tm(spender, address(this), tota...\n    tag 224\t\t\tipients.length; i++) {\\r\\n    ...\n      JUMPDEST \t\t\tipients.length; i++) {\\r\\n    ...\n      PUSH [tag] 356\t\t\t[i]);\\r\\n        }\\r\\n    }\\r\n      DUP2 \t\t\t    }\n      PUSH [tag] 223\t\t\t[i]);\\r\\n        }\\r\\n    }\\r\n      JUMP \t\t\t[i]);\\r\\n        }\\r\\n    }\\r\n    tag 356\t\t\t[i]);\\r\\n        }\\r\\n    }\\r\n      JUMPDEST \t\t\t[i]);\\r\\n        }\\r\\n    }\\r\n      DUP2 \t\t\tamoun\n      EQ \t\t\t], amounts[i]);\\r\\n        }\\r...\n      PUSH [tag] 357\t\t\tcipients[i], amounts[i]);\\r\\n ...\n      JUMPI \t\t\tcipients[i], amounts[i]);\\r\\n ...\n      PUSH 0\t\t\t\n      DUP1 \t\t\t\n      REVERT \t\t\t\n    tag 357\t\t\tcipients[i], amounts[i]);\\r\\n ...\n      JUMPDEST \t\t\tcipients[i], amounts[i]);\\r\\n ...\n      POP \t\t\tipients.length; i++) {\\r\\n    ...\n      JUMP \t\t\tipients.length; i++) {\\r\\n    ...\n    tag 225\t\t\t\n      JUMPDEST \t\t\t\n      PUSH 0\t\t\t\n      DUP2 \t\t\t\n      CALLDATALOAD \t\t\t\n      SWAP1 \t\t\t\n      POP \t\t\t\n      PUSH [tag] 359\t\t\t\n      DUP2 \t\t\t\n      PUSH [tag] 224\t\t\t\n      JUMP \t\t\t\n    tag 359\t\t\t\n      JUMPDEST \t\t\t\n      SWAP3 \t\t\t\n      SWAP2 \t\t\t\n      POP \t\t\t\n      POP \t\t\t\n      JUMP \t\t\t\n    tag 20\t\t\t\n      JUMPDEST \t\t\t\n      PUSH 0\t\t\t\n      PUSH 20\t\t\t\n      DUP3 \t\t\t\n      DUP5 \t\t\t\n      SUB \t\t\t\n      SLT \t\t\t\n      ISZERO \t\t\t\n      PUSH [tag] 361\t\t\t\n      JUMPI \t\t\t\n      PUSH [tag] 362\t\t\t\n      PUSH [tag] 202\t\t\t\n      JUMP \t\t\t\n    tag 362\t\t\t\n      JUMPDEST \t\t\t\n    tag 361\t\t\t\n      JUMPDEST \t\t\t\n      PUSH 0\t\t\t\n      PUSH [tag] 363\t\t\t\n      DUP5 \t\t\t\n      DUP3 \t\t\t\n      DUP6 \t\t\t\n      ADD \t\t\t\n      PUSH [tag] 225\t\t\t\n      JUMP \t\t\t\n    tag 363\t\t\t\n      JUMPDEST \t\t\t\n      SWAP2 \t\t\t\n      POP \t\t\t\n      POP \t\t\t\n      SWAP3 \t\t\t\n      SWAP2 \t\t\t\n      POP \t\t\t\n      POP \t\t\t\n      JUMP \t\t\t\n    tag 226\t\t\t\n      JUMPDEST \t\t\t\n      PUSH [tag] 365\t\t\t\n      DUP2 \t\t\t\n      PUSH [tag] 218\t\t\t\n      JUMP \t\t\t\n    tag 365\t\t\t\n      JUMPDEST \t\t\t\n      DUP3 \t\t\t\n      MSTORE \t\t\t\n      POP \t\t\t\n      POP \t\t\t\n      JUMP \t\t\t\n    tag 23\t\t\t\n      JUMPDEST \t\t\t\n      PUSH 0\t\t\t\n      PUSH 20\t\t\t\n      DUP3 \t\t\t\n      ADD \t\t\t\n      SWAP1 \t\t\t\n      POP \t\t\t\n      PUSH [tag] 367\t\t\t\n      PUSH 0\t\t\t\n      DUP4 \t\t\t\n      ADD \t\t\t\n      DUP5 \t\t\t\n      PUSH [tag] 226\t\t\t\n      JUMP \t\t\t\n    tag 367\t\t\t\n      JUMPDEST \t\t\t\n      SWAP3 \t\t\t\n      SWAP2 \t\t\t\n      POP \t\t\t\n      POP \t\t\t\n      JUMP \t\t\t\n    tag 227\t\t\t\n      JUMPDEST \t\t\t\n      PUSH 0\t\t\t\n      PUSH FFFFFFFFFFFFFFFF\t\t\t\n      DUP3 \t\t\t\n      GT \t\t\t\n      ISZERO \t\t\t\n      PUSH [tag] 369\t\t\t\n      JUMPI \t\t\t\n      PUSH [tag] 370\t\t\t\n      PUSH [tag] 206\t\t\t\n      JUMP \t\t\t\n    tag 370\t\t\t\n      JUMPDEST \t\t\t\n    tag 369\t\t\t\n      JUMPDEST \t\t\t\n      PUSH 20\t\t\t\n      DUP3 \t\t\t\n      MUL \t\t\t\n      SWAP1 \t\t\t\n      POP \t\t\t\n      PUSH 20\t\t\t\n      DUP2 \t\t\t\n      ADD \t\t\t\n      SWAP1 \t\t\t\n      POP \t\t\t\n      SWAP2 \t\t\t\n      SWAP1 \t\t\t\n      POP \t\t\t\n      JUMP \t\t\t\n    tag 228\t\t\t\n      JUMPDEST \t\t\t\n      PUSH 0\t\t\t\n      PUSH [tag] 372\t\t\t\n      PUSH [tag] 373\t\t\t\n      DUP5 \t\t\t\n      PUSH [tag] 227\t\t\t\n      JUMP \t\t\t\n    tag 373\t\t\t\n      JUMPDEST \t\t\t\n      PUSH [tag] 208\t\t\t\n      JUMP \t\t\t\n    tag 372\t\t\t\n      JUMPDEST \t\t\t\n      SWAP1 \t\t\t\n      POP \t\t\t\n      DUP1 \t\t\t\n      DUP4 \t\t\t\n      DUP3 \t\t\t\n      MSTORE \t\t\t\n      PUSH 20\t\t\t\n      DUP3 \t\t\t\n      ADD \t\t\t\n      SWAP1 \t\t\t\n      POP \t\t\t\n      PUSH 20\t\t\t\n      DUP5 \t\t\t\n      MUL \t\t\t\n      DUP4 \t\t\t\n      ADD \t\t\t\n      DUP6 \t\t\t\n      DUP2 \t\t\t\n      GT \t\t\t\n      ISZERO \t\t\t\n      PUSH [tag] 374\t\t\t\n      JUMPI \t\t\t\n      PUSH [tag] 375\t\t\t\n      PUSH [tag] 210\t\t\t\n      JUMP \t\t\t\n    tag 375\t\t\t\n      JUMPDEST \t\t\t\n    tag 374\t\t\t\n      JUMPDEST \t\t\t\n      DUP4 \t\t\t\n    tag 376\t\t\t\n      JUMPDEST \t\t\t\n      DUP2 \t\t\t\n      DUP2 \t\t\t\n      LT \t\t\t\n      ISZERO \t\t\t\n      PUSH [tag] 378\t\t\t\n      JUMPI \t\t\t\n      DUP1 \t\t\t\n      PUSH [tag] 379\t\t\t\n      DUP9 \t\t\t\n      DUP3 \t\t\t\n      PUSH [tag] 225\t\t\t\n      JUMP \t\t\t\n    tag 379\t\t\t\n      JUMPDEST \t\t\t\n      DUP5 \t\t\t\n      MSTORE \t\t\t\n      PUSH 20\t\t\t\n      DUP5 \t\t\t\n      ADD \t\t\t\n      SWAP4 \t\t\t\n      POP \t\t\t\n      POP \t\t\t\n      PUSH 20\t\t\t\n      DUP2 \t\t\t\n      ADD \t\t\t\n      SWAP1 \t\t\t\n      POP \t\t\t\n      PUSH [tag] 376\t\t\t\n      JUMP \t\t\t\n    tag 378\t\t\t\n      JUMPDEST \t\t\t\n      POP \t\t\t\n      POP \t\t\t\n      POP \t\t\t\n      SWAP4 \t\t\t\n      SWAP3 \t\t\t\n      POP \t\t\t\n      POP \t\t\t\n      POP \t\t\t\n      JUMP \t\t\t\n    tag 229\t\t\t\n      JUMPDEST \t\t\t\n      PUSH 0\t\t\t\n      DUP3 \t\t\t\n      PUSH 1F\t\t\t\n      DUP4 \t\t\t\n      ADD \t\t\t\n      SLT \t\t\t\n      PUSH [tag] 381\t\t\t\n      JUMPI \t\t\t\n      PUSH [tag] 382\t\t\t\n      PUSH [tag] 204\t\t\t\n      JUMP \t\t\t\n    tag 382\t\t\t\n      JUMPDEST \t\t\t\n    tag 381\t\t\t\n      JUMPDEST \t\t\t\n      DUP2 \t\t\t\n      CALLDATALOAD \t\t\t\n      PUSH [tag] 383\t\t\t\n      DUP5 \t\t\t\n      DUP3 \t\t\t\n      PUSH 20\t\t\t\n      DUP7 \t\t\t\n      ADD \t\t\t\n      PUSH [tag] 228\t\t\t\n      JUMP \t\t\t\n    tag 383\t\t\t\n      JUMPDEST \t\t\t\n      SWAP2 \t\t\t\n      POP \t\t\t\n      POP \t\t\t\n      SWAP3 \t\t\t\n      SWAP2 \t\t\t\n      POP \t\t\t\n      POP \t\t\t\n      JUMP \t\t\t\n    tag 26\t\t\t\n      JUMPDEST \t\t\t\n      PUSH 0\t\t\t\n      DUP1 \t\t\t\n      PUSH 0\t\t\t\n      DUP1 \t\t\t\n      PUSH 0\t\t\t\n      PUSH A0\t\t\t\n      DUP7 \t\t\t\n      DUP9 \t\t\t\n      SUB \t\t\t\n      SLT \t\t\t\n      ISZERO \t\t\t\n      PUSH [tag] 385\t\t\t\n      JUMPI \t\t\t\n      PUSH [tag] 386\t\t\t\n      PUSH [tag] 202\t\t\t\n      JUMP \t\t\t\n    tag 386\t\t\t\n      JUMPDEST \t\t\t\n    tag 385\t\t\t\n      JUMPDEST \t\t\t\n      PUSH 0\t\t\t\n      PUSH [tag] 387\t\t\t\n      DUP9 \t\t\t\n      DUP3 \t\t\t\n      DUP10 \t\t\t\n      ADD \t\t\t\n      PUSH [tag] 225\t\t\t\n      JUMP \t\t\t\n    tag 387\t\t\t\n      JUMPDEST \t\t\t\n      SWAP6 \t\t\t\n      POP \t\t\t\n      POP \t\t\t\n      PUSH 20\t\t\t\n      DUP7 \t\t\t\n      ADD \t\t\t\n      CALLDATALOAD \t\t\t\n      PUSH FFFFFFFFFFFFFFFF\t\t\t\n      DUP2 \t\t\t\n      GT \t\t\t\n      ISZERO \t\t\t\n      PUSH [tag] 388\t\t\t\n      JUMPI \t\t\t\n      PUSH [tag] 389\t\t\t\n      PUSH [tag] 203\t\t\t\n      JUMP \t\t\t\n    tag 389\t\t\t\n      JUMPDEST \t\t\t\n    tag 388\t\t\t\n      JUMPDEST \t\t\t\n      PUSH [tag] 390\t\t\t\n      DUP9 \t\t\t\n      DUP3 \t\t\t\n      DUP10 \t\t\t\n      ADD \t\t\t\n      PUSH [tag] 229\t\t\t\n      JUMP \t\t\t\n    tag 390\t\t\t\n      JUMPDEST \t\t\t\n      SWAP5 \t\t\t\n      POP \t\t\t\n      POP \t\t\t\n      PUSH 40\t\t\t\n      DUP7 \t\t\t\n      ADD \t\t\t\n      CALLDATALOAD \t\t\t\n      PUSH FFFFFFFFFFFFFFFF\t\t\t\n      DUP2 \t\t\t\n      GT \t\t\t\n      ISZERO \t\t\t\n      PUSH [tag] 391\t\t\t\n      JUMPI \t\t\t\n      PUSH [tag] 392\t\t\t\n      PUSH [tag] 203\t\t\t\n      JUMP \t\t\t\n    tag 392\t\t\t\n      JUMPDEST \t\t\t\n    tag 391\t\t\t\n      JUMPDEST \t\t\t\n      PUSH [tag] 393\t\t\t\n      DUP9 \t\t\t\n      DUP3 \t\t\t\n      DUP10 \t\t\t\n      ADD \t\t\t\n      PUSH [tag] 222\t\t\t\n      JUMP \t\t\t\n    tag 393\t\t\t\n      JUMPDEST \t\t\t\n      SWAP4 \t\t\t\n      POP \t\t\t\n      POP \t\t\t\n      PUSH 60\t\t\t\n      PUSH [tag] 394\t\t\t\n      DUP9 \t\t\t\n      DUP3 \t\t\t\n      DUP10 \t\t\t\n      ADD \t\t\t\n      PUSH [tag] 220\t\t\t\n      JUMP \t\t\t\n    tag 394\t\t\t\n      JUMPDEST \t\t\t\n      SWAP3 \t\t\t\n      POP \t\t\t\n      POP \t\t\t\n      PUSH 80\t\t\t\n      PUSH [tag] 395\t\t\t\n      DUP9 \t\t\t\n      DUP3 \t\t\t\n      DUP10 \t\t\t\n      ADD \t\t\t\n      PUSH [tag] 220\t\t\t\n      JUMP \t\t\t\n    tag 395\t\t\t\n      JUMPDEST \t\t\t\n      SWAP2 \t\t\t\n      POP \t\t\t\n      POP \t\t\t\n      SWAP3 \t\t\t\n      SWAP6 \t\t\t\n      POP \t\t\t\n      SWAP3 \t\t\t\n      SWAP6 \t\t\t\n      SWAP1 \t\t\t\n      SWAP4 \t\t\t\n      POP \t\t\t\n      JUMP \t\t\t\n    tag 30\t\t\t\n      JUMPDEST \t\t\t\n      PUSH 0\t\t\t\n      DUP1 \t\t\t\n      PUSH 0\t\t\t\n      PUSH 60\t\t\t\n      DUP5 \t\t\t\n      DUP7 \t\t\t\n      SUB \t\t\t\n      SLT \t\t\t\n      ISZERO \t\t\t\n      PUSH [tag] 397\t\t\t\n      JUMPI \t\t\t\n      PUSH [tag] 398\t\t\t\n      PUSH [tag] 202\t\t\t\n      JUMP \t\t\t\n    tag 398\t\t\t\n      JUMPDEST \t\t\t\n    tag 397\t\t\t\n      JUMPDEST \t\t\t\n      PUSH 0\t\t\t\n      PUSH [tag] 399\t\t\t\n      DUP7 \t\t\t\n      DUP3 \t\t\t\n      DUP8 \t\t\t\n      ADD \t\t\t\n      PUSH [tag] 225\t\t\t\n      JUMP \t\t\t\n    tag 399\t\t\t\n      JUMPDEST \t\t\t\n      SWAP4 \t\t\t\n      POP \t\t\t\n      POP \t\t\t\n      PUSH 20\t\t\t\n      DUP5 \t\t\t\n      ADD \t\t\t\n      CALLDATALOAD \t\t\t\n      PUSH FFFFFFFFFFFFFFFF\t\t\t\n      DUP2 \t\t\t\n      GT \t\t\t\n      ISZERO \t\t\t\n      PUSH [tag] 400\t\t\t\n      JUMPI \t\t\t\n      PUSH [tag] 401\t\t\t\n      PUSH [tag] 203\t\t\t\n      JUMP \t\t\t\n    tag 401\t\t\t\n      JUMPDEST \t\t\t\n    tag 400\t\t\t\n      JUMPDEST \t\t\t\n      PUSH [tag] 402\t\t\t\n      DUP7 \t\t\t\n      DUP3 \t\t\t\n      DUP8 \t\t\t\n      ADD \t\t\t\n      PUSH [tag] 229\t\t\t\n      JUMP \t\t\t\n    tag 402\t\t\t\n      JUMPDEST \t\t\t\n      SWAP3 \t\t\t\n      POP \t\t\t\n      POP \t\t\t\n      PUSH 40\t\t\t\n      DUP5 \t\t\t\n      ADD \t\t\t\n      CALLDATALOAD \t\t\t\n      PUSH FFFFFFFFFFFFFFFF\t\t\t\n      DUP2 \t\t\t\n      GT \t\t\t\n      ISZERO \t\t\t\n      PUSH [tag] 403\t\t\t\n      JUMPI \t\t\t\n      PUSH [tag] 404\t\t\t\n      PUSH [tag] 203\t\t\t\n      JUMP \t\t\t\n    tag 404\t\t\t\n      JUMPDEST \t\t\t\n    tag 403\t\t\t\n      JUMPDEST \t\t\t\n      PUSH [tag] 405\t\t\t\n      DUP7 \t\t\t\n      DUP3 \t\t\t\n      DUP8 \t\t\t\n      ADD \t\t\t\n      PUSH [tag] 222\t\t\t\n      JUMP \t\t\t\n    tag 405\t\t\t\n      JUMPDEST \t\t\t\n      SWAP2 \t\t\t\n      POP \t\t\t\n      POP \t\t\t\n      SWAP3 \t\t\t\n      POP \t\t\t\n      SWAP3 \t\t\t\n      POP \t\t\t\n      SWAP3 \t\t\t\n      JUMP \t\t\t\n    tag 34\t\t\t\n      JUMPDEST \t\t\t\n      PUSH 0\t\t\t\n      DUP1 \t\t\t\n      PUSH 0\t\t\t\n      DUP1 \t\t\t\n      PUSH 80\t\t\t\n      DUP6 \t\t\t\n      DUP8 \t\t\t\n      SUB \t\t\t\n      SLT \t\t\t\n      ISZERO \t\t\t\n      PUSH [tag] 407\t\t\t\n      JUMPI \t\t\t\n      PUSH [tag] 408\t\t\t\n      PUSH [tag] 202\t\t\t\n      JUMP \t\t\t\n    tag 408\t\t\t\n      JUMPDEST \t\t\t\n    tag 407\t\t\t\n      JUMPDEST \t\t\t\n      PUSH 0\t\t\t\n      PUSH [tag] 409\t\t\t\n      DUP8 \t\t\t\n      DUP3 \t\t\t\n      DUP9 \t\t\t\n      ADD \t\t\t\n      PUSH [tag] 225\t\t\t\n      JUMP \t\t\t\n    tag 409\t\t\t\n      JUMPDEST \t\t\t\n      SWAP5 \t\t\t\n      POP \t\t\t\n      POP \t\t\t\n      PUSH 20\t\t\t\n      DUP6 \t\t\t\n      ADD \t\t\t\n      CALLDATALOAD \t\t\t\n      PUSH FFFFFFFFFFFFFFFF\t\t\t\n      DUP2 \t\t\t\n      GT \t\t\t\n      ISZERO \t\t\t\n      PUSH [tag] 410\t\t\t\n      JUMPI \t\t\t\n      PUSH [tag] 411\t\t\t\n      PUSH [tag] 203\t\t\t\n      JUMP \t\t\t\n    tag 411\t\t\t\n      JUMPDEST \t\t\t\n    tag 410\t\t\t\n      JUMPDEST \t\t\t\n      PUSH [tag] 412\t\t\t\n      DUP8 \t\t\t\n      DUP3 \t\t\t\n      DUP9 \t\t\t\n      ADD \t\t\t\n      PUSH [tag] 229\t\t\t\n      JUMP \t\t\t\n    tag 412\t\t\t\n      JUMPDEST \t\t\t\n      SWAP4 \t\t\t\n      POP \t\t\t\n      POP \t\t\t\n      PUSH 40\t\t\t\n      DUP6 \t\t\t\n      ADD \t\t\t\n      CALLDATALOAD \t\t\t\n      PUSH FFFFFFFFFFFFFFFF\t\t\t\n      DUP2 \t\t\t\n      GT \t\t\t\n      ISZERO \t\t\t\n      PUSH [tag] 413\t\t\t\n      JUMPI \t\t\t\n      PUSH [tag] 414\t\t\t\n      PUSH [tag] 203\t\t\t\n      JUMP \t\t\t\n    tag 414\t\t\t\n      JUMPDEST \t\t\t\n    tag 413\t\t\t\n      JUMPDEST \t\t\t\n      PUSH [tag] 415\t\t\t\n      DUP8 \t\t\t\n      DUP3 \t\t\t\n      DUP9 \t\t\t\n      ADD \t\t\t\n      PUSH [tag] 222\t\t\t\n      JUMP \t\t\t\n    tag 415\t\t\t\n      JUMPDEST \t\t\t\n      SWAP3 \t\t\t\n      POP \t\t\t\n      POP \t\t\t\n      PUSH 60\t\t\t\n      PUSH [tag] 416\t\t\t\n      DUP8 \t\t\t\n      DUP3 \t\t\t\n      DUP9 \t\t\t\n      ADD \t\t\t\n      PUSH [tag] 220\t\t\t\n      JUMP \t\t\t\n    tag 416\t\t\t\n      JUMPDEST \t\t\t\n      SWAP2 \t\t\t\n      POP \t\t\t\n      POP \t\t\t\n      SWAP3 \t\t\t\n      SWAP6 \t\t\t\n      SWAP2 \t\t\t\n      SWAP5 \t\t\t\n      POP \t\t\t\n      SWAP3 \t\t\t\n      POP \t\t\t\n      JUMP \t\t\t\n    tag 38\t\t\t\n      JUMPDEST \t\t\t\n      PUSH 0\t\t\t\n      DUP1 \t\t\t\n      PUSH 0\t\t\t\n      DUP1 \t\t\t\n      PUSH 0\t\t\t\n      DUP1 \t\t\t\n      PUSH C0\t\t\t\n      DUP8 \t\t\t\n      DUP10 \t\t\t\n      SUB \t\t\t\n      SLT \t\t\t\n      ISZERO \t\t\t\n      PUSH [tag] 418\t\t\t\n      JUMPI \t\t\t\n      PUSH [tag] 419\t\t\t\n      PUSH [tag] 202\t\t\t\n      JUMP \t\t\t\n    tag 419\t\t\t\n      JUMPDEST \t\t\t\n    tag 418\t\t\t\n      JUMPDEST \t\t\t\n      PUSH 0\t\t\t\n      PUSH [tag] 420\t\t\t\n      DUP10 \t\t\t\n      DUP3 \t\t\t\n      DUP11 \t\t\t\n      ADD \t\t\t\n      PUSH [tag] 225\t\t\t\n      JUMP \t\t\t\n    tag 420\t\t\t\n      JUMPDEST \t\t\t\n      SWAP7 \t\t\t\n      POP \t\t\t\n      POP \t\t\t\n      PUSH 20\t\t\t\n      DUP8 \t\t\t\n      ADD \t\t\t\n      CALLDATALOAD \t\t\t\n      PUSH FFFFFFFFFFFFFFFF\t\t\t\n      DUP2 \t\t\t\n      GT \t\t\t\n      ISZERO \t\t\t\n      PUSH [tag] 421\t\t\t\n      JUMPI \t\t\t\n      PUSH [tag] 422\t\t\t\n      PUSH [tag] 203\t\t\t\n      JUMP \t\t\t\n    tag 422\t\t\t\n      JUMPDEST \t\t\t\n    tag 421\t\t\t\n      JUMPDEST \t\t\t\n      PUSH [tag] 423\t\t\t\n      DUP10 \t\t\t\n      DUP3 \t\t\t\n      DUP11 \t\t\t\n      ADD \t\t\t\n      PUSH [tag] 229\t\t\t\n      JUMP \t\t\t\n    tag 423\t\t\t\n      JUMPDEST \t\t\t\n      SWAP6 \t\t\t\n      POP \t\t\t\n      POP \t\t\t\n      PUSH 40\t\t\t\n      DUP8 \t\t\t\n      ADD \t\t\t\n      CALLDATALOAD \t\t\t\n      PUSH FFFFFFFFFFFFFFFF\t\t\t\n      DUP2 \t\t\t\n      GT \t\t\t\n      ISZERO \t\t\t\n      PUSH [tag] 424\t\t\t\n      JUMPI \t\t\t\n      PUSH [tag] 425\t\t\t\n      PUSH [tag] 203\t\t\t\n      JUMP \t\t\t\n    tag 425\t\t\t\n      JUMPDEST \t\t\t\n    tag 424\t\t\t\n      JUMPDEST \t\t\t\n      PUSH [tag] 426\t\t\t\n      DUP10 \t\t\t\n      DUP3 \t\t\t\n      DUP11 \t\t\t\n      ADD \t\t\t\n      PUSH [tag] 222\t\t\t\n      JUMP \t\t\t\n    tag 426\t\t\t\n      JUMPDEST \t\t\t\n      SWAP5 \t\t\t\n      POP \t\t\t\n      POP \t\t\t\n      PUSH 60\t\t\t\n      PUSH [tag] 427\t\t\t\n      DUP10 \t\t\t\n      DUP3 \t\t\t\n      DUP11 \t\t\t\n      ADD \t\t\t\n      PUSH [tag] 220\t\t\t\n      JUMP \t\t\t\n    tag 427\t\t\t\n      JUMPDEST \t\t\t\n      SWAP4 \t\t\t\n      POP \t\t\t\n      POP \t\t\t\n      PUSH 80\t\t\t\n      PUSH [tag] 428\t\t\t\n      DUP10 \t\t\t\n      DUP3 \t\t\t\n      DUP11 \t\t\t\n      ADD \t\t\t\n      PUSH [tag] 220\t\t\t\n      JUMP \t\t\t\n    tag 428\t\t\t\n      JUMPDEST \t\t\t\n      SWAP3 \t\t\t\n      POP \t\t\t\n      POP \t\t\t\n      PUSH A0\t\t\t\n      PUSH [tag] 429\t\t\t\n      DUP10 \t\t\t\n      DUP3 \t\t\t\n      DUP11 \t\t\t\n      ADD \t\t\t\n      PUSH [tag] 225\t\t\t\n      JUMP \t\t\t\n    tag 429\t\t\t\n      JUMPDEST \t\t\t\n      SWAP2 \t\t\t\n      POP \t\t\t\n      POP \t\t\t\n      SWAP3 \t\t\t\n      SWAP6 \t\t\t\n      POP \t\t\t\n      SWAP3 \t\t\t\n      SWAP6 \t\t\t\n      POP \t\t\t\n      SWAP3 \t\t\t\n      SWAP6 \t\t\t\n      JUMP \t\t\t\n    tag 230\t\t\t\n      JUMPDEST \t\t\t\n      PUSH 0\t\t\t\n      DUP3 \t\t\t\n      DUP3 \t\t\t\n      MSTORE \t\t\t\n      PUSH 20\t\t\t\n      DUP3 \t\t\t\n      ADD \t\t\t\n      SWAP1 \t\t\t\n      POP \t\t\t\n      SWAP3 \t\t\t\n      SWAP2 \t\t\t\n      POP \t\t\t\n      POP \t\t\t\n      JUMP \t\t\t\n    tag 231\t\t\t\n      JUMPDEST \t\t\t\n      PUSH 4769766520696E70757473206163636F7264696E676C79210000000000000000\t\t\t\n      PUSH 0\t\t\t\n      DUP3 \t\t\t\n      ADD \t\t\t\n      MSTORE \t\t\t\n      POP \t\t\t\n      JUMP \t\t\t\n    tag 232\t\t\t\n      JUMPDEST \t\t\t\n      PUSH 0\t\t\t\n      PUSH [tag] 433\t\t\t\n      PUSH 18\t\t\t\n      DUP4 \t\t\t\n      PUSH [tag] 230\t\t\t\n      JUMP \t\t\t\n    tag 433\t\t\t\n      JUMPDEST \t\t\t\n      SWAP2 \t\t\t\n      POP \t\t\t\n      PUSH [tag] 434\t\t\t\n      DUP3 \t\t\t\n      PUSH [tag] 231\t\t\t\n      JUMP \t\t\t\n    tag 434\t\t\t\n      JUMPDEST \t\t\t\n      PUSH 20\t\t\t\n      DUP3 \t\t\t\n      ADD \t\t\t\n      SWAP1 \t\t\t\n      POP \t\t\t\n      SWAP2 \t\t\t\n      SWAP1 \t\t\t\n      POP \t\t\t\n      JUMP \t\t\t\n    tag 43\t\t\t\n      JUMPDEST \t\t\t\n      PUSH 0\t\t\t\n      PUSH 20\t\t\t\n      DUP3 \t\t\t\n      ADD \t\t\t\n      SWAP1 \t\t\t\n      POP \t\t\t\n      DUP2 \t\t\t\n      DUP2 \t\t\t\n      SUB \t\t\t\n      PUSH 0\t\t\t\n      DUP4 \t\t\t\n      ADD \t\t\t\n      MSTORE \t\t\t\n      PUSH [tag] 436\t\t\t\n      DUP2 \t\t\t\n      PUSH [tag] 232\t\t\t\n      JUMP \t\t\t\n    tag 436\t\t\t\n      JUMPDEST \t\t\t\n      SWAP1 \t\t\t\n      POP \t\t\t\n      SWAP2 \t\t\t\n      SWAP1 \t\t\t\n      POP \t\t\t\n      JUMP \t\t\t\n    tag 233\t\t\t\n      JUMPDEST \t\t\t\n      PUSH 596F75206E65656420746F2073656E6420736F6D652045544820706C65617365\t\t\t\n      PUSH 0\t\t\t\n      DUP3 \t\t\t\n      ADD \t\t\t\n      MSTORE \t\t\t\n      POP \t\t\t\n      JUMP \t\t\t\n    tag 234\t\t\t\n      JUMPDEST \t\t\t\n      PUSH 0\t\t\t\n      PUSH [tag] 439\t\t\t\n      PUSH 20\t\t\t\n      DUP4 \t\t\t\n      PUSH [tag] 230\t\t\t\n      JUMP \t\t\t\n    tag 439\t\t\t\n      JUMPDEST \t\t\t\n      SWAP2 \t\t\t\n      POP \t\t\t\n      PUSH [tag] 440\t\t\t\n      DUP3 \t\t\t\n      PUSH [tag] 233\t\t\t\n      JUMP \t\t\t\n    tag 440\t\t\t\n      JUMPDEST \t\t\t\n      PUSH 20\t\t\t\n      DUP3 \t\t\t\n      ADD \t\t\t\n      SWAP1 \t\t\t\n      POP \t\t\t\n      SWAP2 \t\t\t\n      SWAP1 \t\t\t\n      POP \t\t\t\n      JUMP \t\t\t\n    tag 46\t\t\t\n      JUMPDEST \t\t\t\n      PUSH 0\t\t\t\n      PUSH 20\t\t\t\n      DUP3 \t\t\t\n      ADD \t\t\t\n      SWAP1 \t\t\t\n      POP \t\t\t\n      DUP2 \t\t\t\n      DUP2 \t\t\t\n      SUB \t\t\t\n      PUSH 0\t\t\t\n      DUP4 \t\t\t\n      ADD \t\t\t\n      MSTORE \t\t\t\n      PUSH [tag] 442\t\t\t\n      DUP2 \t\t\t\n      PUSH [tag] 234\t\t\t\n      JUMP \t\t\t\n    tag 442\t\t\t\n      JUMPDEST \t\t\t\n      SWAP1 \t\t\t\n      POP \t\t\t\n      SWAP2 \t\t\t\n      SWAP1 \t\t\t\n      POP \t\t\t\n      JUMP \t\t\t\n    tag 52\t\t\t\n      JUMPDEST \t\t\t\n      PUSH 4E487B7100000000000000000000000000000000000000000000000000000000\t\t\t\n      PUSH 0\t\t\t\n      MSTORE \t\t\t\n      PUSH 32\t\t\t\n      PUSH 4\t\t\t\n      MSTORE \t\t\t\n      PUSH 24\t\t\t\n      PUSH 0\t\t\t\n      REVERT \t\t\t\n    tag 235\t\t\t\n      JUMPDEST \t\t\t\n      PUSH 4E487B7100000000000000000000000000000000000000000000000000000000\t\t\t\n      PUSH 0\t\t\t\n      MSTORE \t\t\t\n      PUSH 11\t\t\t\n      PUSH 4\t\t\t\n      MSTORE \t\t\t\n      PUSH 24\t\t\t\n      PUSH 0\t\t\t\n      REVERT \t\t\t\n    tag 63\t\t\t\n      JUMPDEST \t\t\t\n      PUSH 0\t\t\t\n      PUSH [tag] 446\t\t\t\n      DUP3 \t\t\t\n      PUSH [tag] 218\t\t\t\n      JUMP \t\t\t\n    tag 446\t\t\t\n      JUMPDEST \t\t\t\n      SWAP2 \t\t\t\n      POP \t\t\t\n      PUSH FFFFFFFFFFFFFFFFFFFFFFFFFFFFFFFFFFFFFFFFFFFFFFFFFFFFFFFFFFFFFFFF\t\t\t\n      DUP3 \t\t\t\n      SUB \t\t\t\n      PUSH [tag] 447\t\t\t\n      JUMPI \t\t\t\n      PUSH [tag] 448\t\t\t\n      PUSH [tag] 235\t\t\t\n      JUMP \t\t\t\n    tag 448\t\t\t\n      JUMPDEST \t\t\t\n    tag 447\t\t\t\n      JUMPDEST \t\t\t\n      PUSH 1\t\t\t\n      DUP3 \t\t\t\n      ADD \t\t\t\n      SWAP1 \t\t\t\n      POP \t\t\t\n      SWAP2 \t\t\t\n      SWAP1 \t\t\t\n      POP \t\t\t\n      JUMP \t\t\t\n    tag 236\t\t\t\n      JUMPDEST \t\t\t\n      PUSH [tag] 450\t\t\t\n      DUP2 \t\t\t\n      PUSH [tag] 223\t\t\t\n      JUMP \t\t\t\n    tag 450\t\t\t\n      JUMPDEST \t\t\t\n      DUP3 \t\t\t\n      MSTORE \t\t\t\n      POP \t\t\t\n      POP \t\t\t\n      JUMP \t\t\t\n    tag 69\t\t\t\n      JUMPDEST \t\t\t\n      PUSH 0\t\t\t\n      PUSH 20\t\t\t\n      DUP3 \t\t\t\n      ADD \t\t\t\n      SWAP1 \t\t\t\n      POP \t\t\t\n      PUSH [tag] 452\t\t\t\n      PUSH 0\t\t\t\n      DUP4 \t\t\t\n      ADD \t\t\t\n      DUP5 \t\t\t\n      PUSH [tag] 236\t\t\t\n      JUMP \t\t\t\n    tag 452\t\t\t\n      JUMPDEST \t\t\t\n      SWAP3 \t\t\t\n      SWAP2 \t\t\t\n      POP \t\t\t\n      POP \t\t\t\n      JUMP \t\t\t\n    tag 237\t\t\t\n      JUMPDEST \t\t\t\n      PUSH 0\t\t\t\n      DUP2 \t\t\t\n      MLOAD \t\t\t\n      SWAP1 \t\t\t\n      POP \t\t\t\n      PUSH [tag] 454\t\t\t\n      DUP2 \t\t\t\n      PUSH [tag] 219\t\t\t\n      JUMP \t\t\t\n    tag 454\t\t\t\n      JUMPDEST \t\t\t\n      SWAP3 \t\t\t\n      SWAP2 \t\t\t\n      POP \t\t\t\n      POP \t\t\t\n      JUMP \t\t\t\n    tag 73\t\t\t\n      JUMPDEST \t\t\t\n      PUSH 0\t\t\t\n      PUSH 20\t\t\t\n      DUP3 \t\t\t\n      DUP5 \t\t\t\n      SUB \t\t\t\n      SLT \t\t\t\n      ISZERO \t\t\t\n      PUSH [tag] 456\t\t\t\n      JUMPI \t\t\t\n      PUSH [tag] 457\t\t\t\n      PUSH [tag] 202\t\t\t\n      JUMP \t\t\t\n    tag 457\t\t\t\n      JUMPDEST \t\t\t\n    tag 456\t\t\t\n      JUMPDEST \t\t\t\n      PUSH 0\t\t\t\n      PUSH [tag] 458\t\t\t\n      DUP5 \t\t\t\n      DUP3 \t\t\t\n      DUP6 \t\t\t\n      ADD \t\t\t\n      PUSH [tag] 237\t\t\t\n      JUMP \t\t\t\n    tag 458\t\t\t\n      JUMPDEST \t\t\t\n      SWAP2 \t\t\t\n      POP \t\t\t\n      POP \t\t\t\n      SWAP3 \t\t\t\n      SWAP2 \t\t\t\n      POP \t\t\t\n      POP \t\t\t\n      JUMP \t\t\t\n    tag 238\t\t\t\n      JUMPDEST \t\t\t\n      PUSH 0\t\t\t\n      DUP2 \t\t\t\n      MLOAD \t\t\t\n      SWAP1 \t\t\t\n      POP \t\t\t\n      SWAP2 \t\t\t\n      SWAP1 \t\t\t\n      POP \t\t\t\n      JUMP \t\t\t\n    tag 239\t\t\t\n      JUMPDEST \t\t\t\n      PUSH 0\t\t\t\n      DUP3 \t\t\t\n      DUP3 \t\t\t\n      MSTORE \t\t\t\n      PUSH 20\t\t\t\n      DUP3 \t\t\t\n      ADD \t\t\t\n      SWAP1 \t\t\t\n      POP \t\t\t\n      SWAP3 \t\t\t\n      SWAP2 \t\t\t\n      POP \t\t\t\n      POP \t\t\t\n      JUMP \t\t\t\n    tag 240\t\t\t\n      JUMPDEST \t\t\t\n      PUSH 0\t\t\t\n      DUP2 \t\t\t\n      SWAP1 \t\t\t\n      POP \t\t\t\n      PUSH 20\t\t\t\n      DUP3 \t\t\t\n      ADD \t\t\t\n      SWAP1 \t\t\t\n      POP \t\t\t\n      SWAP2 \t\t\t\n      SWAP1 \t\t\t\n      POP \t\t\t\n      JUMP \t\t\t\n    tag 241\t\t\t\n      JUMPDEST \t\t\t\n      PUSH [tag] 463\t\t\t\n      DUP2 \t\t\t\n      PUSH [tag] 223\t\t\t\n      JUMP \t\t\t\n    tag 463\t\t\t\n      JUMPDEST \t\t\t\n      DUP3 \t\t\t\n      MSTORE \t\t\t\n      POP \t\t\t\n      POP \t\t\t\n      JUMP \t\t\t\n    tag 242\t\t\t\n      JUMPDEST \t\t\t\n      PUSH 0\t\t\t\n      PUSH [tag] 465\t\t\t\n      DUP4 \t\t\t\n      DUP4 \t\t\t\n      PUSH [tag] 241\t\t\t\n      JUMP \t\t\t\n    tag 465\t\t\t\n      JUMPDEST \t\t\t\n      PUSH 20\t\t\t\n      DUP4 \t\t\t\n      ADD \t\t\t\n      SWAP1 \t\t\t\n      POP \t\t\t\n      SWAP3 \t\t\t\n      SWAP2 \t\t\t\n      POP \t\t\t\n      POP \t\t\t\n      JUMP \t\t\t\n    tag 243\t\t\t\n      JUMPDEST \t\t\t\n      PUSH 0\t\t\t\n      PUSH 20\t\t\t\n      DUP3 \t\t\t\n      ADD \t\t\t\n      SWAP1 \t\t\t\n      POP \t\t\t\n      SWAP2 \t\t\t\n      SWAP1 \t\t\t\n      POP \t\t\t\n      JUMP \t\t\t\n    tag 244\t\t\t\n      JUMPDEST \t\t\t\n      PUSH 0\t\t\t\n      PUSH [tag] 468\t\t\t\n      DUP3 \t\t\t\n      PUSH [tag] 238\t\t\t\n      JUMP \t\t\t\n    tag 468\t\t\t\n      JUMPDEST \t\t\t\n      PUSH [tag] 469\t\t\t\n      DUP2 \t\t\t\n      DUP6 \t\t\t\n      PUSH [tag] 239\t\t\t\n      JUMP \t\t\t\n    tag 469\t\t\t\n      JUMPDEST \t\t\t\n      SWAP4 \t\t\t\n      POP \t\t\t\n      PUSH [tag] 470\t\t\t\n      DUP4 \t\t\t\n      PUSH [tag] 240\t\t\t\n      JUMP \t\t\t\n    tag 470\t\t\t\n      JUMPDEST \t\t\t\n      DUP1 \t\t\t\n      PUSH 0\t\t\t\n    tag 471\t\t\t\n      JUMPDEST \t\t\t\n      DUP4 \t\t\t\n      DUP2 \t\t\t\n      LT \t\t\t\n      ISZERO \t\t\t\n      PUSH [tag] 473\t\t\t\n      JUMPI \t\t\t\n      DUP2 \t\t\t\n      MLOAD \t\t\t\n      PUSH [tag] 474\t\t\t\n      DUP9 \t\t\t\n      DUP3 \t\t\t\n      PUSH [tag] 242\t\t\t\n      JUMP \t\t\t\n    tag 474\t\t\t\n      JUMPDEST \t\t\t\n      SWAP8 \t\t\t\n      POP \t\t\t\n      PUSH [tag] 475\t\t\t\n      DUP4 \t\t\t\n      PUSH [tag] 243\t\t\t\n      JUMP \t\t\t\n    tag 475\t\t\t\n      JUMPDEST \t\t\t\n      SWAP3 \t\t\t\n      POP \t\t\t\n      POP \t\t\t\n      PUSH 1\t\t\t\n      DUP2 \t\t\t\n      ADD \t\t\t\n      SWAP1 \t\t\t\n      POP \t\t\t\n      PUSH [tag] 471\t\t\t\n      JUMP \t\t\t\n    tag 473\t\t\t\n      JUMPDEST \t\t\t\n      POP \t\t\t\n      DUP6 \t\t\t\n      SWAP4 \t\t\t\n      POP \t\t\t\n      POP \t\t\t\n      POP \t\t\t\n      POP \t\t\t\n      SWAP3 \t\t\t\n      SWAP2 \t\t\t\n      POP \t\t\t\n      POP \t\t\t\n      JUMP \t\t\t\n    tag 245\t\t\t\n      JUMPDEST \t\t\t\n      PUSH 0\t\t\t\n      DUP2 \t\t\t\n      MLOAD \t\t\t\n      SWAP1 \t\t\t\n      POP \t\t\t\n      SWAP2 \t\t\t\n      SWAP1 \t\t\t\n      POP \t\t\t\n      JUMP \t\t\t\n    tag 246\t\t\t\n      JUMPDEST \t\t\t\n      PUSH 0\t\t\t\n      DUP3 \t\t\t\n      DUP3 \t\t\t\n      MSTORE \t\t\t\n      PUSH 20\t\t\t\n      DUP3 \t\t\t\n      ADD \t\t\t\n      SWAP1 \t\t\t\n      POP \t\t\t\n      SWAP3 \t\t\t\n      SWAP2 \t\t\t\n      POP \t\t\t\n      POP \t\t\t\n      JUMP \t\t\t\n    tag 247\t\t\t\n      JUMPDEST \t\t\t\n      PUSH 0\t\t\t\n      DUP2 \t\t\t\n      SWAP1 \t\t\t\n      POP \t\t\t\n      PUSH 20\t\t\t\n      DUP3 \t\t\t\n      ADD \t\t\t\n      SWAP1 \t\t\t\n      POP \t\t\t\n      SWAP2 \t\t\t\n      SWAP1 \t\t\t\n      POP \t\t\t\n      JUMP \t\t\t\n    tag 248\t\t\t\n      JUMPDEST \t\t\t\n      PUSH [tag] 480\t\t\t\n      DUP2 \t\t\t\n      PUSH [tag] 218\t\t\t\n      JUMP \t\t\t\n    tag 480\t\t\t\n      JUMPDEST \t\t\t\n      DUP3 \t\t\t\n      MSTORE \t\t\t\n      POP \t\t\t\n      POP \t\t\t\n      JUMP \t\t\t\n    tag 249\t\t\t\n      JUMPDEST \t\t\t\n      PUSH 0\t\t\t\n      PUSH [tag] 482\t\t\t\n      DUP4 \t\t\t\n      DUP4 \t\t\t\n      PUSH [tag] 248\t\t\t\n      JUMP \t\t\t\n    tag 482\t\t\t\n      JUMPDEST \t\t\t\n      PUSH 20\t\t\t\n      DUP4 \t\t\t\n      ADD \t\t\t\n      SWAP1 \t\t\t\n      POP \t\t\t\n      SWAP3 \t\t\t\n      SWAP2 \t\t\t\n      POP \t\t\t\n      POP \t\t\t\n      JUMP \t\t\t\n    tag 250\t\t\t\n      JUMPDEST \t\t\t\n      PUSH 0\t\t\t\n      PUSH 20\t\t\t\n      DUP3 \t\t\t\n      ADD \t\t\t\n      SWAP1 \t\t\t\n      POP \t\t\t\n      SWAP2 \t\t\t\n      SWAP1 \t\t\t\n      POP \t\t\t\n      JUMP \t\t\t\n    tag 251\t\t\t\n      JUMPDEST \t\t\t\n      PUSH 0\t\t\t\n      PUSH [tag] 485\t\t\t\n      DUP3 \t\t\t\n      PUSH [tag] 245\t\t\t\n      JUMP \t\t\t\n    tag 485\t\t\t\n      JUMPDEST \t\t\t\n      PUSH [tag] 486\t\t\t\n      DUP2 \t\t\t\n      DUP6 \t\t\t\n      PUSH [tag] 246\t\t\t\n      JUMP \t\t\t\n    tag 486\t\t\t\n      JUMPDEST \t\t\t\n      SWAP4 \t\t\t\n      POP \t\t\t\n      PUSH [tag] 487\t\t\t\n      DUP4 \t\t\t\n      PUSH [tag] 247\t\t\t\n      JUMP \t\t\t\n    tag 487\t\t\t\n      JUMPDEST \t\t\t\n      DUP1 \t\t\t\n      PUSH 0\t\t\t\n    tag 488\t\t\t\n      JUMPDEST \t\t\t\n      DUP4 \t\t\t\n      DUP2 \t\t\t\n      LT \t\t\t\n      ISZERO \t\t\t\n      PUSH [tag] 490\t\t\t\n      JUMPI \t\t\t\n      DUP2 \t\t\t\n      MLOAD \t\t\t\n      PUSH [tag] 491\t\t\t\n      DUP9 \t\t\t\n      DUP3 \t\t\t\n      PUSH [tag] 249\t\t\t\n      JUMP \t\t\t\n    tag 491\t\t\t\n      JUMPDEST \t\t\t\n      SWAP8 \t\t\t\n      POP \t\t\t\n      PUSH [tag] 492\t\t\t\n      DUP4 \t\t\t\n      PUSH [tag] 250\t\t\t\n      JUMP \t\t\t\n    tag 492\t\t\t\n      JUMPDEST \t\t\t\n      SWAP3 \t\t\t\n      POP \t\t\t\n      POP \t\t\t\n      PUSH 1\t\t\t\n      DUP2 \t\t\t\n      ADD \t\t\t\n      SWAP1 \t\t\t\n      POP \t\t\t\n      PUSH [tag] 488\t\t\t\n      JUMP \t\t\t\n    tag 490\t\t\t\n      JUMPDEST \t\t\t\n      POP \t\t\t\n      DUP6 \t\t\t\n      SWAP4 \t\t\t\n      POP \t\t\t\n      POP \t\t\t\n      POP \t\t\t\n      POP \t\t\t\n      SWAP3 \t\t\t\n      SWAP2 \t\t\t\n      POP \t\t\t\n      POP \t\t\t\n      JUMP \t\t\t\n    tag 84\t\t\t\n      JUMPDEST \t\t\t\n      PUSH 0\t\t\t\n      PUSH C0\t\t\t\n      DUP3 \t\t\t\n      ADD \t\t\t\n      SWAP1 \t\t\t\n      POP \t\t\t\n      PUSH [tag] 494\t\t\t\n      PUSH 0\t\t\t\n      DUP4 \t\t\t\n      ADD \t\t\t\n      DUP10 \t\t\t\n      PUSH [tag] 236\t\t\t\n      JUMP \t\t\t\n    tag 494\t\t\t\n      JUMPDEST \t\t\t\n      DUP2 \t\t\t\n      DUP2 \t\t\t\n      SUB \t\t\t\n      PUSH 20\t\t\t\n      DUP4 \t\t\t\n      ADD \t\t\t\n      MSTORE \t\t\t\n      PUSH [tag] 495\t\t\t\n      DUP2 \t\t\t\n      DUP9 \t\t\t\n      PUSH [tag] 244\t\t\t\n      JUMP \t\t\t\n    tag 495\t\t\t\n      JUMPDEST \t\t\t\n      SWAP1 \t\t\t\n      POP \t\t\t\n      DUP2 \t\t\t\n      DUP2 \t\t\t\n      SUB \t\t\t\n      PUSH 40\t\t\t\n      DUP4 \t\t\t\n      ADD \t\t\t\n      MSTORE \t\t\t\n      PUSH [tag] 496\t\t\t\n      DUP2 \t\t\t\n      DUP8 \t\t\t\n      PUSH [tag] 251\t\t\t\n      JUMP \t\t\t\n    tag 496\t\t\t\n      JUMPDEST \t\t\t\n      SWAP1 \t\t\t\n      POP \t\t\t\n      PUSH [tag] 497\t\t\t\n      PUSH 60\t\t\t\n      DUP4 \t\t\t\n      ADD \t\t\t\n      DUP7 \t\t\t\n      PUSH [tag] 226\t\t\t\n      JUMP \t\t\t\n    tag 497\t\t\t\n      JUMPDEST \t\t\t\n      PUSH [tag] 498\t\t\t\n      PUSH 80\t\t\t\n      DUP4 \t\t\t\n      ADD \t\t\t\n      DUP6 \t\t\t\n      PUSH [tag] 226\t\t\t\n      JUMP \t\t\t\n    tag 498\t\t\t\n      JUMPDEST \t\t\t\n      PUSH [tag] 499\t\t\t\n      PUSH A0\t\t\t\n      DUP4 \t\t\t\n      ADD \t\t\t\n      DUP5 \t\t\t\n      PUSH [tag] 236\t\t\t\n      JUMP \t\t\t\n    tag 499\t\t\t\n      JUMPDEST \t\t\t\n      SWAP8 \t\t\t\n      SWAP7 \t\t\t\n      POP \t\t\t\n      POP \t\t\t\n      POP \t\t\t\n      POP \t\t\t\n      POP \t\t\t\n      POP \t\t\t\n      POP \t\t\t\n      JUMP \t\t\t\n    tag 252\t\t\t\n      JUMPDEST \t\t\t\n      PUSH 0\t\t\t\n      DUP2 \t\t\t\n      SWAP1 \t\t\t\n      POP \t\t\t\n      SWAP2 \t\t\t\n      SWAP1 \t\t\t\n      POP \t\t\t\n      JUMP \t\t\t\n    tag 253\t\t\t\n      JUMPDEST \t\t\t\n      PUSH 0\t\t\t\n      DUP2 \t\t\t\n      SWAP1 \t\t\t\n      POP \t\t\t\n      SWAP2 \t\t\t\n      SWAP1 \t\t\t\n      POP \t\t\t\n      JUMP \t\t\t\n    tag 254\t\t\t\n      JUMPDEST \t\t\t\n      PUSH 0\t\t\t\n      PUSH [tag] 503\t\t\t\n      PUSH [tag] 504\t\t\t\n      PUSH [tag] 505\t\t\t\n      DUP5 \t\t\t\n      PUSH [tag] 252\t\t\t\n      JUMP \t\t\t\n    tag 505\t\t\t\n      JUMPDEST \t\t\t\n      PUSH [tag] 253\t\t\t\n      JUMP \t\t\t\n    tag 504\t\t\t\n      JUMPDEST \t\t\t\n      PUSH [tag] 218\t\t\t\n      JUMP \t\t\t\n    tag 503\t\t\t\n      JUMPDEST \t\t\t\n      SWAP1 \t\t\t\n      POP \t\t\t\n      SWAP2 \t\t\t\n      SWAP1 \t\t\t\n      POP \t\t\t\n      JUMP \t\t\t\n    tag 255\t\t\t\n      JUMPDEST \t\t\t\n      PUSH [tag] 507\t\t\t\n      DUP2 \t\t\t\n      PUSH [tag] 254\t\t\t\n      JUMP \t\t\t\n    tag 507\t\t\t\n      JUMPDEST \t\t\t\n      DUP3 \t\t\t\n      MSTORE \t\t\t\n      POP \t\t\t\n      POP \t\t\t\n      JUMP \t\t\t\n    tag 256\t\t\t\n      JUMPDEST \t\t\t\n      PUSH 0\t\t\t\n      DUP2 \t\t\t\n      SWAP1 \t\t\t\n      POP \t\t\t\n      SWAP2 \t\t\t\n      SWAP1 \t\t\t\n      POP \t\t\t\n      JUMP \t\t\t\n    tag 257\t\t\t\n      JUMPDEST \t\t\t\n      PUSH 0\t\t\t\n      PUSH [tag] 510\t\t\t\n      PUSH [tag] 511\t\t\t\n      PUSH [tag] 512\t\t\t\n      DUP5 \t\t\t\n      PUSH [tag] 256\t\t\t\n      JUMP \t\t\t\n    tag 512\t\t\t\n      JUMPDEST \t\t\t\n      PUSH [tag] 253\t\t\t\n      JUMP \t\t\t\n    tag 511\t\t\t\n      JUMPDEST \t\t\t\n      PUSH [tag] 218\t\t\t\n      JUMP \t\t\t\n    tag 510\t\t\t\n      JUMPDEST \t\t\t\n      SWAP1 \t\t\t\n      POP \t\t\t\n      SWAP2 \t\t\t\n      SWAP1 \t\t\t\n      POP \t\t\t\n      JUMP \t\t\t\n    tag 258\t\t\t\n      JUMPDEST \t\t\t\n      PUSH [tag] 514\t\t\t\n      DUP2 \t\t\t\n      PUSH [tag] 257\t\t\t\n      JUMP \t\t\t\n    tag 514\t\t\t\n      JUMPDEST \t\t\t\n      DUP3 \t\t\t\n      MSTORE \t\t\t\n      POP \t\t\t\n      POP \t\t\t\n      JUMP \t\t\t\n    tag 259\t\t\t\n      JUMPDEST \t\t\t\n      PUSH 0\t\t\t\n      DUP2 \t\t\t\n      SWAP1 \t\t\t\n      POP \t\t\t\n      SWAP2 \t\t\t\n      SWAP1 \t\t\t\n      POP \t\t\t\n      JUMP \t\t\t\n    tag 260\t\t\t\n      JUMPDEST \t\t\t\n      PUSH 0\t\t\t\n      PUSH [tag] 517\t\t\t\n      PUSH [tag] 518\t\t\t\n      PUSH [tag] 519\t\t\t\n      DUP5 \t\t\t\n      PUSH [tag] 259\t\t\t\n      JUMP \t\t\t\n    tag 519\t\t\t\n      JUMPDEST \t\t\t\n      PUSH [tag] 253\t\t\t\n      JUMP \t\t\t\n    tag 518\t\t\t\n      JUMPDEST \t\t\t\n      PUSH [tag] 218\t\t\t\n      JUMP \t\t\t\n    tag 517\t\t\t\n      JUMPDEST \t\t\t\n      SWAP1 \t\t\t\n      POP \t\t\t\n      SWAP2 \t\t\t\n      SWAP1 \t\t\t\n      POP \t\t\t\n      JUMP \t\t\t\n    tag 261\t\t\t\n      JUMPDEST \t\t\t\n      PUSH [tag] 521\t\t\t\n      DUP2 \t\t\t\n      PUSH [tag] 260\t\t\t\n      JUMP \t\t\t\n    tag 521\t\t\t\n      JUMPDEST \t\t\t\n      DUP3 \t\t\t\n      MSTORE \t\t\t\n      POP \t\t\t\n      POP \t\t\t\n      JUMP \t\t\t\n    tag 262\t\t\t\n      JUMPDEST \t\t\t\n      PUSH 0\t\t\t\n      DUP2 \t\t\t\n      MLOAD \t\t\t\n      SWAP1 \t\t\t\n      POP \t\t\t\n      SWAP2 \t\t\t\n      SWAP1 \t\t\t\n      POP \t\t\t\n      JUMP \t\t\t\n    tag 263\t\t\t\n      JUMPDEST \t\t\t\n      PUSH 0\t\t\t\n      DUP3 \t\t\t\n      DUP3 \t\t\t\n      MSTORE \t\t\t\n      PUSH 20\t\t\t\n      DUP3 \t\t\t\n      ADD \t\t\t\n      SWAP1 \t\t\t\n      POP \t\t\t\n      SWAP3 \t\t\t\n      SWAP2 \t\t\t\n      POP \t\t\t\n      POP \t\t\t\n      JUMP \t\t\t\n    tag 264\t\t\t\n      JUMPDEST \t\t\t\n      PUSH 0\t\t\t\n    tag 525\t\t\t\n      JUMPDEST \t\t\t\n      DUP4 \t\t\t\n      DUP2 \t\t\t\n      LT \t\t\t\n      ISZERO \t\t\t\n      PUSH [tag] 527\t\t\t\n      JUMPI \t\t\t\n      DUP1 \t\t\t\n      DUP3 \t\t\t\n      ADD \t\t\t\n      MLOAD \t\t\t\n      DUP2 \t\t\t\n      DUP5 \t\t\t\n      ADD \t\t\t\n      MSTORE \t\t\t\n      PUSH 20\t\t\t\n      DUP2 \t\t\t\n      ADD \t\t\t\n      SWAP1 \t\t\t\n      POP \t\t\t\n      PUSH [tag] 525\t\t\t\n      JUMP \t\t\t\n    tag 527\t\t\t\n      JUMPDEST \t\t\t\n      PUSH 0\t\t\t\n      DUP5 \t\t\t\n      DUP5 \t\t\t\n      ADD \t\t\t\n      MSTORE \t\t\t\n      POP \t\t\t\n      POP \t\t\t\n      POP \t\t\t\n      POP \t\t\t\n      JUMP \t\t\t\n    tag 265\t\t\t\n      JUMPDEST \t\t\t\n      PUSH 0\t\t\t\n      PUSH [tag] 529\t\t\t\n      DUP3 \t\t\t\n      PUSH [tag] 262\t\t\t\n      JUMP \t\t\t\n    tag 529\t\t\t\n      JUMPDEST \t\t\t\n      PUSH [tag] 530\t\t\t\n      DUP2 \t\t\t\n      DUP6 \t\t\t\n      PUSH [tag] 263\t\t\t\n      JUMP \t\t\t\n    tag 530\t\t\t\n      JUMPDEST \t\t\t\n      SWAP4 \t\t\t\n      POP \t\t\t\n      PUSH [tag] 531\t\t\t\n      DUP2 \t\t\t\n      DUP6 \t\t\t\n      PUSH 20\t\t\t\n      DUP7 \t\t\t\n      ADD \t\t\t\n      PUSH [tag] 264\t\t\t\n      JUMP \t\t\t\n    tag 531\t\t\t\n      JUMPDEST \t\t\t\n      PUSH [tag] 532\t\t\t\n      DUP2 \t\t\t\n      PUSH [tag] 205\t\t\t\n      JUMP \t\t\t\n    tag 532\t\t\t\n      JUMPDEST \t\t\t\n      DUP5 \t\t\t\n      ADD \t\t\t\n      SWAP2 \t\t\t\n      POP \t\t\t\n      POP \t\t\t\n      SWAP3 \t\t\t\n      SWAP2 \t\t\t\n      POP \t\t\t\n      POP \t\t\t\n      JUMP \t\t\t\n    tag 86\t\t\t\n      JUMPDEST \t\t\t\n      PUSH 0\t\t\t\n      PUSH C0\t\t\t\n      DUP3 \t\t\t\n      ADD \t\t\t\n      SWAP1 \t\t\t\n      POP \t\t\t\n      PUSH [tag] 534\t\t\t\n      PUSH 0\t\t\t\n      DUP4 \t\t\t\n      ADD \t\t\t\n      DUP10 \t\t\t\n      PUSH [tag] 236\t\t\t\n      JUMP \t\t\t\n    tag 534\t\t\t\n      JUMPDEST \t\t\t\n      PUSH [tag] 535\t\t\t\n      PUSH 20\t\t\t\n      DUP4 \t\t\t\n      ADD \t\t\t\n      DUP9 \t\t\t\n      PUSH [tag] 255\t\t\t\n      JUMP \t\t\t\n    tag 535\t\t\t\n      JUMPDEST \t\t\t\n      PUSH [tag] 536\t\t\t\n      PUSH 40\t\t\t\n      DUP4 \t\t\t\n      ADD \t\t\t\n      DUP8 \t\t\t\n      PUSH [tag] 258\t\t\t\n      JUMP \t\t\t\n    tag 536\t\t\t\n      JUMPDEST \t\t\t\n      PUSH [tag] 537\t\t\t\n      PUSH 60\t\t\t\n      DUP4 \t\t\t\n      ADD \t\t\t\n      DUP7 \t\t\t\n      PUSH [tag] 261\t\t\t\n      JUMP \t\t\t\n    tag 537\t\t\t\n      JUMPDEST \t\t\t\n      PUSH [tag] 538\t\t\t\n      PUSH 80\t\t\t\n      DUP4 \t\t\t\n      ADD \t\t\t\n      DUP6 \t\t\t\n      PUSH [tag] 226\t\t\t\n      JUMP \t\t\t\n    tag 538\t\t\t\n      JUMPDEST \t\t\t\n      DUP2 \t\t\t\n      DUP2 \t\t\t\n      SUB \t\t\t\n      PUSH A0\t\t\t\n      DUP4 \t\t\t\n      ADD \t\t\t\n      MSTORE \t\t\t\n      PUSH [tag] 539\t\t\t\n      DUP2 \t\t\t\n      DUP5 \t\t\t\n      PUSH [tag] 265\t\t\t\n      JUMP \t\t\t\n    tag 539\t\t\t\n      JUMPDEST \t\t\t\n      SWAP1 \t\t\t\n      POP \t\t\t\n      SWAP8 \t\t\t\n      SWAP7 \t\t\t\n      POP \t\t\t\n      POP \t\t\t\n      POP \t\t\t\n      POP \t\t\t\n      POP \t\t\t\n      POP \t\t\t\n      POP \t\t\t\n      JUMP \t\t\t\n    tag 266\t\t\t\n      JUMPDEST \t\t\t\n      PUSH 0\t\t\t\n      DUP1 \t\t\t\n      REVERT \t\t\t\n    tag 267\t\t\t\n      JUMPDEST \t\t\t\n      PUSH 0\t\t\t\n      PUSH FFFFFFFFFFFFFFFF\t\t\t\n      DUP3 \t\t\t\n      GT \t\t\t\n      ISZERO \t\t\t\n      PUSH [tag] 542\t\t\t\n      JUMPI \t\t\t\n      PUSH [tag] 543\t\t\t\n      PUSH [tag] 206\t\t\t\n      JUMP \t\t\t\n    tag 543\t\t\t\n      JUMPDEST \t\t\t\n    tag 542\t\t\t\n      JUMPDEST \t\t\t\n      PUSH [tag] 544\t\t\t\n      DUP3 \t\t\t\n      PUSH [tag] 205\t\t\t\n      JUMP \t\t\t\n    tag 544\t\t\t\n      JUMPDEST \t\t\t\n      SWAP1 \t\t\t\n      POP \t\t\t\n      PUSH 20\t\t\t\n      DUP2 \t\t\t\n      ADD \t\t\t\n      SWAP1 \t\t\t\n      POP \t\t\t\n      SWAP2 \t\t\t\n      SWAP1 \t\t\t\n      POP \t\t\t\n      JUMP \t\t\t\n    tag 268\t\t\t\n      JUMPDEST \t\t\t\n      PUSH 0\t\t\t\n      PUSH [tag] 546\t\t\t\n      PUSH [tag] 547\t\t\t\n      DUP5 \t\t\t\n      PUSH [tag] 267\t\t\t\n      JUMP \t\t\t\n    tag 547\t\t\t\n      JUMPDEST \t\t\t\n      PUSH [tag] 208\t\t\t\n      JUMP \t\t\t\n    tag 546\t\t\t\n      JUMPDEST \t\t\t\n      SWAP1 \t\t\t\n      POP \t\t\t\n      DUP3 \t\t\t\n      DUP2 \t\t\t\n      MSTORE \t\t\t\n      PUSH 20\t\t\t\n      DUP2 \t\t\t\n      ADD \t\t\t\n      DUP5 \t\t\t\n      DUP5 \t\t\t\n      DUP5 \t\t\t\n      ADD \t\t\t\n      GT \t\t\t\n      ISZERO \t\t\t\n      PUSH [tag] 548\t\t\t\n      JUMPI \t\t\t\n      PUSH [tag] 549\t\t\t\n      PUSH [tag] 266\t\t\t\n      JUMP \t\t\t\n    tag 549\t\t\t\n      JUMPDEST \t\t\t\n    tag 548\t\t\t\n      JUMPDEST \t\t\t\n      PUSH [tag] 550\t\t\t\n      DUP5 \t\t\t\n      DUP3 \t\t\t\n      DUP6 \t\t\t\n      PUSH [tag] 264\t\t\t\n      JUMP \t\t\t\n    tag 550\t\t\t\n      JUMPDEST \t\t\t\n      POP \t\t\t\n      SWAP4 \t\t\t\n      SWAP3 \t\t\t\n      POP \t\t\t\n      POP \t\t\t\n      POP \t\t\t\n      JUMP \t\t\t\n    tag 269\t\t\t\n      JUMPDEST \t\t\t\n      PUSH 0\t\t\t\n      DUP3 \t\t\t\n      PUSH 1F\t\t\t\n      DUP4 \t\t\t\n      ADD \t\t\t\n      SLT \t\t\t\n      PUSH [tag] 552\t\t\t\n      JUMPI \t\t\t\n      PUSH [tag] 553\t\t\t\n      PUSH [tag] 204\t\t\t\n      JUMP \t\t\t\n    tag 553\t\t\t\n      JUMPDEST \t\t\t\n    tag 552\t\t\t\n      JUMPDEST \t\t\t\n      DUP2 \t\t\t\n      MLOAD \t\t\t\n      PUSH [tag] 554\t\t\t\n      DUP5 \t\t\t\n      DUP3 \t\t\t\n      PUSH 20\t\t\t\n      DUP7 \t\t\t\n      ADD \t\t\t\n      PUSH [tag] 268\t\t\t\n      JUMP \t\t\t\n    tag 554\t\t\t\n      JUMPDEST \t\t\t\n      SWAP2 \t\t\t\n      POP \t\t\t\n      POP \t\t\t\n      SWAP3 \t\t\t\n      SWAP2 \t\t\t\n      POP \t\t\t\n      POP \t\t\t\n      JUMP \t\t\t\n    tag 90\t\t\t\n      JUMPDEST \t\t\t\n      PUSH 0\t\t\t\n      PUSH 20\t\t\t\n      DUP3 \t\t\t\n      DUP5 \t\t\t\n      SUB \t\t\t\n      SLT \t\t\t\n      ISZERO \t\t\t\n      PUSH [tag] 556\t\t\t\n      JUMPI \t\t\t\n      PUSH [tag] 557\t\t\t\n      PUSH [tag] 202\t\t\t\n      JUMP \t\t\t\n    tag 557\t\t\t\n      JUMPDEST \t\t\t\n    tag 556\t\t\t\n      JUMPDEST \t\t\t\n      PUSH 0\t\t\t\n      DUP3 \t\t\t\n      ADD \t\t\t\n      MLOAD \t\t\t\n      PUSH FFFFFFFFFFFFFFFF\t\t\t\n      DUP2 \t\t\t\n      GT \t\t\t\n      ISZERO \t\t\t\n      PUSH [tag] 558\t\t\t\n      JUMPI \t\t\t\n      PUSH [tag] 559\t\t\t\n      PUSH [tag] 203\t\t\t\n      JUMP \t\t\t\n    tag 559\t\t\t\n      JUMPDEST \t\t\t\n    tag 558\t\t\t\n      JUMPDEST \t\t\t\n      PUSH [tag] 560\t\t\t\n      DUP5 \t\t\t\n      DUP3 \t\t\t\n      DUP6 \t\t\t\n      ADD \t\t\t\n      PUSH [tag] 269\t\t\t\n      JUMP \t\t\t\n    tag 560\t\t\t\n      JUMPDEST \t\t\t\n      SWAP2 \t\t\t\n      POP \t\t\t\n      POP \t\t\t\n      SWAP3 \t\t\t\n      SWAP2 \t\t\t\n      POP \t\t\t\n      POP \t\t\t\n      JUMP \t\t\t\n    tag 270\t\t\t\n      JUMPDEST \t\t\t\n      PUSH 0\t\t\t\n      DUP2 \t\t\t\n      SWAP1 \t\t\t\n      POP \t\t\t\n      SWAP3 \t\t\t\n      SWAP2 \t\t\t\n      POP \t\t\t\n      POP \t\t\t\n      JUMP \t\t\t\n    tag 271\t\t\t\n      JUMPDEST \t\t\t\n      PUSH 0\t\t\t\n      PUSH [tag] 563\t\t\t\n      DUP3 \t\t\t\n      PUSH [tag] 262\t\t\t\n      JUMP \t\t\t\n    tag 563\t\t\t\n      JUMPDEST \t\t\t\n      PUSH [tag] 564\t\t\t\n      DUP2 \t\t\t\n      DUP6 \t\t\t\n      PUSH [tag] 270\t\t\t\n      JUMP \t\t\t\n    tag 564\t\t\t\n      JUMPDEST \t\t\t\n      SWAP4 \t\t\t\n      POP \t\t\t\n      PUSH [tag] 565\t\t\t\n      DUP2 \t\t\t\n      DUP6 \t\t\t\n      PUSH 20\t\t\t\n      DUP7 \t\t\t\n      ADD \t\t\t\n      PUSH [tag] 264\t\t\t\n      JUMP \t\t\t\n    tag 565\t\t\t\n      JUMPDEST \t\t\t\n      DUP1 \t\t\t\n      DUP5 \t\t\t\n      ADD \t\t\t\n      SWAP2 \t\t\t\n      POP \t\t\t\n      POP \t\t\t\n      SWAP3 \t\t\t\n      SWAP2 \t\t\t\n      POP \t\t\t\n      POP \t\t\t\n      JUMP \t\t\t\n    tag 92\t\t\t\n      JUMPDEST \t\t\t\n      PUSH 0\t\t\t\n      PUSH [tag] 567\t\t\t\n      DUP3 \t\t\t\n      DUP5 \t\t\t\n      PUSH [tag] 271\t\t\t\n      JUMP \t\t\t\n    tag 567\t\t\t\n      JUMPDEST \t\t\t\n      SWAP2 \t\t\t\n      POP \t\t\t\n      DUP2 \t\t\t\n      SWAP1 \t\t\t\n      POP \t\t\t\n      SWAP3 \t\t\t\n      SWAP2 \t\t\t\n      POP \t\t\t\n      POP \t\t\t\n      JUMP \t\t\t\n    tag 94\t\t\t\n      JUMPDEST \t\t\t\n      PUSH 0\t\t\t\n      PUSH [tag] 569\t\t\t\n      DUP3 \t\t\t\n      PUSH [tag] 218\t\t\t\n      JUMP \t\t\t\n    tag 569\t\t\t\n      JUMPDEST \t\t\t\n      SWAP2 \t\t\t\n      POP \t\t\t\n      PUSH [tag] 570\t\t\t\n      DUP4 \t\t\t\n      PUSH [tag] 218\t\t\t\n      JUMP \t\t\t\n    tag 570\t\t\t\n      JUMPDEST \t\t\t\n      SWAP3 \t\t\t\n      POP \t\t\t\n      DUP3 \t\t\t\n      DUP3 \t\t\t\n      ADD \t\t\t\n      SWAP1 \t\t\t\n      POP \t\t\t\n      DUP1 \t\t\t\n      DUP3 \t\t\t\n      GT \t\t\t\n      ISZERO \t\t\t\n      PUSH [tag] 571\t\t\t\n      JUMPI \t\t\t\n      PUSH [tag] 572\t\t\t\n      PUSH [tag] 235\t\t\t\n      JUMP \t\t\t\n    tag 572\t\t\t\n      JUMPDEST \t\t\t\n    tag 571\t\t\t\n      JUMPDEST \t\t\t\n      SWAP3 \t\t\t\n      SWAP2 \t\t\t\n      POP \t\t\t\n      POP \t\t\t\n      JUMP \t\t\t\n    tag 107\t\t\t\n      JUMPDEST \t\t\t\n      PUSH 0\t\t\t\n      PUSH 60\t\t\t\n      DUP3 \t\t\t\n      ADD \t\t\t\n      SWAP1 \t\t\t\n      POP \t\t\t\n      PUSH [tag] 574\t\t\t\n      PUSH 0\t\t\t\n      DUP4 \t\t\t\n      ADD \t\t\t\n      DUP7 \t\t\t\n      PUSH [tag] 236\t\t\t\n      JUMP \t\t\t\n    tag 574\t\t\t\n      JUMPDEST \t\t\t\n      PUSH [tag] 575\t\t\t\n      PUSH 20\t\t\t\n      DUP4 \t\t\t\n      ADD \t\t\t\n      DUP6 \t\t\t\n      PUSH [tag] 236\t\t\t\n      JUMP \t\t\t\n    tag 575\t\t\t\n      JUMPDEST \t\t\t\n      PUSH [tag] 576\t\t\t\n      PUSH 40\t\t\t\n      DUP4 \t\t\t\n      ADD \t\t\t\n      DUP5 \t\t\t\n      PUSH [tag] 226\t\t\t\n      JUMP \t\t\t\n    tag 576\t\t\t\n      JUMPDEST \t\t\t\n      SWAP5 \t\t\t\n      SWAP4 \t\t\t\n      POP \t\t\t\n      POP \t\t\t\n      POP \t\t\t\n      POP \t\t\t\n      JUMP \t\t\t\n    tag 272\t\t\t\n      JUMPDEST \t\t\t\n      PUSH 0\t\t\t\n      DUP2 \t\t\t\n      ISZERO \t\t\t\n      ISZERO \t\t\t\n      SWAP1 \t\t\t\n      POP \t\t\t\n      SWAP2 \t\t\t\n      SWAP1 \t\t\t\n      POP \t\t\t\n      JUMP \t\t\t\n    tag 273\t\t\t\n      JUMPDEST \t\t\t\n      PUSH [tag] 579\t\t\t\n      DUP2 \t\t\t\n      PUSH [tag] 272\t\t\t\n      JUMP \t\t\t\n    tag 579\t\t\t\n      JUMPDEST \t\t\t\n      DUP2 \t\t\t\n      EQ \t\t\t\n      PUSH [tag] 580\t\t\t\n      JUMPI \t\t\t\n      PUSH 0\t\t\t\n      DUP1 \t\t\t\n      REVERT \t\t\t\n    tag 580\t\t\t\n      JUMPDEST \t\t\t\n      POP \t\t\t\n      JUMP \t\t\t\n    tag 274\t\t\t\n      JUMPDEST \t\t\t\n      PUSH 0\t\t\t\n      DUP2 \t\t\t\n      MLOAD \t\t\t\n      SWAP1 \t\t\t\n      POP \t\t\t\n      PUSH [tag] 582\t\t\t\n      DUP2 \t\t\t\n      PUSH [tag] 273\t\t\t\n      JUMP \t\t\t\n    tag 582\t\t\t\n      JUMPDEST \t\t\t\n      SWAP3 \t\t\t\n      SWAP2 \t\t\t\n      POP \t\t\t\n      POP \t\t\t\n      JUMP \t\t\t\n    tag 111\t\t\t\n      JUMPDEST \t\t\t\n      PUSH 0\t\t\t\n      PUSH 20\t\t\t\n      DUP3 \t\t\t\n      DUP5 \t\t\t\n      SUB \t\t\t\n      SLT \t\t\t\n      ISZERO \t\t\t\n      PUSH [tag] 584\t\t\t\n      JUMPI \t\t\t\n      PUSH [tag] 585\t\t\t\n      PUSH [tag] 202\t\t\t\n      JUMP \t\t\t\n    tag 585\t\t\t\n      JUMPDEST \t\t\t\n    tag 584\t\t\t\n      JUMPDEST \t\t\t\n      PUSH 0\t\t\t\n      PUSH [tag] 586\t\t\t\n      DUP5 \t\t\t\n      DUP3 \t\t\t\n      DUP6 \t\t\t\n      ADD \t\t\t\n      PUSH [tag] 274\t\t\t\n      JUMP \t\t\t\n    tag 586\t\t\t\n      JUMPDEST \t\t\t\n      SWAP2 \t\t\t\n      POP \t\t\t\n      POP \t\t\t\n      SWAP3 \t\t\t\n      SWAP2 \t\t\t\n      POP \t\t\t\n      POP \t\t\t\n      JUMP \t\t\t\n    tag 275\t\t\t\n      JUMPDEST \t\t\t\n      PUSH 546F6B656E207472616E7366657246726F6D206661696C656421200000000000\t\t\t\n      PUSH 0\t\t\t\n      DUP3 \t\t\t\n      ADD \t\t\t\n      MSTORE \t\t\t\n      POP \t\t\t\n      JUMP \t\t\t\n    tag 276\t\t\t\n      JUMPDEST \t\t\t\n      PUSH 0\t\t\t\n      PUSH [tag] 589\t\t\t\n      PUSH 1B\t\t\t\n      DUP4 \t\t\t\n      PUSH [tag] 230\t\t\t\n      JUMP \t\t\t\n    tag 589\t\t\t\n      JUMPDEST \t\t\t\n      SWAP2 \t\t\t\n      POP \t\t\t\n      PUSH [tag] 590\t\t\t\n      DUP3 \t\t\t\n      PUSH [tag] 275\t\t\t\n      JUMP \t\t\t\n    tag 590\t\t\t\n      JUMPDEST \t\t\t\n      PUSH 20\t\t\t\n      DUP3 \t\t\t\n      ADD \t\t\t\n      SWAP1 \t\t\t\n      POP \t\t\t\n      SWAP2 \t\t\t\n      SWAP1 \t\t\t\n      POP \t\t\t\n      JUMP \t\t\t\n    tag 114\t\t\t\n      JUMPDEST \t\t\t\n      PUSH 0\t\t\t\n      PUSH 20\t\t\t\n      DUP3 \t\t\t\n      ADD \t\t\t\n      SWAP1 \t\t\t\n      POP \t\t\t\n      DUP2 \t\t\t\n      DUP2 \t\t\t\n      SUB \t\t\t\n      PUSH 0\t\t\t\n      DUP4 \t\t\t\n      ADD \t\t\t\n      MSTORE \t\t\t\n      PUSH [tag] 592\t\t\t\n      DUP2 \t\t\t\n      PUSH [tag] 276\t\t\t\n      JUMP \t\t\t\n    tag 592\t\t\t\n      JUMPDEST \t\t\t\n      SWAP1 \t\t\t\n      POP \t\t\t\n      SWAP2 \t\t\t\n      SWAP1 \t\t\t\n      POP \t\t\t\n      JUMP \t\t\t\n    tag 123\t\t\t\n      JUMPDEST \t\t\t\n      PUSH 0\t\t\t\n      PUSH 40\t\t\t\n      DUP3 \t\t\t\n      ADD \t\t\t\n      SWAP1 \t\t\t\n      POP \t\t\t\n      PUSH [tag] 594\t\t\t\n      PUSH 0\t\t\t\n      DUP4 \t\t\t\n      ADD \t\t\t\n      DUP6 \t\t\t\n      PUSH [tag] 236\t\t\t\n      JUMP \t\t\t\n    tag 594\t\t\t\n      JUMPDEST \t\t\t\n      PUSH [tag] 595\t\t\t\n      PUSH 20\t\t\t\n      DUP4 \t\t\t\n      ADD \t\t\t\n      DUP5 \t\t\t\n      PUSH [tag] 226\t\t\t\n      JUMP \t\t\t\n    tag 595\t\t\t\n      JUMPDEST \t\t\t\n      SWAP4 \t\t\t\n      SWAP3 \t\t\t\n      POP \t\t\t\n      POP \t\t\t\n      POP \t\t\t\n      JUMP \t\t\t\n    tag 277\t\t\t\n      JUMPDEST \t\t\t\n      PUSH 546F6B656E207472616E73666572206661696C65640000000000000000000000\t\t\t\n      PUSH 0\t\t\t\n      DUP3 \t\t\t\n      ADD \t\t\t\n      MSTORE \t\t\t\n      POP \t\t\t\n      JUMP \t\t\t\n    tag 278\t\t\t\n      JUMPDEST \t\t\t\n      PUSH 0\t\t\t\n      PUSH [tag] 598\t\t\t\n      PUSH 15\t\t\t\n      DUP4 \t\t\t\n      PUSH [tag] 230\t\t\t\n      JUMP \t\t\t\n    tag 598\t\t\t\n      JUMPDEST \t\t\t\n      SWAP2 \t\t\t\n      POP \t\t\t\n      PUSH [tag] 599\t\t\t\n      DUP3 \t\t\t\n      PUSH [tag] 277\t\t\t\n      JUMP \t\t\t\n    tag 599\t\t\t\n      JUMPDEST \t\t\t\n      PUSH 20\t\t\t\n      DUP3 \t\t\t\n      ADD \t\t\t\n      SWAP1 \t\t\t\n      POP \t\t\t\n      SWAP2 \t\t\t\n      SWAP1 \t\t\t\n      POP \t\t\t\n      JUMP \t\t\t\n    tag 129\t\t\t\n      JUMPDEST \t\t\t\n      PUSH 0\t\t\t\n      PUSH 20\t\t\t\n      DUP3 \t\t\t\n      ADD \t\t\t\n      SWAP1 \t\t\t\n      POP \t\t\t\n      DUP2 \t\t\t\n      DUP2 \t\t\t\n      SUB \t\t\t\n      PUSH 0\t\t\t\n      DUP4 \t\t\t\n      ADD \t\t\t\n      MSTORE \t\t\t\n      PUSH [tag] 601\t\t\t\n      DUP2 \t\t\t\n      PUSH [tag] 278\t\t\t\n      JUMP \t\t\t\n    tag 601\t\t\t\n      JUMPDEST \t\t\t\n      SWAP1 \t\t\t\n      POP \t\t\t\n      SWAP2 \t\t\t\n      SWAP1 \t\t\t\n      POP \t\t\t\n      JUMP \t\t\t\n    tag 279\t\t\t\n      JUMPDEST \t\t\t\n      PUSH 546F6B656E207472616E73666572206661696C65642100000000000000000000\t\t\t\n      PUSH 0\t\t\t\n      DUP3 \t\t\t\n      ADD \t\t\t\n      MSTORE \t\t\t\n      POP \t\t\t\n      JUMP \t\t\t\n    tag 280\t\t\t\n      JUMPDEST \t\t\t\n      PUSH 0\t\t\t\n      PUSH [tag] 604\t\t\t\n      PUSH 16\t\t\t\n      DUP4 \t\t\t\n      PUSH [tag] 230\t\t\t\n      JUMP \t\t\t\n    tag 604\t\t\t\n      JUMPDEST \t\t\t\n      SWAP2 \t\t\t\n      POP \t\t\t\n      PUSH [tag] 605\t\t\t\n      DUP3 \t\t\t\n      PUSH [tag] 279\t\t\t\n      JUMP \t\t\t\n    tag 605\t\t\t\n      JUMPDEST \t\t\t\n      PUSH 20\t\t\t\n      DUP3 \t\t\t\n      ADD \t\t\t\n      SWAP1 \t\t\t\n      POP \t\t\t\n      SWAP2 \t\t\t\n      SWAP1 \t\t\t\n      POP \t\t\t\n      JUMP \t\t\t\n    tag 152\t\t\t\n      JUMPDEST \t\t\t\n      PUSH 0\t\t\t\n      PUSH 20\t\t\t\n      DUP3 \t\t\t\n      ADD \t\t\t\n      SWAP1 \t\t\t\n      POP \t\t\t\n      DUP2 \t\t\t\n      DUP2 \t\t\t\n      SUB \t\t\t\n      PUSH 0\t\t\t\n      DUP4 \t\t\t\n      ADD \t\t\t\n      MSTORE \t\t\t\n      PUSH [tag] 607\t\t\t\n      DUP2 \t\t\t\n      PUSH [tag] 280\t\t\t\n      JUMP \t\t\t\n    tag 607\t\t\t\n      JUMPDEST \t\t\t\n      SWAP1 \t\t\t\n      POP \t\t\t\n      SWAP2 \t\t\t\n      SWAP1 \t\t\t\n      POP \t\t\t\n      JUMP \t\t\t\n    tag 154\t\t\t\n      JUMPDEST \t\t\t\n      PUSH 0\t\t\t\n      PUSH 60\t\t\t\n      DUP3 \t\t\t\n      ADD \t\t\t\n      SWAP1 \t\t\t\n      POP \t\t\t\n      PUSH [tag] 609\t\t\t\n      PUSH 0\t\t\t\n      DUP4 \t\t\t\n      ADD \t\t\t\n      DUP7 \t\t\t\n      PUSH [tag] 236\t\t\t\n      JUMP \t\t\t\n    tag 609\t\t\t\n      JUMPDEST \t\t\t\n      DUP2 \t\t\t\n      DUP2 \t\t\t\n      SUB \t\t\t\n      PUSH 20\t\t\t\n      DUP4 \t\t\t\n      ADD \t\t\t\n      MSTORE \t\t\t\n      PUSH [tag] 610\t\t\t\n      DUP2 \t\t\t\n      DUP6 \t\t\t\n      PUSH [tag] 244\t\t\t\n      JUMP \t\t\t\n    tag 610\t\t\t\n      JUMPDEST \t\t\t\n      SWAP1 \t\t\t\n      POP \t\t\t\n      DUP2 \t\t\t\n      DUP2 \t\t\t\n      SUB \t\t\t\n      PUSH 40\t\t\t\n      DUP4 \t\t\t\n      ADD \t\t\t\n      MSTORE \t\t\t\n      PUSH [tag] 611\t\t\t\n      DUP2 \t\t\t\n      DUP5 \t\t\t\n      PUSH [tag] 251\t\t\t\n      JUMP \t\t\t\n    tag 611\t\t\t\n      JUMPDEST \t\t\t\n      SWAP1 \t\t\t\n      POP \t\t\t\n      SWAP5 \t\t\t\n      SWAP4 \t\t\t\n      POP \t\t\t\n      POP \t\t\t\n      POP \t\t\t\n      POP \t\t\t\n      JUMP \t\t\t\n    tag 162\t\t\t\n      JUMPDEST \t\t\t\n      PUSH 0\t\t\t\n      PUSH 60\t\t\t\n      DUP3 \t\t\t\n      ADD \t\t\t\n      SWAP1 \t\t\t\n      POP \t\t\t\n      DUP2 \t\t\t\n      DUP2 \t\t\t\n      SUB \t\t\t\n      PUSH 0\t\t\t\n      DUP4 \t\t\t\n      ADD \t\t\t\n      MSTORE \t\t\t\n      PUSH [tag] 613\t\t\t\n      DUP2 \t\t\t\n      DUP7 \t\t\t\n      PUSH [tag] 244\t\t\t\n      JUMP \t\t\t\n    tag 613\t\t\t\n      JUMPDEST \t\t\t\n      SWAP1 \t\t\t\n      POP \t\t\t\n      DUP2 \t\t\t\n      DUP2 \t\t\t\n      SUB \t\t\t\n      PUSH 20\t\t\t\n      DUP4 \t\t\t\n      ADD \t\t\t\n      MSTORE \t\t\t\n      PUSH [tag] 614\t\t\t\n      DUP2 \t\t\t\n      DUP6 \t\t\t\n      PUSH [tag] 251\t\t\t\n      JUMP \t\t\t\n    tag 614\t\t\t\n      JUMPDEST \t\t\t\n      SWAP1 \t\t\t\n      POP \t\t\t\n      PUSH [tag] 615\t\t\t\n      PUSH 40\t\t\t\n      DUP4 \t\t\t\n      ADD \t\t\t\n      DUP5 \t\t\t\n      PUSH [tag] 226\t\t\t\n      JUMP \t\t\t\n    tag 615\t\t\t\n      JUMPDEST \t\t\t\n      SWAP5 \t\t\t\n      SWAP4 \t\t\t\n      POP \t\t\t\n      POP \t\t\t\n      POP \t\t\t\n      POP \t\t\t\n      JUMP \t\t\t\n    tag 281\t\t\t\n      JUMPDEST \t\t\t\n      PUSH 4D69736D61746368656420726563697069656E747320616E6420616D6F756E74\t\t\t\n      PUSH 0\t\t\t\n      DUP3 \t\t\t\n      ADD \t\t\t\n      MSTORE \t\t\t\n      PUSH 7300000000000000000000000000000000000000000000000000000000000000\t\t\t\n      PUSH 20\t\t\t\n      DUP3 \t\t\t\n      ADD \t\t\t\n      MSTORE \t\t\t\n      POP \t\t\t\n      JUMP \t\t\t\n    tag 282\t\t\t\n      JUMPDEST \t\t\t\n      PUSH 0\t\t\t\n      PUSH [tag] 618\t\t\t\n      PUSH 21\t\t\t\n      DUP4 \t\t\t\n      PUSH [tag] 230\t\t\t\n      JUMP \t\t\t\n    tag 618\t\t\t\n      JUMPDEST \t\t\t\n      SWAP2 \t\t\t\n      POP \t\t\t\n      PUSH [tag] 619\t\t\t\n      DUP3 \t\t\t\n      PUSH [tag] 281\t\t\t\n      JUMP \t\t\t\n    tag 619\t\t\t\n      JUMPDEST \t\t\t\n      PUSH 40\t\t\t\n      DUP3 \t\t\t\n      ADD \t\t\t\n      SWAP1 \t\t\t\n      POP \t\t\t\n      SWAP2 \t\t\t\n      SWAP1 \t\t\t\n      POP \t\t\t\n      JUMP \t\t\t\n    tag 175\t\t\t\n      JUMPDEST \t\t\t\n      PUSH 0\t\t\t\n      PUSH 20\t\t\t\n      DUP3 \t\t\t\n      ADD \t\t\t\n      SWAP1 \t\t\t\n      POP \t\t\t\n      DUP2 \t\t\t\n      DUP2 \t\t\t\n      SUB \t\t\t\n      PUSH 0\t\t\t\n      DUP4 \t\t\t\n      ADD \t\t\t\n      MSTORE \t\t\t\n      PUSH [tag] 621\t\t\t\n      DUP2 \t\t\t\n      PUSH [tag] 282\t\t\t\n      JUMP \t\t\t\n    tag 621\t\t\t\n      JUMPDEST \t\t\t\n      SWAP1 \t\t\t\n      POP \t\t\t\n      SWAP2 \t\t\t\n      SWAP1 \t\t\t\n      POP \t\t\t\n      JUMP \t\t\t\n    .data\n"
}